:020000040000FA
:0608000010EF30F01200C1
:060808004EEF22F0120089
:06082A000600395F00002A
:10083000FF0400000100000088600000000F0000BD
:100840005100000062600000C9070000260000009F
:1008500060600000590F0000020000005E600000B0
:10086000570F0000020000005C600000550F000000
:040870000200000082
:0C0874000401026B0A0E025D2BE202512F
:10088000240DF3CF03F4F4CF04F4000E03270C0E71
:10089000042332EC0EF00A0EEF6E95EC0FF0EF90A1
:1008A00095EC0FF0EF8295EC0FF0EF8495EC0FF0E4
:1008B000EF9895EC0FF0EF9632EC0EF043EC0FF062
:1008C00032EC0EF057EC0FF032EC0EF079EC0FF04A
:1008D000022BD2D712000401076B0A0E075D3FE21C
:1008E0000751240DF3CF08F4F4CF09F4000E0827C4
:1008F0000C0E09231EEC0EF0EF500A082EE11EEC40
:100900000EF0EF6A1EEC0EF00B0E05C4EBFF0C0EA2
:1009100006C4EBFF1EEC0EF00D0EEB6A0E0EEB6A3A
:100920001EEC0EF074EC0FF0B8EC0FF0EF80B8ECAA
:100930000FF0EF961EEC0EF06AEC0EF008E01EECE5
:100940000EF02CEC0EF01EEC0EF043EC0FF0B8ECB9
:100950000FF0EF82040107511200072BBED7FE0CE7
:100960000401116B0E6B0A0E0E5D14E20E51240D84
:10097000F3CF0FF4F4CF10F4000E0F270C0E10235A
:10098000D9EC0DF0EF500A0803E1010E116F02D00F
:100990000E2BE9D7115101E1FE0C0F01552B000E72
:1009A0005623D9EC0DF00B0E55CFEBFF0C0E56CFA6
:1009B000EBFF880ED8805555130E565503E2556B44
:1009C000040E566FD9EC0DF0CEEC0EF0EF90D9EC92
:1009D0000DF00D0E0CC4EBFF0E0E0DC4EBFF5DEC25
:1009E0000FF01A0EB2EC0DF0BAEC0EF00A0EE66E35
:1009F000E66A0AC4E6FF0BC4E6FFD9EC0DF0E3ECAF
:100A00000DF06EEC0EF00401020E896FD9EC0DF0C2
:100A100034EC0FF0D9EC0DF0C7EC0FF0D9EC0DF081
:100A200038EC0FF0D9EC0DF03CEC0FF0D9EC0DF0F8
:100A300017EC0EF0D9EC0DF0010EEF6E5DEC0FF03F
:100A400074EC0EF004010E51120004011251CFECAF
:100A50000DF0EF50030801E0000C010C04011351EC
:100A6000240DF3CF14F4F4CF15F4000E14270C0E5C
:100A7000152337EC0EF0EF5003080BE037EC0EF0C7
:100A8000EF50020806E014C4BEF415C4BFF457EFDB
:100A90000BF013C425F46DD96EEC0EF00401110EA9
:100AA000896F37EC0EF034EC0FF037EC0EF0C7EC3A
:100AB0000FF037EC0EF038EC0FF037EC0EF03CECAA
:100AC0000FF037EC0EF017EC0EF037EC0EF098EC60
:100AD0000FF0BFEC0EF037EC0EF0040EEF6E1200CC
:100AE00004011651240DF3CF17F4F4CF18F4000EBF
:100AF00017270C0E1823CAEC0DF06AEC0EF001E17A
:100B0000000CCAEC0DF07EEC0FF0020B01E1000CC2
:100B1000CAEC0DF06DEC0FF0CAEC0DF00F0EEB50BF
:100B200004018A6F0401180E896F34EC0FF0CAECCF
:100B30000DF0C7EC0FF0CAEC0DF038EC0FF0CAEC7A
:100B40000DF03CEC0FF0CAEC0DF017EC0EF0CAEC17
:100B50000DF0100E0AEC0FF0026A036ACAEC0DF0F9
:100B600098EC0FF089EC0EF0CAEC0FF0EF92CAECA3
:100B70000FF0EF98CAEC0DF06AEC0EF008E0CAEC4A
:100B80000DF02CEC0EF0CAEC0DF043EC0FF0CAECBB
:100B90000FF0EF82010C0A0E0401195D01E3000C55
:100BA0001951CFEC0DF0140E40EC0FF001E1000CE8
:100BB0001951CFEC0DF00F0EB2EC0DF0EF50FF0815
:100BC00004E10601776B28EF17F01951CFEC0DF017
:100BD0007EEC0FF0020B01E0010E120004011A512D
:100BE000240DF3CF1CF4F4CF1DF4000E1C270C0EC3
:100BF0001D233CEC0EF0140E40EC0FF001E1000C54
:100C00003CEC0EF06AEC0EF018E10601786B30EC6B
:100C100017F0E66E3CEC0EF00F0EBBEC0FF03CEC68
:100C20000EF06AEC0EF001E1000C3CEC0EF092ECE0
:100C30000EF03CEC0EF0A6EC0EF03CEC0EF0CEEC20
:100C40000EF0EF881BC479F638EC17F03CEC0EF090
:100C5000140EB2EC0DF0EE06EF5A3CEC0EF0100E56
:100C6000B2EC0DF0EE2AED22EECF00F0EDCF01F068
:100C7000CA0E005C030E015803E31AC416F430DFF9
:100C8000010C04011E51240DF3CF23F4F4CF24F4FE
:100C9000000E23270C0E242300EC0EF0140E40EC63
:100CA0000FF001E1000C00EC0EF06AEC0EF018E120
:100CB0000601786B30EC17F0E66E00EC0EF00F0ECC
:100CC000BBEC0FF000EC0EF06AEC0EF001E1000C52
:100CD00000EC0EF092EC0EF000EC0EF0A6EC0EF034
:100CE000A8EC0FF004012151EE24006E2251EE20F9
:100CF000016ECA0ED8800054030E01540BE2A8EC1A
:100D00000FF0EECF21F4EFCF22F4CA0ED880215796
:100D1000030E225700EC0EF0CEEC0EF0EF8821C44B
:100D20007CF622C47DF61FC47AF620C47BF664EC00
:100D300017F000EC0EF0140EB2EC0DF0040121518E
:100D4000EE5E2251ED5AA8EC0FF02151EE26225111
:100D5000ED2200EC0EF0100E0AEC0FF0CA0E005C53
:100D6000030E015803E31EC416F4BADE0401215138
:100D7000120004012551240DF3CF26F4F4CF27F4FB
:100D8000000E26270C0E272326C4E9FF27C4EAFFFE
:100D9000C1EC0FF001E1000C7BEC19F026C4E9FF77
:100DA00027C4EAFFC4EC0FF0010C04012851240D04
:100DB000F3CF2DF4F4CF2EF4000E2D270C0E2E239E
:100DC00051EC0EF0C1EC0FF03DE051EC0EF07EEC7A
:100DD0000FF0040B0CE00401DC6BDD6B28C4DBF4CA
:100DE00065EC0DF051EC0EF0CEEC0EF0EF9451EC02
:100DF0000EF0120E0AEC0FF004012B51005C2C5186
:100E0000015809E251EC0EF0120EB2EC0DF0EECFEB
:100E10002BF4EDCF2CF451EC0EF0120E40EC0FF051
:100E200007E17BEC19F051EC0EF0C4EC0FF00AD0A6
:100E30002BC487F62CC488F629C485F62AC486F606
:100E400093EF18F0F36AF46A120004012F51240D95
:100E5000F3CF34F4F4CF35F4000E34270C0E3523E1
:100E6000366B376B386B56EC0EF0C1EC0FF049E087
:100E700056EC0EF07EEC0FF0040B0CE00401DC6B82
:100E8000DD6B2FC4DBF465EC0DF056EC0EF0CEEC10
:100E90000EF0EF9456EC0EF0120E0AEC0FF0040177
:100EA0003251005C000E015809E256EC0EF0120EB1
:100EB000B2EC0DF0EFCF32F4100E366F56EC0EF0B0
:100EC000120E40EC0FF009E17BEC19F056EC0EF03D
:100ED000C4EC0FF0F36AF46A120033C48EF632C425
:100EE0008DF630C48BF631C48CF6E2EC18F0F3CFFB
:100EF00037F4F4CF38F4200E0401F45C04E1200E42
:100F000001D0300E366F36C438F437C4F3FF36C420
:100F1000F4FF120004013951240DF3CF3CF4F4CF57
:100F20003DF4000E3C270C0E3D2365EC0EF0C1ECA9
:100F30000FF02EE065EC0EF07EEC0FF0040B0CE0F1
:100F40000401DC6BDD6B39C4DBF465EC0DF065ECA2
:100F50000EF0CEEC0EF0EF9465EC0EF0120E40ECBD
:100F60000FF007E17BEC19F065EC0EF0C4EC0FF02C
:100F7000000C65EC0EF0120EB2EC0DF0EE06EF5A1E
:100F800047EC18F03AC4E9FF3BC4EAFFEF6E010CEE
:100F9000000C0A0E04013E5D01E3000C3E51CFEC53
:100FA0000DF0C1EC0FF001E0010E120004014E6BD8
:100FB0003F6B0A0E3F5D01E3F1D03F51240DF3CFAB
:100FC00048F4F4CF49F4000E48270C0E4923C0EC36
:100FD0000DF0C1EC0FF001E0DED0C0EC0DF07EECC6
:100FE0000FF0100B01E0D7D0C0EC0DF0EF500A0865
:100FF00001E1D1D0C0EC0DF0EF50000907E1C0ECE9
:101000000DF07EEC0FF0010B01E0C5D0C0EC0DF04F
:101010001F0EB2EC0DF00401EE50F85D006EEE50C4
:10102000F959016EC0EC0DF0210EB2EC0DF0A1ECFF
:101030000EF00050025C0150035801E3ACD00601F1
:10104000010E776F28EC17F0000901E11200C0ECE7
:101050000DF074EC0EF0C0EC0DF0210EB2EC0DF0C2
:10106000010ED890EE36ED36E806FBE1C0EC0DF04F
:101070001E0EB2EC0DF0EF2AC0EC0DF0EF50090A95
:1010800040E0010A36E00F0A43E0020A41E0030AA9
:101090003FE0020A28E0070A1FE0010A05E0030A10
:1010A0003CE10401020E32D068EC0FF003E30401CE
:1010B000120E2CD0C0EC0DF07EEC0FF0010B04E012
:1010C000C0EC0DF0EF6A24D00401020E4E6FC0ECAC
:1010D0000DF0010EEF6E1CD00401110E4E6FC0EC2E
:1010E0000DF0040E0CD068EC0FF012E30401010EB9
:1010F0000DD00401010E4E6FC0EC0DF0090EEF6E25
:101100000CD068EC0FF004E30401110E4E6F05D013
:1011100048C4BEF449C4BFF4CADA04014E513BE0EE
:101120004EA90DD0C0EC0DF098EC0FF0EECF4AF4C4
:10113000EECF4BF4EECF4CF4EFCF4DF410D0C0EC2B
:101140000DF098EC0FF0EFCF4AF4EE2AEFCF4BF40E
:10115000EE22EFCF4CF4EE22EFCF4DF4EF226EEC07
:101160000EF04EC489F4C0EC0DF034EC0FF04AC41C
:1011700081F44BC482F44CC483F44DC484F4C0ECB9
:101180000DF038EC0FF0C0EC0DF03CEC0FF0C0ECC3
:101190000DF017EC0EF004013F2B0BD712004FC4DB
:1011A000E9FF50C4EAFF060EB2EC0DF0EECF69F491
:1011B000EECF6AF4EECF6BF4EFCF6CF451C4E9FFDD
:1011C00052C4EAFFEECF6DF4EECF6EF4EECF6FF4C3
:1011D000EFCF70F40401716B060E726F53C473F499
:1011E00054C474F453C469FD54C46AFD89EC1FF0FF
:1011F000F3CF73F4F4CF74F40C0E0D017B6F7C6BA2
:101200000D01690E796F040E7A6FC3EC1FF0F3CFF6
:1012100076F4F4CF77F40401761F771F53C485FD6D
:1012200054C486FD2DEC20F0F3CF78F4F4CF79F49C
:101230000401F450765D58E17851775D55E106017F
:10124000676B686B7BEC27F0140E0601876F886B69
:101250000601550E856F040E866F93EC18F004019D
:10126000550EBB6F040EBC6FE5D9040198EC0EF06F
:10127000006E016A140E005E000E015A00C07AF47E
:101280000050006E016AE850535D536F015054598D
:10129000546F140E535F000E545B98EC0EF0060171
:1012A000676F686B7BEC27F04FC4B5F450C4B6F49D
:1012B0000401550EB36F040EB46F42D90401756F6B
:1012C000FE0E755D11E053C4C5F454C4C6F40401A8
:1012D000550EC36F040EC46F4FC4C1F450C4C2F4A2
:1012E00075C4C0F412DA010C7BEC19F0010C060194
:1012F000010E776F28EC17F0000902E10400F7D720
:10130000FF0E04018A5D07E10601010E786F30ECE3
:1013100017F004018A6FFF0E04018A5D01E10FD10D
:10132000140E0601CC6FCD6B8AC4CBF6A6EC1BF075
:101330007DC48FF47EC490F47FC491F480C492F491
:1013400081C493F482C494F483C495F484C496F461
:1013500085C497F486C498F487C499F488C49AF431
:1013600004019C9D9C9F04019B919B939B959B9743
:1013700089C49CF48FEC19F0F3CF9DF4F4CF9EF464
:101380000401000E9D5D040E9E5905E304019D6B52
:10139000040E9E6F11D00401360ED8809D55000EAC
:1013A0009E5507E2360E04019D5F000E04019E5B10
:1013B00003D004019D6B9E6B04019F6BA06B040125
:1013C000A16BA26B04018F0EBB6F040EBC6F32D9F0
:1013D000140E04018B27000E04018C23040189A341
:1013E00017D0040E04018B27000E04018C23040186
:1013F000020EA36F0401040EA46F0401040EA56F76
:101400000401A66B04019B999B8B9B8D9B9F05D030
:1014100004019B899B9B9B8D9B9FE4C4A7F4E5C41F
:10142000A8F4E6C4A9F4E7C4AAF47BC4E9FF7CC429
:10143000EAFF060EE926000EEA22EECFABF4EECF6D
:10144000ACF4EECFADF4EFCFAEF40401AF6B04011A
:10145000060EB06F8BC4B1F48CC4B2F4B1C469FD94
:10146000B2C46AFD89EC1FF0F3CFB1F4F4CFB2F44B
:101470000C0E0D017B6F7C6B0D01A70E796F040EB6
:101480007A6FC3EC1FF0F3CF9FF4F4CFA0F4040104
:101490009F1FA01F9FC48DF4A0C48EF48BC451F66F
:1014A0008CC452F60601060E506F7BC44EF67CC407
:1014B0004FF611EC27F0140E06017C6F7D6B0601D0
:1014C0008F0E7A6F040E7B6F64EC17F0040189A312
:1014D0000BD0040E06017C6F7D6B0601A30E7A6FA4
:1014E000040E7B6F64EC17F0140E0601CC6FCD6B0D
:1014F0008AC4CBF6A6EC1BF08BC485FD8CC486FD9C
:101500002DEC20F0F3CF8DF4F4CF8EF4240E0601F1
:10151000CC6FCD6B8AC4CBF6A6EC1BF08EC479F6EB
:1015200038EC17F08DC479F638EC17F00601CC6B67
:10153000CD6B8AC4CBF6A6EC1BF018EC1BF01200A6
:101540000401FE0EBA6FB96B0A0EB95D4EE2B951D5
:10155000D2DB5BDBEF500A0845E057DB0B0E0AECF1
:101560000FF0C4EC0EF0020EFDDAEBDB00010250CE
:10157000001838E10350011835E147DBEF5000094E
:1015800002E1B9C4BAF441DB0D0E0AEC0FF0C4EC71
:101590000EF0D7DB0250001825E10350011822E1BC
:1015A000B5C4E9FFB6C4EAFF060EDCDAEECF04F0FC
:1015B000EECF05F0EECF06F0EFCF07F026DBEE52D0
:1015C000060EB5EC0FF004180DE1EE5005180AE117
:1015D000EE50061807E1EE50071804E103E104019C
:1015E000B95112000401B92BAFD7FE0EBA5D01E16B
:1015F000FE0CBA5180DB0A0EE66EE66AB5C4E6FF61
:10160000B6C4E6FF02DBDFDA0250BEDBF4DAFDDA55
:10161000A3DBFBDAC4EC0FF0F8DA5CDB05E0F5DA0B
:101620001BDBF3DA43EC0FF0F0DAB8DBEF820401F6
:10163000BA511200AADAEFCFBDF4AFEC0FF065DBC0
:10164000A4DA1BEC0FF0020E2CEC0FF0020ECADB3A
:10165000020E31EC0FF0020EBEEC0FF0040EC5DBF3
:10166000040E62EC0FF0080EC0DB080E62EC0FF007
:101670000E0EF2DB0E0EB6DB0E0EF3DB0E0EBEEC24
:101680000FF0100EE9DB100EADDB100EEADB100ED2
:10169000BEEC0FF0120EE0DB120EA4DB120EE1DB4B
:1016A000120E60DA010E5EDABDC4EFFF120086DAB8
:1016B00011DB07E083DAD0DA81DAE5DB7FDA6EDB93
:1016C000EF827CDA74EC0FF079DA0D0EEB6A0E0E15
:1016D000EB6A74DAC1EC0FF002E07BEC19F06EDA21
:1016E000C4EC0FF06BDAE3DB69DA58DBEF9866DA0B
:1016F0007EEC0FF0010B03E061DAEF6A03D05EDAF3
:101700000A0EEF6E5BDA79EF0FF00401C051240D81
:10171000F3CFD7F4F4CFD8F4000ED7270C0ED8238C
:10172000C5C400F4C6C401F4D96B20DA1E0E1ADA5F
:10173000EF6A1CDAD9DA1ADABADB2BDB040B0DE01C
:101740007BEC19F013DADADB010B02E0000E01D0BA
:10175000010EE66E0BDA85EF0EF041DB98DB0E0E24
:1017600001DAEECF04F0EFCF05F0066A076A03DA7C
:10177000080EB5EC0FF0CB5D086EEE50CC59096E3B
:10178000EE50CD590A6EEE50CE590B6E0850045CE7
:10179000006E09500558016E0A500658026E0B5033
:1017A0000758036EE3D9100EDDD9EECF0CF0EFCF62
:1017B0000DF00E6A0F6A0C50005CC76F0D50015897
:1017C000C86F0E500258C96F0F500358CA6F800E71
:1017D000CA1506E0CBD9140EEB6A150EEB6A07D0DA
:1017E000C5D9140EC7C4EBFF150EC8C4EBFFB4DB9C
:1017F00001081DE1CEDA020B05E193DB100B01E1DC
:1018000053D11BD0CEDA7DDB3CDACADB06E1AED9A0
:10181000020EEF6E7BEC19F029D0A8D9030EEF6E03
:10182000100ED96F88DBC551C61161E1B3D094DBCE
:10183000000920E176DB020B03E10401040E18D05D
:10184000B0DA79DB0A0EE66EE66AC1C4E6FFC2C40E
:10185000E6FF8CD9B8D902508ED9CDD987D97CDA98
:1018600085D9020EEF6EBBDAD8DA0BDA0401120E5C
:10187000D96FCDD046DBEECFCFF4EECFD0F4EECFA4
:10188000D1F4EFCFD2F4ABDAEECFD3F4EECFD4F481
:10189000EECFD5F4EFCFD6F46ED9040E63D9F1D9DB
:1018A000C551C727C651C823000EC923CA2397DADA
:1018B000EEDA040E5ADBCF1901E09CD0EE50D019BD
:1018C00001E098D0EE50D11901E094D0EE50D21939
:1018D00001E090D001E08ED03FDB02080AE160DB3E
:1018E00059E0AFDA030EEF6EC551C61153E00DDBC0
:1018F0008ED0A7DAEF50030850E152DB23E03BD94A
:10190000080E30D9EECF00F0EECF01F01ADA67DA28
:101910000050EE1817E10150EE1814E10250EE18D5
:1019200011E10350EE180EE10DE120D9E7DA020BC8
:1019300009E11CD9CFD906E019D98ED917D9A3DA74
:101940002CDBEF8226DA010B09E00401110ED96FBE
:1019500046DA63DA5FD90AD9090EEF6E0401C55180
:10196000C61118E003D90DDB03E1CFDAD9894FD0D6
:1019700036DAD3C4EEFFD4C4EEFFD5C4EEFFD6C42E
:10198000EEFFBFDACFC4EEFFD0C4EEFFD1C4EEFF4E
:10199000D2C4EEFF7BEC19F03AD0DEDA090804E19C
:1019A000C0DA100B34E020D0D7DA04080FE1B9DA3E
:1019B000010B06E076DAF4DA17E1D8D8060E04D087
:1019C000EFDA25E0D3D8050EEF6E21D0C5DA050891
:1019D00005E1A7DA010B1BE064DA06D0BDDA0608E0
:1019E00016E19FDA100B13E0D7C4BEF4D8C4BFF4DD
:1019F0005EDE0DD07BEC19F00401100ED96FCFC460
:101A0000C7F4D0C4C8F4D1C4C9F4D2C4CAF4040120
:101A1000D9514AE0ABD872DA020B28E1A7D85AD9DB
:101A200025E0A4D8100E2CDA21E08BDA0050EE5E0F
:101A30000150EE5A0250EE5A0350EE5A97D84DDA42
:101A400095D80F0EEB5004018A6F080E0401D911CE
:101A50000401896F09DAC3D9F6D888D809DA86D89B
:101A60000BDA84D8E4D86DDA89EF0EF037D9D9C40F
:101A700089F4C7C485F4C8C486F4C9C487F4CAC449
:101A800088F4CBC481F4CCC482F4CDC483F4CEC436
:101A900084F471D810D96FD8020E64D811D9C1C49A
:101AA0007BF4C2C47CF423DC12000401DA51240D5F
:101AB000F3CF00F0F4CF01F0000E00260C0E01224F
:101AC00000C0F3FF01C0F4FF12000401DB51240D3C
:101AD000F3CFDFF4F4CFE0F4000EDF270C0EE023A9
:101AE0000C0E0601676F686B7BEC27F047EC18F073
:101AF000E840E8403F0B3C0B0401DE6FDC51005D29
:101B0000006E0151DD55016EDFC4E9FFE0C4EAFF5C
:101B1000120E00C0EBFF130E01C0EBFFDE51DC25FF
:101B20000601676F000E0401DD210601686F7BEF7F
:101B300027F00401E151240DF3CFE2F4F4CFE3F4F4
:101B4000000EE2270C0EE323E2C4E9FFE3C4EAFF40
:101B5000120E0BDA005D006EEE50015900C0F3FF6B
:101B6000F46E1200E926000EEA221200D7C4E9FF43
:101B7000D8C4EAFF1200C3C4E9FFC4C4EAFF1200DC
:101B800048C4E9FF49C4EAFF1200BBC4E9FFBCC472
:101B9000EAFF120017C4E9FF18C4EAFF1200240D7F
:101BA000F3CFE9FFF4CFEAFF000EE9260C0EEA229C
:101BB00012000FC4E9FF10C4EAFF1200BEC4E9FF1F
:101BC000BFC4EAFF1200EE52E9CF00F0EACF01F005
:101BD000E9CFE6FFEACFE6FF4AEC2EF0026E060EF2
:101BE000E15E1200EECF85F4EECF86F4EECF87F4FF
:101BF000EFCF88F41200EECF00F0EFCF01F012002B
:101C000023C4E9FF24C4EAFF1200B7C4E9FFB8C443
:101C1000EAFF1200EF2AEECFC7F4EF22EECFC8F4AE
:101C2000EF22EECFC9F4EF22EFCFCAF41200EE524A
:101C3000E9CF7BF4EACF7CF477EF09F008C4E9FF41
:101C400009C4EAFF1200EECF81F4EECF82F4EECFAA
:101C500083F4EFCF84F412000F0EEB500601936F64
:101C600068EF19F003C4E9FF04C4EAFF120014C4CA
:101C7000E9FF15C4EAFF12001CC4E9FF1DC4EAFF16
:101C80001200EECFC7F4EECFC8F4EECFC9F4EFCF19
:101C9000CAF4120001C0EEFF02C0EEFF03C0EEFF67
:101CA00012002DC4E9FF2EC4EAFF120034C4E9FF7C
:101CB00035C4EAFF1200EECF7FF4EDCF80F41200BE
:101CC000EECF7DF4EDCF7EF412003CC4E9FF3DC4BD
:101CD000EAFF12000F0EEB50FF08120004018B6B9D
:101CE0008C6B04018A6912001F0EF8C4EBFF200EF2
:101CF000F9C4EBFF1200240DF3CFB7F4F4CFB8F41E
:101D0000000EB7270C0EB8231200E552E750EF6E15
:101D100012000050EE260150EE220250EE22035037
:101D2000EE221200E6D8280E0601CC6FCD6B120011
:101D30006151F00BE842E842E842E842040DF350FA
:101D40001200EECF02F0EFCF03F012000F0EEB50B7
:101D50000601CB6FA6EF1BF00D0E00C0EBFF0E0EC1
:101D600001C0EBFF1200140E00C0EBFF150E01C006
:101D7000EBFF1200EE6AEE6AEE6AEE6A1200EE2ADD
:101D8000EE22EE22EE221200B3C4E9FFB4C4EAFF51
:101D90001200F1DE0D0EE6DEEF501200230EB2EF60
:101DA0000DF0C5C404F0C6C405F0066A076AE3DE98
:101DB000040EDBD80424006EEE500520016EEE50B8
:101DC0000620026EEE500720036E002A000E01224C
:101DD0000222032296D800C0EEFF4AEF0EF0C6DEC4
:101DE00098EF0FF0BFDEAFEF0FF0BCDEEECF6EFD71
:101DF000EECF6FFDEECF70FDEFCF71FD94EC1FF0D5
:101E000022C000F023C001F024C002F025C003F07E
:101E1000C5EF0DF0A7DEFBEF0DF0EFCFCBF4EE2A10
:101E2000EFCFCCF4EE22EFCFCDF4EE22EFCFCEF415
:101E3000EF2281EF0FF0010E95DEBDC4EFFFC5EF7D
:101E40000DF05FD8C7C4EEFFC8C4EEFFC9C4EEFFF3
:101E5000CAC4EEFFB6EF0DF085DEEFCFBDF4C5EFDF
:101E60000DF089D8C5EF0DF01A0E7CDEF2EF0DF003
:101E70000D0E78DE5BEF0EF00B0E74DE60EF0EF0F1
:101E800074D8ED1012000F0E6DDEEF681200EECF69
:101E9000CBF4EECFCCF4EECFCDF4EFCFCEF4BBEF5E
:101EA0000DF00401100ED96F2CD80AEF0EF0210EA0
:101EB00059DEC80EEE6EED6A12007BDE39D85FDFA8
:101EC000D9EF0DF04FDE22C0EEFFE4DEC5EF0DF0DE
:101ED00057DE1E0EEB5003081200100E43DEEECF4D
:101EE0008BF4EDCF8CF41200EE52060E3BDEBAEF0F
:101EF0000EF0100EEB6A110EEB6A12004FDFEF507E
:101F0000120034DE1A0EB2EF0DF047D8EF862EDE47
:101F1000120EC5C4EBFF130EC6C4EBFF3ED8EF8410
:101F200012007BEC19F0C9EF0EF09CDECEEF0EF044
:101F3000160EB2EF0DF01FDE0E0E6CDF17DEB3EFE4
:101F40000EF014DE100E66DF026A036AEFEF0EF089
:101F500057DE100EB2EF0DF009DEEF501200010E49
:101F600001DEEF50E66EC5EF0DF0FCDDEE50120025
:101F700065DECEEF0EF0F6DD85EF0EF0F3DD1BEF44
:101F80000FF0BCDF080B120009DFEF961200D0DF64
:101F900023EF0EF0FFDDCEEF0EF0E8DDCEEF0EF01A
:061FA000F8DE100B120038
:0A1FA600F8C428F3F9C429F303017D
:101FB0002A6B040E2A5D19E2500E0401056F066BB0
:101FC0006BEC04F0E66E030138EC15F0E552E750D7
:101FD000EF6E38EC15F036EC15F0EF6A38EC15F0D2
:101FE00012EC15F0EF6A2A2BE4D7120003012B6BD9
:101FF000040E2B5D06E22BC336F393D803012B2B83
:10200000F7D712002CC32EF32DC32FF303012EC3D9
:10201000E9FF2FC3EAFF2E2B000E2F23EF502E08CF
:1020200007E02EC3E9FF2FC3EAFFEF50EFE10A0CF0
:10203000306B3051006E016A100E005C000E0158CA
:1020400015E2305114EC15F02EC3E6FF2FC3E6FF66
:1020500075EC2EF0036E050EE15E0350000903E1FE
:102060000301305112000301302BE3D70A0C4DEC71
:1020700015F004E0200E0301345DF9E00301356B37
:102080002B0E0301345D02E1200E346F2F0E345D00
:1020900023E05C0E345D20E0200E345D20E03F0E36
:1020A000345D1DE00D0E345D1AE00A0E345D17E05C
:1020B0000C0E355D11E2610E345D05E334517A0892
:1020C00002E3200E345F3551352BEA6A3225E96E82
:1020D0003351EA2234C3EFFF4DEC15F0D1E1030197
:1020E0003551EA6A3225E96E3351EA22EF6A3551F9
:1020F00012E1450E006E5E0E016E026A00C0E6FF40
:10210000E66E02C0E6FF32C3E6FF33C3E6FF8BECA8
:102110002EF0050EE15E3F0E0301345D01E1010C7E
:10212000000C030136510A0DF3CF47F3F4CF48F307
:10213000000E4727030E4823010E456F030145514A
:1021400001E1CBD1456B4D6B09EC15F064EC15F05A
:102150000DE1C6EC15F0020B02E0BCEC15F07CECD6
:1021600015F0EF9482EC15F0EF6A120009EC15F00F
:10217000020EEB50080AE2E00F0A01E19ED1010ACB
:1021800001E16FD1030A01E16CD1010AD7E0070A2E
:1021900001E18FD1010A01E149D1030A01E108D12E
:1021A000010ACCE109EC15F071EC15F0C7E0030170
:1021B000010E456FF8C428F3F9C429F37CEC15F03F
:1021C000EF6AA6EC15F00301576FE0D90301446FE5
:1021D0000301370E326F030E336FA6EC15F00301C7
:1021E000316F45DF03014D91E8B04D81A6EC15F04C
:1021F0000401E16F99EC0DF0F3CF4BF3F4CF4CF306
:102200000301370E6D6F030E6E6F36C36CF3A7DBE1
:102210000301370E2C6F030E2D6FF4DEB5EC15F0B5
:10222000060814E07FEC15F0EF0402E0000E01D088
:10223000010E000E00090AE1CDEC15F0040802E0E1
:10224000000E01D0010E000E000904E07CEC15F038
:10225000EF8003D07CEC15F0EF90CDEC15F0060884
:1022600002E0000E01D0010E000E000908E1580E38
:102270000301375D04E07CEC15F0000907E0C6ECD3
:1022800015F0040B03E1A9EC15F035D0030144511E
:1022900001E088D07CEC15F04D93EF50040B01E089
:1022A0004D834DA115D04BC3DCF44CC3DDF4A6EC3B
:1022B00015F00401DB6F65EC0DF00701370E7E6F42
:1022C000030E7F6F47C37CF748C37DF7EBEC23F029
:1022D0007CEC15F003014D51020B02E0EF8401D0BC
:1022E000EF94A9EC15F0C6EC15F0100B0DE0C6EC60
:1022F00015F0040B09E195EC15F0020EEF6E89DB89
:10230000C9EC15F0060ED7D082EC15F0050EEF6E75
:1023100085EC15F0ACEC15F0006E010E005C2EE3C0
:10232000CDEC15F004082AE3370EE66E030EE66ED8
:10233000A4EC2EF0E552E552F3CF46F3CDEC15F0C8
:10234000030802E3030E01D0020E0301465FCDEC49
:1023500015F00B0FB5EC15F067DB4651046A370F2B
:10236000036E030E042203C0E6FF04C0E6FF8BECFD
:102370002EF0056E050EE15E0550C7DBEDDBFF08B4
:1023800003E1D3DBEF6A06D0E7DBFE0806E1CDDB35
:10239000010EEF6EB7DB050E8ED0AEDBEF82B2DB47
:1023A000010E89D0440501E0C9D6ACDB030E83D011
:1023B000D7DB01E1C3D60301010E456F0301CE0E49
:1023C000686F5D0E60DB94DB0301DE0E686F5D0EEF
:1023D0005ADB95DBEF34EA6AFE0BEA36E96EC90E8A
:1023E000E926070EEA22EECF68F3EDCF69F336C394
:1023F00067F391DA7DDB83DBEFCF00F00B0E005C3F
:1024000005E30301ED0E686F5D0E3DDBBFDB010BE5
:1024100005E10301100E686F5A0E35DB69DBF9DA4E
:10242000030EB7DBEF6A6EDB020E45D0F2DA59DB42
:1024300001E08FDB61DB03014D93EF50040B01E002
:102440004D8336C35FF3E5D8000904E095DB5ADB22
:10245000070EEF6E51DB03014D51020B3CE0EF84A0
:102460006DD67EDB01E16AD660DBEF34EA6AFE0BF3
:10247000EA36E96EE90EE926070EEA22EECF49F3C5
:10248000EDCF4AF3030149C3F6FF4AC3F7FF492BD7
:10249000000E4A230800F5CF46F3F55005E046C389
:1024A0001BF4B7DAF5DAEED751DB0401166F70ECE6
:1024B00005F028DB070EEF6E41D6ABDA05DB0AE04C
:1024C0004FDB08E043DB0401136F2EEC05F01ADB51
:1024D000080EEF6E11DBEF9431D6120051C3E9FF05
:1024E00052C3EAFFEF040301556F546BEF6A566B5A
:1024F0005551EA6A4F25E96E5051EA22EF6A56516A
:102500003FE10401530E3A6F030E3B6F4EC339F4A3
:102510008AEC07F0000934E03D0E0301535D0BE146
:10252000536B5551545D1EE2542951C3E9FF52C308
:10253000EAFFEF6E17D0260E535D02E1020E0AD0BD
:10254000200E535D06E00D0E535D03E00A0E535D51
:1025500004E1010E566F536B05D02B0E535D02E163
:10256000200E536F5551545D06E24FC3E9FF50C32F
:10257000EAFF53C3EFFF4F2B000E5023542BBFD75E
:102580000301565101E1000C5605120003015D6B79
:1025900004015E0E3A6F030E3B6F57C339F48AECA9
:1025A00007F0000916E0200E03015E5D12E05D51A8
:1025B000006E016A040E005C000E0158E9E25D51F4
:1025C0005D2BEA6A580FE96E030EEA225EC3EFFF45
:1025D000DFD703015D51EA6A580FE96E030EEA2264
:1025E000EF6A470E585D07E1450E595D04E1540E50
:1025F0005A5D01E1000C500E585D0AE14F0E595D25
:1026000007E1530E5A5D04E1540E5B5D01E1010CDC
:10261000020C03015F510A0DF3CF62F3F4CF63F3B1
:10262000000E03016227030E0301632362C3E9FF67
:1026300063C3EAFFEF500401196FCBEC05F000090A
:1026400001E14AD10301606B62C3E9FF63C3EAFFA2
:10265000030EEB50040828E00601D0AD0BD062C396
:10266000E9FF63C3EAFFEF500401166F70EC05F059
:10267000010E3ED162C3E9FF63C3EAFF010EEB50D6
:102680000601E96F7FEC25F00301616F0601D0AB15
:102690000BD062C3E9FF63C3EAFFEF500401166F7A
:1026A00070EC05F0010E24D162C3E9FF63C3EAFFB9
:1026B000090EE926000EEA22EF50010B01E1FFD0DE
:1026C00062C3E9FF63C3EAFF030EEB50040A01E1B2
:1026D000ABD0070A73E0010A42E0030A16E0010AE0
:1026E00001E0DDD0250E0301615D0BE162C3E9FF6E
:1026F00063C3EAFF030EE926000EEA22010EEF6E25
:1027000003D00301010E606FCBD0250E0301615D84
:102710000DE10301010E606F62C3E9FF63C3EAFFCD
:10272000030EE926000EEA22EF6A18D062C3E9FF21
:1027300063C3EAFF040EE926000EEA22030EE9262F
:10274000000EEA2261C3EFFF62C3E9FF63C3EAFF41
:10275000030EE926000EEA22020EEF6EA1D0610EF2
:102760000301615D04E3270E0301615F07D0410EA1
:102770000301615D03E3070E0301615F300E030196
:10278000615D100DF350E66E62C3E9FF63C3EAFFBB
:10279000040EE926000EEA22020EE926000EEA22C5
:1027A000E552E750EF6E62C3E9FF63C3EAFF030E31
:1027B000E926000EEA22030EEF6E72D0610E0301CD
:1027C000615D04E3270E0301615F07D0410E030141
:1027D000615D03E3070E0301615F300E0301615D7C
:1027E000006E62C3E9FF63C3EAFF040EE926000E30
:1027F000EA22020EE926000EEA220050EF1262C31E
:10280000E9FF63C3EAFF030EE926000EEA22040E85
:10281000EF6E62C3E9FF63C3EAFF040EE926000E10
:10282000EA22EE6AED6A3CD00701610E9E6F030E4C
:102830009F6F62C39CF763C39DF706EC24F0F3CF50
:1028400000F0F4CF01F062C3E9FF63C3EAFF040EB6
:10285000E926000EEA2200C0EEFF01C0EDFF0301F1
:10286000010E606F62C3E9FF63C3EAFF040EE9264D
:10287000000EEA22FF0EEE1802E1FF0EED180EE147
:102880000301615102E10301606B62C3E9FF63C3AD
:10289000EAFF030EE926000EEA22EF6A01D000D01B
:1028A000030160510BE061C31BF462C3E9FF63C322
:1028B000EAFFEF5004011A6FEEEC05F00BD061C394
:1028C0001BF462C3E9FF63C3EAFFEF5004011A6F10
:1028D000EEEC05F00400AAD662C3E9FF63C3EAFF89
:1028E000010EEB500601E66F55EC25F0000E00D00E
:1028F0001200030164510A0DF3CF65F3F4CF66F3C0
:10290000000E6527030E662304010D0E18D904017D
:102910000A0E9FEF15F0030167510A0DF3CF6AF31A
:10292000F4CF6BF3000E6A27030E6B2368C3F6FF28
:1029300069C3F7FF0800F55011E0030168C3F6FF13
:1029400069C3F7FF682B000E69230800F5CF1BF45D
:102950006AC3E9FF6BC3EAFF9BD8E8D71200030103
:102960006C510A0DF3CF6FF3F4CF70F3000E6F27A5
:10297000030E7023040EF26F04010A0E6AD801E1FF
:10298000015006E00301F251F2070009F5E11200DF
:1029900004010D0E336F0401800E326F0401710EBD
:1029A000306F030E316FC5D8F3CFF4F3F4CFF5F3E6
:1029B0000301F45010E1040EF26F04010D0E49D82A
:1029C00001E1015005E00301F251F2070009F5E1D0
:1029D0000301200EF56F200EF55D01E01200F405F5
:1029E00001E112000401F20E3A6F030E3B6FC9D8E9
:1029F000EF500401396F8AEC07F00301F405EA6A2D
:102A0000710FE96E030EEA22EF6ABBD80BD8EF8490
:102A1000BFD747C3E9FF48C3EAFF1200040EB9D885
:102A2000040EA1D0090E9FD0040DF3CFF6FFF4CF12
:102A3000F7FF8E0EF6265D0EF722F6CF00F0F7CFE9
:102A400001F0026A00C0E6FF01C0E6FF02C0E6FF37
:102A50001200336F040132690401306B316B69D8A5
:102A6000F4CF00F0016A200EF4181200020E7BD0A1
:102A70002A510A0DF3CFE9FFF4CFEAFF000EE92651
:102A8000030EEA221200696F36C367F38BEF14F06E
:102A9000EF5004011A6FEEEF05F00401340E3A6FA7
:102AA000030E3B6F31C339F48AEC07F000091200C2
:102AB000EF500401196FCBEC05F000091200EF5044
:102AC0000401256FB9EF06F0EF500401126F25ECF9
:102AD00005F000091200010EEB500601E56F4FEF03
:102AE00025F0EF5004013E6FC9EC07F00009120019
:102AF00036C364F379EF14F08CDF12EF15F089DF41
:102B00000EEF15F086DF36EF15F00601DD6B0601DE
:102B1000370EDB6F030EDC6F6BEC24F0E66E79DFB3
:102B2000EE52E552E750EF6E120073DF040EC9EF6C
:102B300015F027D8EF5004012F6F25EF07F01B6F1A
:102B400065C3E9FF66C3EAFF48EF15F062DFEF50A7
:102B500012005FDF5FEF15F05CDF010EEB5012003B
:102B600058DF58EF15F0C9EF15F0E66EC8DFE552F3
:102B7000E750EF6ECDEF15F0BFDFEF924ADF6BEF5E
:102B800015F06FC3E9FF70C3EAFF1200B5DFEF5025
:102B90001200E926000EEA221200B1DFEF50120007
:102BA000966A868898880601706B716B726B736B7E
:102BB000746B756B766B010E765D24E27651040DB5
:102BC000F3CF00F0F4CF01F0400E0026000E0122FA
:102BD0007651E96EEA6AD890E936EA366C0EE92653
:102BE000060EEA2200C0EFFF7651E96EEA6AD8903D
:102BF000E936EA366C0EE926060EEA22EE52EF803E
:102C0000762BD9D7136A6E6949EC1BF00D01050EBE
:102C1000FF6FE2EC2FF006011F0EC16F68EC1BF096
:102C20000601C06F06011F0EBF6F5CEC1BF00D01AB
:102C3000050EFF6FE2EC2FF00601210EC06F0601BA
:102C4000BF6B5CEC1BF00D01050EFF6FE2EC2FF08B
:102C50000601080EC06F06010E0EBF6F5CEC1BF084
:102C60000601C06B06010A0EBF6F5CEC1BF006018B
:102C7000C06B06010B0EBF6F5CEC1BF00601040E6F
:102C8000C06F06010C0EBF6F5CEC1BF00601020E5C
:102C9000C06F06010D0EBF6F5CEC1BF01350E96EA8
:102CA000EA6AD890E936EA366C0EE926060EEA2280
:102CB000EFCFC0F60601040EBF6F5CEC1BF00601FF
:102CC000440EC06F0601010EBF6F5CEC1BF00601E5
:102CD000600EC06F0601020EBF6F5CEC1BF00601B8
:102CE000440EC06F0601030EBF6F5CEC1BF00601C3
:102CF000C0690601070EBF6F5CEC1BF00601C06BDC
:102D000006010F0EBF6F5CEC1BF00601610EC06F79
:102D10000601BF6B5CEC1BF0E8C4C0F60601010EB7
:102D2000BF6F5CEC1BF0E9C4C0F60601020EBF6F7A
:102D30005CEC1BF0EAC4C0F60601030EBF6F5CEC4E
:102D40001BF0EBC4C0F60601040EBF6F5CEC1BF079
:102D5000ECC4C0F60601050EBF6F5CEC1BF0EDC4C1
:102D6000C0F60601060EBF6F5CEC1BF00601766B29
:102D7000080E765D0CE20601C069080E0601762594
:102D80000601BF6F5CEC1BF00601762BF1D7060144
:102D9000440EC06F0601070EBF6F5CEC1BF0440EC3
:102DA000106E0601220EC06F0601BF6B5CEC1BF0BB
:102DB0000601C06B06010D0EBF6F5CEC1BF0060137
:102DC000E00EC06F0601BF6B5CEC1BF00601C00E8D
:102DD000C06F0601010EBF6F5CEC1BF00601C06BFB
:102DE0000601040EBF6F5CEC1BF00601C06B060110
:102DF000010EBF6F5CEC1BF00601200EC06F0601D8
:102E0000BF6B5CEF1BF006010D0EC16F68EC1BF091
:102E1000006E016AE8500601702701507123060117
:102E20000E0EC16F68EC1BF0006E016AE8500601DF
:102E300072270150732306010F0EC16F68EC1BF05F
:102E4000006E016AE85006017427015075231200D4
:102E50000601C16B68EC1BF0040B01E0000C010CD7
:102E60000601C16B68EC1BF0040B01E1000CFF0CC8
:102E7000956A6A0E8D6E010E836E8D9C86A8FED7B4
:102E80008D8C6B0E8D6E836A8D9C86A8FED78D8C83
:102E9000600E8D6E120E836E8D9C86A8FED78D8C73
:102EA000670E8D6E400E836E8D9C86A8FED78D8C2E
:102EB000700E8D6E79C683FF8D9C86A8FED78D8C93
:102EC000112A000E1222120006017C517D1101E12F
:102ED0001200010E7C15006E016A7C510024806F87
:102EE0007D510120816F956A670E8D6E400E836E55
:102EF0008D9C86A8FED78D8C6A0E8D6E80C683FF52
:102F00008D9C86A8FED78D8C6B0E8D6E81C683FF3F
:102F10008D9C86A8FED78D8C600E8D6E120E836EF2
:102F20008D9C86A8FED78D8C06017C5111267D5183
:102F30001222700E8D6E7AC6E9FF7BC6EAFF7A2BED
:102F4000000E7B23EF50836E8D9C86A8FED78D8C60
:102F50007CC67EF67DC67FF60601010E7E5F000E02
:102F60007F5B06017EC600F07FC601F07E07000E83
:102F70007F5B0050011001E189D0080E7E5D000EDC
:102F80007F5901E275D07AC6E9FF7BC6EAFF7A2B4A
:102F9000000E7B23EF50836E8D9C86A8FED78D8C10
:102FA00006017AC6E9FF7BC6EAFF7A2B000E7B2377
:102FB000EF50836E8D9C86A8FED78D8C06017AC655
:102FC000E9FF7BC6EAFF7A2B000E7B23EF50836E6E
:102FD0008D9C86A8FED78D8C06017AC6E9FF7BC63C
:102FE000EAFF7A2B000E7B23EF50836E8D9C86A820
:102FF000FED78D8C06017AC6E9FF7BC6EAFF7A2BE5
:10300000000E7B23EF50836E8D9C86A8FED78D8C9F
:1030100006017AC6E9FF7BC6EAFF7A2B000E7B2306
:10302000EF50836E8D9C86A8FED78D8C06017AC6E4
:10303000E9FF7BC6EAFF7A2B000E7B23EF50836EFD
:103040008D9C86A8FED78D8C06017AC6E9FF7BC6CB
:10305000EAFF7A2B000E7B23EF50836E8D9C86A8AF
:10306000FED78D8C080E06017E5F000E7F5B85D734
:103070007AC6E9FF7BC6EAFF7A2B000E7B23EF506E
:10308000836E8D9C86A8FED78D8C6BD71200956AB7
:103090006A0E8D6E010E836E8D9C86A8FED78D8C78
:1030A0006B0E8D6E836A8D9C86A8FED78D8CFF0E6D
:1030B000115C22E15F0E125C1FE1060183698469E5
:1030C00083C6C3F684C6C4F611DB600E8D6E0A0E8D
:1030D000836E8D9C86A8FED78D8C0601100EC16F65
:1030E000F7DA0601826F836B440E846F83C6C3F6E2
:1030F000E8CFC4F6FBDA14D0600E8D6E0A0E836E34
:103100008D9C86A8FED78D8C9568700E8D6E8D9ADD
:1031100086A8FED783CF82F68D8A112A000E12224E
:1031200006018251120087C689F688C68AF6060112
:103130008751881103E1F36AF46A1200956A6A0EF6
:103140008D6E89C683FF8D9C86A8FED78D8C6B0EF5
:103150008D6E8AC683FF8D9C86A8FED78D8C600EEF
:103160008D6E0A0E836E8D9C86A8FED78D8C06010F
:10317000895111268A511222600E125C02E31C0E44
:10318000125E9568700E8D6E89C600F08AC601F0D9
:103190008907000E8A5B005001100FE08D9A86A807
:1031A000FED7060185C6E9FF86C6EAFF852B000E1D
:1031B000862383CFEFFF8D8AE7D787C6F3FF88C6C4
:1031C000F4FF12008DC68FF60601906B8D5103E15E
:1031D000F36AF46A1200956A6A0E8D6E8DC683FFDB
:1031E0008D9C86A8FED78D8C6B0E8D6E836A8D9C10
:1031F00086A8FED78D8C600E8D6E0A0E836E8D9C18
:1032000086A8FED78D8C9568700E8D6E06018F5145
:1032100030E08F078D9A86A8FED783CF91F68D8AEE
:1032200006018B518C1109E08BC6E9FF8CC6EAFFC1
:103230008B2B000E8C2391C6EFFF8E51915DE6E142
:10324000200E906F956A600E8D6E200E836E8D9CA1
:1032500086A8FED78D8C6A0E8D6E836A8D9C86A89B
:10326000FED78D8C6B0E8D6E836A8D9C86A8FED7E3
:103270008D8C06018F518D5D8F6FE850006E016A55
:10328000E850112601501222600E125C02E31C0E5F
:10329000125E200E905D05E111C0C3F612C0C4F6A7
:1032A00025DA026A06018F5100010210F36E90C602
:1032B000F4FF120006019251E96EEA6AD890E936ED
:1032C000EA366C0EE926060EEA22EE52EF90120064
:1032D000010E0601935D0EE29351E96EEA6AD89001
:1032E000E936EA366C0EE926060EEA22EE52EF8047
:1032F00093C613F0120010C096F60601010E956FEA
:10330000E8CFC3F610C0C4F6F1D9C1DE0601946F50
:10331000E8CFC0F60601030EBF6F5CEF1BF006019D
:10332000600EC06F0601BF6BC7D90601070EC16FE3
:10333000CFD90601976F0601200EC06F0601BF6B43
:10334000BBD910500601975D05E2600ED88010547D
:10335000972502D01050975D986FE850006E016A73
:103360001C0ED8800056000E015600C098F600C012
:103370009AF6996B99C6F3FF00C0F4FF120006019C
:10338000E00EC06F0601BF6B97D90601030EC16F37
:103390009FD906019B6F0601200EC06F0601BF6B0F
:1033A0008BD906019B51040B01E0000C010C9EC659
:1033B000E9FF9FC6EAFFEF680601600EC06F0601D5
:1033C000BF6B7AD90601070EC16F82D90601B26FB1
:1033D0000601200EC06F0601BF6B6ED90601030EF9
:1033E000C16F76D90601B36F0601070EC16F70D9A0
:1033F000100B51E00601C16B6BD9040B0601B66FCF
:103400000601210EC06F0601BF6B56D90D01020ED9
:10341000FF6FE2EC2FF00601C06B06010A0EBF6FD2
:103420004BD90601C06B06010B0EBF6F45D90601D3
:10343000B6510BE00601070EC16F4AD90A0B02E034
:10344000000E01D0010E0601B66F0601020EC06F1C
:1034500006010D0EBF6F30D90601220EC06F0601A6
:10346000BF6B2AD9B2C610F046DF0601C06906015B
:10347000070EBF6F21D90601C06B06010D0EBF6F8D
:103480001BD90601B65106E00601260EC06F0601E3
:10349000BF6B12D9000C0601B351B25D67E0B3C631
:1034A000B5F6B46BB4C6C3F6B3C6C4F61FD9120ED4
:1034B0000601876F886B0601A00E856F060E866F6A
:1034C00032DE0601A051010B4EE0400EA25D000E5F
:1034D000A35949E3EE0ED880A255050EA35543E348
:1034E000600EA15D40E2A151006E016AD8900150CA
:1034F00004E6440E005C000E015835E3B0C669FDD9
:10350000B1C66AFD89EC1FF0F3CFB0F6F4CFB1F687
:10351000060EE66EE66AAA0EE66E060EE66E9CC61D
:10352000E9FF9DC6EAFF9CC600F09DC601F09CC65F
:10353000E6FF9DC6E6FF4AEC2EF0026E060EE15E47
:103540000250080E0601B15D0BE1B05103E0060E1A
:10355000B05D06E19EC6E9FF9FC6EAFFB0C6EFFF79
:10356000B3C610F0010CB2C610F0C5DE000C0601A7
:103570000A0EC06F0601070EBF6F9ED81350E96E8A
:10358000EA6AD890E936EA366C0EE926060EEA2297
:10359000EFCFBDF60601BC6BBCC6C3F6BDC6C4F614
:1035A000A5D8060E06017C6F7D6BB7C67AF6B8C645
:1035B0007BF68ADCE8C479F65BDCE9C479F658DC92
:1035C000EAC479F655DCEBC479F652DCECC479F642
:1035D0004FDCEDC479F64CDC0601B95102E1BE6B5B
:1035E00002D0060EBE6F0601080E796F41DCBEC622
:1035F00079F63EDC0E0E0601BA27000EBB233C0E08
:10360000BA5D000EBB5903E23C0EBA6FBB6BBAC683
:10361000BCF6BBC6BDF6BAC6C0F60601050EBF6F46
:103620004BD8BDC6C0F60601060EBF6F5CEF1BF09F
:103630001350E96EEA6AD890E936EA366C0EE9264C
:10364000060EEA22EFCFC0F60601040EBF6F34D893
:103650000601240EC06F0601BF6B2ED813C06EF694
:103660001350E96EEA6AD890E936EA366C0EE9261C
:10367000060EEA22EE52EF801350E96EEA6AD89005
:10368000E936EA366C0EE926060EEA22EE52EF82A1
:1036900012009568600E8D6E8D8C8D8A8D8E966A67
:1036A0000D01010EFD6FD6EC2FF00D01050EFF6F21
:1036B000E2EC2FF08D9E1200600E0601BF118D6EA0
:1036C000C0C683FF956A8D9C86A8FED78D8C12009C
:1036D0009568600E0601C1118D6E8D9A86A8FED781
:1036E00083CFC2F68D8A0601C2511200C3C611F003
:1036F000C4C612F0C3C6C0F60601080EBF6FDCDFF9
:10370000C4C6C0F60601090EBF6F5CEF1BF00601D0
:10371000090EC16FDDDF0601C66F0601080EC16F1D
:10372000D7DF0601C56FF36EC6C6F4FF120010C0E6
:10373000CAF60601120EC96FC751C927C851CA235C
:10374000C9C6C3F6CAC6C4F676EF1BF0CBC613F0E3
:103750001350E96EEA6AD890E936EA366C0EE9262B
:10376000060EEA22EFCFCFF606010E0ECE6FCC5139
:10377000CE27CD51CF23CEC6C3F6CFC6C4F676EF43
:023780001BF03C
:0E3782000501296B020E295D06E229C533F50B
:1037900050D80501292BF7D712000501000E316F13
:1037A000050E326F306B020E305D42E242DB0C0ED2
:1037B00032DB3ADB026A036A005001100210031088
:1037C00031E137DB0C0E2AC5EBFF0D0E2BC5EBFFED
:1037D0002C512D1111E00A0EE66EE66A2CC5E6FFAB
:1037E0002DC5E6FF26DB31C500F032C501F031C53D
:1037F000E6FF32C5E6FF31DB1CDB0A0E2EC5EBFF10
:103800000B0E2FC5EBFF15DB0E0EEB6A0F0EEB6AEE
:1038100010DB100EEB6A110EEB6A30C528F50501BE
:1038200030511200140E3127000E3223302BBBD73B
:10383000FF0C05013351E5DA0C0EEDDAEE6AED6AA4
:103840003351DFDA060EE7DAEE6AEE6AEE6AEE6A06
:1038500033512BDBEF901200020E0501345D07E2BD
:1038600034C528F50601010E776F28EF17F0000C1C
:1038700005012851140DF3CF36F5F4CF37F5000EBE
:103880003627050E372319DBEE50ED100FE1ECDA89
:10389000D5DA17DBD3DA120EEB50FF0801E1000C8A
:1038A0001C0E0601CC6FCD6BC9DAE5DA35C579F6A9
:1038B00038EC17F002DBEE2AEF22FFDA08DB01E337
:1038C00052D8010C05012851140DF3CF3CF5F4CF6B
:1038D0003DF5000E3C27050E3D23EBDAEE50ED10D2
:1038E00011E1C2DA9CDAEDDA9ADA120EEB50FF0837
:1038F00003E1F36AF46A12001C0E0601CC6FCD6B73
:103900008EDAB9DAD6DA05013A51EE24006E3B516F
:10391000EE20016ED60ED8800054030E01540AE248
:10392000C8DAEECF3AF5EFCF3BF5D60ED8803A574E
:10393000030E3B573AC57CF63BC57DF638C57AF693
:1039400039C57BF664EC17F0B4DA05013A51EE267E
:103950003B51ED22AEDABBDA01E305D83AC5F3FFFD
:103960003BC5F4FF12000601010E776F28EC17F03B
:10397000000902E10400F7D705012851140DF3CF27
:1039800048F5F4CF49F5000E05014827050E05015D
:10399000492348C5E9FF49C5EAFF0C0EE926000E98
:1039A000EA22EECF69FDEDCF6AFD89EC1FF0F3CF7F
:1039B00040F5F4CF41F548C5E9FF49C5EAFF0A0ED5
:1039C000E926000EEA22EECF69FDEDCF6AFD89EC13
:1039D0001FF0F3CF42F5F4CF43F548C5E9FF49C5E1
:1039E000EAFF0E0EE926000EEA22EECF44F5EFCFF5
:1039F00045F5080E05014427000E05014523050184
:103A0000466B476B140E0601CC6FCD6B48C5E9FFC2
:103A100049C5EAFF120EEB500601CB6FA6EC1BF076
:103A200044C551F645C552F60601110E506F48C502
:103A3000E9FF49C5EAFFE9CF4EF6EACF4FF611ECB0
:103A400027F044C569FD45C56AFD89EC1FF0F3CF39
:103A500044F5F4CF45F5080E06017C6F7D6B060139
:103A6000400E7A6F050E7B6F64EC17F018EC1BF0BC
:103A700048C5E9FF49C5EAFF120EE926000EEA2211
:103A8000EF6848C5E9FF49C5EAFF0E0EEB6A0F0E65
:103A9000EB6A1200020E05014A5D0AE24AC528F5EA
:103AA000FFD9D880EE54000EED5401E3000C010C58
:103AB000000C050116DA01E1000C2851F6D9EF508F
:103AC000010B01E012DA47EC18F04BC5E9FF4CC5D9
:103AD000EAFFEF6E0501E4D9EE06EF5A02DA02E1E1
:103AE0007BEC19F0010C0501FCD903E1F36AF46ADF
:103AF00012002851DAD9EF50010B01E0F6D9050187
:103B0000CFD992D94F51005C5051015805E2C8D924
:103B1000EECF4FF5EDCF50F54FC587F650C588F67F
:103B20004DC585F64EC586F693EC18F0F3CF51F5EA
:103B3000F4CF52F50501B4D95151EE5E5251ED5A10
:103B4000D0D902E17BEC19F04FC5F3FF50C5F4FF6B
:103B500012000501C6D902E07BEC19F00501A0D9DD
:103B6000EE6AED6A1200080E0601876F886B060187
:103B7000590E856F050E866F93EC18F059C570F5D8
:103B80005AC559F570C55AF55BC570F55CC55BF54E
:103B900070C55CF5080E006E05015E51D8800054BA
:103BA00003E25D05706F02D05DC570F5080E5E5DC5
:103BB0005D6F70C55EF55F5160116AE05FC570F5BD
:103BC00060C55FF570C560F553C5E9FF54C5EAFFF0
:103BD000060E21D9EECF62F5EECF63F5EECF64F598
:103BE000EFCF65F54ED9EFCF66F5010E14D9EFCFC3
:103BF00067F547D9020E0FD9EFCF68F542D9030E0A
:103C00000AD9EFCF69F56A6B110E6B6F57C56CF56A
:103C100058C56DF557C569FD58C56AFD89EC1FF09B
:103C2000F3CF6CF5F4CF6DF50C0E0D017B6F7C6B53
:103C30000D01620E796F050E7A6FC3EC1FF0F3CFA2
:103C40006EF5F4CF6FF505016E1F6F1F060E00D9DC
:103C50006EC579F638EC17F0070EFAD86FC579F60D
:103C600038EC17F00601676B686B7BEC27F057C5E3
:103C700085FD58C586FD2DEC20F0F3CF6EF5F4CF11
:103C80006FF505015F51F31816E160516F1913E1EB
:103C900055C575F556C576F553C573F554C574F518
:103CA0000501590E716F050E726F1CD80501616F09
:103CB000FF0E615D03E17BEC19F0010C6151A1D8AD
:103CC000100EA9D85DC5EEFF5EC5EDFF6151EDD8C0
:103CD000EF80010C0501285194D8E9CFF3FFEACF1A
:103CE000F4FF120005017869000E796F050E7A6FF6
:103CF000776B020E775D5BE2A6D80C0EEED8020E53
:103D00008AD8C9D80001025000184AE103500118AE
:103D100047E199D80A0EE1D8BED8025000183EE11A
:103D2000035001183BE18FD8100E75D8EECF04F088
:103D3000EFCF05F0066A076A045005100610071059
:103D40002DE173C5E9FF74C5EAFF060E64D8EECF16
:103D500000F0EECF01F09FD876D8060E5CD8EE507A
:103D6000001808E1EE50011805E1EE50021802E1DA
:103D7000EE50031810E075C5E9FF76C5EAFFE86864
:103D8000EE180CE1E868EE1809E1E868EE1806E1C3
:103D9000E868EE1803E105017751120077C578F560
:103DA0000501140E7927000E7A23772BA2D7FF0E78
:103DB000785D24E07851140DF3CF79F5F4CF7AF5DE
:103DC000000E7927050E7A230A0EE66EE66A73C5A1
:103DD000E6FF74C5E6FF37D879C500F07AC501F073
:103DE00079C5E6FF7AC5E6FF38D850D81DD82BD85C
:103DF0000A0E00C0EBFF0B0E01C0EBFF050178516E
:103E00001200140DF3CFE9FFF4CFEAFF000EE9260C
:103E1000050EEA221200E926000EEA2212003CC535
:103E2000E9FF3DC5EAFF1200EECF00F0EFCF01F051
:103E3000120031C5E9FF32C5EAFF120036C5E9FFBD
:103E400037C5EAFF120079C5E9FF7AC5EAFF12001B
:103E50000601676F686B7BEF27F04AEC2EF0026E6D
:103E6000060EE15E025012000601010E786F30EC82
:103E700017F0E66E1200120EEB500601CB6FA6EFA4
:103E80001BF055C5E9FF56C5EAFF120071C5E9FFF1
:103E900072C5EAFF1200EECF02F0EFCF03F012007E
:103EA0002851AFDF100E0BEF1FF0ABDF130E0BEF3F
:103EB0001FF0B5DF0E0E0BEF1FF0C0DF0E0E0BEF85
:103EC0001FF0120EA8DFE552E750EF6E1200ACDFD4
:103ED000D60E005C030E015812009DDFA5DF46EFF1
:103EE0001FF0DEDFEE50ED1012002851DEDFEF9004
:063EF000080E28EF1FF090
:0A3EF6000D0168390F0B686FE850EA
:103F0000090804E2410E6825F60F1200300E6825FC
:103F100012006ACD6DFD69CD6CFD6ACD6BFD6ACD79
:103F2000F3FF69CDF4FF12006ECD73FD6FCD74FD0C
:103F300070CD75FD71CD76FD0D01730E776F0D0E91
:103F4000786F77CDE9FFEA6E030E97DAEF50E66EF1
:103F5000030E8DDA72CDEFFF62DA020E8EDA010EF9
:103F600076DAEF50E66E5BDA020E81DA010E6FDA76
:103F700072CDEFFF73CD22F074CD23F075CD24F018
:103F800076CD25F012000D01816B826B836B846B03
:103F900079CD7FFD7ACD80FD7BCD7DFD7CCD7EFD15
:103FA000D8907E337D337DCD00F07ECD01F07D074E
:103FB000000E7E5B0050011018E07FCDE9FF80CD40
:103FC000EAFF020E7F27000E8023EECF00F0EFCF36
:103FD00001F0000100500D018127000101500D0189
:103FE0008223000E83238423DED77B51010B0EE056
:103FF0007FCDE9FF80CDEAFFEFCF00F00001005058
:104000000D018127000E8223832384238351841191
:1040100019E081CD00F082CD01F0026A036A83CD00
:1040200004F084CD05F0066A076A00500424816F0D
:1040300001500520826F02500620836F0350072035
:10404000846FE4D781CD00F082CD01F0001E011E07
:1040500000C0F3FF01C0F4FF12000D01010E876FD5
:10406000886B896B0D01855186114BE0400E855D93
:10407000000E865904E3400E006E016A04D085CD1F
:1040800000F086CD01F000C08CFD00500601876F66
:10409000886B06018D0E856F0D0E866F93EC18F000
:1040A0000D018C51006E016A0050855F0150865BE6
:1040B0008B6B8C518B5DD6E28B51EA6A8D0FE96E6A
:1040C0000D0EEA22EFCF8AFD87510AE18A51882539
:1040D000886F8A51885D0DE2892B0BE1882B09D00E
:1040E0008A518925896F8A51895D03E2882B01E114
:1040F000892B875102E0000E01D0010E876F8B2BB8
:10410000D8D7891D896F881D886FF36E89CDF4FF1C
:1041100012000D01CD51390805E3300ECD5D02E3EB
:10412000300E0FD0CD51460805E3410ECD5D02E3C0
:10413000370E07D0CD51660806E3610ECD5D03E36F
:10414000570ECD5D1200FF0C010E0D01EA6ACE255F
:10415000E96ECF51EA22EFCFCDFDDBDF0D01D26F4B
:10416000CECDE9FFCFCDEAFFEFCFCDFDD2DF0D0100
:10417000D36FFF0ED25D03E0FF0ED35D01E1000CB3
:10418000D339F00BD211D0CDE9FFD1CDEAFFEF6EDC
:10419000010C0D01D96BA6A202D00400FCD72F0E92
:1041A000A616A6840D01D6CDE9FFD7CDEAFFD62B02
:1041B000000ED723EF50A86E0D01D92B0D01D85159
:1041C0000D01D880D95501E2A86AD5CD00F0016A69
:1041D0000050AA6E0D01D4CD00F0D5CD01F0D42B46
:1041E000000ED5230050A96E550EA76EAA0EA76E1D
:1041F000A6820000A6A202D00400FCD7A850D2E1FB
:10420000A6940D01D90500D012000D01DF6BA6A206
:1042100002D00400FCD73F0EA6160D01DF2B0D01C6
:10422000DE510D01D880DF5506E2DACDE9FFDBCDA6
:10423000EAFFEF6A18D0DCCDA9FFDDCD00F0016AFE
:104240000050AA6E0D01DC2B000EDD23A680A850C5
:10425000DACDE9FFDBCDEAFFEF6E0D01DA2B000EC0
:10426000DB23A850DAE10D01DF0500D01200E3CD19
:1042700000F00050AA6EE2CDA9FF3F0EA6160D0178
:10428000E0CDE9FFE1CDEAFFE02B000EE123EFCF27
:10429000E4FDA680A850E45D01E0010CE45101E1D9
:1042A000000CA92AECE1AA2AEAD70D01E5CDE9FF25
:1042B000E6CDEAFFE52B000EE623EFCFE9FDEF5058
:1042C0001CE0610EE95D05E3E9517A0802E3200E86
:1042D000E95FE7CDF6FFE8CDF7FFE72B000EE82317
:1042E0000800F550E95D01E0000CE7CDF6FFE8CDF0
:1042F000F7FF0800F550D9E1010C000CEACDF0FD04
:10430000EBCDF1FD0D01EE6BEF6BEC51EE5DED5180
:10431000EF590BE2F0CDE9FFF1CDEAFFF02B000EF3
:10432000F123EF6AEE2BEF23F0D712001200030EF9
:104330000D01FB5D37E378D8F6BEF76894D8010E1F
:1043400068D8EF380F0B006E7AD80010F66EF76A57
:10435000F6BEF76888D8060E016E020E5AD8EF50E6
:1043600001C0E7FFE75204E0E8427F0BE706FCE10B
:10437000006E010E0D0186D80010F66EF76AF6BECB
:10438000F76871D8020E45D8EF503F0BF66EF76A0A
:10439000F6BEF76868D8030EF927000EFA23030E5D
:1043A000FB5FC5D7FB51000828E23ED8F6BEF76890
:1043B0005AD845D8FC6FFB51010805E2010E29D8F7
:1043C000EF380F0BFC13FC51F76AF80FF66E1BD891
:1043D000020EFB5D02E23D0E0CD0010E53D8F66ECC
:1043E000F76AF6BEF768F80EF6265E0EF7220800AA
:1043F000F5504ED830D83D0EEF6EF7CDE9FFF8CD31
:10440000EAFFEF6A12005E0EF7220800F55048EF4F
:1044100022F0EA6AF925E96EFA51EA22120077CD14
:10442000E9FF78CDEAFF1200F9CDE9FFFACDEAFF06
:10443000EF50E840E8403F0BF66EF76A1200F9CD06
:10444000E9FFFACDEAFFEF38F00B300B1200E92656
:10445000000EEA221200F7CDE9FFF8CDEAFFF72BB4
:10446000000EF8231200F80EF62603EF22F0EFDF1D
:10447000E552E750EF6E0FEF22F0E9DFEFCF72FD6C
:104480000FEF22F0C6DFEF50040DF3503C0B12008B
:0C449000E66EE1DFE552E750EF6E12002F
:04449C00DACFE4FF90
:1044A000E2CFDAFFE9CFE4FFEACFE4FFF6CFE4FFA3
:1044B000F7CFE4FFF5CFE4FFF3CFE4FFF4CFE4FF61
:1044C000FACFE4FF00EE1EF00B0EE80403E3EECF9C
:1044D000E4FFFBD700EE00F0100EE80403E3EECF9C
:1044E000E4FFFBD7E652F2A414D09E0ED76E580E0E
:1044F000D66E0401F82B000EF923FA23FB230401E6
:10450000FE0706E1640EFE6F0401FC2B000EFD2386
:10451000F2949E50200B05E09D50200B02E067ECCA
:104520002CF09E50100B05E09D50100B02E07DEC2E
:104530002CF0E55200EE0FF0100EE80403E3E5CF97
:10454000EDFFFBD700EE28F00B0EE80403E3E5CF08
:10455000EDFFFBD7E5CFFAFFE5CFF4FFE5CFF3FFA3
:10456000E5CFF5FFE5CFF7FFE5CFF6FFE5CFEAFFB3
:10457000E5CFE9FFE5CFDAFF11009DEC2FF018D968
:10458000EFEC2FF05FEC24F053EC2CF05FEC2CF010
:104590005CEC2CF040EC2AF0D3EC0FF014D8166A47
:1045A0000F0158510401F85D006E320E005C04E307
:1045B000F8C458FF939C8A7C13D84AEC2AF0F6EC96
:1045C0000FF0F5D8EDD7156A146A176A04016B0E5F
:1045D000056FD30E066F6BEC04F00F01576F1200DE
:1045E00057CF12F425EC05F0000902E158EF24F052
:1045F000165035E15DD957CF3EF4C9EC07F00009FC
:1046000001E1D4D032D902E03BD9FCD757CF25F411
:10461000B9EC06F04D0E0201035D01E0C7D0580E63
:10462000045D01E0C3D0610E055D01E0BFD0750EF1
:10463000065D01E0BBD0000504E1FFD8010E166E57
:104640001200020E005D03E1F8D8020E05D00A0E3A
:10465000005D01E0ABD00A0E166E176A1200160458
:1046600037E119501A1032E016D931E01D6A1D5099
:10467000EA6A000FE96E010EEA221DC0EFFF1D502D
:104680001D2A006E016AFF0E0018F1E10150EFE1F2
:10469000FF0E195C000E1A5802E31D6802D0195073
:1046A0001D6E1D50006E016A1D50195E01501A5A90
:1046B0001D50EA6A000FE96E010EF3D81D501D0669
:1046C0000009F6E157CF16F470EF05F0166A1200F4
:1046D000020E165C35E119501A1030E01750010A2D
:1046E00016E0010A01E0120057CF3EF4C9EC07F0D2
:1046F00000095CE0156A186AB8D802E0C1D8FCD796
:1047000057CF25F4B9EC06F0010E176E1200C3D88E
:104710004DE01D6A18501D5C08E21D50EA6A000F4A
:10472000E96E020EBED81D2AF5D757CF16F470ECED
:1047300005F0176A1906000E1A5A1200166A1200BE
:104740000A0E165C33E1000ED8801954000E1A547C
:1047500002E24BEF24F01750080A27E00F0A20E08E
:10476000010A1CE0030A17E0010A12E0070A0DE043
:10477000010A09E0030A05E0010A01E01200080E3F
:1047800005D00F0E03D0310E01D0630E196E01D08B
:1047900019681A6A1200196A010E05D0196A02D046
:1047A000010E196E030E1A6E1200166A1200120024
:1047B000F18E240EAC6E900EAB6E080E7E6EAC0EBB
:1047C000AF6E7F6A92689368946897689868D56AB4
:1047D000F28EF28C12000701140E9A6F03019A0EEA
:1047E000516F070E526F0301800E4F6F070E506F0F
:1047F0007CC7E9FF7DC7EAFFEF5003014E6F6EEC07
:1048000012F007019B6FE850E6E1120025D8020E76
:10481000E926000EEA22EFCFA0F71ED8030EE92604
:10482000000EEA22EFCFA1F717D8EFCFA2F79EC76D
:10483000E9FF9FC7EAFFEF6A1200FF0E0215196E2B
:104840001A6AFF0E0115006E016A016E006A0050BF
:10485000192601501A2212009CC7E9FF9DC7EAFFE2
:10486000040EE926000EEA22120004017A0E3A6FC5
:10487000070E3B6F57CF39F48AEC07F0000912009E
:104880001550152AEA6A000FE96E020EEA227AC76D
:10489000EFFF182A120057CF19F4CBEC05F00009EE
:1048A0001200EA22EFCF1BF457CF1AF4EEEF05F017
:0E48B000196A1A6A186A176A156A146A1200E1
:0248BE000601F1
:1048C000D86B010ED96F0501180EEC6F54EC2BF06C
:1048D0000601D06B010C0601D9B102D0FE0EDED06C
:1048E0000601D0A102D0FE0ED9D00401FF6B060153
:1048F000450EE06FE16BE26BDBC6E9FFDCC6EAFF69
:10490000EF5002E1FF0ECAD0DBC6E6FFDCC6E6FFD1
:10491000B2EC2EF0E552E552F3CFDBF6F4CFDCF645
:10492000E0C6F3F5E1C6F4F50501A00EF26F93ECD5
:104930002BF0000904E00401FE0EFF6FAAD0DEECAC
:104940002BF00601DE6F0601DEAF03D00401FF6924
:10495000A0D00601DF6B0C0E0601DF5D2AE2DEEC63
:104960002BF00601DE6F0601DF510601EA6ADB2546
:10497000E96EDC51EA22EF500601DE5D0AE0120E1C
:104980000601E027000E0601E123000E0601E223E6
:1049900010D00601DE510AE10601DF2B0C0E0601E4
:1049A000DF5D03E2DEEC2BF0F7D703D00601DF2B4F
:1049B000D2D70C0E0601DF5D68E10601D00EE36F71
:1049C000060EE46FE3C6E9FFE4C6EAFF010EEF6EF0
:1049D000E3C6E9FFE4C6EAFF010EEB6A020EEB6AEA
:1049E000DEEC2BF0E66EE3C6E9FFE4C6EAFF030E59
:1049F000E926000EEA22E552E750EF6EDEEC2BF0DE
:104A0000E66EE3C6E9FFE4C6EAFF030EE926000E00
:104A1000EA22010EE926000EEA22E552E750EF6E87
:104A2000DEEC2BF0E66EE3C6E9FFE4C6EAFF030E18
:104A3000E926000EEA22020EE926000EEA22E552DD
:104A4000E750EF6EDEEC2BF0E66EE3C6E9FFE4C65E
:104A5000EAFF060EE926000EEA22E552E750EF6E65
:104A6000DEEC2BF0E66EE3C6E9FFE4C6EAFF060ED5
:104A7000E926000EEA22010EE926000EEA22E5529E
:104A8000E750EF6E0601D82B04D0E8EC2BF00400C1
:104A900047D7E8EC2BF00401FF5100D01200E5C627
:104AA000E6F603D80601D06B12000601D00EE76FC0
:104AB000060EE86FE7C6E9FFE8C6EAFFEF50020B13
:104AC00003E0E8EC2BF012D0E7C6E9FFE8C6EAFF06
:104AD000EF50040B0BE0D4EC2BF00501A00EFE6FA1
:104AE00022EC2CF0000902E00400F7D7F90E006E6A
:104AF000E7C6E9FFE8C6EAFF0050EF16120006011C
:104B0000D00EEB6F060EEC6F9F0E006E9FD8E85034
:104B1000EF169CD8EF50010B16E098D8EF50020B1F
:104B200015E194D8C0D892D89BD800C0F3F501C045
:104B3000F4F50501A00EF26F93EC2BF0000903E1F0
:104B400085D8EF8203D082D8EF8A000CDEEC2BF000
:104B50000601EA6F7BD89ED879D890D805E103503A
:104B6000011802E173D8EF8C0601EA511200010C22
:104B70000601D00EEF6F060EF06FEFC6E9FFEA6E8A
:104B8000EF50040B04E0400EDA5D01E39AD863D8DD
:104B9000EF50040B0EE15FD886D85DD861D800C015
:104BA000EEF501C0EFF586D803E155D8EF8401D0CA
:104BB000000CEEC6F6F5C0EC2BF04DD86BD84BD8F8
:104BC0005DD805E10350011802E145D8EF8C010CD6
:104BD00012001200F36AF46A1200236A246A256A3A
:104BE0001200000C0601D9A1000CD0B1000C010E7E
:104BF000D06F400ED36FD46BD56B010C0601D00E75
:104C0000FD6F060EFE6FD0A504D0400EDA5D01E305
:104C100058D80601D0B50BD0D3C6EEF5D4C6EFF503
:104C200049D804E10601D085DA6B01D0000CFCC63E
:104C3000F6F5C0EC2BF00601DA2BD32B000ED423B3
:104C4000D523010C3ED80601D06B010CEBC6E9FF61
:104C5000ECC6EAFF1200EFC6E9FFF0C6EAFF120059
:104C6000030EE926000EEA22EE500324006EEE50F9
:104C70000420016EEE500520026E1200060EE92699
:104C8000000EEA22EECF02F0EFCF03F00001025057
:104C900000181200EE52EE2A000EED22EECF00F0C8
:104CA000EDCF01F01200EE52EECF03F0EFCF04F0A3
:104CB000056A12000501A00EED6F5DEC2BF00009F6
:0A4CC00012000601E66B55EF25F027
:064CCA00140E0601876FC5
:104CD000886B06010B0E856F060E866F93EC18F03D
:104CE000F00E06010B15400801E0000C0F0E0B152D
:104CF000040DF3CF00F6F350006E016A140E005E4F
:104D0000000E015A00C025F60050280801E2000CF0
:104D1000255100080BE225510601876F886B0601BB
:104D2000260E856F060E866F93EC18F015C61FF6DB
:104D300016C620F60601156B166B140E15D90B0E50
:104D4000796F060E7A6FC3EC1FF0F3CF21F6F4CF24
:104D500022F60601211F221F2551000810E22551CD
:104D600003D9260E796F060E7A6FC3EC1FF0F3CFCE
:104D700023F6F4CF24F60601231F241F02D0236B51
:104D8000246B040EF1D8210E796F060E7A6FC3ECF6
:104D90001FF0F3CF09F6F4CF0AF60601F3501F19FE
:104DA00002E10A51201901E0000C06010B0E696FA7
:104DB000060E6A6FACD80601015102110CE001C663
:104DC000E9FF02C6EAFF1BC6EEFF1CC6EEFF1DC6CA
:104DD000EEFF1EC6EEFF03C6E9FF04C6EAFF060E9D
:104DE000DDD817C6EEFF18C6EEFF19C6EEFF1AC6CD
:104DF000EEFF05C6E9FF06C6EAFF14C6EFFF005145
:104E0000026E036A02500D5D006E03500E59016E72
:104E100007C6E9FF08C6EAFF00C0EEFF01C0EDFFCC
:104E2000010C0601140E006F450E536F546B140EE7
:104E30005125556F000E5221566F0F01592B000E50
:104E40005A2359CF57F65ACF58F60601596B400EE0
:104E50005A6F640E5B6F50C65CF65D6B5E6BE4C4AC
:104E60005FF6E5C460F6E6C461F6E7C462F64EC6D6
:104E7000E9FF4FC6EAFF060E91D8EECF63F6EECFFC
:104E800064F6EECF65F6EFCF66F60601530E696F56
:104E9000060E6A6F3CD8140E67D8530E796F060E53
:104EA0007A6FC3EC1FF0F3CF5DF6F4CF5EF6140E0D
:104EB000060151250601BA6F000E060152210601B6
:104EC000BB6F0601B96B4EC6E9FF4FC6EAFF4EC67F
:104ED000B7F64FC6B8F6B7EC1AF0140E06017C6FA1
:104EE0007D6B0601530E7A6F060E7B6F64EC17F034
:104EF000F36AF46A12000601005167250601C76FC4
:104F0000000E060168210601C86F97EF1BF027D835
:104F1000020E35D8020E38D8020E2BD8020E39D820
:104F2000040E2DD8040E30D8040E23D8040E31D828
:104F3000060E25D8060E28D8060E1BD8060E29D830
:104F40000A0E1DD80A0E20D80A0E13D80A0E03D84E
:104F50006BC6EFFF120022D8010ECEEF27F069C614
:104F6000E9FF6AC6EAFF12000D017B6F7C6B0D0141
:104F7000120014D8E552E750EF6EAFEF27F00ED8CD
:104F8000EFCF6BF6AFEF27F0E6DFEF50E66EAFEF57
:104F900027F0E1DF6BC6EFFFAFEF27F0E926000E49
:044FA000EA221200EF
:0C4FA4001C0E0601876F886B0601040ECE
:104FB000856F070E866F93EC18F07BEC19F00701F4
:104FC000040E406F070E416F05D90701010E041949
:104FD00012E1055110E10851006E016A060E001839
:104FE0000AE1015008E10951026E036A040E021839
:104FF00001E1035001E0000C020E0A1905E10B511A
:1050000003E116D9EF6A0DD0010E0A1906E10B5122
:1050100004E1010E0DD9EF6E04D0020E09D9EF6E36
:10502000000C0401E45107011C5D2EE10401E5516F
:1050300007011D5D29E10401E65107011E5D24E120
:105040000401E75107011F5D1FE100C7E9FF01C728
:10505000EAFF0CC7EEFF0DC7EEFF0EC7EEFF0FC74E
:10506000EEFF10C7EEFF11C7EEFF00C7E9FF01C753
:10507000EAFF060EE7D812C7EEFF13C7EEFF14C70C
:10508000EEFF15C7EEFF010C000C0601010E786F54
:1050900030EC17F007013F6FFF0E3F5D01E1000CA0
:1050A0000601CC6BCD6B3FC7CBF6A6EC1BF0010E17
:1050B0000701236F246B256B080E266F060E276FE2
:1050C000040E286F22050AE1010E296F2A6B35694B
:1050D00036693769386939693A6913D0020E296F20
:1050E0002A6B20C7E9FF21C7EAFFEECF35F7EECFE5
:1050F00036F7EECF37F7EECF38F7EECF39F7EFCF01
:105100003AF7E8C42BF7E9C42CF7EAC42DF7EBC44F
:105110002EF7ECC42FF7EDC430F7E4C431F7E5C443
:1051200032F7E6C433F7E7C434F77BD8EF503119D0
:105130000401EE151BE175D8010E84D8EF5007016C
:1051400032190401EF1512E16CD8020E7BD8EF5032
:10515000070133190401F01509E163D8030E72D871
:10516000EF50070134190401F11509E0F2C43BF7CF
:10517000F3C43CF7F4C43DF7F5C43EF709D051D869
:10518000EECF3BF7EECF3CF7EECF3DF7EFCF3EF75C
:105190000701230E406F070E416F1CD81C0E06013D
:1051A000BA6FBB6B0601060EB96F0601350EB76FFD
:1051B000070EB86FB7EC1AF01C0E06017C6F7D6B02
:1051C0000601230E7A6F070E7B6F64EC17F018EC64
:1051D0001BF0010C32D819D8F3CFEEFF01C0EDFF60
:1051E0002CD8020E2FD811D8020EF3CFEBFF030EEE
:1051F00001C0EBFF22D8060E25D807D8060EF3CF44
:10520000EBFF070E01C0EBFF1200EECF69FDEDCF03
:105210006AFD89EC1FF0F3CF00F0F4CF01F01DEF31
:1052200029F020C7E9FF21C7EAFF060E22EF29F087
:1052300002C7E9FF03C7EAFF120040C7E9FF41C701
:0C524000EAFF1200E926000EEA2212002C
:04524C00080E060141
:10525000876F886B0601850E856F050E866F93EC50
:1052600018F0080E006E02D9E850EF5EFFD8EF503C
:105270000601876F886B7DC585F67EC586F693EC43
:1052800018F087C5AFF588C5B0F50501876B886B49
:10529000080E0D017B6F7C6B0D01850E796F050E7D
:1052A0007A6FC3EC1FF0F3CFB1F5F4CFB2F505017F
:1052B000B11FB21FDBD8EF500D017B6F7C6B7DC53A
:1052C00079FD7EC57AFDC3EC1FF0F3CFB3F5F4CFC3
:1052D000B4F50501B31FB41F040E0D017B6F7C6B89
:1052E0000D01B10E796F050E7A6FC3EC1FF0F3CF8D
:1052F000ADF5F4CFAEF50501850EEA6F050EEB6F47
:105300008AD87BC5E9FF7CC5EAFF85C5EFFF81C56B
:10531000E9FF82C5EAFF89C5EEFF8AC5EDFF83C5B7
:10532000E9FF84C5EAFF8BC5EEFF8CC5EDFF0501E3
:10533000AF51AD1902E1B051AE1901E0000C010C02
:105340000601010E786F30EC17F00501E96FFF0ED2
:10535000E95D01E11200140E0601CC6FCD6BE9C5C9
:10536000CBF6A6EC1BF0080E0501BA25E76FE86B3B
:10537000000EE823C06BB7C5BFF5C16BC26BBBC5E0
:10538000C3F5BCC5C4F5BDC5C5F5BEC5C6F5BA51A6
:10539000E66EE66AB8C5E6FFB9C5E6FFC70EE66E7B
:1053A000050EE66E4AEC2EF0006E060EE15E005031
:1053B0000501BF0EEA6F050EEB6F2DD8E7C57BFD2B
:1053C000E8C57CFD0D01BF0E796F050E7A6FC3EC49
:1053D0001FF0F3CFC1F5F4CFC2F5080E0501BA25D1
:1053E0000601516F526B000E52230601010E506FE1
:1053F000B5C54EF6B6C54FF611EC27F0E7C57CF6FD
:10540000E8C57DF60601BF0E7A6F050E7B6F64EC72
:1054100017F018EF1BF02FD8040E15D8040EF3CF99
:10542000EBFF050E1FD8060E0ED8060EF3CFEBFFCE
:10543000070E18D8020E07D8020EF3CFEBFF030EAB
:1054400001C0EBFF1200E926000EEA22EECF69FD53
:10545000EDCF6AFD89EC1FF0F3CF00F0F4CF01F03F
:105460003BEF2AF001C0EBFF3BEF2AF07FC5E9FFDD
:1054700080C5EAFF1200EAC5E9FFEBC5EAFF1200AA
:105480000701436BD0EC15F0B5EC2DF0C1EC1BF02F
:105490003AEF04F00701796B07014351040A01E177
:1054A000D7D0070A01E1A1D0050A01E189D0010A9C
:1054B00072E0050A32E0070A29E0050A03E0010A62
:1054C00001E0E8D00601780E9E6F070E9F6F06017F
:1054D000440E9C6F070E9D6FD7EC19F0000901E197
:1054E000D9D00701010E796F0701785104E1070156
:1054F000020E436F0AD0060E0701785D04E1070132
:10550000050E436F02D07BEC19F0C4D0C2EC2DF035
:10551000000902E00701436BBDD006014E0E076F84
:10552000070E086F0601780E056F070E066F06015D
:10553000440E036F070E046F0601740E016F070E11
:10554000026F65EC26F0000921E00701010E796F7A
:105550000701780504E10701030E436F16D0060E1C
:105560000701785D04E10701060E436F0ED0110EAE
:105570000701785D04E10701070E436F06D00701BC
:10558000796B7BEC19F00701436B04D07BEC19F0CD
:105590000701436B7FD04EC757F54FC758F505013C
:1055A000740E556F070E566F0501440E536F070EAC
:1055B000546FB3EC1DF0000902E00701436B6AD0A1
:1055C0004EC753F44FC754F40401740E516F070EC5
:1055D000526F0401440E4F6F070E506FCFEC08F06E
:1055E000000902E00701436B55D00701436B070137
:1055F000290ED8804E55000E4F5527E30501720E37
:10560000836F070E846F0501700E816F070E826F26
:1056100005014E0E7F6F070E806F0501500E7D6FE6
:10562000070E7E6F0501780E7B6F070E7C6F26ECF0
:1056300029F000090AE0080E0701785D06E107017C
:10564000010E796F0701040E436F7BEC19F022D035
:105650000601010E776F28EC17F000091AE072C7F7
:10566000BDF573C7BEF570C7BBF571C7BCF54EC7B6
:10567000BAF50501500EB86F070EB96F0501B76B8B
:105680000501440EB56F070EB66FA0EC29F00701B7
:10569000436B00D004000701795101E0FBD6D6EC42
:0856A00007F003EC17F0120003
:0856A800ECC553FF0F01526B2A
:1056B0000F01080E516FBBEF2FF0EEC5F0F5EFC5EF
:1056C000F1F5C750040B01E0010EE4D8FAE1C58002
:1056D000C5B0FED7A1B6010CEDC554FFE0D801E07E
:1056E000010CC750040B01E0010ED4D8FAE1C5BC8F
:1056F00019D0F1C554FFD3D801E0010CC750040BF9
:1057000001E0010EC7D8FAE1F0C554FFC8D801E0A6
:10571000010CC750040B01E0010EBCD8FAE1C5AC86
:10572000000C020C020CF3C5EEF5F4C5EFF5F2C562
:10573000EDF5C3DF0501F56FE85005E177D8050108
:10574000F56FE85002E0F5511200C750040B01E07C
:10575000010EA0D8FAE1C580C5B0FED7A1B6010CF4
:105760000501F2290F01546F9AD801E0010CC750CE
:10577000040B01E0010E8ED8FAE1C5AC000C020C5E
:10578000C750040B01E0010E85D8FAE1F6C554FFBD
:1057900086D801E0010CC750040B01E0010E7AD855
:1057A000FAE1C5AC000C020CC750040B01E0010E7D
:1057B00071D8FAE1C584C5B4FED7000CCAEC2FF04D
:1057C000C5B6FED7C59AC588C5B8FED7C950120060
:1057D000CAEC2FF0C5B6FED7C58AC588C5B8FED7B6
:1057E000C584C5B4FED7000CF8C5F3F5F9C5F4F5CA
:1057F000F7C5F2F598DF0501FD6FE85015E1FC51A2
:10580000FC0700090EE0DADFE66E0501FAC5E9FFE4
:10581000FBC5EAFFFA2B000EFB23E552E750EF6EC3
:10582000EED7D6DF0501FD6FFD511200C750040B06
:1058300001E0010E2FD8FAE1C584C5B4FED7A1B6A8
:10584000010C000CC750040B01E0010E23D8FAE153
:10585000C580C5B0FED7A1B6010CFEC554FF1FD848
:1058600001E0010CC750040B01E0010E13D8FAE16E
:10587000A1B6010CC5BC03D00501FF6B03D0050127
:10588000040EFF6FC584C5B4FED7A1B6010C050197
:10589000FF511200006E1F0EC51400101200CFEC55
:0658A0002FF000091200C8
:0A58A6000001E46BA06BA16BE26B44
:1058B000E36B9D9A9D9812009D8A9D9812000001AD
:1058C000A16BA1C0A0F0E36BE3C0E2F01200060EF2
:1058D000AB1402E0AB98AB889EAA0ED00001E35156
:1058E000EA6AA20FE96E000EEA22AECFEFFFE32BC9
:1058F0003F0EE315E36FF0D712000001A051A15D48
:105900000DE0A051EA6A600FE96E000EEA22EF5046
:10591000AD6EA02B3F0EA015A06F12009D98120037
:1059200012000001E45112000001E251EA6AA20FE4
:10593000E96E000EEA22EFCFE5F0E22B3F0EE21512
:10594000E26FE55112000001A1293F0B0001A05DAB
:1059500002E10400F8D7F29E9DB805D0E6C0ADFF85
:105960009D88F28E11D00001A151EA6A600FE96EA4
:10597000000EEA22E6C0EFFF0001A12B3F0E00015E
:10598000A1150001A16FF28E12000001E7519F08DE
:1059900005E2E7390F0B0F0B570F04D0E7390F0B58
:1059A0000F0B300F0001E66FCEDF0F0E0001E71581
:1059B000090804E20F0EE715570F03D00F0EE71585
:1059C000300F0001E66FA3EF2CF00001E8C0E9FF03
:1059D000E9C0EAFFE82B000EE923EFCFEAF0EF5031
:1059E00004E0EAC0E6F0AFDFF0D712000001EBC040
:1059F000F6FFECC0F7FFEB2B000EEC230800F5CF11
:105A0000EDF0F55004E0EDC0E6F09DDFEFD71200B9
:105A100043616368652D436F6E74726F6C3A206DDD
:105A200061782D6167653D3630302C206D7573745B
:105A30002D726576616C69646174650D0A00485465
:105A400054502F312E302034303120556E61757412
:105A5000686F72697A65640D0A5757572D417574DE
:105A600068656E7469636174653A20426173696345
:105A7000207265616C6D3D2264656661756C74228F
:105A80000D0A0D0A41757468656E74696361746905
:105A90006F6E205265717569726564210D0A004848
:105AA0005454502F312E3020353033200D0A0D0A3A
:105AB0005365727669636520556E617661696C61C4
:105AC000626C650D0A00485454502F312E3020343A
:105AD0003034204E6F7420666F756E640D0A0D0AA7
:105AE0004E6F7420666F756E642E0D0A00617564CA
:105AF000696F2F782D77617665006170706C6963CE
:105B00006174696F6E2F6A6176612D617263686975
:105B1000766500696D6167652F6A70656700696DFC
:105B20006167652F67696600746578742F6A6176AE
:105B30006173637269707400746578742F63737332
:105B4000006170706C69636174696F6E2F6A617651
:105B5000612D766D00746578742F68746D6C0074B7
:0A5B60006578742F706C61696E00A7
:065B6A000701A36BA46912
:105B7000A569A669A769A869A969AA6BAB6BAC6B93
:105B8000AD6B12000701A35128E10701B80E026FA7
:105B9000070E036F0701AE0E006F070E016FD2EC08
:105BA00027F0000929E00701B85115E1AEC7A4F7B5
:105BB000AFC7A5F7B0C7A6F7B1C7A7F7B2C7A8F791
:105BC000B3C7A9F7B4C7AAF7B5C7ABF7B6C7ACF761
:105BD000B7C7ADF7010C010EA36F0701226B0701D8
:105BE000AE0E206F070E216F45EC28F0000903E090
:105BF0000701A36B010C000C010CB9C7E9FFBAC780
:105C0000EAFFEECFC1F7EECFC2F7EECFC3F7EFCF8B
:105C1000C4F70701010E226F0701BB0E206F070EAC
:105C2000216F45EF28F0C5C7E9FFC6C7EAFF0701A6
:105C3000AA51EE1808E1AB51EE1805E1AC51EE188F
:105C400002E1AD51EE1814E00401F2510701AA5D22
:105C500020E10401F3510701AB5D1BE10401F451A4
:105C60000701AC5D16E10401F5510701AD5D11E1DD
:105C7000C7C7E9FFC8C7EAFFA4C7EEFFA5C7EEFF85
:105C8000A6C7EEFFA7C7EEFFA8C7EEFFA9C7EEFFA6
:045C9000010C000CF7
:0C5C9400D9CFE6FFDACFE6FFFA0EE3CF2F
:105CA000D9FFFB0EE3CFDAFFFC0EE3CFE9FFFD0ED9
:105CB000E3CFEAFFE9CFF3FFEACFF4FFF80EE350BA
:105CC00003E1F90EE35008E0F80EE30602E2F90EF4
:105CD000E306DECFEEFFF2D7FF0EE3CFDAFFE552A9
:105CE000FF0EE3CFD9FFE5521200FB0EE3CFF6FF24
:105CF000FC0EE3CFF7FFFD0EE3CFF8FFFE0EE3CF80
:105D0000E9FFFF0EE3CFEAFF0900F550EF5C02E187
:105D1000EE66FAD71200FB0EE3CFF6FFFC0EE3CFE0
:105D2000F7FFFD0EE3CFF8FFFE0EE3CFE9FFFF0E16
:105D3000E3CFEAFFE9CFF3FFEACFF4FF0900F5CFA5
:105D4000EFFFEE66FBD71200FE0EE3CFE9FFFF0E7A
:105D5000E3CFEAFFF36AF46AEE5203E0F34AF42A6F
:105D6000FBD71200FE0EE3CFE9FFFF0EE3CFEAFF01
:105D7000E9CFF3FFEACFF4FF610EEF5C05E67B0E9F
:0E5D8000EF5C02E7DF0EEF16EE52F6E11200C6
:025D8E00545867
:105D9000540048544D00434C4100435353004A5370
:105DA000000047494600434749004A5047004A41DE
:105DB000520057415600545854005A5458005A48FB
:105DC00054005A434C005A4353005A4A5300485413
:105DD00054502F312E3020323030204F4B00436F43
:105DE0006E74656E742D747970653A2000436F6E21
:105DF00074656E742D456E636F64696E673A2067D3
:105E00007A69700D0A00457870697265733A2030BE
:105E10000D0A0043616368652D436F6E74726F6C89
:105E20003A206D61782D6167653D3330302C206DEF
:105E30007573742D726576616C69646174650D0AA1
:105E40000047455400494E4445582E48544D004C97
:095E50004F47494E2E434749001B
:065E5A002A0EF66E080E90
:105E6000F76E000EF86E03010900F550FB6F090094
:105E7000F550FC6F03E1FB6701D03DD00900F55000
:105E8000F66F0900F550F76F0900F550F86F09003B
:105E90000900F550E96E0900F550EA6E09000900A5
:105EA0000900F550F96F0900F550FA6F0900090073
:105EB000F6CFFDF3F7CFFEF3F8CFFFF3F6C3F6FF0F
:105EC000F7C3F7FFF8C3F8FF0301F95302E1FA53F0
:105ED00007E00900F550EE6EF907F8E2FA07F9D786
:105EE000FDC3F6FFFEC3F7FFFFC3F8FF0301FB0787
:085EF000000EFC5BBFD712009D
:085EF80041424344454647487E
:105F0000494A4B4C4D4E4F50515253545556575889
:105F1000595A6162636465666768696A6B6C6D6E25
:105F20006F707172737475767778797A3031323335
:095F30003435363738392B2F00C7
:015F3900FE69
:065F3A00AA6AA96A3F0EED
:105F4000A6160401E40EF66F040EF76FA950006E5A
:105F5000016A120E005C000E01580CE2A680F6C425
:105F6000E9FFF7C4EAFFF62B000EF723A8CFEFFFF7
:065F7000A92AECD7120083
:0A5F76003F0EC716C66AC56A0F0188
:105F80005151C6125251C71294869488C68A53CF73
:105F9000C8FF1200C586C7A0FED7C950120054CF53
:0C5FA000C9FFC6BEFF0CC7B0FED7000C46
:045FAC000D01FD5195
:105FB000FD07000906E00D0EFE6FFE51F7E0FE073B
:105FC000FCD712000D01FF51FF07000907E0080E82
:0E5FD000E66E00EC30F0E5520400F4D712004B
:025FDE000401BC
:105FE000F86BF96BFA6BFB6BFC6BFD6B580ED66EA6
:105FF0009E0ED76E010ED56ED58EF284F28A1200F7
:10600000FF0EE350296E480E01D04C0EE76EE72ECE
:10601000FED7E76AE72EFED7292EF7D70000120039
:106020001EEE00F02EEE00F0F86A289C2DEC2FF00A
:08603000BDEC22F0FDD71200C7
:0860380056332E3030003132E6
:0860400033343536534552009C
:0860480000EE00F00F0EEE6AFD
:06605000EA62FDD7120018
:0660560056322E34370023
:02605C0000043E
:02605E00FE0042
:0260600000003E
:0E6062005F5B555B415B385B285B1E5B555BEB
:10607000135BFA5AED5A5F5B5F5B555B415B385BC4
:08608000285BC65A9F5A3E5AE4
:086088007C2424247D72737452
:1060900075767778797A7B242424242424243E3F3F
:1060A000404142434445464748494A4B4C4D4E4F78
:1060B00050515253545556572424242424245859BB
:1060C0005A5B5C5D5E5F60616263646566676869B8
:0960D0006A6B6C6D6E6F7071005B
:020000040030CA
:0100010046B8
:010002000EEF
:010003000EEE
:010005008377
:010006008178
:01000800FFF8
:010009008076
:01000A00FFF6
:01000B008074
:01000C00FFF4
:01000D0000F2
:0200000400F00A
:100000000A0100010004A3000000FF0000000A0133
:0400100000010401E6
:00000001FF
