:020000040000FA
:0608000010EF20F01200D1
:06080800A0EF1EF012003B
:06082A0003004140000044
:100830004B0100000200000040400000FF000000EB
:10084000010000003E4000004901000002000000DD
:100850000B01006B0A0E005D2BE20051240DF3CF5B
:1008600001FBF4CF02FB000E01270C0E0223F7EC74
:100870000CF00A0EEF6E66EC0EF0EF9066EC0EF0E8
:10088000EF8266EC0EF0EF8466EC0EF0EF9866EC0B
:100890000EF0EF96F7EC0CF010EC0EF0F7EC0CF01D
:1008A00026EC0EF0F7EC0CF047EC0EF0002BD2D754
:1008B00012000B01006B0A0E005D3FE20051240D97
:1008C000F3CF01FBF4CF02FB000E01270C0E022335
:1008D000E3EC0CF0EF500A082EE1E3EC0CF0EF6AC9
:1008E000E3EC0CF00B0EB1CDEBFF0C0EB2CDEBFF39
:1008F000E3EC0CF00D0EEB6A0E0EEB6AE3EC0CF081
:1009000042EC0EF07CEC0EF0EF807CEC0EF0EF96FB
:10091000E3EC0CF060EC0DF008E0E3EC0CF0F1EC33
:100920000CF0E3EC0CF010EC0EF07CEC0EF0EF822F
:100930000B0100511200002BBED7FE0C0B016F6B98
:100940006C6B0A0E6C5D14E26C51240DF3CF6DFBE1
:10095000F4CF6EFB000E6D270C0E6E23B3EC0CF083
:10096000EF500A0803E1010E6F6F02D06C2BE9D73C
:100970006F5101E1FE0C0101492B000E4A23B3EC3B
:100980000CF00B0E49C1EBFF0C0E4AC1EBFF880EB9
:10099000D8804955130E4A5503E2496B040E4A6F3D
:1009A000B3EC0CF0A0EC0DF0EF90B3EC0CF00D0EEE
:1009B000B5CDEBFF0E0EB6CDEBFF2FEC0EF01A0E01
:1009C0008CEC0CF087EC0DF00A0EE66EE66AB3CD07
:1009D000E6FFB4CDE6FFB3EC0CF0BDEC0CF035EC6B
:1009E0000DF00D01020EE06FB3EC0CF014EC0EF004
:1009F000B3EC0CF03AEC0EF0B3EC0CF018EC0EF09B
:100A0000B3EC0CF01CEC0EF0B3EC0CF00BEC0DF0B6
:100A1000B3EC0CF0010EEF6E2FEC0EF03BEC0DF092
:100A20000B016C5112000D01B751A9EC0CF0EF5005
:100A3000030801E0000C010C0D01B851240DF3CFA7
:100A40006CFBF4CF6DFB000E0B016C270C0E6D23BD
:100A5000FCEC0CF0EF5003080BE0FCEC0CF0EF505A
:100A6000020806E06CCBEAFD6DCBEBFDC8EF0AF0A7
:100A7000B8CDC2FD71D935EC0DF00D01110EE06F4E
:100A8000FCEC0CF014EC0EF0FCEC0CF03AEC0EF07C
:100A9000FCEC0CF018EC0EF0FCEC0CF01CEC0EF086
:100AA000FCEC0CF00BEC0DF0FCEC0CF088EC0EF018
:100AB0008CEC0DF0FCEC0CF0040EEF6E12000D014E
:100AC000B951240DF3CF6EFBF4CF6FFB000E0B0179
:100AD0006E270C0E6F23A4EC0CF060EC0DF001E11E
:100AE000000CA4EC0CF05CEC0EF0020B01E1000C2D
:100AF000A4EC0CF0100E8CEC0CF0EECFE2FDEDCF80
:100B0000E3FDA4EC0CF00F0EEB500D01E16F0D01B5
:100B1000180EE06F14EC0EF0A4EC0CF03AEC0EF0B2
:100B2000A4EC0CF018EC0EF0A4EC0CF01CEC0EF0A5
:100B3000A4EC0CF00BEC0DF0A4EC0CF0100E0DEC92
:100B40000EF0026A036AA4EC0CF088EC0EF0005080
:100B5000EE260150EE220250EE220350EE228BECE4
:100B60000EF0EF928BEC0EF0EF98A4EC0CF060EC32
:100B70000DF008E0A4EC0CF0F1EC0CF0A4EC0CF09F
:100B800010EC0EF08BEC0EF0EF82010C0A0E0D0152
:100B9000BA5D01E3000CBA51A9EC0CF0140E2CEC78
:100BA0000EF001E1000CBA51A9EC0CF00F0E8CEC28
:100BB0000CF0EF50FF0804E100019C6B55EF0FF0C3
:100BC000BA51A9EC0CF05CEC0EF0020B01E0010E46
:100BD00012000D01BB51240DF3CF6CFBF4CF6DFB64
:100BE000000E0B016C270C0E6D2306EC0DF0140E9D
:100BF0002CEC0EF001E1000C06EC0DF060EC0DF0B9
:100C000013E106EC0DF00F0E1EC0EBFF06EC0DF02D
:100C1000EB50FF0801E1000C06EC0DF064EC0DF068
:100C200006EC0DF073EC0DF006EC0DF0A0EC0DF001
:100C3000EF88BCCD9DF063EC0FF006EC0DF0140EC8
:100C40008CEC0CF0EE06EF5A06EC0DF0100E8CEC6E
:100C50000CF0EE2AED22EECF00F0EDCF01F0CA0E3F
:100C6000005C030E015803E3BBCDB9FD28DF010C86
:100C70000D01BD51240DF3CF6CFBF4CF6DFB000EC5
:100C80000B016C270C0E6D23CCEC0CF0140E2CEC2D
:100C90000EF001E1000CCCEC0CF060EC0DF013E177
:100CA000CCEC0CF00F0E1EC0EBFFCCEC0CF0EB50BC
:100CB000FF0801E1000CCCEC0CF064EC0DF0CCEC86
:100CC0000CF073EC0DF06FEC0EF00D01C051EE2442
:100CD000006EC151EE20016ECA0ED8800054030E82
:100CE00001540BE26FEC0EF0EECFC0FDEFCFC1FD73
:100CF000CA0ED880C057030EC157CCEC0CF0A0EC44
:100D00000DF0EF88C0CDA0F0C1CDA1F0BECD9EF01A
:100D1000BFCD9FF085EC0FF0CCEC0CF0140E8CECFA
:100D20000CF00D01C051EE5EC151ED5A6FEC0EF0AA
:100D3000C051EE26C151ED22CCEC0CF0100E0DECA2
:100D40000EF0CA0E005C030E015803E3BDCDB9FDE1
:100D5000B6DE0D01C05112000D01C251240DF3CFBA
:100D600000FBF4CF01FB000E0B0100270C0E01234A
:100D700000CBE9FF01CBEAFF5CEC0EF0080B01E1D0
:100D8000000C74EC10F000CBE9FF01CBEAFFA0EC03
:100D90000DF0EF96010C0D01C351240DF3CF00FBB4
:100DA000F4CF01FB000E0B0100270C0E01232BECEE
:100DB0000DF05CEC0EF0080B3AE02BEC0DF05CEC67
:100DC0000EF0040B08E0140E6AEC0DF02BEC0DF0A5
:100DD000A0EC0DF0EF942BEC0DF0120E0DEC0EF0DC
:100DE0000D01C651005CC751015809E22BEC0DF012
:100DF000120E8CEC0CF0EECFC6FDEDCFC7FD2BEC48
:100E00000DF0120E2CEC0EF008E174EC10F02BEC4F
:100E10000DF0A0EC0DF0EF960AD0C6CDA4F0C7CD32
:100E2000A5F0C4CDA2F0C5CDA3F017EF10F0F36A82
:100E3000F46A12000D01C851240DF3CF00FBF4CF6A
:100E400001FB000E0B0100270C0E012330EC0DF00E
:100E50005CEC0EF0080B2BE030EC0DF05CEC0EF0CF
:100E6000040B08E0140E6AEC0DF030EC0DF0A0EC71
:100E70000DF0EF9430EC0DF0120E2CEC0EF008E1BA
:100E800074EC10F030EC0DF0A0EC0DF0EF96000CCF
:100E900030EC0DF0120E8CEC0CF0EE06EF5AD9ECA3
:100EA0000FF0C9CDE9FFCACDEAFFEF6E010C000CCF
:100EB0000A0E0D01CB5D01E3000CCB51A9EC0CF047
:100EC0005CEC0EF0080B01E0010E12000B017B6BD5
:100ED0006C6B0A0E6C5D01E3E8D06C51240DF3CF0E
:100EE00075FBF4CF76FB000E75270C0E762385EC90
:100EF0000EF0080B01E0D6D085EC0EF0100B01E0EF
:100F0000D1D095EC0CF0EF500A0801E1CBD095EC74
:100F10000CF0EF50000905E185EC0EF0010B01E04B
:100F2000C1D095EC0CF01F0E8CEC0CF00101EE50D2
:100F30003E5D006EEE503F59016E95EC0CF0210EB7
:100F40008CEC0CF091EC0DF00050025C0150035859
:100F500001E3A8D00001010E9C6F55EC0FF00009D1
:100F600001E1120095EC0CF03BEC0DF095EC0CF06F
:100F7000210E8CEC0CF0010ED890EE36ED36E80622
:100F8000FBE195EC0CF01E0E8CEC0CF0EF2A95ECCE
:100F90000CF0EF50090A3CE0010A32E00F0A3FE092
:100FA000020A3DE0030A3BE0020A26E0070A1DE0D0
:100FB000010A05E0030A38E10B01020E2ED03DECD8
:100FC0000EF003E30B01120E28D085EC0EF0010B9E
:100FD00004E095EC0CF0EF6A22D00B01020E7B6F5F
:100FE00095EC0CF0010EEF6E1AD00B01110E7B6F19
:100FF00095EC0CF0040E0AD03DEC0EF010E30BD093
:101000000B01010E7B6F95EC0CF0090EEF6E0CD00E
:101010003DEC0EF004E30B01010E7B6F05D075CBA8
:10102000EAFD76CBEBFDB4DA0B017B513BE07BA90B
:101030000DD095EC0CF088EC0EF0EECF77FBEECFF8
:1010400078FBEECF79FBEFCF7AFB10D095EC0CF06C
:1010500088EC0EF0EFCF77FBEE2AEFCF78FBEE2295
:10106000EFCF79FBEE22EFCF7AFBEF2235EC0DF0DC
:101070007BCBE0FD95EC0CF014EC0EF077CBD8FDBB
:1010800078CBD9FD79CBDAFD7ACBDBFD95EC0CF092
:1010900018EC0EF095EC0CF01CEC0EF095EC0CF04E
:1010A0000BEC0DF00B016C2B14D71200CCCDE9FF2B
:1010B000CDCDEAFF060E8CEC0CF0EECF80FBEECF30
:1010C00081FBEECF82FBEFCF83FBCECDE9FFCFCD0F
:1010D000EAFFEECF84FBEECF85FBEECF86FBEFCFB2
:1010E00087FB0B01886B060E896FD0CD8AFBD1CDB3
:1010F0008BFBD0CDBCF0D1CDBDF060EC16F0F3CFC2
:101100008AFBF4CF8BFB0C0E0001C46FC56B000192
:10111000800EC26F0B0EC36F94EC16F0F3CF8DFBF5
:10112000F4CF8EFB0B018D1F8E1FD0CDC6F0D1CD1D
:10113000C7F0F0EC16F0F3CF8FFBF4CF90FB0B0170
:10114000F4508D5D55E18F518E5D52E101010E6BC2
:101150000F6B34EC19F0140E0001A46FA56B0001A5
:101160006C0EA26F0B0EA36F17EC10F00D016C0E3E
:10117000E86F0B0EE96FD8D94CEC0DF0006E016AE8
:10118000140E005E000E015A00C091FB0050006E6C
:10119000016AE8500D01D05DD06F0150D159D16F77
:1011A000140ED05F000ED15B4CEC0DF06AEC0DF02C
:1011B000CCCDE6FDCDCDE7FD0D016C0EE46F0B0E41
:1011C000E56F3DD90B018C6FFE0E8C5D11E0D0CD2B
:1011D000F1FDD1CDF2FD0D016C0EEF6F0B0EF06F36
:1011E000CCCDEDFDCDCDEEFD8CCBECFDFAD9010CD7
:1011F00074EC10F0010C0001010E9C6F55EC0FF027
:10120000000902E10400F7D7FF0E0D01E15D02E1E4
:101210001EC0E1FDFF0E0D01E15D01E10FD1140ED5
:101220000001B96FBA6BE1CDB8F024EC12F0D4CD67
:1012300048FBD5CD49FBD6CD4AFBD7CD4BFBD8CD0E
:101240004CFBD9CD4DFBDACD4EFBDBCD4FFBDCCDDE
:1012500050FBDDCD51FBDECD52FBDFCD53FB0B014F
:10126000559D559F0B015491549354955497E0CD3F
:1012700055FB87EC10F0F3CF56FBF4CF57FB0B0177
:10128000000E565D040E575905E30B01566B040E14
:10129000576F11D00B01360ED8805655000E57559A
:1012A00007E2360E0B01565F000E0B01575B03D0B1
:1012B0000B01566B576B0B01586B596B0B015A6B3B
:1012C0005B6B0D01480EE86F0B0EE96F2DD9140E04
:1012D0000D01E227000E0D01E3230D01E0A317D05D
:1012E000040E0D01E227000E0D01E3230B01020E97
:1012F0005C6F0B01040E5D6F0B01040E5E6F0B0142
:101300005F6B0B015499548B548D549F05D00B0186
:101310005489549B548D549F12C160FB13C161FBCF
:1013200014C162FB15C163FBD2CDE9FFD3CDEAFF47
:10133000060EE926000EEA22EECF64FBEECF65FB37
:10134000EECF66FBEFCF67FB0B01686B0B01060E60
:10135000696FE2CD6AFBE3CD6BFB6ACBBCF06BCB74
:10136000BDF060EC16F0F3CF6AFBF4CF6BFB0C0E14
:101370000001C46FC56B0001600EC26F0B0EC36F1E
:1013800094EC16F0F3CF58FBF4CF59FB0B01581F28
:10139000591F58CB46FB59CB47FBE2CD0CF1E3CDAF
:1013A0000DF10101060E0B6FD2CD09F1D3CD0AF17B
:1013B000C5EC18F0140E0001A06FA16B0001480EDF
:1013C0009E6F0B0E9F6F85EC0FF00D01E0A30BD00D
:1013D000040E0001A06FA16B00015C0E9E6F0B0E4E
:1013E0009F6F85EC0FF0140E0001B96FBA6BE1CD61
:1013F000B8F024EC12F0E2CDC6F0E3CDC7F0F0EC8B
:1014000016F0F3CF46FBF4CF47FB240E0001B96F73
:10141000BA6BE1CDB8F024EC12F047CB9DF063EC51
:101420000FF046CB9DF063EC0FF00001B96BBA6B87
:10143000E1CDB8F024EC12F0C3EC11F012000B0176
:10144000FE0E036F026B0A0E025D4AE202512EDBB2
:10145000A8DAEF500A0841E0A4DA0B0EDEDB66DB07
:10146000020E5ADA5EDB00010250001836E103502A
:10147000011833E196DAEF50000902E102CB03FBD9
:1014800090DA0D0ECADB52DB4CDB0250001825E16E
:101490000350011822E1E6CDE9FFE7CDEAFF060E91
:1014A0003BDAEECF04F0EECF05F0EECF06F0EFCF53
:1014B00007F077DAEE52060E82EC0EF004180DE11A
:1014C000EE5005180AE1EE50061807E1EE50071835
:1014D00004E103E10B01025112000B01022BB3D70F
:1014E000FE0E035D01E1FE0C0351E0DA0A0EE66E2A
:1014F000E66AE6CDE6FFE7CDE6FF53DA3EDA0250D4
:1015000015DB7FDA4EDAF5DA4CDA1ADBEF9649DAD8
:10151000D7DA04E046DA65DA44DA82DB42DA10DB55
:10152000EF820B01035112000ADAEFCF07FBDEDB7B
:10153000D6DA05DA4DDB020E67DB020E22DB020E85
:1015400068DB020EDCDB040E1FDB040E8DDB080EF5
:101550001BDB080E89DB0E0E57DB0E0E12DB0E0EA8
:1015600058DB0E0ECCDB100E4FDB100E0ADB100E1C
:1015700050DB100EC4DB120E47DB120E02DB120E24
:1015800048DB120EC9D9010EC7D907CBEFFF1200F5
:10159000EFD996DA06E0ECD924DAEAD941DBBEDBF2
:1015A000EF82E6D96FDBE4D90D0EEB6A0E0EEB6A23
:1015B000DFD982DB080B02E074EC10F0AFDBEF96B2
:1015C000D7D944DBABDBEF98D3D976DB010B03E053
:1015D000CFD9EF6A03D0CCD90A0EEF6EC9D947EF45
:1015E0000EF00D01EC51240DF3CFA2FBF4CFA3FBC1
:1015F000000E0B01A2270C0EA323A46B91D91E0E83
:101600008BD9EF6A8DD937DA8BD920DB94DA040BCA
:101610000CE074EC10F085DB010B02E0000E01D051
:10162000010EE66E7DD96FEF0DF0D8DA0E0E74D98B
:10163000EECF04F0EFCF05F0066A076A7BD9080EFB
:1016400061DB965D086EEE509759096EEE50985921
:101650000A6EEE5099590B6E0850045C006E0950EA
:101660000558016E0A500658026E0B500758036E5B
:1016700057D9100E51D9EECF0CF0EFCF0DF00E6A06
:101680000F6A0C50005C926F0D500158936F0E5012
:101690000258946F0F500358956F800E951506E011
:1016A0003FD9140EEB6A150EEB6A07D039D9140E28
:1016B00092CBEBFF150E93CBEBFF15DB01081EE180
:1016C0003ADA020B05E1FBDA100B01E114D11CD070
:1016D0003ADAE2DAB0D92BDB06E122D9020EEF6E5C
:1016E00074EC10F029D01CD9030EEF6E100EA46F0D
:1016F000F0DA0D01F151F21164E19FD0F4DA000942
:101700001FE1DDDA020B03E10B01040E17D01BDA37
:10171000E0DA0A0EE66EE66AEDCDE6FFEECDE6FF14
:10172000FFD82BD9025006D96CD9FAD8E2D9F8D80B
:10173000020EEF6E3EDA7FD90B01120EA46FBAD003
:10174000ABDAEECF9AFBEECF9BFBEECF9CFBEFCF5D
:101750009DFBB9DAEECF9EFBEECF9FFBEECFA0FB59
:10176000EFCFA1FBE7D8040ED7D865D90D01F15111
:101770000B0192270D01F2510B019323000E9423CC
:1017800095232CDA040EBEDA9A1901E086D0EE50C9
:101790009B1901E082D0EE509C1901E07ED0EE5002
:1017A0009D1901E07AD001E078D09DDA02080BE1C2
:1017B000BEDA43E01EDA030EEF6E0D01F151F211B5
:1017C0003CE06EDA77D015DAEF50030839E1AFDA92
:1017D0000CE0A7DA020B09E1A3D872D906E0A0D881
:1017E00000D99ED81DDAA0DAEF82A5D9010B08E056
:1017F0000B01110EA46FDDD9D9D892D8090EEF6E66
:101800000D01F151F21119E08CDA080B04E148DA0C
:101810000B01A4894FD057DA9ECBEEFF9FCBEEFF92
:10182000A0CBEEFFA1CBEEFF37DA9ACBEEFF9BCB3E
:10183000EEFF9CCBEEFF9DCBEEFF74EC10F03AD0A8
:1018400052DA090804E13BDA100B34E020D04BDA1D
:1018500004080FE134DA010B06E0F2D968DA17E187
:101860005FD8060E04D063DA25E05AD8050EEF6E75
:1018700021D039DA050805E122DA010B1BE0E0D9B5
:1018800006D031DA060816E11ADA100B13E0A2CB03
:10189000EAFDA3CBEBFD7CDE0DD074EC10F00B0168
:1018A000100EA46F9ACB92FB9BCB93FB9CCB94FB2B
:1018B0009DCB95FB0B01A4511EE0D7D8A4CBE0FD36
:1018C00092CBDCFD93CBDDFD94CBDEFD95CBDFFD34
:1018D00096CBD8FD97CBD9FD98CBDAFD99CBDBFD24
:1018E00029D8D0D827D8020E17D8D1D8EDCDD2FD1F
:1018F000EECDD3FD80DC12000D01F351240DF3CFAA
:1019000000F0F4CF01F0000E00260C0E012200C002
:10191000F3FF01C0F4FF1200E926000EEA221200D4
:10192000A2CBE9FFA3CBEAFF120075CBE9FF76CB90
:10193000EAFF1200EFCDE9FFF0CDEAFF1200E8CD9B
:10194000E9FFE9CDEAFF12006ECBE9FF6FCBEAFFBA
:101950001200240DF3CFE9FFF4CFEAFF000EE926D1
:101960000C0EEA2212006DCBE9FF6ECBEAFF1200EB
:10197000EACDE9FFEBCDEAFF1200EE52E9CF00F02D
:10198000EACF01F0E9CFE6FFEACFE6FF71EC1FF006
:10199000026E060EE15E12006CCBE9FF6DCBEAFF32
:1019A000120000CBE9FF01CBEAFF1200EF2AEECFD5
:1019B00092FBEF22EECF93FBEF22EECF94FBEF22D0
:1019C000EFCF95FB120001CBE9FF02CBEAFF12003B
:1019D000EECFDCFDEECFDDFDEECFDEFDEFCFDFFDA8
:1019E00012000F0EEB500001A76F69EF10F001CB52
:1019F000E9FF02CBEAFF12006CCBE9FF6DCBEAFFF7
:101A00001200EECF00F0EFCF01F012006CCBE9FF37
:101A10006DCBEAFF1200EE52E9CFD2FDEACFD3FD43
:101A2000FBEF08F0EECFD8FDEECFD9FDEECFDAFD1B
:101A3000EFCFDBFD1200EECF92FBEECF93FBEECFAC
:101A400094FBEFCF95FB120001C0EEFF02C0EEFF4A
:101A500003C0EEFF120000CBE9FF01CBEAFF12004A
:101A600000CBE9FF01CBEAFF12000D01E26BE36B53
:101A70000D01E16912001F0E3EC1EBFF200E3FC1B8
:101A8000EBFF1200EECFD6FDEDCFD7FD1200EECF6B
:101A9000D4FDEDCFD5FD12000B017851F00BE842DB
:101AA000E842E842E842040DF3501200240DF3CF5F
:101AB00000FBF4CF01FB000E00270C0E01231200E7
:101AC0000F0EEB50FF081200E2D8280E0001B96F8C
:101AD000BA6B120001010E6F0F6B34EF19F0E55273
:101AE000E750EF6E12000F0EEB500001B86F24EFBD
:101AF00012F00D0E00C0EBFF0E0E01C0EBFF120046
:101B0000140E00C0EBFF150E01C0EBFF1200EE6AD1
:101B1000EE6AEE6AEE6A1200EE2AEE22EE22EE2263
:101B20001200EECF02F0EFCF03F01200E4CDE9FF98
:101B3000E5CDEAFF1200FEDE0D0EEEDEEF501200E4
:101B4000230E8CEF0CF0F1CD04F0F2CD05F0066A17
:101B5000076AF0DE040ED6D80424006EEE5005208D
:101B6000016EEE500620026EEE500720036E002A32
:101B7000000E0122022203228FD800C0EEFF24EFC4
:101B80000DF0CADE76EF0EF0C7DEEECFBEF0EECF80
:101B9000BFF0EECFC0F0EFCFC1F065EC16F014C08F
:101BA00000F015C001F016C002F017C003F09FEF5F
:101BB0000CF089D8EFCF96FBEE2AEFCF97FBEE2201
:101BC000EFCF98FBEE22EFCF99FBEF224CEF0EF018
:101BD000010EA2DE07CBEFFF9FEF0CF074D8EECF23
:101BE00096FBEECF97FBEECF98FBEFCF99FB9AEFEA
:101BF0000CF052D892CBEEFF93CBEEFF94CBEEFFDE
:101C000095CBEEFF90EF0CF087DEEFCF07FB9FEF59
:101C10000CF082DE64DF9FEF0CF07EDE01EF0DF052
:101C20000F0E7ADEEF6812001A0E76DEE8EF0CF087
:101C30000D0E72DE42EF0DF00B0E6EDE47EF0DF073
:101C40000B01100EA46F28D8D6EF0CF0210E64DE25
:101C5000C80EEE6EED68120055D8ED10120083DE4E
:101C600057D85ADFB3EF0CF057DE14C0EEFFECDEAE
:101C70009FEF0CF04DD812EF0DF057DE1E0EEB501B
:101C800003081200EE52060E47DE87EF0DF0100E2D
:101C9000EB6A110EEB6A120043DE1A0E8CEF0CF0A9
:101CA00043D8EF863DDE120EF1CDEBFF130EF2CDE1
:101CB000EBFF3AD8EF84120043DFEF50120074ECD0
:101CC00010F09BEF0DF02CDE88EF0EF090DEA0EF11
:101CD0000DF030DE0E0EA1DF23DE80EF0DF05CDEB6
:101CE000100E8CEF0CF01CDEEF501200010E14DE13
:101CF000EF50E66E9FEF0CF066DEA0EF0DF00CDE0D
:101D0000E8EF0DF009DEEE5012000FDE5CEF0EF092
:101D1000160E8CEF0CF018DEA0EF0DF029DEA0EF10
:101D20000DF0FEDD5CEF0EF0FBDDA0EF0DF003DF4C
:041D3000100B120082
:0C1D3400966A868898880001966B976B71
:101D4000986B996B9A6B9B6B0B01006B010E005D9E
:101D500014E20051040DF3CF00F0F4CF01F0400E77
:101D60000026000E0122005185DB00C0EFFF00516C
:101D700081DBEE52EF80002BE9D71E6A00019569E6
:101D80000CDB8DDB00011F0E87DB0001B26F000151
:101D90001F0E7FDB84DB0001210E76DB80DB000180
:101DA000080EB26F00010E0EA7DB0A0EA5DB0B0EAC
:101DB000A6DB040EB26F00010C0EA1DB020EB26FA7
:101DC00000010D0E66DBB0DB64DB91DB010E97DBFF
:101DD000600EB26F0001020E5CDB89DB030E8FDB4D
:101DE000B2690001070E88DB0F0E89DB610E4CDB48
:101DF00016C1B2F00001010E4CDB17C1B2F00001B8
:101E0000020E47DB18C1B2F00001030E42DB19C11C
:101E1000B2F00001040E3DDB1AC1B2F00001050E64
:101E200038DB1BC1B2F00001060E33DB0B01006B87
:101E3000080E005D0AE20001B269080E0B010025E0
:101E4000000127DB0B01002BF3D751DB070E21DB51
:101E5000440E1B6E0001220E17DB31DB0D0E4FDB33
:101E6000E00E12DB0001C00EB26F0001010E44DB78
:101E7000040E42DB010E43DB200E44EF12F00001A2
:101E80000D0E45DB000196270150972300010E0E31
:101E90003EDB000198270150992300010F0E37DB2C
:101EA00000019A2701509B231200000195511E5CEE
:101EB00009E10001B36B8CDA040B03E100019569C1
:101EC00039D3000C37D305DB86A8FED78D8C6B0E7B
:101ED0008D6E836A8D9C86A8FED702DB86A8FED70E
:101EE0008D8C670E8D6E400E836E8D9C86A8FED7FE
:101EF0008D8C700E8D6E9DC083FF8D9C86A8FED745
:101F00008D8C1C2A000E1D2212000001A051A1116F
:101F100001E11200010EA015006E016AA05100241B
:101F20000B01416F0001A15101200B01426F956A25
:101F3000670E8D6E400E836E8D9C86A8FED78D8CAD
:101F40006A0E8D6E41CB83FF8D9C86A8FED78D8C4B
:101F50006B0E8D6E42CB83FF8D9C86A8FED7C0DAB8
:101F600086A8FED78D8C0001A0511C26A1511D22F0
:101F7000700E8D6E99DA86A8FED78D8CA0C03FFBBF
:101F8000A1C040FB0B01010E3F5F000E405B0B0147
:101F90003FCB00F040CB01F03F07000E405B00500C
:101FA000011006E0000180DA86A8FED78D8CEFD7FD
:101FB00012008FDA86A8FED78D8C6B0E8D6E836A29
:101FC0008D9C86A8FED78D8CFF0E1C5C1DE15F0EDC
:101FD0001D5C1AE10B0129692A6929CBB4F02ACBCF
:101FE000B5F004DA70DA86A8FED78D8C0001100EE9
:101FF00053DA0B01286F296B440E2A6F29CBB4F0FA
:10200000E8CFB5F0F3D910D05EDA86A8FED78D8C74
:102010009568700E8D6E8D9A86A8FED783CF28FBAB
:102020008D8A1C2A000E1D220B0128511200A4C00B
:10203000B0FBA5C0B1FB0001A451A51103E1F36AF7
:10204000F46A1200956A6A0E8D6EB0CB83FF8D9C88
:1020500086A8FED78D8C6B0E8D6EB1CB83FF8D9CC9
:1020600086A8FED78D8C2FDA86A8FED78D8C0B0123
:10207000B0511C26B1511D22600E1D5C02E31C0EE6
:102080001D5E9568700E8D6E0B01B0CB00F0B1CB6C
:1020900001F0B007000EB15B005001100FE08D9A07
:1020A00086A8FED70001A2C0E9FFA3C0EAFFA22BC9
:1020B000000EA32383CFEFFF8D8AE6D7A4C0F3FFE2
:1020C000A5C0F4FF12000001A651D4D9EE52EF9042
:1020D00012000001A751010806E3A751CBD9EE5227
:1020E000EF80A7C01EF012001BC02DFB0B01010EDC
:1020F0002C6FE8CFB4F01BC0B5F078D95ADF0B01D4
:102100002B6FE8CFB2F00001030E49EF12F0FAD9BD
:102110000B01006F0001200EB7D91B500B01005DB1
:1021200005E2600ED8801B54002502D01B50005DD4
:10213000016FE850006E016A1C0ED8800056000E38
:10214000015600C001FB00C003FB026B02CBF3FF92
:1021500000C0F4FF12000001E00EE1D90B01006F96
:102160000001200E91D90B010051040B01E0000C7D
:10217000010CAAC0E9FFABC0EAFFEF68C3D90B01AD
:10218000126F0001200ECBD90B01136FD8D9100BA1
:1021900037E00001B36B1CD9040B0B01166F000173
:1021A000210E72D90D01020EFF6FE2EC1FF087D9EC
:1021B0000A0EA2D90B0E6DD90B01165108E0BFD93A
:1021C0000A0B02E0000E01D0010E0B01166F000198
:1021D000020EB26F00010D0E92D9220E55D912CB0C
:1021E0001BF082DF0001B2690001070E85D90D0ED8
:1021F00050D90B01165103E00001260E45D9000C01
:102200000B011351125D67E013CB15FB146B14CB5C
:10221000B4F013CBB5F0EAD8120E0001A46FA56B91
:102220000001000EA26F0B0EA36F01DF0B01005126
:10223000010B4EE0400E025D000E035949E3EE0E25
:10224000D8800255050E035543E3600E015D40E260
:102250000151006E016AD890015004E6440E005C02
:10226000000E015835E310CBBCF011CBBDF060EC93
:1022700016F0F3CF10FBF4CF11FB060EE66EE66A04
:102280000A0EE66E0B0EE66EA8C0E9FFA9C0EAFFD3
:10229000A8C000F0A9C001F0A8C0E6FFA9C0E6FFF1
:1022A00071EC1FF0026E060EE15E0250080E0B018B
:1022B000115D0BE1105103E0060E105D06E1AAC0AE
:1022C000E9FFABC0EAFF10CBEFFF13CB1BF0010C13
:1022D00012CB1BF009DF000C00010A0EB26F0001E7
:1022E000070ED7D819D9EFCF44FB0B01436B43CB73
:1022F000B4F044CBB5F07AD8060E0001A06FA16B04
:10230000ACC09EF0ADC09FF000DE16C19DF0DBDDDD
:1023100017C19DF0D8DD18C19DF0D5DD19C19DF024
:10232000D2DD1AC19DF0CFDD1BC19DF0CCDD0001D7
:10233000AE5103E10B01456B03D00B01060E456F57
:102340000001080E9D6FBFDD45CB9DF0BCDD0E0E7C
:102350000001AF27000EB0233C0EAF5D000EB05958
:1023600003E23C0EAF6FB06BAFC043FBB0C044FBA9
:10237000AFC0B2F00001050E8CD844CBB2F0000122
:10238000060E49EF12F0D0D8BAD8240E7DD81EC060
:1023900095F0C2D8EE52EF8012009568600E8D6EF7
:1023A0008D8C8D8A8D8E966A0D01010EFE6FD5EC97
:1023B0001FF075D88D9E1200600E0001B1118D6E58
:1023C000B2C083FF956A8D9C86A8FED78D8C1200C3
:1023D0009568600E0001B3118D6E8D9A86A8FED7A8
:1023E00083CF1CFB8D8A0B011C511200B4C01CF062
:1023F000B5C01DF0B4C0B2F00001080E4AD8B5C097
:10240000B2F00001090E49EF12F00001090E44D8A4
:102410000B01016F0001080E3FD8F36E01CBF4FFF2
:1024200012001BC003FB0B01120E026F0001B6511C
:102430000B0102270001B7510B01032302CBB4F0BB
:1024400003CBB5F0F6EF11F0B8C01EF065D8EFCFB2
:102450002CFB0B010E0E2B6F0001B9510B012B272A
:102460000001BA510B012C232BCBB4F02CCBB5F0CF
:10247000F6EF11F0E96EEA6AD890E936EA36920E84
:10248000E926000EEA221200B26F0001B16BDCEF08
:1024900011F0B16FDCEF11F0B36FE8EF11F00D0147
:1024A000050EFF6FE2EF1FF09EC0E9FF9FC0EAFF3D
:1024B0009E2B000E9F23EF50836E8D9C1200000117
:1024C000B26B00011200600E8D6E0A0E836E8D9C41
:1024D0001200956A6A0E8D6E010E836E8D9C12003D
:1024E0008D8C600E8D6E120E836E8D9C120000011D
:1024F000440EB26F00011200CCDF5FEF12F0C9DFB3
:10250000000112000001600EBFDF9FEF12F0C4DF78
:10251000006E016AE85012001E503AEF12F0B4DF6C
:102520000001030E4CEF12F0F7DFEFCFB2F0000125
:10253000040E1200F1DFEE52EF50010B1200000109
:06254000070E4CEF12F043
:0A2546000B01006B020E005D06E2BF
:1025500000CB97FD51D80B01002BF7D712000B01D0
:10256000680E016F0D0E026F006B020E005D43E2FC
:1025700041DB0C0E31DB39DB026A036A00500110CB
:102580000210031032E136DB0C0E91CDEBFF0D0E85
:1025900092CDEBFF0D019351941111E00A0EE66EFE
:1025A000E66A93CDE6FF94CDE6FF24DB01CB00F095
:1025B00002CB01F001CBE6FF02CBE6FF2FDB1ADBFB
:1025C0000A0E95CDEBFF0B0E96CDEBFF13DB0E0E37
:1025D000EB6A0F0EEB6A0EDB100EEB6A110EEB6A64
:1025E00000CB90FD0B0100511200140E0127000ECC
:1025F0000223002BBAD7FF0C0D019751E3DA0C0E22
:10260000EBDAEE6AED6A9751DDDA060EE5DAEE6A8C
:10261000EE6AEE6AEE6A975122DBEF901200020E2C
:102620000D01985D07E298CD90FD0001010E9C6FB1
:1026300055EF0FF0000C0D019051140DF3CF0AFB74
:10264000F4CF0BFB680E0B010A270D0E0B230FDBDB
:10265000EE50ED100FE1D3DA120E1EC0EBFFCFDA11
:10266000EB50FF0801E1000C1C0E0001B96FBA6BC2
:10267000C6DADBDA99CD9DF063EC0FF0F8DAEE2ADA
:10268000EF22F5DAF8DA01E353D8010C0D0190518D
:10269000140DF3CF0AFBF4CF0BFB680E0B010A27D6
:1026A0000D0E0B23E0DAEE50ED1011E199DA120E67
:1026B0001EC0EBFF95DAEB50FF0803E1F36AF46A02
:1026C00012001C0E0001B96FBA6B8ADAAEDACBDAEF
:1026D0000D019C51EE24006E9D51EE20016ED60E30
:1026E000D8800054030E01540AE2BDDAEECF9CFDFF
:1026F000EFCF9DFDD60ED8809C57030E9D579CCDE5
:10270000A0F09DCDA1F09ACD9EF09BCD9FF085ECE1
:102710000FF0A9DA0D019C51EE269D51ED22A3DAAE
:10272000AADA01E305D89CCDF3FF9DCDF4FF12009A
:102730000001010E9C6F55EC0FF0000902E104004E
:10274000F7D70D019051140DF3CF08FBF4CF09FB1F
:10275000680E0B0108270D0E0B01092308CBE9FFBA
:1027600009CBEAFF0C0EE926000EEA22EECFBCF000
:10277000EDCFBDF060EC16F0F3CF00FBF4CF01FB22
:1027800008CBE9FF09CBEAFF0A0EE926000EEA2290
:10279000EECFBCF0EDCFBDF060EC16F0F3CF02FB56
:1027A000F4CF03FB08CBE9FF09CBEAFF0E0EE926C5
:1027B000000EEA22EECF04FBEFCF05FB080E0B0163
:1027C0000427000E0B0105230B01066B076B140E8B
:1027D0000001B96FBA6B08CBE9FF09CBEAFF120E13
:1027E000EB500001B86F24EC12F004CB0CF105CBD8
:1027F0000DF10101110E0B6F08CBE9FF09CBEAFFC8
:10280000E9CF09F1EACF0AF1C5EC18F004CBBCF02E
:1028100005CBBDF060EC16F0F3CF04FBF4CF05FB65
:10282000080E0001A06FA16B0001000E9E6F0B0E41
:102830009F6F85EC0FF0C3EC11F008CBE9FF09CBDB
:10284000EAFF120EE926000EEA22EF6808CBE9FF44
:1028500009CBEAFF0E0EEB6A0F0EEB6A1200020EB6
:102860000D019E5D0AE29ECD90FDF4D9D880EE5414
:10287000000EED5401E3000C010C000C06DA01E13E
:10288000000C9051ECD9EF50010B01E002DAD9ECC9
:102890000FF09FCDE9FFA0CDEAFFEF6E00DAEE0664
:1028A000EF5AD8D9EE50ED1002E174EC10F0010CA3
:1028B000ECD903E1F36AF46A12009051D0D9EF50D9
:1028C000010B01E0E6D9EBD990D9A351005CA451EA
:1028D000015805E2BFD9EECFA3FDEDCFA4FDA3CDF6
:1028E000A4F0A4CDA5F0A1CDA2F0A2CDA3F017EC49
:1028F00010F0F3CF00FBF4CF01FBD1D90B01005155
:10290000EE5E0151ED5AC1D902E174EC10F0A3CD95
:10291000F3FFA4CDF4FF1200B8D902E074EC10F07C
:10292000BED9EE6AED6A1200080E0001A46FA56B15
:102930000001460EA26F0B0EA36F17EC10F046CBF2
:102940005DFB47CB46FB5DCB47FB48CB5DFB49CBF3
:1029500048FB5DCB49FB080E006E0B014B51D88044
:10296000005403E24A055D6F02D04ACB5DFB080EBE
:102970004B5D4A6F5DCB4BFB4C514D116AE04CCB2C
:102980005DFB4DCB4CFB5DCB4DFBA5CDE9FFA6CD53
:10299000EAFF060E21D9EECF4FFBEECF50FBEECF74
:1029A00051FBEFCF52FB47D9EFCF53FB010E14D9A8
:1029B000EFCF54FB40D9020E0FD9EFCF55FB3BD9D7
:1029C000030E0AD9EFCF56FB576B110E586FA9CDE6
:1029D00059FBAACD5AFBA9CDBCF0AACDBDF060EC45
:1029E00016F0F3CF59FBF4CF5AFB0C0E0001C46F65
:1029F000C56B00014F0EC26F0B0EC36F94EC16F047
:102A0000F3CF5BFBF4CF5CFB0B015B1F5C1F060E7F
:102A100000D95BCB9DF063EC0FF0070EFAD85CCBCE
:102A20009DF063EC0FF001010E6B0F6B34EC19F0AD
:102A3000A9CDC6F0AACDC7F0F0EC16F0F3CF5BFB42
:102A4000F4CF5CFB0B014C51F31816E14D515C19AE
:102A500013E1A7CDAFFDA8CDB0FDA5CDADFDA6CDB1
:102A6000AEFD0D01460EAB6F0B0EAC6F1CD80B010B
:102A70004E6FFF0E4E5D03E174EC10F0010C4E51F1
:102A8000A1D8100EA9D84ACBEEFF4BCBEDFF4E518B
:102A9000E6D8EF80010C0D01905194D8E9CFF3FFF7
:102AA000EACFF4FF12000B010169680E026F0D0EF0
:102AB000036F006B020E005D5BE2A6D80C0EE1D83E
:102AC000020E8AD8C2D80001025000184AE1035011
:102AD000011847E199D80A0ED4D8B7D80250001887
:102AE0003EE1035001183BE18FD8100E75D8EECFB0
:102AF00004F0EFCF05F0066A076A045005100610CF
:102B000007102DE1ADCDE9FFAECDEAFF060E64D88A
:102B1000EECF00F0EECF01F098D876D8060E5CD854
:102B2000EE50001808E1EE50011805E1EE500218D1
:102B300002E1EE50031810E0AFCDE9FFB0CDEAFF9F
:102B4000E868EE180CE1E868EE1809E1E868EE18AC
:102B500006E1E868EE1803E10B010051120000CB1A
:102B600001FB0B01140E0227000E0323002BA2D73A
:102B7000FF0E015D24E00151140DF3CF02FBF4CFF1
:102B800003FB680E02270D0E03230A0EE66EE66AAB
:102B9000ADCDE6FFAECDE6FF37D802CB00F003CBDC
:102BA00001F002CBE6FF03CBE6FF38D849D81DD8A9
:102BB0002BD80A0E00C0EBFF0B0E01C0EBFF0B0180
:102BC00001511200140DF3CFE9FFF4CFEAFF680EB4
:102BD000E9260D0EEA221200E926000EEA22120072
:102BE0000ACBE9FF0BCBEAFF1200EECF00F0EFCFEC
:102BF00001F0120001CBE9FF02CBEAFF12000ACB81
:102C0000E9FF0BCBEAFF120002CBE9FF03CBEAFF9F
:102C1000120001010E6F0F6B34EF19F071EC1FF011
:102C2000026E060EE15E02501200120EEB50000121
:102C3000B86F24EF12F0A7CDE9FFA8CDEAFF12008C
:102C4000ABCDE9FFACCDEAFF1200EECF02F0EFCF43
:102C500003F012009051B6DF100EECEF15F0B2DF6A
:102C6000130EECEF15F0BCDF0E0EECEF15F0C7DF26
:102C70000E0EECEF15F0B9DFD60E005C030E015816
:102C80001200AADFB2DF20EF16F009D8EE50ED10E7
:102C900012009051E4DFEF90080E09EF16F00D01DD
:042CA0002AEF16F011
:0C2CA4000001BB390F0BBB6FE8500908A2
:102CB00004E2410EBB25F60F1200300EBB251200B8
:102CC000BDC0F3FFBCC0F4FF1200BEC001FBBFC01B
:102CD00002FBC0C003FBC1C004FB0B01010E056F6A
:102CE0000B0E066F05CBE9FFEA6E030E9CD9EF5081
:102CF000E66E030E92D900CBEFFF86D9020E93D970
:102D0000010E87D9EF50E66E7FD9020E86D9010EEB
:102D100080D900CBEFFF01CB14F002CB15F003CB31
:102D200016F004CB17F012000B01B46BB56BB66B49
:102D3000B76BC2C0B2FBC3C0B3FBC4C0B0FBC5C05D
:102D4000B1FBD890B133B033B0CB00F0B1CB01F0D0
:102D5000B007000EB15B0050011018E0B2CBE9FFE4
:102D6000B3CBEAFF020EB227000EB323EECF00F082
:102D7000EFCF01F0000100500B01B427000101501A
:102D80000B01B523000EB623B723DED70001C451D3
:102D9000010B0EE0B2CBE9FFB3CBEAFFEFCF00F0BF
:102DA000000100500B01B427000EB523B623B72352
:102DB0000B01B651B71109E0B451B625B46FB55146
:102DC000B721B56FB66BB76BF3D7B4CB00F0B5CB0B
:102DD00001F0001E011E00C0F3FF01C0F4FF12004D
:102DE0000B01010E006F016B026B0001C651C71190
:102DF0004EE0400EC65D000EC75904E3400E006E63
:102E0000016A04D0C6C000F0C7C001F000C005FBD5
:102E10000B0100500001A46FA56B0001060EA26F0C
:102E20000B0EA36F17EC10F00B010551006E016A39
:102E300000500001C65F0150C75B0B01046B0551D8
:102E4000045DD3E20451EA6A060FE96E0B0EEA2232
:102E5000EFCF03FB00510AE103510125016F03513C
:102E6000015D0DE2022B0BE1012B09D0035102257C
:102E7000026F0351025D03E2012B01E1022B0051BD
:102E800002E0000E01D0010E006F042BD8D70B0119
:102E9000021D026F011DF36E02CBF4FF1200000150
:102EA000C851390805E3300EC85D02E3300E0FD07B
:102EB000C851460805E3410EC85D02E3370E07D04E
:102EC000C851660806E3610EC85D03E3570EC85D8E
:102ED0001200FF0C010E0001EA6AC925E96ECA5111
:102EE000EA22EFCFC8F0DBDF0B01006FC9C0E9FFBA
:102EF000CAC0EAFFEFCFC8F0D2DF0B01016FFF0EAF
:102F0000005D03E0FF0E015D01E1000C0139F00BF3
:102F10000011CBC0E9FFCCC0EAFFEF6E010C0B0142
:102F2000006BA6B2FED72F0EA616A6840001CFC056
:102F3000E9FFD0C0EAFFCF2B000ED023EF50A86EE0
:102F40000B01002B0001D1510B01D880005501E28B
:102F5000A86ACEC000F0016A0050AA6E0001CDC080
:102F600000F0CEC001F0CD2B000ECE230050A96E94
:102F7000550EA76EAA0EA76EA6820000A6A202D0CA
:102F80000400FCD7A850D2E1A6940B01005100D058
:102F90001200D5C000F00050AA6ED4C0A9FF3F0EA9
:102FA000A6160001D2C0E9FFD3C0EAFFD22B000E63
:102FB000D323EFCF00FBA680A8500B01005D01E0FA
:102FC000010C005101E1000CA92AEBE1AA2AE9D782
:102FD000D6C002FBD7C003FB0B01006B016B0001E5
:102FE000D8510B01005D0001D9510B0101590BE2D1
:102FF00002CBE9FF03CBEAFF022B000E0323EF6AAB
:10300000002B0123ECD7120005CBE9FF06CBEAFF2A
:103010001200E926000EEA221200FBDFE552E7501B
:10302000EF6E04EF18F0F5DFEFCF00FB04EF18F0C0
:10303000140E0001A46FA56B0001020EA26F0B0E0F
:10304000A36F17EC10F0F00E0B010215400801E021
:10305000000C0F0E0215040DF3CF00F1F350006EBB
:10306000016A140E005E000E015A00C01CFB0050E5
:10307000280801E2000C1C5100080BE21C51000161
:10308000A46FA56B00011D0EA26F0B0EA36F17ECB2
:1030900010F00CCB16FB0DCB17FB0B010C6B0D6B63
:1030A000140E1BD9020EC26F0B0EC36F94EC16F0F8
:1030B000F3CF18FBF4CF19FB0B01181F191F1C517C
:1030C000000810E21C5109D91D0EC26F0B0EC36F10
:1030D00094EC16F0F3CF1AFBF4CF1BFB0B011A1F75
:1030E0001B1F02D01A6B1B6B040EF7D8180EC26F91
:1030F0000B0EC36F94EC16F0F3CF00FBF4CF01FB83
:103100000B01F350161902E10151171901E0000CEF
:103110000101020E106F0B0E116FB2D801010151A7
:1031200002110CE001C1E9FF02C1EAFF12CBEEFF80
:1031300013CBEEFF14CBEEFF15CBEEFF03C1E9FF7F
:1031400004C1EAFF060EE3D80ECBEEFF0FCBEEFF75
:1031500010CBEEFF11CBEEFF05C1E9FF06C1EAFF80
:103160000BCBEFFF0051026E036A0B010250045DAE
:10317000006E03500559016E07C1E9FF08C1EAFF5F
:1031800000C0EEFF01C0EDFF010C0101140E006F45
:103190000B01450E2B6F2C6B140E01010C250B013E
:1031A0002D6F000E01010D210B012E6F01014B2B24
:1031B000000E4C234BC12FFB4CC130FB0B01316B7C
:1031C000400E326F640E336F0BC134FB356B366BC0
:1031D00012C137FB13C138FB14C139FB15C13AFBCF
:1031E00009C1E9FF0AC1EAFF060E91D8EECF3BFB09
:1031F000EECF3CFBEECF3DFBEFCF3EFB01012B0EB4
:10320000106F0B0E116F3CD8140E67D82B0EC26FC7
:103210000B0EC36F94EC16F0F3CF35FBF4CF36FBF7
:10322000140E01010C250001AF6F000E01010D21EC
:103230000001B06F0001AE6B09C1E9FF0AC1EAFFEE
:1032400009C1ACF00AC1ADF06CEC11F0140E000134
:10325000A06FA16B00012B0E9E6F0B0E9F6F85EC74
:103260000FF0F36AF46A1200010100510E2500010B
:10327000B66F000E01010F210001B76F11EF12F0C0
:1032800027D8020E35D8020E38D8020E2BD8020EDF
:1032900039D8040E2DD8040E30D8040E23D8040ECD
:1032A00031D8060E25D8060E28D8060E1BD8060ED5
:1032B00029D80A0E1DD80A0E20D80A0E13D80A0ED5
:1032C00003D845CBEFFF120022D8010E87EF19F08B
:1032D00010C1E9FF11C1EAFF12000001C46FC56B04
:1032E0000001120014D8E552E750EF6E68EF19F0B4
:1032F0000ED8EFCF45FB68EF19F0E6DFEF50E66E32
:1033000068EF19F0E1DF45CBEFFF68EF19F0E92630
:06331000000EEA2212008B
:0A3316001C0E0001A46FA56B00015E
:10332000000EA26F0B0EA36F17EC10F074EC10F0F0
:103330000101000E3C6F0B0E3D6F04D90B01010E15
:10334000001912E1015110E10451006E016A060EEC
:1033500000180AE1015008E10551026E036A040EEB
:10336000021801E1035001E0000C020E061905E10C
:10337000075103E115D9EF6A0DD0010E061906E1D8
:10338000075104E1010E0CD9EF6E04D0020E08D9EA
:10339000EF6E000C010112510B01185D2EE10101CD
:1033A00013510B01195D29E1010114510B011A5D43
:1033B00024E1010115510B011B5D1FE135C1E9FF3E
:1033C00036C1EAFF08CBEEFF09CBEEFF0ACBEEFFDA
:1033D0000BCBEEFF0CCBEEFF0DCBEEFF35C1E9FFC3
:1033E00036C1EAFF060EE6D80ECBEEFF0FCBEEFF9E
:1033F00010CBEEFF11CBEEFF010C000C1EC01CFB2E
:10340000FF0E0B011C5D01E1000C0001B96BBA6BF2
:103410001CCBB8F024EC12F0010E0B01006F016B15
:10342000026B080E036F060E046F040E056F010198
:103430003B050BE1010E0B01066F076B1269136967
:10344000146915691669176914D0020E0B01066F0D
:10345000076B39C1E9FF3AC1EAFFEECF12FBEECFAD
:1034600013FBEECF14FBEECF15FBEECF16FBEFCF29
:1034700017FB16C108FB17C109FB18C10AFB19C1CC
:103480000BFB1AC10CFB1BC10DFB12C10EFB13C1C0
:103490000FFB14C110FB15C111FB7BD8EF500E19A7
:1034A00001011C151BE175D8010E84D8EF500B01EA
:1034B0000F1901011D1512E16CD8020E7BD8EF50D7
:1034C0000B01101901011E1509E163D8030E72D812
:1034D000EF500B01111901011F1509E020C118FB64
:1034E00021C119FB22C11AFB23C11BFB09D051D8F2
:1034F000EECF18FBEECF19FBEECF1AFBEFCF1BFB85
:103500000101000E3C6F0B0E3D6F1CD81C0E00011C
:10351000AF6FB06B0001060EAE6F0001120EAC6F04
:103520000B0EAD6F6CEC11F01C0E0001A06FA16BC7
:103530000001000E9E6F0B0E9F6F85EC0FF0C3EC29
:1035400011F0010C32D819D8F3CFEEFF01C0EDFF16
:103550002CD8020E2FD811D8020EF3CFEBFF030E9A
:1035600001C0EBFF22D8060E25D807D8060EF3CFF0
:10357000EBFF070E01C0EBFF1200EECFBCF0EDCF6A
:10358000BDF060EC16F0F3CF00F0F4CF01F0D5EF12
:103590001AF039C1E9FF3AC1EAFF060EDAEF1AF074
:1035A00037C1E9FF38C1EAFF12003CC1E9FF3DC164
:0C35B000EAFF1200E926000EEA221200D9
:0435BC00080E0001F4
:1035C000A46FA56B0001000EA26F0B0EA36F17EC8A
:1035D00010F0080E006E00D9E850EF5EFDD8EF50F5
:1035E0000001A46FA56BDCC0A2F0DDC0A3F017EC56
:1035F00010F002CB2AFB03CB2BFB0B01026B036BFE
:10360000080E0001C46FC56B0001000EC26F0B0EE7
:10361000C36F94EC16F0F3CF2CFBF4CF2DFB0B0112
:103620002C1F2D1FD9D8EF500001C46FC56BDCC013
:10363000C2F0DDC0C3F094EC16F0F3CF2EFBF4CF54
:103640002FFB0B012E1F2F1F040E0001C46FC56B33
:1036500000012C0EC26F0B0EC36F94EC16F0F3CF6B
:1036600028FBF4CF29FB0001000EEE6F0B0EEF6F6D
:1036700088D8DAC0E9FFDBC0EAFF00CBEFFFE0C08B
:10368000E9FFE1C0EAFF04CBEEFF05CBEDFFE2C0AE
:10369000E9FFE3C0EAFF06CBEEFF07CBEDFF0B012E
:1036A0002A51281902E12B51291901E0000C010CC3
:1036B0001EC02AFBFF0E0B012A5D01E11200140E51
:1036C0000001B96FBA6B2ACBB8F024EC12F0080EE7
:1036D0000001E9250B01286F296B000E2923016BDE
:1036E000E6C000FB026B036BEAC004FBEBC005FB0A
:1036F000ECC006FBEDC007FB0001E951E66EE66A8F
:10370000E7C0E6FFE8C0E6FF080EE66E0B0EE66EC9
:1037100071EC1FF0006E060EE15E00500001000E1D
:10372000EE6F0B0EEF6F2DD828CBC4F029CBC5F070
:103730000001000EC26F0B0EC36F94EC16F0F3CFB6
:1037400002FBF4CF03FB080E0001E92501010C6F19
:103750000D6B000E0D230101010E0B6FE4C009F18A
:10376000E5C00AF1C5EC18F028CBA0F029CBA1F0F8
:103770000001000E9E6F0B0E9F6F85EC0FF0C3EFE4
:1037800011F02FD8040E15D8040EF3CFEBFF050E61
:103790001FD8060E0ED8060EF3CFEBFF070E18D873
:1037A000020E07D8020EF3CFEBFF030E01C0EBFFB2
:1037B0001200E926000EEA22EECFBCF0EDCFBDF0FC
:1037C00060EC16F0F3CF00F0F4CF01F0F1EF1BF056
:1037D00001C0EBFFF1EF1BF0DEC0E9FFDFC0EAFF45
:0C37E0001200EEC0E9FFEFC0EAFF12008B
:0437EC000001616B0C
:1037F0009AEC0EF00AEC1EF0A3EC12F028EF04F0A5
:103800000B01BD6B00016151040A01E1D7D0070A29
:1038100001E1A1D0050A01E189D0010A72E0050A9F
:1038200032E0070A29E0050A03E0010A01E0E8D0D6
:103830000001BC0EAA6F0B0EAB6F0001620EA86FE9
:10384000000EA96FB9EC10F0000901E1D9D00B010D
:10385000010EBD6F0B01BC5104E10001020E616F4E
:103860000AD0060E0B01BC5D04E10001050E616F7C
:1038700002D074EC10F0C4D017EC1EF0000902E086
:103880000001616BBDD001016C0E076F000E086F67
:103890000101BC0E056F0B0E066F0101620E036F76
:1038A000000E046F0101B80E016F0B0E026F18ECD1
:1038B00018F0000921E00B01010EBD6F0B01BC05E2
:1038C00004E10001030E616F16D0060E0B01BC5D12
:1038D00004E10001060E616F0ED0110E0B01BC5DFC
:1038E00004E10001070E616F06D00B01BD6B74ECA3
:1038F00010F00001616B04D074EC10F00001616BFA
:103900007FD06CC0A9FD6DC0AAFD0D01B80EA76FD8
:103910000B0EA86F0D01620EA56F000EA66F94EC42
:1039200014F0000902E00001616B6AD06CC0D0FDA8
:103930006DC0D1FD0D01B80ECE6F0B0ECF6F0D0116
:10394000620ECC6F000ECD6F56EC08F0000902E05D
:103950000001616B55D00001616B0001290ED88018
:103960006C55000E6D5527E30001900EE26F000EBE
:10397000E36F00018E0EE06F000EE16F00016C0E30
:10398000DE6F000EDF6F00016E0EDC6F000EDD6F6C
:103990000001BC0EDA6F0B0EDB6FDEEC1AF00009D3
:1039A0000AE0080E0B01BC5D06E10B01010EBD6FC4
:1039B0000001040E616F74EC10F022D00001010EC2
:1039C0009C6F55EC0FF000091AE090C0ECF091C02C
:1039D000EDF08EC0EAF08FC0EBF06CC0E9F00001B2
:1039E0006E0EE76F000EE86F0001E66B0001620EDD
:1039F000E46F000EE56F58EC1BF00001616B00D026
:103A000004000B01BD5101E0FBD666EC07F03FEC72
:043A10000FF01200A1
:0C3A1400F0C047F10101466B0101080EF3
:103A2000456FBAEF1FF0F2C000FBF3C001FBC750B7
:103A3000040B01E0010EE5D8FAE1C580C5B0FED760
:103A4000A1B6010CF1C048F1E1D801E0010CC7506A
:103A5000040B01E0010ED5D8FAE1C5BC19D001CBA9
:103A600048F1D4D801E0010CC750040B01E0010E6D
:103A7000C8D8FAE100CB48F1C9D801E0010CC75021
:103A8000040B01E0010EBDD8FAE1C5AC000C020C3C
:103A9000020CF5C0F2F0F6C0F3F0F4C0F1F0C3DFB1
:103AA0000B01036FE85005E178D80B01036FE85074
:103AB00002E003511200C750040B01E0010EA1D82F
:103AC000FAE1C580C5B0FED7A1B6010C0001F4290A
:103AD0000101486F9BD801E0010CC750040B01E0C5
:103AE000010E8FD8FAE1C5AC000C020CC750040BD4
:103AF00001E0010E86D8FAE1F7C048F187D801E06D
:103B0000010CC750040B01E0010E7BD8FAE1C5ACF3
:103B1000000C020CC750040B01E0010E72D8FAE150
:103B2000C584C5B4FED7000CC9EC1FF0C5B6FED7DE
:103B3000C59AC588C5B8FED7C9501200C9EC1FF098
:103B4000C5B6FED7C58AC588C5B8FED7C584C5B475
:103B5000FED7000CF9C0F5F0FAC0F6F0F8C0F4F0AA
:103B600098DF0B01026FE85016E10001FD51FD07DF
:103B700000090EE0D9DFE66E0001FBC0E9FFFCC0E2
:103B8000EAFFFB2B000EFC23E552E750EF6EEDD76A
:103B9000D5DF0B01026F02511200C750040B01E088
:103BA000010E2FD8FAE1C584C5B4FED7A1B6010C29
:103BB000000CC750040B01E0010E23D8FAE1C580C8
:103BC000C5B0FED7A1B6010CFEC048F11FD801E078
:103BD000010CC750040B01E0010E13D8FAE1A1B6A5
:103BE000010CC5BC03D00B01006B03D00B01040E0C
:103BF000006FC584C5B4FED7A1B6010C0B010051FE
:103C00001200006E1F0EC51400101200CEEC1FF043
:043C10000009120095
:0C3C14000101246B2569266927692869D5
:103C200029692A692B6B2C6B2D6B2E6B12000101FD
:103C3000245129E10101270E376F0B0E386F010166
:103C40001D0E356F0B0E366F8BEC19F000092AE054
:103C50000B01275115E11DCB25F11ECB26F11FCB02
:103C600027F120CB28F121CB29F122CB2AF123CB3C
:103C70002BF124CB2CF125CB2DF126CB2EF1010CF1
:103C80000101010E246F01013B6B01011D0E396F13
:103C90000B0E3A6FFEEC19F0000903E00101246BF2
:103CA000010C000C010C2FC1E9FF30C1EAFFEECF7F
:103CB00023FBEECF24FBEECF25FBEFCF26FB01014C
:103CC000010E3B6F01011D0E396F0B0E3A6FFEEFB7
:103CD00019F031C1E9FF32C1EAFF01012B51EE18A1
:103CE00008E12C51EE1805E12D51EE1802E12E519C
:103CF000EE1814E00101205101012B5D20E10101CA
:103D0000215101012C5D1BE10101225101012D5DB9
:103D100016E10101235101012E5D11E133C1E9FFDB
:103D200034C1EAFF25C1EEFF26C1EEFF27C1EEFF39
:103D300028C1EEFF29C1EEFF2AC1EEFF010C000CE5
:103D4000DACFE4FFE9CFE4FFEACFE4FF00EE00F0D2
:103D5000100EE80403E3EECFE4FFFBD7E652F2A433
:103D600014D09E0ED76E580ED66E01013E2B000E5B
:103D70003F23402341230101440706E1640E446FC1
:103D80000101422B000E4323F294E55200EE0FF0A6
:103D9000100EE80403E3E5CFEDFFFBD7E5CFEAFF24
:103DA000E5CFE9FFE5CFDAFF11009CEC1FF035D835
:103DB000EFEC1FF0F6EC1BF00D016B0EB16FD30EA4
:103DC000B26F59EC04F00001FF6FFE0EFF5DFFC003
:103DD000B7FD13EC05F000091DE0FFC0CBFD58EC6A
:103DE00007F0000917E00D01A50EC96F0B0ECA6F91
:103DF000FFC0C8FD1AEC07F0300E0B01A55D02E113
:103E00008A9C04D0310EA55D01E18A8CFFC0C2FD01
:103E1000ACEC06F000EC1CF0DAD7F18E240EAC6EA0
:103E2000900EAB6E080E7E6EAC0EAF6E7F6A92681F
:103E30009368946897689868939C8A9CD56AF28E78
:043E4000F28C1200EE
:0C3E44002A0EF66E080EF76E000EF86EE7
:103E50000D010900F550F96F0900F550FA6F03E103
:103E6000F96701D03DD00900F550F46F0900F55015
:103E7000F56F0900F550F66F09000900F550E96E7D
:103E80000900F550EA6E090009000900F550F76FC6
:103E90000900F550F86F09000900F6CFFBFDF7CFD8
:103EA000FCFDF8CFFDFDF4CDF6FFF5CDF7FFF6CD27
:103EB000F8FF0D01F75302E1F85307E00900F55050
:103EC000EE6EF707F8E2F807F9D7FBCDF6FFFCCD69
:103ED000F7FFFDCDF8FF0D01F907000EFA5BBFD724
:023EE0001200CE
:0E3EE200D9CFE6FFDACFE6FFFA0EE3CFD9FF25
:103EF000FB0EE3CFDAFFFC0EE3CFE9FFFD0EE3CFCD
:103F0000EAFFE9CFF3FFEACFF4FFF80EE35003E155
:103F1000F90EE35008E0F80EE30602E2F90EE306BC
:103F2000DECFEEFFF2D7FF0EE3CFDAFFE552FF0E52
:083F3000E3CFD9FFE5521200B6
:083F3800AA6AA96A3F0EA61651
:103F40000B01120E006F010E016FA950006E016A85
:103F5000120E005C000E01580CE2A68000CBE9FFB7
:103F600001CBEAFF002B000E0123A8CFEFFFA92A07
:043F7000ECD7120078
:0C3F74003F0EC716C66AC56A0101455120
:103F8000C6124651C71294869488C68A47C1C8FF94
:103F90001200C586C7A0FED7C950120048C1C9FF8C
:0A3FA000C6BEFF0CC7B0FED7000C30
:063FAA000D01FE51FE07AF
:103FB000000907E00B010D0E016F0151F6E001074A
:103FC000FCD712000D01FF51FF07000907E0080EA2
:0E3FD000E66E00EC20F0E5520400F4D712007B
:023FDE000101DF
:103FE0003E6B3F6B406B416B426B436B580ED66E22
:103FF0009E0ED76E010ED56ED58EF284F28A120017
:10400000FF0EE3501F6E480E01D04C0EE76EE72EF8
:10401000FED7E76AE72EFED71F2EF7D70000120063
:104020001EEE00F02EEE00F0F86A1A9C22EC1FF053
:08403000D5EC1EF0FDD71200D3
:0640380056322E34360062
:02403E0000047C
:01404000FE81
:0240410000007D
:020000040030CA
:0100010026D8
:0100020004F9
:010003000AF2
:010005008377
:010006008178
:010008000FE8
:010009008076
:01000A000FE6
:01000B008074
:01000C000FE4
:01000D0000F2
:0200000400F00A
:100000000A0100010004A3000000FF0000000A0133
:0400100000010401E6
:00000001FF
