:020000040000FA
:0600080036EF26F01200A5
:06080000C5EF2BF0120011
:06082A000400BB570000B2
:100830006000000051000000B9570000780200007D
:1008400002000000B8570000FF0000000100000097
:0C085000B6570000FD0B00000200000085
:04085C000901006B23
:100860000A0E005D2BE20051240DF3CF01F9F4CF05
:1008700002F9000E01270A0E0223B6EC0FF00A0E51
:10088000EF6E49EC11F0EF9049EC11F0EF8249EC7A
:1008900011F0EF8449EC11F0EF9849EC11F0EF966C
:1008A000B6EC0FF0E3EC10F0B6EC0FF004EC11F046
:1008B000B6EC0FF02AEC11F0002BD2D71200090190
:1008C000006B0A0E005D52E20051240DF3CF01F9D6
:1008D000F4CF02F9000E01270A0E02239DEC0FF05F
:1008E000EF500A0841E19DEC0FF0EF6A9DEC0FF02C
:1008F0000B0EB3C0EBFF0C0EB4C0EBFF9DEC0FF082
:100900000D0EEB6A0E0EEB6A9DEC0FF025EC11F06C
:100910006DEC11F0EF806DEC11F0EF969DEC0FF0A7
:10092000E0EC0FF008E09DEC0FF0B0EC0FF09DEC68
:100930000FF0E3EC10F06DEC11F0EF820B01090EFB
:10094000F06F800E09010025E7EC10F0B4C000F054
:10095000016AB4C0EEFBB0EC28F0B3C0EEFBB0EC23
:1009600028F0090100511200002BABD7FE0C090141
:100970006F6B6C6B0A0E6C5D14E26C51240DF3CF3F
:100980006DF9F4CF6EF9000E6D270A0E6E2353EC4D
:100990000FF0EF500A0803E1010E6F6F02D06C2BCD
:1009A000E9D76F5105E10B01070E2AEC10F0FE0CA0
:1009B0000B01FD2B000EFE2353EC0FF00B0EFDCBB5
:1009C000EBFF0C0EFECBEBFF880ED880FD55130E0F
:1009D000FE5503E2FD6B040EFE6F53EC0FF069EC65
:1009E00010F0EF9053EC0FF00D0EB7C0EBFF0E0EB2
:1009F000B8C0EBFF0AEC11F01A0E25EC0FF05AEC20
:100A000010F00A0EE66EE66AB5C0E6FFB6C0E6FF75
:100A100053EC0FF05DEC0FF0F3EC0FF00001020E61
:100A2000E76F53EC0FF0D3EC10F053EC0FF082ECC7
:100A300011F053EC0FF0D7EC10F053EC0FF0DBECAF
:100A400010F053EC0FF096EC0FF00B01080E2AECAF
:100A500010F053EC0FF0010EEF6E0AEC11F0F9EC10
:100A60000FF009016C5112000001B95149EC0FF06F
:100A7000EF50030801E0000C010C0001BA51240DF5
:100A8000F3CF6CF9F4CF6DF9000E09016C270A0E53
:100A90006D23ABEC0FF0EF50030818E0ABEC0FF058
:100AA000EF50020813E0ABEC0FF03EEC11F0010B3D
:100AB00003E00B01190E02D00B011A0E30EC10F0FE
:100AC0006CC9F1F06DC9F2F034EF0CF0BAC0C4F0AB
:100AD00072D9F3EC0FF00001110EE76FABEC0FF0E1
:100AE000D3EC10F0ABEC0FF082EC11F0ABEC0FF0AC
:100AF000D7EC10F0ABEC0FF0DBEC10F0ABEC0FF040
:100B000096EC0FF0ABEC0FF04CEC11F05FEC10F04A
:100B10000B01040E30EC10F0ABEC0FF0040EEF6E96
:100B200012000001BB51240DF3CF6EF9F4CF6FF921
:100B3000000E09016E270A0E6F2375EC0FF0E0EC32
:100B40000FF003E10B012D0E08D075EC0FF03EEC19
:100B500011F0020B09E10B012E0EF06F800E000167
:100B6000BB25E7EC10F0000C75EC0FF01AEC11F05F
:100B700075EC0FF00F0EEB500001E86F0001180E3E
:100B8000E76FD3EC10F075EC0FF082EC11F075EC20
:100B90000FF0D7EC10F075EC0FF0DBEC10F075EC0B
:100BA0000FF096EC0FF075EC0FF0100EA9EC10F0B2
:100BB000026A036A75EC0FF04CEC11F036EC10F0A1
:100BC00075EC0FF069EC10F0EF9275EC0FF069EC3A
:100BD00010F0EF98010C0A0E0001BC5D01E3000C5F
:100BE000BC5149EC0FF0140EDFEC10F001E1000CE9
:100BF000BC5149EC0FF00F0E25EC0FF0EF50FF0841
:100C000004E10101B86B98EF12F0BC5149EC0FF010
:100C10003EEC11F0020B01E0010E12000001BD518B
:100C2000240DF3CF6CF9F4CF6DF9000E09016C2798
:100C30000A0E6D23BBEC0FF0140EDFEC10F001E197
:100C4000000CBBEC0FF0E0EC0FF018E10101B96B08
:100C50009DEC12F0E66EBBEC0FF00F0E70EC11F095
:100C6000BBEC0FF0E0EC0FF001E1000CBBEC0FF07F
:100C70003FEC10F0BBEC0FF000EC10F0BBEC0FF011
:100C800069EC10F0EF88BEC0BAF1A2EC12F0BBEC38
:100C90000FF0140E25EC0FF0EE06EF5ABBEC0FF040
:100CA000100E25EC0FF0EE2AED22EECF00F0EDCF86
:100CB00001F0CA0E005C030E015803E3BDC0BBF097
:100CC00030DF010C0001BF51240DF3CF6CF9F4CFDC
:100CD0006DF9000E09016C270A0E6D237FEC0FF0F1
:100CE000140EDFEC10F001E1000C7FEC0FF0E0ECF3
:100CF0000FF018E10101B96B9DEC12F0E66E7FEC8C
:100D00000FF00F0E70EC11F07FEC0FF0E0EC0FF035
:100D100001E1000C7FEC0FF03FEC10F07FEC0FF0E6
:100D200000EC10F05CEC11F00001C251EE24006EFA
:100D3000C351EE20016ECA0ED8800054030E015438
:100D40000BE25CEC11F0EECFC2F0EFCFC3F0CA0EB5
:100D5000D880C257030EC3577FEC0FF069EC10F038
:100D6000EF88C2C0BDF1C3C0BEF1C0C0BBF1C1C0FD
:100D7000BCF1C2EC12F07FEC0FF0140E25EC0FF07A
:100D80000001C251EE5EC351ED5A5CEC11F0C2514C
:100D9000EE26C351ED227FEC0FF0100EA9EC10F0FF
:100DA000CA0E005C030E015803E3BFC0BBF0B9DEFE
:100DB0000001C25112000001C451240DF3CF00F90B
:100DC000F4CF01F9000E090100270A0E012300C922
:100DD000E9FF01C9EAFF3EEC11F0080B01E1000C4C
:100DE00045EC14F000C9E9FF01C9EAFF7FEC11F0FE
:100DF000010C0001C551240DF3CF00F9F4CF01F926
:100E0000000E090100270A0E0123D6EC0FF03EEC7C
:100E100011F0080B3CE0D6EC0FF03EEC11F0040BA7
:100E20000CE00001FC6BFD6BC5C0FBF0D2EC0EF0DA
:100E3000D6EC0FF069EC10F0EF94D6EC0FF0120E38
:100E4000A9EC10F00001C851005CC951015808E23A
:100E5000D6EC0FF076EC11F0EECFC8F0EDCFC9F084
:100E6000D6EC0FF0120EDFEC10F007E145EC14F0B9
:100E7000D6EC0FF07FEC11F00AD0C8C0C1F1C9C0A8
:100E8000C2F1C6C0BFF1C7C0C0F150EF13F0F36AA2
:100E9000F46A12000001CA51240DF3CF00F9F4CF17
:100EA00001F9000E090100270A0E0123026B036BF2
:100EB000046BDBEC0FF03EEC11F0080B49E0DBECCF
:100EC0000FF03EEC11F0040B0CE00001FC6BFD6B2D
:100ED000CAC0FBF0D2EC0EF0DBEC0FF069EC10F0C6
:100EE000EF94DBEC0FF0120EA9EC10F00001CD51E5
:100EF000005C000E015809E2DBEC0FF076EC11F01B
:100F0000EFCFCDF00901100E026FDBEC0FF0120EE7
:100F1000DFEC10F009E145EC14F0DBEC0FF07FECB6
:100F200011F0F36AF46A1200CEC0C6F1CDC0C5F16B
:100F3000CBC0C3F1CCC0C4F1A4EC13F0F3CF03F9E0
:100F4000F4CF04F9200E0901F45C04E1200E01D075
:100F5000300E026F02C904F903C9F3FF02C9F4FF9E
:100F600012000001CF51240DF3CF00F9F4CF01F9A5
:100F7000000E090100270A0E0123EEEC0FF03EECF3
:100F800011F0080B2DE0EEEC0FF03EEC11F0040B2D
:100F90000CE00001FC6BFD6BCFC0FBF0D2EC0EF05F
:100FA000EEEC0FF069EC10F0EF94EEEC0FF0120E97
:100FB000DFEC10F007E145EC14F0EEEC0FF07FEC05
:100FC00011F0000CEEEC0FF076EC11F0EE06EF5A9B
:100FD00016EC13F0D0C0E9FFD1C0EAFFEF6E010CB0
:100FE000000C0A0E0001D25D01E3000CD25149EC65
:100FF0000FF03EEC11F0080B01E0010E12000901A8
:101000007B6B6C6B0A0E6C5D01E346D16C51240D59
:10101000F3CF75F9F4CF76F9000E75270A0E762313
:101020007CEC11F0080B01E034D17CEC11F0100BDA
:1010300001E02FD12EEC0FF0EF500A0801E129D189
:101040002EEC0FF0EF50000905E17CEC11F0010BE4
:1010500001E01FD12EEC0FF01F0E25EC0FF0020166
:10106000EE506D5D006EEE506E59016E2EEC0FF07D
:10107000210E25EC0FF015EC11F00050025C015030
:10108000035801E306D10101010EB86F98EC12F08C
:10109000000901E112002EEC0FF0F9EC0FF02EEC3C
:1010A0000FF0210E25EC0FF0010ED890EE36ED3644
:1010B000E806FBE12EEC0FF01E0E25EC0FF0EF2AF8
:1010C0002EEC0FF0EF50090A01E19CD0010A01E17A
:1010D00091D00F0A01E19DD0020A01E17DD0030AFF
:1010E00001E17AD0020A63E0070A2CE0010A0AE073
:1010F000030A01E090D00B01280E43EC0FF0090128
:10110000020E85D0EBEC10F007E30B011B0E43EC55
:101110000FF00901120E7BD07CEC11F0010B06E000
:101120002EEC0FF0EF6A0B011C0E09D00901020E24
:101130007B6F2EEC0FF0010EEF6E0B011D0E43ECDA
:101140000FF067D0EBEC10F01AE32EEC0FF0E0ECB0
:101150000FF00EE00B01060E43EC0FF00101DA6B0D
:10116000DB6B2EEC0FF000EC10F0C9EC15F053D057
:101170000B01290E43EC0FF00901100E48D02EECA4
:101180000FF0E0EC0FF008E02EEC0FF0B0EC0FF0F9
:101190002EEC0FF0E3EC10F00B01050E43EC0FF01A
:1011A0000901110E7B6F2EEC0FF0040E29D0EBEC31
:1011B00010F006E30901010E7B6F0B012A0E17D018
:1011C00006EC10F07CEC11F0010B03E00B011E0E9D
:1011D0000ED00B011F0E0BD006EC10F07CEC11F0C2
:1011E000010B03E00B01200E02D00B01210E43EC9A
:1011F0000FF011D00901010E7B6F2EEC0FF0090EDC
:10120000EF6E09D0EBEC10F004E30901110E7B6FD7
:1012100002D006EC10F009017B513BE07BA90DD018
:101220002EEC0FF04CEC11F0EECF77F9EECF78F911
:10123000EECF79F9EFCF7AF910D02EEC0FF04CEC1D
:1012400011F0EFCF77F9EE2AEFCF78F9EE22EFCF5A
:1012500079F9EE22EFCF7AF9EF22F3EC0FF07BC9A8
:10126000E7F02EEC0FF0D3EC10F077C9DFF078C97F
:10127000E0F079C9E1F07AC9E2F02EEC0FF0D7EC9A
:1012800010F02EEC0FF0DBEC10F02EEC0FF096ECE3
:101290000FF009016C2BB6D61200D3C0E9FFD4C001
:1012A000EAFF060E25EC0FF0EECF80F9EECF81F9C4
:1012B000EECF82F9EFCF83F9D5C0E9FFD6C0EAFFC0
:1012C000EECF84F9EECF85F9EECF86F9EFCF87F92F
:1012D0000901886B060E896FD7C08AF9D8C08BF9CF
:1012E000D7C07CF1D8C07DF1AFEC1AF0F3CF8AF90A
:1012F000F4CF8BF90C0E0101846F856B0101800E18
:10130000826F090E836FE3EC1AF0F3CF8DF9F4CFFF
:101310008EF909018D1F8E1FD7C086F1D8C087F1C5
:101320004FEC1BF0F3CF8FF9F4CF90F90901F45093
:101330008D5D03E18F518E5D07E00B01010E0CEC1A
:1013400010F045EC14F0010C0201246B256B13EC3A
:1013500021F0140E0101C16FC26B01016C0EBF6F51
:10136000090EC06F50EC13F000016C0EEF6F090E08
:10137000F06F30DA12EC10F0006E016A140E005EAD
:10138000000E015A00C091F90050006E016AE85049
:101390000001D75DD76F0150D859D86F140ED75FB1
:1013A000000ED85B12EC10F00201246F256B13ECD9
:1013B00021F0D3C0EDF0D4C0EEF000016C0EEB6F65
:1013C000090EEC6F81D909018C6FFE0E8C5D11E066
:1013D000D7C0F8F0D8C0F9F000016C0EF66F090E16
:1013E000F76FD3C0F4F0D4C0F5F08CC9F3F06FDA26
:1013F000010C45EC14F00B01030E0CEC10F06FC95E
:10140000EEFBB0EC28F06EC9EEFBB0EC28F0010C5E
:101410000101010EB86F98EC12F0000902E104001E
:10142000F7D7FF0E0001E85D07E10101010EB96F7A
:101430009DEC12F00001E86FFF0E0001E85D01E194
:1014400042D1140E0101DA6FDB6BE8C0D9F130EC48
:1014500016F0DBC048F9DCC049F9DDC04AF9DEC04E
:101460004BF9DFC04CF9E0C04DF9E1C04EF9E2C0E4
:101470004FF9E3C050F9E4C051F9E5C052F9E6C0B4
:1014800053F90901559D559F090154915493549561
:101490005497E7C055F958EC14F0F3CF56F9F4CF50
:1014A00057F90901000E565D040E575905E309016D
:1014B000566B040E576F11D00901360ED880565561
:1014C000000E575507E2360E0901565F000E09015E
:1014D000575B03D00901566B576B0901586B596B69
:1014E00009015A6B5B6B0001480EEF6F090EF06F3C
:1014F00071D9140E0001E927000E0001EA23000152
:10150000E7A317D0040E0001E927000E0001EA232B
:101510000901020E5C6F0901040E5D6F0901040EE2
:101520005E6F09015F6B09015499548B548D549F70
:1015300005D009015489549B548D549F28C260F9E9
:1015400029C261F92AC262F92BC263F9D9C0E9FF45
:10155000DAC0EAFF060EE926000EEA22EECF64F9B1
:10156000EECF65F9EECF66F9EFCF67F90901686B49
:101570000901060E696FE9C06AF9EAC06BF96AC928
:101580007CF16BC97DF1AFEC1AF0F3CF6AF9F4CFBF
:101590006BF90C0E0101846F856B0101600E826F87
:1015A000090E836FE3EC1AF0F3CF58F9F4CF59F931
:1015B0000901581F591F58C946F959C947F9E9C0C7
:1015C00022F2EAC023F20201060E216FD9C01FF2F7
:1015D000DAC020F2A4EC20F0140E0101BD6FBE6B46
:1015E0000101480EBB6F090EBC6FC2EC12F0000186
:1015F000E7A30BD0040E0101BD6FBE6B01015C0EB1
:10160000BB6F090EBC6FC2EC12F0140E0101DA6F51
:10161000DB6BE8C0D9F130EC16F0E9C086F1EAC026
:1016200087F14FEC1BF0F3CF46F9F4CF47F9240EC6
:101630000101DA6FDB6BE8C0D9F130EC16F047C975
:10164000BAF1A2EC12F046C9BAF1A2EC12F0010113
:10165000DA6BDB6BE8C0D9F130EC16F00B012F0E22
:10166000F06F0B018F0EEF6FD0EC28F0E4C000F0AC
:10167000E5C001F0E6C002F00001036A00C0EEFB25
:10168000B0EC28F0E3C0EEFBB0EC28F0E0C000F0D6
:10169000E1C001F0E2C002F00001036A00C0EEFB0D
:1016A000B0EC28F0DFC0EEFBB0EC28F0EAC000F0B0
:1016B000016A00C0EEFBB0EC28F0E9C0EEFBB0EC34
:1016C00028F0C9EC15F012000901FE0E036F026B41
:1016D0000A0E025D55E202511CEC10F084EC0FF092
:1016E000EF500A084AE084EC0FF00B0EA9EC10F062
:1016F00064EC10F0020EA9DB15EC11F000010250B1
:1017000000183BE10350011838E184EC0FF0EF5072
:10171000000902E102C903F984EC0FF00D0EA9ECF7
:1017200010F064EC10F015EC11F00250001825E1F7
:101730000350011822E1EDC0E9FFEEC0EAFF060EFA
:1017400084DBEECF04F0EECF05F0EECF06F0EFCF66
:1017500007F0DADBEE52060E78DBEE5004180DE1EE
:10176000EE5005180AE1EE50061807E1EE50071892
:1017700004E103E10901025112000901022BA8D77B
:10178000FE0E035D01E1FE0C03511CEC10F00A0E8D
:10179000E66EE66AEDC0E6FFEEC0E6FFB5DB8DDB88
:1017A000025064EC10F0A6DBAFDB45EC10F0ACDBD4
:1017B0007FEC11F0A9DBE0EC0FF005E0A5DBD0DB5E
:1017C000A3DBE3EC10F0A0DB69EC10F0EF82090181
:1017D0000351120053DBEFCF07F967EC11F026EC51
:1017E00010F04CDBBAEC10F0020ECBEC10F0020E55
:1017F00091EC10F0020ED0EC10F0020E73EC11F030
:10180000040E94EC10F0040E0FEC11F0080E94ECA2
:1018100010F0080E0FEC11F00E0ECBEC10F00E0EC7
:1018200091EC10F00E0ED0EC10F00E0E73EC11F0E7
:10183000100ECBEC10F0100E91EC10F0100ED0EC5E
:1018400010F0100E73EC11F0120ECBEC10F0120E23
:1018500091EC10F0120ED0EC10F076EC11F0010EBD
:10186000F4DA07C9EFFF120023DBAADB09E020DB73
:1018700077DB1EDBE3EC10F01BDB69EC10F0EF8292
:1018800017DB25EC11F014DB0D0EEB6A0E0EEB6A84
:101890000FDB3EEC11F0080B02E045EC14F008DB26
:1018A0007FEC11F005DB04EC11F002DB69EC10F0C9
:1018B000EF98FEDA3EEC11F0010B03E0F9DAEF6A83
:1018C00003D0F6DA0A0EEF6EF3DA2AEF11F0000118
:1018D000F351240DF3CFC1F9F4CFC2F9000E090181
:1018E000C1270A0EC223F8C0B1F0F9C0B2F0C36B31
:1018F000B0DA1E0EAADAEF6AACDA7BDBAADA04EC05
:1019000011F0EADB040B16E045EC14F079EC11F071
:10191000010B02E0000E01D0010EE66E9ADA96DBB2
:1019200079EC11F0010B03E00B01220E88D00B01C2
:10193000230E85D0F3DBF4EC10F00E0E86DAEECF3A
:1019400004F0EFCF05F0066A076AF0EC10F0EE50F5
:10195000B55D086EEE50B659096EEE50B7590A6E75
:10196000EE50B8590B6E0850045C006E09500558D3
:10197000016E0A500658026E0B500758036E69DA62
:10198000100E63DAEECF0CF0EFCF0DF00E6A0F6A97
:101990000C50005CB16F0D500158B26F0E500258E0
:1019A000B36F0F500358B46F800EB41506E051DAD0
:1019B000140EEB6A150EEB6A07D04BDA140EB1C9A0
:1019C000EBFF150EB2C9EBFF0B01310E25DBF0EC7E
:1019D00010F0D6DA080E60DBFEE100C0EEFBB0ECE2
:1019E00028F0F0EC10F0EFCFEEFB21EC11F0C8DAAC
:1019F000080E52DBFEE100C0EEFB21EC11F0EFCF50
:101A0000EEFBB0EC28F0F9C000F0016AF9C0EEFB83
:101A1000B0EC28F0F8C0EEFBB0EC28F064EC11F06C
:101A200001083CE159DB020B0CE145EC11F0100B15
:101A300004E00B01110E1CDA38D00B01120E38EF46
:101A40000FF04FDB41EC11F0A1DA88EC11F00BE163
:101A500000DA020EEF6E45EC14F00901120EC36FAE
:101A60000B01100EDED00001000ED880F855000EDC
:101A7000F95503E20B010E0E02D00B010F0EEFDB46
:101A8000030EEF6E0901100EC36F4FEC11F0000151
:101A9000F851F91101E1C7D0E5DB26D164EC11F072
:101AA000000923E1F2DB020B04E10901040EC36F1C
:101AB0001BD117DBF4DB0A0EE66EE66AF4C0E6FF24
:101AC000F5C0E6FFC6D9F9D90250CDD913DAC1D98C
:101AD000DCDABFD9020EEF6E21DB3EDB57DA0901FB
:101AE000120EC36F0B01150E9CD0CBDBEECFB9F9F4
:101AF000EECFBAF9EECFBBF9EFCFBCF90FDBEECFEB
:101B0000BDF9EECFBEF9EECFBFF9EFCFC0F9D8DB0C
:101B10003DDA0001F8510901B1270001F95109012D
:101B2000B223000EB323B423F9DA5EDB040E8DD9A1
:101B3000EE50B91901E0C8D0EE50BA1901E0C4D096
:101B4000EE50BB1901E0C0D0EE50BC1901E0BCD092
:101B500001E0BAD0B9DB020812E1DADB64E010DBA5
:101B6000030EEF6E0001F851F91104E07BDB0B016D
:101B70000C0E57D045EC14F00B010D0E52D000DBCB
:101B8000EF50030853E1C4DB1CE02ADBF9D9C6DAC5
:101B90000050EE1816E10150EE1813E10250EE1855
:101BA00010E10350EE180DE10CE1A3DB020B09E19B
:101BB00050D906DA06E04DD9D3D94BD904DBA5DBE1
:101BC000EF828ADA010B0CE00901110EC36FA6DA6D
:101BD000C3DA9FD93ED9090EEF6E0B01130E48D917
:101BE0000001F851F9111FE084DB080B04E13ADB36
:101BF0000901C38979D092DABDC9EEFFBEC9EEFFF3
:101C0000BFC9EEFFC0C9EEFF3CDBB9C9EEFFBAC9E0
:101C1000EEFFBBC9EEFFBCC9EEFF45EC14F00B01B3
:101C2000180E26D961D045EC14F05ED04DDB0908C2
:101C300007E12BDB100B58E05CDB010B39E13BD0FB
:101C400043DB04081CE121DB010B11E0D7DA60DB88
:101C500009E04FDB010B03E00B01260E2ED00B0138
:101C6000270E2BD00B01140EFADA060E06D050DB2D
:101C70003BE00B01320EF3DA050EEF6E35D024DBBC
:101C800005080DE102DB010B2FE0B8DA32DB010BB6
:101C900003E00B01330E11D00B01340E0ED014DB18
:101CA000060822E1F2DA100B1FE023DB010B03E050
:101CB0000B01240E02D00B01250EDAD8C1C9F1F0B8
:101CC000C2C9F2F0D1DD10D00B01300ED1D845ECF5
:101CD00014F00901100EC36FB9C9B1F9BAC9B2F94C
:101CE000BBC9B3F9BCC9B4F90901C3514AE001DB6E
:101CF000020B28E1AED864D925E0ABD8100E5FDA2C
:101D000021E0D3DA0050EE5E0150EE5A0250EE5A56
:101D10000350EE5A9ED88EDA9CD80F0EEB5000017D
:101D2000E86F080E0901C3110001E76F3CDAF6D92C
:101D300009D98FD83CDA8DD83EDA8BD8F7D8B5DA06
:101D400036EF10F050D9C3C9E7F0B1C9E3F0B2C91A
:101D5000E4F0B3C9E5F0B4C9E6F0B5C9DFF0B6C93F
:101D6000E0F0B7C9E1F0B8C9E2F07DD82DD97BD851
:101D7000020E6BD82ED9F4C0D9F0F5C0DAF008EC19
:101D80000AF012000001FA51240DF3CF00F0F4CF55
:101D900001F0000E00260A0E012200C0F3FF01C070
:101DA000F4FF12000001FB51240DF3CF06F9F4CF2C
:101DB00007F9000E090106270A0E07230C0E02017F
:101DC000246F256B13EC21F016EC13F0E840E8408B
:101DD0003F0B3C0B0901056F0001FC51B15D006E2A
:101DE000B251FD55016E06C9E9FF07C9EAFF120E9F
:101DF00000C0EBFF130E01C0EBFF0901055100010C
:101E0000FC250201246F000E0001FD210201256F57
:101E100013EF21F00001FE51240DF3CF00F9F4CFB0
:101E200001F9000E090100270A0E012300C9E9FF8C
:101E300001C9EAFF5BDA0001EE50B15D006EEE50C1
:101E4000B25900C0F3FFF46E1200E926000EEA2238
:101E50001200C1C9E9FFC2C9EAFF120075C9E9FF52
:101E600076C9EAFF1200F6C0E9FFF7C0EAFF1200E8
:101E7000F06F800E0001F325E7EF10F0EFC0E9FFEF
:101E8000F0C0EAFF1200F06F800E09016C25E7EF49
:101E900010F0240DF3CFE9FFF4CFEAFF000EE9269E
:101EA0000A0EEA2212006DC9E9FF6EC9EAFF1200AC
:101EB000F1C0E9FFF2C0EAFF1200EE52E9CF00F0F4
:101EC000EACF01F0E9CFE6FFEACFE6FF59EC2AF0CE
:101ED000026E060EE15E1200EECFE3F0EECFE4F00C
:101EE000EECFE5F0EFCFE6F012006EC9E9FF6FC963
:101EF000EAFF1200EECF00F0EFCF01F012006CC944
:101F0000E9FF6DC9EAFF120000C9E9FF01C9EAFF54
:101F10001200EF2AEECFB1F9EF22EECFB2F9EF22A5
:101F2000EECFB3F9EF22EFCFB4F91200EE52E9CFC2
:101F3000D9F0EACFDAF008EF0AF001C9E9FF02C9E7
:101F4000EAFF1200EECFDFF0EECFE0F0EECFE1F0EF
:101F5000EFCFE2F012006CC9E9FF6DC9EAFF120091
:101F60000F0EEB500101C86F3AEF14F001C9E9FF01
:101F700002C9EAFF12006CC9E9FF6DC9EAFF12004D
:101F8000EECF00F0EECF01F015EF11F0EECFB1F98A
:101F9000EECFB2F9EECFB3F9EFCFB4F9120001C032
:101FA000EEFF02C0EEFF03C0EEFF120000C9E9FF22
:101FB00001C9EAFF120000C9E9FF01C9EAFF1200E6
:101FC0000F0EEB50FF081200EECFDDF0EDCFDEF08C
:101FD0001200EECFDBF0EDCFDCF0120000C9E9FF1C
:101FE00001C9EAFF12000001E96BEA6B0001E86930
:101FF00012001F0E6DC2EBFF200E6EC2EBFF12002F
:102000000F0EEB500101D96F30EF16F075C9F1F0EA
:1020100076C9F2F034EF0CF0F06F0B018F0EEF6F1A
:10202000D0EF28F009017851F00BE842E842E8428D
:10203000E842040DF3501200240DF3CF00F9F4CF61
:1020400001F9000E00270A0E01231200E552E750A5
:10205000EF6E1200F06F800E09016C25E7EF10F0B3
:10206000F06F800E0001BA25E7EF10F00050EE2669
:102070000150EE220250EE220350EE221200EAD866
:10208000280E0101DA6FDB6B12000D0E00C0EBFFB2
:102090000E0E01C0EBFF1200D89003320232013263
:1020A0000032E8061200140E00C0EBFF150E01C04E
:1020B000EBFF1200EE6AEE6AEE6AEE6A1200EE2A9A
:1020C000EE22EE22EE221200EBC0E9FFECC0EAFFA6
:1020D0001200230E25EF0FF0C6DE0D0EB6DEEF5018
:1020E0001200F8C004F0F9C005F0066A076AE8D8E3
:1020F000EE500424006EEE500520016EEE500620D6
:10210000026EEE500720036E002A000E012202220A
:102110000322B7D800C0EEFFCFEF0FF09ADE4CEFEE
:1021200011F093DE67EF11F090DEEECF7EF1EECF8F
:102130007FF1EECF80F1EFCF81F1B4EC1AF014C053
:1021400000F015C001F016C002F017C003F03EEF1A
:102150000FF07BDE7AEF0FF0EFCFB5F9EE2AEFCF7D
:10216000B6F9EE22EFCFB7F9EE22EFCFB8F9EF22B2
:1021700041EF11F0010E69DE07C9EFFF3EEF0FF0EE
:1021800080D8B1C9EEFFB2C9EEFFB3C9EEFFB4C942
:10219000EEFF29EF0FF059DEEFCF07F93EEF0FF01A
:1021A0009FD83EEF0FF01A0E50DE6CEF0FF00D0EC1
:1021B0004CDEE4EF0FF00B0E48DEE9EF0FF045DEEA
:1021C000EE50ED1012000F0E40DEEF6812000B0112
:1021D000EF6FD0EF28F042DE1E0EEB500308120026
:1021E00042DE080E25EF0FF0EECFB5F9EECFB6F9CF
:1021F000EECFB7F9EFCFB8F933EF0FF00901100EBA
:10220000C36F3FD889EF0FF0210E1FDEC80EEE6EB0
:10221000ED6A120048DE40D852DF53EF0FF015DEB2
:1022200014C0EEFFBCDE3EEF0FF0EECF02F0EFCFBA
:1022300003F01200100E09DEEECFE9F0EDCFEAF068
:102240001200B0EC28F060EF11F0EE52060EFDDD4A
:102250005AEF10F0100EEB6A110EEB6A120008DE56
:1022600029EF0FF052D8EF86F4DD120EF8C0EBFF25
:10227000130EF9C0EBFF49D8EF8412002ADFEF50AC
:102280001200E7DD1A0E25EF0FF045EC14F06CEFAD
:1022900010F06CDE69EF10F0160E25EF0FF0E3DDA5
:1022A0000E0E57DFD6DD53EF10F0D3DD100E51DFE9
:1022B000026A036A8EEF10F022DE100E25EF0FF097
:1022C000D2DD040E25EF0FF0C4DDEF501200010E39
:1022D000BCDDEF50E66E3EEF0FF02FDE69EF10F041
:1022E000B4DD26EF10F0B1DDBAEF10F0120E25EFDD
:1022F0000FF0AFDD3EEF11F0B1DD3EEF11F0E9DEA2
:10230000EF961200C9DFA2EF0FF0A3DD69EF10F026
:06231000E3DE100B1200D9
:0A231600966A868898880101B16B71
:10232000B26BB36BB46BB56BB66BB76B0901006B7B
:10233000010E005D16E20051040DF3CF00F0F4CF62
:1023400001F0400E0026000E0122005146EC16F06E
:1023500000C0EFFF005146EC16F0EE52EF80002B6C
:10236000E7D71E6A0101AF69D6EC15F079EC16F0DB
:1023700001011F0E6BEC16F00101D36F01011F0E5E
:102380005BEC16F079EC16F00101210E56EC16F01C
:1023900079EC16F00101080ED36F01010E0EBEECB0
:1023A00016F00A0EBEEC16F00B0EC1EC16F0040E81
:1023B000D36F01010C0EC1EC16F0020ED36F0101B8
:1023C0000D0E5BEC16F0DBEC16F05BEC16F0B4ECEB
:1023D00016F0010EC1EC16F0600ED36F0101020E73
:1023E0005BEC16F0B4EC16F0030EC1EC16F0D369FA
:1023F0000101070EBEEC16F00F0EC1EC16F0610ED7
:1024000056EC16F02CC2D3F10101010E5BEC16F074
:102410002DC2D3F10101020E5BEC16F02EC2D3F1F6
:102420000101030E5BEC16F02FC2D3F10101040E83
:102430005BEC16F030C2D3F10101050E5BEC16F037
:1024400031C2D3F10101060E5BEC16F00901006BFD
:10245000080E005D0BE20101D369080E0901002599
:1024600001015BEC16F00901002BF2D7B4EC16F079
:10247000070E5BEC16F0440E1B6E0101220E56ECAB
:1024800016F095EC16F00D0EC1EC16F0E00E56ECC1
:1024900016F00101C00ED36F0101010EBEEC16F063
:1024A000040EBEEC16F0010EC1EC16F0200E56EF35
:1024B00016F001010D0EC9EC16F00101B127015013
:1024C000B22301010E0EC9EC16F00101B327015031
:1024D000B42301010F0EC9EC16F00101B52701501C
:1024E000B623B151B225B325B425B525B6250901CA
:1024F000006FE8500101B75D1AE00B01010ED0DB5F
:10250000B9EC16F0B1C1E6FFB2C1E6FFD7DBB9EC1A
:1025100016F0B3C1E6FFB4C1E6FFD0DBB9EC16F0AC
:10252000B5C1E6FFB6C1E6FFC9DB00C9B7F11200CD
:10253000A1EC16F001E0000C010CA1EC16F001E199
:10254000000CFF0CA6EC16F086A8FED7D7DB86A8F9
:10255000FED7ADEC16F086A8FED78D8C670E8D6E7B
:10256000400E836E8D9C86A8FED78D8C700E8D6E6E
:10257000BAC183FF8D9C86A8FED78D8C1C2A000EC5
:102580001D2212000101BD51BE1101E11200010E18
:10259000BD15006E016ABD5100240901416F0101A2
:1025A000BE5101200901426F956A670E8D6E400E83
:1025B000836E8D9C86A8FED78D8C6A0E8D6E41C968
:1025C00083FF8D9C86A8FED78D8C6B0E8D6E42C9C5
:1025D00083FF8D9C86A8FED7C0DB86A8FED78D8C96
:1025E0000101BD511C26BE511D22700E8D6E92DB65
:1025F00086A8FED78D8CBDC13FF9BEC140F9090147
:10260000010E3F5F000E405B09013FC900F040C969
:1026100001F03F07000E405B0050011006E0010191
:1026200079DB86A8FED78D8CEFD712008FDB86A8CA
:10263000FED764DB86A8FED78D8CFF0E1C5C1DE1E7
:102640005F0E1D5C1AE1090129692A6929C9D5F1C2
:102650002AC9D6F1D7DA58DB86A8FED78D8C0101BE
:10266000100E39DB0901286F296B440E2A6F29C926
:10267000D5F1E8CFD6F1C6DA10D046DB86A8FED772
:102680008D8C9568700E8D6E8D9A86A8FED783CF3F
:1026900028F98D8A1C2A000E1D22090128511200DA
:1026A000C1C1C6F9C2C1C7F90101C151C21103E1DB
:1026B000F36AF46A1200956A6A0E8D6EC6C983FFCA
:1026C0008D9C86A8FED78D8C6B0E8D6EC7C983FF3F
:1026D0008D9C86A8FED78D8C17DB86A8FED78D8CA7
:1026E0000901C6511C26C7511D22600E1D5C02E364
:1026F0001C0E1D5E9568700E8D6E0901C6C900F036
:10270000C7C901F0C607000EC75B005001100FE0FB
:102710008D9A86A8FED70101BFC1E9FFC0C1EAFFBB
:10272000BF2B000EC02383CFEFFF8D8AE6D701DBDE
:1027300002E101501D1803E00B01020EB1DAC1C124
:10274000F3FFC2C1F4FF1200C5C105F90901066B10
:102750000101C55103E1F36AF46A1200956A6A0E39
:102760008D6EC5C183FF8D9C86A8FED7C7DA86A86B
:10277000FED78D8CC9DA86A8FED78D8C9568700E31
:102780008D6E090105512DE005078D9A86A8FED7AB
:1027900083CF07F98D8A0101C351C41109E0C3C178
:1027A000E9FFC4C1EAFFC32B000EC42307C9EFFF32
:1027B000C6510901075DE5E1200E066F956A600EBE
:1027C0008D6E200E836E8D9C86A8FED78D8C6A0E32
:1027D0008D6E836A8D9C86A8FED790DA86A8FED778
:1027E0008D8C090105510101C55D0901056FE85096
:1027F000006E016AE8501C2601501D22600E1D5C0F
:1028000002E31C0E1D5E200E065D05E11CC0D5F125
:102810001DC0D6F1F7D98DDA02E101501D181BE079
:102820000B010C0E3DDA0B010B0E3ADA1DC0EEFB6C
:10283000B0EC28F01CC0EEFBB0EC28F0F2D9F4CFDD
:1028400000F0016AF4CFEEFBB0EC28F0EAD9F3CF48
:10285000EEFBB0EC28F0026A0901055100010210FC
:10286000F36E06C9F4FF12000101C7510FDAEE52F0
:10287000EF901200010E0101C85D06E2C85106DAB0
:10288000EE52EF80C8C11EF012001BC02DF90901E5
:10289000010E2C6FE8CFD5F11BC0D6F1B3D9C6DE3F
:1028A00009012B6FE8CFD3F10101030E5BEF16F0A6
:1028B0006BDA0901006F0101200EF8D91B500901E4
:1028C000005D05E2600ED8801B54002502D01B502D
:1028D000005D016FE850006E016A1C0ED880005642
:1028E000000E015600C001F900C003F9026B02C9D5
:1028F000F3FF00C0F4FF12000101E00E52DA0901FB
:10290000006F0101200ED2D909010051040B01E032
:10291000000C010CCBC1E9FFCCC1EAFFEF6834DA4F
:102920000901126F0101200E3CDA0901136F49DA27
:10293000100B37E00B01030EB3D903DA0901166F50
:102940000101210EB3D90101020EFF6F97EC2BF0AC
:10295000ECD90A0E13DA0B0EAED90901165108E0B4
:1029600030DA0A0B02E0000E01D0010E0901166FE9
:102970000101020ED36F01010D0E03DA220E96D96A
:1029800012C91BF082DF0101D3690101070EF6D9DC
:102990000D0E91D90901165103E00101260E86D9C9
:1029A000000C09011351125D01E19BD013C915F907
:1029B000146B14C9D5F113C9D6F124D9120E010133
:1029C000C16FC26B0101000EBF6F090EC06F68DEE0
:1029D00009010051010B4EE0400E025D000E03594B
:1029E00049E3EE0ED8800255050E035543E3600E11
:1029F000015D40E20151006E016AD890015004E689
:102A0000440E005C000E015835E310C97CF111C979
:102A10007DF1AFEC1AF0F3CF10F9F4CF11F9060EF7
:102A2000E66EE66A0A0EE66E090EE66EC9C1E9FFB9
:102A3000CAC1EAFFC9C100F0CAC101F0C9C1E6FFBD
:102A4000CAC1E6FF59EC2AF0026E060EE15E0250A2
:102A5000080E0901115D0BE1105103E0060E105D37
:102A600006E1CBC1E9FFCCC1EAFF10C9EFFF13C9F2
:102A70001BF0010C0B01040E13D9090100B103D0A6
:102A80000B01060E0DD90901400E025D000E03591F
:102A900004E20B01070E04D921D90901EE0ED880FA
:102AA0000255050E035504E20B01080EF9D816D99C
:102AB000600E0901015D03E30B01090E77D90901DD
:102AC0000151006E016AD890015004E6440E005C8A
:102AD000000E015803E20B010A0E68D912C91BF05F
:102AE000D4DE000C01010A0ED36F0101070EE3D8FA
:102AF00055D9EFCF44F90901436B43C9D5F144C916
:102B0000D6F180D8060E0101BD6FBE6BCDC1BBF101
:102B1000CEC1BCF137DD2CC2BAF114DD2DC2BAF141
:102B200011DD2EC2BAF10EDD2FC2BAF10BDD30C2BB
:102B3000BAF108DD31C2BAF105DD0101CF5103E17F
:102B40000901456B03D00901060E456F0101080E0E
:102B5000BA6FF8DC45C9BAF1F5DC0E0E0101D027D9
:102B6000000ED1233C0ED05D000ED15903E23C0E85
:102B7000D06FD16BD0C143F9D1C144F9D0C1D3F1E9
:102B80000101050E98D844C9D3F10101060E5BEF8F
:102B900016F011D9F6D8240E89D81EC0AFF1FED890
:102BA000EE52EF80FBD8EE52EF8212000B01050EC1
:102BB00077D89568600E8D6E8D8C8D8A8D8E966A15
:102BC0000101010EFE6F8AEC2BF093D88D9E12004E
:102BD000600E0101D2118D6ED3C183FF956A8D9C69
:102BE00086A8FED78D8C12009568600E0101D41165
:102BF0008D6E8D9A86A8FED783CFC8F98D8A09017C
:102C0000C8511200D5C11CF0D6C11DF0D5C1D3F1F9
:102C10000101080E50D8D6C1D3F10101090E5BEFB6
:102C200016F00101090E57D80901C56F0101080E00
:102C300052D8F36EC5C9F4FF12001BC009F909018F
:102C4000120E086F0101D751090108270101D8515F
:102C50000901092308C9D5F109C9D6F102EF16F017
:102C6000D9C11EF09BD8EFCF2CF909010E0E2B6FA6
:102C70000101DA5109012B270101DB5109012C2344
:102C80002BC9D5F12CC9D6F102EF16F0E96EEA6A2C
:102C9000D890E936EA36AD0EE926010EEA22120096
:102CA000F06F0B01E40EEF6FD0EF28F0D36F01014E
:102CB000D26BE8EF15F0D26FE8EF15F029EC29F0B0
:102CC000E552E552E552E5520B01010EF76F090E90
:102CD000F86FF5EF28F0D46FF4EF15F003C900F0AA
:102CE000016A03C9EEFBB0EC28F002C9EEFBB0EFBD
:102CF00028F00101050EFF6F97EF2BF08D8C6B0E06
:102D00008D6E836A8D9C1200600E8D6E0A0E836E2E
:102D10008D9C1200BBC1E9FFBCC1EAFFBB2B000EBA
:102D2000BC23EF50836E8D9C12000101D36B010117
:102D3000120077DFF3CF00F0F4CF01F0F3501C184E
:102D400012000101D46B50DF040B1200956A6A0E69
:102D50008D6E010E836E8D9C12008D8C600E8D6EBB
:102D6000120E836E8D9C12000101440ED36F01017F
:102D70001200010EE66E090EE66E12009CDF95EF62
:102D800016F099DF010112000101600E8FDFE1EF03
:102D900016F0A1DF006E016AE85012001E5046EFE7
:102DA00016F084DF0101030E6BEF16F079DF01C925
:102DB000EEFBB0EF28F0F2DFEFCFD3F10101040E0C
:0A2DC00012000101070E6BEF16F080
:062DCA000901006B020E7E
:102DD000005D06E200C92FF151D80901002BF7D799
:102DE00012000901000E016F010E026F006B020E4E
:102DF000005D43E241DB0C0E31DB39DB026A036A22
:102E0000005001100210031032E136DB0C0E29C114
:102E1000EBFF0D0E2AC1EBFF01012B512C1111E02C
:102E20000A0EE66EE66A2BC1E6FF2CC1E6FF24DB44
:102E300001C900F002C901F001C9E6FF02C9E6FFBD
:102E40002FDB1ADB0A0E2DC1EBFF0B0E2EC1EBFFA1
:102E500013DB0E0EEB6A0F0EEB6A0EDB100EEB6A45
:102E6000110EEB6A00C928F1090100511200140E7D
:102E70000127000E0223002BBAD7FF0C01012F51AE
:102E8000E3DA0C0EEBDAEE6AED6A2F51DDDA060EAC
:102E9000E5DAEE6AEE6AEE6AEE6A2F5129DBEF9010
:102EA0001200020E0101305D07E230C128F101017C
:102EB000010EB86F98EF12F0000C01012851140DAB
:102EC000F3CF0AF9F4CF0BF9000E09010A27010E1E
:102ED0000B2316DBEE50ED100FE1E9DAD2DA14DB4A
:102EE000D0DA120EEB50FF0801E1000C1C0E0101BC
:102EF000DA6FDB6BC6DAE2DA31C1BAF1A2EC12F0BA
:102F0000FFDAEE2AEF22FCDA05DB01E353D8010CED
:102F100001012851140DF3CF0AF9F4CF0BF9000E7B
:102F200009010A27010E0B23E7DAEE50ED1011E13B
:102F3000BEDA98DAE9DA96DA120EEB50FF0803E10E
:102F4000F36AF46A12001C0E0101DA6FDB6B8ADA95
:102F5000B5DAD2DA01013451EE24006E3551EE209B
:102F6000016ED60ED8800054030E01540AE2C4DA72
:102F7000EECF34F1EFCF35F1D60ED8803457030EB3
:102F8000355734C1BDF135C1BEF132C1BBF133C1DA
:102F9000BCF1C2EC12F0B0DA01013451EE26355129
:102FA000ED22AADAB7DA01E305D834C1F3FF35C15F
:102FB000F4FF12000101010EB86F98EC12F0000945
:102FC00002E10400F7D701012851140DF3CF08F9ED
:102FD000F4CF09F9000E09010827010E09010923A0
:102FE00008C9E9FF09C9EAFF0C0EE926000EEA222A
:102FF000EECF7CF1EDCF7DF1AFEC1AF0F3CF00F91D
:10300000F4CF01F908C9E9FF09C9EAFF0A0EE92668
:10301000000EEA22EECF7CF1EDCF7DF1AFEC1AF09D
:10302000F3CF02F9F4CF03F908C9E9FF09C9EAFFB0
:103030000E0EE926000EEA22EECF04F9EFCF05F9D5
:10304000080E09010427000E090105230901066B7A
:10305000076B140E0101DA6FDB6B08C9E9FF09C9C0
:10306000EAFF120EEB500101D96F30EC16F004C9E3
:1030700022F205C923F20201110E216F08C9E9FFEE
:1030800009C9EAFFE9CF1FF2EACF20F2A4EC20F051
:1030900004C97CF105C97DF1AFEC1AF0F3CF04F956
:1030A000F4CF05F9080E0101BD6FBE6B0101000EE2
:1030B000BB6F090EBC6FC2EC12F0C9EC15F008C969
:1030C000E9FF09C9EAFF120EE926000EEA22EF68BD
:1030D00008C9E9FF09C9EAFF0E0EEB6A0F0EEB6A99
:1030E0001200020E0101365D0AE236C128F1FBD959
:1030F000D880EE54000EED5401E3000C010C000CDE
:1031000013DA01E1000C2851F3D9EF50010B01E073
:103110000FDA16EC13F037C1E9FF38C1EAFFEF6EA2
:103120000DDAEE06EF5ADFD9EE50ED1002E145EC74
:1031300014F0010CF9D903E1F36AF46A1200285182
:10314000D7D9EF50010B01E0F3D9F8D990D93B5111
:10315000005C3C51015805E2C6D9EECF3BF1EDCF02
:103160003CF13BC1C1F13CC1C2F139C1BFF13AC12F
:10317000C0F150EC13F0F3CF00F9F4CF01F9DED930
:1031800009010051EE5E0151ED5ACED902E145EC44
:1031900014F03BC1F3FF3CC1F4FF1200C5D902E0BB
:1031A00045EC14F0CBD9EE6AED6A1200080E01016D
:1031B000C16FC26B0101460EBF6F090EC06F50ECAC
:1031C00013F046C95DF947C946F95DC947F948C9D1
:1031D0005DF949C948F95DC949F9080E006E090150
:1031E0004B51D880005403E24A055D6F02D04AC9B2
:1031F0005DF9080E4B5D4A6F5DC94BF94C514D119D
:103200006AE04CC95DF94DC94CF95DC94DF93DC144
:10321000E9FF3EC1EAFF060E21D9EECF4FF9EECF0E
:1032200050F9EECF51F9EFCF52F94ED9EFCF53F914
:10323000010E14D9EFCF54F947D9020E0FD9EFCFB1
:1032400055F942D9030E0AD9EFCF56F9576B110E33
:10325000586F41C159F942C15AF941C17CF142C18B
:103260007DF1AFEC1AF0F3CF59F9F4CF5AF90C0E07
:103270000101846F856B01014F0E826F090E836F10
:10328000E3EC1AF0F3CF5BF9F4CF5CF909015B1FB3
:103290005C1F060E00D95BC9BAF1A2EC12F0070E52
:1032A000FAD85CC9BAF1A2EC12F00201246B256BCA
:1032B00013EC21F041C186F142C187F14FEC1BF0C4
:1032C000F3CF5BF9F4CF5CF909014C51F31816E127
:1032D0004D515C1913E13FC147F140C148F13DC177
:1032E00045F13EC146F10101460E436F090E446FA0
:1032F0001CD809014E6FFF0E4E5D03E145EC14F042
:10330000010C4E51A1D8100EA9D84AC9EEFF4BC9E5
:10331000EDFF4E51EDD8EF80010C0101285194D8FA
:10332000E9CFF3FFEACFF4FF120009010169000EB3
:10333000026F010E036F006B020E005D5BE2A6D808
:103340000C0EEED8020E8AD8C9D80001025000181F
:103350004AE10350011847E199D80A0EE1D8BED8D6
:10336000025000183EE1035001183BE18FD8100EC7
:1033700075D8EECF04F0EFCF05F0066A076A045067
:103380000510061007102DE145C1E9FF46C1EAFF0F
:10339000060E64D8EECF00F0EECF01F09FD876D8BD
:1033A000060E5CD8EE50001808E1EE50011805E159
:1033B000EE50021802E1EE50031810E047C1E9FF99
:1033C00048C1EAFFE868EE180CE1E868EE1809E188
:1033D000E868EE1806E1E868EE1803E1090100511B
:1033E000120000C901F90901140E0227000E03237F
:1033F000002BA2D7FF0E015D24E00151140DF3CF85
:1034000002F9F4CF03F9000E0227010E03230A0E7E
:10341000E66EE66A45C1E6FF46C1E6FF37D802C957
:1034200000F003C901F002C9E6FF03C9E6FF38D87E
:1034300050D81DD82BD80A0E00C0EBFF0B0E01C0D0
:10344000EBFF090101511200140DF3CFE9FFF4CF96
:10345000EAFF000EE926010EEA221200E926000E1C
:10346000EA2212000AC9E9FF0BC9EAFF1200EECFF7
:1034700000F0EFCF01F0120001C9E9FF02C9EAFF35
:1034800012000AC9E9FF0BC9EAFF120002C9E9FFED
:1034900003C9EAFF12000201246F256B13EF21F02C
:1034A00059EC2AF0026E060EE15E02501200010194
:1034B000010EB96F9DEC12F0E66E1200120EEB5089
:1034C0000101D96F30EF16F03FC1E9FF40C1EAFFBB
:1034D000120043C1E9FF44C1EAFF1200EECF02F03F
:1034E000EFCF03F012002851AFDF100E2EEF1AF0CD
:1034F000ABDF130E2EEF1AF0B5DF0E0E2EEF1AF023
:10350000C0DF0E0E2EEF1AF0120EA8DFE552E750C4
:10351000EF6E1200ACDFD60E005C030E01581200F5
:103520009DDFA5DF69EF1AF009D8EE50ED1012000B
:103530002851DEDFEF90080E4BEF1AF0010173EF18
:023540001AF07F
:0E35420001017B390F0B7B6FE850090804E292
:10355000410E7B25F60F1200300E7B2512007DC137
:10356000F3FF7CC1F4FF12007EC101F97FC102F9B3
:1035700080C103F981C104F90901010E056F090E2B
:10358000066F05C9E9FFEA6E030EA1DAEF50E66E99
:10359000030E97DA00C9EFFF73DA020E98DA010E14
:1035A00087DAEF50E66E6CDA020E8BDA010E80DA03
:1035B00000C9EFFF01C914F002C915F003C916F0E4
:1035C00004C917F012000901C86BC96BCA6BCB6B39
:1035D00082C1C6F983C1C7F984C1C4F985C1C5F9DF
:1035E000D890C533C433C4C900F0C5C901F0C407BD
:1035F000000EC55B0050011018E0C6C9E9FFC7C93D
:10360000EAFF020EC627000EC723EECF00F0EFCF71
:1036100001F0000100500901C82700010150090113
:10362000C923000ECA23CB23DED701018451010B2D
:103630000EE0C6C9E9FFC7C9EAFFEFCF00F00001FD
:1036400000500901C827000EC923CA23CB23090152
:10365000CA51CB1119E0C8C900F0C9C901F0026A0A
:10366000036ACAC904F0CBC905F0066A076A0050AC
:103670000424C86F01500520C96F02500620CA6F8C
:1036800003500720CB6FE3D7C8C900F0C9C901F0C8
:10369000001E011E00C0F3FF01C0F4FF120009016B
:1036A000010E006F016B026B0101865187114EE024
:1036B000400E865D000E875904E3400E006E016ADD
:1036C00004D086C100F087C101F000C005F90901EE
:1036D00000500101C16FC26B0101060EBF6F090EE0
:1036E000C06F50EC13F009010551006E016A0050E3
:1036F0000101865F0150875B0901046B0551045D80
:10370000D3E20451EA6A060FE96E090EEA22EFCF0E
:1037100003F900510AE103510125016F0351015DD5
:103720000DE2022B0BE1012B09D003510225026FA0
:103730000351025D03E2012B01E1022B005102E083
:10374000000E01D0010E006F042BD8D70901021D15
:10375000026F011DF36E02C9F4FF120001018851CE
:10376000390805E3300E885D02E3300E0FD0885132
:10377000460805E3410E885D02E3370E07D0885105
:10378000660806E3610E885D03E3570E885D12004C
:10379000FF0C010E0101EA6A8925E96E8A51EA22CD
:1037A000EFCF88F1DBDF0901006F89C1E9FF8AC132
:1037B000EAFFEFCF88F1D2DF0901016FFF0E005D54
:1037C00003E0FF0E015D01E1000C0139F00B001177
:1037D0008BC1E9FF8CC1EAFFEF6E010C0901006BA0
:1037E000A6A202D00400FCD72F0EA616A6840101C3
:1037F0008FC1E9FF90C1EAFF8F2B000E9023EF509D
:10380000A86E0901002B010191510901D8800055D2
:1038100001E2A86A8EC100F0016A0050AA6E01019F
:103820008DC100F08EC101F08D2B000E8E23005053
:10383000A96E550EA76EAA0EA76EA6820000A6A2BC
:1038400002D00400FCD7A850D2E1A69409010005DB
:1038500000D012000901006BA6A202D00400FCD720
:103860003F0EA6160901002B010196510901D880CF
:10387000005506E292C1E9FF93C1EAFFEF6A18D052
:1038800094C1A9FF95C100F0016A0050AA6E010120
:10389000942B000E9523A680A85092C1E9FF93C1F6
:1038A000EAFFEF6E0101922B000E9323A850DAE19C
:1038B0000901000500D012009AC100F00050AA6E64
:1038C00099C1A9FF3F0EA616010197C1E9FF98C152
:1038D000EAFF972B000E9823EFCF00F9A680A8509F
:1038E0000901005D01E0010C005101E1000CA92A71
:1038F000EBE1AA2AE9D701019BC1E9FF9CC1EAFFDC
:103900009B2B000E9C23EFCF00F9EF501FE0610EC0
:103910000901005D05E300517A0802E3200E005F13
:1039200001019DC1F6FF9EC1F7FF9D2B000E9E2356
:103930000800F5500901005D01E0000C9DC1F6FF93
:103940009EC1F7FF0800F550D6E1010C000C9FC1A5
:1039500002F9A0C103F90901006B016B0101A1513A
:103960000901005D0101A251090101590BE202C9DF
:10397000E9FF03C9EAFF022B000E0323EF6A002BC5
:103980000123ECD712001200030E0101AC5D37E3F6
:103990007CD8F6BEF7686AD8010E6CD8EF380F0BEA
:1039A000006E7ED80010F66EF76AF6BEF7685ED835
:1039B000060E016E020E5ED8EF5001C0E7FFE7521F
:1039C00004E0E8427F0BE706FCE1006E010E010116
:1039D00083D80010F66EF76AF6BEF76847D8020E75
:1039E00049D8EF503F0BF66EF76AF6BEF7683ED83F
:1039F000030EAA27000EAB23030EAC5FC5D7AC5154
:103A000000082EE242D8F6BEF76830D849D809013E
:103A1000006F0101AC51010806E2010E2BD8EF380E
:103A20000F0B0901001309010051F76A610FF66ECF
:103A3000560EF7220800F550E66E01013DD8020E41
:103A4000AC5D02E23D0E07D0010E46D8F66EF76A75
:103A5000F6BEF76847D8E66E2FD84BD83D0EEF6E0E
:103A6000A8C1E9FFA9C1EAFFEF6A12003BD8E66EE0
:103A70005CEF1DF0EA6AAA25E96EAB51EA2212005A
:103A800005C9E9FF06C9EAFF1200AAC1E9FFABC1F7
:103A9000EAFFEF50E840E8403F0BF66EF76A12008D
:103AA000AAC1E9FFABC1EAFFEF38F00B300B1200FF
:103AB000E926000EEA2212001CD8E552E750EF6E0C
:103AC0001200F6DFE552E750EF6E40EF1DF0F0DF39
:103AD000EFCF00F940EF1DF0CDDFEF50040DF350B4
:103AE0003C0B1200610EF626560EF7220800F55028
:103AF0001200A8C1E9FFA9C1EAFFA82B000EA92363
:023B00001200B1
:0E3B02000101E46B010EE56F0201180E4B6F1E
:103B10003DEC27F00101DC6B010C0901FE0E026F88
:103B20000101E5B10AD00B01020EF06F0B01E30EAB
:103B3000EF6FD0EC28F0FE0EF2D00101DCA10AD02C
:103B40000B01030EF06F0B01E30EEF6FD0EC28F0CA
:103B5000FE0EE5D00901026B0901450E036F046BEF
:103B6000056BE7C1E9FFE8C1EAFFEF5002E1FF0E94
:103B7000D6D0E7C1E6FFE8C1E6FF9DEC2AF0E552AA
:103B8000E552F3CFE7F1F4CFE8F103C950F204C9ED
:103B900051F20201A00E4F6F7CEC27F0000904E007
:103BA0000901FE0E026FB6D0C7EC27F00901006FC5
:103BB000090100AF03D009010269ACD00901016B12
:103BC0000C0E0901015D2AE2C7EC27F00901006F24
:103BD000090101510101EA6AE725E96EE851EA228B
:103BE000EF500901005D0AE0120E09010327000EE3
:103BF00009010423000E0901052310D00901005119
:103C00000AE10901012B0C0E0901015D03E2C7EC79
:103C100027F0F7D703D00901012BD2D70C0E0901E9
:103C2000015D74E10B01050EF06F0B01E30EEF6F08
:103C3000D0EC28F002C9EDFB8EEC28F00901DC0E77
:103C4000066F010E076F06C9E9FF07C9EAFF010EFB
:103C5000EF6E06C9E9FF07C9EAFF010EEB6A020E23
:103C6000EB6AC7EC27F0E66E06C9E9FF07C9EAFF71
:103C7000030EE926000EEA22E552E750EF6EC7EC8C
:103C800027F0E66E06C9E9FF07C9EAFF030EE92639
:103C9000000EEA22010EE926000EEA22E552E75064
:103CA000EF6EC7EC27F0E66E06C9E9FF07C9EAFF29
:103CB000030EE926000EEA22020EE926000EEA2291
:103CC000E552E750EF6EC7EC27F0E66E06C9E9FF54
:103CD00007C9EAFF060EE926000EEA22E552E75080
:103CE000EF6EC7EC27F0E66E06C9E9FF07C9EAFFE9
:103CF000060EE926000EEA22010EE926000EEA224F
:103D0000E552E750EF6E0101E42B04D0D1EC27F02F
:103D100004003BD7D1EC27F00901025100D012007A
:103D2000010E0101EA5D04E30B010D0EE8EF1FF047
:103D30000B01060E4DD9EAC1EBF103D80101DC6B92
:103D40001200010E0101EB5D0DE30B010E0EF06F91
:103D50000B01E30EEF6FD0EC28F0EBC1EDFB8EEC26
:103D600028F029D00901DC0E006F010E016F00C997
:103D7000E9FF01C9EAFFEF50020B03E0D1EC27F0A5
:103D800012D000C9E9FF01C9EAFFEF50040B0BE0B4
:103D9000BDEC27F00201A00E596F0CEC28F00009D1
:103DA00002E00400F7D7F90E006E00C9E9FF01C96F
:103DB000EAFF0050EF161200010E0101EC5D03E373
:103DC0000B010F0E12D00901DC0E016F010E026F04
:103DD0009F0E006EBED8E850EF16BBD8EF50010B17
:103DE0000AE1B7D8EF8A0B01080EADD8ECC1EDFBA4
:103DF0008EEC28F0000CADD8EF50020B18E1A9D8DA
:103E0000D5D8A7D8B0D800C050F201C051F20201F5
:103E1000A00E4F6F7CEC27F0000903E19AD8EF82E7
:103E200006D097D8EF8A0B01090E8DD8000CC7EC8D
:103E300027F00901006F8DD8B0D88BD8A2D805E142
:103E40000350011802E185D8EF8C090100511200DE
:103E5000010C0901DC0E026F010E036F02C9E9FFBC
:103E6000EA6EEF50040B05E0400E0101E65D01E350
:103E7000ABD874D8EF50040B11E170D897D86ED836
:103E800072D800C04DF201C04EF297D803E166D857
:103E9000EF8404D00B010B0E56D8000CEEC152F289
:103EA000A9EC27F05BD879D859D86BD805E1035035
:103EB000011802E153D8EF8C010C12001200F36AD2
:103EC000F46A1200156A166A176A1200000C0101E2
:103ED000E5A1000CDCB1000C0B010A0E34D8010185
:103EE000010EDC6F400EDF6FE06BE16B010C09012E
:103EF000DC0E026F010E036F0101DCA504D0400E41
:103F0000E65D01E361D80101DCB50ED0DFC14DF201
:103F1000E0C14EF252D804E10101DC85E66B04D029
:103F20000B010B0E10D8000CF9C152F2A9EC27F0CE
:103F30000101E62BDF2B000EE023E123010C44D826
:103F40000101DC6B010CF06F0B01E30EEF6FD0EFA2
:103F500028F001C9E9FF02C9EAFF120002C9E9FF1E
:103F600003C9EAFF1200030EE926000EEA22EE5012
:103F70000324006EEE500420016EEE500520026E08
:103F80001200060EE926000EEA22EECF02F0EFCF75
:103F900003F00001025000181200EE52EE2A000E4B
:103FA000ED22EECF00F0EDCF01F01200EE52EECF99
:103FB00003F0EFCF04F0056A12000201A00E4C6F6F
:103FC00046EC27F0000912000101EB6BA1EF1EF097
:0A3FD000BADFEAC1EDFB8EEF28F026
:063FDA00140E0101C16F8D
:103FE000C26B0101020EBF6F090EC06F50EC13F0DF
:103FF000F00E09010215400809E00B01020EF06FF6
:104000000B01E60EEF6FD0EC28F0000C0F0E02153E
:10401000040DF3CF16F20201F350006E016A140E84
:10402000005E000E015A00C01CF90901005028086A
:1040300001E2000C1C5100080BE21C510101C16F90
:10404000C26B01011D0EBF6F090EC06F50EC13F063
:104050000CC916F90DC917F909010C6B0D6B140E7B
:104060001BD9020E826F090E836FE3EC1AF0F3CFB7
:1040700018F9F4CF19F90901181F191F1C5100086C
:1040800010E21C5109D91D0E826F090E836FE3ECFB
:104090001AF0F3CF1AF9F4CF1BF909011A1F1B1FED
:1040A00002D01A6B1B6B040EF7D8180E826F090E24
:1040B000836FE3EC1AF0F3CF00F9F4CF01F90901B3
:1040C000F350161902E10151171901E0000C020129
:1040D000020E266F090E276FB2D802011751181170
:1040E0000CE017C2E9FF18C2EAFF12C9EEFF13C9BC
:1040F000EEFF14C9EEFF15C9EEFF19C2E9FF1AC29F
:10410000EAFF060EE3D80EC9EEFF0FC9EEFF10C995
:10411000EEFF11C9EEFF1BC2E9FF1CC2EAFF0BC98B
:10412000EFFF1651026E036A09010250045D006E32
:1041300003500559016E1DC2E9FF1EC2EAFF00C00F
:10414000EEFF01C0EDFF010C0201140E166F090114
:10415000450E2B6F2C6B140E0201222509012D6FC9
:10416000000E0201232109012E6F0201782B000E9F
:10417000792378C22FF979C230F90901316B400EE9
:10418000326F640E336F21C234F9356B366B28C23F
:1041900037F929C238F92AC239F92BC23AF91FC2B4
:1041A000E9FF20C2EAFF060E91D8EECF3BF9EECF31
:1041B0003CF9EECF3DF9EFCF3EF902012B0E266F11
:1041C000090E276F3CD8140E67D82B0E826F090E8C
:1041D000836FE3EC1AF0F3CF35F9F4CF36F9140E10
:1041E000020122250101D06F000E020123210101ED
:1041F000D16F0101CF6B1FC2E9FF20C2EAFF1FC2CE
:10420000CDF120C2CEF172EC15F0140E0101BD6F9C
:10421000BE6B01012B0EBB6F090EBC6FC2EC12F01E
:10422000F36AF46A12000201165124250101D76FC6
:10423000000E020125210101D86F1DEF16F027D8CD
:10424000020E35D8020E38D8020E2BD8020E39D8FD
:10425000040E2DD8040E30D8040E23D8040E31D805
:10426000060E25D8060E28D8060E1BD8060E29D80D
:104270000A0E1DD80A0E20D80A0E13D80A0E03D82B
:1042800045C9EFFF120022D8010E66EF21F026C2C9
:10429000E9FF27C2EAFF12000101846F856B01016B
:1042A000120014D8E552E750EF6E47EF21F00ED818
:1042B000EFCF45F947EF21F0E6DFEF50E66E47EF2D
:1042C00021F0E1DF45C9EFFF47EF21F0E926000EBD
:0442D000EA221200CC
:0C42D4001C0E0101C16FC26B0101000E45
:1042E000BF6F090EC06F50EC13F045EC14F00201E3
:1042F000000E6B6F090E6C6F08D90901010E0019D1
:1043000012E1015110E10451006E016A060E00181D
:104310000AE1015008E10551026E036A040E021819
:1043200001E1035001E0000C020E061905E10751FE
:1043300003E119D9EF6A0DD0010E061906E1075104
:1043400004E1010E10D9EF6E04D0020E0CD9EF6E0D
:10435000000C020128510901185D2EE102012951CA
:104360000901195D29E102012A5109011A5D24E1BF
:1043700002012B5109011B5D1FE164C2E9FF65C207
:10438000EAFF08C9EEFF09C9EEFF0AC9EEFF0BC933
:10439000EEFF0CC9EEFF0DC9EEFF64C2E9FF65C276
:1043A000EAFF060EEAD80EC9EEFF0FC9EEFF10C9EC
:1043B000EEFF11C9EEFF010C000C0101010EB96FF7
:1043C0009DEC12F009011C6FFF0E1C5D01E1000C59
:1043D0000101DA6BDB6B1CC9D9F130EC16F0010E70
:1043E0000901006F016B026B080E036F060E046F6C
:1043F000040E056F02016A050BE1010E0901066F4B
:10440000076B12691369146915691669176914D065
:10441000020E0901066F076B68C2E9FF69C2EAFF75
:10442000EECF12F9EECF13F9EECF14F9EECF15F966
:10443000EECF16F9EFCF17F92CC208F92DC209F902
:104440002EC20AF92FC20BF930C20CF931C20DF994
:1044500028C20EF929C20FF92AC210F92BC211F98C
:104460007BD8EF500E19020132151BE175D8010EF1
:1044700084D8EF5009010F190201331512E16CD8ED
:10448000020E7BD8EF50090110190201341509E121
:1044900063D8030E72D8EF500901111902013515C6
:1044A00009E036C218F937C219F938C21AF939C207
:1044B0001BF909D051D8EECF18F9EECF19F9EECF8C
:1044C0001AF9EFCF1BF90201000E6B6F090E6C6F2A
:1044D0001CD81C0E0101D06FD16B0101060ECF6FED
:1044E0000101120ECD6F090ECE6F72EC15F01C0E8D
:1044F0000101BD6FBE6B0101000EBB6F090EBC6FE9
:10450000C2EC12F0C9EC15F0010C32D819D8F3CF77
:10451000EEFF01C0EDFF2CD8020E2FD811D8020EED
:10452000F3CFEBFF030E01C0EBFF22D8060E25D818
:1045300007D8060EF3CFEBFF070E01C0EBFF12000A
:10454000EECF7CF1EDCF7DF1AFEC1AF0F3CF00F0C0
:10455000F4CF01F0B8EF22F068C2E9FF69C2EAFFC8
:10456000060EBDEF22F066C2E9FF67C2EAFF120045
:104570006BC2E9FF6CC2EAFF1200E926000EEA22D4
:02458000120027
:0E458200E8D8110EEB50050A01E1DAD0010A6B
:1045900001E19AD0070A01E192D0010A61E0030A21
:1045A0001BE0010A01E0D5D00101010EB86F98ECC3
:1045B00012F0000901E1CDD004D9060ED6D8E9CF1A
:1045C00045F2EACF46F20CEC2AF0F7D8010EEF6E76
:1045D0000B010B0EC4D8FF0CBDD8FCC149F2FDC1C4
:1045E0004AF2060EC2D8E9CF47F2EACF48F222ECEF
:1045F0002AF0000922E00B010C0EB1D8DED8020E21
:10460000EF6EA8D80A0EB1D8EECFB7F0EDCFB8F064
:10461000A1D8FCC1B5F0FDC1B6F0B7EC04F0E66E70
:1046200099D80C0EA2D8E552E750EF6ECAD80C0EFE
:10463000EB50FE0801E08DD0010CD0D8640E005C78
:10464000000E015801E285D085D8100E8ED8EF06F5
:1046500001E1010CB2D8EF6A0B010A0E80D8FF0C01
:1046600079D89DD821E00101E96BFAC1E7F1FBC1DE
:10467000E8F18DEC1DF0E66E6DD80D0E76D8E552A2
:10468000E750EF6EA7D8FF0804E10B01010E67D8D1
:10469000050CA0D8FE0804E10B01020E60D8060C40
:1046A0008CD8040EEF6EFF0C99D8E80E005C030E58
:1046B00001584FE30B01150E52D895D8030C96D82C
:1046C00048E07BD8040E3BD091D832E00101DCAD4C
:1046D0000DD040D86CD83ED80C0EEB500001BB6F0B
:1046E00091EC05F06AD8050EEF6EFF0C73D801014E
:1046F000EC6FDCEC1EF00901706F0101DCAB0ED039
:1047000029D855D80B01030E2AD80B01600EF56F7E
:10471000560EF66FE3EC28F066D8040C70C9BEF0B4
:1047200019D80C0EEB500001BD6F0EEC06F0CCD783
:1047300051D80101EB6FA1EC1EF03FD8030EEF6ED4
:10474000FF0C08D82CD804E051D803E04CD8000C5A
:10475000000CFF0CFCC1E9FFFDC1EAFF1200F06F85
:104760000B01E90EEF6FD0EF28F0E926000EEA22E8
:1047700012000C0EEB500001BC6FEBEC05F00009D1
:1047800012000C0EEB500001BA6F3DEF05F0020174
:10479000EE506D5D006EEE506E59016E12000C0E03
:1047A000EB500001B96F34EC05F0000912000D0E5A
:1047B000EB500101EA6F90EF1EF0CCDF110EB5EF68
:1047C00023F0C8DF0E0E6DC2EBFF0F0E6EC2EBFFC3
:1047D000AAEF23F0BFDF0D0EEB501200BBDF0E0E71
:1047E000C4DFC7EF23F0B6DFC1EF23F0B3DFB9EFCB
:0247F00023F0B4
:0E47F20001014A6B8BEC11F0C3EC29F0E5ECF1
:1048000016F02EEF04F00901D16B01014A51040AA0
:1048100001E1E4D0070A01E1AED0050A01E196D03A
:10482000010A01E17ED0050A3EE0070A35E0050AEB
:1048300003E0010A01E0F4D00101D00ECB6F090EB4
:10484000CC6F01014B0EC96F010ECA6F8AEC14F0D8
:10485000000901E1E5D00901010ED16F0901D05134
:1048600004E10101020E4A6F16D0060E0901D05D67
:1048700004E10101050E4A6F0ED045EC14F00B0166
:10488000040EF06F0B01E50EEF6FD0EC28F0D0C9ED
:10489000EEFBB0EC28F0C4D0D0EC29F0000902E027
:1048A00001014A6BBDD00201550E1D6F010E1E6F36
:1048B0000201D00E1B6F090E1C6F02014B0E196F07
:1048C000010E1A6F0201CC0E176F090E186FEDEC76
:1048D0001FF0000921E00901010ED16F0901D00587
:1048E00004E10101030E4A6F16D0060E0901D05DE6
:1048F00004E10101060E4A6F0ED0110E0901D05DD0
:1049000004E10101070E4A6F06D00901D16B45ECA5
:1049100014F001014A6B04D045EC14F001014A6B1C
:104920007FD055C141F156C142F10101CC0E3F6F1C
:10493000090E406F01014B0E3D6F010E3E6FD6EC2C
:1049400018F0000902E001014A6B6AD055C1D7F0A6
:1049500056C1D8F00001CC0ED56F090ED66F0001FC
:104960004B0ED36F010ED46F4DEC09F0000902E03D
:1049700001014A6B55D001014A6B0101290ED88013
:104980005555000E565527E30201790E086F010EAA
:10499000096F0201770E066F010E076F0201550EB7
:1049A000046F010E056F0201570E026F010E036FB7
:1049B0000201D00E006F090E016F1AEC25F00009FC
:1049C0000AE0080E0901D05D06E10901010ED16F70
:1049D0000101040E4A6F45EC14F022D00101010ED2
:1049E000B86F98EC12F000091AE079C112F27AC19E
:1049F00013F277C110F278C111F255C10FF2020122
:104A0000570E0D6F010E0E6F02010C6B02014B0E63
:104A10000A6F010E0B6F94EC25F001014A6B00D078
:104A200004000901D15101E0EED6FFEC07F059EC8A
:044A300012F012006E
:0C4A3400080E0101C16FC26B0101000EF1
:104A4000BF6F090EC06F50EC13F0080E006E04D952
:104A5000E850EF5E01D9EF500101C16FC26B02C295
:104A6000BFF103C2C0F150EC13F002C92AF903C927
:104A70002BF90901026B036B080E0101846F856B32
:104A80000101000E826F090E836FE3EC1AF0F3CF81
:104A90002CF9F4CF2DF909012C1F2D1FDDD8EF5073
:104AA0000101846F856B02C282F103C283F1E3ECE2
:104AB0001AF0F3CF2EF9F4CF2FF909012E1F2F1F73
:104AC000040E0101846F856B01012C0E826F090EAB
:104AD000836FE3EC1AF0F3CF28F9F4CF29F9020140
:104AE000000E146F090E156F8CD800C2E9FF01C2C9
:104AF000EAFF00C9EFFF06C2E9FF07C2EAFF04C9E7
:104B0000EEFF05C9EDFF08C2E9FF09C2EAFF06C9C9
:104B1000EEFF07C9EDFF09012A51281902E12B51C7
:104B2000291901E0000C010C0101010EB96F9DEC87
:104B300012F009012A6FFF0E2A5D01E11200140E26
:104B40000101DA6FDB6B2AC9D9F130EC16F0080EDF
:104B500002010F250901286F296B000E2923016B23
:104B60000CC200F9026B036B10C204F911C205F903
:104B700012C206F913C207F902010F51E66EE66A86
:104B80000DC2E6FF0EC2E6FF080EE66E090EE66EE7
:104B900059EC2AF0006E060EE15E00500201000E94
:104BA000146F090E156F2DD828C984F129C985F114
:104BB0000101000E826F090E836FE3EC1AF0F3CF50
:104BC00002F9F4CF03F9080E02010F250201226F4A
:104BD000236B000E23230201010E216F0AC21FF274
:104BE0000BC220F2A4EC20F028C9BDF129C9BEF106
:104BF0000101000EBB6F090EBC6FC2EC12F0C9EFD1
:104C000015F02FD8040E15D8040EF3CFEBFF050EC8
:104C10001FD8060E0ED8060EF3CFEBFF070E18D8DE
:104C2000020E07D8020EF3CFEBFF030E01C0EBFF1D
:104C30001200E926000EEA22EECF7CF1EDCF7DF1E5
:104C4000AFEC1AF0F3CF00F0F4CF01F031EF26F023
:104C500001C0EBFF31EF26F004C2E9FF05C2EAFF15
:0C4C6000120014C2E9FF15C2EAFF1200A6
:044C6C00DACFE4FFB8
:104C7000E2CFDAFFE9CFE4FFEACFE4FFF6CFE4FFCB
:104C8000F7CFE4FFF5CFE4FFF3CFE4FFF4CFE4FF89
:104C9000FACFE4FF00EE10F00B0EE80403E3EECFD2
:104CA000E4FFFBD700EE00F0100EE80403E3EECFC4
:104CB000E4FFFBD7E652F2A414D09E0ED76E580E36
:104CC000D66E02016D2B000E6E236F23702302013E
:104CD000730706E1640E736F0201712B000E7223DD
:104CE000F2949E50200B05E09D50200B02E051EC09
:104CF00028F09E50100B05E09D50100B02E067EC71
:104D000028F0E55200EE0FF0100EE80403E3E5CFC3
:104D1000EDFFFBD700EE1AF00B0EE80403E3E5CF3E
:104D2000EDFFFBD7E5CFFAFFE5CFF4FFE5CFF3FFCB
:104D3000E5CFF5FFE5CFF7FFE5CFF6FFE5CFEAFFDB
:104D4000E5CFE9FFE5CFDAFF110051EC2BF048D8B1
:104D5000A4EC2BF081EC1DF03DEC28F046EC28F0A3
:104D6000F9EC23F00B014B0EF36F560E60D877D899
:104D7000410E006E560E49D863D8FF0803E103ECDC
:104D800024F0FAD79E510001FF6B0001FF51020A87
:104D900024E0030A0EE0010A20E161D8380E006E1B
:104DA000560E33D80B012B0EF36F560E40D8000170
:104DB000FF2B46D8000907E10001FF2B0B01130E62
:104DC000F36F560E09D0FF0E9E5D07E00001FF2B2A
:104DD0000B01020EF36F560E2AD803EC24F0D5D740
:104DE000F19E240EAC6E900EAB6E080E7E6EAC0E75
:104DF000AF6E7F6A92689368946897689868939C8E
:104E00008A9CD56AF28EF28C1200016E026A00C092
:104E1000E6FFE66E02C0E6FF920EE66E090EE66E53
:104E200084EC2AF0036E050EE15E03501200F46F6D
:104E30000B01020EF26F0B01D90EF16FD7EF28F0C4
:104E400001019F0EFC6F090EFD6F0101920EFA6FBA
:104E5000090EFB6FC1EC22F009019E6F12000901DF
:104E60000A0EA56F010EA66FA76BC90EA86F6C0E78
:0A4E7000A96FD30EAA6FB06B1200F9
:064E7A004BC276F20201BA
:104E8000756B0201080E746F6FEF2BF04DC208F9BD
:104E90004EC209F9C750040B01E0010EE5D8FAE152
:104EA000C580C5B0FED7A1B6010C4CC277F2E1D8DF
:104EB00001E0010CC750040B01E0010ED5D8FAE166
:104EC000C5BC19D009C977F2D4D801E0010CC7508C
:104ED000040B01E0010EC8D8FAE108C977F2C9D87D
:104EE00001E0010CC750040B01E0010EBDD8FAE14E
:104EF000C5AC000C020C020C50C24DF251C24EF275
:104F00004FC24CF2C3DF09010A6FE85005E178D8BF
:104F100009010A6FE85002E00A511200C750040B61
:104F200001E0010EA1D8FAE1C580C5B0FED7A1B657
:104F3000010C02014F290201776F9BD801E0010C9F
:104F4000C750040B01E0010E8FD8FAE1C5AC000C8C
:104F5000020CC750040B01E0010E86D8FAE152C2E0
:104F600077F287D801E0010CC750040B01E0010E75
:104F70007BD8FAE1C5AC000C020CC750040B01E071
:104F8000010E72D8FAE1C584C5B4FED7000C7EECE0
:104F90002BF0C5B6FED7C59AC588C5B8FED7C9508F
:104FA00012007EEC2BF0C5B6FED7C58AC588C5B801
:104FB000FED7C584C5B4FED7000C54C250F255C20A
:104FC00051F253C24FF298DF0901006FE85016E129
:104FD00002015851580700090EE0D9DFE66E0201C0
:104FE00056C2E9FF57C2EAFF562B000E5723E5527F
:104FF000E750EF6EEDD7D5DF0901006F00511200C9
:10500000C750040B01E0010E2FD8FAE1C584C5B4E6
:10501000FED7A1B6010C000CC750040B01E0010E35
:1050200023D8FAE1C580C5B0FED7A1B6010C59C29C
:1050300077F21FD801E0010CC750040B01E0010E0C
:1050400013D8FAE1A1B6010CC5BC03D00901046B69
:1050500003D00901040E046FC584C5B4FED7A1B600
:10506000010C090104511200006E1F0EC51400103E
:0A507000120083EC2BF0000912007F
:06507A000B01EC6BA86BBA
:10508000A96BEA6BEB6B9D9A9D9812009D8A9D9887
:1050900012000B01A96BA9CBA8FBEB6BEBCBEAFBD6
:1050A0001200060EAB1402E0AB98AB889EAA0ED09D
:1050B0000B01EB51EA6AAA0FE96E0B0EEA22AECFA2
:1050C000EFFFEB2B3F0EEB15EB6FF0D712000B0150
:1050D000A851A95D0DE0A851EA6A680FE96E0B0EB0
:1050E000EA22EF50AD6EA82B3F0EA815A86F120054
:1050F0009D98120012000B01EC5112000B01EA51B5
:10510000EA6AAA0FE96E0B0EEA22EFCF00F9EA2B4A
:105110003F0EEA15EA6F0901005112000B01A9299F
:105120003F0B0B01A85D02E10400F8D7F29E9DB889
:1051300005D0EDCBADFF9D88F28E11D00B01A951AA
:10514000EA6A680FE96E0B0EEA22EDCBEFFF0B0166
:10515000A92B3F0E0B01A9150B01A96FF28E1200AE
:105160000B01EE519F0805E2EE390F0B0F0B570FA5
:1051700004D0EE390F0B0F0B300F0B01ED6FCEDFAC
:105180000F0E0B01EE15090804E20F0EEE15570F76
:1051900003D00F0EEE15300F0B01ED6F8EEF28F0E0
:1051A000EFCBEDFBBBDFF0CBEDFB8EEF28F0F1CBCF
:1051B000EDFBB4DFF2CBEDFBB1DFF3CBF5FBF4CBD2
:1051C000F6FBE3EF28F00B01F5CBF6FFF6CBF7FF8C
:1051D000F52B000EF6230800F5CF00F900C9EDFB12
:1051E0009DDF09010051EFE112000B01F7CBE9FF50
:1051F000F8CBEAFFF72B000EF823EFCF06F906C92C
:10520000EDFB8CDF09010651F0E112000B01F9CB37
:10521000E9FFFACBEAFFF92B000EFA23EFCF00F9F2
:10522000EF5004E000C9EDFB79DFF0D712000B016D
:10523000FBCBF6FFFCCBF7FFFB2B000EFC2308009B
:10524000F5CF00F9F55004E000C9EDFB67DFEFD7BB
:0252500012004A
:0E525200D9CFE6FFDACFE6FFFA0EE3CFD9FFA1
:10526000FB0EE3CFDAFFFD0EE35209E72D0EDE6EF3
:10527000FC0EE31EE32AFD0ED8B4E306E31EE6525D
:10528000E652E652FD0EE124E76EFF0EE220E46EE8
:10529000E652F70EE3CFE6FFF70EE3CFE6FF99EC19
:1052A00029F0F90EE124E96EFF0EE220EA6E89ECA6
:1052B00029F00AE186EC29F009E189EC29F008E1FE
:1052C00086EC29F007E108D094EC29F08FEC29F066
:1052D00094EC29F08FEC29F094EC29F0DE6AF90EB9
:1052E000E126FF0EE222FF0EE3CFDAFFE552FF0ECA
:1052F000E3CFD9FFE552FC0EE124E96EFF0EE22078
:10530000EA6EEECFF3FFEFCFF4FF1200EF380F0B92
:105310001200EF500F0B02E1EE52D8841200EF386A
:105320000F0B300FDE6E1200EE500F0B300FDE6EE3
:105330001200FC0EE3CFE9FFFD0EE3CFEAFF100EF3
:10534000E66EEE6AEE6AEF6AD890FD0EE336FE0E68
:10535000E336ED36ED36EF36FF0EE30609E0BAEC44
:1053600029F0EE52BAEC29F0EE52BAEC29F0EDD762
:10537000E56E1200030EEF24E8B6EF6E300EEF2458
:06538000E8BEEF6E000C18
:0A53860002013A6B3B693C693D6986
:105390003E693F694069416B426B436B446B12004D
:1053A00002013A5129E10201270E666F090E676F6B
:1053B00002011D0E646F090E656F6AEC21F0000991
:1053C0002AE00901275115E11DC93BF21EC93CF233
:1053D0001FC93DF220C93EF221C93FF222C940F265
:1053E00023C941F224C942F225C943F226C944F235
:1053F000010C0201010E3A6F02016A6B02011D0EDF
:10540000686F090E696FDDEC21F0000903E002010D
:105410003A6B010C000C010C45C2E9FF46C2EAFFE1
:10542000EECF23F9EECF24F9EECF25F9EFCF26F911
:105430000201010E6A6F02011D0E686F090E696F8D
:10544000DDEF21F047C2E9FF48C2EAFF0201415106
:10545000EE1808E14251EE1805E14351EE1802E161
:105460004451EE1814E0020136510201415D20E181
:10547000020137510201425D1BE102013851020174
:10548000435D16E1020139510201445D11E149C257
:10549000E9FF4AC2EAFF3BC2EEFF3CC2EEFF3DC25B
:1054A000EEFF3EC2EEFF3FC2EEFF40C2EEFF010C38
:0254B000000CEE
:0E54B200D9CFE6FFDACFE6FFFA0EE3CFD9FF3F
:1054C000FB0EE3CFDAFFFC0EE3CFE9FFFD0EE3CFE7
:1054D000EAFFE9CFF3FFEACFF4FFF80EE35003E170
:1054E000F90EE35008E0F80EE30602E2F90EE306D7
:1054F000DECFEEFFF2D7FF0EE3CFDAFFE552FF0E6D
:10550000E3CFD9FFE5521200FB0EE3CFF6FFFC0E0E
:10551000E3CFF7FFFD0EE3CFF8FFFE0EE3CFE9FF89
:10552000FF0EE3CFEAFFE9CFF3FFEACFF4FF090074
:10553000F5CFEFFFEE66FBD71200FE0EE3CFE9FFDB
:10554000FF0EE3CFEAFFE9CFF3FFEACFF4FF610EEE
:10555000EF5C05E67B0EEF5C02E7DF0EEF16EE5226
:04556000F6E112005E
:0C5564002A0EF66E080EF76E000EF86EB0
:1055700002010900F5505F6F0900F550606F03E10B
:105580005F6701D03DD00900F5505A6F0900F55012
:105590005B6F0900F5505C6F09000900F550E96E7A
:1055A0000900F550EA6E090009000900F5505D6F29
:1055B0000900F5505E6F09000900F6CF61F2F7CFE0
:1055C00062F2F8CF63F25AC2F6FF5BC2F7FF5CC229
:1055D000F8FF02015D5302E15E5307E00900F55058
:1055E000EE6E5D07F8E25E07F9D761C2F6FF62C2B0
:1055F000F7FF63C2F8FF02015F07000E605BBFD7D1
:02560000120096
:0E56020046696C652073656E64206572726F78
:1056100072210046696C65207375636365737366F8
:10562000756C6C792073656E74210053656E6469C6
:105630006E672066696C65004156414C2E434749B0
:1056400000494F56414C2E434749005374617274D0
:10565000696E67204170706C69636174696F6E0078
:015660000049
:0F5661004142434445464748494A4B4C4D4E4F02
:10567000505152535455565758595A616263646594
:10568000666768696A6B6C6D6E6F70717273747542
:10569000767778797A303132333435363738392B7A
:0256A0002F00D9
:0E56A200AA6AA96A3F0EA6160901280E006F1B
:1056B000020E016FA950006E016A120E005C000E0E
:1056C00001580CE2A68000C9E9FF01C9EAFF002BDE
:0E56D000000E0123A8CFEFFFA92AECD712008D
:0256DE003F0E7D
:1056E000C716C66AC56A02017451C6127551C7123F
:1056F00094869488C68A76C2C8FF1200C586C7A061
:10570000FED7C950120077C2C9FFC6BEFF0CC7B092
:04571000FED7000CB4
:0C5714000101FE51FE07000907E0090139
:105720000D0E016F0151F6E00107FCD712000101D7
:10573000FF51FF07000907E0080EE66EB5EC2BF0FD
:08574000E5520400F4D7120049
:0857480002016D6B6E6B6F6BCB
:10575000706B716B726B580ED66E9E0ED76E010E0B
:0A576000D56ED58EF284F28A120095
:06576A00FF0EE3501F6E6C
:10577000480E01D04C0EE76EE72EFED7E76AE72E03
:0A578000FED71F2EF7D7000012001D
:06578A001CEE00F02CEE05
:1057900000F0F86A1A9CB2EC2AF0A5EC26F0FDD7CE
:0257A0001200F5
:0E57A20000EE00F00D0EEE6AEA62FDD7120076
:0657B00056322E343700D2
:0257B6000004ED
:0157B80000F0
:0257B9000000EE
:0557BB007C2424247D84
:1057C00072737475767778797A7B24242424242460
:1057D000243E3F404142434445464748494A4B4C9A
:1057E0004D4E4F505152535455565724242424247F
:1057F0002458595A5B5C5D5E5F60616263646566F4
:0C5800006768696A6B6C6D6E6F707100F8
:020000040030CA
:0100010026D8
:0100020006F7
:010003000AF2
:010005008377
:010006008178
:010008000FE8
:01000900C036
:01000A000FE6
:01000B00E014
:01000C000FE4
:01000D0040B2
:0200000400F00A
:100000000A0100010004A3000000FF0000000A0133
:0400100000010401E6
:00000001FF
