:020000040000FA
:0200000010D01E
:02000800FFD027
:08001800FFD0AB6AAC6A9468EA
:10002000EFD0949C948E0C0EAF6E240EAC6E900E9E
:10003000AB6EF29E480EC1D8C8D89EAAEED7C1D8E2
:10004000690AEBE14B0EB9D8BCD8006EBAD8016E84
:10005000B8D8026EB6D8036EB4D8046E045010E05F
:10006000696A00EE05F004C06DF0ABD8EE6E69264B
:100070006D2EFBD7A6D8692603E0020E9ED8E4D7E2
:100080000050040809E3FA6AFB6A0044F92607D025
:100090004BD06BD07ED0B4D7010E8FD8D5D70350BC
:1000A0003F0B0FE101C0F8FF02C0F7FF03C0F6FFEE
:1000B000A68EA69CA684A688550EA76EAA0EA76E2D
:1000C000A68200EE05F001C0F8FF02C0F7FF03C0F2
:1000D000F6FF0A00020E6F6E080E6E6EEECFF5FF91
:1000E0000F006E2EFBD7A69CA68EA684550EA76E7B
:1000F000AA0EA76EA682A6946F2EEED700EE05F08C
:1001000001C0F8FF02C0F7FF03C0F6FF100E6E6ECD
:100110000900EE50F51803E0030E4FD895D76E2E68
:10012000F7D7000E4AD890D700EE05F003C0A9FF1C
:1001300004C06DF0A198EFCFA8FFA69EA69CA68450
:10014000550EA76EAA0EA76EA682A1A8FED7A694EA
:10015000A680EE50A81803E0030E2FD875D7A92A61
:100160006D2EE8D7000E29D86FD7000E26D83F0E87
:10017000F86EF768FE0EF66E0900F5501ED80800FE
:10018000F5501BD8310E19D8300E17D8610E15D87E
:100190005BD7000E12D8696A03C0A9FF04C06DF0D6
:1001A000A69EA69CA680A850692607D8A92A6D2ECF
:1001B000F7D7696CDDEC00F047D79EA8FED7AD6E8F
:1001C00012009EAAFED7AE501200030E6A6E180EE1
:1001D0006B6E020E6C6E6A2E01D06B2E01D06C2EEF
:0601E000FAD700D0120066
:020000040030CA
:0E000000FFFAFCFEFFFEFAFFFFFFFFBFFFFF4F
:00000001FF
