:100000006FC000008CC000008AC0000088C00000E3
:1000100086C0000084C0000082C0000080C00000D4
:100020007EC000007CC000007AC0000078C00000E4
:1000300076C0000074C0000072C0000070C00000F4
:100040000C94E1096CC000006AC0000068C00000A8
:1000500066C0000064C0000062C0000060C0000014
:100060005EC000005CC000005AC0000058C0000024
:1000700056C0000054C0000052C0000050C0000034
:100080004EC000004CC000004AC0000048C0000044
:1000900046C00000B003B203890789078907B4038B
:1000A0008907B603B8038907F4033404890789076D
:1000B00089078907890789078907890789078907C0
:1000C0006B04FC0467058907890789079F05C40538
:1000D000E90589075C068907890789077406F80618
:1000E00011241FBECFEFD0E1DEBFCDBF11E0A0E0F5
:1000F000B1E0EEE6FCE100E00BBF02C007900D921C
:10010000A43EB107D9F722E0A4EEB1E001C01D92F0
:10011000A732B207E1F70E94800C0C94350E70CF25
:1001200082E08093F6010E940D0C882319F08093E1
:100130000D0203C08FEF80930D021092FB0110920D
:10014000FC011092FE011092FD011092FF0110922D
:10015000E4011092E5011092E7011092E60110927D
:10016000E8011092F80110920C021092F201109224
:100170000B021092F1011092120210920F021092D3
:100180000E0210921102109210021092FA011092B7
:10019000F90110920A021092F3011092F7010895EA
:1001A0000E94400C807C803459F08FEF0E94100C2C
:1001B00080E00E94430C80EA0E94470C80E0089592
:1001C00081E008951092F60108950E94400C81117B
:1001D00017C08091FB018F708530B1F40E94400CF4
:1001E00090910102891781F0892F0E94430C8FEFB3
:1001F00080930D020E94100C81E080930B02089501
:10020000809101020C94430C08958091FB018F7042
:10021000823079F49091010280910D02981309C007
:100220008091020280930D020E94100C80E40C94D5
:10023000430C08958091FB018F7099F02091010289
:1002400090910D0229130DC0813029F050F080915A
:100250000202811106C08FEF80930D020E94100CE4
:100260005FCF0895CF93803829F480910C021092CB
:100270000C0291C0813809F487C0823809F486C025
:10028000833809F485C0843919F40E941B0C83C09B
:10029000853919F40E941D0C7EC0863919F40E941C
:1002A0001F0C79C0893820F484580E942E0C73C02A
:1002B00097E7980F983020F4892F0E94340C6BC078
:1002C000813919F480910D0266C0833919F4809147
:1002D0000E0261C0823919F480910F025CC0873927
:1002E00019F40E943A0C57C0883919F40E943C0C4A
:1002F00052C0893919F40E943E0C4DC0C6E6C80FA1
:10030000C430C0F40E944B0C23E030E02C1B3109B8
:10031000220F331F220F331F220F331F287F332753
:10032000DC01CB0104C0B695A795979587952A95D2
:10033000D2F731C0C2E6C80FC430C0F40E944F0CDF
:1003400023E030E02C1B3109220F331F220F331F13
:10035000220F331F287F3327DC01CB0104C0B69561
:10036000A795979587952A95D2F715C090E3980F92
:10037000903120F4892F0E94210C0DC0803E50F056
:10038000805E0E94280C07C081E005C085E003C0A4
:1003900080E001C080E0CF910895882314F462CFFB
:1003A00008950C946F0B0895CF93982F862F809506
:1003B000CCE7C90FC53038F48C2F0E94310C8C2F3C
:1003C0000E942E0C60C0923969F4862F90E0982F1D
:1003D000882720910E02822B90930F0280930E02A9
:1003E000892F51C0933959F480910E0290910F02D8
:1003F0008827862B90930F0280930E0244C0C7E794
:10040000C90FC83090F440910E0290910F02292F2D
:1004100030E02F3F3105B9F54F3FA9F58C2F0E94F1
:10042000370C8C2F0E94340C2EC0C0E3C90FC03192
:1004300090F420910E0290910F02492F50E04F3F0F
:10044000510509F52F3FF9F48C2F0E94270C8C2FB2
:100450000E94210C18C0923AB1F4653531F4109223
:10046000FA011092F90185E50EC06A3A61F48091B3
:10047000F9019091FA01883E934020F40E94530CB8
:100480008AEA01C080E0CF910895882314F48CCFCC
:1004900008950C94AF0B0895EF92FF920F93009183
:1004A000E4010F700F2EF9EEEF2EF1E0FF2EF02D8C
:1004B0002091E50140910D026091E8018091E601F3
:1004C0009091E7010E949D0A811105C09091F80169
:1004D0009F5F9093F8010F91FF90EF90089581E84E
:1004E0008093E4011092E5011092E7011092E60179
:1004F00082E08093E80180910D028093E901CCDFD6
:1005000081E08093F60108958091F1018130A9F195
:1005100020F0823009F488C085C08091F2018F3FBD
:10052000B9F091E89093E4011092E5011092E7018F
:100530001092E60192E09093E8018093E901ACDF2C
:1005400081E08093F10110921102109210026CC0B0
:1005500084E080930B0281E88093E4018FEF809325
:10056000E90187E08093E5011092E7011092E6012E
:1005700083E08093E80190DF57C08091FB018823DE
:1005800004F58091FD019091FE01892B09F04CC08A
:100590008091FF01833009F047C08091F201811101
:1005A00008C082E080930B02109211021092100298
:1005B0003BC08F5F8093F2011092F1011092120202
:1005C00033C08091100290911102893E934060F1F6
:1005D000809112028F5F80931202833000F180912C
:1005E000F20181110CC081E08093F2011092F101BF
:1005F00010921102109210021092120215C08093F4
:100600000D0293E090930B021092F1010E94100CE6
:1006100080E40E94430C1092120261DF05C0109228
:10062000F10102C01092F1011092FB01089593E8CC
:100630009093E40197E09093E50124E130E030935A
:10064000E7012093E60199E09093E8011092E90117
:100650008093EA016093EB011FCF0895CF938091BF
:100660000A028F5F8C3318F480930A0212C0109232
:100670000A028091F3018F5F8093F30180910B0256
:10068000833039F40E94170CC82F0E94140C6C2F71
:10069000CEDF8091F3018C3338F01092F30180911A
:1006A000F7018F5F8093F7018091F701883110F097
:1006B0001092F70180910B02833069F420910902B6
:1006C0002F5F822F8F7090E002971CF42093090215
:1006D00002C010920902CF9108958091FB018F70A2
:1006E000813099F49091010280910D0298130DC010
:1006F00080E88093E4011092E5011092E7011092E6
:10070000E60183E08093E801C7CE08952F923F92DF
:100710004F925F926F927F928F929F92AF92BF9211
:10072000CF92DF92EF92FF920F931F93CF93DF93BD
:1007300000D000D0CDB7DEB78091FD019091FE01D1
:10074000892B09F0E6C38091FF0190E0FC0131970D
:10075000E632F10508F0DDC3E65BFF4F0C94260E90
:1007600034DDD7C3BADFD5C350DDD3C363DDD1C316
:100770008091FB018F70823009F0CBC39091010210
:1007800080910D029813C5C3809102028823B4F0B2
:10079000A6D78093EA01809102028093E90183E069
:1007A0008093E50182E88093E4011092E7011092C2
:1007B000E6018AE08093E8016FDEABC353DD8093EE
:1007C000EA01809102028093E90183E08093E501D0
:1007D00082E88093E4011092E7011092E6018AE03A
:1007E0008093E80159DE95C38091FB018F708330BF
:1007F00009F08FC39091010280910D02981389C373
:10080000809102028823C4F060910302A8D78093EC
:10081000EA01809102028093E90183E08093E5017F
:1008200082E88093E4011092E7011092E6018AE0E9
:100830008093E80131DE6DC360910302B5DD8093E2
:10084000EA01809102028093E90183E08093E5014F
:1008500082E88093E4011092E7011092E6018AE0B9
:100860008093E80119DE55C39091010280910D0239
:1008700098134FC380E0E5D790910302891349C3D1
:1008800083E0DFD790910402891343C385E0D9D771
:100890009091050289133DC387E0D3D7909106025A
:1008A000891337C380910E0290910F02492F55276B
:1008B0002091070230E04217530709F02AC3992715
:1008C0002091080230E08217930709F022C380913B
:1008D0000202B0D71EC38091010282958F708130D1
:1008E00031F138F0823009F440C0833009F45BC044
:1008F00078C080E0A6D790910202891375C081E08C
:10090000A0D79091030289136FC082E09AD790918B
:100910000402891369C083E094D79091050289137A
:1009200063C0809109028061809309025DC084E008
:1009300088D790910202891357C085E082D79091A1
:100940000302891351C086E07CD790910402891379
:100950004BC087E076D790910502891345C08091FE
:1009600009028062809309023FC088E06AD79091B3
:100970000202891339C089E064D790910302891378
:1009800033C08AE05ED79091040289132DC08BE0BA
:1009900058D790910502891327C08091090280647D
:1009A0008093090221C08CE04CD7909102028913F8
:1009B0001BC08DE046D790910302891315C08EE0CD
:1009C00040D79091040289130FC08FE03AD79091DD
:1009D0000502891309C08091090280688093090289
:1009E00003C01092090295C280910902807F803F66
:1009F00009F08FC295DB8DC29091010280910D02AA
:100A0000981387C22090020230900302332009F429
:100A100080C2612C712C412C15E20F2EF4EEAF2E0A
:100A2000F1E0BF2EF02D0F2EF5EECF2EF1E0DF2EF0
:100A3000F02D0F2EF6EEEF2EF1E0FF2EF02D0F2E03
:100A4000F9EE8F2EF1E09F2EF02D832D90E09C018A
:100A5000215031093A832983619E812D1124562C1E
:100A6000581A5694580E052D06950695802F880F16
:100A7000880F880F801B062D081B822D860D8DDCAC
:100A8000E02FF0E0EC51FE4F8683063041F0898183
:100A90009A8168167906A9F481E0800F01C087E089
:100AA0008F57D5018C9323E0F6012083D7011D9247
:100AB0001C922AE1E8EEF1E02083D4014C92ECDCB8
:100AC0004394BFEF6B1A7B0A631430F222C29091F9
:100AD000010280910D0298131CC2F0900202D09086
:100AE000FB018EEF8D0D8770D82EB9F003E012E078
:100AF0000F2EFAEEAF2EF1E0BF2EF02DE82EEF0C08
:100B0000F80161918F018F2DC0DC8F2D46DCD5015E
:100B10008D935D01F394FE10F3CF83E08093E501A4
:100B20001092E7011092E6018AE18093E8011092A9
:100B3000E90181E88D0D8093E401AEDCEAC190917A
:100B4000010280910D029813E4C102E012E0F80165
:100B50008081C5D561E0680FD8018C9100D6809363
:100B6000EA01F80180818093E90183E08093E50147
:100B700082E88093E4011092E7011092E6018AE096
:100B80008093E80189DCC5C19091010280910D023A
:100B90009813BFC102E012E0D8018C91A0D56FEF8D
:100BA000680FF8018081DBD58093EA01D8018C9130
:100BB0008093E90183E08093E50182E88093E4017A
:100BC0001092E7011092E6018AE08093E80164DC6C
:100BD000A0C18091010290910D02891719F08F3FF9
:100BE00009F097C183E08093E50188E88093E401F0
:100BF0001092E7011092E60180E28093E80110E094
:100C0000812C0F2EF9EEEF2EF1E0FF2EF02D0F2E9E
:100C1000FFE07F2EF02D0F2EFAEE4F2EF1E05F2E2B
:100C2000F02DF7018082C72CC11AA42C952C07E067
:100C3000010F12011F5F8C2D04D6D1018D931D0170
:100C4000113108F04FC1CA941013F4CF46C1812F5F
:100C5000FFD5882329F0812FFBD5F701808302C0BF
:100C6000D7011C921F5FBFEFEB1AFB0A153079F713
:100C700013DC85E00F2EF3E0DF2EF02D0F2EF9EEC2
:100C80006F2EF1E07F2EF02DF301D08217E0180FC8
:100C90004A2C592CFF24F394F80EDAD5D2018D9307
:100CA0002D01F11611F08F2DF5CFF6DBD394113213
:100CB00009F42FC1812FE8CF9091010280910D029C
:100CC000981327C183E08093E50187E88093E401CE
:100CD0001092E7011092E60182E28093E80189EE2A
:100CE00091E0E2D5D9DB15C19091010280910D020E
:100CF00098130FC18091FB018F7090E004972CF046
:100D000020900502222021F005C02224239402C055
:100D100022242394E0910E02F0910F02FA83E983DA
:100D20003091020220910302822F90E0932B909346
:100D30000F0280930E0283E08093E5011092E70199
:100D40001092E60187E28093E8011092E901309366
:100D5000EA012093EB01412CA22CB12C0F2EFDEEC9
:100D60006F2EF1E07F2EF02D04E012E00F2EF4EE56
:100D7000CF2EF1E0DF2EF02D0F2EFCEE8F2EF1E0C6
:100D80009F2EF02D0F2EF9EEEF2EF1E0FF2EF02D1D
:100D9000C5018419910904970CF0ACC0322C3418A9
:100DA00084E8830DD6018C93F8018081840DD401F1
:100DB0008C933110AAC00DC0F8018081840D850D7F
:100DC000ECDAAB81BC818D93BC83AB835394531419
:100DD00098F362DB430CF70180818F5F80834214BC
:100DE000B8F229813A8130930F0220930E0291C00C
:100DF0009091010280910D0298138BC0E0900E0239
:100E0000F0900F028091020290E0982F88272091A5
:100E10000302822B90930F0280930E02B090040283
:100E20002B2D30E0E091FB01EF708E2F90E00497C6
:100E3000820F931F2817390784F5A9010F2EFBEFA6
:100E4000CF2EF1E0DF2EF02D0F2EF4E08F2EF2E00A
:100E50009F2EF02D241B350B89010C5F1F4FF801CD
:100E6000E550FE4F66818B2D10DBF801EC51FE4FF3
:100E70008583B3942B2D30E0D4018C91482F50E022
:100E8000D601EC91EF706E2F70E064507109640F21
:100E9000751F26173707F4F201C08B2DF0920F0251
:100EA000E0920E0293E09093E501E058E093E401B4
:100EB0001092E7011092E60197E29093E8011092F8
:100EC000E901909102029093EA01909103029093BC
:100ED000EB018093EC01E0DA1CC0DEDA8394B3E02E
:100EE0008B129FCE0F2EFCEEEF2EF1E0FF2EF02D99
:100EF00010E0ADCE28E8F6012083D8018C91840D56
:100F0000F40180836894332432F87C826B82512C04
:100F100053CF0F900F900F900F90DF91CF911F91B3
:100F20000F91FF90EF90DF90CF90BF90AF909F9088
:100F30008F907F906F905F904F903F902F9008958B
:100F4000EF92FF920F931F938091FB018823C4F0CF
:100F50000F2EF1E0EF2EF2E0FF2EF02D0BEF11E05F
:100F60002CEF31E040E052E06FEF71E08DEF91E067
:100F700045D3882331F0F80190819068908301C0B7
:100F800081E01F910F91FF90EF9008958295807FEF
:100F90008093ED001092EE001092EF001092F0009E
:100FA0001092F1001092F2001092F3001092F400EF
:100FB0001092F5001092F6001092F70088E0EAEF28
:100FC000F0E010828150E9F70895CF93C0E08C2FB4
:100FD000DDDFCF5FCF30D9F7CF910895CF93DF9387
:100FE000EDEEF0E0908180E180838091EF00807CE5
:100FF000A1F08091EE0086FD1BC022E030E0ADEE56
:10100000B0E0EFEEF0E0CEEED0E0822F8295807F70
:101010008C938081807C41F402C021E030E0909389
:10102000ED00822F932F16C0888186FF0AC002C070
:1010300021E030E0EDEEF0E010829083822F932FDC
:1010400009C02F5F3F4F2F303105F9F69093ED0027
:101050008FEF9FEFDF91CF910895843011F140F42D
:10106000813099F190F08230A1F08330B1F046C028
:10107000873019F128F48530C1F08630D1F03EC0B8
:101080008830F9F08F3F21F139C028E14EE066EC5D
:101090001FC028E14EE064E21BC028E14EE062E19F
:1010A00017C028E14EE06EE013C028E14EE066E094
:1010B0000FC028E14EE062E00BC026E144E062E0B0
:1010C00007C022E144E062E003C028E14EE062E6AE
:1010D0006093E2004093E3002093E40076DF1092F7
:1010E000ED00EFEEF0E0808180688083E8EDF0E0D5
:1010F00080818260808380E090E008958DEF9FEF93
:101100000895CF93DF93EC0169DF8F3F2FEF9207B4
:1011100009F483C0982F9295907F9093ED0036DF6D
:101120008D8180FF43C08C818F70805F8093EF0042
:101130008D8182FF08C08881880F880F880F8460A6
:101140008093F00006C08881880F880F880F8093F5
:10115000F00088819981AA81BB81689414F8B695C2
:10116000A795979587951694D1F78093F10088817C
:101170009981AA81BB81072E7DE0B695A7959795A9
:1011800087957A95D1F7702D8093F20088819981A7
:10119000AA81BB81072E75E1B695A795979587958E
:1011A0007A95D1F7702D8093F3001EC08C818F70DB
:1011B0008093EF008D8181FF03C084E08093F00075
:1011C00088818295880F807E8093F20048815981C2
:1011D0006A817B81689412F8769567955795479553
:1011E0001694D1F74093F3008C81882371F0FE01AF
:1011F000369680E090E0AAEFB0E021912C93019622
:101200002C8130E082179307C4F3EFEEF0E0808189
:101210008064808380E090E002C08FEF9FEFDF91D9
:10122000CF910895CF92DF92EF92FF920F931F9389
:10123000CF93DF93FC011092ED008091EE0085FFCB
:1012400093C01582108211821282138214828091BF
:10125000F00082FF02C082E085838091EF0084FF6E
:101260004EC0858181608583C090F3004091F2007B
:101270000091F1008091F00050E060E070E0032EFA
:101280003DE0440F551F661F771F3A95D1F7302D6B
:10129000D12CE12CF12C0B2EB5E1CC0CDD1CEE1C7D
:1012A000FF1CBA95D1F7B02D4C0D5D1D6E1D7F1D35
:1012B00010E020E030E0000F111F221F331F000F4D
:1012C000111F221F331F000F111F221F331F000F7A
:1012D000111F221F331F000F111F221F331F400F2A
:1012E000511F621F731F869586958695480F511D65
:1012F000611D711D408351836283738318C04091C7
:10130000F3008091F20050E0440F551F440F551F29
:10131000440F551F829586958770480F511D66278B
:1013200057FD6095762F408351836283738380914C
:10133000EF008F708483882369F0DF011696815057
:10134000E80FF11D3796CAEFD0E088818D93AE1774
:10135000BF07D9F780E01ADEEFEEF0E08081806809
:10136000808380E090E002C08EEF9FEFDF91CF910D
:101370001F910F91FF90EF90DF90CF900895E0ECD8
:10138000F0E0908195FFFDCF8093C60008951F93F4
:10139000CF93DF93EC012196FC011081112349F0DA
:1013A0001A3011F48DE0EBDF812FE9DF1991111173
:1013B000F7CF8DE0E4DF8AE0E2DFDF91CF911F918C
:1013C00008951F920F920FB60F9211240BB60F9231
:1013D0008F939F93EF93FF9380911002909111024E
:1013E00001969093110280931002809123029091B4
:1013F0002402019690932402809323028091250277
:1014000090912602019690932602809325020099DE
:1014100006C08091F4018F5F8093F40102C01092A6
:10142000F401019908C0E5E1F2E080819181019623
:101430009183808304C010921602109215020299C3
:1014400008C0E7E1F2E08081918101969183808379
:1014500004C01092180210921702039908C0E9E123
:10146000F2E08081918101969183808304C0109283
:101470001A0210921902049908C0EBE1F2E080818F
:10148000918101969183808304C010921C02109276
:101490001B02059908C0EDE1F2E08081918101967F
:1014A0009183808304C010921E0210921D0206993F
:1014B00008C0EFE1F2E08081918101969183808301
:1014C00004C01092200210921F02079908C0E1E2A6
:1014D000F2E08081918101969183808304C0109213
:1014E0002202109221028091F5018F5F8093F50115
:1014F0008091F601823059F48091F501853690F0A3
:1015000095B181E0892785B91092F5010BC0813032
:1015100021F428981092F50105C0811103C0289A82
:101520001092F501FF91EF919F918F910F900BBE5B
:101530000F900FBE0F901F901895CF92DF92EF92F1
:10154000FF920F93CF93DF93CDB7DEB72E970FB6F1
:10155000F894DEBF0FBECDBF6C01F701842F90E081
:10156000A0E0B0E0962BE12CF12C7601DD24CC2418
:101570008C299D29AE29BF29422F50E060E070E000
:10158000032E3AE1440F551F661F771F3A95D1F796
:10159000302D842B952BA62BB72B89839A83AB8375
:1015A000BC8381E08E830D83002331F0402F50E017
:1015B000BF01CE01079650D3109226021092250249
:1015C00005C0CE0101969DDD892B49F08091250251
:1015D00090912602883E9340A0F380E001C081E014
:1015E0002E960FB6F894DEBF0FBECDBFDF91CF9120
:1015F0000F91FF90EF90DF90CF9008956F927F92C0
:101600008F929F92AF92BF92CF92DF92EF92FF9212
:101610000F931F93CF93DF93CDB7DEB72E970FB6FF
:10162000F894DEBF0FBECDBF6C015B014A013901EA
:10163000CE010196F7DD892B31F589819A81AB8145
:10164000BC81F4018083F50190839D013170F60126
:1016500031832083072E7AE1B695A79597958795D4
:101660007A95D1F7702D8770F30180834D81F80151
:101670004083442351F050E0BE01695F7F4FC701B2
:10168000EBD281E003C080E001C081E02E960FB66E
:10169000F894DEBF0FBECDBFDF91CF911F910F91A8
:1016A000FF90EF90DF90CF90BF90AF909F908F9082
:1016B0007F906F900895F999FECF90E092BD81BD23
:1016C000F89A80B590E00895F999FECF90E092BD28
:1016D00081BD60BDFA9AF99A81E090E0089588236F
:1016E00009F439C0813019F482E4E5CF08958230DD
:1016F00019F483E4E0CF0895833019F484E4DBCF58
:101700000895843019F485E4D6CF0895853019F40E
:1017100086E4D1CF0895863019F487E4CCCF0895BC
:10172000873019F488E4C7CF0895883019F489E424
:10173000C2CF0895893019F48AE4BDCF08958A3064
:1017400019F485B18095089590E9980F903128F4A7
:101750008F5BB1CF089580E208958FEF0895CF9306
:10176000811105C081E4B0DF81E4A5DF54C0813080
:1017700029F482E4A9DF82E49EDF4DC0823029F49F
:1017800083E4A2DF83E497DF46C0833029F484E456
:101790009BDF84E490DF3FC0843029F485E494DF4C
:1017A00085E489DF38C0853029F486E48DDF86E45E
:1017B00082DF31C0863029F487E486DF87E47BDF6F
:1017C0002AC0873029F488E47FDF88E474DF23C0EF
:1017D000883029F489E478DF89E46DDF1CC0893022
:1017E00029F48AE471DF8AE466DF15C08A3031F4B7
:1017F0006160609565B985B180950DC090E9980FDD
:10180000903138F4C1E4C80F8C2F5EDF8C2F53DF8A
:1018100002C0862F8095CF91089581E04CCF089526
:10182000682F81E051CF089581E145CF089582E18D
:1018300042CF0895089580E0089580E0089584E0FF
:101840000895E82FF0E0E354FE4F80810895089555
:10185000E82FF0E0EF55FE4F808108958C5F2BCF8D
:1018600008958C5F31CF0895875F25CF0895875FF6
:101870002BCF089580E1089588E0089581E00895D0
:1018800082E019CF0895682F82E01ECF0895682F57
:1018900083E01ACF089560E070E0CB01089560E026
:1018A00070E0CB0108950895FC0182E0808380E719
:1018B0008183128213821482158216828CE591E054
:1018C00066CD0895CF93C82F83E08093E50183E828
:1018D0008093E40170E07093E7016093E601409328
:1018E000E801C093E90181E4E6DE8093EA0183E444
:1018F0008C0FE1DE8093EB010E944C02CF910895A2
:101900008FEF82B911B884B985B91092C00086E012
:101910008093C2001092C50087E68093C40088E1DE
:101920008093C10082E080936E008DE387BD8CE0E0
:1019300084BD789420E040E060E084E08EDB892B79
:1019400019F080E091E023DD8EE191E020DD0E943E
:10195000D000811128C060E081E4B6DE60E082E45E
:10196000B3DE60E083E4B0DE60E084E4ADDE60E03E
:1019700085E4AADE60E086E4A7DE60E087E4A4DE1A
:1019800060E088E4A1DE60E089E49EDE60E08AE455
:101990009BDE60E08BE498DEC1EB60E08C2F94DE90
:1019A000CF5FC13CD1F70E94900055245A940F2E6E
:1019B000FDEF8F2EF1E09F2EF02D0F2EF5E1EF2E93
:1019C000F2E0FF2EF02D8091F401893C70F08091BF
:1019D0000B02813051F050920D02652D81E074DED2
:1019E0000E94900086E491E0D2DCEBEFF1E01082FF
:1019F000A7DA8091230290912402893E934030F02F
:101A000010922402109223020E942E0380910B0256
:101A10008230E9F028F4882349F08130A9F0A0C091
:101A20008330C1F0843009F498C09AC080910D02CF
:101A30008F3F21F481E080930B02AAC083E0809362
:101A40000B020E946F02A4C00E948402A1C00E94E7
:101A50006F029EC0EBEFF1E0808188230CF098C00C
:101A6000F40180819181892B19F40E94860390C032
:101A70008AE591E08CDCF40180819181892B09F465
:101A800087C0C8EB8AEF8C0F16DE6C0180E691E010
:101A90007EDCCC200CF05CC088E791E078DCC6FCF2
:101AA0000BC0E0E0F2E0A080B12C89EF8C0F03DEE8
:101AB000A816B90609F04CC0C4FE0AC0E2E0F2E084
:101AC000A080B12C81E4F7DDA816B90609F040C06A
:101AD0008CEF8C0FF0DD5C018BEF8C0FECDD3C01AB
:101AE0008EEF8C0FE8DD382E8DEF8C0FE4DD960144
:101AF00021703327322F2227A20EB31EF40120813A
:101B000031812A253B25A60142705527542F4427B1
:101B1000640E751E26213721232BD1F4EFEFF1E05F
:101B2000908139268321A1F48FEF8C0FC4DD8130A1
:101B3000910519F0029739F00BC08C2FBCDD682F8E
:101B40008C2D29D005C08C2FB6DD682F8C2D7AD036
:101B5000C85FC83C09F096CF1BC00E94E20018C0C5
:101B600010920B0215C088819981893C91055CF027
:101B700081E991E00CDC43E064E1812FA3DE84ED98
:101B80009EEF998388831F5F2296173061F71BCFE2
:101B9000E70110E0E8CF7F928F929F92AF92BF92C1
:101BA000CF92DF92EF92FF920F931F93CF93DF9329
:101BB000782E062F8DEC91E0EADB0F2EF3E49F2EBA
:101BC000F02DC0E0D0E010E0872D8870782EEE2454
:101BD000E394F12C0F2EF3E0CF2EF2E0DF2EF02D68
:101BE0008C2E98010C2E02C0359527950A94E2F7A9
:101BF00020FF15C0772041F0F601A080B12C892D7F
:101C00005ADDA816B90659F4892D55DD85B197011D
:101C100002C0220F331F8A94E2F7282725B92196A4
:101C20009394FBE49F12DCCFDF91CF911F910F9132
:101C3000FF90EF90DF90CF90BF90AF909F908F90EC
:101C40007F90089585ED91E0A2CB0895EE0FFF1FE0
:101C50000590F491E02D0994FB01DC0102C0019094
:0E1C60000D9241505040D8F70895F894FFCFF0
:101C6E004661696C656420746F206F70656E2043E9
:101C7E00414E206368616E6E656C21210A005653D9
:101C8E004350204154393043414E3132382047655C
:101C9E006E657269632054657374202873746B2D9E
:101CAE00353030290A004E6F646520696E6974699B
:101CBE00616C697A6174696F6E00646F444D0A00DD
:101CCE0064656275672020646F444D2063686563A8
:101CDE006B20726F77730A006465627567202064EB
:101CEE006F444D20726F7720656E61626C65640A79
:101CFE0000427574746F6E20507265737365642143
:101D0E00006575726F736F757263652E73652F61E3
:101D1E0076723132385F30322E786D6C00000000F2
:101D2E000000000000000000000403020161637463
:101D3E00696F6E0A0048656C6C6F20576F726C6429
:041D4E00210A000066
:00000001FF
