:020000040000FA
:0608000081EF17F0120069
:060808001EEF15F01200C6
:06082A000300322F000064
:100830006000000051000000302F00000B0300009A
:10084000020000002E2F000009030000020000003B
:10085000966A868898880201686B696B6A6B6B6B15
:100860006C6B6D6B0A01006B010E005D16E20051AE
:10087000040DF3CF0BF0F4CF0CF0400E0B26000E5E
:100880000C2200513DEC08F00BC0EFFF00513DEC95
:1008900008F0EE52EF80002BE7D7166A0201666976
:1008A0007FDB52EC08F002011F0E4FEC08F0020152
:1008B000896F02011F0E4CEC08F052EC08F00201A7
:1008C000210E47EC08F052EC08F00201080E896F87
:1008D00002010E0E8AEC08F00A0E8AEC08F00B0EEC
:1008E0008DEC08F0040E896F02010C0E8DEC08F0FF
:1008F000020E896F02010D0ECFDBA2EC08F0CCDBFB
:1009000085EC08F0010E8DEC08F0600E896F020195
:10091000020EC2DB85EC08F0030E8DEC08F089694D
:100920000201070E8AEC08F00F0E8DEC08F0610E44
:10093000AEDBBEC289F20201010EAEDBBFC289F29C
:100940000201020EA9DBC0C289F20201030EA4DB80
:10095000C1C289F20201040E9FDBC2C289F2020108
:10096000050E9ADBC3C289F20201060E95DB0A016D
:10097000006B080E005D0AE202018969080E0A0197
:100980000025020189DB0A01002BF3D7BEDB070E2D
:1009900083DB440E136E0201220E79DB9FDB0D0E0A
:1009A000BCDBE00E74DB0201C00E896F0201010E98
:1009B000B1DB040EAFDB010EB0DB200E47EF08F019
:1009C00002010D0EB2DB020168270C5069230201FF
:1009D0000E0EABDB02016A270C506B2302010F0ED7
:1009E000A4DB02016C270C506D2312007BDB01E0BD
:1009F000000C010C77DB01E1000CFF0C78DB86A812
:100A0000FED755DB86A8FED779DB86A8FED78D8C6E
:100A1000670E8D6E400E836E8D9C86A8FED78D8CE2
:100A2000700E8D6E70C283FF8D9C86A8FED78D8C54
:100A3000142A000E1522120002017351741101E1F3
:100A40001200010E73150B6E0C6A73510B240A0110
:100A5000416F020174510C200A01426F956A670EC2
:100A60008D6E400E836E8D9C86A8FED78D8C6A0E8F
:100A70008D6E41CA83FF8D9C86A8FED78D8C6B0E30
:100A80008D6E42CA83FF8D9C86A8FED737DB86A871
:100A9000FED78D8C02017351142674511522700EED
:100AA0008D6E11DB86A8FED78D8C73C23FFA74C29F
:100AB00040FA0A01010E3F5F000E405B0A013FCA87
:100AC0000BF040CA0CF03F07000E405B0B500C10BF
:100AD00006E00201F8DA86A8FED78D8CEFD7120067
:100AE00006DB86A8FED7E3DA86A8FED78D8CFF0E3C
:100AF000145C1DE15F0E155C1AE10A0129692A697F
:100B000029CA8BF22ACA8CF274DAD7DA86A8FED701
:100B10008D8C0201100EC3DA0A01286F296B440E76
:100B20002A6F29CA8BF2E8CF8CF263DA10D0C5DACB
:100B300086A8FED78D8C9568700E8D6E8D9A86A8CE
:100B4000FED783CF28FA8D8A142A000E15220A01B7
:100B50002851120077C268FA78C269FA0201775107
:100B6000781103E1F36AF46A1200956A6A0E8D6ED9
:100B700068CA83FF8D9C86A8FED78D8C6B0E8D6E08
:100B800069CA83FF8D9C86A8FED78D8C96DA86A8CD
:100B9000FED78D8C0A016851142669511522600E0A
:100BA000155C02E31C0E155E9568700E8D6E0A01D1
:100BB00068CA0BF069CA0CF06807000E695B0B503D
:100BC0000C100FE08D9A86A8FED7020175C2E9FFCE
:100BD00076C2EAFF752B000E762383CFEFFF8D8A56
:100BE000E6D777C2F3FF78C2F4FF12007BC200FAA7
:100BF0000A01016B02017B5103E1F36AF46A1200FE
:100C0000956A6A0E8D6E7BC283FF8D9C86A8FED787
:100C10004EDA86A8FED78D8C50DA86A8FED78D8C4A
:100C20009568700E8D6E0A0100512DE000078D9AB7
:100C300086A8FED783CF02FA8D8A020179517A11F4
:100C400009E079C2E9FF7AC2EAFF792B000E7A2324
:100C500002CAEFFF7C510A01025DE5E1200E016F3F
:100C6000956A600E8D6E200E836E8D9C86A8FED7D1
:100C70008D8C6A0E8D6E836A8D9C86A8FED717DADE
:100C800086A8FED78D8C0A01005102017B5D0A0106
:100C9000006FE8500B6E0C6AE85014260C501522B9
:100CA000600E155C02E31C0E155E200E015D05E171
:100CB00014C08BF215C08CF29CD90D6A0A01005148
:100CC00000010D10F36E01CAF4FF120002017D5104
:100CD000D4D9EE52EF901200010E02017E5D06E2C1
:100CE0007E51CBD9EE52EF807EC216F0120013C0B7
:100CF0002DFA0A01010E2C6FE8CF8BF213C08CF293
:100D000078D9EEDE0A012B6FE8CF89F20201030EDB
:100D10004CEF08F005DA0A01006F0201200EB7D986
:100D200013500A01005D05E2600ED88013540025BF
:100D300002D01350005D016FE8500B6E0C6A1C0E60
:100D4000D8800B56000E0C560BC001FA0BC003FAEC
:100D5000026B02CAF3FF0BC0F4FF12000201E00EA7
:100D6000ECD90A01006F0201200E91D90A0100514D
:100D7000040B01E0000C010C81C2E9FF82C2EAFF12
:100D8000EF68CED90A01126F0201200ED6D90A01EE
:100D9000136FDED9100B34E0A5D90A01166F0201DA
:100DA000210E75D90301020E086F53EC17F096D986
:100DB0000A0EB0D90B0E70D90A01165108E0C8D935
:100DC0000A0B02E0000E01D0010E0A01166F0201AB
:100DD000020E896F02010D0EA0D9220E58D912CA37
:100DE00013F085DF020189690201070E93D90D0E08
:100DF00053D90A01165103E00201260E48D9000C0E
:100E00000A011351125D67E013CA15FA146B14CA74
:100E10008BF213CA8CF2EDD8120E0201776F786B49
:100E20000201000E756F0A0E766F94DE0A01005102
:100E3000010B4EE0400E025D000E035949E3EE0E39
:100E4000D8800255050E035543E3600E015D40E274
:100E500001510B6E0C6AD8900C5004E6440E0B5CEA
:100E6000000E0C5835E310CA33F211CA34F276EC96
:100E70000CF0F3CF10FAF4CF11FA060EE66EE66A24
:100E80000A0EE66E0A0EE66E7FC2E9FF80C2EAFF36
:100E90007FC20BF080C20CF07FC2E6FF80C2E6FF8B
:100EA000C1EC16F00D6E060EE15E0D50080E0A0143
:100EB000115D0BE1105103E0060E105D06E181C2E9
:100EC000E9FF82C2EAFF10CAEFFF13CA13F0010C58
:100ED00012CA13F00CDF000C02010A0E896F020126
:100EE000070EDAD827D9EFCF44FA0A01436B43CA79
:100EF0008BF244CA8CF27DD8060E0201736F746BBC
:100F000083C271F284C272F297DDBEC270F276DDE6
:100F1000BFC270F273DDC0C270F270DDC1C270F288
:100F20006DDDC2C270F26ADDC3C270F267DD02011C
:100F3000855103E10A01456B03D00A01060E456F96
:100F40000201080E706F5ADD45CA70F257DD0E0EB1
:100F500002018627000E87233C0E865D000E87590E
:100F600003E23C0E866F876B86C243FA87C244FA5F
:100F700086C289F20201050E8FD844CA89F20201A5
:100F8000060E4CEF08F0DED8C8D8240E80D816C064
:100F900066F2D0D8EE52EF80CDD8EE52EF8212003A
:100FA0009568600E8D6E8D8C8D8A8D8E966A03018C
:100FB000010E076F46EC17F075D88D9E1200600E7B
:100FC000020188118D6E89C283FF956A8D9C86A867
:100FD000FED78D8C12009568600E02018A118D6E0D
:100FE0008D9A86A8FED783CF2EFA8D8A0A012E51BC
:100FF00012008BC214F08CC215F08BC289F2020170
:10100000080E4AD88CC289F20201090E4CEF08F092
:101010000201090E44D80A01016F0201080E3FD8EF
:10102000F36E01CAF4FF120013C003FA0A01120E94
:10103000026F02018D510A01022702018E510A013D
:10104000032302CA8BF203CA8CF2F9EF07F08FC2B6
:1010500016F070D8EFCF2CFA0A010E0E2B6F02019A
:1010600090510A012B27020191510A012C232BCA0E
:101070008BF22CCA8CF2F9EF07F0E96EEA6AD8908D
:10108000E936EA36640EE926020EEA221200896F7A
:101090000201886BDFEF07F0886FDFEF07F08A6FE0
:1010A000EBEF07F00301050E086F53EF17F08D8C7F
:1010B0006B0E8D6E836A8D9C1200600E8D6E0A0E13
:1010C000836E8D9C120071C2E9FF72C2EAFF712B20
:1010D000000E7223EF50836E8D9C12000201896B0B
:1010E0000201120002018A6B76DF040B1200956A7E
:1010F0006A0E8D6E010E836E8D9C12008D8C600EBB
:101100008D6E120E836E8D9C12000201440E896F4B
:1011100002011200C1DF6EEF08F0BEDF0201120013
:101120000201600EB4DFA8EF08F0B9DF0B6E0C6AA5
:10113000E850120016503DEF08F0A9DF0201030E3F
:101140004FEF08F0F7DFEFCF89F20201040E120033
:081150000201070E4FEF08F049
:081158000A01006B020E005DAC
:1011600006E200CAE0F051D80A01002BF7D71200BE
:101170000A01B10E016F000E026F006B020E005DDE
:1011800043E241DB0C0E31DB39DB0D6A0E6A0B509A
:101190000C100D100E1032E136DB0C0EDAC0EBFF36
:1011A0000D0EDBC0EBFF0001DC51DD1111E00A0E7A
:1011B000E66EE66ADCC0E6FFDDC0E6FF24DB01CABE
:1011C0000BF002CA0CF001CAE6FF02CAE6FF2FDBF1
:1011D0001ADB0A0EDEC0EBFF0B0EDFC0EBFF13DBEA
:1011E0000E0EEB6A0F0EEB6A0EDB100EEB6A110EA1
:1011F000EB6A00CAD9F00A0100511200140E01274F
:10120000000E0223002BBAD7FF0C0001E051E3DAF5
:101210000C0EEBDAEE6AED6AE051DDDA060EE5DA85
:10122000EE6AEE6AEE6AEE6AE05129DBEF90120098
:10123000020E0001E15D07E2E1C0D9F00201010EFA
:101240006E6FF6EF04F0000C0001D951140DF3CFCE
:101250000AFAF4CF0BFAB10E0A010A27000E0B238B
:1012600016DBEE50ED100FE1E9DAD2DA14DBD0DA5A
:10127000120EEB50FF0801E1000C1C0E0201906FF2
:10128000916BC6DAE2DAE2C070F2FEEC04F0FFDA4B
:10129000EE2AEF22FCDA05DB01E353D8010C000152
:1012A000D951140DF3CF0AFAF4CF0BFAB10E0A019B
:1012B0000A27000E0B23E7DAEE50ED1011E1BEDA3B
:1012C00098DAE9DA96DA120EEB50FF0803E1F36AD6
:1012D000F46A12001C0E0201906F916B8ADAB5DA83
:1012E000D2DA0001E551EE240B6EE651EE200C6ED1
:1012F000D60ED8800B54030E0C540AE2C4DAEECF9B
:10130000E5F0EFCFE6F0D60ED880E557030EE657AE
:10131000E5C073F2E6C074F2E3C071F2E4C072F2A9
:101320001CEC05F0B0DA0001E551EE26E651ED22A5
:10133000AADAB7DA01E305D8E5C0F3FFE6C0F4FFA7
:1013400012000201010E6E6FF6EC04F0000902E1DA
:101350000400F7D70001D951140DF3CF08FAF4CFE8
:1013600009FAB10E0A010827000E0A01092308CA6A
:10137000E9FF09CAEAFF0C0EE926000EEA22EECFC9
:1013800033F2EDCF34F276EC0CF0F3CF00FAF4CF79
:1013900001FA08CAE9FF09CAEAFF0A0EE926000EA7
:1013A000EA22EECF33F2EDCF34F276EC0CF0F3CF4D
:1013B00002FAF4CF03FA08CAE9FF09CAEAFF0E0EDF
:1013C000E926000EEA22EECF04FAEFCF05FA080E66
:1013D0000A010427000E0A0105230A01066B076BA8
:1013E000140E0201906F916B08CAE9FF09CAEAFF67
:1013F000120EEB5002018F6F27EC08F004CAB4F212
:1014000005CAB5F20201110EB36F08CAE9FF09CA95
:10141000EAFFE9CFB1F2EACFB2F2F5EC0FF004CA7D
:1014200033F205CA34F276EC0CF0F3CF04FAF4CFC1
:1014300005FA080E0201736F746B0201000E716FE2
:101440000A0E726F1CEC05F0C3EC07F008CAE9FF46
:1014500009CAEAFF120EE926000EEA22EF6808CA5E
:10146000E9FF09CAEAFF0E0EEB6A0F0EEB6A1200E3
:10147000020E0001E75D0AE2E7C0D9F0FBD9D8808F
:10148000EE54000EED5401E3000C010C000C13DAD5
:1014900001E1000CD951F3D9EF50010B01E00FDA53
:1014A00070EC05F0E8C0E9FFE9C0EAFFEF6E0DDA85
:1014B000EE06EF5ADFD9EE50ED1002E177EC06F0C0
:1014C000010CF9D903E1F36AF46A1200D951D7D9B2
:1014D000EF50010B01E0F3D9F8D990D9EC510B5C36
:1014E000ED510C5805E2C6D9EECFECF0EDCFEDF0A2
:1014F000ECC077F2EDC078F2EAC075F2EBC076F29C
:10150000AAEC05F0F3CF00FAF4CF01FADED90A0114
:101510000051EE5E0151ED5ACED902E177EC06F0B2
:10152000ECC0F3FFEDC0F4FF1200C5D902E077EC88
:1015300006F0CBD9EE6AED6A1200080E0201776F51
:10154000786B0201460E756F0A0E766FAAEC05F0F5
:1015500046CA5DFA47CA46FA5DCA47FA48CA5DFA02
:1015600049CA48FA5DCA49FA080E0B6E0A014B5186
:10157000D8800B5403E24A055D6F02D04ACA5DFA77
:10158000080E4B5D4A6F5DCA4BFA4C514D116AE033
:101590004CCA5DFA4DCA4CFA5DCA4DFAEEC0E9FF7D
:1015A000EFC0EAFF060E21D9EECF4FFAEECF50FA88
:1015B000EECF51FAEFCF52FA4ED9EFCF53FA010ED8
:1015C00014D9EFCF54FA47D9020E0FD9EFCF55FAFD
:1015D00042D9030E0AD9EFCF56FA576B110E586F46
:1015E000F2C059FAF3C05AFAF2C033F2F3C034F23F
:1015F00076EC0CF0F3CF59FAF4CF5AFA0C0E020144
:101600003B6F3C6B02014F0E396F0A0E3A6FAAEC2A
:101610000CF0F3CF5BFAF4CF5CFA0A015B1F5C1F9E
:10162000060E00D95BCA70F2FEEC04F0070EFAD881
:101630005CCA70F2FEEC04F00201B66BB76B64ECAE
:1016400010F0F2C03DF2F3C03EF216EC0DF0F3CF15
:101650005BFAF4CF5CFA0A014C51F31816E14D51D4
:101660005C1913E1F0C0F8F0F1C0F9F0EEC0F6F04B
:10167000EFC0F7F00001460EF46F0A0EF56F1CD8AC
:101680000A014E6FFF0E4E5D03E177EC06F0010C90
:101690004E51A1D8100EA9D84ACAEEFF4BCAEDFF91
:1016A0004E51EDD8EF80010C0001D95194D8E9CF0B
:1016B000F3FFEACFF4FF12000A010169B10E026FD5
:1016C000000E036F006B020E005D5BE2A6D80C0EED
:1016D000EED8020E8AD8C9D800010D500B184AE185
:1016E0000E500C1847E199D80A0EE1D8BED80D501B
:1016F0000B183EE10E500C183BE18FD8100E75D838
:10170000EECF0FF0EFCF10F0116A126A0F501010E9
:10171000111012102DE1F6C0E9FFF7C0EAFF060E26
:1017200064D8EECF0BF0EECF0CF09FD876D8060E33
:101730005CD8EE500B1808E1EE500C1805E1EE50A5
:101740000D1802E1EE500E1810E0F8C0E9FFF9C0E4
:10175000EAFFE868EE180CE1E868EE1809E1E868CD
:10176000EE1806E1E868EE1803E10A0100511200E4
:1017700000CA01FA0A01140E0227000E0323002BEF
:10178000A2D7FF0E015D24E00151140DF3CF02FA40
:10179000F4CF03FAB10E0227000E03230A0EE66E01
:1017A000E66AF6C0E6FFF7C0E6FF37D802CA0BF0DC
:1017B00003CA0CF002CAE6FF03CAE6FF38D850D8C5
:1017C0001DD82BD80A0E0BC0EBFF0B0E0CC0EBFF85
:1017D0000A0101511200140DF3CFE9FFF4CFEAFF23
:1017E000B10EE926000EEA221200E926000EEA22D6
:1017F00012000ACAE9FF0BCAEAFF1200EECF0BF093
:10180000EFCF0CF0120001CAE9FF02CAEAFF120092
:101810000ACAE9FF0BCAEAFF120002CAE9FF03CABB
:10182000EAFF12000201B66FB76B64EF10F0C1EC73
:1018300016F00D6E060EE15E0D5012000201010E53
:101840006F6FFAEC04F0E66E1200120EEB5002011C
:101850008F6F27EF08F0F0C0E9FFF1C0EAFF120038
:10186000F4C0E9FFF5C0EAFF1200EECF0DF0EFCFB4
:101870000EF01200D951AFDF100EF5EF0BF0ABDF19
:10188000130EF5EF0BF0B5DF0E0EF5EF0BF0C0DF2A
:101890000E0EF5EF0BF0120EA8DFE552E750EF6EDB
:1018A0001200ACDFD60E0B5C030E0C5812009DDF4D
:1018B000A5DF30EF0CF009D8EE50ED101200D95131
:1018C000DEDFEF90080E12EF0CF000013AEF0CF0A3
:1018D000020132390F0B326FE850090804E2410E61
:1018E0003225F60F1200300E3225120034C2F3FFFB
:1018F00033C2F4FF120035C201FA36C202FA37C20F
:1019000003FA38C204FA0A01010E056F0A0E066FC7
:1019100005CAE9FFEA6E030EA1DAEF50E66E030E88
:1019200097DA00CAEFFF73DA020E98DA010E87DA4F
:10193000EF50E66E6CDA020E8BDA010E80DA00CA26
:10194000EFFF01CA04F002CA05F003CA06F004CA98
:1019500007F012000A016C6B6D6B6E6B6F6B39C216
:101960006AFA3AC26BFA3BC268FA3CC269FAD8908A
:101970006933683368CA0BF069CA0CF06807000E57
:10198000695B0B500C1018E06ACAE9FF6BCAEAFFEA
:10199000020E6A27000E6B23EECF0BF0EFCF0CF098
:1019A00000010B500A016C2700010C500A016D2345
:1019B000000E6E236F23DED702013B51010B0EE0B8
:1019C0006ACAE9FF6BCAEAFFEFCF0BF000010B50C8
:1019D0000A016C27000E6D236E236F230A016E51DE
:1019E0006F1119E06CCA0BF06DCA0CF00D6A0E6A2B
:1019F0006ECA0FF06FCA10F0116A126A0B500F24F2
:101A00006C6F0C5010206D6F0D5011206E6F0E50CA
:101A100012206F6FE3D76CCA0BF06DCA0CF00B1E6F
:101A20000C1E0BC0F3FF0CC0F4FF12000A01010EE4
:101A3000006F016B026B02013D513E114EE0400E02
:101A40003D5D000E3E5904E3400E0B6E0C6A04D05F
:101A50003DC20BF03EC20CF00BC005FA0A010B5060
:101A60000201776F786B0201060E756F0A0E766FB2
:101A7000AAEC05F00A0105510B6E0C6A0B5002012D
:101A80003D5F0C503E5B0A01046B0551045DD3E2DF
:101A90000451EA6A060FE96E0A0EEA22EFCF03FA52
:101AA00000510AE103510125016F0351015D0DE26F
:101AB000022B0BE1012B09D003510225026F0351C8
:101AC000025D03E2012B01E1022B005102E0000E56
:101AD00001D0010E006F042BD8D70A01021D026F3E
:101AE000011DF36E02CAF4FF120002013F513908D2
:101AF00005E3300E3F5D02E3300E0FD03F51460844
:101B000005E3410E3F5D02E3370E07D03F51660803
:101B100006E3610E3F5D03E3570E3F5D1200FF0CCD
:101B2000010E0201EA6A4025E96E4151EA22EFCF37
:101B30003FF2DBDF0A01006F40C2E9FF41C2EAFF6A
:101B4000EFCF3FF2D2DF0A01016FFF0E005D03E02D
:101B5000FF0E015D01E1000C0139F00B001142C2E2
:101B6000E9FF43C2EAFFEF6E010C0A01006BA6A277
:101B700002D00400FCD72F0EA616A684020146C28E
:101B8000E9FF47C2EAFF462B000E4723EF50A86E3D
:101B90000A01002B020148510A01D880005501E2D8
:101BA000A86A45C20BF00C6A0B50AA6E020144C22F
:101BB0000BF045C20CF0442B000E45230B50A96ED0
:101BC000550EA76EAA0EA76EA6820000A6A202D08E
:101BD0000400FCD7A850D2E1A6940A01000500D069
:101BE00012000A01006BA6A202D00400FCD73F0E2F
:101BF000A6160A01002B02014D510A01D88000559A
:101C000006E249C2E9FF4AC2EAFFEF6A18D04BC2B6
:101C1000A9FF4CC20BF00C6A0B50AA6E02014B2BB1
:101C2000000E4C23A680A85049C2E9FF4AC2EAFF31
:101C3000EF6E0201492B000E4A23A850DAE10A0197
:101C4000000500D0120051C20BF00B50AA6E50C21A
:101C5000A9FF3F0EA61602014EC2E9FF4FC2EAFFDE
:101C60004E2B000E4F23EFCF00FAA680A8500A019A
:101C7000005D01E0010C005101E1000CA92AEBE13B
:101C8000AA2AE9D7020152C2E9FF53C2EAFF522B46
:101C9000000E5323EFCF00FAEF501FE0610E0A0150
:101CA000005D05E300517A0802E3200E005F0201A7
:101CB00054C2F6FF55C2F7FF542B000E55230800FF
:101CC000F5500A01005D01E0000C54C2F6FF55C258
:101CD000F7FF0800F550D6E1010C000C56C202FADD
:101CE00057C203FA0A01006B016B020158510A0145
:101CF000005D020159510A0101590BE202CAE9FFD4
:101D000003CAEAFF022B000E0323EF6A002B012314
:101D1000ECD712001200030E0201635D37E37CD89A
:101D2000F6BEF7686AD8010E6CD8EF380F0B0B6E51
:101D30007ED80B10F66EF76AF6BEF7685ED8060E10
:101D40000C6E020E5ED8EF500CC0E7FFE75204E0C5
:101D5000E8427F0BE706FCE10B6E010E020183D81F
:101D60000B10F66EF76AF6BEF76847D8020E49D830
:101D7000EF503F0BF66EF76AF6BEF7683ED8030EDB
:101D80006127000E6223030E635FC5D7635100080D
:101D90002EE242D8F6BEF76830D849D80A01006F63
:101DA00002016351010806E2010E2BD8EF380F0B38
:101DB0000A0100130A010051F76AD80FF66E2D0EC2
:101DC000F7220800F550E66E02013DD8020E635D71
:101DD00002E23D0E07D0010E46D8F66EF76AF6BE57
:101DE000F76847D8E66E2FD84BD83D0EEF6E5FC22E
:101DF000E9FF60C2EAFFEF6A12003BD8E66E23EF0C
:101E00000FF0EA6A6125E96E6251EA22120005CA02
:101E1000E9FF06CAEAFF120061C2E9FF62C2EAFFF7
:101E2000EF50E840E8403F0BF66EF76A120061C2DF
:101E3000E9FF62C2EAFFEF38F00B300B1200E9262F
:101E4000000EEA2212001CD8E552E750EF6E120095
:101E5000F6DFE552E750EF6E07EF0FF0F0DFEFCF60
:101E600000FA07EF0FF0CDDFEF50040DF3503C0BFD
:101E70001200D80EF6262D0EF7220800F55012009B
:101E80005FC2E9FF60C2EAFF5F2B000E6023120011
:101E9000140E0201776F786B0201020E756F0A0E45
:101EA000766FAAEC05F0F00E0A010215400801E079
:101EB000000C0F0E0215040DF3CFA8F2F3500B6EB9
:101EC0000C6A140E0B5E000E0C5A0BC01CFA0B5061
:101ED000280801E2000C1C5100080BE21C51020111
:101EE000776F786B02011D0E756F0A0E766FAAEC84
:101EF00005F00CCA16FA0DCA17FA0A010C6B0D6B25
:101F0000140E1BD9020E396F0A0E3A6FAAEC0CF0B0
:101F1000F3CF18FAF4CF19FA0A01181F191F1C5130
:101F2000000810E21C5109D91D0E396F0A0E3A6FD4
:101F3000AAEC0CF0F3CF1AFAF4CF1BFA0A011A1F1D
:101F40001B1F02D01A6B1B6B040EF7D8180E396FCB
:101F50000A0E3A6FAAEC0CF0F3CF00FAF4CF01FAB4
:101F60000A01F350161902E10151171901E0000CA2
:101F70000201020EB86F0A0EB96FB2D80201A95160
:101F8000AA110CE0A9C2E9FFAAC2EAFF12CAEEFF39
:101F900013CAEEFF14CAEEFF15CAEEFFABC2E9FF8B
:101FA000ACC2EAFF060EE3D80ECAEEFF0FCAEEFF80
:101FB00010CAEEFF11CAEEFFADC2E9FFAEC2EAFFE2
:101FC0000BCAEFFFA8510D6E0E6A0A010D50045D99
:101FD0000B6E0E5005590C6EAFC2E9FFB0C2EAFF9E
:101FE0000BC0EEFF0CC0EDFF010C0201140EA86F38
:101FF0000A01450E2B6F2C6B140E0201B4250A0149
:102000002D6F000E0201B5210A012E6F03010B2B6B
:10201000000E0C230BC32FFA0CC330FA0A01316BEC
:10202000400E326F640E336FB3C234FA356B366BC9
:10203000BAC237FABBC238FABCC239FABDC23AFAE0
:10204000B1C2E9FFB2C2EAFF060E91D8EECF3BFA69
:10205000EECF3CFAEECF3DFAEFCF3EFA02012B0E67
:10206000B86F0A0EB96F3CD8140E67D82B0E396FB3
:102070000A0E3A6FAAEC0CF0F3CF35FAF4CF36FA29
:10208000140E0201B4250201866F000E0201B52173
:102090000201876F0201856BB1C2E9FFB2C2EAFF9C
:1020A000B1C283F2B2C284F26CEC07F0140E0201EA
:1020B000736F746B02012B0E716F0A0E726F1CEC42
:1020C00005F0F36AF46A12000201A851B625020174
:1020D0008D6F000E0201B72102018E6F14EF08F020
:1020E00027D8020E35D8020E38D8020E2BD8020E91
:1020F00039D8040E2DD8040E30D8040E23D8040E7F
:1021000031D8060E25D8060E28D8060E1BD8060E86
:1021100029D80A0E1DD80A0E20D80A0E13D80A0E86
:1021200003D845CAEFFF120022D8010EB7EF10F016
:10213000B8C2E9FFB9C2EAFF120002013B6F3C6B73
:102140000201120014D8E552E750EF6E98EF10F03C
:102150000ED8EFCF45FA98EF10F0E6DFEF50E66EBD
:1021600098EF10F0E1DF45CAEFFF98EF10F0E92695
:06217000000EEA2212003D
:0A2176001C0E0201776F786B020166
:10218000000E756F0A0E766FAAEC05F077EC06F07C
:102190000201000EFD6F0A0EFE6F08D90A01010E42
:1021A000001912E1015110E104510B6E0C6A060E88
:1021B0000B180AE10C5008E105510D6E0E6A040E71
:1021C0000D1801E10E5001E0000C020E061905E1A8
:1021D000075103E119D9EF6A0DD0010E061906E186
:1021E000075104E1010E10D9EF6E04D0020E0CD994
:1021F000EF6E000C0201BA510A01185D2EE10201D6
:10220000BB510A01195D29E10201BC510A011A5DA5
:1022100024E10201BD510A011B5D1FE1F6C2E9FF85
:10222000F7C2EAFF08CAEEFF09CAEEFF0ACAEEFFCC
:102230000BCAEEFF0CCAEEFF0DCAEEFFF6C2E9FFB5
:10224000F7C2EAFF060EEAD80ECAEEFF0FCAEEFF8B
:1022500010CAEEFF11CAEEFF010C000C0201010EC4
:102260006F6FFAEC04F00A011C6FFF0E1C5D01E1B8
:10227000000C0201906B916B1CCA8FF227EC08F0E6
:10228000010E0A01006F016B026B080E036F060E50
:10229000046F040E056F0201FC050BE1010E0A013B
:1022A000066F076B12691369146915691669176956
:1022B00014D0020E0A01066F076BFAC2E9FFFBC2D7
:1022C000EAFFEECF12FAEECF13FAEECF14FAEECF0A
:1022D00015FAEECF16FAEFCF17FABEC208FABFC250
:1022E00009FAC0C20AFAC1C20BFAC2C20CFAC3C2CE
:1022F0000DFABAC20EFABBC20FFABCC210FABDC2C6
:1023000011FA7BD8EF500E190201C4151BE175D8E4
:10231000010E84D8EF500A010F190201C51512E110
:102320006CD8020E7BD8EF500A0110190201C615B5
:1023300009E163D8030E72D8EF500A0111190201A6
:10234000C71509E0C8C218FAC9C219FACAC21AFAEE
:10235000CBC21BFA09D051D8EECF18FAEECF19FA3A
:10236000EECF1AFAEFCF1BFA0201000EFD6F0A0E34
:10237000FE6F1CD81C0E0201866F876B0201060ED1
:10238000856F0201120E836F0A0E846F6CEC07F0EA
:102390001C0E0201736F746B0201000E716F0A0E46
:1023A000726F1CEC05F0C3EC07F0010C32D819D8A1
:1023B000F3CFEEFF0CC0EDFF2CD8020E2FD811D8B2
:1023C000020EF3CFEBFF030E0CC0EBFF22D8060E7C
:1023D00025D807D8060EF3CFEBFF070E0CC0EBFF96
:1023E0001200EECF33F2EDCF34F276EC0CF0F3CFF7
:1023F0000BF0F4CF0CF009EF12F0FAC2E9FFFBC2C8
:10240000EAFF060E0EEF12F0F8C2E9FFF9C2EAFF8A
:102410001200FDC2E9FFFEC2EAFF1200E926000E2B
:04242000EA2212009A
:0C242400080E0201776F786B0201000EB9
:10243000756F0A0E766FAAEC05F0080E0B6E04D9C4
:10244000E850EF5E01D9EF500201776F786B94C2CC
:1024500075F295C276F2AAEC05F002CA2AFA03CA0E
:102460002BFA0A01026B036B080E02013B6F3C6BF7
:102470000201000E396F0A0E3A6FAAEC0CF0F3CF8E
:102480002CFAF4CF2DFA0A012C1F2D1FDDD8EF50A6
:1024900002013B6F3C6B94C239F295C23AF2AAEC4E
:1024A0000CF0F3CF2EFAF4CF2FFA0A012E1F2F1FB4
:1024B000040E02013B6F3C6B02012C0E396F0A0EB9
:1024C0003A6FAAEC0CF0F3CF28FAF4CF29FA020104
:1024D000000EA66F0A0EA76F8CD892C2E9FF93C2B6
:1024E000EAFF00CAEFFF98C2E9FF99C2EAFF04CAF7
:1024F000EEFF05CAEDFF9AC2E9FF9BC2EAFF06CADA
:10250000EEFF07CAEDFF0A012A51281902E12B51FB
:10251000291901E0000C010C0201010E6F6FFAECA9
:1025200004F00A012A6FFF0E2A5D01E11200140E69
:102530000201906F916B2ACA8FF227EC08F0080E07
:102540000201A1250A01286F296B000E2923016BC6
:102550009EC200FA026B036BA2C204FAA3C205FA80
:10256000A4C206FAA5C207FA0201A151E66EE66A04
:102570009FC2E6FFA0C2E6FF080EE66E0A0EE66EF8
:10258000C1EC16F00B6E060EE15E0B500201000E60
:10259000A66F0A0EA76F2DD828CA3BF229CA3CF2B3
:1025A0000201000E396F0A0E3A6FAAEC0CF0F3CF5D
:1025B00002FAF4CF03FA080E0201A1250201B46F5A
:1025C000B56B000EB5230201010EB36F9CC2B1F2D0
:1025D0009DC2B2F2F5EC0FF028CA73F229CA74F268
:1025E0000201000E716F0A0E726F1CEC05F0C3EF52
:1025F00007F02FD8040E15D8040EF3CFEBFF050E0D
:102600001FD8060E0ED8060EF3CFEBFF070E18D814
:10261000020E07D8020EF3CFEBFF030E0CC0EBFF48
:102620001200E926000EEA22EECF33F2EDCF34F2AB
:1026300076EC0CF0F3CF0BF0F4CF0CF029EF13F0A5
:102640000CC0EBFF29EF13F096C2E9FF97C2EAFF37
:0C2650001200A6C2E9FFA7C2EAFF1200B8
:04265C00DDC2FCF0EF
:102660000001FB6B0001080EFA6F2BEF17F0DFC2C1
:1026700000FAE0C201FAC750040B01E0010EE5D8F0
:10268000FAE1C580C5B0FED7A1B6010CDEC2FDF0EF
:10269000E1D801E0010CC750040B01E0010ED5D8D0
:1026A000FAE1C5BC19D001CAFDF0D4D801E0010C93
:1026B000C750040B01E0010EC8D8FAE100CAFDF0D2
:1026C000C9D801E0010CC750040B01E0010EBDD8D0
:1026D000FAE1C5AC000C020C020CE2C2DFF2E3C26C
:1026E000E0F2E1C2DEF2C3DF0A01036FE85005E168
:1026F00078D80A01036FE85002E003511200C75076
:10270000040B01E0010EA1D8FAE1C580C5B0FED7E7
:10271000A1B6010C0201E1290001FD6F9BD801E087
:10272000010CC750040B01E0010E8FD8FAE1C5ACD3
:10273000000C020CC750040B01E0010E86D8FAE130
:10274000E4C2FDF087D801E0010CC750040B01E0A2
:10275000010E7BD8FAE1C5AC000C020CC750040B8B
:1027600001E0010E72D8FAE1C584C5B4FED7000CB1
:102770003AEC17F0C5B6FED7C59AC588C5B8FED7DE
:10278000C95012003AEC17F0C5B6FED7C58AC58805
:10279000C5B8FED7C584C5B4FED7000CE6C2E2F2C8
:1027A000E7C2E3F2E5C2E1F298DF0A01026FE85006
:1027B00016E10201EA51EA0700090EE0D9DFE66EF0
:1027C0000201E8C2E9FFE9C2EAFFE82B000EE923B3
:1027D000E552E750EF6EEDD7D5DF0A01026F0251E7
:1027E0001200C750040B01E0010E2FD8FAE1C58496
:1027F000C5B4FED7A1B6010C000CC750040B01E014
:10280000010E23D8FAE1C580C5B0FED7A1B6010CF0
:10281000EBC2FDF01FD801E0010CC750040B01E032
:10282000010E13D8FAE1A1B6010CC5BC03D00A0110
:10283000006B03D00A01040E006FC584C5B4FED737
:10284000A1B6010C0A01005112000B6E1F0EC51437
:0C2850000B1012003FEC17F00009120002
:04285C000201016B09
:1028600028EC04F0DCEC15F0ACEF08F00A01756B15
:1028700002010151040A01E1B7D0070A01E181D048
:10288000040A6AE0050A32E0070A29E0050A03E0C3
:10289000010A01E0CBD00201740E816F0A0E826F33
:1028A0000201020E7F6F020E806FBCEC06F0000981
:1028B00001E1BCD00A01010E756F0A01745104E1F7
:1028C0000201020E016F0AD0060E0A01745D04E1D6
:1028D0000201050E016F02D077EC06F0A7D0E9ECFB
:1028E00015F0000902E00201016BA0D002010C0EFC
:1028F000AF6F020EB06F0201740EAD6F0A0EAE6FB5
:102900000201020EAB6F020EAC6F0201700EA96FD6
:102910000A0EAA6F48EC0FF0000919E00A01010E37
:10292000756F0A01740504E10201030E016F0ED0F8
:10293000110E0A01745D04E10201070E016F06D059
:102940000A01756B77EC06F00201016B04D077EC9D
:1029500006F00201016B6AD00CC2F2F00DC2F3F076
:102960000001700EF06F0A0EF16F0001020EEE6FA3
:10297000020EEF6F9DEC0AF0000902E00201016B0C
:1029800055D00201016B0201290ED8800C55000EB2
:102990000D5527E30201300E9A6F020E9B6F020164
:1029A0002E0E986F020E996F02010C0E966F020E9A
:1029B000976F02010E0E946F020E956F0201740E56
:1029C000926F0A0E936F12EC12F000090AE0080EE3
:1029D0000A01745D06E10A01010E756F0201040E21
:1029E000016F77EC06F022D00201010E6E6FF6EC5B
:1029F00004F000091AE030C2A4F231C2A5F22EC2DE
:102A0000A2F22FC2A3F20CC2A1F202010E0E9F6F1E
:102A1000020EA06F02019E6B0201020E9C6F020E5D
:102A20009D6F8CEC12F00201016B00D004000A01D2
:0C2A3000755101E01BD7E0EC04F012002F
:042A3C00DACFE4FF0A
:102A4000E9CFE4FFEACFE4FF00EE0BF0080EE80464
:102A500003E3EECFE4FFFBD7E652F2A414D09E0EC0
:102A6000D76E580ED66E0301002B000E01230223F1
:102A700003230301060706E1640E066F0301042B1E
:102A8000000E0523F294E55200EE12F0080EE80461
:102A900003E3E5CFEDFFFBD7E5CFEAFFE5CFE9FFA5
:102AA000E5CFDAFF11000DEC17F073D860EC17F0EA
:102AB0002EEC14F00001FF6BFFC0FEF00A0E0201C5
:102AC000586F596B02015E0E566F0A0E576F6EEC0F
:102AD0000EF00001DE6BDF6B00015E0EDC6F0A0E94
:102AE000DD6F00016B0EDA6FD30EDB6FB8EC08F010
:102AF0000301096FFF0E095D03010A510301005D27
:102B00000B6E320E0B5C04E300C30AF3939C8A7CC9
:102B100003D836EC14F0F0D709C3E7F038EC0AF02C
:102B200000091AE000010C0EE86F0A0EE96F47EC8D
:102B30000AF000090FE00001FF51FF2BEA6A000FC5
:102B4000E96E010EEA220CCAEFFFFE51FF5DEAE1D9
:102B5000FE2BE8D795EC0AF00001FE51FF5D18E06E
:102B600009C3E1F018EC09F0000912E00001FF517F
:102B7000FE5D0CE0FE51FE2BEA6A000FE96E010ECD
:102B8000EA22EFCFE2F024EC09F0F0D7A1EC09F053
:102B90001200F18ED56AF28EF28C240EAC6E900E7D
:102BA000AB6E080E7E6EAC0EAF6E7F6A9268936855
:082BB000946897689868120010
:082BB8000201CC6BCD69CE696E
:102BC000CF69D069D169D269D36BD46BD56BD66B21
:102BD00012000201CC5129E10201270EF86F0A0E02
:102BE000F96F02011D0EF66F0A0EF76FBBEC10F0C5
:102BF00000092AE00A01275115E11DCACDF21ECABB
:102C0000CEF21FCACFF220CAD0F221CAD1F222CA14
:102C1000D2F223CAD3F224CAD4F225CAD5F226CAE4
:102C2000D6F2010C0201010ECC6F0201FC6B020115
:102C30001D0EFA6F0A0EFB6F2EEC11F0000903E077
:102C40000201CC6B010C000C010CD7C2E9FFD8C209
:102C5000EAFFEECF23FAEECF24FAEECF25FAEFCF3C
:102C600026FA0201010EFC6F02011D0EFA6F0A0E18
:102C7000FB6F2EEF11F0D9C2E9FFDAC2EAFF0201C1
:102C8000D351EE1808E1D451EE1805E1D551EE18F4
:102C900002E1D651EE1814E00201C8510201D35DE1
:102CA00020E10201C9510201D45D1BE10201CA51B8
:102CB0000201D55D16E10201CB510201D65D11E1A1
:102CC000DBC2E9FFDCC2EAFFCDC2EEFFCEC2EEFFFF
:102CD000CFC2EEFFD0C2EEFFD1C2EEFFD2C2EEFFF6
:042CE000010C000CD7
:0C2CE4002A0EF66E080EF76E000EF86E59
:102CF00002010900F550F16F0900F550F26F03E190
:102D0000F16701D03DD00900F550EC6F0900F55096
:102D1000ED6F0900F550EE6F09000900F550E96EFE
:102D20000900F550EA6E090009000900F550EF6F3F
:102D30000900F550F06F09000900F6CFF3F2F7CF64
:102D4000F4F2F8CFF5F2ECC2F6FFEDC2F7FFEEC2F7
:102D5000F8FF0201EF5302E1F05307E00900F550DC
:102D6000EE6EEF07F8E2F007F9D7F3C2F6FFF4C210
:102D7000F7FFF5C2F8FF0201F107000EF25BBFD7C3
:022D800012003F
:0E2D8200D9CFE6FFDACFE6FFFA0EE3CFD9FF96
:102D9000FB0EE3CFDAFFFC0EE3CFE9FFFD0EE3CF3E
:102DA000EAFFE9CFF3FFEACFF4FFF80EE35003E1C7
:102DB000F90EE35008E0F80EE30602E2F90EE3062E
:102DC000DECFEEFFF2D7FF0EE3CFDAFFE552FF0EC4
:082DD000E3CFD9FFE552120028
:082DD8004142434445464748CF
:102DE000494A4B4C4D4E4F505152535455565758DB
:102DF000595A6162636465666768696A6B6C6D6E77
:102E00006F707172737475767778797A3031323386
:092E10003435363738392B2F0018
:062E1A00AA6AA96A3F0E3E
:102E2000A6160A01BA0E006F020E016FA9500B6EB2
:102E30000C6A120E0B5C000E0C580CE2A68000CA45
:102E4000E9FF01CAEAFF002B000E0123A8CFEFFF24
:062E5000A92AECD71200D4
:0A2E56003F0EC716C66AC56A0001E8
:102E6000FA51C612FB51C71294869488C68AFCC0D8
:102E7000C8FF1200C586C7A0FED7C9501200FDC00A
:0C2E8000C9FFC6BEFF0CC7B0FED7000C97
:042E8C0003010751E6
:102E90000707000907E00A010D0E016F0151F6E076
:102EA0000107FCD71200030108510807000907E0D9
:102EB000080EE66E71EC17F0E5520400F4D712002C
:102EC0000301006B016B026B036B046B056B580E07
:102ED000D66E9E0ED76E010ED56ED58EF284F28A16
:022EE0001200DE
:0E2EE200FF0EE350176E480E01D04C0EE76E47
:102EF000E72EFED7E76AE72EFED7172EF7D700009A
:022F00001200BD
:0E2F02001CEE00F02CEE00F0F86A0A9C72EC57
:0A2F100016F053EC15F0FDD7120087
:062F1A0000EE00F00D0EB8
:082F2000EE6AEA62FDD712001F
:062F280056322E34370082
:022F2E00FF00A2
:022F300000009F
:0E2F32007C2424247D72737475767778797A06
:102F40007B242424242424243E3F404142434445FE
:102F5000464748494A4B4C4D4E4F50515253545599
:102F6000565724242424242458595A5B5C5D5E5F00
:102F7000606162636465666768696A6B6C6D6E6FD9
:032F80007071006D
:020000040030CA
:0100010026D8
:0100020006F7
:010003000AF2
:010005008377
:010006008178
:010008000FE8
:010009008076
:01000A000FE6
:01000B008074
:01000C000FE4
:01000D0000F2
:0200000400F00A
:100000000A0100010004A3000000FF0000000A0133
:0400100000010401E6
:00000001FF
