:020000040000FA
:060000009DEF08F0120064
:060018009EEF04F012004F
:02002A000000D4
:04002C00D9CFE6FF43
:10003000E1CFD9FF800EE66E7ED8E552070E706ED6
:10004000BF0E716E020E726EFE0EDB5003E0440EA8
:10005000606E02D0640E606E60CF50FF200E736E33
:10006000010EE66EE66AE66AE66AE66AE66A41DA82
:10007000006E060EE15E0050010EE66EE66AE66A6C
:10008000E66AE66AE66E35DA006E060EE15E00505C
:10009000010EE66EE66AE66AE66AE66AE66A5FDA34
:1000A000006E060EE15E0050010EE66EE66AE66A3C
:1000B000E66AE66AE66E53DA006E060EE15E00500E
:1000C000010EE66EE66AE66AE66AE66A020EE66E29
:1000D00046DA006E060EE15E0050010EE66EE66A3C
:1000E000E66AE66AE66A030EE66E39DA006E060E26
:1000F000E15E0050010EE66EE66AE66AE66AE66ACE
:10010000040EE66E2CDA006E060EE15E0050010E63
:10011000E66EE66AE66AE66AE66A050EE66E1FDAEB
:10012000006E060EE15E0050E66A05D8E552E55223
:10013000E7CFD9FF1200D9CFE6FFE1CFD9FFFE0EFE
:10014000DB506F6EE00E6E14006EFE0EDB50005C36
:1001500001E0F8D7E552E7CFD9FF1200D9CFE6FF8B
:10016000E1CFD9FF020EE126D950F90F006EFF0E44
:10017000DA20016E00C0DEFF01C0DDFFF80EDB50AB
:1001800001E189D0DECFE9FFDDCFEAFF020EE926EB
:10019000000EEA22EF50E00BE838E840E66EFD0E74
:1001A000DBCFE9FFFE0EDBCFEAFFE552E750EF6E53
:1001B000DECFE9FFDDCFEAFF030EE926000EEA22DB
:1001C000EF50080DF3CF00F0FD0EDBCFE9FFFE0E80
:1001D000DBCFEAFF0050EF12FD0EDB2AFE0E01E33B
:1001E000DB2ADECFE9FFDDCFEAFF020EE926000EB3
:1001F000EA22EF50080DF350E00BE66EFD0EDBCF68
:10020000E9FFFE0EDBCFEAFFE552E750EF6EFD0E91
:10021000DBCFE9FFFE0EDBCFEAFFEF86DECFE9FFA3
:10022000DDCFEAFF020EE926000EEA22EF50030BB3
:10023000006EFD0EDBCFE9FFFE0EDBCFEAFF0050C4
:10024000EF12FD0EDB2AFE0E01E3DB2ADECFE9FF13
:10025000DDCFEAFFEE52EF50E66EFD0EDBCFE9FF99
:10026000FE0EDBCFEAFFE552E750EF6EFD0EDB2A14
:10027000FE0E01E3DB2ADECFE9FFDDCFEAFFEF5020
:10028000E66EFD0EDBCFE9FFFE0EDBCFEAFFE552A7
:10029000E750EF6E3AD0DECFE9FFDDCFEAFFEF5057
:1002A000E840E840E8401F0BE66EFD0EDBCFE9FFBB
:1002B000FE0EDBCFEAFFE552E750EF6EDECFE9FF3F
:1002C000DDCFEAFFEE52EF50200DF3CF00F0FD0E30
:1002D000DBCFE9FFFE0EDBCFEAFF0050EF12FD0E91
:1002E000DB2AFE0E01E3DB2ADECFE9FFDDCFEAFFEA
:1002F000EF50200DF350E66EFD0EDBCFE9FFFE0E52
:10030000DBCFEAFFE552E750EF6E020EE15C02E25E
:10031000E16AE552E16EE552E7CFD9FF1200D9CF8D
:10032000E6FFE1CFD9FF020EE126FB0EDBCFDEFFB9
:10033000DBCFDDFFFA0EDB5001E185D0FD0EDBCF18
:10034000E9FFFE0EDBCFEAFFEF50200DF350E66E23
:10035000DECFE9FFDDCFEAFF020EE926000EEA223A
:10036000E552E750EF6EFD0EDBCFE9FFFE0EDBCF6F
:10037000EAFFEF50E840E840E8401F0BE66EDECFB2
:10038000E9FFDDCFEAFF030EE926000EEA22E5527F
:10039000E750EF6EFD0EDB2AFE0E01E3DB2AFD0EB9
:1003A000DBCFE9FFFE0EDBCFEAFFEF50030B006E61
:1003B000DECFE9FFDDCFEAFF020EE926000EEA22DA
:1003C0000050EF12FD0EDBCFE9FFFE0EDBCFEAFFA0
:1003D000EF50E00BE840E840E8401F0B006EDECF36
:1003E000E9FFDDCFEAFF020EE926000EEA22005007
:1003F000EF12FD0EDB2AFE0E01E3DB2AFD0EDBCF42
:10040000E9FFFE0EDBCFEAFFEF50E66EDECFE9FF3D
:10041000DDCFEAFFEE52E552E750EF6EFD0EDB2A2C
:10042000FE0E01E3DB2AFD0EDBCFE9FFFE0EDBCF84
:10043000EAFFEF50E66EDECFE9FFDDCFEAFFE552DF
:10044000E750EF6E4CD0FD0EDBCFE9FFFE0EDBCFA9
:10045000EAFFEF50080DF350E66EDECFE9FFDDCF87
:10046000EAFFE552E750EF6EFD0EDBCFE9FFFE0E2F
:10047000DBCFEAFFEF50E00BE838E840E66EDECF76
:10048000E9FFDDCFEAFFEE52E552E750EF6EFD0ED9
:10049000DB2AFE0E01E3DB2AFD0EDBCFE9FFFE0EB9
:1004A000DBCFEAFFEF50E00BE838E840006EDECF2C
:1004B000E9FFDDCFEAFF0050EF12DECFE9FFDDCF2D
:1004C000EAFF020EE926000EEA22EF6ADECFE9FF1C
:1004D000DDCFEAFF030EE926000EEA22EF6A020EE4
:1004E000E15C02E2E16AE552E16EE552E7CFD9FF55
:1004F0001200D9CFE6FFE1CFD9FF020EE126FE0EB2
:10050000DB5005E1180EDE6E0F0EDD6E04D01C0E02
:10051000DE6E0F0EDD6EF90EDBCFE6FFD950FA0F5F
:10052000E96EFF0EDA20EA6EEECFE6FFEECFE6FFD1
:10053000EECFE6FFEFCFE6FFDECFE6FFDDCFE6FF53
:100540000DDE006E070EE15E0050020EE15C02E27D
:10055000E16AE552E16EE552E7CFD9FF1200D9CF4B
:10056000E6FFE1CFD9FF020EE126FE0EDB50040AC2
:1005700021E0070A1AE0010A13E0030A0CE0010A6D
:1005800005E0140EDE6E0F0EDD6E19D0000EDE6E6D
:100590000F0EDD6E14D0040EDE6E0F0EDD6E0FD06A
:1005A000080EDE6E0F0EDD6E0AD00C0EDE6E0F0E24
:1005B000DD6E05D0100EDE6E0F0EDD6E00D0F90E72
:1005C000DBCFE6FFD950FA0FE96EFF0EDA20EA6EB4
:1005D000EECFE6FFEECFE6FFEECFE6FFEFCFE6FF92
:1005E000DECFE6FFDDCFE6FFB9DD006E070EE15E90
:1005F0000050020EE15C02E2E16AE552E16EE55272
:10060000E7CFD9FF1200D9CFE6FFE1CFD9FF030E24
:10061000E1260F0140B704D0F10E6F166F8611D09E
:100620000F0130B705D0F10E6F16060E6F1209D00C
:100630000F0120B704D0F10E6F166F8402D0000EA8
:1006400071D0F70EDB50030B606EF70EDBA61AD0ED
:10065000010EE66ED950FB0FE96EFF0EDA20EA6E4E
:10066000EECFE6FFEECFE6FFEECFE6FFEFCFE6FF01
:10067000610EE66E0F0EE66E71DD006E070EE15E36
:10068000005018D0E66AD950FB0FE96EFF0EDA2051
:10069000EA6EEECFE6FFEECFE6FFEECFE6FFEFCF5E
:1006A000E6FF610EE66E0F0EE66E58DD006E070E79
:1006B000E15E0050F80EDB50656EF70EDBBC658C1A
:1006C000D950010FE96EDACFEAFF660EEE6E0F0E1B
:1006D000ED6EDF6AF80EDB50DF5C1FE2DF50E76E85
:1006E000F90EDBCFE9FFFA0EDBCFEAFFE750E92690
:1006F000000EEA22EF50E66EDF50E76E010EDBCF10
:10070000E9FF020EDBCFEAFFE750E926000EEA22FE
:10071000E552E750EF6EDF2ADDD76086F10E6F16E7
:10072000010E00D0006E030EE15C02E2E16AE552C8
:10073000E16E0050E552E7CFD9FF1200D9CFE6FFB6
:10074000E1CFD9FF040EE126F70EDBCFE9FFF80E6B
:10075000DBCFEAFFEF6A60AE2AD0F10E6F16010E12
:10076000F36E030EF3CFDBFFA49074AE08D0F70E48
:10077000DBCFE9FFF80EDBCFEAFFEF86749E60A4C3
:1007800015D0070E6014006EF70EDBCFE9FFF80EF0
:10079000DBCFEAFF0050EF12010E006EF70EDBCF49
:1007A000E9FFF80EDBCFEAFF0050EF1634D00F015F
:1007B00050AF2FD0F10E6F160A0E6F12030EDB6AC8
:1007C000A49274AE08D0F70EDBCFE9FFF80EDBCFB2
:1007D000EAFFEF86749C070E5015006EF70EDBCF14
:1007E000E9FFF80EDBCFEAFF0050EF12F70EDBCF88
:1007F000E9FFF80EDBCFEAFFEFCF00F0020E005C5E
:1008000007E2F70EDBCFE9FFF80EDBCFEAFFEF8E52
:1008100002D0000E87D00F0E6514E66EF90EDBCF06
:10082000E9FFFA0EDBCFEAFFE552E750EF6E65AC69
:1008300007D0F70EDBCFE9FFF80EDBCFEAFFEF8C36
:1008400062A619D0F70EDBCFE9FFF80EDBCFEAFF87
:10085000EF8A010EE66EFD0EDBCFE6FFFE0EDBCF6C
:10086000E6FF610EE66E0F0EE66E59DD006E050EB8
:10087000E15E005010D0E66AFD0EDBCFE6FFFE0E13
:10088000DBCFE6FF610EE66E0F0EE66E48DD006E12
:10089000050EE15E0050D950010FE96EDACFEAFF94
:1008A000660EEE6E0F0EED6EDF6AF90EDBCFE9FF1E
:1008B000FA0EDBCFEAFFEF50DF5C1FE2DF50E76E9E
:1008C000010EDBCFE9FF020EDBCFEAFFE750E9269E
:1008D000000EEA22EF50E66EDF50E76EFB0EDBCF34
:1008E000E9FFFC0EDBCFEAFFE750E926000EEA2223
:1008F000E552E750EF6EDF2AD8D7F10E6F16A4AE9F
:1009000008D0F70EDBCFE9FFF80EDBCFEAFFEF8868
:10091000A49E030EDB5002E0609E02D00F01509FA8
:10092000010E00D0006E040EE15C02E2E16AE552C5
:0C093000E16E0050E552E7CFD9FF120045
:04093C00DACFE4FF2B
:10094000E2CFDAFFE9CFE4FFEACFE4FFF6CFE4FF3E
:10095000F7CFE4FFF5CFE4FFF3CFE4FFF4CFE4FFFC
:10096000FACFE4FF00EE10F0020EE80403E3EECF4E
:10097000E4FFFBD700EE00F0100EE80403E3EECF37
:10098000E4FFFBD7E652D9CFE6FFE1CFD9FF070E50
:10099000E1269EA205D00001E52B000EE6239E92E3
:1009A0009E50200B05E09D50200B02E079EC07F0F3
:1009B0009E50100B05E09D50100B02E08FEC07F0ED
:1009C000A4AA03D07450DF6EA46A070EE15C03E2B0
:1009D00000D0E16AE552E16EE552E7CFD9FFE5527A
:1009E00000EE0FF0100EE80403E3E5CFEDFFFBD7B8
:1009F00000EE11F0020EE80403E3E5CFEDFFFBD7B4
:100A0000E5CFFAFFE5CFF4FFE5CFF3FFE5CFF5FF44
:100A1000E5CFF7FFE5CFF6FFE5CFEAFFE5CFE9FF4A
:100A2000E5CFDAFF1100D9CFE6FFE1CFD9FF250EE0
:100A3000E126110EDB6A120EDB6AE7D90400D950F9
:100A4000200FE66E000EDA20E66ED9501F0FE66E1C
:100A5000000EDA20E66ED950170FE66E000EDA208F
:100A6000E66ED950130FE66E000EDA20E66E9EECAD
:100A700003F0006E080EE15E0050000901E1A9D00C
:100A8000100EE66EC0EC07F0E552020EE66EC0EC0A
:100A900007F0E5521F0EDB50E76E020EE7CFDBFFDB
:100AA000200EDBAA02D0020EDB8E200EDBAC02D0C1
:100AB000020EDB8C020EDBCFE6FFC0EC07F0E55246
:100AC000130EDBCF00F0140EDBCF01F0150EDBCFE1
:100AD00002F0160EDBCF03F0180ED890033202326C
:100AE00001320032E806F9E10050DF6EDFCFE6FFA9
:100AF000C5D9E552130EDBCF00F0140EDBCF01F0A9
:100B0000150EDBCF02F0160EDBCF03F0100ED890DF
:100B10000332023201320032E806F9E10050DF6EA2
:100B2000DFCFE6FFABD9E552130EDBCF00F0140E9A
:100B3000DBCF01F0150EDBCF02F0160EDBCF03F09A
:100B4000080ED8900332023201320032E806F9E191
:100B50000050DF6EDFCFE6FF91D9E552130EDBCFF9
:100B600000F0140EDBCF01F0150EDBCF02F0160EF5
:100B7000DBCF03F00050DF6EDFCFE6FF7FD9E55219
:100B8000010EDB6A1F0EDB50F36E010EDBCFF4FFAC
:100B9000F350F45C14E2D950170F006EDACF01F075
:100BA000010EDB500F010024E96E000E0120EA6EF9
:100BB000EF50E66E63D9E552010EDB2AE3D7100E43
:100BC000E66EC0EC07F0E552030EE66EC0EC07F0EF
:100BD000E5520001E0510001E15D01E1FFD0A7EC29
:100BE00007F0DF6E110EDB50020A01E1F6D0030AB6
:100BF00028E0010A01E0F2D0120EDB500BE1100EEA
:100C0000006EDF50005C06E1010EF36E120EF3CFB2
:100C1000DBFF16D0120EDB040FE1020E006EDF5078
:100C2000005C0AE1010EF36E110EF3CFDBFF120E32
:100C3000DB6A0001F56B04D0110EDB6A120EDB6A71
:100C4000CDD0120EDB500BE1100E006EDF50005CB9
:100C500006E1010EF36E120EF3CFDBFFBDD0120ED4
:100C6000DB040FE1020E006EDF50005C0AE1010EB2
:100C7000F36E110EF3CFDBFF120EDB6A0001F56B92
:100C8000ABD0120EDB0401E08FD0030E006EDF50FC
:100C9000005C01E089D0110EDB6A120EDB6A020EE5
:100CA000DB6A0001E8AF02D0020EDB860001E8AD8E
:100CB00002D0020EDB8C040E0001F55D74E3E9C086
:100CC00000F0016A026A036A180E1F0B07E0D89051
:100CD0000036013602360336E806F9E1EAC004F0D0
:100CE000056A066A076A100E1F0B07E0D8900436E3
:100CF000053606360736E806F9E1045000260550A9
:100D000001220650022207500322EBC008F0096AB4
:100D10000A6A0B6A080E1F0B07E0D89008360936DE
:100D20000A360B36E806F9E1085000260950012280
:100D30000A5002220B500322ECC00CF00D6A0E6A1E
:100D40000F6A0C5000260D5001220E5002220F5047
:100D50000322210E00C0DBFF220E01C0DBFF230EA9
:100D600002C0DBFF240E03C0DBFF020EDBCFE6FF79
:100D70000F0E0001E815E66EED0EE66E000EE66E53
:100D8000D950210FE96EDACFEAFFEECFE6FFEECFC2
:100D9000E6FFEECFE6FFEFCFE6FF03EC03F0006ED9
:100DA000080EE15E005018D0120EDB6A0D0E000135
:100DB000F55D0BE20001F551F52BEA6AE80FE96EEB
:100DC000000EEA22DFCFEFFF07D0010EF36E110E07
:100DD000F3CFDBFF120EDB6A01D000D00001E80E7A
:100DE000D880E555030EE65505E20001E56BE66B9C
:100DF0000001E72B23D6250EE15C02E2E16AE55211
:100E0000E16EE552E7CFD9FF1200D9CFE6FFE1CF7F
:100E1000D9FF090EE12623D89268FB0E936EFD0ED2
:100E2000946E82929C0ECB6EFD0EE66E82EC08F004
:100E3000E552E66A16EC00F0E5525DEC07F06EEC68
:100E400007F0F28CA38EF28E090EE15C03E200D073
:100E5000E16AE552E16EE552E7CFD9FF12000001E9
:100E6000E56BE66BE76B12001200000E00D012007B
:100E7000000E00D01200010E00D01200D9CFE6FF04
:100E8000E1CFD9FF100E006EFE0EDB50005C0BE1CF
:100E9000100EE66EC0EC07F0E552100EE66EC0ECE8
:100EA00007F0E55206D0FE0EDBCFE6FFC0EC07F000
:0A0EB000E552E552E7CFD9FF12002A
:060EBA000001E46BE06B97
:100EC000E16BE26BE36B240EAC6E900EAB6E2A0E00
:100ED000AF6E949C948E9D9A9D9812009D8A9D98C9
:100EE00012000001E36BE3C0E2F0E16BE1C0E0F06F
:100EF0001200060EAB1402E0AB98AB889EAA0ED08F
:100F00000001E151EA6AA00FE96E000EEA22AECFBD
:100F1000EFFFE12B3F0EE115E16FF0D7120000016A
:100F2000E251E35D0DE0E251EA6A600FE96E000E06
:100F3000EA22EF50AD6EE22B3F0EE215E26F01D0D8
:100F40009D98120012000001E45100D01200D9CF88
:100F5000E6FFE1CFD9FFE6520001E051EA6AA00FB7
:100F6000E96E000EEA22EFCFDFFFE02B3F0EE01527
:100F7000E06FDF5000D0E552E552E7CFD9FF120015
:100F8000D9CFE6FFE1CFD9FF0001E3293F0B0001F4
:100F9000E25D02E10400F8D7F29E9DB806D0FE0E95
:100FA000DB50AD6E9D88F28E12D00001E351EA6AEB
:100FB000600FE96E000EEA22FE0EDBCFEFFF0001AC
:100FC000E32B3F0E0001E3150001E36FF28EE552C3
:100FD000E7CFD9FF1200D9CFE6FFE1CFD9FFE65224
:100FE000FD0EDBCFE9FFDB2AFE0EDBCFEAFF01E3DC
:100FF000DB2AEFCFDFFFDF5005E0DFCFE6FFC0DF0A
:10100000E552EED7E552E552E7CFD9FF1200D9CF2E
:10101000E6FFE1CFD9FFE652FD0EDBCFF6FFDB2A7C
:10102000FE0EDBCFF7FF01E3DB2A0800F550DF6E91
:10103000DF5005E0DFCFE6FFA3DFE552EDD7E55255
:10104000E552E7CFD9FF12000001E151D880E05509
:1010500004E2E151E05D04D003D0E051E15D00D055
:1010600012000001E351D880E25504E2E351E25D51
:0C10700004D003D0E251E35D00D0120078
:04107C00D9CFE6FFE3
:10108000E1CFD9FFFF0EE76EFD0EDBCF00F0FE0EC5
:10109000DBCF01F0E7500016016A0050A96EFC0E8C
:1010A000DB50A86EA69EA69CA684F29E550EA76E47
:1010B000AA0EA76EA682F28EA1A8FED7A198A6942A
:1010C000E552E7CFD9FF1200D9CFE6FFE1CFD9FF34
:1010D000E652FF0EE76EFD0EDBCF00F0FE0EDBCF1B
:1010E00001F0E7500016016A0050A96EA69EA69C6A
:1010F000A680A850DF6EDF5000D0E552E552E7CF62
:04110000D9FF120001
:0C110400D9CFE6FFDACFE6FFE1CFD9FF3C
:10111000E2CFDAFFFD0EDB50FB0BCA6ECC6A9E926B
:10112000FD0EDBAE02D09D8201D09D92CA84E552B5
:0A113000E5CFDAFFE7CFD9FF120088
:06113A0015EE00F025EEA9
:1011400000F0F86A119CB5EC08F013EC05F0FBD741
:0211500012008B
:0E11520000EE00F00D0EEE6AEA62FDD712000C
:051160001B5B324A0098
:051165001B5B324A0093
:02116A00120071
:020000040030CA
:0100010006F8
:010002001DE0
:010003000FED
:010006008574
:010009008076
:00000001FF
