:020000040000FA
:0608000098EF2EF012003B
:060808006DEF20F012006C
:06082A000600495C00001D
:10083000FF00000001000000995D0000000F0000B3
:1008400051000000735D00008709000026000000D1
:10085000715D0000540F0000020000006E5D00009A
:10086000510F0000030000006C5D0000FE07000057
:040870000200000082
:0C0874000501026B070E025D2BE2025131
:10088000240DF3CF03F5F4CF04F5000E0327040E77
:10089000042332EC0EF00A0EEF6E95EC0FF0EF90A1
:1008A00095EC0FF0EF8295EC0FF0EF8495EC0FF0E4
:1008B000EF9895EC0FF0EF9632EC0EF043EC0FF062
:1008C00032EC0EF057EC0FF032EC0EF079EC0FF04A
:1008D000022BD2D712000501076B070E075D3FE21E
:1008E0000751240DF3CF08F5F4CF09F5000E0827C2
:1008F000040E09231EEC0EF0EF500A082EE11EEC48
:100900000EF0EF6A1EEC0EF00B0E05C5EBFF0C0EA1
:1009100006C5EBFF1EEC0EF00D0EEB6A0E0EEB6A39
:100920001EEC0EF074EC0FF0B8EC0FF0EF80B8ECAA
:100930000FF0EF961EEC0EF06AEC0EF008E01EECE5
:100940000EF02CEC0EF01EEC0EF043EC0FF0B8ECB9
:100950000FF0EF82050107511200072BBED7FE0CE6
:100960000501116B0E6B070E0E5D14E20E51240D86
:10097000F3CF0FF5F4CF10F5000E0F27040E102360
:10098000D9EC0DF0EF500A0803E1010E116F02D00F
:100990000E2BE9D7115101E1FE0C0701FE2B000ED1
:1009A000FF23D9EC0DF00B0EFEC7EBFF0C0EFFC7BB
:1009B000EBFF880ED880FE55130EFF5503E2FE6B49
:1009C000040EFF6FD9EC0DF0CEEC0EF0EF90D9ECE9
:1009D0000DF00D0E0CC5EBFF0E0E0DC5EBFF5DEC23
:1009E0000FF01A0EB2EC0DF0BAEC0EF00A0EE66E35
:1009F000E66A0AC5E6FF0BC5E6FFD9EC0DF0E3ECAD
:100A00000DF06EEC0EF00501020E896FD9EC0DF0C1
:100A100034EC0FF0D9EC0DF0C7EC0FF0D9EC0DF081
:100A200038EC0FF0D9EC0DF03CEC0FF0D9EC0DF0F8
:100A300017EC0EF0D9EC0DF0010EEF6E5DEC0FF03F
:100A400074EC0EF005010E51120005011251CFECAD
:100A50000DF0EF50030801E0000C010C05011351EB
:100A6000240DF3CF14F5F4CF15F5000E1427040E62
:100A7000152337EC0EF0EF5003080BE037EC0EF0C7
:100A8000EF50020806E014C5BEF515C5BFF557EFD7
:100A90000BF013C525F56DD96EEC0EF00501110EA6
:100AA000896F37EC0EF034EC0FF037EC0EF0C7EC3A
:100AB0000FF037EC0EF038EC0FF037EC0EF03CECAA
:100AC0000FF037EC0EF017EC0EF037EC0EF098EC60
:100AD0000FF0BFEC0EF037EC0EF0040EEF6E1200CC
:100AE00005011651240DF3CF17F5F4CF18F5000EBC
:100AF0001727040E1823CAEC0DF06AEC0EF001E182
:100B0000000CCAEC0DF07EEC0FF0020B01E1000CC2
:100B1000CAEC0DF06DEC0FF0CAEC0DF00F0EEB50BF
:100B200005018A6F0501180E896F34EC0FF0CAECCD
:100B30000DF0C7EC0FF0CAEC0DF038EC0FF0CAEC7A
:100B40000DF03CEC0FF0CAEC0DF017EC0EF0CAEC17
:100B50000DF0100E0AEC0FF0026A036ACAEC0DF0F9
:100B600098EC0FF089EC0EF0CAEC0FF0EF92CAECA3
:100B70000FF0EF98CAEC0DF06AEC0EF008E0CAEC4A
:100B80000DF02CEC0EF0CAEC0DF043EC0FF0CAECBB
:100B90000FF0EF82010C070E0501195D01E3000C57
:100BA0001951CFEC0DF0140E40EC0FF001E1000CE8
:100BB0001951CFEC0DF00F0EB2EC0DF0EF50FF0815
:100BC00004E108010B6B7FEF16F01951CFEC0DF02B
:100BD0007EEC0FF0020B01E0010E120005011A512C
:100BE000240DF3CF1CF5F4CF1DF5000E1C27040EC9
:100BF0001D233CEC0EF0140E40EC0FF001E1000C54
:100C00003CEC0EF06AEC0EF018E108010C6B83EC82
:100C100016F0E66E3CEC0EF00F0EBBEC0FF03CEC69
:100C20000EF06AEC0EF001E1000C3CEC0EF092ECE0
:100C30000EF03CEC0EF0A6EC0EF03CEC0EF0CEEC20
:100C40000EF0EF881BC50DF887EC16F03CEC0EF0AB
:100C5000140EB2EC0DF0EE06EF5A3CEC0EF0100E56
:100C6000B2EC0DF0EE2AED22EECF00F0EDCF01F068
:100C7000CA0E005C030E015803E31AC516F530DFF7
:100C8000010C05011E51240DF3CF23F5F4CF24F5FB
:100C9000000E2327040E242300EC0EF0140E40EC6B
:100CA0000FF001E1000C00EC0EF06AEC0EF018E120
:100CB00008010C6B83EC16F0E66E00EC0EF00F0EE4
:100CC000BBEC0FF000EC0EF06AEC0EF001E1000C52
:100CD00000EC0EF092EC0EF000EC0EF0A6EC0EF034
:100CE000A8EC0FF005012151EE24006E2251EE20F8
:100CF000016ECA0ED8800054030E01540BE2A8EC1A
:100D00000FF0EECF21F5EFCF22F5CA0ED880215794
:100D1000030E225700EC0EF0CEEC0EF0EF8821C54A
:100D200010F822C511F81FC50EF820C50FF89BEC6E
:100D300016F000EC0EF0140EB2EC0DF0050121518E
:100D4000EE5E2251ED5AA8EC0FF02151EE26225111
:100D5000ED2200EC0EF0100E0AEC0FF0CA0E005C53
:100D6000030E015803E31EC516F5BADE0501215135
:100D7000120005012551240DF3CF26F5F4CF27F5F8
:100D8000000E2627040E272326C5E9FF27C5EAFF04
:100D9000C1EC0FF001E1000CAFEC17F026C5E9FF44
:100DA00027C5EAFFC4EC0FF0010C05012851240D02
:100DB000F3CF2DF5F4CF2EF5000E2D27040E2E23A4
:100DC00051EC0EF0C1EC0FF03DE051EC0EF07EEC7A
:100DD0000FF0040B0CE00501DC6BDD6B28C5DBF5C7
:100DE00065EC0DF051EC0EF0CEEC0EF0EF9451EC02
:100DF0000EF0120E0AEC0FF005012B51005C2C5185
:100E0000015809E251EC0EF0120EB2EC0DF0EECFEB
:100E10002BF5EDCF2CF551EC0EF0120E40EC0FF04F
:100E200007E1AFEC17F051EC0EF0C4EC0FF00AD074
:100E30002BC51BF82CC51CF829C519F82AC51AF8AA
:100E400013EF17F0F36AF46A120005012F51240D15
:100E5000F3CF34F5F4CF35F5000E3427040E3523E7
:100E6000366B376B386B56EC0EF0C1EC0FF049E087
:100E700056EC0EF07EEC0FF0040B0CE00501DC6B81
:100E8000DD6B2FC5DBF565EC0DF056EC0EF0CEEC0E
:100E90000EF0EF9456EC0EF0120E0AEC0FF0050176
:100EA0003251005C000E015809E256EC0EF0120EB1
:100EB000B2EC0DF0EFCF32F5100E366F56EC0EF0AF
:100EC000120E40EC0FF009E1AFEC17F056EC0EF00B
:100ED000C4EC0FF0F36AF46A120033C522F832C58D
:100EE00021F830C51FF831C520F850EC17F0F3CFCA
:100EF00037F5F4CF38F5200E0501F45C04E1200E3F
:100F000001D0300E366F36C538F537C5F3FF36C51C
:100F1000F4FF120005013951240DF3CF3CF5F4CF55
:100F20003DF5000E3C27040E3D2365EC0EF0C1ECB0
:100F30000FF02EE065EC0EF07EEC0FF0040B0CE0F1
:100F40000501DC6BDD6B39C5DBF565EC0DF065EC9F
:100F50000EF0CEEC0EF0EF9465EC0EF0120E40ECBD
:100F60000FF007E1AFEC17F065EC0EF0C4EC0FF0FA
:100F7000000C65EC0EF0120EB2EC0DF0EE06EF5A1E
:100F8000E2EC16F03AC5E9FF3BC5EAFFEF6E010C53
:100F9000000C070E05013E5D01E3000C3E51CFEC55
:100FA0000DF0C1EC0FF001E0010E120005014E6BD7
:100FB0003F6B070E3F5D01E3F1D03F51240DF3CFAE
:100FC00048F5F4CF49F5000E4827040E4923C0EC3C
:100FD0000DF0C1EC0FF001E0DED0C0EC0DF07EECC6
:100FE0000FF0100B01E0D7D0C0EC0DF0EF500A0865
:100FF00001E1D1D0C0EC0DF0EF50000907E1C0ECE9
:101000000DF07EEC0FF0010B01E0C5D0C0EC0DF04F
:101010001F0EB2EC0DF00501EE50F85D006EEE50C3
:10102000F959016EC0EC0DF0210EB2EC0DF0A1ECFF
:101030000EF00050025C0150035801E3ACD00801EF
:10104000010E0B6F7FEC16F0000901E11200C0ECFD
:101050000DF074EC0EF0C0EC0DF0210EB2EC0DF0C2
:10106000010ED890EE36ED36E806FBE1C0EC0DF04F
:101070001E0EB2EC0DF0EF2AC0EC0DF0EF50090A95
:1010800040E0010A36E00F0A43E0020A41E0030AA9
:101090003FE0020A28E0070A1FE0010A05E0030A10
:1010A0003CE10501020E32D068EC0FF003E30501CC
:1010B000120E2CD0C0EC0DF07EEC0FF0010B04E012
:1010C000C0EC0DF0EF6A24D00501020E4E6FC0ECAB
:1010D0000DF0010EEF6E1CD00501110E4E6FC0EC2D
:1010E0000DF0040E0CD068EC0FF012E30501010EB8
:1010F0000DD00501010E4E6FC0EC0DF0090EEF6E24
:101100000CD068EC0FF004E30501110E4E6F05D012
:1011100048C5BEF549C5BFF5CADA05014E513BE0E9
:101120004EA90DD0C0EC0DF098EC0FF0EECF4AF5C3
:10113000EECF4BF5EECF4CF5EFCF4DF510D0C0EC28
:101140000DF098EC0FF0EFCF4AF5EE2AEFCF4BF50C
:10115000EE22EFCF4CF5EE22EFCF4DF5EF226EEC05
:101160000EF04EC589F5C0EC0DF034EC0FF04AC519
:1011700081F54BC582F54CC583F54DC584F5C0ECB2
:101180000DF038EC0FF0C0EC0DF03CEC0FF0C0ECC3
:101190000DF017EC0EF005013F2B0BD712004FC5D9
:1011A000E9FF50C5EAFF060EB2EC0DF0EECF69F58F
:1011B000EECF6AF5EECF6BF5EFCF6CF551C5E9FFD9
:1011C00052C5EAFFEECF6DF5EECF6EF5EECF6FF5BF
:1011D000EFCF70F50501716B060E726F53C573F595
:1011E00054C574F553C561F054C562F0A8EC1DF008
:1011F000F3CF73F5F4CF74F50C0E0001736F746BBD
:101200000001690E716F050E726FE2EC1DF0F3CFF5
:1012100076F5F4CF77F50501761F771F53C57DF07E
:1012200054C57EF04CEC1EF0F3CF78F5F4CF79F591
:101230000501F450765D58E17851775D55E107017D
:10124000E26BE36B03EC26F0140E08011B6F1C6BC2
:101250000801550E196F050E1A6F13EC17F00501F2
:10126000550EBB6F050EBC6FE5D9050198EC0EF06D
:10127000006E016A140E005E000E015A00C07AF57D
:101280000050006E016AE850535D536F015054598D
:10129000546F140E535F000E545B98EC0EF0070170
:1012A000E26FE36B03EC26F04FC5B5F550C5B6F51C
:1012B0000501550EB36F050EB46F42D90501756F68
:1012C000FE0E755D11E053C5C5F554C5C6F50501A3
:1012D000550EC36F050EC46F4FC5C1F550C5C2F59D
:1012E00075C5C0F512DA010CAFEC17F0010C08015E
:1012F000010E0B6F7FEC16F0000902E10400F7D736
:10130000FF0E05018A5D07E10801010E0C6F83ECF9
:1013100016F005018A6FFF0E05018A5D01E10FD10C
:10132000140E0801606F616B8AC55FF84DEC19F00F
:101330007DC58FF57EC590F57FC591F580C592F589
:1013400081C593F582C594F583C595F584C596F559
:1013500085C597F586C598F587C599F588C59AF529
:1013600005019C9D9C9F05019B919B939B959B9741
:1013700089C59CF5C0EC17F0F3CF9DF5F4CF9EF531
:101380000501000E9D5D040E9E5905E305019D6B50
:10139000040E9E6F11D00501360ED8809D55000EAB
:1013A0009E5507E2360E05019D5F000E05019E5B0E
:1013B00003D005019D6B9E6B05019F6BA06B050122
:1013C000A16BA26B05018F0EBB6F050EBC6F32D9EE
:1013D000140E05018B27000E05018C23050189A33E
:1013E00017D0040E05018B27000E05018C23050183
:1013F000020EA36F0501040EA46F0501040EA56F74
:101400000501A66B05019B999B8B9B8D9B9F05D02E
:1014100005019B899B9B9B8D9B9FE4C5A7F5E5C51B
:10142000A8F5E6C5A9F5E7C5AAF57BC5E9FF7CC522
:10143000EAFF060EE926000EEA22EECFABF5EECF6C
:10144000ACF5EECFADF5EFCFAEF50501AF6B050115
:10145000060EB06F8BC5B1F58CC5B2F5B1C561F0A4
:10146000B2C562F0A8EC1DF0F3CFB1F5F4CFB2F540
:101470000C0E0001736F746B0001A70E716F050EE7
:10148000726FE2EC1DF0F3CF9FF5F4CFA0F50501EC
:101490009F1FA01F9FC58DF5A0C58EF58BC5CCF7EE
:1014A0008CC5CDF70701060ECB6F7BC5C9F77CC590
:1014B000CAF799EC25F0140E0801106F116B0801A2
:1014C0008F0E0E6F050E0F6F9BEC16F0050189A3B2
:1014D0000BD0040E0801106F116B0801A30E0E6FE4
:1014E000050E0F6F9BEC16F0140E0801606F616B18
:1014F0008AC55FF84DEC19F08BC57DF08CC57EF088
:101500004CEC1EF0F3CF8DF5F4CF8EF5240E0801D0
:10151000606F616B8AC55FF84DEC19F08EC50DF8F0
:1015200087EC16F08DC50DF887EC16F00801606B9E
:10153000616B8AC55FF84DEC19F0ECEC18F0120005
:101540000501FE0EBA6FB96B070EB95D4EE2B951D7
:10155000D2DB5BDBEF500A0845E057DB0B0E0AECF1
:101560000FF0C4EC0EF0020EFDDAEBDB00010250CE
:10157000001838E10350011835E147DBEF5000094E
:1015800002E1B9C5BAF541DB0D0E0AEC0FF0C4EC6F
:101590000EF0D7DB0250001825E10350011822E1BC
:1015A000B5C5E9FFB6C5EAFF060EDCDAEECF04F0FA
:1015B000EECF05F0EECF06F0EFCF07F026DBEE52D0
:1015C000060EB5EC0FF004180DE1EE5005180AE117
:1015D000EE50061807E1EE50071804E103E105019B
:1015E000B95112000501B92BAFD7FE0EBA5D01E16A
:1015F000FE0CBA5180DB0A0EE66EE66AB5C5E6FF60
:10160000B6C5E6FF02DBDFDA0250BEDBF4DAFDDA54
:10161000A3DBFBDAC4EC0FF0F8DA5CDB05E0F5DA0B
:101620001BDBF3DA43EC0FF0F0DAB8DBEF820501F5
:10163000BA511200AADAEFCFBDF5AFEC0FF065DBBF
:10164000A4DA1BEC0FF0020E2CEC0FF0020ECADB3A
:10165000020E31EC0FF0020EBEEC0FF0040EC5DBF3
:10166000040E62EC0FF0080EC0DB080E62EC0FF007
:101670000E0EF2DB0E0EB6DB0E0EF3DB0E0EBEEC24
:101680000FF0100EE9DB100EADDB100EEADB100ED2
:10169000BEEC0FF0120EE0DB120EA4DB120EE1DB4B
:1016A000120E60DA010E5EDABDC5EFFF120086DAB7
:1016B00011DB07E083DAD0DA81DAE5DB7FDA6EDB93
:1016C000EF827CDA74EC0FF079DA0D0EEB6A0E0E15
:1016D000EB6A74DAC1EC0FF002E0AFEC17F06EDAEF
:1016E000C4EC0FF06BDAE3DB69DA58DBEF9866DA0B
:1016F0007EEC0FF0010B03E061DAEF6A03D05EDAF3
:101700000A0EEF6E5BDA79EF0FF00501C051240D80
:10171000F3CFD7F5F4CFD8F5000ED727040ED82392
:10172000C5C500F5C6C501F5D96B20DA1E0E1ADA5B
:10173000EF6A1CDAD9DA1ADABADB2BDB040B0DE01C
:10174000AFEC17F013DADADB010B02E0000E01D088
:10175000010EE66E0BDA85EF0EF041DB98DB0E0E24
:1017600001DAEECF04F0EFCF05F0066A076A03DA7C
:10177000080EB5EC0FF0CB5D086EEE50CC59096E3B
:10178000EE50CD590A6EEE50CE590B6E0850045CE7
:10179000006E09500558016E0A500658026E0B5033
:1017A0000758036EE3D9100EDDD9EECF0CF0EFCF62
:1017B0000DF00E6A0F6A0C50005CC76F0D50015897
:1017C000C86F0E500258C96F0F500358CA6F800E71
:1017D000CA1506E0CBD9140EEB6A150EEB6A07D0DA
:1017E000C5D9140EC7C5EBFF150EC8C5EBFFB4DB9A
:1017F00001081DE1CEDA020B05E193DB100B01E1DC
:1018000053D11BD0CEDA7DDB3CDACADB06E1AED9A0
:10181000020EEF6EAFEC17F029D0A8D9030EEF6ED1
:10182000100ED96F88DBC551C61161E1B3D094DBCE
:10183000000920E176DB020B03E10501040E18D05C
:10184000B0DA79DB0A0EE66EE66AC1C5E6FFC2C50C
:10185000E6FF8CD9B8D902508ED9CDD987D97CDA98
:1018600085D9020EEF6EBBDAD8DA0BDA0501120E5B
:10187000D96FCDD046DBEECFCFF5EECFD0F5EECFA2
:10188000D1F5EFCFD2F5ABDAEECFD3F5EECFD4F57D
:10189000EECFD5F5EFCFD6F56ED9040E63D9F1D9D9
:1018A000C551C727C651C823000EC923CA2397DADA
:1018B000EEDA040E5ADBCF1901E09CD0EE50D019BD
:1018C00001E098D0EE50D11901E094D0EE50D21939
:1018D00001E090D001E08ED03FDB02080AE160DB3E
:1018E00059E0AFDA030EEF6EC551C61153E00DDBC0
:1018F0008ED0A7DAEF50030850E152DB23E03BD94A
:10190000080E30D9EECF00F0EECF01F01ADA67DA28
:101910000050EE1817E10150EE1814E10250EE18D5
:1019200011E10350EE180EE10DE120D9E7DA020BC8
:1019300009E11CD9CFD906E019D98ED917D9A3DA74
:101940002CDBEF8226DA010B09E00501110ED96FBD
:1019500046DA63DA5FD90AD9090EEF6E0501C5517F
:10196000C61118E003D90DDB03E1CFDAD9894FD0D6
:1019700036DAD3C5EEFFD4C5EEFFD5C5EEFFD6C52A
:10198000EEFFBFDACFC5EEFFD0C5EEFFD1C5EEFF4B
:10199000D2C5EEFFAFEC17F03AD0DEDA090804E169
:1019A000C0DA100B34E020D0D7DA04080FE1B9DA3E
:1019B000010B06E076DAF4DA17E1D8D8060E04D087
:1019C000EFDA25E0D3D8050EEF6E21D0C5DA050891
:1019D00005E1A7DA010B1BE064DA06D0BDDA0608E0
:1019E00016E19FDA100B13E0D7C5BEF5D8C5BFF5D9
:1019F0005EDE0DD0AFEC17F00501100ED96FCFC52C
:101A0000C7F5D0C5C8F5D1C5C9F5D2C5CAF5050118
:101A1000D9514AE0ABD872DA020B28E1A7D85AD9DB
:101A200025E0A4D8100E2CDA21E08BDA0050EE5E0F
:101A30000150EE5A0250EE5A0350EE5A97D84DDA42
:101A400095D80F0EEB5005018A6F080E0501D911CC
:101A50000501896F09DAC3D9F6D888D809DA86D89A
:101A60000BDA84D8E4D86DDA89EF0EF037D9D9C50E
:101A700089F5C7C585F5C8C586F5C9C587F5CAC541
:101A800088F5CBC581F5CCC582F5CDC583F5CEC52E
:101A900084F571D810D96FD8020E64D811D9C1C598
:101AA0007BF5C2C57CF523DC12000501DA51240D5B
:101AB000F3CF00F0F4CF01F0000E0026040E012257
:101AC00000C0F3FF01C0F4FF12000501DB51240D3B
:101AD000F3CFDFF5F4CFE0F5000EDF27040EE023AF
:101AE0000C0E0701E26FE36B03EC26F0E2EC16F05C
:101AF000E840E8403F0B3C0B0501DE6FDC51005D28
:101B0000006E0151DD55016EDFC5E9FFE0C5EAFF5A
:101B1000120E00C0EBFF130E01C0EBFFDE51DC25FF
:101B20000701E26F000E0501DD210701E36F03EFFE
:101B300026F00501E151240DF3CFE2F5F4CFE3F5F2
:101B4000000EE227040EE323E2C5E9FFE3C5EAFF46
:101B5000120E0BDA005D006EEE50015900C0F3FF6B
:101B6000F46E1200E926000EEA221200D7C5E9FF42
:101B7000D8C5EAFF1200C3C5E9FFC4C5EAFF1200D9
:101B800048C5E9FF49C5EAFF1200BBC5E9FFBCC56E
:101B9000EAFF120017C5E9FF18C5EAFF1200240D7D
:101BA000F3CFE9FFF4CFEAFF000EE926040EEA22A4
:101BB00012000FC5E9FF10C5EAFF1200BEC5E9FF1C
:101BC000BFC5EAFF1200EE52E9CF00F0EACF01F004
:101BD000E9CFE6FFEACFE6FFD2EC2CF0026E060E6C
:101BE000E15E1200EECF85F5EECF86F5EECF87F5FC
:101BF000EFCF88F51200EECF00F0EFCF01F012002A
:101C000023C5E9FF24C5EAFF1200B7C5E9FFB8C53F
:101C1000EAFF1200EF2AEECFC7F5EF22EECFC8F5AC
:101C2000EF22EECFC9F5EF22EFCFCAF51200EE5248
:101C3000E9CF7BF5EACF7CF577EF09F008C5E9FF3E
:101C400009C5EAFF1200EECF81F5EECF82F5EECFA7
:101C500083F5EFCF84F512000F0EEB500801276FCC
:101C6000A6EF17F003C5E9FF04C5EAFF120014C58B
:101C7000E9FF15C5EAFF12001CC5E9FF1DC5EAFF13
:101C80001200EECFC7F5EECFC8F5EECFC9F5EFCF16
:101C9000CAF5120001C0EEFF02C0EEFF03C0EEFF66
:101CA00012002DC5E9FF2EC5EAFF120034C5E9FF79
:101CB00035C5EAFF1200EECF7FF5EDCF80F51200BB
:101CC000EECF7DF5EDCF7EF512003CC5E9FF3DC5B9
:101CD000EAFF12000F0EEB50FF08120005018B6B9C
:101CE0008C6B05018A6912001F0EF8C5EBFF200EF0
:101CF000F9C5EBFF1200240DF3CFB7F5F4CFB8F51B
:101D0000000EB727040EB8231200E552E750EF6E1D
:101D100012000050EE260150EE220250EE22035037
:101D2000EE221200E6D8280E0801606F616B1200E7
:101D30006151F00BE842E842E842E842040DF350FA
:101D40001200EECF02F0EFCF03F012000F0EEB50B7
:101D500008015F6F4DEF19F00D0E00C0EBFF0E0E86
:101D600001C0EBFF1200140E00C0EBFF150E01C006
:101D7000EBFF1200EE6AEE6AEE6AEE6A1200EE2ADD
:101D8000EE22EE22EE221200B3C5E9FFB4C5EAFF4F
:101D90001200F1DE0D0EE6DEEF501200230EB2EF60
:101DA0000DF0C5C504F0C6C505F0066A076AE3DE96
:101DB000040EDBD80424006EEE500520016EEE50B8
:101DC0000620026EEE500720036E002A000E01224C
:101DD0000222032296D800C0EEFF4AEF0EF0C6DEC4
:101DE00098EF0FF0BFDEAFEF0FF0BCDEEECF66F086
:101DF000EECF67F0EECF68F0EFCF69F0B3EC1DF0F7
:101E000020C000F021C001F022C002F023C003F086
:101E1000C5EF0DF0A7DEFBEF0DF0EFCFCBF5EE2A0F
:101E2000EFCFCCF5EE22EFCFCDF5EE22EFCFCEF512
:101E3000EF2281EF0FF0010E95DEBDC5EFFFC5EF7C
:101E40000DF05FD8C7C5EEFFC8C5EEFFC9C5EEFFF0
:101E5000CAC5EEFFB6EF0DF085DEEFCFBDF5C5EFDD
:101E60000DF089D8C5EF0DF01A0E7CDEF2EF0DF003
:101E70000D0E78DE5BEF0EF00B0E74DE60EF0EF0F1
:101E800074D8ED1012000F0E6DDEEF681200EECF69
:101E9000CBF5EECFCCF5EECFCDF5EFCFCEF5BBEF5A
:101EA0000DF00501100ED96F2CD80AEF0EF0210E9F
:101EB00059DEC80EEE6EED6A12007BDE39D85FDFA8
:101EC000D9EF0DF04FDE20C0EEFFE4DEC5EF0DF0E0
:101ED00057DE1E0EEB5003081200100E43DEEECF4D
:101EE0008BF5EDCF8CF51200EE52060E3BDEBAEF0D
:101EF0000EF0100EEB6A110EEB6A12004FDFEF507E
:101F0000120034DE1A0EB2EF0DF047D8EF862EDE47
:101F1000120EC5C5EBFF130EC6C5EBFF3ED8EF840E
:101F20001200AFEC17F0C9EF0EF09CDECEEF0EF012
:101F3000160EB2EF0DF01FDE0E0E6CDF17DEB3EFE4
:101F40000EF014DE100E66DF026A036AEFEF0EF089
:101F500057DE100EB2EF0DF009DEEF501200010E49
:101F600001DEEF50E66EC5EF0DF0FCDDEE50120025
:101F700065DECEEF0EF0F6DD85EF0EF0F3DD1BEF44
:101F80000FF0BCDF080B120009DFEF961200D0DF64
:101F900023EF0EF0FFDDCEEF0EF0E8DDCEEF0EF01A
:061FA000F8DE100B120038
:0A1FA600F8C532F3F9C533F3030167
:101FB000346B050E345D19E2500E0501056F066B9A
:101FC0006BEC04F0E66E030138EC15F0E552E750D7
:101FD000EF6E38EC15F036EC15F0EF6A38EC15F0D2
:101FE00012EC15F0EF6A342BE4D712000301356BC5
:101FF000050E355D06E235C340F393D80301352B5A
:10200000F7D7120036C338F337C339F3030138C3A7
:10201000E9FF39C3EAFF382B000E3923EF502E08B1
:1020200007E038C3E9FF39C3EAFFEF50EFE10A0CDC
:102030003A6B3A51006E016A100E005C000E0158B6
:1020400015E23A5114EC15F038C3E6FF39C3E6FF48
:10205000FDEC2CF0036E050EE15E0350000903E178
:1020600003013A51120003013A2BE3D70A0C4DEC5D
:1020700015F004E0200E03013E5DF9E003013F6B23
:102080002B0E03013E5D02E1200E3E6F2F0E3E5DE2
:1020900023E05C0E3E5D20E0200E3E5D20E03F0E22
:1020A0003E5D1DE00D0E3E5D1AE00A0E3E5D17E03E
:1020B0000C0E3F5D11E2610E3E5D05E33E517A0874
:1020C00002E3200E3E5F3F513F2BEA6A3C25E96E5A
:1020D0003D51EA223EC3EFFF4DEC15F0D1E1030183
:1020E0003F51EA6A3C25E96E3D51EA22EF6A3F51D1
:1020F00012E1550E006E5B0E016E026A00C0E6FF33
:10210000E66E02C0E6FF3CC3E6FF3DC3E6FF13EC0C
:102110002DF0050EE15E3F0E03013E5D01E1010C75
:10212000000C030140510A0DF3CF51F3F4CF52F3E9
:10213000000E5127030E5223010E4F6F03014F5122
:1021400001E1CBD14F6B576B09EC15F064EC15F046
:102150000DE1C6EC15F0020B02E0BCEC15F07CECD6
:1021600015F0EF9482EC15F0EF6A120009EC15F00F
:10217000020EEB50080AE2E00F0A01E19ED1010ACB
:1021800001E16FD1030A01E16CD1010AD7E0070A2E
:1021900001E18FD1010A01E149D1030A01E108D12E
:1021A000010ACCE109EC15F071EC15F0C7E0030170
:1021B000010E4F6FF8C532F3F9C533F37CEC15F01F
:1021C000EF6AA6EC15F00301616FE0D903014E6FD1
:1021D0000301410E3C6F030E3D6FA6EC15F00301A9
:1021E0003B6F45DF03015791E8B05781A6EC15F02E
:1021F0000501E16F99EC0DF0F3CF55F3F4CF56F3F1
:102200000301410E776F030E786F40C376F3A7DBAF
:102210000301410E366F030E376FF4DEB5EC15F097
:10222000060814E07FEC15F0EF0402E0000E01D088
:10223000010E000E00090AE1CDEC15F0040802E0E1
:10224000000E01D0010E000E000904E07CEC15F038
:10225000EF8003D07CEC15F0EF90CDEC15F0060884
:1022600002E0000E01D0010E000E000908E1580E38
:102270000301415D04E07CEC15F0000907E0C6ECC9
:1022800015F0040B03E1A9EC15F035D003014E5114
:1022900001E088D07CEC15F05793EF50040B01E07F
:1022A000578357A115D055C3DCF556C3DDF5A6EC11
:1022B00015F00501DB6F65EC0DF00901410E0D6FA6
:1022C000030E0E6F51C30BF952C30CF96DEC22F0E3
:1022D0007CEC15F003015751020B02E0EF8401D0B2
:1022E000EF94A9EC15F0C6EC15F0100B0DE0C6EC60
:1022F00015F0040B09E195EC15F0020EEF6E89DB89
:10230000C9EC15F0060ED7D082EC15F0050EEF6E75
:1023100085EC15F0ACEC15F0006E010E005C2EE3C0
:10232000CDEC15F004082AE3410EE66E030EE66ECE
:102330002CEC2DF0E552E552F3CF50F3CDEC15F037
:10234000030802E3030E01D0020E0301505FCDEC3F
:1023500015F00B0FB5EC15F067DB5051046A410F17
:10236000036E030E042203C0E6FF04C0E6FF13EC75
:102370002DF0056E050EE15E0550C7DBEDDBFF08B5
:1023800003E1D3DBEF6A06D0E7DBFE0806E1CDDB35
:10239000010EEF6EB7DB050E8ED0AEDBEF82B2DB47
:1023A000010E89D04E0501E0C9D6ACDB030E83D007
:1023B000D7DB01E1C3D60301010E4F6F0301DE0E2F
:1023C000726F5A0E60DB94DB0301EE0E726F5A0ED1
:1023D0005ADB95DBEF34EA6AFE0BEA36E96E870ECC
:1023E000E926090EEA22EECF72F3EDCF73F340C374
:1023F00071F391DA7DDB83DBEFCF00F00B0E005C35
:1024000005E30301FD0E726F5A0E3DDBBFDB010BCE
:1024100005E10301200E726F570E35DB69DBF9DA37
:10242000030EB7DBEF6A6EDB020E45D0F2DA59DB42
:1024300001E08FDB61DB03015793EF50040B01E0F8
:10244000578340C369F3E5D8000904E095DB5ADB04
:10245000070EEF6E51DB03015751020B3CE0EF8496
:102460006DD67EDB01E16AD660DBEF34EA6AFE0BF3
:10247000EA36E96EA70EE926090EEA22EECF53F3FB
:10248000EDCF54F3030153C3F6FF54C3F7FF532BAF
:10249000000E54230800F5CF50F3F55005E050C36B
:1024A0001BF5B7DAF5DAEED751DB0501166F70ECE4
:1024B00005F028DB070EEF6E41D6ABDA05DB0AE04C
:1024C0004FDB08E043DB0501136F2EEC05F01ADB50
:1024D000080EEF6E11DBEF9431D612005BC3E9FFFB
:1024E0005CC3EAFFEF0403015F6F5E6BEF6A606B32
:1024F0005F51EA6A5925E96E5A51EA22EF6A605142
:102500003FE105015D0E3A6F030E3B6F58C339F58D
:102510008AEC07F0000934E03D0E03015D5D0BE13C
:102520005D6B5F515E5D1EE25E295BC3E9FF5CC3CC
:10253000EAFFEF6E17D0260E5D5D02E1020E0AD0B3
:10254000200E5D5D06E00D0E5D5D03E00A0E5D5D33
:1025500004E1010E606F5D6B05D02B0E5D5D02E145
:10256000200E5D6F5F515E5D06E259C3E9FF5AC3FD
:10257000EAFF5DC3EFFF592B000E5A235E2BBFD736
:102580000301605101E1000C600512000301676B5B
:102590000501680E3A6F030E3B6F61C339F58AEC93
:1025A00007F0000916E0200E0301685D12E0675194
:1025B000006E016A040E005C000E0158E9E26751EA
:1025C000672BEA6A620FE96E030EEA2268C3EFFF27
:1025D000DFD703016751EA6A620FE96E030EEA2250
:1025E000EF6A470E625D07E1450E635D04E1540E3C
:1025F000645D01E1000C500E625D0AE14F0E635D07
:1026000007E1530E645D04E1540E655D01E1010CC8
:10261000020C030169510A0DF3CF6CF3F4CF6DF393
:10262000000E03016C27030E03016D236CC3E9FF49
:102630006DC3EAFFEF500501196FCBEC05F00009FF
:1026400001E14AD103016A6B6CC3E9FF6DC3EAFF84
:10265000030EEB50040828E0090132AD0BD06CC327
:10266000E9FF6DC3EAFFEF500501166F70EC05F04E
:10267000010E3ED16CC3E9FF6DC3EAFF010EEB50C2
:1026800009014B6F07EC24F003016B6F090132ABBA
:102690000BD06CC3E9FF6DC3EAFFEF500501166F65
:1026A00070EC05F0010E24D16CC3E9FF6DC3EAFFA5
:1026B000090EE926000EEA22EF50010B01E1FFD0DE
:1026C0006CC3E9FF6DC3EAFF030EEB50040A01E19E
:1026D000ABD0070A73E0010A42E0030A16E0010AE0
:1026E00001E0DDD0250E03016B5D0BE16CC3E9FF5A
:1026F0006DC3EAFF030EE926000EEA22010EEF6E1B
:1027000003D00301010E6A6FCBD0250E03016B5D70
:102710000DE10301010E6A6F6CC3E9FF6DC3EAFFAF
:10272000030EE926000EEA22EF6A18D06CC3E9FF17
:102730006DC3EAFF040EE926000EEA22030EE92625
:10274000000EEA226BC3EFFF6CC3E9FF6DC3EAFF23
:10275000030EE926000EEA22020EEF6EA1D0610EF2
:1027600003016B5D04E3270E03016B5F07D0410E8D
:1027700003016B5D03E3070E03016B5F300E030182
:102780006B5D100DF350E66E6CC3E9FF6DC3EAFF9D
:10279000040EE926000EEA22020EE926000EEA22C5
:1027A000E552E750EF6E6CC3E9FF6DC3EAFF030E1D
:1027B000E926000EEA22030EEF6E72D0610E0301CD
:1027C0006B5D04E3270E03016B5F07D0410E03012D
:1027D0006B5D03E3070E03016B5F300E03016B5D5E
:1027E000006E6CC3E9FF6DC3EAFF040EE926000E1C
:1027F000EA22020EE926000EEA220050EF126CC314
:10280000E9FF6DC3EAFF030EE926000EEA22040E7B
:10281000EF6E6CC3E9FF6DC3EAFF040EE926000EFC
:10282000EA22EE6AED6A3CD009016B0E2D6F030EB1
:102830002E6F6CC32BF96DC32CF988EC22F0F3CF0B
:1028400000F0F4CF01F06CC3E9FF6DC3EAFF040EA2
:10285000E926000EEA2200C0EEFF01C0EDFF0301F1
:10286000010E6A6F6CC3E9FF6DC3EAFF040EE9262F
:10287000000EEA22FF0EEE1802E1FF0EED180EE147
:1028800003016B5102E103016A6B6CC3E9FF6DC385
:10289000EAFF030EE926000EEA22EF6A01D000D01B
:1028A00003016A510BE06BC31BF56CC3E9FF6DC3F9
:1028B000EAFFEF5005011A6FEEEC05F00BD06BC389
:1028C0001BF56CC3E9FF6DC3EAFFEF5005011A6FFA
:1028D000EEEC05F00400AAD66CC3E9FF6DC3EAFF75
:1028E000010EEB500901486FDDEC23F0000E00D023
:1028F000120003016E510A0DF3CF6FF3F4CF70F3A2
:10290000000E6F27030E702305010D0E18D9050167
:102910000A0E9FEF15F0030171510A0DF3CF74F306
:10292000F4CF75F3000E7427030E752372C3F6FF00
:1029300073C3F7FF0800F55011E0030172C3F6FFFF
:1029400073C3F7FF722B000E73230800F5CF1BF53E
:1029500074C3E9FF75C3EAFF9BD8E8D712000301EF
:1029600076510A0DF3CF79F3F4CF7AF3000E79277D
:10297000030E7A23040EFC6F05010A0E6AD801E1EA
:10298000015006E00301FC51FC070009F5E11200CB
:1029900005010D0E336F0501800E326F05017B0EB0
:1029A000306F030E316FC5D8F3CFFEF3F4CFFFF3D2
:1029B0000301F45010E1040EFC6F05010D0E49D81F
:1029C00001E1015005E00301FC51FC070009F5E1BC
:1029D0000301200EFF6F200EFF5D01E01200FE05D7
:1029E00001E112000501FC0E3A6F030E3B6FC9D8DE
:1029F000EF500501396F8AEC07F00301FE05EA6A22
:102A00007B0FE96E030EEA22EF6ABBD80BD8EF8486
:102A1000BFD751C3E9FF52C3EAFF1200040EB9D871
:102A2000040EA1D0090E9FD0040DF3CFF6FFF4CF12
:102A3000F7FF9E0EF6265A0EF722F6CF00F0F7CFDC
:102A400001F0026A00C0E6FF01C0E6FF02C0E6FF37
:102A50001200336F050132690501306B316B69D8A3
:102A6000F4CF00F0016A200EF4181200020E7BD0A1
:102A700034510A0DF3CFE9FFF4CFEAFF000EE92647
:102A8000030EEA221200736F40C371F38BEF14F050
:102A9000EF5005011A6FEEEF05F005013E0E3A6F9B
:102AA000030E3B6F3BC339F58AEC07F000091200B7
:102AB000EF500501196FCBEC05F000091200EF5043
:102AC0000501256FB9EF06F0EF500501126F25ECF7
:102AD00005F000091200010EEB500901476FD7EF16
:102AE00023F0EF5005013E6FC9EC07F0000912001A
:102AF00040C36EF379EF14F08CDF12EF15F089DF2D
:102B00000EEF15F086DF36EF15F009013F6B090176
:102B1000410E3D6F030E3E6FF3EC22F0E66E79DF5F
:102B2000EE52E552E750EF6E120073DF040EC9EF6C
:102B300015F027D8EF5005012F6F25EF07F01B6F19
:102B40006FC3E9FF70C3EAFF48EF15F062DFEF5093
:102B500012005FDF5FEF15F05CDF010EEB5012003B
:102B600058DF58EF15F0C9EF15F0E66EC8DFE552F3
:102B7000E750EF6ECDEF15F0BFDFEF924ADF6BEF5E
:102B800015F079C3E9FF7AC3EAFF1200B5DFEF5011
:102B90001200E926000EEA221200B1DFEF50120007
:102BA000966A868898880801046B056B066B076B2C
:102BB000086B096B0A6B010E0A5D12E20A51040DE3
:102BC000F3CF00F0F4CF01F0400E0026000E0122FA
:102BD0000A5183DB00C0EFFF0A51DEDB0A2BEBD783
:102BE000136A026905DB94DB08011F0E8EDB080106
:102BF000546F08011F0EA6DB8BDB0801210E77DB6B
:102C000087DB0801080E546F08010E0E9BDBC8DB42
:102C10000801040E546F08010C0E94DB0801020E2B
:102C2000546F83DB9ADB440E546F7BDB0801600E2C
:102C3000546F0801020E86DB0801440E546F79DBE5
:102C4000A5DB08010F0E7EDB0801610E50DBE8C535
:102C500054F867DBE9C554F80801020E73DBEAC5D6
:102C600054F867DBEBC554F858DBECC554F80801A1
:102C7000050E68DBEDC554F80801060E63DB08019C
:102C80000A6B080E0A5D0AE208015469080E080181
:102C90000A25080157DB08010A2BF3D70801440E67
:102CA000546F2FDB440E106E0801220E20DB08014A
:102CB000546B3BDB0801E00E1ADB0801C00E546FB9
:102CC00030DB0801546B29DB0801546B2ADBBEEFB3
:102CD00019F008010D0E4DDB0801042701500523F2
:102CE00008010E0E46DB08010627015007230801E4
:102CF0000F0E3FDB080108270150092312001DDBDE
:102D000001E0000C010C19DB01E1000CFF0C0801D3
:102D1000010E546FF1DA0801120EE9DA0801400ED3
:102D2000546FEFDA0DC854F80801100E0BDB112AAE
:102D3000000E1222120008011051111101E11200BF
:102D4000010E1015006E016A10510024146F11510C
:102D50000120156F0801400E546FD3DA14C854F8DF
:102D600023DB15C854F824DB0801120EC0DA080171
:102D70001051112611511222A3DA10C812F811C8ED
:102D800013F80801010E125F000E135B080112C850
:102D900000F013C801F01207000E135B0050011081
:102DA00010E0080E125D000E135909E3CEDA080197
:102DB000CCDA080E0801125F000E135BF2D780DA3E
:102DC000E5D712000801010E546F96DAFF0E115C70
:102DD0001AE15F0E125C17E108011769186917C83C
:102DE00057F818C858F82DDACDDA0801100E8DDA28
:102DF0000801166F176B440E186F17C857F8E8CF05
:102E000058F81FDA0DD0BEDA9568700E8D6E8D9A67
:102E100086A8FED783CF16F88D8A112A000E1222BB
:102E20000801165112001BC81DF81CC81EF8080125
:102E30001B511C1103E1F36AF46A12001DC854F817
:102E4000B3DA1EC854F8B4DA9DDA08011D51112610
:102E50001E511222600E125C02E31C0E125E956877
:102E6000700E8D6E1DC800F01EC801F01D07000E0B
:102E70001E5B005001100FE08D9A86A8FED7080156
:102E800019C8E9FF1AC8EAFF192B000E1A2383CFCD
:102E9000EFFF8D8AE7D71BC8F3FF1CC8F4FF1200B1
:102EA00021C823F80801246B215103E1F36AF46A75
:102EB000120021C854F820DA65DA9568700E8D6E1C
:102EC000080123511CE023078D9A86A8FED783CFE3
:102ED00025F88D8A08011F51201109E01FC8E9FF5C
:102EE00020C8EAFF1F2B000E202325C8EFFF225128
:102EF000255DE6E1200E246F0801F9D951DA0801B9
:102F00002351215D236FE850006E016AE8501126BD
:102F100001501222600E125C02E31C0E125E200EA3
:102F2000245D05E111C057F812C058F88AD9026A29
:102F30000801235100010210F36E24C8F4FF1200AF
:102F400008012651CAD9EE52EF901200010E080175
:102F5000275D04E2275120DA27C813F0120010C0C1
:102F60002AF80801010E296FE8CF57F810C058F869
:102F700068D928DF0801286FE8CF54F899EF19F0D5
:102F8000F3D908012B6FFAD9105008012B5D05E227
:102F9000600ED88010542B2502D010502B5D2C6F62
:102FA000E850006E016A1C0ED8800056000E0156D3
:102FB00000C02CF800C02EF82D6B2DC8F3FF00C008
:102FC000F4FF12000801E00E92D90801030E9DD90A
:102FD00008012F6FD3D908012F51040B01E0000C19
:102FE000010C32C8E9FF33C8EAFFEF68BDD9080118
:102FF000466FC4D90801030E88D90801476FDCD990
:10300000100B2AE09AD908014A6F0801210E6FD9E6
:103010000701020EFD6F6AEC2EF0C2D908014A5179
:1030200008E0CAD90A0B02E0000E01D0010E080127
:103030004A6F0801020E546F78D90801220E57D941
:1030400046C810F08CDFA2D970D908014A5103E0BC
:103050000801260E4CD9000C08014751465D67E077
:1030600047C849F8486B48C857F847C858F8E9D8DE
:10307000120E08011B6F1C6B0801340E196F080E2D
:103080001A6FD1DE08013451010B4EE0400E365D5F
:10309000000E375949E3EE0ED8803655050E3755E8
:1030A00043E3600E355D40E23551006E016AD89011
:1030B000015004E6440E005C000E015835E344C89C
:1030C00061F045C862F0A8EC1DF0F3CF44F8F4CFEE
:1030D00045F8060EE66EE66A3E0EE66E080EE66EF1
:1030E00030C8E9FF31C8EAFF30C800F031C801F04C
:1030F00030C8E6FF31C8E6FFD2EC2CF0026E060EB7
:10310000E15E0250080E0801455D0BE1445103E009
:10311000060E445D06E132C8E9FF33C8EAFF44C841
:10312000EFFF47C810F0010C46C810F018DF000C84
:1031300008010A0E546FE5D81350CFD8EFCF51F8DD
:103140000801506B50C857F851C858F87AD8060E85
:103150000801106F116B4BC80EF84CC80FF8EBDD6F
:10316000E8C50DF8D4DDE9C50DF8D1DDEAC50DF8E7
:10317000CEDDEBC50DF8CBDDECC50DF8C8DDEDC53A
:103180000DF8C5DD08014D5102E1526B02D0060E6B
:10319000526F0801080E0D6FBADD52C80DF8B7DD89
:1031A0000E0E08014E27000E4F233C0E4E5D000E02
:1031B0004F5903E23C0E4E6F4F6B4EC850F84FC84C
:1031C00051F84EC854F80801050EBCD851C854F83F
:1031D0000801060EA2EF19F0C0D8240E88D813C03B
:1031E00002F81350D9D8135078D8EE52EF8212005B
:1031F0009568600E8D6E8D8C8D8A8D8E966A070116
:10320000010EFB6F5EEC2EF083D88D9E1200600ED7
:10321000080153118D6E54C883FF956A8D9C86A852
:10322000FED78D8C12009568600E080155118D6EC9
:103230008D9A86A8FED783CF56F88D8A08015651FD
:10324000120057C811F058C812F057C854F80801B6
:10325000080E78D858C854F80801090EA2EF19F0E2
:103260000801090E52D808015A6F0801080E4DD8FE
:103270000801596FF36E5AC8F4FF120010C05EF8CF
:103280000801120E5D6F5B515D275C515E235DC8C6
:1032900057F85EC858F821EF19F05FC813F01350C3
:1032A0001CD8EFCF63F808010E0E626F60516227E1
:1032B0006151632362C857F863C858F821EF19F0C9
:1032C0000EC8E9FF0FC8EAFF0E2B000E0F23EFCF49
:1032D00054F80801100EA2EF19F0E96EEA6AD890CE
:1032E000E936EA36000EE926080EEA221200546F8B
:1032F0000801536B07EF19F057D80801546BD8EF4A
:1033000019F00801070EA2EF19F0556F13EF19F02D
:103310000701050EFD6F6AEF2EF00801040EA2EF03
:1033200019F00801010EA2EF19F008010D0EA2EF2D
:1033300019F00801030EA2EF19F00801556B73DFB5
:10334000040B1200536F07EF19F0BADF0801B8DF62
:103350000801B6DF080160EF19F01350BEDFEFCFB0
:1033600054F8DBDF080112000801600EC0DFDCEF5B
:1033700019F0CBDF006E016AE85012000801200E40
:1033800077EF19F008010A0E77EF19F00801546978
:10339000B8DF0801546B1200A0DFEE52EF8012007C
:1033A0000801546B7CEF19F008010A0EA2EF19F026
:1033B00008010B0EA2EF19F00801070E85EF19F0B6
:1033C0000701296B020E295D06E229C733F750D8A1
:1033D0000701292BF7D712000701000E316F070EE6
:1033E000326F306B020E305D42E242DB0C0E32DB9C
:1033F0003ADB026A036A005001100210031031E147
:1034000037DB0C0E2AC7EBFF0D0E2BC7EBFF2C5141
:103410002D1111E00A0EE66EE66A2CC7E6FF2DC7F5
:10342000E6FF26DB31C700F032C701F031C7E6FF07
:1034300032C7E6FF31DB1CDB0A0E2EC7EBFF0B0E9B
:103440002FC7EBFF15DB0E0EEB6A0F0EEB6A10DBDE
:10345000100EEB6A110EEB6A30C728F707013051E6
:103460001200140E3127000E3223302BBBD7FF0C75
:1034700007013351E5DA0C0EEDDAEE6AED6A3351ED
:10348000DFDA060EE7DAEE6AEE6AEE6AEE6A3351CA
:103490002BDBEF901200020E0701345D07E234C708
:1034A00028F70801010E0B6F7FEF16F0000C0701E3
:1034B0002851140DF3CF36F7F4CF37F7000E362727
:1034C000070E372319DBEE50ED100FE1ECDAD5DAF9
:1034D00017DBD3DA120EEB50FF0801E1000C1C0ED3
:1034E0000801606F616BC9DAE5DA35C70DF887EC62
:1034F00016F002DBEE2AEF22FFDA08DB01E352D8F6
:10350000010C07012851140DF3CF3CF7F4CF3DF720
:10351000000E3C27070E3D23EBDAEE50ED1011E1D3
:10352000C2DA9CDAEDDA9ADA120EEB50FF0803E108
:10353000F36AF46A12001C0E0801606F616B8EDA88
:10354000B9DAD6DA07013A51EE24006E3B51EE208B
:10355000016ED60ED8800054030E01540AE2C8DA78
:10356000EECF3AF7EFCF3BF7D60ED8803A57030E9F
:103570003B573AC710F83BC711F838C70EF839C7A0
:103580000FF89BEC16F0B4DA07013A51EE263B51E6
:10359000ED22AEDABBDA01E305D83AC7F3FF3BC749
:1035A000F4FF12000801010E0B6F7FEC16F000090A
:1035B00002E10400F7D707012851140DF3CF48F7B3
:1035C000F4CF49F7000E07014827070E07014923EA
:1035D00048C7E9FF49C7EAFF0C0EE926000EEA22B8
:1035E000EECF61F0EDCF62F0A8EC1DF0F3CF40F725
:1035F000F4CF41F748C7E9FF49C7EAFF0A0EE926B9
:10360000000EEA22EECF61F0EDCF62F0A8EC1DF0E3
:10361000F3CF42F7F4CF43F748C7E9FF49C7EAFFC2
:103620000E0EE926000EEA22EECF44F7EFCF45F763
:10363000080E07014427000E070145230701466BCA
:10364000476B140E0801606F616B48C7E9FF49C7FB
:10365000EAFF120EEB5008015F6F4DEC19F044C702
:10366000CCF745C7CDF70701110ECB6F48C7E9FF6F
:1036700049C7EAFFE9CFC9F7EACFCAF799EC25F0C5
:1036800044C761F045C762F0A8EC1DF0F3CF44F7E2
:10369000F4CF45F7080E0801106F116B0801400EBA
:1036A0000E6F070E0F6F9BEC16F0ECEC18F048C78E
:1036B000E9FF49C7EAFF120EE926000EEA22EF6889
:1036C00048C7E9FF49C7EAFF0E0EEB6A0F0EEB6A27
:1036D0001200020E07014A5D0AE24AC728F7FFD925
:1036E000D880EE54000EED5401E3000C010C000CE8
:1036F000070116DA01E1000C2851F6D9EF50010B51
:1037000001E012DAE2EC16F04BC7E9FF4CC7EAFF22
:10371000EF6E0701E4D9EE06EF5A02DA02E1AFECF0
:1037200017F0010C0701FCD903E1F36AF46A1200F7
:103730002851DAD9EF50010B01E0F6D90701CFD9B2
:1037400092D94F51005C5051015805E2C8D9EECFD3
:103750004FF7EDCF50F74FC71BF850C71CF84DC7B8
:1037600019F84EC71AF813EC17F0F3CF51F7F4CF4E
:1037700052F70701B4D95151EE5E5251ED5AD0D9EA
:1037800002E1AFEC17F04FC7F3FF50C7F4FF120090
:103790000701C6D902E0AFEC17F00701A0D9EE6A25
:1037A000ED6A1200080E08011B6F1C6B0801590E10
:1037B000196F070E1A6F13EC17F059C770F75AC735
:1037C00059F770C75AF75BC770F75CC75BF770C7EC
:1037D0005CF7080E006E07015E51D880005403E2CA
:1037E0005D05706F02D05DC770F7080E5E5D5D6F9E
:1037F00070C75EF75F5160116AE05FC770F760C71E
:103800005FF770C760F753C7E9FF54C7EAFF060EBA
:1038100021D9EECF62F7EECF63F7EECF64F7EFCFAB
:1038200065F74ED9EFCF66F7010E14D9EFCF67F7E2
:1038300047D9020E0FD9EFCF68F742D9030E0AD944
:10384000EFCF69F76A6B110E6B6F57C76CF758C7EC
:103850006DF757C761F058C762F0A8EC1DF0F3CFC1
:103860006CF7F4CF6DF70C0E0001736F746B0001F1
:10387000620E716F070E726FE2EC1DF0F3CF6EF700
:10388000F4CF6FF707016E1F6F1F060E00D96EC7CA
:103890000DF887EC16F0070EFAD86FC70DF887EC15
:1038A00016F00701E26BE36B03EC26F057C77DF0DF
:1038B00058C77EF04CEC1EF0F3CF6EF7F4CF6FF7E5
:1038C00007015F51F31816E160516F1913E155C7F5
:1038D00075F756C776F753C773F754C774F70701E0
:1038E000590E716F070E726F1CD80701616FFF0EC2
:1038F000615D03E1AFEC17F0010C6151A1D8100E2E
:10390000A9D85DC7EEFF5EC7EDFF6151EDD8EF802E
:10391000010C0701285194D8E9CFF3FFEACFF4FF57
:10392000120007017869000E796F070E7A6F776BC6
:10393000020E775D5BE2A6D80C0EEED8020E8AD896
:10394000C9D80001025000184AE10350011847E1AC
:1039500099D80A0EE1D8BED8025000183EE10350B3
:1039600001183BE18FD8100E75D8EECF04F0EFCFE1
:1039700005F0066A076A04500510061007102DE1CD
:1039800073C7E9FF74C7EAFF060E64D8EECF00F0F4
:10399000EECF01F09FD876D8060E5CD8EE50001816
:1039A00008E1EE50011805E1EE50021802E1EE5078
:1039B000031810E075C7E9FF76C7EAFFE868EE185C
:1039C0000CE1E868EE1809E1E868EE1806E1E8683D
:1039D000EE1803E107017751120077C778F7070166
:1039E000140E7927000E7A23772BA2D7FF0E785D6D
:1039F00024E07851140DF3CF79F7F4CF7AF7000E65
:103A00007927070E7A230A0EE66EE66A73C7E6FF89
:103A100074C7E6FF37D879C700F07AC701F079C7D5
:103A2000E6FF7AC7E6FF38D850D81DD82BD80A0E43
:103A300000C0EBFF0B0E01C0EBFF07017851120035
:103A4000140DF3CFE9FFF4CFEAFF000EE926070ECD
:103A5000EA221200E926000EEA2212003CC7E9FF22
:103A60003DC7EAFF1200EECF00F0EFCF01F01200E9
:103A700031C7E9FF32C7EAFF120036C7E9FF37C78F
:103A8000EAFF120079C7E9FF7AC7EAFF12000701CF
:103A9000E26FE36B03EF26F0D2EC2CF0026E060E21
:103AA000E15E025012000801010E0C6F83EC16F06B
:103AB000E66E1200120EEB5008015F6F4DEF19F029
:103AC00055C7E9FF56C7EAFF120071C7E9FF72C781
:103AD000EAFF1200EECF02F0EFCF03F01200285100
:103AE000AFDF100E2AEF1DF0ABDF130E2AEF1DF033
:103AF000B5DF0E0E2AEF1DF0C0DF0E0E2AEF1DF00F
:103B0000120EA8DFE552E750EF6E1200ACDFD60EC2
:103B1000005C030E015812009DDFA5DF65EF1DF06C
:103B2000DEDFEE50ED1012002851DEDFEF90080EC0
:043B300047EF1DF04E
:0C3B3400000160390F0B606FE8500908B9
:103B400004E2410E6025F60F1200300E60251200CF
:103B500062C065F061C064F062C063F062C0F3FFF0
:103B600061C0F4FF120066C06BF067C06CF068C003
:103B70006DF069C06EF000016B0E6F6F000E706F1C
:103B80006FC0E9FFEA6E030E97DAEF50E66E030EA0
:103B90008DDA6AC0EFFF62DA020E8EDA010E76DA93
:103BA000EF50E66E5BDA020E81DA010E6FDA6AC060
:103BB000EFFF6BC020F06CC021F06DC022F06EC032
:103BC00023F012000001796B7A6B7B6B7C6B71C008
:103BD00077F072C078F073C075F074C076F0D8904A
:103BE0007633753375C000F076C001F07507000EAE
:103BF000765B0050011018E077C0E9FF78C0EAFF5B
:103C0000020E7727000E7823EECF00F0EFCF01F001
:103C100000010050000179270001015000017A23C2
:103C2000000E7B237C23DED77351010B0EE077C09F
:103C3000E9FF78C0EAFFEFCF00F00001005000017B
:103C40007927000E7A237B237C237B517C1119E09A
:103C500079C000F07AC001F0026A036A7BC004F008
:103C60007CC005F0066A076A00500424796F015091
:103C700005207A6F025006207B6F035007207C6F6F
:103C8000E4D779C000F07AC001F0001E011E00C028
:103C9000F3FF01C0F4FF12000001010E7F6F806B83
:103CA000816B00017D517E114BE0400E7D5D000E69
:103CB0007E5904E3400E006E016A04D07DC000F01E
:103CC0007EC001F000C084F0005008011B6F1C6B27
:103CD0000801850E196F000E1A6F13EC17F0000122
:103CE0008451006E016A00507D5F01507E5B836BE2
:103CF0008451835DD6E28351EA6A850FE96E000E36
:103D0000EA22EFCF82F07F510AE182518025806F55
:103D10008251805D0DE2812B0BE1802B09D0825115
:103D20008125816F8251815D03E2802B01E1812B2E
:103D30007F5102E0000E01D0010E7F6F832BD8D798
:103D4000811D816F801D806FF36E81C0F4FF1200B2
:103D50000001C551390805E3300EC55D02E3300EA0
:103D60000FD0C551460805E3410EC55D02E3370E8D
:103D700007D0C551660806E3610EC55D03E3570E23
:103D8000C55D1200FF0C010E0001EA6AC625E96E4E
:103D9000C751EA22EFCFC5F0DBDF0001CA6FC6C012
:103DA000E9FFC7C0EAFFEFCFC5F0D2DF0001CB6F5C
:103DB000FF0ECA5D03E0FF0ECB5D01E1000CCB39C5
:103DC000F00BCA11C8C0E9FFC9C0EAFFEF6E010CD1
:103DD0000001D16BA6A202D00400FCD72F0EA616BC
:103DE000A6840001CEC0E9FFCFC0EAFFCE2B000EB3
:103DF000CF23EF50A86E0001D12B0001D05100015C
:103E0000D880D15501E2A86ACDC000F0016A005007
:103E1000AA6E0001CCC000F0CDC001F0CC2B000E8A
:103E2000CD230050A96E550EA76EAA0EA76EA682CE
:103E30000000A6A202D00400FCD7A850D2E1A694AC
:103E40000001D10500D012000001D76BA6A202D05C
:103E50000400FCD73F0EA6160001D72B0001D65157
:103E60000001D880D75506E2D2C0E9FFD3C0EAFFEF
:103E7000EF6A18D0D4C0A9FFD5C000F0016A005085
:103E8000AA6E0001D42B000ED523A680A850D2C064
:103E9000E9FFD3C0EAFFEF6E0001D22B000ED3235F
:103EA000A850DAE10001D70500D01200DBC000F015
:103EB0000050AA6EDAC0A9FF3F0EA6160001D8C0B6
:103EC000E9FFD9C0EAFFD82B000ED923EFCFDCF0F1
:103ED000A680A850DC5D01E0010CDC5101E1000C82
:103EE000A92AECE1AA2AEAD70001DDC0E9FFDEC079
:103EF000EAFFDD2B000EDE23EFCFE1F0EF501CE0F8
:103F0000610EE15D05E3E1517A0802E3200EE15F15
:103F1000DFC0F6FFE0C0F7FFDF2B000EE023080054
:103F2000F550E15D01E0000CDFC0F6FFE0C0F7FFF7
:103F30000800F550D9E1010C000CE2C0E8F0E3C044
:103F4000E9F00001E66BE76BE451E65DE551E75906
:103F50000BE2E8C0E9FFE9C0EAFFE82B000EE92325
:103F6000EF6AE62BE723F0D712001200030E0001E0
:103F7000F35D37E378D8F6BEF76894D8010E68D8B9
:103F8000EF380F0B006E7AD80010F66EF76AF6BEA7
:103F9000F76888D8060E016E020E5AD8EF5001C09D
:103FA000E7FFE75204E0E8427F0BE706FCE1006E22
:103FB000010E000186D80010F66EF76AF6BEF768AB
:103FC00071D8020E45D8EF503F0BF66EF76AF6BE79
:103FD000F76868D8030EF127000EF223030EF35F93
:103FE000C5D7F351000828E23ED8F6BEF7685AD884
:103FF00045D8F46FF351010805E2010E29D8EF38D6
:104000000F0BF413F451F76A080FF66E1BD8020E6B
:10401000F35D02E23D0E0CD0010E53D8F66EF76A46
:10402000F6BEF768080EF6265C0EF7220800F5507B
:104030004ED830D83D0EEF6EEFC0E9FFF0C0EAFF7A
:10404000EF6A12005C0EF7220800F55067EF20F0CF
:10405000EA6AF125E96EF251EA2212006FC0E9FF27
:1040600070C0EAFF1200F1C0E9FFF2C0EAFFEF50B2
:10407000E840E8403F0BF66EF76A1200F1C0E9FF36
:10408000F2C0EAFFEF38F00B300B1200E926000E09
:10409000EA221200EFC0E9FFF0C0EAFFEF2B000EAA
:1040A000F0231200080EF62622EF20F0EFDFE55293
:1040B000E750EF6E2EEF20F0E9DFEFCF6AF02EEF42
:1040C00020F0C6DFEF50040DF3503C0B1200E66EFB
:0A40D000E1DFE552E750EF6E120049
:0640DA00DACFE4FFE2CFA3
:1040E000DAFFE9CFE4FFEACFE4FFF6CFE4FFF7CF52
:1040F000E4FFF5CFE4FFF3CFE4FFF4CFE4FFFACF22
:10410000E4FF00EE1CF00B0EE80403E3EECFE4FF47
:10411000FBD700EE00F0100EE80403E3EECFE4FF5F
:10412000FBD7E652F2A414D09E0ED76E580ED66E70
:104130000501F82B000EF923FA23FB230501FE07E6
:1041400006E1640EFE6F0501FC2B000EFD23F294C8
:104150009E50200B05E09D50200B02E0EFEC2AF072
:104160009E50100B05E09D50100B02E005EC2BF06B
:10417000E55200EE0FF0100EE80403E3E5CFEDFF8B
:10418000FBD700EE26F00B0EE80403E3E5CFEDFFCE
:10419000FBD7E5CFFAFFE5CFF4FFE5CFF3FFE5CF9F
:1041A000F5FFE5CFF7FFE5CFF6FFE5CFEAFFE5CF77
:1041B000E9FFE5CFDAFF110025EC2EF07BD977EC93
:1041C0002EF0E7EC22F0DBEC2AF0C8EC28F0D3EC80
:1041D0000FF0E7EC2AF0E4EC2AF014D8166A0F018D
:1041E00053510501F85D006E320E005C04E3F8C522
:1041F00053FF939C8A7C28D8D2EC28F0F6EC0FF081
:1042000058D9EDD7156A146A176A0A0E0001E46FCF
:10421000E56B0001000EE26F090EE36F9DEC1FF0ED
:1042200007012E6B2F6B0701000E2C6F090E2D6FEF
:1042300007016B0E2A6FD30E2B6FECEC19F00F01F8
:10424000516FFF0E515D1200165052E1196A1A6A41
:10425000186A176A156A146A51CF4AF769EC1BF09D
:10426000000901E125D193D902E086D9FCD7C8EC39
:104270001BF0FF0E0F01525D16E107016C0E2E6F51
:10428000D30E2F6F89EC1CF0F3CF2CF7F4CF2DF762
:104290000701720E2A6FD30E2B6FECEC19F00F0191
:1042A000526FFF0E525D4D0E0201035D01E000D121
:1042B000580E045D01E0FCD0610E055D01E0F8D010
:1042C000750E065D01E0F4D0000504E147D9010E4A
:1042D000166E1200020E005D03E140D9020E05D0F9
:1042E0000A0E005D01E0E4D00A0E166E176A120095
:1042F000160421E119501A101CE05BD91BE01B6A5F
:104300001B50006E016AD890015004E6FA0E005C62
:10431000000E015803E244D91B2AF2D7FA0E070116
:104320003A6F3B6B0CD9D2EC1AF01906000E1A5AF0
:104330001200166A1200020E165C2DE119501A10B6
:1043400028E01750010A15E0010A01E0120051CFE0
:104350004AF769EC1BF0000901E1AAD0156A186A56
:1043600016D902E009D9FCD7C8EC1BF0010E176E74
:1043700012001FD901E19CD0185021D9000E386FCE
:10438000020E22D9D2EC1AF0176A1906000E1A5A38
:104390001200166A12000A0E165C01E089D0000EA7
:1043A000D8801954000E1A5458E203D901E180D084
:1043B0001B6AF6D81B501B2A006E016AFF0E0018FC
:1043C000F8E10150F6E1000E195C020E1A5807E3FD
:1043D00007013A6B010E3B6FB2D81A06F4D7000EF4
:1043E000195C010E1A582FE307013A6B3B6BA7D8F3
:1043F000010E07013A6F3B6BA2D8010EE0D8010E07
:10440000386F010EE1D80A0EDAD8020E386F010EAD
:10441000DBD80B0ED4D80C0E386F010ED5D8320E67
:10442000CED8170E386F010ECFD8630EC8D8490EFC
:10443000386F010EC9D8540EC2D8AC0E386F010EB9
:10444000C3D81A06CCD719C03AF71AC03BF777D8A9
:10445000196A1A6A172AD2EF1AF01750080A27E0C9
:104460000F0A20E0010A1CE0030A17E0010A12E02B
:10447000070A0DE0010A09E0030A05E0010A01E06C
:104480001200080E05D00F0E03D0310E01D0630EBE
:10449000196E01D019681A6A1200196A010E05D046
:1044A000196A02D0010E196E030E1A6E1200166AF6
:1044B00012001200F18E240EAC6E900EAB6E080E40
:1044C0007E6EAC0EAF6E7F6A926893689468976850
:1044D0009868D56AF28EF28C12000901140E296FC9
:1044E0000301290E5B6F090E5C6F03010F0E596FFC
:1044F000090E5A6F0BC9E9FF0CC9EAFFEF5003011F
:10450000586F6EEC12F009012A6FE850E6E11200D4
:104510001CD8020EE926000EEA22EFCF2FF915D89B
:10452000030EE926000EEA22EFCF30F90ED8EFCFC6
:1045300031F92DC9E9FF2EC9EAFFEF6A1200070120
:10454000000E386F010EE4EF22F02BC9E9FF2CC9F1
:10455000EAFF040EE926000EEA221200FF0E021501
:10456000196E1A6AFF0E0115016A016E006A005089
:10457000192601501A2212001550152AEA6A000F56
:10458000E96E020EEA220AC9EFFF182A120007019B
:104590000A0E4B6F090E4C6F78EC1BF000091200ED
:1045A0001B50EA6A000FE96E010EEA221BC0EFFF02
:1045B000120052CF34F74BEC1AF000091200070139
:0E45C0003A6F3B6B07011200396F81EF1AF062
:0245CE000901E1
:1045D0003A6B010E3B6F0701180EE76FDCEC29F018
:1045E0000901326B010C09013BB102D0FE0EDED095
:1045F000090132A102D0FE0ED9D00001FF6B0901E2
:10460000450E426F436B446B3DC9E9FF3EC9EAFF6B
:10461000EF5002E1FF0ECAD03DC9E6FF3EC9E6FFFA
:104620003AEC2DF0E552E552F3CF3DF9F4CF3EF9E7
:1046300042C9EEF743C9EFF70701A00EED6F1BEC7F
:104640002AF0000904E00001FE0EFF6FAAD066EC1C
:104650002AF00901406F090140AF03D00001FF6952
:10466000A0D00901416B0C0E0901415D2AE266EC04
:104670002AF00901406F090141510901EA6A3D250B
:10468000E96E3E51EA22EF500901405D0AE0120E48
:1046900009014227000E09014323000E09014423AA
:1046A00010D0090140510AE10901412B0C0E09010A
:1046B000415D03E266EC2AF0F7D703D00901412BF4
:1046C000D2D70C0E0901415D68E10901320E456F38
:1046D000090E466F45C9E9FF46C9EAFF010EEF6EB4
:1046E00045C9E9FF46C9EAFF010EEB6A020EEB6A13
:1046F00066EC2AF0E66E45C9E9FF46C9EAFF030EFB
:10470000E926000EEA22E552E750EF6E66EC2AF049
:10471000E66E45C9E9FF46C9EAFF030EE926000E29
:10472000EA22010EE926000EEA22E552E750EF6E7A
:1047300066EC2AF0E66E45C9E9FF46C9EAFF030EBA
:10474000E926000EEA22020EE926000EEA22E552D0
:10475000E750EF6E66EC2AF0E66E45C9E9FF46C900
:10476000EAFF060EE926000EEA22E552E750EF6E58
:1047700066EC2AF0E66E45C9E9FF46C9EAFF060E77
:10478000E926000EEA22010EE926000EEA22E55291
:10479000E750EF6E09013A2B04D070EC2AF00400C8
:1047A00047D770EC2AF00001FF5100D0120047C932
:1047B00048F903D80901326B12000901320E496F22
:1047C000090E4A6F49C9E9FF4AC9EAFFEF50020BD7
:1047D00003E070EC2AF012D049C9E9FF4AC9EAFFA8
:1047E000EF50040B0BE05CEC2AF00701A00EF96F10
:1047F000AAEC2AF0000902E00400F7D7F90E006ED7
:1048000049C9E9FF4AC9EAFF0050EF161200090141
:10481000320E4D6F090E4E6F9F0E006E9FD8E850FE
:10482000EF169CD8EF50010B16E098D8EF50020B12
:1048300015E194D8C0D892D89BD800C0EEF701C03B
:10484000EFF70701A00EED6F1BEC2AF0000903E162
:1048500085D8EF8203D082D8EF8A000C66EC2AF06C
:1048600009014C6F7BD89ED879D890D805E10350C8
:10487000011802E173D8EF8C09014C511200010CB0
:104880000901320E516F090E526F51C9E9FFEA6EEC
:10489000EF50040B04E0400E3C5D01E39AD863D86E
:1048A000EF50040B0EE15FD886D85DD861D800C008
:1048B000E9F701C0EAF786D803E155D8EF8401D0C3
:1048C000000C50C9F1F748EC2AF04DD86BD84BD802
:1048D0005DD805E10350011802E145D8EF8C010CC9
:1048E00012001200F36AF46A1200216A226A236A33
:1048F0001200000C09013BA1000C32B1000C010EAA
:10490000326F400E356F366B376B010C0901320E7A
:104910005F6F090E606F32A504D0400E3C5D01E36D
:1049200058D8090132B50BD035C9E9F736C9EAF7CD
:1049300049D804E1090132853C6B01D0000C5EC905
:10494000F1F748EC2AF009013C2B352B000E3623F9
:104950003723010C3ED80901326B010C4DC9E9FF28
:104960004EC9EAFF120051C9E9FF52C9EAFF12001D
:10497000030EE926000EEA22EE500324006EEE50EC
:104980000420016EEE500520026E1200060EE9268C
:10499000000EEA22EECF02F0EFCF03F0000102504A
:1049A00000181200EE52EE2A000EED22EECF00F0BB
:1049B000EDCF01F01200EE52EECF03F0EFCF04F096
:1049C000056A12000701A00EE86FE5EC29F0000966
:0A49D00012000901486BDDEF23F02F
:0649DA00140E08011B6F22
:1049E0001C6B0801860E196F070E1A6F13EC17F077
:1049F000F00E07018615400801E0000C0F0E861529
:104A0000040DF3CF7BF7F350006E016A140E005EC5
:104A1000000E015A00C0A0F70050280801E2000C67
:104A2000A05100080BE2A05108011B6F1C6B08018C
:104A3000A10E196F070E1A6F13EC17F090C79AF7B3
:104A400091C79BF70701906B916B140E15D9860ED9
:104A5000716F070E726FE2EC1DF0F3CF9CF7F4CF8D
:104A60009DF707019C1F9D1FA051000810E2A05157
:104A700003D9A10E716F070E726FE2EC1DF0F3CF38
:104A80009EF7F4CF9FF707019E1F9F1F02D09E6BDA
:104A90009F6B040EF1D89C0E716F070E726FE2ECE3
:104AA0001DF0F3CF84F7F4CF85F70701F3509A197F
:104AB00002E185519B1901E0000C0701860EE46FAD
:104AC000070EE56FACD807017C517D110CE07CC767
:104AD000E9FF7DC7EAFF96C7EEFF97C7EEFF98C7CD
:104AE000EEFF99C7EEFF7EC7E9FF7FC7EAFF060E1C
:104AF000DDD892C7EEFF93C7EEFF94C7EEFF95C7D0
:104B0000EEFF80C7E9FF81C7EAFF8FC7EFFF7B5148
:104B1000026E036A0250885D006E03508959016E6F
:104B200082C7E9FF83C7EAFF00C0EEFF01C0EDFFC7
:104B3000010C0701140E7B6F450ECE6FCF6B140E68
:104B4000CC25D06F000ECD21D16F0F01542B000E5C
:104B5000552354CFD2F755CFD3F70701D46B400E6E
:104B6000D56F640ED66FCBC7D7F7D86BD96BE4C5BA
:104B7000DAF7E5C5DBF7E6C5DCF7E7C5DDF7C9C75A
:104B8000E9FFCAC7EAFF060E91D8EECFDEF7EECFF7
:104B9000DFF7EECFE0F7EFCFE1F70701CE0EE46FDE
:104BA000070EE56F3CD8140E67D8CE0E716F070E56
:104BB000726FE2EC1DF0F3CFD8F7F4CFD9F7140EF3
:104BC0000701CC2508014E6F000E0701CD21080119
:104BD0004F6F08014D6BC9C7E9FFCAC7EAFFC9C7D4
:104BE0004BF8CAC74CF898EC18F0140E0801106F77
:104BF000116B0801CE0E0E6F070E0F6F9BEC16F0B7
:104C0000F36AF46A120007017B51E22508015B6F29
:104C1000000E0701E32108015C6F3EEF19F027D871
:104C2000020E35D8020E38D8020E2BD8020E39D813
:104C3000040E2DD8040E30D8040E23D8040E31D81B
:104C4000060E25D8060E28D8060E1BD8060E29D823
:104C50000A0E1DD80A0E20D80A0E13D80A0E03D841
:104C6000E6C7EFFF120022D8010E56EF26F0E4C788
:104C7000E9FFE5C7EAFF12000001736F746B0001E2
:104C8000120014D8E552E750EF6E37EF26F00ED839
:104C9000EFCFE6F737EF26F0E6DFEF50E66E37EFBF
:104CA00026F0E1DFE6C7EFFF37EF26F0E926000E3A
:044CB000EA221200E2
:0C4CB4001C0E08011B6F1C6B0801680E31
:104CC000196F080E1A6F13EC17F0AFEC17F008010C
:104CD000680EA46F080EA56F05D90801010E6819AA
:104CE00012E1695110E16C51006E016A060E001864
:104CF0000AE1015008E16D51026E036A040E0218C8
:104D000001E1035001E0000C020E6E1905E16F5144
:104D100003E116D9EF6A0DD0010E6E1906E16F514D
:104D200004E1010E0DD9EF6E04D0020E09D9EF6E29
:104D3000000C0501E4510801805D2EE10501E551FB
:104D40000801815D29E10501E6510801825D24E148
:104D50000501E7510801835D1FE164C8E9FF65C8EB
:104D6000EAFF70C8EEFF71C8EEFF72C8EEFF73C8AD
:104D7000EEFF74C8EEFF75C8EEFF64C8E9FF65C8B2
:104D8000EAFF060EE7D876C8EEFF77C8EEFF78C8D0
:104D9000EEFF79C8EEFF010C000C0801010E0C6F4C
:104DA00083EC16F00801A36FFF0EA35D01E1000C78
:104DB0000801606B616BA3C85FF84DEC19F0010E40
:104DC0000801876F886B896B080E8A6F060E8B6FE0
:104DD000040E8C6F86050AE1010E8D6F8E6B99694A
:104DE0009A699B699C699D699E6913D0020E8D6FBB
:104DF0008E6B84C8E9FF85C8EAFFEECF99F8EECF45
:104E00009AF8EECF9BF8EECF9CF8EECF9DF8EFCF5F
:104E10009EF8E8C58FF8E9C590F8EAC591F8EBC5AA
:104E200092F8ECC593F8EDC594F8E4C595F8E5C59E
:104E300096F8E6C597F8E7C598F87BD8EF5095192E
:104E40000501EE151BE175D8010E84D8EF5008015D
:104E500096190501EF1512E16CD8020E7BD8EF50C0
:104E6000080197190501F01509E163D8030E72D8FE
:104E7000EF50080198190501F11509E0F2C59FF8F6
:104E8000F3C5A0F8F4C5A1F8F5C5A2F809D051D82A
:104E9000EECF9FF8EECFA0F8EECFA1F8EFCFA2F8BB
:104EA0000801870EA46F080EA56F1CD81C0E080100
:104EB0004E6F4F6B0801060E4D6F0801990E4B6F38
:104EC000080E4C6F98EC18F01C0E0801106F116B57
:104ED0000801870E0E6F080E0F6F9BEC16F0ECECBE
:104EE00018F0010C32D819D8F3CFEEFF01C0EDFF56
:104EF0002CD8020E2FD811D8020EF3CFEBFF030EE1
:104F000001C0EBFF22D8060E25D807D8060EF3CF36
:104F1000EBFF070E01C0EBFF1200EECF61F0EDCF0B
:104F200062F0A8EC1DF0F3CF00F0F4CF01F0A5EF94
:104F300027F084C8E9FF85C8EAFF060EAAEF27F02C
:104F400066C8E9FF67C8EAFF1200A4C8E9FFA5C860
:0C4F5000EAFF1200E926000EEA2212001F
:044F5C00080E080132
:104F60001B6F1C6B0801980E196F060E1A6F13EC5D
:104F700017F0080E006E02D9E850EF5EFFD8EF5030
:104F800008011B6F1C6B90C619F891C61AF813EC38
:104F900017F09AC6C2F69BC6C3F606019A6B9B6BC6
:104FA000080E0001736F746B0001980E716F060E8E
:104FB000726FE2EC1DF0F3CFC4F6F4CFC5F6060134
:104FC000C41FC51FDBD8EF500001736F746B90C610
:104FD00071F091C672F0E2EC1DF0F3CFC6F6F4CF9B
:104FE000C7F60601C61FC71F040E0001736F746B5E
:104FF0000001C40E716F060E726FE2EC1DF0F3CF6C
:10500000C0F6F4CFC1F60601980EFD6F060EFE6FD6
:105010008AD88EC6E9FF8FC6EAFF98C6EFFF94C60E
:10502000E9FF95C6EAFF9CC6EEFF9DC6EDFF96C65A
:10503000E9FF97C6EAFF9EC6EEFF9FC6EDFF060199
:10504000C251C01902E1C351C11901E0000C010CA9
:105050000801010E0C6F83EC16F00601FC6FFF0EC9
:10506000FC5D01E11200140E0801606F616BFCC66B
:105070005FF84DEC19F0080E0601CD25FA6FFB6BB9
:10508000000EFB23D36BCAC6D2F6D46BD56BCEC64B
:10509000D6F6CFC6D7F6D0C6D8F6D1C6D9F6CD51FA
:1050A000E66EE66ACBC6E6FFCCC6E6FFDA0EE66E33
:1050B000060EE66ED2EC2CF0006E060EE15E00509D
:1050C0000601D20EFD6F060EFE6F2DD8FAC673F0E4
:1050D000FBC674F00001D20E716F060E726FE2EC27
:1050E0001DF0F3CFD4F6F4CFD5F6080E0601CD258A
:1050F0000701CC6FCD6B000ECD230701010ECB6FE6
:10510000C8C6C9F7C9C6CAF799EC25F0FAC610F89F
:10511000FBC611F80801D20E0E6F060E0F6F9BEC46
:1051200016F0ECEF18F02FD8040E15D8040EF3CFBC
:10513000EBFF050E1FD8060E0ED8060EF3CFEBFFC1
:10514000070E18D8020E07D8020EF3CFEBFF030E9E
:1051500001C0EBFF1200E926000EEA22EECF61F05B
:10516000EDCF62F0A8EC1DF0F3CF00F0F4CF01F02A
:10517000C3EF28F001C0EBFFC3EF28F092C6E9FFB0
:1051800093C6EAFF1200FDC6E9FFFEC6EAFF120061
:105190000801A76BD0EC15F03DEC2CF0E0EC19F019
:1051A0003AEF04F00801DD6B0801A751040A01E1A0
:1051B000D7D0070A01E1A1D0050A01E189D0010A8F
:1051C00072E0050A32E0070A29E0050A03E0010A55
:1051D00001E0E8D00801DC0E326F080E336F0801E1
:1051E000A80E306F080E316FF1EC17F0000901E1E5
:1051F000D9D00801010EDD6F0801DC5104E108017E
:10520000020EA76F0AD0060E0801DC5D04E108015A
:10521000050EA76F02D0AFEC17F0C4D04AEC2CF00B
:10522000000902E00801A76BBDD00701B20E826F32
:10523000080E836F0701DC0E806F080E816F070177
:10524000A80E7E6F080E7F6F0701D80E7C6F080EC8
:105250007D6FEDEC24F0000921E00801010EDD6F07
:105260000801DC0504E10801030EA76F16D0060E45
:105270000801DC5D04E10801060EA76F0ED0110ED7
:105280000801DC5D04E10801070EA76F06D00801E4
:10529000DD6BAFEC17F00801A76B04D0AFEC17F093
:1052A0000801A76B7FD0B2C857F7B3C858F70701FA
:1052B000D80E556F080E566F0701A80E536F080ED3
:1052C000546FD2EC1BF0000902E00801A76B6AD012
:1052D000B2C853F5B3C854F50501D80E516F080E86
:1052E000526F0501A80E4F6F080E506FCFEC08F0FB
:1052F000000902E00801A76B55D00801A76B08015F
:10530000290ED880B255000EB35527E30601D60EFC
:10531000966F080E976F0601D40E946F080E956F66
:105320000601B20E926F080E936F0601B40E906FD5
:10533000080E916F0601DC0E8E6F080E8F6FAEECBB
:1053400027F000090AE0080E0801DC5D06E108010B
:10535000010EDD6F0801040EA76FAFEC17F022D02D
:105360000801010E0B6F7FEC16F000091AE0D6C899
:10537000D0F6D7C8D1F6D4C8CEF6D5C8CFF6B2C8C5
:10538000CDF60601B40ECB6F080ECC6F0601CA6BCA
:105390000601A80EC86F080EC96F28EC28F0080196
:1053A000A76B00D004000801DD5101E0FBD6D6EC6C
:0853B00007F069EC16F0120091
:0853B800E7C7FEF40401FD6BE0
:1053C0000401080EFC6F43EF2EF0E9C7EBF7EAC7C4
:1053D000ECF7C750040B01E0010EE4D8FAE1C580F8
:1053E000C5B0FED7A1B6010CE8C7FFF4E0D801E0D4
:1053F000010CC750040B01E0010ED4D8FAE1C5BC82
:1054000019D0ECC7FFF4D3D801E0010CC750040B4E
:1054100001E0010EC7D8FAE1EBC7FFF4C8D801E0FC
:10542000010CC750040B01E0010EBCD8FAE1C5AC79
:10543000000C020C020CEEC7E9F7EFC7EAF7EDC764
:10544000E8F7C3DF0701F06FE85005E177D80701FF
:10545000F06FE85002E0F0511200C750040B01E079
:10546000010EA0D8FAE1C580C5B0FED7A1B6010CE7
:105470000701ED290401FF6F9AD801E0010CC75024
:10548000040B01E0010E8ED8FAE1C5AC000C020C51
:10549000C750040B01E0010E85D8FAE1F1C7FFF413
:1054A00086D801E0010CC750040B01E0010E7AD848
:1054B000FAE1C5AC000C020CC750040B01E0010E70
:1054C00071D8FAE1C584C5B4FED7000C52EC2EF0B9
:1054D000C5B6FED7C59AC588C5B8FED7C950120053
:1054E00052EC2EF0C5B6FED7C58AC588C5B8FED722
:1054F000C584C5B4FED7000CF3C7EEF7F4C7EFF7C9
:10550000F2C7EDF798DF0701F86FE85015E1F751A2
:10551000F70700090EE0DADFE66E0701F5C7E9FFDD
:10552000F6C7EAFFF52B000EF623E552E750EF6EC3
:10553000EED7D6DF0701F86FF8511200C750040B01
:1055400001E0010E2FD8FAE1C584C5B4FED7A1B69B
:10555000010C000CC750040B01E0010E23D8FAE146
:10556000C580C5B0FED7A1B6010CF9C7FFF41FD89E
:1055700001E0010CC750040B01E0010E13D8FAE161
:10558000A1B6010CC5BC03D00701FA6B03D007011B
:10559000040EFA6FC584C5B4FED7A1B6010C07018D
:1055A000FA511200006E1F0EC5140010120057ECC5
:0655B0002EF000091200BC
:0A55B6000601846B406B416B826BB1
:1055C000836B9D9A9D9812009D8A9D9812000601FA
:1055D000416B41C640F6836B83C682F61200060E0D
:1055E000AB1402E0AB98AB889EAA0ED006018351A3
:1055F000EA6A420FE96E060EEA22AECFEFFF832B76
:105600003F0E8315836FF0D7120006014051415DB4
:105610000DE04051EA6A000FE96E060EEA22EF50F3
:10562000AD6E402B3F0E4015406F12009D9812004A
:10563000120006018451120006018251EA6A420FEB
:10564000E96E060EEA22EFCF85F6822B3F0E821519
:10565000826F85511200060141293F0B0601405D12
:1056600002E10400F8D7F29E9DB805D086C6ADFFD2
:105670009D88F28E11D006014151EA6A000FE96E51
:10568000060EEA2286C6EFFF0601412B3F0E0601F9
:1056900041150601416FF28E1200060187519F08E5
:1056A00005E287390F0B0F0B570F04D087390F0B0B
:1056B0000F0B300F0601866FCEDF0F0E0601871528
:1056C000090804E20F0E8715570F03D00F0E871538
:1056D000300F0601866F2BEF2BF0060188C6E9FF1D
:1056E00089C6EAFF882B000E8923EFCF8AF6EF5098
:1056F00004E08AC686F6AFDFF0D7120006018BC63B
:10570000F6FF8CC6F7FF8B2B000E8C230800F5CF1D
:105710008DF6F55004E08DC686F69DDFEFD71200BA
:1057200043616368652D436F6E74726F6C3A206DD0
:1057300061782D6167653D3630302C206D7573744E
:105740002D726576616C69646174650D0A00485458
:1057500054502F312E302034303120556E61757405
:10576000686F72697A65640D0A5757572D417574D1
:1057700068656E7469636174653A20426173696338
:10578000207265616C6D3D2264656661756C742282
:105790000D0A0D0A41757468656E746963617469F8
:1057A0006F6E205265717569726564210D0A00483B
:1057B0005454502F312E3020353033200D0A0D0A2D
:1057C0005365727669636520556E617661696C61B7
:1057D000626C650D0A00485454502F312E3020342D
:1057E0003034204E6F7420666F756E640D0A0D0A9A
:1057F0004E6F7420666F756E642E0D0A00617564BD
:10580000696F2F782D77617665006170706C6963C0
:105810006174696F6E2F6A6176612D617263686968
:10582000766500696D6167652F6A70656700696DEF
:105830006167652F67696600746578742F6A6176A1
:105840006173637269707400746578742F63737325
:10585000006170706C69636174696F6E2F6A617644
:10586000612D766D00746578742F68746D6C0074AA
:0A5870006578742F706C61696E009A
:06587A000901616B626987
:1058800063696469656966696769686B696B6A6B96
:105890006B6B12000901615128E10801760E666FF9
:1058A000090E676F08016C0E646F090E656F5AEC84
:1058B00026F0000929E00901765115E16CC962F969
:1058C0006DC963F96EC964F96FC965F970C966F984
:1058D00071C967F972C968F973C969F974C96AF954
:1058E00075C96BF9010C010E616F0801866B080127
:1058F0006C0E846F090E856FCDEC26F0000903E075
:105900000901616B010C000C010C77C9E9FF78C932
:10591000EAFFEECF7FF9EECF80F9EECF81F9EFCF3E
:1059200082F90801010E866F0801790E846F090E55
:10593000856FCDEF26F083C9E9FF84C9EAFF09012D
:105940006851EE1808E16951EE1805E16A51EE1848
:1059500002E16B51EE1814E00501F2510901685D96
:1059600020E10501F3510901695D1BE10501F451D5
:1059700009016A5D16E10501F55109016B5D11E14F
:1059800085C9E9FF86C9EAFF62C9EEFF63C9EEFF78
:1059900064C9EEFF65C9EEFF66C9EEFF67C9EEFF99
:0459A000010C000CEA
:0C59A400D9CFE6FFDACFE6FFFA0EE3CF22
:1059B000D9FFFB0EE3CFDAFFFC0EE3CFE9FFFD0ECC
:1059C000E3CFEAFFE9CFF3FFEACFF4FFF80EE350AD
:1059D00003E1F90EE35008E0F80EE30602E2F90EE7
:1059E000E306DECFEEFFF2D7FF0EE3CFDAFFE5529C
:1059F000FF0EE3CFD9FFE5521200FB0EE3CFF6FF17
:105A0000FC0EE3CFF7FFFD0EE3CFF8FFFE0EE3CF72
:105A1000E9FFFF0EE3CFEAFF0900F550EF5C02E17A
:105A2000EE66FAD71200FB0EE3CFF6FFFC0EE3CFD3
:105A3000F7FFFD0EE3CFF8FFFE0EE3CFE9FFFF0E09
:105A4000E3CFEAFFE9CFF3FFEACFF4FF0900F5CF98
:105A5000EFFFEE66FBD71200FE0EE3CFE9FFFF0E6D
:105A6000E3CFEAFFF36AF46AEE5203E0F34AF42A62
:105A7000FBD71200FE0EE3CFE9FFFF0EE3CFEAFFF4
:105A8000E9CFF3FFEACFF4FF610EEF5C05E67B0E92
:0E5A9000EF5C02E7DF0EEF16EE52F6E11200B9
:025A9E0054585A
:105AA000540048544D00434C4100435353004A5363
:105AB000000047494600434749004A5047004A41D1
:105AC000520057415600545854005A5458005A48EE
:105AD00054005A434C005A4353005A4A5300485406
:105AE00054502F312E3020323030204F4B00436F36
:105AF0006E74656E742D747970653A2000436F6E14
:105B000074656E742D456E636F64696E673A2067C5
:105B10007A69700D0A00457870697265733A2030B1
:105B20000D0A0043616368652D436F6E74726F6C7C
:105B30003A206D61782D6167653D3330302C206DE2
:105B40007573742D726576616C69646174650D0A94
:105B50000047455400494E4445582E48544D004C8A
:095B60004F47494E2E434749000E
:065B6A002A0EF66E080E83
:105B7000F76E000EF86E00010900F550FA6F09008B
:105B8000F550FB6F03E1FA6701D03DD00900F550F5
:105B9000F56F0900F550F66F0900F550F76F090031
:105BA0000900F550E96E0900F550EA6E0900090098
:105BB0000900F550F86F0900F550F96F0900090068
:105BC000F6CFFCF0F7CFFDF0F8CFFEF0F5C0F6FF12
:105BD000F6C0F7FFF7C0F8FF0001F85302E1F953F0
:105BE00007E00900F550EE6EF807F8E2F907F9D77B
:105BF000FCC0F6FFFDC0F7FFFEC0F8FF0001FA078A
:085C0000000EFB5BBFD7120090
:085C0800414243444546474870
:105C1000494A4B4C4D4E4F5051525354555657587C
:105C2000595A6162636465666768696A6B6C6D6E18
:105C30006F707172737475767778797A3031323328
:095C40003435363738392B2F00BA
:015C4900FE5C
:065C4A00AA6AA96A3F0EE0
:105C5000A6160501E40EF66F050EF76FA950006E4B
:105C6000016A120E005C000E01580CE2A680F6C517
:105C7000E9FFF7C5EAFFF62B000EF723A8CFEFFFE9
:065C8000A92AECD7120076
:0A5C86003F0EC716C66AC56A040186
:105C9000FC51C612FD51C71294869488C68AFEC470
:105CA000C8FF1200C586C7A0FED7C9501200FFC4A6
:0C5CB000C9FFC6BEFF0CC7B0FED7000C39
:045CBC000701FB5190
:105CC000FB07000906E00D0EFC6FFC51F7E0FC0736
:105CD000FCD712000701FD51FD07000907E0080E7F
:0E5CE000E66E88EC2EF0E5520400F4D71200B8
:025CEE000501AE
:105CF000F86BF96BFA6BFB6BFC6BFD6B580ED66E99
:105D00009E0ED76E010ED56ED58EF284F28A1200E9
:105D1000FF0EE350276E480E01D04C0EE76EE72EC3
:105D2000FED7E76AE72EFED7272EF7D7000012002E
:105D30001EEE00F02EEE00F0F86A269CB5EC2DF079
:085D4000DCEC20F0FDD712009D
:085D480056332E3030003132D9
:085D500033343536534552008F
:085D580000EE00F00F0EEE6AF0
:065D6000EA62FDD712000B
:065D660056322E34370016
:025D6C00000431
:025D6E00FFFF35
:015D70000032
:025D7100000030
:0D5D73006F5865585158485838582E5865DB
:105D80005823580A58FD576F586F5865585158484E
:095D9000583858D657AF574E574A
:075D99007C2424247D7273B9
:105DA0007475767778797A7B242424242424243EFD
:105DB0003F404142434445464748494A4B4C4D4E7B
:105DC0004F505152535455565724242424242458B8
:105DD000595A5B5C5D5E5F606162636465666768BB
:0A5DE000696A6B6C6D6E6F707100E4
:020000040030CA
:0100010046B8
:010002000EEF
:010003000EEE
:010005008377
:010006008178
:01000800FFF8
:010009008076
:01000A00FFF6
:01000B008074
:01000C00FFF4
:01000D0000F2
:0200000400F00A
:100000000A0100010004A3000000FF0000000A0133
:0400100000010401E6
:00000001FF
