:020000040000FA
:0608000023EF2CF01200B2
:060808009DEF1BF0120041
:06082A000400C3560000AB
:10083000FF0300000100000079580000D40500000B
:100840002800000077580000FE04000002000000AD
:0C08500074580000FA00000003000000D3
:04085C000301066B23
:100860000A0E065D26E20651220DF3CF07F3F4CF00
:1008700008F3000E07270C0E08237DEC0DF0EF6A3D
:10088000ECEC0EF0EF90ECEC0EF0EF82ECEC0EF0F6
:10089000EF84ECEC0EF0EF98ECEC0EF0EF967DECC4
:1008A0000DF099EC0EF07DEC0DF0B1EC0EF0062B96
:1008B000D7D7006B040E016F026B036B046B056BE3
:1008C000120003010B6B0A0E0B5D4AE20B51220D65
:1008D000F3CF0CF3F4CF0DF3000E0C270C0E0D2309
:1008E00067EC0DF0EF50000939E167EC0DF0010EF7
:1008F000EF6E67EC0DF00B0E09C3EBFF0C0E0AC395
:10090000EBFF67EC0DF00D0EEB6A0E0EEB6A67EC79
:100910000DF0ADEC0EF0FEEC0EF0EF80FEEC0EF004
:10092000EF9667EC0DF099EC0EF0FEEC0EF0EF8216
:100930000001090EE96F800E03010B259DEC0EF0FE
:100940000AC317F0186A0AC3E7F0D5EC27F009C309
:10095000E7F0D5EC27F003010B5112000B2BB3D7B6
:10096000FE0C0301156B126B0A0E125D14E212519C
:10097000220DF3CF13F3F4CF14F3000E13270C0E54
:1009800014231EEC0DF0EF50000903E1010E156F6A
:1009900002D0122BE9D7155105E10001070EDBEC5F
:1009A0000DF0FE0C002B000E01231EEC0DF00B0EC3
:1009B00000C3EBFF0C0E01C3EBFF880ED88000557F
:1009C000130E015503E2006B040E016F1EEC0DF0D7
:1009D0004BEC0EF0EF901EEC0DF00D0E10C3EBFF84
:1009E0000E0E11C3EBFF022B000E0323042305237D
:1009F000B5EC0EF0E1EC0DF01EEC0DF0180EFAEC7B
:100A00000CF00BEC0EF00A0EE66EE66A0EC3E6FF83
:100A10000FC3E6FF1EEC0DF028EC0DF092EC0DF08C
:100A20000301020E7B6F1EEC0DF0A1EC0EF0B5EC95
:100A30000EF082EC0DF01EEC0DF0A5EC0EF01EECAD
:100A40000DF0A9EC0EF01EEC0DF076EC0DF00001AF
:100A5000080EDBEC0DF01EEC0DF0030EEF6EB5ECA6
:100A60000EF03DEC0EF01EEC0DF08BEC0DF00301E2
:100A7000125112000301165141EC0DF0EF50040821
:100A800001E0000C010C03011751220DF3CF18F304
:100A9000F4CF19F3000E18270C0E19236CEC0DF08F
:100AA000EF50040813E06CEC0DF0CFEC0EF0010BEE
:100AB00003E00001190E02D000011A0EEAEC0DF05D
:100AC00018C3B0F319C3B1F326EF0BF017C329F322
:100AD00057D992EC0DF00301110E7B6F6CEC0DF009
:100AE000A1EC0EF06CEC0DF0EFEC0EF082EC0DF0E2
:100AF0006CEC0DF0A5EC0EF06CEC0DF0A9EC0EF02A
:100B00006CEC0DF076EC0DF06CEC0DF0EFEC0EF003
:100B10003DEC0EF00001040EEAEC0DF06CEC0DF073
:100B2000050EEF6E120003011A51220DF3CF1BF3D5
:100B3000F4CF1CF3000E1B270C0E1C2323EC0DF02E
:100B400047EC0EF003E100012D0E08D023EC0DF070
:100B5000CFEC0EF0020B09E100012E0EE96F800EC2
:100B600003011A259DEC0EF0000C23EC0DF0100E85
:100B7000FAEC0CF0EECF7DF3EDCF7EF323EC0DF02D
:100B80000F0EEB5003017C6F0301100E7B6FA1EC85
:100B90000EF023EC0DF0EFEC0EF082EC0DF023ECF8
:100BA0000DF0A5EC0EF023EC0DF0A9EC0EF023EC0B
:100BB0000DF076EC0DF023EC0DF0100E72EC0EF053
:100BC000196A1A6A23EC0DF0EFEC0EF01750EE26BE
:100BD0001850EE221950EE221A50EE2211EC0FF0AE
:100BE000EF9211EC0FF0EF9823EC0DF0C1EC0DF04B
:100BF00023EC0DF099EC0EF011EC0FF0EF82010CEC
:100C00000A0E03011D5D13E21D5141EC0DF00F0EA4
:100C1000FAEC0CF0EF50FF0802E1AFEF14F01D51B9
:100C200041EC0DF0CFEC0EF0020B02E0010C000ED7
:100C3000120003011E51220DF3CF20F3F4CF21F354
:100C4000000E20270C0E212371EC0DF047EC0EF066
:100C500014E171EC0DF00F0E03C0EBFF71EC0DF021
:100C6000EB500501946FEAEC15F071EC0DF0F0EC2F
:100C70000DF071EC0DF01FEC0EF071EC0DF0DEECF0
:100C80000EF001E3000C71EC0DF04BEC0EF0EF8870
:100C90001FC380F5BDEC14F071EC0DF0100EFAECF2
:100CA0000CF0EE2AEF2271EC0DF0DEEC0EF003E317
:100CB0001EC31AF338DF010C03012251220DF3CFBA
:100CC00027F3F4CF28F3000E27270C0E282350EC2F
:100CD0000DF047EC0EF014E150EC0DF00F0E03C0D8
:100CE000EBFF50EC0DF0EB500501946FEAEC15F0C2
:100CF00050EC0DF0F0EC0DF050EC0DF01FEC0EF0A0
:100D000050EC0DF0DEEC0EF001E3000CBBEC0EF04D
:100D1000EE24176E2651EE20186ECA0ED880175496
:100D2000030E18540EE250EC0DF0100EFAEC0CF01D
:100D3000EECF25F3EFCF26F3CA0ED8802557030E4A
:100D4000265750EC0DF04BEC0EF0EF8825C383F5E1
:100D500026C384F523C381F524C382F5DFEC14F0A8
:100D6000BBEC0EF0EE262651ED2250EC0DF0DEEC41
:100D70000EF003E322C31AF3D6DE0301255112005D
:100D800003012951220DF3CF2AF3F4CF2BF3000EE8
:100D90002A270C0E2B232AC3E9FF2BC3EAFFCFEC33
:100DA0000EF0080B01E1000CF8EC15F02AC3E9FF86
:100DB0002BC3EAFF4BEC0EF0EF96010C03012C5114
:100DC000220DF3CF2FF3F4CF30F3000E2F270C0EAC
:100DD0003023B1EC0DF0CFEC0EF0080B2BE0B1ECB2
:100DE0000DF0CFEC0EF0040B08E0280EB6EC0DF081
:100DF000B1EC0DF04BEC0EF0EF94B1EC0DF004EC17
:100E00000FF0EE50ED1008E1F8EC15F0B1EC0DF03C
:100E10004BEC0EF0EF96000CB1EC0DF004EC0FF083
:100E2000EE06EF5A53EC15F02DC3E9FF2EC3EAFF8F
:100E3000EF6E010C000C03013151220DF3CF38F39A
:100E4000F4CF39F3000E38270C0E392398EC0DF04F
:100E5000CFEC0EF0080B3AE098EC0DF0CFEC0EF072
:100E6000040B08E0280EB6EC0DF098EC0DF04BECFE
:100E70000EF0EF9498EC0DF0120E72EC0EF00301F0
:100E80003451175C3551185808E298EC0DF004EC19
:100E90000FF0EECF34F3EDCF35F398EC0DF004EC1A
:100EA0000FF0EE50ED1008E1F8EC15F098EC0DF0B5
:100EB0004BEC0EF0EF960AD034C38EF535C38FF5A8
:100EC00032C38CF533C38DF591EF15F0F36AF46AF4
:100ED00012000A0E03013A5D08E23A5141EC0DF0AE
:100EE000CFEC0EF0080B02E0010C000E1200030123
:100EF000426B3B6B0A0E3B5D01E3FDD03B51220D83
:100F0000F3CF3CF3F4CF3DF3000E3C270C0E3D2312
:100F10000AEC0FF0080B01E0EBD00AEC0FF0100B1D
:100F200001E0E6D009EC0DF0EF50000901E1E0D05E
:100F300009EC0DF0EF50010805E10AEC0FF0010B90
:100F400001E0D6D009EC0DF01D0EFAEC0CF0040116
:100F5000EE50F75D176EEE50F859186E09EC0DF073
:100F60001F0EFAEC0CF015EC0EF01750195C18502F
:100F70001A5801E3BDD0AFEC14F0000901E11200F2
:100F800009EC0DF08BEC0DF009EC0DF01F0EFAECF6
:100F90000CF0EE2AEF2209EC0DF01C0EFAEC0CF02E
:100FA000EF2A09EC0DF0EF50060A47E0010A45E090
:100FB000020A2FE00F0A2DE00E0A20E0060A08E0E0
:100FC000010A56E10001280ECCEC0EF0020E4FD0C3
:100FD000C8EC0EF0176E030E175C06E200011B0E44
:100FE000CCEC0EF0120E43D00AEC0FF0010B03E034
:100FF00000011C0E2FD000011D0E2CD00001050E8B
:10100000CCEC0EF0110E426F09EC0DF0050EEF6EF8
:101010002FD0C8EC0EF003080AE20AEC0FF0010B27
:1010200003E000011E0E16D000011F0E13D00001B8
:101030002A0ECCEC0EF0010E1AD0C8EC0EF003080C
:1010400011E20AEC0FF0010B03E00001200E02D0C8
:101050000001210E18EC0DF03CC3B0F33DC3B1F319
:10106000F5DA06D00001290ECCEC0EF0100E426F1E
:101070000301425100083CE2100E425D11E009EC10
:101080000DF0EFEC0EF0EFCF3EF3EE2AEFCF3FF393
:10109000EE22EFCF40F3EE22EFCF41F3EF220CD060
:1010A00009EC0DF0EFEC0EF0EECF3EF3EECF3FF398
:1010B000EECF40F3EFCF41F392EC0DF042C37BF360
:1010C00009EC0DF0A1EC0EF03EC373F33FC374F3D3
:1010D00040C375F341C376F309EC0DF0A5EC0EF0B7
:1010E00009EC0DF0A9EC0EF009EC0DF076EC0DF02A
:1010F00003013B2BFFD61200140E05018E6F8F6B80
:101100000501490E8C6F030E8D6F91EC15F00301F4
:10111000490EAD6F030EAE6F62DA43C3E9FF44C3FD
:10112000EAFF07EC0FF0EECF5DF3EECF5EF3EECF0C
:101130005FF3EFCF60F342EC0EF0EFCF61F3010EFF
:10114000FAEC0CF0EFCF62F342EC0EF0020EFAEC88
:101150000CF0EFCF63F342EC0EF0030EFAEC0CF060
:10116000EFCF64F30301656B060E666F47C367F349
:1011700048C368F347C300F448C301F450EC1EF0C1
:10118000F3CF67F3F4CF68F30C0E0401126F136B07
:1011900004015D0E106F030E116F8AEC1EF0F3CF89
:1011A0006AF3F4CF6BF303016A1F6B1F240EB6ECD6
:1011B0000DF06AC380F5BDEC14F06BC380F5BDEC97
:1011C00014F0140EB6EC0DF047C31CF448C31DF424
:1011D000E4EC1EF0F3CF6AF3F4CF6BF30301595143
:1011E000F31802E15A516B1907E00001010E25ECDA
:1011F0000EF0F8EC15F0010CF9EC0DF0176E186A12
:10120000140E175E000E185A17C06CF31750176EA5
:10121000186AE850475D476F18504859486F140ED8
:10122000475F000E485BF9EC0DF00501CB6FCC6B0E
:10123000140ECB27000ECC239BEC17F043C3A7F36F
:1012400044C3A8F30301490EA56F030EA66F44D94A
:101250000301696FFE0E695D11E247C3B7F348C32E
:10126000B8F30301490EB56F030EB66F43C3B3F372
:1012700044C3B4F369C3B2F310DA010C0001030EE6
:1012800025EC0EF04CC3E7F0D5EC27F04BC3E7F0AC
:10129000D5EC27F0F8EC15F0FF0E0301695D34E1A1
:1012A0004751512748515223000E5323542356517E
:1012B000020B03E15651010B05E0512B000E5223A6
:1012C0005323542392EC0DF00301040E7B6F4DC3A6
:1012D00077F34EC378F34FC379F350C37AF351C316
:1012E00073F352C374F353C375F354C376F349C312
:1012F00071F34AC372F34BC36FF34CC370F343C330
:101300006DF344C36EF301D8010C6FC381F370C356
:1013100082F371C383F372C384F373C385F374C31D
:1013200086F375C387F376C388F377C389F378C3ED
:101330008AF379C38BF37AC38CF303018D918D9378
:101340008D958D977BC38EF30BEC16F0F3CF8FF357
:10135000F4CF90F30301000EF35C040EF45804E3A1
:101360008F6B040E906F0DD0360ED8808F55000E07
:10137000905505E2360E8F5F000E905B02D08F6BAA
:10138000906B916B926B936B946B0301810EAD6FBD
:10139000030EAE6F24D9140E03017D27000E7E23A9
:1013A0007BA30DD0040E7D27000E7E23020E956FC9
:1013B000040E966F976F986B8D998D8B02D08D89E7
:1013C0008D9B8D8D8D9F26C799F327C79AF328C7CC
:1013D0009BF329C79CF36DC3E9FF6EC3EAFF07ECDB
:1013E0000FF0EECF9DF3EECF9EF3EECF9FF3EFCF56
:1013F000A0F3A16B060EA26F7DC3A3F37EC3A4F37B
:101400007DC300F47EC301F450EC1EF0F3CFA3F3D0
:10141000F4CFA4F30C0E0401126F136B0401990EA8
:10142000106F030E116F8AEC1EF0F3CF91F3F4CF1F
:1014300092F30301911F921F91C37FF392C380F334
:10144000FF0E7C5D02E103C07CF3140E83DB7DC3E1
:101450003CF67EC33DF60601060E3B6F6DC339F6C2
:101460006EC33AF664EC22F0140E0501836F846BB0
:101470000501810E816F030E826FDFEC14F0030112
:101480007BA30BD0040E0501836F846B0501950EC1
:10149000816F030E826FDFEC14F0140E5BDB7DC3F3
:1014A0001CF47EC31DF4E4EC1EF0F3CF7FF3F4CF05
:1014B00080F3240E4FDB80C380F5BDEC14F07FC3B6
:1014C00080F5BDEC14F00501D06BD16B7CC3CFF57A
:1014D000AAEC17F04BEF17F00301FE0EAC6FAB6BED
:1014E0000A0EAB5D4BE2AB515CDBC6DAEF50000994
:1014F00042E0C2DA0B0E72EC0EF09CDB020E7ADADE
:1015000094DB00011950171836E11A50181833E10E
:10151000B3DAEF50010802E1ABC3ACF3ADDA0D0E64
:10152000E1DB88DB82DB1950171825E11A50181807
:1015300022E1A7C3E9FFA8C3EAFF07EC0FF0EECF53
:101540001BF0EECF1CF0EECF1DF0EFCF1EF094DAC3
:10155000EE5207EC0FF0EE501B180DE1EE501C1888
:101560000AE1EE501D1807E1EE501E1804E103E1F8
:101570000301AB5112000301AB2BB2D7AC5111DB0D
:10158000FE0EAC5D27E078DAEF50010823E10A0E89
:10159000E66EE66AA7C3E6FFA8C3E6FF6DDA58DA8F
:1015A000195048DB020E9EDB67DA0B0E17C0EBFF0B
:1015B0000C0E18C0EBFF3EDB6EDA5EDA4CDB5CDA59
:1015C0006ADBEF9659DAB5DB57DA65DBEF820301A8
:1015D000AC511200FE0EAC5D01E1FF0CFE0C1EDAF8
:1015E000EFCFAFF3F8EC0EF0E552E750EF6E16DAFE
:1015F0007CDB020E86DB020E5ADB020E7CDB020E67
:1016000001EC0FF0040E59DB040E80DB080E55DBF5
:10161000080E7CDB0E0E75DB0E0E49DB0E0E6BDB4F
:101620000E0EEFDB100E6DDB100E41DB100E63DBD8
:10163000100EE7DB120E65DB120E39DB120E5BDBE0
:10164000E3DB010ED7D9AFC3EFFF120010DA1FDBC7
:1016500006E00DDA96DA0BDA6CDBE6DBEF8207DA0E
:101660007CDB05DA0D0EEB6A0E0EEB6A00DA97DB17
:10167000080B02E0F8EC15F0D7DBEF96F8D971DB38
:10168000D3DBEF98F4D98BDB010B04E0F0D9010E2A
:10169000EF6E1200ECD9EF6A12000301CB6BB2516E
:1016A000220DF3CFC9F3F4CFCAF3000EC9270C0EF5
:1016B000CA23F9DAEECFC1F3EECFC2F3EECFC3F314
:1016C000EFCFC4F3F7DAEECFC5F3EECFC6F3EECF2C
:1016D000C7F3EFCFC8F3A7D9040E8CD993DAB7516B
:1016E000B927B851BA23000EBB23BC236BDB19DB2F
:1016F00038DB3EDB010837E1F8EC15F00301022B83
:10170000000E032304230523D5DA5BDAB92BBA23B1
:10171000BB23BC2367DB56DBCDDAAFDABFDA020BC3
:1017200012E00A0EE66EE66AB3C3E6FFB4C3E6FF54
:1017300065D98ED9195077D9AED960D98CDA21DB29
:101740000001150EE7D0040ECB6FB9C3BDF3BAC3C9
:10175000BEF3BBC3BFF3BCC3C0F365D94BD952DAE8
:101760004DD9FBDA14D19ADA040B0CE0F8EC15F041
:1017700054DB03E00001220E02D00001230E43D906
:1017800032EF0EF050D9080E35D9BD51EE1801E0F8
:10179000FCD0BE51EE1801E0F8D0BF51EE1801E0C8
:1017A000F4D0C051EE1801E0F0D001E0EED0E0DA64
:1017B000020810E11ADB01E1E8D014DBB2DA040E12
:1017C000EF6ED9D904E200010C0E1DD935D000010D
:1017D0000D0E3BD0CDDA03083AE160DA020B2EE0C1
:1017E000B92B000EBA23BB23BC23FCDAFEDA0FE0D0
:1017F000C2D903E200010E0E02D000010F0E03D980
:101800000301100ECB6FFAD8040EEF6E12D0000158
:10181000100EF9D8B6DABD2B000EBE23BF23C023AD
:1018200049DABDC3EEFFBEC3EEFFBFC3EEFFC0C3C8
:10183000EEFFA1D901E3A9D0B5DAA9D0D6DA03E049
:101840000001110E02D00001120EDDD89ED0EBD89F
:10185000040ED0D8EECF17F0EECF18F0E6D923DA89
:101860001750EE1808E11850EE1805E11950EE185F
:1018700002E11A50EE1802E0F8EF15F0B3DA78DA68
:1018800004084AE1B2DA09E0B9D801DA06E0B6D8CC
:1018900078D9B4D84EDACBDAEF8200DA010B18E04F
:1018A0000301110ECB6F06DAEFCFBDF3EE2AEFCFB7
:1018B000BEF3EE22EFCFBFF3EE22EFCFC0F3EF2265
:1018C000F2D93BD99BD80A0EEF6E0001130E9BD8BC
:1018D000030151D95AE292D862DA080B04E162DAC4
:1018E000100ECB6F54D0CB6BE5D9C5C3EEFFC6C38A
:1018F000EEFFC7C3EEFFC8C3EEFFD5D9C1C3EEFFED
:10190000C2C3EEFFC3C3EEFFC4C3EEFFF8EC15F095
:101910000001180E78D83BD02BDA0A0807E1F8EC62
:1019200015F063DA34E079DA28E12AD021DA050803
:101930001BE1F8EC15F0B2D9010B29E00301100E00
:10194000CB6FB1D9FAD851DA08E067DA03E00001C9
:10195000260E18D00001270E15D00001140E53D802
:101960004DD8060EEF6E13D003DA060810E1F8EC3E
:1019700015F03BDA0CE051DA03E00001240E02D04E
:101980000001250E40D86ED902D0F8EC15F0030105
:10199000CB5100081EE2C6D8CBC37BF3B9C377F3A3
:1019A000BAC378F3BBC379F3BCC37AF3BDC373F393
:1019B000BEC374F3BFC375F3C0C376F334D8E7D89E
:1019C00032D8020E17D8E8D8B3C36DF3B4C36EF3A0
:1019D0009CDC12000301CC51220DF3CF17F0F4CFA1
:1019E00018F0000E17260C0E182217C0F3FF18C0AF
:1019F000F4FF1200E926000EEA221200C9C3E9FF33
:101A0000CAC3EAFF1200E96F800E0301B2259DEF01
:101A10000EF03CC3E9FF3DC3EAFF1200ADC3E9FF8E
:101A2000AEC3EAFF1200B5C3E9FFB6C3EAFF120076
:101A3000E96F800E03013B259DEF0EF013C3E9FF14
:101A400014C3EAFF12001BC3E9FF1CC3EAFF120024
:101A5000EE52E9CF17F0EACF18F0E9CFE6FFEACF70
:101A6000E6FF2BEC29F0196E060EE15E1200B0C302
:101A7000E9FFB1C3EAFF1200A9C3E9FFAAC3EAFF65
:101A80001200220DF3CFE9FFF4CFEAFF000EE926A2
:101A90000C0EEA221200EECF17F0EFCF18F0120072
:101AA00027C3E9FF28C3EAFF1200EECF77F3EECF9A
:101AB00078F3EECF79F3EFCF7AF31200B9C3EEFFEC
:101AC000BAC3EEFFBBC3EEFFBCC3EEFF12000CC3F4
:101AD000E9FF0DC3EAFF120018C3E9FF19C3EAFFCB
:101AE000120020C3E9FF21C3EAFF1200EE52E9CF42
:101AF0006DF3EACF6EF385EF09F007C3E9FF08C382
:101B0000EAFF1200EECF73F3EECF74F3EECF75F36E
:101B1000EFCF76F312001D0EF7C4EBFF1E0EF8C4D4
:101B2000EBFF120003017D6B7E6B03017C691200E9
:101B300038C3E9FF39C3EAFF1200EF2AEECFB9F349
:101B4000EF22EECFBAF3EF22EECFBBF3EF22EFCFCF
:101B5000BCF312000501D06FD16B7CC3CFF5AAEFA7
:101B600017F02FC3E9FF30C3EAFF12000501CB6F66
:101B7000CC6B9BEF17F0000ED880B755000EB85510
:101B800012000F0EEB500501956FF0EF15F0EECF40
:101B900071F3EDCF72F31200EECF6FF3EDCF70F370
:101BA0001200220DF3CFA9F3F4CFAAF3000EA92758
:101BB0000C0EAA231200E96F800E030112259DEF7F
:101BC0000EF002C3EEFF03C3EEFF04C3EEFF05C336
:101BD000EEFF1200E96F800E030117259DEF0EF056
:101BE000100EEB6A110EEB6A280E0501D06FD16B57
:101BF00012005551F00BE842E842E842E842040D79
:101C0000F3501200EECFB9F3EECFBAF3EECFBBF341
:101C1000EFCFBCF31200EE6AEE6AEE6AEE6A1200D3
:101C2000CA0E175C030E18581200EECF19F0EFCF52
:101C30001AF01200A5C3E9FFA6C3EAFF12000F0EB7
:101C4000EB500501CF6FAAEF17F0E96F00018F0E7F
:101C5000E86FF5EF27F00D0E17C0EBFF0E0E18C062
:101C6000EBFF1200C9C3B0F3CAC3B1F326EF0BF008
:101C7000700EEE6E170EED6E1200EE2AEE22EE22C0
:101C8000EE22120045C3E9FF46C3EAFF12000F0E21
:101C9000EB50FF081200210EFAEF0CF0C4DE0D0E1F
:101CA000A9DEEF501200AADE180EFAEF0CF0A2DE49
:101CB000F8EF0EF0A3DEEFEF0EF09CDEEECF05F4B2
:101CC000EECF06F4EECF07F4EFCF08F45BEC1EF096
:101CD00010C017F011C018F012C019F013C01AF09C
:101CE0000EEF0DF087DE4BEF0DF0010E83DEAFC37C
:101CF000EFFF0EEF0DF07EDEE552E750EF6E0EEFD8
:101D00000DF078DEEFCFAFF30EEF0DF073DE10C005
:101D1000EEFF18C0EEFF19C0EEFF1AC0EEFF0EEF87
:101D20000DF06CDE1C0E66DEEF6A68DEF4DEFEEFA0
:101D30000CF00F0E5FDEEF6812000001E86FF5EFA8
:101D400027F0180E57DE55EF0DF00D0E53DEC7EFDE
:101D50000DF00B0E4FDECCEF0DF0EE5258D80BEF1E
:101D60000EF01F0E47DE38EF0EF068DEEFEF0EF0DC
:101D700045DEEF50120094DE100E3CDE03012551CB
:101D800012000301120ECB6F39DE020EEF6E12004D
:101D900040DE1C0EEB5012004BDE030112007BDF15
:101DA000EF50120044D8EF8629DE120EB7C3EBFFC6
:101DB000130EB8C3EBFF3BD8EF841200100E92DF76
:101DC00010EF0EF077DFEECFBDF3EECFBEF3EECF28
:101DD000BFF3EFCFC0F3120090DE4BEF0EF0140E06
:101DE000FAEF0CF060DF5EEF0DF058DF100B120021
:101DF000010E00DEEF50E66E0EEF0DF068DE4BEFE9
:101E00000EF0F8DD75EF0EF0120EFAEF0CF0060E84
:101E1000FAEF0CF0FEDDCFEF0EF0F0DDC0DF010BCE
:101E2000120011DE4BEF0EF022DE4BEF0EF0E6DD7E
:041E30004BEF0EF076
:0C1E34000D01AA6BF7C4A4FDF8C4A5FDC5
:101E4000AB6B080EAB5D18E2500E0301096F0A6B15
:101E500061EC04F0E66E0D0129EC13F072EC13F066
:101E600029EC13F0020ED7DBEF6A29EC13F0090E10
:101E7000D2DBEF6AAB2BE5D71200ACCDAEFDADCD1A
:101E8000AFFD0D01AECDE9FFAFCDEAFFAE2B000EE9
:101E9000AF23EF502E0807E0AECDE9FFAFCDEAFF4C
:101EA000EF50EFE10A0CB06BB051176E186A100ECC
:101EB000175C000E185814E2B051B6DBAECDE6FF49
:101EC000AFCDE6FF79EC29F01A6E050EE15E1A50EF
:101ED000000903E10D01B05112000D01B02BE4D750
:101EE0000A0CCEDB04E0200E0D01B45DFAE00D011A
:101EF000B56B2B0E0D01B45D02E1200EB46F2F0EF9
:101F0000B45D23E05C0EB45D20E0200EB45D1FE004
:101F10003F0EB45D1CE00D0EB45D19E00A0EB45D19
:101F200016E00C0EB55D11E2610EB45D05E3B4512F
:101F30007A0802E3200EB45FB551B52BEA6AB225E8
:101F4000E96EB351EA22B4CDEFFF9ADBD2E10D0185
:101F5000B551EA6AB225E96EB351EA22EF6AB5518A
:101F60000CE1AF0E176E560E9BDBB2CDE6FFB3CD84
:101F7000E6FF8FEC29F0050EE15E3F0E0D01B45D2A
:101F800001E1010C000C0D01A4510401F75D176E75
:101F9000F8510D01A555186EE00E175C2E0E18585D
:101FA00001E3AA6BB66B080EB65D06E2B6CDB7FDCF
:101FB00004D80D01B62BF7D712000D01B7510A0D49
:101FC000F3CFC8FDF4CFC9FD540EC8270D0EC923A9
:101FD000010EC66F0D01C65101E18ED1C66B16DB35
:101FE00067DB0AE185DBEF50020B01E0B3DB80DB4E
:101FF000EF9482DBEF6A120009DB020EEB50070A56
:10200000E9E0010A01E168D1030A01E139D1010ADD
:10201000E1E0070ADFE0010A01E124D1030A01E15E
:10202000E2D0010AD7E1F2DA50DBD4E00D01010E73
:10203000C66FF7C4A4FDF8C4A5FD5ADBEF6A73DBD5
:102040000D01D66FB7D90D01C56F52DBEF946BDB75
:102050000301CC6FEAEC0CF0F3CFE9FFF4CFEAFF19
:10206000EE52060ED8DA0D01A651EE1820E1A75166
:10207000EE181DE1A851EE181AE1A951EE1817E16A
:1020800016E1AA5102E034DBEF84020EAA5D02E001
:10209000000E01D0010E176E2BDB1750010BF36EF3
:1020A000F346F346F346F70EEF14F310EF6EC55107
:1020B00001E089D00D01B80EB26F0D0EB36F33DBA6
:1020C0000D01B16F0EDF0D01CC6F580EB85D15E13B
:1020D0000FDBEF50040B11E10A0EE66EE66AB90E53
:1020E000176E560EDDDAB80EE66E0D0EE66E56EC85
:1020F00029F01A6E070EE15E1A500D01B80EAC6F92
:102100000D0EAD6FBADEE66EF1DAECDA0D01CC51F0
:102110000BE00301B80EDA6F0D0EDB6FC8CDD8F3FC
:10212000C9CDD9F3BFEC1DF01ADBE6DA050EEF6E70
:10213000EDDAD8DA02DB176E010E175C30E314DB40
:1021400004082DE3B80EE66E0D0EE66EA8EC29F03D
:10215000E552E552F3CFC7FD07DB030802E3030EA8
:1021600001D0020E0D01C75FFFDA0B0FE66EBEDA7B
:10217000B9DAFADA59DAC7511B6AB80F1A6E0D0EBE
:102180001B221AC0E6FF1BC0E6FF8FEC29F01C6E75
:10219000050EE15E1C50BADAE552E750EF6ECDDA7B
:1021A000FF0803E1D5DAEF6A06D0C7DAFE0806E1D8
:1021B000CFDA030EEF6EA0DA050E8CD099DAEF823B
:1021C0009BDA010E87D0C50503E196DA030E82D0B3
:1021D00000010C0EE96FA00E0D01B7250001E86F9C
:1021E000F5EC27F0F7D6ADDA01E1F4D60D01010EDA
:1021F000C66F0D01380EE56F560EE66F4CDA0D0115
:10220000480EE56F560EE66F9FDA70DAEF34EA6A31
:10221000FE0BEA36E96ED40EE926050EEA22EECF71
:10222000E5FDEDCFE6FD37DA61DAEFCF17F00B0E03
:10223000175C06E30D01570EE56F560EE66F84DA64
:10224000B7CDE1FDADD990DA060803E151DAEF80B0
:1022500002D04EDAEF90DAD9030EDDD9EF6A4CDA0C
:10226000020E38D0D3D931DA01E079DAC8CDDDFDFC
:10227000C9CDDEFDDDD8000901E1ACD66BDA28D08E
:1022800060DA01E1A7D664DAEF34EA6AFE0BEA36D7
:10229000E96EF40EE926050EEA22EECFCAFDEDCF77
:1022A000CBFD0D01CACDF6FFCBCDF7FFCA2B000E3B
:1022B000CB230800F5CFC7FDF55005E0C7CD1FF3D0
:1022C000A5D9D9D9EED72FDA03011A6F93EC05F00F
:1022D00013DA060EEF6E7ED699D9EAD90AE031DA22
:1022E00008E021DA0301176F43EC05F005DA070E69
:1022F000EF6EFED9EF946ED61200D0CDE9FFD1CDAE
:10230000EAFFEF040D01D46FD36BEF6AD56BD451A4
:10231000EA6ACE25E96ECF51EA22EF6AD55144E14F
:102320000301D20E2D6F0D0E2E6FCDCD2CF3DEECF2
:1023300006F0000939E03D0E0D01D25D0BE1D26BD4
:10234000D451D35D1EE2D329D0CDE9FFD1CDEAFF30
:10235000EF6E17D0260ED25D02E1020E0AD0200EDB
:10236000D25D06E00D0ED25D03E00A0ED25D04E1FF
:10237000010ED56FD26B05D02B0ED25D02E1200E7F
:10238000D26FD451D35D07E2CECDE9FFCFCDEAFFC6
:10239000D2CDEFFF03D00001100E9ED90D01CE2B40
:1023A000000ECF23D32BBAD70D01D55101E1000C7C
:1023B000D50512000D01DC6B040EDC5D19E2DC5169
:1023C00003012D6F2E6BD70E2D270D0E2E23D6CD8C
:1023D0002CF3DEEC06F000090BE00D01DC51DC2BE8
:1023E000EA6AD70FE96E0D0EEA22EF502008E4E109
:1023F0000D01DC51EA6AD70FE96E0D0EEA22EF6A91
:10240000470ED75D07E1450ED85D04E1540ED95D56
:1024100001E1000C500ED75D0AE14F0ED85D07E1D7
:10242000530ED95D04E1540EDA5D01E1010C020C9A
:10243000F6D81AD901E1ACD00D01DF6BF0D8030E4C
:10244000EB50040819E00601CDBD0FD0E8D8010E0D
:10245000EB500601E66FDDEC20F00D01E06F0601A8
:10246000CDAB0AD00001090E37D9D9D8EF500301FE
:102470001A6F93EC05F0010CD2D8090ECCD8EF50AE
:10248000010B01E180D0CBD8030EEB50040A54E0DD
:10249000070A37E0010A1DE0030A0CE0010A6FE1B8
:1024A000250E0D01E05D03E12BD9010E28D0010EB0
:1024B000DF6F65D0250E0D01E05D03E1010EDF6FDA
:1024C0005CD022D9030EA7D8E0CDEFFF19D9020EB8
:1024D00016D0610E0D01E05D02E3270E04D0410E1F
:1024E000E05D02E3070EE05F300EE05D100DF3509B
:1024F000E66E0AD9020E8FD8F5D802D9030EEF6E18
:102500003ED0610E0D01E05D02E3270E04D0410EC6
:10251000E05D02E3070EE05F300EE05D176EF4D879
:10252000020E79D81750EF12EBD8040EEF6E77D861
:1025300072D8EE6AED6A23D00301E00EFA6F0D0E39
:10254000FB6FDDCDF8F3DECDF9F3DAEC1DF0F3CF60
:1025500017F0F4CF18F0D8D8F3CFEEFF18C0EDFF86
:102560000D01010EDF6FD0D8FF0EEE1808E1FF0E4F
:10257000ED1805E1E05101E1DF6BC2D8EF6A0D0112
:10258000DF5101E155D7E0CD1FF349D874D850D7BA
:1025900046D8010EEB500601E36FADEC20F0000CC5
:1025A0000D01E1510A0DF3CFE2FDF4CFE3FD540E2E
:1025B000E2270D0EE32303010D0EB8D803010A0E26
:1025C00096EF13F00D01E4510A0DF3CFE7FDF4CFC0
:1025D000E8FD540EE7270D0EE823E5CDF6FFE6CD26
:1025E000F7FF0800F55011E00D01E5CDF6FFE6CD4F
:1025F000F7FFE52B000EE6230800F5CF1FF3E7CD2C
:10260000E9FFE8CDEAFF37D8E8D71200C8CDE9FFE7
:10261000C9CDEAFF1200E926000EEA221200DDCD44
:10262000E9FFDECDEAFF1200040DF3CFF6FFF4CF91
:10263000F7FFF80EF626550EF722F6CF17F0F7CF74
:1026400018F0196A17C0E6FF18C0E6FF19C0E6FFC8
:102650001200AB510A0DF3CFE9FFF4CFEAFF540E9D
:10266000E9260D0EEA221200EF5003011D6F00EC67
:1026700006F000091200EF5003011E6F19EF06F07B
:102680000301B40E2D6F0D0E2E6FB1CD2CF3DEECC9
:1026900006F00009120058D8B7CDE1FDD0EF12F0D6
:1026A000186E196A17C0E6FFE66E19C0E6FF120041
:1026B000EF500301166F3AEC05F000091200010E0D
:1026C000EB500601E26F9CEF20F0EF5003013A6FF0
:1026D00069EC07F000091200E96F0001AF0EE86F26
:1026E000F5EF27F0E552E750EF6E120031D83FD0FA
:1026F0008DDF090E0BEF13F089DF020E0BEF13F0E5
:102700008EDF030E0BEF13F08ADF31D00601DA6B98
:102710000601B80ED86F0D0ED96F0EEC20F0E66EE4
:1027200075DFEE52120072DFEF5012001F6FE2CD24
:10273000E9FFE3CDEAFF3BEF13F068DF010EEB505A
:10274000120064DF34EF13F0B7CDE4FDE2EF12F0D6
:102750005DDF0DD0CDDFEF9259DF5FEF13F0E3DFE8
:102760000301296FC0EF06F0C1DFEF501200040E25
:042770000BEF13F068
:0C277400966A868898880501726B736B6A
:10278000746B756B766B776B786B796B7951176EB1
:10279000186AD890185004E6010E175C000E1858FD
:1027A00016E27951040DF3CF17F0F4CF18F0400E74
:1027B0001726000E18227951C7EC17F017C0EFFF4B
:1027C0007951C7EC17F0EE52EF80792BDFD7036A0F
:1027D00071696BDBEFEC17F005011F0EECEC17F0E5
:1027E0000501C46F05011F0ED6EC17F0EFEC17F0D2
:1027F0000501210ED6DBEFEC17F00501080EC46FC2
:1028000005010E0E16EC18F00A0E16EC18F00B0E61
:102810001DEC18F0040EC46F05010C0E1DEC18F031
:10282000020EC46F05010D0EC1DB32EC18F0BEDBE9
:102830000CEC18F0010E1DEC18F0600EC46F0501D1
:10284000020EB4DB0CEC18F0030E1DEC18F0C4699A
:102850000501070E16EC18F00F0E1DEC18F0610EB6
:10286000A0DB2AC7C4F50501010EA0DB2BC7C4F508
:102870000501020E9BDB2CC7C4F50501030E96DB98
:102880002DC7C4F50501040E91DB2EC7C4F5050163
:10289000050E8CDB2FC7C4F50501060E87DB05018D
:1028A000796B080E795D0AE20501C469080E05011D
:1028B000792505017BDB0501792BF3D7ADDB070E0D
:1028C00075DB440E006E0501220E6BDB8DDB0D0EF9
:1028D000B4DBE00E66DB0501C00EC46F0501010E1E
:1028E000A5DB040EA3DB010EA8DB200ED1EF17F051
:1028F00005010D0EAADB050172271850732305018F
:102900000E0EA3DB050174271850752305010F0E69
:102910009CDB0501762718507723725173257425A7
:102920007525762577257A6FE850785D17E00001E8
:10293000010E4CDB76DB72C5E6FF73C5E6FF39DBC3
:1029400070DB74C5E6FF75C5E6FF33DB6ADB76C571
:10295000E6FF77C5E6FF2DDB7AC578F512000501A5
:102960007151035C09E10501C56BBADA040B03E19F
:10297000050171697DD3000C7BD340DB86A8FED7AF
:102980008D8C6B0E8D6E836A8D9C86A8FED73DDB89
:1029900086A8FED78D8C670E8D6E400E836E8D9C43
:1029A00086A8FED78D8C700E8D6E80C583FF8D9CA2
:1029B00086A8FED78D8C012A000E02221200050186
:1029C0008351841101E11200010E8315176E186AFC
:1029D00083511724876F84511820886F956A670E7A
:1029E0008D6E400E836E8D9C86A8FED78D8C6A0EF0
:1029F0008D6E87C583FF8D9C86A8FED78D8C6B0E50
:102A00008D6E88C583FF8D9C86A8FED7FEDA86A8CA
:102A1000FED78D8C05018351012684510222700E50
:102A20008D6EAADA86A8FED78D8C83C585F584C500
:102A300086F50501010E855F000E865B050185C5E3
:102A400017F086C518F08507000E865B1750181022
:102A500029E0080E855D000E86591FE38DDA86A8F1
:102A6000FED7E7DA86A8FED7E4DA86A8FED7E1DA51
:102A700086A8FED7DEDA86A8FED7DBDA86A8FED7E0
:102A8000D8DA86A8FED7D5DA86A8FED78D8C080EB0
:102A90000501855F000E865BDCD76EDA86A8FED75F
:102AA0008D8CCCD71200AADA86A8FED78D8C6B0E3F
:102AB0008D6E836A8D9C86A8FED78D8CFF0E015C7F
:102AC0001DE15F0E025C1AE105018A698B698AC506
:102AD000C7F58BC5C8F512DA8BDA86A8FED78D8CC0
:102AE0000501100E79DA0501896F8A6B440E8B6F30
:102AF0008AC5C7F5E8CFC8F501DA10D079DA86A81B
:102B0000FED78D8C9568700E8D6E8D9A86A8FED737
:102B100083CF89F58D8A012A000E02220501895191
:102B200012008EC590F58FC591F505018E518F115C
:102B300003E1F36AF46A1200956A6A0E8D6E90C51D
:102B400083FF8D9C86A8FED78D8C6B0E8D6E91C5F4
:102B500083FF8D9C86A8FED78D8C4ADA86A8FED787
:102B60008D8C05019051012691510222600E025C6C
:102B700002E31C0E025E9568700E8D6E90C517F014
:102B800091C518F09007000E915B175018100FE0D8
:102B90008D9A86A8FED705018CC5E9FF8DC5EAFF91
:102BA0008C2B000E8D2383CFEFFF8D8AE7D7B5D90D
:102BB000F3CF17F0F4CF18F0F350011802E11850DA
:102BC000021803E00001020E01DA8EC5F3FF8FC583
:102BD000F4FF120005019451DAD9EE52EF90120081
:102BE00005019551D4D9EE52EF8095C503F012003E
:102BF00000C098F50501010E976FE8CFC7F500C03A
:102C0000C8F57CD950DF0501966FE8CFC4F5050102
:102C1000030ED6EF17F014DA0501996F0501200EA7
:102C2000C0D900500501995D05E2600ED8800054BE
:102C3000992502D00050995D9A6FE850176E186A76
:102C40001C0ED8801756000E185617C09AF517C0DC
:102C50009CF59B6B9BC5F3FF17C0F4FF12000501A9
:102C6000E00EFBD905019D6F0501200E9AD90501E3
:102C70009D51040B01E0000C010CA0C5E9FFA1C5AA
:102C8000EAFFEF68DDD90501B46F0501200EE5D933
:102C90000501B56FF2D9100B3AE00001030E96D989
:102CA0000501C56B1DD9040B0501B96F0501210E86
:102CB00078D90D01020EFF6FF6EC2BF095D90A0EB4
:102CC000B5D90B0E73D90501B95108E0D6D90A0B55
:102CD00002E0000E01D0010E0501B96F0501020EE0
:102CE000C46F05010D0EA9D9220E5BD9B4C500F041
:102CF0007FDF0501C4690501070E98D90D0E56D96D
:102D00000501B95103E00501260E4BD9000C050160
:102D1000B551B45D6AE0B5C5B7F5B66BB6C5C7F5D4
:102D2000B5C5C8F5EBD8120E05018E6F8F6B050186
:102D3000A20E8C6F050E8D6FF4DE0501A251010B02
:102D40004EE0400EA45D000EA55949E3EE0ED8807A
:102D5000A455050EA55543E3600EA35D40E2A351C3
:102D6000176E186AD890185004E6440E175C000ECF
:102D7000185835E3B2C500F4B3C501F450EC1EF0A9
:102D8000F3CFB2F5F4CFB3F5060EE66EE66AAC0EFD
:102D9000E66E050EE66E9EC5E9FF9FC5EAFF9EC57D
:102DA00017F09FC518F09EC5E6FF9FC5E6FF2BEC08
:102DB00029F0196E060EE15E1950080E0501B35D8B
:102DC0000BE1B25103E0060EB25D06E1A0C5E9FFDA
:102DD000A1C5EAFFB2C5EFFFB5C500F0010C0001C7
:102DE000040EF4D8B4C500F003DF000C05010A0E90
:102DF000C46F0501070EDAD82DD9EFCFC0F5050154
:102E0000BF6BBFC5C7F5C0C5C8F578D8060E0501AC
:102E1000836F846BBAC581F5BBC582F5D0DD2AC747
:102E200080F5ABDD2BC780F5A8DD2CC780F5A5DDCF
:102E30002DC780F5A2DD2EC780F59FDD2FC780F559
:102E40009CDD0501BC5102E1C16B02D0060EC16FD1
:102E50000501080E806F91DDC1C580F58EDD0E0E77
:102E60000501BD27000EBE233C0EBD5D000EBE5900
:102E700003E23C0EBD6FBE6BBDC5BFF5BEC5C0F560
:102E8000BDC5C4F50501050E91D8C0C5C4F5050141
:102E9000060ED6EF17F0E6D8D0D8240E82D803C09D
:102EA00071F5D8D8EE52EF8012009568600E8D6EE5
:102EB0008D8C8D8A8D8E966A0D01010EFD6FEAEC68
:102EC0002BF08DD88D9E1200600E0501C3118D6E02
:102ED000C4C583FF956A8D9C86A8FED78D8C120091
:102EE0009568600E0501C5118D6E8D9A86A8FED776
:102EF00083CFC6F58D8A0501C6511200C7C501F002
:102F0000C8C502F0C7C5C4F50501080E4FD8C8C52D
:102F1000C4F50501090ED6EF17F00501090E5CD8BE
:102F20000501CA6F0501080E57D80501C96FF36E78
:102F3000CAC5F4FF120000C0CEF50501120ECD6F18
:102F4000CB51CD27CC51CE23CDC5C7F5CEC5C8F5C5
:102F50007EEF17F0CFC503F07DD8EFCFD3F5050195
:102F60000E0ED26FD051D227D151D323D2C5C7F57F
:102F7000D3C5C8F57EEF17F081C5E9FF82C5EAFF2A
:102F8000812B000E8223EF50836E8D9C1200E96E20
:102F9000EA6AD890E936EA366E0EE926050EEA228C
:102FA0001200C46F0501C36B64EF17F0C36F64EFC9
:102FB00017F0CBEC29F0E552E552E552E55200015D
:102FC0007B0EF16F050EF26F1AEF28F0E96F00012A
:102FD000D50EE86FF5EF27F0C56F70EF17F00D0114
:102FE000050EFF6FF6EF2BF00501C46B0501120013
:102FF000600E8D6E0A0E836E8D9C1200956A6A0EAD
:103000008D6E010E836E8D9C12008D8C600E8D6E08
:10301000120E836E8D9C12000501440EC46F0501D3
:1030200012007B0EE66E050EE66E1200BFDFF4EFB7
:1030300017F08D8C0501BCEF17F0B8DF0501120009
:103040000501600EAEDF3DEF18F0C6DF176E186A9F
:10305000E85012000350C7EF17F0A3DF0501030E7D
:10306000ECEF17F0F7DFEFCFC4F50501040E120007
:10307000F1DFEE52EF50010B12000501070EECEFED
:0230800017F047
:0E3082000401A76B020EA75D07E2A7513BDB1E
:10309000A7512DDBEF90A72BF6D7120004017E0E6F
:1030A000AF6F040EB06FAE6B020EAE5D42E2DCDAC3
:1030B0000C0EC7DACADA196A1A6A175018101910F2
:1030C0001A1031E1D1DA0C0EA8C4EBFF0D0EA9C421
:1030D000EBFFAA51AB1111E00A0EE66EE66AAAC434
:1030E000E6FFABC4E6FFC0DAAFC417F0B0C418F017
:1030F000AFC4E6FFB0C4E6FFD9DAB6DA0A0EACC454
:10310000EBFF0B0EADC4EBFFAFDA0E0EEB6A0F0E4A
:10311000EB6AAADA100EEB6A110EEB6AAEC4A6F4E3
:103120000401AE511200140EAF27000EB023AE2BD7
:10313000BBD7FF0C0401B15183EF1BF0020E040159
:10314000B25D04E2B2C4A6F4AFEF14F0000C0401C7
:10315000A651140DF3CFB4F4F4CFB5F47E0EB4271A
:10316000040EB523CCDAEE50ED1004E192DA96DAD3
:1031700090DA89DAB3C480F5BDEC14F0C0DAEE2A37
:10318000EF22BDDAC6DA01E345D8010C0401A651ED
:10319000140DF3CFBAF4F4CFBBF47E0EBA27040EAD
:1031A000BB23A9DAEE50ED1004E154DA77DA52DAF3
:1031B0006ADAA1DA0401B851EE24176EB951EE2093
:1031C000186ED60ED8801754030E18540AE293DAFC
:1031D000EECFB8F4EFCFB9F4D60ED880B857030EBF
:1031E000B957B8C483F5B9C484F5B6C481F5B7C47A
:1031F00082F5DFEC14F07FDA0401B851EE26B95104
:10320000ED2279DA86DA01E305D8B8C4F3FFB9C450
:10321000F4FF12000401A651140DF3CFC4F4F4CF4F
:10322000C5F47E0EC427040EC52319DA0C0E09DA84
:1032300044DAF3CFBCF4F4CFBDF411DA0A0E01DAAC
:103240003CDAF3CFBEF4F4CFBFF409DA0E0EF9D9AD
:10325000EECFC0F4EFCFC1F4080E0401C027000E7A
:10326000C123C26BC36B140E0501D06FD16BF7D9AC
:103270000ADAC0C43CF6C1C43DF60601110E3B6F2C
:10328000EED9C4C439F6C5C43AF664EC22F0C0C421
:1032900000F4C1C401F450EC1EF0F3CFC0F4F4CF3D
:1032A000C1F4080E0501836F846B0501BC0E816FAC
:1032B000040E826FDFEC14F04BEC17F0D0D9120E35
:1032C000C0D9EF68CCD90E0EEB6A0F0EEB6A120074
:1032D000020E0401C65D0AE2C6C4A6F403DAD88071
:1032E000EE54000EED5401E3000C010C000C04013F
:1032F0001ADA01E1000CA651FAD9EF50010B01E0F6
:1033000016DA53EC15F0C7C4E9FFC8C4EAFFEF6E44
:103310000401E8D9EE06EF5A06DA02E1F8EC15F0FE
:10332000010C040100DA03E1F36AF46A1200A65109
:10333000DED9EF50010B01E0FAD90401D3D985D9C8
:10334000CB51175CCC51185805E2CCD9EECFCBF459
:10335000EDCFCCF4CBC48EF5CCC48FF5C9C48CF5BD
:10336000CAC48DF591EC15F0F3CFCDF4F4CFCEF4C3
:103370000401B8D9CD51EE5ECE51ED5AD4D902E157
:10338000F8EC15F0CBC4F3FFCCC4F4FF1200040139
:10339000CAD902E0F8EC15F00401A4D9EE6AED6A8E
:1033A0001200080E05018E6F8F6B0501D50E8C6F14
:1033B000040E8D6F91EC15F0D5C4ECF4D6C4D5F4A1
:1033C000ECC4D6F4D7C4ECF4D8C4D7F4ECC4D8F425
:1033D000080E176E0401DA51D880175403E2D9059C
:1033E000EC6F02D0D9C4ECF4080EDA5DD96FECC4EE
:1033F000DAF4DBC4ECF4DCC4DBF4ECC4DCF4CFC4FE
:10340000E9FFD0C4EAFF060E1CD9EECFDEF4EECF02
:10341000DFF4EECFE0F4EFCFE1F455D9EFCFE2F4F3
:10342000010E0FD9EFCFE3F44ED9020E0AD9EFCF38
:10343000E4F449D9030E05D9EFCFE5F4E66B110E9C
:10344000E76FD3C4E8F4D4C4E9F4D3C400F4D4C41B
:1034500001F450EC1EF0F3CFE8F4F4CFE9F40C0ED5
:103460000401126F136B0401DE0E106F040E116F56
:103470008AEC1EF0F3CFEAF4F4CFEBF40401EA1F78
:10348000EB1F1A0EFBD8EAC480F5BDEC14F0EBC4B8
:1034900080F5BDEC14F0140EF1D8D3C41CF4D4C4E0
:1034A0001DF4E4EC1EF0F3CFEAF4F4CFEBF40401E6
:1034B000DB51F31816E1DC51EB1913E1D1C4F1F43F
:1034C000D2C4F2F4CFC4EFF4D0C4F0F40401D50EAA
:1034D000ED6F040EEE6F1CD80401DD6FFF0EDD5D95
:1034E00003E1F8EC15F0010CDD51A1D8100EA9D8BC
:1034F000D9C4EEFFDAC4EDFFDD51F9D8EF80010C3D
:103500000401A65194D8E9CFF3FFEACFF4FF1200EB
:103510000401F4697E0EF56F040EF66FF36B020E74
:10352000F35D5BE2A6D80C0EFAD8020E8AD8D5D885
:103530000001195017184AE11A50181847E199D894
:103540000A0EEDD8CAD8195017183EE11A501818AB
:103550003BE18FD8100E75D8EECF1BF0EFCF1CF0EB
:103560001D6A1E6A1B501C101D101E102DE1EFC499
:10357000E9FFF0C4EAFF060E64D8EECF17F0EECFF5
:1035800018F0ABD876D8060E5CD8EE50171808E1C4
:10359000EE50181805E1EE50191802E1EE501A1815
:1035A00010E0F1C4E9FFF2C4EAFFE868EE180CE1AC
:1035B000E868EE1809E1E868EE1806E1E868EE1838
:1035C00003E10401F3511200F3C4F4F40401140EF6
:1035D000F527000EF623F32BA2D7FF0EF45D24E0AF
:1035E000F451140DF3CFF5F4F4CFF6F47E0EF52775
:1035F000040EF6230A0EE66EE66AEFC4E6FFF0C498
:10360000E6FF37D8F5C417F0F6C418F0F5C4E6FFA6
:10361000F6C4E6FF4BD85CD818D82BD80A0E17C0D2
:10362000EBFF0B0E18C0EBFF0401F4511200140D58
:10363000F3CFE9FFF4CFEAFF7E0EE926040EEA227B
:103640001200E926000EEA221200EECF17F0EFCFAB
:1036500018F01200BAC4E9FFBBC4EAFF1200C4C4E8
:10366000E9FFC5C4EAFF1200AFC4E9FFB0C4EAFF36
:103670001200F5C4E9FFF6C4EAFF12000501CB6FA2
:10368000CC6B9BEF17F0120EEB500501CF6FAAEF3A
:1036900017F0B4C4E9FFB5C4EAFF1200120E03C06C
:1036A000EBFF1C0E0501D06FD16B12002BEC29F043
:1036B000196E060EE15E19501200EECF00F4EDCF48
:1036C00001F450EF1EF0D1C4E9FFD2C4EAFF1200AA
:1036D000EDC4E9FFEEC4EAFF1200EECF19F0EFCF20
:1036E0001AF01200A651A3DF100E21EF1BF09FDF8E
:1036F000130E21EF1BF0AEDF0E0E21EF1BF0C9DF22
:103700000E0E21EF1BF093DF0C0E9BDFEE6AED6ACD
:1037100012009BDFD60E175C030E1858120091DFC3
:1037200094DF68EF1BF0DEDFEE50ED101200A651C3
:0A373000DEDFEF901C0E3EEF1BF0F1
:06373A00DACFE4FFE2CF4C
:10374000DAFFE9CFE4FFEACFE4FFF6CFE4FFF7CFFB
:10375000E4FFF5CFE4FFF3CFE4FFF4CFE4FFFACFCB
:10376000E4FF00EE0CF00B0EE80403E3EECFE4FF01
:10377000FBD700EE17F0080EE80403E3EECFE4FFFA
:10378000FBD7E652F2A414D09E0ED76E580ED66E1A
:103790000401F72B000EF823F923FA230401FD0797
:1037A00006E1640EFD6F0401FB2B000EFC23F29476
:1037B0009E50200B05E09D50200B02E077EC27F097
:1037C0009E50100B05E09D50100B02E08DEC27F091
:1037D000E55200EE1EF0080EE80403E3E5CFEDFF2E
:1037E000FBD700EE16F00B0EE80403E3E5CFEDFF88
:1037F000FBD7E5CFFAFFE5CFF4FFE5CFF3FFE5CF49
:10380000F5FFE5CFF7FFE5CFF6FFE5CFEAFFE5CF20
:10381000E9FFE5CFDAFF1100B1EC2BF09DD902EC06
:103820002CF002EC20F063EC27F061EC25F01AECB0
:103830000FF06FEC27F06CEC27F014D8066A00014B
:10384000FC510401F75D176E320E175C04E3F7C4F8
:10385000FCF0939C8A7C31D86BEC25F0C3EC0FF024
:103860007AD9EDD7056A046A076A0A0E0401786FEF
:10387000796B0401CD0E766F030E776FD6EC1FF0D7
:103880000401AC6BAD6B0401CD0EAA6F030EAB6FE0
:1038900004016B0EA86FD30EA96F4EEC18F0000157
:1038A000FA6FFF0EFA5D02E1F4D904D0EBD9000EF5
:1038B000EE6F520EEF6F08EF28F006506BE1096AC9
:1038C0000A6A086A076A056A046AFAC0C6F468ECFC
:1038D00019F0000901E13ED1B8D902E0ABD9FCD71B
:1038E000C7EC19F0FF0E0001FB5D20E104016C0E36
:1038F000AC6FD30EAD6F80EC1AF0F3CFAAF4F4CF17
:10390000ABF40401720EA86FD30EA96F4EEC18F041
:103910000001FB6FFF0EFB5D02E1BBD904D0B2D901
:10392000D20EEE6F510EEF6F08EC28F04D0E020133
:10393000035D01E00FD1580E045D01E00BD1610E73
:10394000055D01E007D1750E065D01E003D10005BC
:1039500008E198D9BA0EEE6F510E51D9010E066EDC
:103960001200020E005D07E18DD99F0EEE6F510E21
:1039700046D9020E0CD00A0E005D01E0EBD082D9D0
:103980008C0EEE6F510EEF6F08EC28F00A0E066EEB
:10399000076A1200060421E109500A101CE067D9E9
:1039A0001BE00B6A0B50176E186AD890185004E68B
:1039B000FA0E175C000E185803E250D90B2AF2D702
:1039C000FA0E0401B86FB96B14D90AEC19F00906A4
:1039D000000E0A5A1200066A1200020E065C2DE161
:1039E00009500A1028E00750010A15E0010A01E019
:1039F0001200FAC0C6F468EC19F0000901E1AAD07F
:103A0000056A086A22D902E015D9FCD7C7EC19F07B
:103A1000010E076E12002BD901E19CD008502DD960
:103A2000000EB66F020E32D90AEC19F0076A0906C9
:103A3000000E0A5A1200066A12000A0E065C01E025
:103A400089D0000ED8800954000E0A5458E20FD9CC
:103A500001E180D00B6A02D90B500B2A176E186A4D
:103A6000FF0E1718F8E11850F6E1000E095C020E7F
:103A70000A5807E30401B86B010EB96FBAD80A06F9
:103A8000F4D7000E095C010E0A582FE30401B86B4D
:103A9000B96BAFD8010E0401B86FB96BAAD8010E8B
:103AA000ECD8010EB66F010EF1D80A0EE6D8020E60
:103AB000B66F010EEBD80B0EE0D80C0EB66F010EF0
:103AC000E5D8320EDAD8170EB66F010EDFD8630EC6
:103AD000D4D8490EB66F010ED9D8540ECED8AC0E3C
:103AE000B66F010ED3D80A06CCD709C0B8F40AC005
:103AF000B9F47FD8096A0A6A072A0AEF19F0075051
:103B0000080A27E00F0A20E0010A1CE0030A17E078
:103B1000010A12E0070A0DE0010A09E0030A05E0C4
:103B2000010A01E01200080E05D00F0E03D0310E7D
:103B300001D0630E096E01D009680A6A1200096A91
:103B4000010E05D0096A02D0010E096E030E0A6E3D
:103B50001200066A12001200F18E240EAC6E900E56
:103B6000AB6E080E7E6EAC0EAF6E7F6A9268936885
:103B7000946897689868D56AF28EF28C12000301F7
:103B8000140EF66F0D01F60ED06F030ED16F0D01FE
:103B9000DC0ECE6F030ECF6FD8C3E9FFD9C3EAFFA7
:103BA000EF500D01CD6F7DEC11F00301F76FE85080
:103BB000E6E1120036D8020EE926000EEA22EFCF27
:103BC000FCF32FD8030EE926000EEA22EFCFFDF317
:103BD00028D8EFCFFEF3FAC3E9FFFBC3EAFFEF6A91
:103BE0001200E96F0001D90EE86FF5EC27F0000133
:103BF00012000401000EB66F010E46EF1EF0EF6FCB
:103C000008EC28F0FF0E02010215096E0A6AFF0E89
:103C10000115186A186E176A1750092618500A22DB
:103C20001200F8C3E9FFF9C3EAFF040EE926000E0B
:103C3000EA2212000550052AEA6A000FE96E020E18
:103C4000EA22D7C3EFFF082A12000401D70EC76F7C
:103C5000030EC86F77EC19F0000912000B50EA6AE6
:103C6000000FE96E010EEA220BC0EFFF1200FBC04D
:103C7000B2F49EEC18F0000912000401B86FB96BA1
:103C8000040112000001020EF1EF1DF0B76FC6EF44
:103C900018F00001040EA5DF2E0EEE6F520E12007A
:103CA00001C404F400C403F401C402F401C4F3FF2A
:103CB00000C4F4FF120005C40AF406C40BF407C4E0
:103CC0000CF408C40DF404010A0E0E6F040E0F6FFD
:103CD0000EC4E9FFEA6E030E90D9EF50E66E030EB4
:103CE00086D909C4EFFF7AD9020E87D9010E7BD994
:103CF000EF50E66E73D9020E7AD9010E74D909C459
:103D0000EFFF0AC410F00BC411F00CC412F00DC484
:103D100013F012000401186B196B1A6B1B6B10C4A3
:103D200016F411C417F412C414F413C415F4D89083
:103D30001533143314C417F015C418F01407000E0B
:103D4000155B1750181018E016C4E9FF17C4EAFFF6
:103D5000020E1627000E1723EECF17F0EFCF18F044
:103D600000011750040118270001185004011923FD
:103D7000000E1A231B23DED71251010B0EE016C4CE
:103D8000E9FF17C4EAFFEFCF17F000011750040155
:103D90001827000E19231A231B231A511B1109E09F
:103DA00018511A25186F19511B21196F1A6B1B6BAB
:103DB000F4D718C417F019C418F0171E181E17C02E
:103DC000F3FF18C0F4FF12000401010E1E6F1F6BF9
:103DD000206B04011C511D114BE0400E1C5D000EB8
:103DE0001D5904E3400E176E186A04D01CC417F066
:103DF0001DC418F017C023F4175005018E6F8F6B88
:103E00000501240E8C6F040E8D6F91EC15F00401EA
:103E10002351176E186A17501C5F18501D5B226BD8
:103E20002351225DD6E22251EA6A240FE96E040E84
:103E3000EA22EFCF21F41E510AE121511F251F6F05
:103E400021511F5D0DE2202B0BE11F2B09D02151C9
:103E50002025206F2151205D03E21F2B01E1202B43
:103E60001E5102E0000E01D0010E1E6F222BD8D78A
:103E7000201D206F1F1D1F6FF36E20C4F4FF120062
:103E800004016451390805E3300E645D02E3300E2D
:103E90000FD06451460805E3410E645D02E3370E1E
:103EA00007D06451660806E3610E645D03E3570EB4
:103EB000645D1200FF0C010E0401EA6A6525E96EDB
:103EC0006651EA22EFCF64F4DBDF0401696F65C459
:103ED000E9FF66C4EAFFEFCF64F4D2DF04016A6F42
:103EE000FF0E695D03E0FF0E6A5D01E1000C6A39B7
:103EF000F00B691167C4E9FF68C4EAFFEF6E010CBB
:103F00000401706BA6B2FED72F0EA616A68404017C
:103F10006DC4E9FF6EC4EAFF6D2B000E6E23EF50F7
:103F2000A86E0401702B04016F510401D8807055F4
:103F300001E2A86A6CC417F0186A1750AA6E04014F
:103F40006BC417F06CC418F06B2B000E6C23175069
:103F5000A96E550EA76EAA0EA76EA6820000A6B285
:103F6000FED7A850D4E1A6940401705100D01200ED
:103F700074C417F01750AA6E73C4A9FF3F0EA6169B
:103F8000040171C4E9FF72C4EAFF712B000E7223B1
:103F9000EFCF75F4A680A850755D01E0010C755156
:103FA00001E1000CA92AECE1AA2AEAD776C47CF444
:103FB00077C47DF404017A6B7B6B78517A5D79511B
:103FC0007B590BE27CC4E9FF7DC4EAFF7C2B000E29
:103FD0007D23EF6A7A2B7B23F0D712000EC4E9FF12
:103FE0000FC4EAFF1200E926000EEA221200FBDFEE
:103FF000E552E750EF6EEEEF1FF0F5DFEFCF09F47B
:04400000EEEF1FF0D0
:0C4004000601D56B010ED66F0D01180EE1
:10401000E96F64EC26F00601CD6B010C0601D6B108
:1040200003D00001020E04D0CDA104D00001030E84
:104030007AD9FE0C0301FF6B0601450EDD6FDE6BC6
:10404000DF6BD8C6E9FFD9C6EAFFEF5001E1FF0CEC
:10405000D8C6E6FFD9C6E6FFB6EC29F0E552E55230
:10406000F3CFD8F6F4CFD9F6DDC6F0FDDEC6F1FD0C
:1040700065D904E00301FE0EFF6F59D0EEEC26F087
:104080000601DB6FDBAF03D00301FF6950D0DC6BAF
:104090000C0EDC5D1FE2EEEC26F00601DB6FDC515E
:1040A000EA6AD825E96ED951EA22EF50DB5D06E0D5
:1040B000120EDD27000EDE23DF230CD0DB5108E1DA
:1040C0000601DC2B0C0EDC5D05E2EEEC26F0F8D7E9
:1040D000DC2BDED70C0EDC5D27E1CD0EE06F060E8B
:1040E000E16FE0C6E9FFEA6E010EEF6EE0C6E9FFA0
:1040F000E1C6EAFFEB6A020EEB6A2BD9030E0DD97B
:10410000030E23D9010E09D9030E1FD9020E05D9BA
:10411000060E03D9060E19D9010E17D9E552E7503C
:10412000EF6E0601D52B03D0F8EC26F09DD7F8EC06
:1041300026F00301FF511200010E0601E25D07E3C4
:1041400000010D0EF0D8E2C6E6F0B3EF27F0E2C6AC
:10415000E3F603D80601CD6B1200010E0601E35D04
:1041600007E300010E0EDFD8E3C6E6F0B3EF27F059
:10417000CD0EE46F060EE56FE4C6E9FFEA6EEF5080
:10418000020B03E0F8EC26F010D0E4C6E9FFE5C628
:10419000EAFFEF50040B09E0E4EC26F00D01A00E5D
:1041A000FB6F32EC27F00009F9E1F90EE4C6E9FFF4
:1041B000E5C6EAFFE850EF161200010E0601E65DC3
:1041C00003E300010F0E11D0CD0EE86F060EE96F6C
:1041D0009F0E176EAED8E850EF16ABD8EF50010B1C
:1041E0000AE1A7D8EF8A0001080E9DD8E6C6E6F0DE
:1041F000B3EC27F0000C9DD8EF50020B22E199D8C8
:10420000EE52EECF1AF0EFCF1BF01C6A92D8030EDD
:104210009CD8EE501A24176EEE501B20186EEE50EC
:104220001C20196E17C0F0FD18C0F1FD87D803E1FE
:1042300080D8EF8206D07DD8EF8A0001090E73D8AE
:10424000000CEEEC26F00601E76F73D8EE52EE2A72
:10425000000EED22EECF17F0EDCF18F06AD8060E63
:1042600074D8EECF19F0EFCF1AF0000119501718DB
:1042700005E11A50181802E15CD8EF8C0601E751ED
:104280001200010C010C12001200F36AF46A120011
:10429000116A126A136A1200000C0601D6A1000C02
:1042A000CDB1000C010ECD6F400ED06FD16BD26B33
:1042B000010C0601CD0EF86F060EF96FCDA506D0E4
:1042C000400ED75D03E30601E36B47DF0601CDB582
:1042D00013D0D0C6EBFDD1C6ECFD0D01A00EEA6FE8
:1042E0006DEC26F0000904E10601CD85D76B04D002
:1042F00000010B0E18D8000CF7C6F3FDD0EC26F029
:104300000601D72BD02B000ED123D223010C06019E
:10431000E36B23DF0601CD6B010C17D8E552E750A4
:10432000EF6EA9EF21F0E96F0001D30EE86FF5EF12
:1043300027F0E8C6E9FFE9C6EAFF12000D01A00E6A
:10434000EF6FA3EC26F000091200E926000EEA2226
:104350001200EEEC26F0E66EE0C6E9FFE1C6EAFFE9
:02436000120049
:0E436200140E05018E6F8F6B0501100E8C6F0F
:10437000060E8D6F91EC15F0F00E06011015400839
:1043800001E09FD00F0E1015040DF350176E186A40
:10439000140E175E000E185A17C024F61750140892
:1043A00001E28FD0245100080BE2245105018E6FE9
:1043B0008F6B0501250E8C6F060E8D6F91EC15F03D
:1043C0001AC608F61BC609F606011A6B1B6B140EFB
:1043D00010D9100E106F060E116F8AEC1EF0F3CF7D
:1043E0000CF6F4CF0DF606010C1F0D1F245100082A
:1043F00010E22451FED8250E106F060E116F8AECC4
:104400001EF0F3CF0EF6F4CF0FF606010E1F0F1FAE
:1044100002D00E6B0F6B040EECD80C0E106F060E54
:10442000116F8AEC1EF0F3CF0AF6F4CF0BF60601FB
:10443000100E526F060E536FAFD806010A510819BD
:1044400040E10B5109193DE1F00E1015400839E12A
:10445000005101110CE000C6E9FF01C6EAFF20C6C9
:10446000EEFF21C6EEFF22C6EEFF23C6EEFF02C618
:10447000E9FF03C6EAFF060ED6D81CC6EEFF1DC62E
:10448000EEFF1EC6EEFF1FC6EEFF04C6E9FF05C61F
:10449000EAFF19C6EFFF2451196E1A6A1950125D0E
:1044A000176E1A501359186E140E175E000E185A14
:1044B00006C6E9FF07C6EAFF17C0EEFF18C0EDFF0A
:1044C000010CF8EC15F0000C0601450E3E6F3F6B39
:1044D000140E3C25406F000E3D21416F0401FE2B60
:1044E000000EFF23FEC442F6FFC443F60601446BF0
:1044F000400E456F640E466F3BC647F6486B496BEE
:1045000026C74AF627C74BF628C74CF629C74DF6EB
:1045100039C6E9FF3AC6EAFF060E85D8EECF4EF659
:10452000EECF4FF6EECF50F6EFCF51F606013E0E2E
:10453000526F060E536F30D8140E5BD83E0E106FBC
:10454000060E116F8AEC1EF0F3CF48F6F4CF49F651
:10455000140E06013C250501BD6F000E06013D212C
:104560000501BE6F0501BC6B39C6E9FF3AC6EAFF1B
:1045700039C6BAF53AC6BBF5F6EC16F0140E0501CD
:10458000836F846B05013E0E816F060E826FDFEC38
:1045900014F0F36AF46A120027D8020E35D8020E1E
:1045A00038D8020E2BD8020E39D8040E2DD8040E9E
:1045B00030D8040E23D8040E31D8060E25D8060EA6
:1045C00028D8060E1BD8060E29D80A0E1DD80A0EAA
:1045D00020D80A0E13D80A0E03D854C6EFFF1200D3
:1045E00022D8010E13EF23F052C6E9FF53C6EAFFAB
:1045F00012000401126F136B0401120014D8E5526B
:10460000E750EF6EF4EF22F00ED8EFCF54F6F4EF50
:1046100022F0E6DFEF50E66EF4EF22F0E1DF54C661
:0E462000EFFFF4EF22F0E926000EEA2212006E
:02462E001C0E60
:1046300005018E6F8F6B0501590E8C6F060E8D6F05
:1046400091EC15F0F8EC15F00601590E946F060E7A
:10465000956FF2D80601010E591912E15A5110E175
:104660005D51176E186A060E17180AE1185008E116
:104670005E51196E1A6A040E191801E11A5001E010
:10468000000C020E5F1905E1605103E103D9EF6AE6
:104690000DD0010E5F1906E1605104E1010EFAD858
:1046A000EF6E04D0020EF6D8EF6E000C0701265113
:1046B0000601715D2EE1070127510601725D29E1B6
:1046C000070128510601735D24E107012951060104
:1046D000745D1FE155C6E9FF56C6EAFF61C6EEFFED
:1046E00062C6EEFF63C6EEFF64C6EEFF65C6EEFF70
:1046F00066C6EEFF55C6E9FF56C6EAFF060ED4D8D9
:1047000067C6EEFF68C6EEFF69C6EEFF6AC6EEFF3B
:10471000010C000C010E0601786F796B7A6B080EA4
:104720007B6F060E7C6F040E7D6F77050AE1010E2C
:104730007E6F7F6B8A698B698C698D698E698F69E1
:1047400013D0020E7E6F7F6B75C6E9FF76C6EAFF57
:10475000EECF8AF6EECF8BF6EECF8CF6EECF8DF65F
:10476000EECF8EF6EFCF8FF62AC780F62BC781F6F5
:104770002CC782F62DC783F62EC784F62FC785F681
:1047800026C786F627C787F628C788F629C789F679
:104790007AD8EF508619070130151BE174D8010E45
:1047A00083D8EF50060187190701311512E16BD844
:1047B000020E7AD8EF50060188190701321509E177
:1047C00062D8030E71D8EF5006018919070133151D
:1047D00009E034C790F635C791F636C792F637C769
:1047E00093F609D050D8EECF90F6EECF91F6EECFFB
:1047F00092F6EFCF93F60601780E946F060E956F42
:104800001BD81C0E0501BD6FBE6B0501060EBC6FEB
:1048100005018A0EBA6F060EBB6FF6EC16F01C0E81
:104820000501836F846B0501780E816F060E826F20
:10483000DFEC14F04BEF17F032D819D8F3CFEEFFBE
:1048400018C0EDFF2CD8020E2FD811D8020EF3CFCE
:10485000EBFF030E18C0EBFF22D8060E25D807D8B1
:10486000060EF3CFEBFF070E18C0EBFF1200EECFE2
:1048700000F4EDCF01F450EC1EF0F3CF17F0F4CFBD
:1048800018F04FEF24F075C6E9FF76C6EAFF060E72
:1048900054EF24F057C6E9FF58C6EAFF120094C649
:1048A000E9FF95C6EAFF1200E926000EEA2212008F
:1048B000080E05018E6F8F6B05010A0E8C6F050EB9
:1048C0008D6F91EC15F00CC538F50DC539F5050166
:1048D0000C6B0D6B080E0401126F136B04010A0EB2
:1048E000106F050E116F8AEC1EF0F3CF32F5F4CF86
:1048F00033F50501321F331F080E176ED8D8E85064
:10490000EF5ED5D8EF5005018E6F8F6B02C58CF529
:1049100003C58DF591EC15F0CAD8EF500401126F64
:10492000136B02C510F403C511F48AEC1EF0F3CF2B
:1049300034F5F4CF35F50501341F351F040E04019D
:10494000126F136B0401320E106F050E116F8AEC9B
:104950001EF0F3CF36F5F4CF37F505010A0E6C6F74
:10496000050E6D6F79D800C5E9FF01C5EAFF0AC5DC
:10497000EFFF06C5E9FF07C5EAFF0EC5EEFF0FC54D
:10498000EDFF08C5E9FF09C5EAFF10C5EEFF11C537
:10499000EDFF05013851361902E13951371901E0AF
:1049A000000C010C0501456B3CC544F5466B476B9B
:1049B00040C548F541C549F542C54AF543C54BF5E3
:1049C0003F51E66EE66A3DC5E6FF3EC5E6FF4C0E8A
:1049D000E66E050EE66E2BEC29F0176E060EE15E14
:1049E00017500501440E6C6F050E6D6F35D8080E1B
:1049F00005013F250401126F136B000E1323040100
:104A0000440E106F050E116F8AEC1EF0F3CF46F5C1
:104A1000F4CF47F5080E05013F2506013C6F3D6BBD
:104A2000000E3D230601010E3B6F3AC539F63BC52A
:104A30003AF664EC22F0080E05013F250501836F6C
:104A4000846B000E84230501440E816F050E826F76
:104A5000DFEC14F04BEF17F02FD8040E15D8040E2E
:104A6000F3CFEBFF050E1FD8060E0ED8060EF3CFC0
:104A7000EBFF070E18D8020E07D8020EF3CFEBFF9C
:104A8000030E18C0EBFF1200E926000EEA22EECF5B
:104A900000F4EDCF01F450EC1EF0F3CF17F0F4CF9B
:104AA00018F05CEF25F018C0EBFF5CEF25F004C5B3
:104AB000E9FF05C5EAFF12006CC5E9FF6DC5EAFF15
:024AC0001200E2
:0E4AC2000601966BBAEC13F065EC2AF041EC9D
:104AD00018F02EEF04F00601010ECC6F0601CC5148
:104AE00001E1EED0CC6B9651040A01E1C9D0070A6E
:104AF00001E194D0050A01E17AD0010A65E0050AD6
:104B000035E0070A2DE0050A02E0010AE7E10501A8
:104B1000CB0EA06F060EA16F0501970E9E6F060EBD
:104B20009F6F3DEC16F00009D9E00601010ECC6F35
:104B3000CB5102E1020E42D0060ECB5D02E1050E22
:104B40003DD0F8EC15F00001040EE96F0001D70E1E
:104B5000E86FF5EC27F0CBC6E7F0D5EC27F0BED731
:104B6000CC6B72EC2AF00009B9E0A7D00601A10EC7
:104B7000066F060E076F0601CB0E046F060E056F5B
:104B80000601970E026F060E036F0601C70E006F37
:104B9000060E016FB1EC21F0000913E00601010ED1
:104BA000CC6FCB0502E1030E09D0060ECB5D02E10E
:104BB000060E04D0110ECB5D03E1070E966F8ED763
:104BC000CC6BF8EC15F079D0A1C6D3F4A2C6D4F41E
:104BD0000401C70ED16F060ED26F0401970ECF6F7E
:104BE000060ED06FD1EC19F0000915E012D0A1C665
:104BF00047F3A2C648F30301C70E456F060E466F82
:104C00000301970E436F060E446F7CEC08F0000919
:104C100002E00601966B0601CC6B60D7966B290EFD
:104C2000D880A155000EA25528E30501C50E086FD6
:104C3000060E096F0501C30E066F060E076F05010C
:104C4000A10E046F060E056F0501A30E026F060E7E
:104C5000036F0501CB0E006F060E016F58EC24F0B8
:104C6000000909E0080E0601CB5D06E1010ECC6FDC
:104C7000040E966F02D00601966BF8EC15F02ED755
:104C8000AFEC14F0000901E129D7C5C642F5C6C64C
:104C900043F5C3C640F5C4C641F5A1C63FF50501BD
:104CA000A30E3D6F060E3E6F05013C6B0501970E8E
:104CB0003A6F060E3B6FD2EC24F00601966B0ED7CE
:084CC00077EC07F078EF14F027
:084CC800E9CDFEF50501FD6BCD
:104CD0000501080EFC6FCFEF2BF0EBCDEDFDECCD19
:104CE000EEFDC750040B01E0010EE4D8FAE1C580E7
:104CF000C5B0FED7A1B6010CEACDFFF5E0D801E0C2
:104D0000010CC750040B01E0010ED4D8FAE1C5BC78
:104D100019D0EECDFFF5D3D801E0010CC750040B3C
:104D200001E0010EC7D8FAE1EDCDFFF5C8D801E0EA
:104D3000010CC750040B01E0010EBCD8FAE1C5AC70
:104D4000000C020C020CF0CDEBFDF1CDECFDEFCD33
:104D5000EAFDC3DF0D01F26FE85005E177D80D01E0
:104D6000F26FE85002E0F2511200C750040B01E06C
:104D7000010EA0D8FAE1C580C5B0FED7A1B6010CDE
:104D80000D01EF290501FF6F9AD801E0010CC75012
:104D9000040B01E0010E8ED8FAE1C5AC000C020C48
:104DA000C750040B01E0010E85D8FAE1F3CDFFF501
:104DB00086D801E0010CC750040B01E0010E7AD83F
:104DC000FAE1C5AC000C020CC750040B01E0010E67
:104DD00071D8FAE1C584C5B4FED7000CDEEC2BF027
:104DE000C5B6FED7C59AC588C5B8FED7C95012004A
:104DF000DEEC2BF0C5B6FED7C58AC588C5B8FED790
:104E0000C584C5B4FED7000CF5CDF0FDF6CDF1FD9F
:104E1000F4CDEFFD98DF0D01FA6FE85015E1F9517F
:104E2000F90700090EE0DADFE66E0D01F7CDE9FFC4
:104E3000F8CDEAFFF72B000EF823E552E750EF6EAE
:104E4000EED7D6DF0D01FA6FFA511200C750040BEE
:104E500001E0010E2FD8FAE1C584C5B4FED7A1B692
:104E6000010C000CC750040B01E0010E23D8FAE13D
:104E7000C580C5B0FED7A1B6010CFBCDFFF51FD88C
:104E800001E0010CC750040B01E0010E13D8FAE158
:104E9000A1B6010CC5BC03D00D01FC6B03D00D0104
:104EA000040EFC6FC584C5B4FED7A1B6010C0D017C
:104EB000FC511200176E1F0EC51417101200E3EC00
:064EC0002BF000091200B6
:0A4EC6000001E46BA06BA16BE26B2E
:104ED000E36B9D9A9D9812009D8A9D981200000197
:104EE000A16BA1C0A0F0E36BE3C0E2F01200060EDC
:104EF000AB1402E0AB98AB889EAA0ED00001E35140
:104F0000EA6AA20FE96E000EEA22AECFEFFFE32BB2
:104F10003F0EE315E36FF0D712000001A051A15D31
:104F20000DE0A051EA6A600FE96E000EEA22EF5030
:104F3000AD6EA02B3F0EA015A06F12009D98120021
:104F400012000001E45112000001E251EA6AA20FCE
:104F5000E96E000EEA22EFCFE5F0E22B3F0EE215FC
:104F6000E26FE55112000001A1293F0B0001A05D95
:104F700002E10400F8D7F29E9DB805D0E6C0ADFF6F
:104F80009D88F28E11D00001A151EA6A600FE96E8E
:104F9000000EEA22E6C0EFFF0001A12B3F0E000148
:104FA000A1150001A16FF28E12000001E7519F08C8
:104FB00005E2E7390F0B0F0B570F04D0E7390F0B42
:104FC0000F0B300F0001E66FCEDF0F0E0001E7156B
:104FD000090804E20F0EE715570F03D00F0EE7156F
:104FE000300F0001E66FB3EF27F0E8C0E6F0BBDF5B
:104FF000E9C0E6F0B3EF27F0EAC0E6F0B4DFEBC0BB
:10500000E6F0B1DFECC0F7F0EDC0F8F03CEF28F0CF
:105010000001EEC0F6FFEFC0F7FFEE2B000EEF230E
:105020000800F5CFF0F0F0C0E6F09DDF0001F05190
:10503000EFE112000001F1C0E9FFF2C0EAFFF12B3D
:10504000000EF223EFCFF3F0F3C0E6F08CDF0001A7
:10505000F351F0E112000001F4C0E9FFF5C0EAFFEE
:10506000F42B000EF523EFCFF6F0EF5004E0F6C07E
:10507000E6F079DFF0D712000001F7C0F6FFF8C0C4
:10508000F7FFF72B000EF8230800F5CFF9F0F550E5
:0C50900004E0F9C0E6F067DFEFD7120083
:04509C0048545450D0
:1050A0002F312E3020353033200D0A0D0A53657212
:1050B0007669636520556E617661696C61626C65C5
:1050C0000D0A000D0A0D0A00485454502F312E309D
:1050D00020323030204F4B0D0A436F6E74656E7472
:1050E0002D747970653A2000485454502F312E3079
:1050F00020343034204E6F7420666F756E640D0A54
:105100000D0A4E6F7420666F756E642E0D0A006175
:105110007564696F2F782D77617665006170706CAA
:1051200069636174696F6E2F6A6176612D61726364
:105130006869766500696D6167652F6A70656700EB
:10514000696D6167652F67696600746578742F6A99
:1051500061766173637269707400746578742F632B
:105160007373006170706C69636174696F6E2F6A2C
:105170006176612D766D00746578742F68746D6C3E
:1051800000746578742F706C61696E00537461727D
:1051900074204F7468657220312054657374004523
:1051A0006E7465726564204C6F6F706261636B2012
:1051B00054657374206D6F646500456E7465726527
:1051C000642052583235302054657374206D6F64FA
:1051D00065005375636365737366756C6C792063E2
:1051E0007265617465642055445020736F636B650C
:1051F00074206F6E20706F72742035343132340039
:105200005375636365737366756C6C79206372653F
:10521000617465642055445020736F636B6574201E
:105220006F6E20706F727420353431323300436FEB
:10523000756C64206E6F74206F70656E20554450DD
:1052400020736F636B6574206F6E20706F727420B3
:0652500035343132330059
:0A525600D9CFE6FFDACFE6FFFA0E2B
:10526000E3CFD9FFFB0EE3CFDAFFFC0EE3CFE9FF7C
:10527000FD0EE3CFEAFFE9CFF3FFEACFF4FFF80E2C
:10528000E35003E1F90EE35008E0F80EE30602E212
:10529000F90EE306DECFEEFFF2D7FF0EE3CFDAFF23
:1052A000E552FF0EE3CFD9FFE5521200FB0EE3CF2C
:1052B000F6FFFC0EE3CFF7FFFD0EE3CFF8FFFE0E87
:1052C000E3CFE9FFFF0EE3CFEAFFE9CFF3FFEACF39
:1052D000F4FFF90EE35003E1FA0EE35009E0F90E92
:1052E000E30602E2FA0EE3060900F5CFEEFFF1D77E
:1052F0001200FB0EE3CFF6FFFC0EE3CFF7FFFD0E2F
:10530000E3CFF8FFFE0EE3CFE9FFFF0EE3CFEAFFA6
:105310000900F550EF5C02E1EE66FAD71200FB0ED1
:10532000E3CFF6FFFC0EE3CFF7FFFD0EE3CFF8FF70
:10533000FE0EE3CFE9FFFF0EE3CFEAFFE9CFF3FF75
:10534000EACFF4FF0900F5CFEFFFEE66FBD71200BE
:10535000FE0EE3CFE9FFFF0EE3CFEAFFF36AF46A44
:10536000EE5203E0F34AF42AFBD71200FE0EE3CF1D
:10537000E9FFFF0EE3CFEAFFE9CFF3FFEACFF4FF47
:10538000610EEF5C05E67B0EEF5C02E7DF0EEF16C9
:06539000EE52F6E11200EE
:0A539600D9CFE6FFDACFE6FFFA0EEA
:1053A000E3CFD9FFFB0EE3CFDAFFFD0EE35209E7AF
:1053B0002D0EDE6EFC0EE31EE32AFD0ED8B4E306CE
:1053C000E31EE652E652E652FD0EE124E76EFF0EC2
:1053D000E220E46EE652F70EE3CFE6FFF70EE3CFEE
:1053E000E6FF3BEC2AF0F90EE124E96EFF0EE22025
:1053F000EA6E2BEC2AF00AE128EC2AF009E12BEC0A
:105400002AF008E128EC2AF007E108D036EC2AF06F
:1054100031EC2AF036EC2AF031EC2AF036EC2AF0A6
:10542000DE6AF90EE126FF0EE222FF0EE3CFDAFF7D
:10543000E552FF0EE3CFD9FFE552FC0EE124E96E01
:10544000FF0EE220EA6EEECFF3FFEFCFF4FF120083
:10545000EF380F0B1200EF500F0B02E1EE52D88421
:105460001200EF380F0B300FDE6E1200EE500F0BF4
:10547000300FDE6E1200FC0EE3CFE9FFFD0EE3CF2E
:10548000EAFF100EE66EEE6AEE6AEF6AD890FD0E45
:10549000E336FE0EE336ED36ED36EF36FF0EE3066D
:1054A00009E05CEC2AF0EE525CEC2AF0EE525CEC87
:1054B0002AF0EDD7E56E1200030EEF24E8B6EF6E8A
:0A54C000300EEF24E8BEEF6E000C82
:0654CA000701006B0169FF
:1054D00002690369046905690669076B086B096B52
:1054E0000A6B12000701005128E10601150E576FE3
:1054F000070E586F06010B0E556F070E566F17EC0F
:1055000023F000092BE00701155115E10BC701F746
:105510000CC702F70DC703F70EC704F70FC705F74F
:1055200010C706F711C707F712C708F713C709F71F
:1055300014C70AF7010C010E006FAFEC14F000095C
:105540000CE00601776B06010B0E756F070E766F88
:105550008AEC23F00701006B010C000C010C16C74C
:10556000E9FF17C7EAFFEECF1EF7EECF1FF7EECF2A
:1055700020F7EFCF21F70601010E776F0601180E15
:10558000756F070E766F8AEF23F022C7E9FF23C7F6
:10559000EAFF07010751EE1808E10851EE1805E18E
:1055A0000951EE1802E10A51EE1814E007013451D6
:1055B0000701075D20E1070135510701085D1BE187
:1055C000070136510701095D16E10701375107014F
:1055D0000A5D11E124C7E9FF25C7EAFF01C7EEFF15
:1055E00002C7EEFF03C7EEFF04C7EEFF05C7EEFFDD
:0855F00006C7EEFF010C000CE0
:0855F8005458540048544D00C2
:10560000434C4100435353004A530000474946006E
:10561000434749004A5047004A415200574156000B
:10562000545854005A5458005A4854005A434C0095
:105630005A4353005A4A5300485454502F312E3085
:1056400020323030204F4B00436F6E74656E742DE6
:10565000747970653A2000436F6E74656E742D45E1
:105660006E636F64696E673A20677A69700D0A002D
:10567000457870697265733A20300D0A00436163A2
:1056800068652D436F6E74726F6C3A206D61782D72
:105690006167653D3330302C206D7573742D7265F4
:1056A00076616C69646174650D0A00474554004970
:1056B0004E4445582E48544D004C4F47494E2E43BA
:0356C00047490057
:0156C300FEE8
:0C56C4002A0EF66E080EF76E000EF86E4F
:1056D00007010900F5503F6F0900F550406F03E1E5
:1056E0003F6701D03DD00900F5503A6F0900F550F1
:1056F0003B6F0900F5503C6F09000900F550E96E59
:105700000900F550EA6E090009000900F5503D6FE7
:105710000900F5503E6F09000900F6CF41F7F7CFB9
:1057200042F7F8CF43F73AC7F6FF3BC7F7FF3CC74E
:10573000F8FF07013D5302E13E5307E00900F55031
:10574000EE6E3D07F8E23E07F9D741C7F6FF42C7C4
:10575000F7FF43C7F8FF07013F07000E405BBFD7C5
:02576000120035
:0E576200AA6AA96A3F0EA6160701260E386F26
:10577000070E396FA950176E186A120E175C000ECB
:1057800018580CE2A68038C7E9FF39C7EAFF382B62
:0E579000000E3923A8CFEFFFA92AECD7120094
:02579E003F0EBC
:1057A000C716C66AC56A0501FC51C612FD51C7126B
:1057B00094869488C68AFEC5C8FF1200C586C7A015
:1057C000FED7C9501200FFC5C9FFC6BEFF0CC7B047
:0457D000FED7000CF4
:0C57D4000D01FD51FD07000906E00D0E5F
:1057E000FE6FFE51F7E0FE07FCD712000D01FF51DE
:1057F000FF07000906E0080EE66E13EC2CF0E552F8
:04580000F5D71200C6
:0C5804000401F76BF86BF96BFA6BFB6B9F
:10581000FC6B580ED66E9E0ED76E010ED56ED58ED1
:06582000F284F28A12007E
:0A582600FF0EE3501F6E480E01D084
:105830004C0EE76EE72EFED7E76AE72EFED71F2E47
:06584000F7D70000120082
:0A5846001EEE00F02EEE00F0F86AEE
:0E585000169C62EC2BF00CEC1CF0FDD7120045
:02585E005633BF
:0E5860002E303000313233343536534552008D
:02586E005632B0
:045870002E3433009F
:03587400FFFF0033
:0258770000002F
:075879008151775163515A80
:10588000514A514051775135511C510F518151812D
:1058900051775163515A514A51E850C850C3509CF6
:0158A00050B7
:020000040030CA
:0100010026D8
:0100020004F9
:010003000AF2
:010005008377
:010006008178
:010008000FE8
:010009008076
:01000A000FE6
:01000B008074
:01000C000FE4
:01000D0000F2
:0200000400F00A
:100000000A0100010004A3000000FF0000000A0133
:0400100000010401E6
:00000001FF
