:020000040000FA
:060000001EEF28F01200C3
:0600180016EF01F01200DA
:02022A000000D2
:04022C00DACFE4FF42
:10023000E2CFDAFFE9CFE4FFEACFE4FFF6CFE4FF55
:10024000F7CFE4FFF5CFE4FFF3CFE4FFF4CFE4FF13
:10025000FACFE4FF00EE00F0140EE80403E3EECF63
:10026000E4FFFBD700EE14F0100EE80403E3EECF3A
:10027000E4FFFBD7E652F2A415D01D0EE66EFB0E8E
:10028000E66EA3EC27F0E552E5520001832B000E49
:1002900084230001A52BA62300019B2B9C239D23D7
:1002A0009E23F29482B003D00001852B02D000017E
:1002B000856B0001862B020E0001825D0BE10001BF
:1002C0008651640807E282A202D0829201D0828223
:1002D000866B0CD00001820504E182820001866BEE
:1002E00005D0825103E182920001866B00D0E55275
:1002F00000EE23F0100EE80403E3E5CFEDFFFBD79B
:1003000000EE13F0140EE80403E3E5CFEDFFFBD796
:10031000E5CFFAFFE5CFF4FFE5CFF3FFE5CFF5FF3B
:10032000E5CFF7FFE5CFF6FFE5CFEAFFE5CFE9FF41
:10033000E5CFDAFF1100C5D94BEC18F0000901E157
:1003400007DA29EC18F0040000018551146E156AD3
:10035000153404E21450FA08000E155410E200019E
:1003600063050DE000016069E668010EE66EE66A6D
:1003700003EC27F0E552E552E55229EC18F00001B4
:10038000666B81EC1EF0D880E80E00019B55030ED1
:100390009C55000E9D55000E9E5522E200019B6B60
:1003A0009C6B9D6B9E6BDADA00019F2B030E0001A4
:1003B000635D06E10001A02B0001A12B0001A22B2F
:1003C00000019F513C080CE200019F6B0001995114
:1003D00000019A1105E0010EE66E91EC0BF0E5527A
:1003E00000016351040A23E0070A1BE0010A16E03A
:1003F000030A11E0010A01E01DD0FF0E0001605D5B
:1004000004E10001010E636F05D00001030E636F6C
:10041000F7EC18F012D065EC18F00FD0F7EC18F0EC
:100420000CD0000166AF02D0CEEC1AF006D062EC20
:1004300018F003D00001636B00D002D884D71200FB
:10044000D9CFE6FFE1CFD9FFE652030E0001635D8D
:1004500001E0ACD0210EE66EE66A29EC27F0E55209
:10046000E552DF6EDF5033E0DF500001D880A05549
:100470002EE20001030E756F840E746F0A0E766F04
:10048000776B060E786F240EE66EE66A29EC27F08D
:10049000E552E552080DF350800F0001796F020E0E
:1004A0007A6F240EE66EE66A29EC27F0E552E552F3
:1004B000E66E8DC0E6FF8EC0E6FF7DD8E552E552C0
:1004C000E55258EC1EF0000902E00001A06B220E7C
:1004D000E66EE66A29EC27F0E552E552DF6EDF5062
:1004E00028E0DF500001D880A15523E20001030E6F
:1004F000756F840E746F0A0E766F776B230E786FAC
:10050000800E796F020E7A6F000E00018F15146E47
:10051000FF0E9015156E15C014F0156A14C07BF00F
:100520008F5100017C6F58EC1EF0000902E00001C1
:10053000A16B230EE66EE66A29EC27F0E552E55240
:10054000DF6EDF5033E0DF500001D880A2552EE28D
:100550000001030E756F840E746F0A0E766F776B51
:10056000310E786F240EE66EE66A29EC27F0E5522C
:10057000E552080DF350800F0001796F020E7A6F7B
:10058000240EE66EE66A29EC27F0E552E552E66EA7
:1005900091C0E6FF92C0E6FF0ED8E552E552E55263
:1005A00058EC1EF0000902E00001A26BE552E55292
:1005B000E7CFD9FF1200D9CFE6FFE1CFD9FF020E76
:1005C000E126FC0EDB501FE1FD0EDBCF14F0FE0E2A
:1005D000DBCF15F0166A176A15AE02D016681768D9
:1005E00014C0E6FF15C0E6FF16C0E6FF17C0E6FF21
:1005F0004FEC25F0E552E552E552E55206C0DEFF2C
:1006000007C0DDFF2AD0020E146EFC0EDB50145C16
:100610001FE1FD0EDBCF14F0FE0EDBCF15F0166AE6
:10062000176A15AE02D01668176814C0E6FF15C029
:10063000E6FF16C0E6FF17C0E6FFEBEC24F0E5523C
:10064000E552E552E55206C0DEFF07C0DDFF05D0EA
:10065000FD0EDBCFDEFFDBCFDDFFDECF14F0DDCF25
:1006600015F00001800E15140EE000017A8F086865
:100670000968DECF0DF0DDCF0EF0D6EC26F006C017
:10068000DEFF07C0DDFFDECF14F0DDCF15F0000E7A
:100690001416FF0E151615C014F0156A14C07BF061
:1006A000DECF14F0DDCF15F0145000017C6F020E88
:1006B000E15C02E2E16AE552E16EE552E7CFD9FF83
:1006C0001200D9CFE6FFE1CFD9FF080EE12626D8E8
:1006D0000F0EC16E9268FB0E936EF50E946E826AD9
:1006E000920EE66EBFEC27F0E5521D0EE66EFB0E95
:1006F000E66EA3EC27F0E552E552010EE66EB5EC8E
:100700001EF0E552F28E080EE15C03E200D0E16AD1
:10071000E552E16EE552E7CFD9FF120000019B6B75
:100720009C6B9D6B9E6B9F6BA06BA16BA26BA36B75
:10073000A46B8D698E698F69906991699269936BD9
:10074000946B956B966B976B986B996B9A6B120089
:10075000E668110EE66EE66A03EC27F0E552E55214
:10076000E552E668120EE66EE66A03EC27F0E55203
:10077000E552E5527F0EE66E130EE66EE66A03EC76
:1007800027F0E552E552E552E668140EE66EE66A99
:1007900003EC27F0E552E552E552E668150EE66EE9
:1007A000E66A03EC27F0E552E552E552E668160EDC
:1007B000E66EE66A03EC27F0E552E552E5527F0E5D
:1007C000E66E170EE66EE66A03EC27F0E552E55298
:1007D000E552E668180EE66EE66A03EC27F0E5528D
:1007E000E552E552E668190EE66EE66A03EC27F07C
:1007F000E552E552E552E6681A0EE66EE66A03EC4B
:1008000027F0E552E552E5527F0EE66E1B0EE66ECE
:10081000E66A03EC27F0E552E552E552E6681C0E65
:10082000E66EE66A03EC27F0E552E552E552E6682B
:100830001D0EE66EE66A03EC27F0E552E552E5523E
:10084000E6681E0EE66EE66A03EC27F0E552E55216
:10085000E552E6681F0EE66EE66A03EC27F0E55205
:10086000E552E552E668200EE66EE66A03EC27F0F4
:10087000E552E552E5521E0EE66E210EE66EE66A80
:1008800003EC27F0E552E552E5521E0EE66E220E0D
:10089000E66EE66A03EC27F0E552E552E5521E0EDD
:1008A000E66E230EE66EE66A03EC27F0E552E552AB
:1008B000E552010EE66E240EE66EE66A03EC27F0C2
:1008C000E552E552E552E66A250EE66EE66A03EC6D
:1008D00027F0E552E552E552E66A260EE66EE66A34
:1008E00003EC27F0E552E552E552E66A270EE66E84
:1008F000E66A03EC27F0E552E552E552E66A280E77
:10090000E66EE66A03EC27F0E552E552E552050E85
:10091000E66E290EE66EE66A03EC27F0E552E55234
:10092000E552050EE66E2A0EE66EE66A03EC27F047
:10093000E552E552E552E66A2B0EE66EE66A03ECF6
:1009400027F0E552E552E552E66A2C0EE66EE66ABD
:1009500003EC27F0E552E552E5521200D9CFE6FF4D
:10096000E1CFD9FF180EE126010EF36E060EF3CF8C
:10097000DBFF070EDB6A010EE66ED950030FE66E51
:10098000000EDA20E66ED950010FE66E000EDA2076
:10099000E66E6BEC24F0146E050EE15E1450000957
:1009A00002E0F6EC23F0050EDB6AE66EDBCFE6FF35
:1009B0003DEC23F0E552E552E76E050EE7CFDBFF95
:1009C000010EDBCFE6FF050EDBCFE6FF3DEC23F0AB
:1009D000E552E552E76E050EE7CFDBFF020EDBCFF7
:1009E000E6FF050EDBCFE6FF3DEC23F0E552E552D6
:1009F000E76E050EE7CFDBFFDB50E76E040EE7CFB7
:100A0000DBFF050EDB6A800EDF6EDF50000812E2AE
:100A1000040EDB50DF1402E0050EDB8EDF0407E07E
:100A2000050EDB407F0BE76E050EE7CFDBFFDF90A7
:100A3000DF42EBD7030EDB50F36E050EDB50F35CA9
:100A400001E0D1D00001A42B010EDB50186E196A11
:100A500018C019F0186A020EDB5000011824146E39
:100A6000000E1920156E166A176A15AE02D01668A8
:100A70001768080E14C0DBFF090E15C0DBFF0A0E55
:100A800016C0DBFF0B0E17C0DBFF080EDBCF14F028
:100A9000090EDBCF15F00A0EDBCF16F00B0EDBCF05
:100AA00017F0080E0B6E2E0E0C6E060E0D6E0E6AF3
:100AB00014C006F015C007F016C008F017C009F002
:100AC00047EC27F002C014F003C015F004C016F084
:100AD00005C017F0080EDBCF1CF0090EDBCF1DF0B0
:100AE0000A0EDBCF1EF00B0EDBCF1FF01CC006F092
:100AF0001DC007F01EC008F01FC009F0080EDBCFB4
:100B00000BF0090EDBCF0CF00A0EDBCF0DF00B0E55
:100B1000DBCF0EF047EC27F002C018F003C019F04D
:100B200004C01AF005C01BF01C0E0B6E0C6A0D6A97
:100B30000E6A18C006F019C007F01AC008F01BC0F2
:100B400009F047EC27F002C018F003C019F004C008
:100B50001AF005C01BF01850145C066E1950155899
:100B6000076E1A501658086E1B501758096E5A0E09
:100B7000075E620E085A020E095AA00E0B6E860E10
:100B80000C6E010E0D6E0E6A7FEC27F006C08FF022
:100B900007C090F0270EE66EE66A29EC27F0E552D2
:100BA000E552166E176A16C017F0166A16C0E6FFF1
:100BB00017C0E6FF270EE66EE66A29EC27F0E5523D
:100BC000E552E552E7CF17F0E552E7CF16F0000106
:100BD0001624146E000E1720156E145000018F2776
:100BE0001550902307D0060EDB6A070EDB6A000162
:100BF000A46B9A2BE66AD950030FE66E000EDA203A
:100C0000E66ED950010FE66E000EDA20E66E6BEC50
:100C100024F0146E050EE15E1450000902E0F6ECBB
:100C200023F0050EDB6A030EE66E050EDBCFE6FF52
:100C30003DEC23F0E552E552E76E050EE7CFDBFF12
:100C4000010EDBCFE6FF050EDBCFE6FF3DEC23F028
:100C5000E552E552E76E050EE7CFDBFF020EDBCF74
:100C6000E6FF050EDBCFE6FF3DEC23F0E552E55253
:100C7000E76E050EE7CFDBFFDB50E76E040EE7CF34
:100C8000DBFF050EDB6A800EDF6EDF50000812E22C
:100C9000040EDB50DF1402E0050EDB8EDF0407E0FC
:100CA000050EDB407F0BE76E050EE7CFDBFFDF9025
:100CB000DF42EBD7030EDB50F36E050EDB50F35C27
:100CC00002E05DEF0BF00001A42B010EDB50186E6B
:100CD000196A18C019F0186A020EDB5000011824B6
:100CE000146E000E1920156E166A176A15AE02D022
:100CF000166817680C0E14C0DBFF0D0E15C0DBFF65
:100D00000E0E16C0DBFF0F0E17C0DBFF0C0EDBCF85
:100D100014F00D0EDBCF15F00E0EDBCF16F00F0E1C
:100D2000DBCF17F0A00E145E0F0E155A000E165AE8
:100D3000175A14C08DF015C08EF0250EE66EE66AC7
:100D400029EC27F0E552E552166E176A16C017F027
:100D5000166A16C0E6FF17C0E6FF260EE66EE66AC4
:100D600029EC27F0E552E552E552E7CF17F0E552BE
:100D7000E7CF16F000011624146E000E1720156E32
:100D8000145000018D2715508E2393518D25936F9C
:100D900094518E21946F020E0D6E0E6A93C008F06E
:100DA00094C009F07CEC26F008C093F009C094F0E0
:100DB000110EE66EE66A29EC27F0E552E552166E52
:100DC000176A16C017F0166A16C0E6FF17C0E6FFCE
:100DD000120EE66EE66A29EC27F0E552E552E5527E
:100DE000E7CF17F0E552E7CF16F000011624146E96
:100DF000000E1720156E000115508E19E8AE02D0B6
:100E00008E3504D08D51145C8E5115581EE2000EA3
:100E10008D15146EFF0E8E15156E15C014F0156A23
:100E20001450E66E110EE66EE66A03EC27F0E5520A
:100E3000E552E55200018D51E66E110EE66EE66A4E
:100E400003EC27F0E552E552E552130EE66EE66A32
:100E500029EC27F0E552E552166E176A16C017F016
:100E6000166A16C0E6FF17C0E6FF140EE66EE66AC5
:100E700029EC27F0E552E552E552E7CF17F0E552AD
:100E8000E7CF16F000011624146E000E1720156E21
:100E900000018E511518E8AE02D0153404D014505C
:100EA0008D5D15508E591EE2000E8D15146EFF0ECD
:100EB0008E15156E15C014F0156A1450E66E130EDB
:100EC000E66EE66A03EC27F0E552E552E5520001D2
:100ED0008D51E66E130EE66EE66A03EC27F0E552DE
:100EE000E552E5521D0EE66EE66A29EC27F0E55262
:100EF000E552146E156A14C015F0146A00018E5183
:100F00001518E8AE02D0153404D014508D5D15507C
:100F10008E5910E2A3BD0ED0A38D020EE66EE0DB6B
:100F2000E552F3CF14F0F4CF15F01450151002E091
:100F30000001628D1E0EE66EE66A29EC27F0E5528E
:100F4000E552146E156A14C015F0146A00011550AC
:100F50008E19E8AE02D08E3504D08D51145C8E51BE
:100F6000155810E2A3BF0ED0A38F010EE66EB8DBBA
:100F7000E552F3CF14F0F4CF15F01450151002E041
:100F80000001628F290EE66EE66A29EC27F0E55231
:100F9000E552166E16C0E6FF1D0EE66EE66A29ECF7
:100FA00027F0E552E552E552E7CF16F01624146E0D
:100FB000156A14C015F0146A000115508E19E8AEB8
:100FC00002D08E3504D08D51145C8E51155801E23B
:100FD000A39D1D0EE66EE66A29EC27F0E552E55268
:100FE000166E16C0E6FF290EE66EE66A29EC27F0BB
:100FF000E552E552E552E7CF16F0165C146E156A1D
:1010000014C015F0146A000115508E19E8AE02D014
:101010008E3504D08D51145C8E51155801E2A39D7C
:10102000080EDBCF18F0090EDBCF19F00A0EDBCF6C
:101030001AF00B0EDBCF1BF0030ED89018361936C2
:101040001A361B36E806F9E1E80E1826030E1922B7
:10105000000E1A221B228DC014F08EC015F0C40E93
:10106000145E090E155A166A176A15AE02D0166874
:10107000176814C006F015C007F016C008F017C0B6
:1010800009F018C00BF019C00CF01AC00DF01BC00D
:101090000EF047EC27F002C006F003C007F004C0D2
:1010A00008F005C009F00B6AE10E0C6EF50E0D6E2E
:1010B000050E0E6E7FEC27F0140E06C0DBFF150E3A
:1010C00007C0DBFF160E08C0DBFF170E09C0DBFFF1
:1010D000D950060FE96EDACFEAFFEE50ED1001E1CC
:1010E00056D1140EDBCF08F0150EDBCF09F00850F7
:1010F00000018F270950902395518F25956F9651A8
:101100009021966F020E0D6E0E6A95C008F096C083
:1011100009F07CEC26F008C095F009C096F0150E99
:10112000E66EE66A29EC27F0E552E552166E176A7C
:1011300016C017F0166A16C0E6FF17C0E6FF160EB7
:10114000E66EE66A29EC27F0E552E552E552E7CF74
:1011500017F0E552E7CF16F000011624146E000ECA
:101160001720156E000115509019E8AE02D0903589
:1011700004D08F51145C905115581EE2000E8F154B
:10118000146EFF0E9015156E15C014F0156A1450EC
:10119000E66E150EE66EE66A03EC27F0E552E552C0
:1011A000E55200018F51E66E150EE66EE66A03EC1D
:1011B00027F0E552E552E552170EE66EE66A29EC95
:1011C00027F0E552E552166E176A16C017F0166A38
:1011D00016C0E6FF17C0E6FF180EE66EE66A29ECB9
:1011E00027F0E552E552E552E7CF17F0E552E7CF99
:1011F00016F000011624146E000E1720156E000163
:1012000090511518E8AE02D0153404D014508F5DFB
:10121000155090591EE2000E8F15146EFF0E90159A
:10122000156E15C014F0156A1450E66E170EE66EB2
:10123000E66A03EC27F0E552E552E55200018F51D2
:10124000E66E170EE66EE66A03EC27F0E552E5520D
:10125000E5521F0EE66EE66A29EC27F0E552E552EC
:10126000146E156A14C015F0146A00019051151817
:10127000E8AE02D0153404D014508F5D155090594B
:1012800010E2A3B90ED0A389040EE66E29DAE55266
:10129000F3CF14F0F4CF15F01450151002E0000154
:1012A0006289200EE66EE66A29EC27F0E552E552E7
:1012B000146E156A14C015F0146A000115509019C7
:1012C000E8AE02D0903504D08F51145C905115587F
:1012D00010E2A3BB0ED0A38B030EE66E01DAE5523B
:1012E000F3CF14F0F4CF15F01450151002E0000104
:1012F000628B2A0EE66EE66A29EC27F0E552E5528B
:10130000166E16C0E6FF1F0EE66EE66A29EC27F0A1
:10131000E552E552E552E7CF16F01624146E156A31
:1013200014C015F0146A000115509019E8AE02D0EF
:10133000903504D08F51145C9051155801E2A39957
:101340001F0EE66EE66A29EC27F0E552E552166EAE
:1013500016C0E6FF2A0EE66EE66A29EC27F0E55293
:10136000E552E552E7CF16F0165C146E156A14C00C
:1013700015F0146A000115509019E8AE02D09035AE
:1013800004D08F51145C9051155801E2A3998DC07F
:101390001CF08EC01DF01E6A1F6A1DAE02D01E68B2
:1013A0001F68B20E1C265C0E1D22000E1E221F227C
:1013B0008DC018F08EC019F01A6A1B6A19AE02D0DF
:1013C0001A681B684C0E0B6E1D0E0C6E0D6A0E6AB1
:1013D00018C006F019C007F01AC008F01BC009F0C9
:1013E00047EC27F002C018F003C019F004C01AF04F
:1013F00005C01BF018C006F019C007F01AC008F0AD
:101400001BC009F01CC00BF01DC00CF01EC00DF07D
:101410001FC00EF0A2EC26F006C014F007C015F0B5
:1014200008C016F009C017F0950E1426020E1522FA
:10143000000E16221722320E0001F76A8F25F66E73
:101440009051F722640E0D6E0E6AF6CF08F0F7CFBA
:1014500009F07CEC26F008C0F6FF09C0F7FFD89031
:10146000F636F736300EF6264C0EF7220900F5CF89
:1014700020F00800F5CF21F0226A236A21AE02D0C5
:10148000226823682050142621501522225016224B
:1014900023501722100E14C0DBFF110E15C0DBFF06
:1014A000120E16C0DBFF130E17C0DBFF100EDBCFD2
:1014B0001CF0110EDBCF1DF0120EDBCF1EF0130E51
:1014C000DBCF1FF0E10E1C5E1F0E1D5A000E1E5AD0
:1014D0001F5A950E186E020E196E1A6A1B6AD950A1
:1014E000100FE96EDACFEAFFEE50185C146EEE5082
:1014F0001958156EEE501A58166EEE501B58176E8E
:10150000B20E0B6E5C0E0C6E0D6A0E6A14C006F005
:1015100015C007F016C008F017C009F047EC27F017
:1015200002C014F003C015F004C016F005C017F097
:1015300014C006F015C007F016C008F017C009F077
:101540001CC00BF01DC00CF01EC00DF01FC00EF033
:10155000A2EC26F006C091F007C092F0000197516E
:101560009125976F98519221986F020E0D6E0E6A19
:1015700097C008F098C009F07CEC26F008C097F0FE
:1015800009C098F0190EE66EE66A29EC27F0E552DC
:10159000E552166E176A16C017F0166A16C0E6FFF7
:1015A00017C0E6FF1A0EE66EE66A29EC27F0E55250
:1015B000E552E552E7CF17F0E552E7CF16F000010C
:1015C0001624146E000E1720156E00011550921986
:1015D000E8AE02D0923504D09151145C9251155866
:1015E0001EE2000E9115146EFF0E9215156E15C0B9
:1015F00014F0156A1450E66E190EE66EE66A03ECF6
:1016000027F0E552E552E55200019151E66E190EC0
:10161000E66EE66A03EC27F0E552E552E5521B0E52
:10162000E66EE66A29EC27F0E552E552166E176A77
:1016300016C017F0166A16C0E6FF17C0E6FF1C0EAC
:10164000E66EE66A29EC27F0E552E552E552E7CF6F
:1016500017F0E552E7CF16F000011624146E000EC5
:101660001720156E000192511518E8AE02D01534FE
:1016700004D01450915D155092591EE2000E911540
:10168000146EFF0E9215156E15C014F0156A1450E5
:10169000E66E1B0EE66EE66A03EC27F0E552E552B5
:1016A000E55200019151E66E1B0EE66EE66A03EC10
:1016B00027F0E552E552E55203D00001A46B992BC7
:1016C000FF0E0001A45D02E1996B9A6B180EE15CBC
:1016D00002E2E16AE552E16EE552E7CFD9FF12007E
:1016E000D9CFE6FFE1CFD9FF0001756B820E746F91
:1016F000010E766F776B020E786FFE0EDBCF79F0FE
:1017000062C07AF058EC1EF0000903E1F36AF46A53
:1017100004D0010EF36EF46A00D0E552E7CFD9FF92
:101720001200D9CFE6FFE1CFD9FF0001756B830E20
:10173000746F140E766F020E776F0D0E786FFE0EBB
:10174000DBCF79F02B0EE66EE66A29EC27F0E55246
:10175000E55200017A6F2C0EE66EE66A29EC27F05E
:10176000E552E55200017B6F58EC1EF0000903E1E1
:10177000F36AF46A04D0010EF36EF46A00D0E55205
:10178000E7CFD9FF1200D9CFE6FFE1CFD9FF020E94
:10179000E126FC0EDB501FE1FD0EDBCF14F0FE0E48
:1017A000DBCF15F0166A176A15AE02D016681768F7
:1017B00014C0E6FF15C0E6FF16C0E6FF17C0E6FF3F
:1017C0004FEC25F0E552E552E552E55206C0DEFF4A
:1017D00007C0DDFF2AD0020E146EFC0EDB50145C35
:1017E0001FE1FD0EDBCF14F0FE0EDBCF15F0166A05
:1017F000176A15AE02D01668176814C0E6FF15C048
:10180000E6FF16C0E6FF17C0E6FFEBEC24F0E5525A
:10181000E552E552E55206C0DEFF07C0DDFF05D008
:10182000FD0EDBCFDEFFDBCFDDFFDECF14F0DDCF43
:1018300015F014C0F3FF15C0F4FF020EE15C03E2E3
:1018400000D0E16AE552E16EE552E7CFD9FF120020
:10185000D9CFE6FFE1CFD9FF060EE126240EE66ED2
:10186000E66A29EC27F0E552E552E76E050EE7CF70
:10187000DBFFFE0EDB502A0A02E136EF12F0030A0C
:1018800002E12DEF12F0010A02E124EF12F00F0A3B
:1018900002E11BEF12F0010A02E112EF12F0030A5B
:1018A00002E109EF12F0010A02E100EF12F0070A6B
:1018B00002E1F7EF11F0010A02E1EEEF11F0030A85
:1018C00002E1E5EF11F0010A02E1CFEF11F03F0A6A
:1018D00002E1CCEF11F0010A02E1C9EF11F0030AB5
:1018E00002E1C0EF11F0010A02E1B7EF11F0070ABF
:1018F00002E1AEEF11F0010A02E1A5EF11F0030AD7
:1019000002E17DEF11F0010A02E153EF11F00F0A3D
:1019100002E12BEF11F0010A02E101EF11F0030ADD
:1019200002E1D9EF10F0010A02E1AFEF10F0070A6F
:1019300001E1CAD3010A01E17AD3030A01E12CD300
:10194000010A01E1DCD21F0A01E1A2D2010A01E190
:1019500066D2030A01E12CD2010A01E1F0D1070AA3
:1019600001E1A3D1010A01E154D1030A01E106D149
:10197000010A01E1B6D00F0A01E193D0010A6FE03C
:10198000030A68E0010A61E0070A3FE0010A1BE080
:10199000030A0FE0010A03E0DF6A3FEF12F02B0EAB
:1019A000E66EE66A29EC27F0E552E552DF6E3FEF7E
:1019B00012F02C0EE66EE66A29EC27F0E552E552AD
:1019C000DF6E3FEF12F0050EDBCFE6FF8DC0E6FFC6
:1019D0008EC0E6FFD8DEE552E552E552DE52F3CF87
:1019E000DEFFF4CFDDFFDD52010EDBCF14F0020E7F
:1019F000DBCF15F0000E1416FF0E151615C014F0EF
:101A0000156A1450DF6E3FEF12F0050EDBCFE6FFD4
:101A10008DC0E6FF8EC0E6FFB6DEE552E552E55228
:101A2000DE52F3CFDEFFF4CFDDFFDD52FF0EE76EB7
:101A3000010EDBCF14F0020EDBCF15F0E7501416C9
:101A4000156A1450DF6E3FEF12F000018F51DF6E08
:101A50003FEF12F000018F51DF6E3FEF12F0050EE5
:101A6000DBCFE6FF91C0E6FF92C0E6FF8CDEE552D9
:101A7000E552E552DE52F3CFDEFFF4CFDDFFDD525B
:101A8000010EDBCF14F0020EDBCF15F0000E1416A2
:101A9000FF0E151615C014F0156A1450DF6E3FEFD7
:101AA00012F0050EDBCFE6FF91C0E6FF92C0E6FF25
:101AB0006ADEE552E552E552DE52F3CFDEFFF4CFA7
:101AC000DDFFDD52FF0EE76E010EDBCF14F0020EDC
:101AD000DBCF15F0E7501416156A1450DF6E3FEF98
:101AE00012F0110EE66EE66A29EC27F0E552E55297
:101AF000166E176A16C017F0166A16C0E6FF17C0F2
:101B0000E6FF120EE66EE66A29EC27F0E552E55292
:101B1000E552E7CF17F0E552E7CF16F000011624A3
:101B2000146E000E1720156E010E14C0DBFF020E9E
:101B300015C0DBFF050EDBCFE6FF010EDBCFE6FFB6
:101B4000020EDBCFE6FF1FDEE552E552E552DE5224
:101B5000F3CFDEFFF4CFDDFFDD52010EDBCF14F05B
:101B6000020EDBCF15F0000E1416FF0E151615C071
:101B700014F0156A1450DF6E3FEF12F0110EE66E8E
:101B8000E66A29EC27F0E552E552166E176A16C090
:101B900017F0166A16C0E6FF17C0E6FF120EE66ED3
:101BA000E66A29EC27F0E552E552E552E7CF17F057
:101BB000E552E7CF16F000011624146E000E172030
:101BC000156E010E14C0DBFF020E15C0DBFF050E03
:101BD000DBCFE6FF010EDBCFE6FF020EDBCFE6FF39
:101BE000D2DDE552E552E552DE52F3CFDEFFF4CF0F
:101BF000DDFFDD52FF0EE76E010EDBCF14F0020EAB
:101C0000DBCF15F0E7501416156A1450DF6E3FEF66
:101C100012F0130EE66EE66A29EC27F0E552E55263
:101C2000166E176A16C017F0166A16C0E6FF17C0C0
:101C3000E6FF140EE66EE66A29EC27F0E552E5525F
:101C4000E552E7CF17F0E552E7CF16F00001162472
:101C5000146E000E1720156E010E14C0DBFF020E6D
:101C600015C0DBFF050EDBCFE6FF010EDBCFE6FF85
:101C7000020EDBCFE6FF87DDE552E552E552DE528C
:101C8000F3CFDEFFF4CFDDFFDD52010EDBCF14F02A
:101C9000020EDBCF15F0000E1416FF0E151615C040
:101CA00014F0156A1450DF6EEAD3130EE66EE66A7E
:101CB00029EC27F0E552E552166E176A16C017F0A8
:101CC000166A16C0E6FF17C0E6FF140EE66EE66A57
:101CD00029EC27F0E552E552E552E7CF17F0E5523F
:101CE000E7CF16F000011624146E000E1720156EB3
:101CF000010E14C0DBFF020E15C0DBFF050EDBCFAB
:101D0000E6FF010EDBCFE6FF020EDBCFE6FF3BDD99
:101D1000E552E552E552DE52F3CFDEFFF4CFDDFFB0
:101D2000DD52FF0EE76E010EDBCF14F0020EDBCFAB
:101D300015F0E7501416156A1450DF6EA0D3150E77
:101D4000E66EE66A29EC27F0E552E552166E176A50
:101D500016C017F0166A16C0E6FF17C0E6FF160E8B
:101D6000E66EE66A29EC27F0E552E552E552E7CF48
:101D700017F0E552E7CF16F000011624146E000E9E
:101D80001720156E010E14C0DBFF020E15C0DBFF1D
:101D9000010EDBCF14F0020EDBCF15F0000E14168F
:101DA000FF0E151615C014F0156A1450DF6E67D3B8
:101DB000150EE66EE66A29EC27F0E552E552166E3E
:101DC000176A16C017F0166A16C0E6FF17C0E6FFBE
:101DD000160EE66EE66A29EC27F0E552E552E5526A
:101DE000E7CF17F0E552E7CF16F000011624146E86
:101DF000000E1720156E010E14C0DBFF020E15C079
:101E0000DBFFFF0EE76E010EDBCF14F0020EDBCF1F
:101E100015F0E7501416156A1450DF6E30D3170E04
:101E2000E66EE66A29EC27F0E552E552166E176A6F
:101E300016C017F0166A16C0E6FF17C0E6FF180EA8
:101E4000E66EE66A29EC27F0E552E552E552E7CF67
:101E500017F0E552E7CF16F000011624146E000EBD
:101E60001720156E010E14C0DBFF020E15C0DBFF3C
:101E7000010EDBCF14F0020EDBCF15F0000E1416AE
:101E8000FF0E151615C014F0156A1450DF6EF7D248
:101E9000170EE66EE66A29EC27F0E552E552166E5B
:101EA000176A16C017F0166A16C0E6FF17C0E6FFDD
:101EB000180EE66EE66A29EC27F0E552E552E55287
:101EC000E7CF17F0E552E7CF16F000011624146EA5
:101ED000000E1720156E010E14C0DBFF020E15C098
:101EE000DBFFFF0EE76E010EDBCF14F0020EDBCF3F
:101EF00015F0E7501416156A1450DF6EC0D2190E93
:101F0000E66EE66A29EC27F0E552E552166E176A8E
:101F100016C017F0166A16C0E6FF17C0E6FF1A0EC5
:101F2000E66EE66A29EC27F0E552E552E552E7CF86
:101F300017F0E552E7CF16F000011624146E000EDC
:101F40001720156E010E14C0DBFF020E15C0DBFF5B
:101F5000050EDBCFE6FF010EDBCFE6FF020EDBCF87
:101F6000E6FFC3EC0BF0E552E552E552DE52F3CF4B
:101F7000DEFFF4CFDDFFDD52010EDBCF14F0020EE9
:101F8000DBCF15F0000E1416FF0E151615C014F059
:101F9000156A1450DF6E73D2190EE66EE66A29ECEC
:101FA00027F0E552E552166E176A16C017F0166A4A
:101FB00016C0E6FF17C0E6FF1A0EE66EE66A29ECC9
:101FC00027F0E552E552E552E7CF17F0E552E7CFAB
:101FD00016F000011624146E000E1720156E010E67
:101FE00014C0DBFF020E15C0DBFF050EDBCFE6FFE2
:101FF000010EDBCFE6FF020EDBCFE6FFC3EC0BF0FA
:10200000E552E552E552DE52F3CFDEFFF4CFDDFFBD
:10201000DD52FF0EE76E010EDBCF14F0020EDBCFB8
:1020200015F0E7501416156A1450DF6E28D21B0EF7
:10203000E66EE66A29EC27F0E552E552166E176A5D
:1020400016C017F0166A16C0E6FF17C0E6FF1C0E92
:10205000E66EE66A29EC27F0E552E552E552E7CF55
:1020600017F0E552E7CF16F000011624146E000EAB
:102070001720156E010E14C0DBFF020E15C0DBFF2A
:10208000050EDBCFE6FF010EDBCFE6FF020EDBCF56
:10209000E6FFC3EC0BF0E552E552E552DE52F3CF1A
:1020A000DEFFF4CFDDFFDD52010EDBCF14F0020EB8
:1020B000DBCF15F0000E1416FF0E151615C014F028
:1020C000156A1450DF6EDBD11B0EE66EE66A29EC52
:1020D00027F0E552E552166E176A16C017F0166A19
:1020E00016C0E6FF17C0E6FF1C0EE66EE66A29EC96
:1020F00027F0E552E552E552E7CF17F0E552E7CF7A
:1021000016F000011624146E000E1720156E010E35
:1021100014C0DBFF020E15C0DBFF050EDBCFE6FFB0
:10212000010EDBCFE6FF020EDBCFE6FFC3EC0BF0C8
:10213000E552E552E552DE52F3CFDEFFF4CFDDFF8C
:10214000DD52FF0EE76E010EDBCF14F0020EDBCF87
:1021500015F0E7501416156A1450DF6E90D1010E79
:1021600093C0DBFF020E94C0DBFF050EDBCFE6FF62
:10217000010EDBCFE6FF020EDBCFE6FFC3EC0BF078
:10218000E552E552E552DE52F3CFDEFFF4CFDDFF3C
:10219000DD52010EDBCF14F0020EDBCF15F0000E86
:1021A0001416FF0E151615C014F0156A1450DF6EC4
:1021B00066D1010E93C0DBFF020E94C0DBFF050E5B
:1021C000DBCFE6FF010EDBCFE6FF020EDBCFE6FF43
:1021D000C3EC0BF0E552E552E552DE52F3CFDEFFE1
:1021E000F4CFDDFFDD52FF0EE76E010EDBCF14F002
:1021F000020EDBCF15F0E7501416156A1450DF6E8F
:102200003ED1010E95C0DBFF020E96C0DBFF050E2E
:10221000DBCFE6FF010EDBCFE6FF020EDBCFE6FFF2
:10222000C3EC0BF0E552E552E552DE52F3CFDEFF90
:10223000F4CFDDFFDD52010EDBCF14F0020EDBCF59
:1022400015F0000E1416FF0E151615C014F0156AC1
:102250001450DF6E14D1010E95C0DBFF020E96C044
:10226000DBFF050EDBCFE6FF010EDBCFE6FF020E44
:10227000DBCFE6FFC3EC0BF0E552E552E552DE5250
:10228000F3CFDEFFF4CFDDFFDD52FF0EE76E010E70
:10229000DBCF14F0020EDBCF15F0E7501416156AF1
:1022A0001450DF6EECD0010E97C0DBFF020E98C019
:1022B000DBFF050EDBCFE6FF010EDBCFE6FF020EF4
:1022C000DBCFE6FFC3EC0BF0E552E552E552DE5200
:1022D000F3CFDEFFF4CFDDFFDD52010EDBCF14F0D4
:1022E000020EDBCF15F0000E1416FF0E151615C0EA
:1022F00014F0156A1450DF6EC2D0010E97C0DBFFD8
:10230000020E98C0DBFF050EDBCFE6FF010EDBCF30
:10231000E6FF020EDBCFE6FFC3EC0BF0E552E55221
:10232000E552DE52F3CFDEFFF4CFDDFFDD52FF0ECC
:10233000E76E010EDBCF14F0020EDBCF15F0E75095
:102340001416156A1450DF6E9AD01D0EE66EE66AFA
:1023500029EC27F0E552E552DF6E91D01E0EE66EB5
:10236000E66A29EC27F0E552E552DF6E88D01F0EB1
:10237000E66EE66A29EC27F0E552E552DF6E7FD083
:10238000200EE66EE66A29EC27F0E552E552DF6E94
:1023900076D099C0DFFF73D09AC0DFFF70D0D950DC
:1023A000040FE66E000EDA20E66ED950030FE66EDB
:1023B000000EDA20E66E1FEC24F0E552E552E552FD
:1023C000E552030EDB50DF6E5AD0210EE66EE66A50
:1023D00029EC27F0E552E552DF6E51D0220EE66E71
:1023E000E66A29EC27F0E552E552DF6E48D0230E6D
:1023F000E66EE66A29EC27F0E552E552DF6E3FD043
:10240000240EE66EE66A29EC27F0E552E552DF6E0F
:1024100036D0250EE66EE66A29EC27F0E552E55245
:10242000DF6E2DD0260EE66EE66A29EC27F0E55227
:10243000E552DF6E24D0270EE66EE66A29EC27F01F
:10244000E552E552DF6E1BD0280EE66EE66A29ECF7
:1024500027F0E552E552DF6E12D0290EE66EE66AED
:1024600029EC27F0E552E552DF6E09D02A0EE66E20
:10247000E66A29EC27F0E552E552DF6E00D0DF5026
:10248000146E060EE15C03E200D0E16AE552E16EF3
:102490001450E552E7CFD9FF1200D9CFE6FFE1CFC4
:1024A000D9FF050EE126240EE66EE66A29EC27F038
:1024B000E552E552E76E040EE7CFDBFFFD0EDB1CB5
:1024C000DF6EFE0EDB502A0A01E1E1D2030A01E1D0
:1024D000CAD2010A01E1B3D20F0A01E19CD2010A7A
:1024E00001E185D2030A01E16ED2010A01E157D26E
:1024F000070A01E140D2010A01E129D2030A01E100
:1025000012D2010A01E1E3D13F0A01E1DCD1010A63
:1025100001E1D5D1030A01E1BED1010A01E1A7D150
:10252000070A01E190D1010A01E179D1030A01E131
:1025300071D1010A01E169D10F0A01E161D1010AFA
:1025400001E159D1030A01E151D1010A01E149D167
:10255000070A01E131D1010A01E118D1030A01E1C1
:1025600001D1010A01E1EAD01F0A01E1D2D0010A3A
:1025700001E1B9D0030A01E1A2D0010A01E18BD047
:10258000070A74E0010A5CE0030A46E0010A30E051
:10259000090A1AE0010A04E0FD0EDB1CDF6E8BD293
:1025A000FD0EDBCFE6FF2B0EE66EE66A03EC27F0AE
:1025B000E552E552E5522B0EE66EE66A29EC27F06D
:1025C000E552E552DF6E77D2FD0EDBCFE6FF2C0E33
:1025D000E66EE66A03EC27F0E552E552E5522C0E72
:1025E000E66EE66A29EC27F0E552E552DF6E63D22B
:1025F000E668120EE66EE66A03EC27F0E552E55255
:10260000E552E668110EE66EE66A03EC27F0E55245
:10261000E552E552DF684FD2E668120EE66EE66AD2
:1026200003EC27F0E552E552E552E668110EE66E3E
:10263000E66A03EC27F0E552E552E552DF683BD24B
:102640007F0EE66E140EE66EE66A03EC27F0E552A6
:10265000E552E552E668130EE66EE66A03EC27F0F3
:10266000E552E552E5527F0EDF6E25D27F0EE66E13
:10267000140EE66EE66A03EC27F0E552E552E552E9
:10268000E668130EE66EE66A03EC27F0E552E552C3
:10269000E552DF6810D2E668160EE66EE66A03ECD5
:1026A00027F0E552E552E552E668150EE66EE66A59
:1026B00003EC27F0E552E552E552DF68FCD1E6680D
:1026C000160EE66EE66A03EC27F0E552E552E55297
:1026D000E668150EE66EE66A03EC27F0E552E55271
:1026E000E552DF68E8D17F0EE66E180EE66EE66A08
:1026F00003EC27F0E552E552E552E668170EE66E68
:10270000E66A03EC27F0E552E552E5527F0EDF6EF4
:10271000D2D17F0EE66E180EE66EE66A03EC27F065
:10272000E552E552E552E668170EE66EE66A03ECFE
:1027300027F0E552E552E552DF68BDD1E6681A0E92
:10274000E66EE66A03EC27F0E552E552E552E668EC
:10275000190EE66EE66A03EC27F0E552E552E55203
:10276000DF68A9D1E6681A0EE66EE66A03EC27F088
:10277000E552E552E552E668190EE66EE66A03ECAC
:1027800027F0E552E552E552DF6895D17F0EE66EFF
:102790001C0EE66EE66A03EC27F0E552E552E552C0
:1027A000E6681B0EE66EE66A03EC27F0E552E5529A
:1027B000E5527F0EDF6E7FD17F0EE66E1C0EE66E59
:1027C000E66A03EC27F0E552E552E552E6681B0E97
:1027D000E66EE66A03EC27F0E552E552E552DF6863
:1027E0006AD10001936B946BDF6A65D10001936B32
:1027F000946BDF6A60D10001956B966BDF6A5BD1E9
:102800000001956B966BDF6A56D10001976B986B50
:10281000DF6A51D10001976B986BDF6A4CD1FD0ED6
:10282000DBCFE6FF1D0EE66EE66A03EC27F0E5520D
:10283000E552E5521D0EE66EE66A29EC27F0E552F8
:10284000E552DF6E38D1FD0EDBCFE6FF1E0EE66EE1
:10285000E66A03EC27F0E552E552E5521E0EE66EFD
:10286000E66A29EC27F0E552E552DF6E24D1FD0E31
:10287000DBCFE6FF1F0EE66EE66A03EC27F0E552BB
:10288000E552E5521F0EE66EE66A29EC27F0E552A6
:10289000E552DF6E10D1FD0EDBCFE6FF200EE66EB7
:1028A000E66A03EC27F0E552E552E552200EE66EAB
:1028B000E66A29EC27F0E552E552DF6EFCD0000114
:1028C000996BDF6AF8D000019A6BDF6AF4D0FD0ED5
:1028D000DB50040B146EFD0EDBCFE7FF1450E71640
:1028E000FD0EE7CFDBFFD950FD0FE66EFF0EDA20BD
:1028F000E66E4DEC24F0E552E552D950030FE66E3A
:10290000000EDA20E66ED950FD0FE66EFF0EDA20DB
:10291000E66E1FEC24F0E552E552E552E552FD0E5D
:10292000DB50DF6EC8D0FD0EDBCFE6FF210EE66E7A
:10293000E66A03EC27F0E552E552E552210EE66E19
:10294000E66A29EC27F0E552E552DF6EB4D0FD0EC1
:10295000DBCFE6FF220EE66EE66A03EC27F0E552D7
:10296000E552E552220EE66EE66A29EC27F0E552C2
:10297000E552DF6EA0D0FD0EDBCFE6FF230EE66E44
:10298000E66A03EC27F0E552E552E552230EE66EC7
:10299000E66A29EC27F0E552E552DF6E8CD0FD0E99
:1029A000DBCFE6FF240EE66EE66A03EC27F0E55285
:1029B000E552E552240EE66EE66A29EC27F0E55270
:1029C000E552DF6E78D0FD0EDBCFE6FF250EE66E1A
:1029D000E66A03EC27F0E552E552E552250EE66E75
:1029E000E66A29EC27F0E552E552DF6E64D0FD0E71
:1029F000DBCFE6FF260EE66EE66A03EC27F0E55233
:102A0000E552E552260EE66EE66A29EC27F0E5521D
:102A1000E552DF6E50D0FD0EDBCFE6FF270EE66EEF
:102A2000E66A03EC27F0E552E552E552270EE66E22
:102A3000E66A29EC27F0E552E552DF6E3CD0FD0E48
:102A4000DBCFE6FF280EE66EE66A03EC27F0E552E0
:102A5000E552E552280EE66EE66A29EC27F0E552CB
:102A6000E552DF6E28D0FD0EDBCFE6FF290EE66EC5
:102A7000E66A03EC27F0E552E552E552290EE66ED0
:102A8000E66A29EC27F0E552E552DF6E14D0FD0E20
:102A9000DBCFE6FF2A0EE66EE66A03EC27F0E5528E
:102AA000E552E5522A0EE66EE66A29EC27F0E55279
:102AB000E552DF6E00D0DF50146E050EE15C03E2DC
:102AC00000D0E16AE552E16E1450E552E7CFD9FF3C
:102AD0001200000E00D01200010E00D01200040EF1
:102AE00000D01200D9CFE6FFE1CFD9FFFE0EDB50B8
:102AF000110FE66EE66A29EC27F0E552E55200D0A8
:102B0000E552E7CFD9FF1200D9CFE6FFE1CFD9FFD9
:102B1000FE0EDB50F76A020FF66E500EF722080029
:102B2000F55000D0E552E7CFD9FF1200D9CFE6FF2C
:102B3000E1CFD9FFFE0EDB50040FE66EE66A29EC0A
:102B400027F0E552E55200D0E552E7CFD9FF120059
:102B5000D9CFE6FFE1CFD9FFFD0EDBCFE6FFFE0EBA
:102B6000DB50040FE66EE66A03EC27F0E552E5520F
:102B7000E552E552E7CFD9FF1200D9CFE6FFE1CF0A
:102B8000D9FFFE0EDB50090FE66EE66A29EC27F04E
:102B9000E552E55200D0E552E7CFD9FF1200D9CF78
:102BA000E6FFE1CFD9FFFD0EDBCFE6FFFE0EDB50E7
:102BB000090FE66EE66A03EC27F0E552E552E552AE
:102BC000E552E7CFD9FF1200010E00D01200080E27
:102BD00000D01200D9CFE6FFE1CFD9FFE652DF6A7D
:102BE000080EDF5C0FE2DF50E76EFD0EDBCFE9FF82
:102BF000FE0EDBCFEAFFE750E926000EEA22EF6A7D
:102C0000DF2AEED7E552E552E7CFD9FF12000001E7
:102C1000030E756F830E746F766B776B0A0E786F89
:102C2000796B7A6B7B6B58EF1EF0010E00D01200AF
:102C30002B0EE66EE66A29EC27F0E552E55200D04D
:102C400012002C0EE66EE66A29EC27F0E552E552FA
:102C500000D01200E668000EE66EE66A03EC27F08C
:102C6000E552E552E552FF001200010EE66EE66AFB
:102C700029EC27F0E552E55200D01200D9CFE6FF4B
:102C8000E1CFD9FFFE0EDBCFE6FF010EE66EE66A6E
:102C900003EC27F0E552E552E552E552E7CFD9FFC4
:102CA0001200020EE66EE66A29EC27F0E552E552C4
:102CB00000D01200D9CFE6FFE1CFD9FFFE0EDBCF67
:102CC000E6FF020EE66EE66A03EC27F0E552E552F7
:102CD000E552E552E7CFD9FF1200D9CFE6FFE1CFA9
:102CE000D9FFFE0EDBCFE6FF030EE66EE66A03ECCD
:102CF00027F0E552E552E552E552E7CFD9FF120041
:102D0000030EE66EE66A29EC27F0E552E55200D0A4
:102D10001200D9CFE6FFE1CFD9FF040EE126FA0E6B
:102D2000DBCF14F0156A166A176A1A0E1F0B07E03C
:102D3000D8901436153616361736E806F9E1FD0E2A
:102D4000DBCF18F0FE0EDBCF19F01A6A1B6A100EEB
:102D50001F0B07E0D890183619361A361B36E806CE
:102D6000F9E118501412195015121A5016121B506E
:102D70001712FC0EDBCF1CF01D6A1E6A1F6A080EBC
:102D80001F0B07E0D8901C361D361E361F36E8068E
:102D9000F9E11C5014121D5015121E5016121F502E
:102DA0001712FB0EDBCF20F0216A226A236A205023
:102DB000141221501512225016122350171214C04B
:102DC000DFFF010E15C0DBFF020E16C0DBFF030E96
:102DD00017C0DBFFF70EDBCFE6FFF80EDBCFE6FF19
:102DE000F90EDBCFE6FFD9CFE9FFDACFEAFFEECF6E
:102DF000E6FFEECFE6FFEECFE6FFEFCFE6FFC1D86E
:102E0000146E070EE15E1450000904E10001612B0D
:102E1000000E02D0010E00D0146E040EE15C02E23E
:102E2000E16AE552E16E1450E552E7CFD9FF120096
:102E3000D9CFE6FFE1CFD9FF040EE126F30EDBCFB9
:102E4000E6FFF40EDBCFE6FFF50EDBCFE6FFF60E76
:102E5000DBCFE6FFD9CFE6FFDACFE6FFC1D8146EAD
:102E6000060EE15E1450000902E1000E7ED0D9CFBB
:102E7000E9FFDACFEAFFEECF14F0EECF15F0EECF98
:102E800016F0EFCF17F01450E66EF90EDBCFE9FF26
:102E9000FA0EDBCFEAFFE552E750EF6ED9CFE9FF3C
:102EA000DACFEAFFEECF14F0EECF15F0EECF16F04A
:102EB000EFCF17F0080ED8901732163215321432B1
:102EC000E806F9E11450E66EFB0EDBCFE9FFFC0EDD
:102ED000DBCFEAFFE552E750EF6ED9CFE9FFDACF5B
:102EE000EAFFEECF18F0EECF19F0EECF1AF0EFCFE9
:102EF0001BF01AC014F01BC015F00001166A176A07
:102F0000010E1516166A176AFD0EDBCFE9FFFE0EDD
:102F1000DBCFEAFF14C0EEFF15C0EDFF1A0E186EEE
:102F2000D9CFE9FFDACFEAFF18501F0BEECF14F02C
:102F3000EECF15F0EECF16F0EECF17F007E0D890F9
:102F40001732163215321432E806F9E1070E14165C
:102F5000156A166A176AF70EDBCFE9FFF80EDBCFAA
:102F6000EAFF14C0EFFF010E00D0146E040EE15C06
:102F700002E2E16AE552E16E1450E552E7CFD9FF73
:102F80001200D9CFE6FFE1CFD9FF080EE66EFA0EA8
:102F9000DBCFE6FFF80EDBCFE6FFF90EDBCFE6FF77
:102FA000D950FB0FE96EFF0EDA20EA6EEECFE6FF96
:102FB000EECFE6FFEECFE6FFEFCFE6FFA2EC21F08B
:102FC000146E080EE15E1450000902E1000E04D0F8
:102FD0000001746B010E00D0E552E7CFD9FF12005B
:102FE000D9CFE6FFE1CFD9FFE652000166AF02D0AC
:102FF000000E2AD0D9CFE6FFDACFE6FFFB0EDBCFFB
:10300000E6FFFC0EDBCFE6FFF90EDBCFE6FFFA0EA4
:10301000DBCFE6FFFD0EDBCFE6FFFE0EDBCFE6FFEC
:103020003DEC22F0146E080EE15E145000090AE037
:10303000DFAC02D0000E08D0DFBA02D0000E04D000
:10304000010E02D0000E00D0E552E552E7CFD9FFC5
:0230500012006C
:0E3052000001020E826F35EC16F00001606F77
:10306000605101E16069666B676B686B696B6A6BE5
:10307000746B756B766B776B786B616B626B816B66
:10308000636B646B656B876B886B836B846B8A6B1C
:103090008B6B8C6B120051EC16F0C00B400802E1F8
:1030A000010E0FD0E6683EEC16F0E552E66A5AECE7
:1030B00016F0E552900EE66E6DEC16F0E552000E3D
:1030C00000D012000001826B120000016451020A5C
:1030D00061E0030A26E0010A02E0646B5CD0FF0EA7
:1030E000815D11E0810E746F756B766B776B020EEC
:1030F000786F81C079F058EC1EF00001010E646F0A
:10310000836B846B0DD0040E636F810E746F7969CD
:10311000070E756F766B776B030E786F58EC1EF0A9
:103120003AD066AF11D0685169110DE1030E6A5DA6
:103130000AE1815105E1020E636F836B846B03D05A
:10314000812B646B656B25D0E80ED8808355030E08
:1031500084551FE2652B655103081AE2815105E190
:10316000812B646B836B846B12D081C060F0030E83
:10317000636F646B60C0E6FF3EEC16F0E552400EF4
:10318000E66E5AEC16F0E5520001656B30D801D0BE
:10319000646B01D000D00001666B1200000166AFC5
:1031A00019D06851691115E1060E6A5D12E1FF0E32
:1031B0006C5D0FE16EC060F060C0E6FF3EEC16F0A3
:1031C000E552400EE66E5AEC16F0E5520001030E91
:1031D000636F0CD0E80ED8808355030E845506E249
:1031E0006069E6683EEC16F0E55233DF120000013C
:1031F000810E746F756B766B776B020E786F60C0A3
:1032000079F058EC1EF00001010E826F1200D9CF48
:10321000E6FFE1CFD9FF0001830E746F070E756FD3
:10322000140E766F776B090E786F796BFE0EDBCF1D
:103230007AF0FD0EDBCF7BF058EC1EF0E552E7CFC5
:10324000D9FF1200050E146E0F0E00016615145CF6
:1032500013E151EC16F000016C5D0EE06CC0E6FF6E
:103260005AEC16F0E55200016069E6683EEC16F093
:10327000E5520001010E636F1200020E146E0F0E74
:1032800000016615145C0FE16C51605D0CE16DC0CE
:1032900060F060C0E6FF3EEC16F0E552400EE66ED0
:1032A0005AEC16F0E5521200010E146E0F0E0001DA
:1032B0006615145C09E16C51605D06E16069E668C1
:1032C0003EEC16F0E552C5DE1200010E146E0F0E34
:1032D00000016615145C0CE16C51605D09E1800E23
:1032E000746F756B766B776B030E786F58EC1EF00E
:1032F000120000018A2B8A513B080EE28A6B8B2B4D
:10330000030E635D09E121EC16F0E66E18EC16F091
:10331000E66E7DDFE552E55200018B513B0802E28B
:103320008B6B8C2B8C51170801E28C6B030E635D49
:1033300009E1892B0F0E8915146E020E145C01E34E
:10334000896B00D01200D9CFE6FFE1CFD9FF800E04
:10335000F36EFE0EDBCFF4FFF350F45C07E3FE0EDA
:10336000DBCFE6FF0ED8E55208D007D0FE0EDBCF4C
:10337000E6FF28EC0CF0E55200D0E552E7CFD9FF8C
:103380001200D9CFE6FFE1CFD9FFE652DF6A800E07
:1033900000016D5D04E162C0DFFF626B7ED0810ED3
:1033A0006D5D03E1010EDF6E78D0820E6D5D03E18D
:1033B000050EDF6E72D0830E6D5D02E1DF6A6DD0A7
:1033C000940E6D5D04E169EC15F0DF6E66D0950E2C
:1033D0006D5D04E16CEC15F0DF6E5FD0960E6D5DF7
:1033E00004E16FEC15F0DF6E58D0890E6D5D08E2D8
:1033F000840E6D5DE66E96EC15F0E552DF6E4DD0F5
:103400006D5188080BE2910E6D5D08E2890E6D5DCD
:10341000E66EBDEC15F0E552DF6E3FD0910E6D5DAE
:1034200003E160C0DFFF39D0930E6D5D03E187518A
:10343000DF6E33D0920E6D5D06E188C014F0156A20
:103440001450DF6E2AD0970E6D5D04E1E4EC15F0A8
:10345000DF6E23D0980E6D5D04E1E7EC15F0DF6EB2
:103460001CD0990E6D5D04E115EC16F0DF6E15D0E1
:103470006D51CF080BE2E00E6D5D08E2D00E6D5D80
:10348000E66E72EC15F0E552DF6E07D0E00E6D5D72
:10349000E66E84EC15F0E552DF6EDF5000D0E552A9
:1034A000E552E7CFD9FF1200D9CFE6FFE1CFD9FF30
:1034B000800EF36EFE0EDBCFF4FFF350F45C0BE3F3
:1034C000FD0EDBCFE6FFFE0EDBCFE6FF13D8E552A5
:1034D000E5520CD00BD0FD0EDBCFE6FFFE0EDBCFAE
:1034E000E6FF4DEC12F0E552E55200D0E552E7CF91
:1034F000D9FF1200D9CFE6FFE1CFD9FFE652FD0E8A
:10350000DB1CDF6E00016D51830815E2890E6D5DD5
:1035100012E26EC0E6FF840E6D5DE66EA8EC15F05B
:10352000E552E552840E00016D5DE66E96EC15F0F5
:10353000E552DF6E2CD0920E6D5D17E1000E8715FF
:10354000146EFF0E8815156E6EC016F016C017F0BB
:10355000166A14501610876F15501710886F88C0A0
:1035600014F0156A1450DF6E12D0930E6D5D0CE1ED
:10357000FF0E8715146E156A6E511410876F15C0F3
:1035800088F08751DF6E03D0FD0EDB1CDF6EDF504D
:1035900000D0E552E552E7CFD9FF1200D9CFE6FFC0
:1035A000E1CFD9FF110EE12600016851691101E058
:1035B00075D36A51260A01E121D3030A01E1D5D26C
:1035C000060A01E1CFD2020A01E1B7D23E0A01E1C7
:1035D00065D2010A01E144D2030A01E123D2040ABF
:1035E00001E1E0D1010A01E160D10F0A01E1C2D09D
:1035F0001B0A01E17FD0070A44E0020A11E0010A38
:103600000DE00E0A09E0040A05E0030A01E046D3D2
:1036100019DE44D35ADE42D330DE40D345DE3ED3FA
:10362000020E146E0F0E6615145C2AE16C51605D7B
:1036300027E1800E6D5D13E2030E756F820E746FCD
:10364000766B776B0A0E786F6DC079F06DC0E6FF10
:1036500028EC0CF0E55200017A6F2ADB11D0030E42
:10366000756F820E746F766B776B0A0E786F6DC014
:1036700079F06DC0E6FF85DEE55200017A6F18DB58
:103680000DD3030E146E0F0E6615145C32E16C51EF
:10369000605D2FE1800E6D5D16E2030E756F820E88
:1036A000746F766B776B0A0E786F6DC079F06EC0B1
:1036B000E6FF6DC0E6FF4DEC12F0E552E552000169
:1036C0007A6FF6DA16D0030E756F820E746F766B12
:1036D000776B0A0E786F60C079F06DC079F06EC0BC
:1036E000E6FF6DC0E6FF06DFE552E55200017A6FA6
:1036F000DFDAD4D26C51605D3CE16D053AE1E66AF7
:1037000072EC15F0E55200016E5D33E1030EE66EDA
:1037100072EC15F0E55200016F5D2BE1050EE66ECF
:1037200072EC15F0E5520001705D23E1070EE66EC4
:1037300072EC15F0E5520001715D1BE188C014F0D8
:10374000156A7251166E176A1650141802E1175056
:1037500015180FE1FF0E8715186E196A73511A6E4E
:103760001B6A1A50181802E11B50191802E12AECC2
:1037700016F094D26C390F0B030A6DE0010A49E090
:10378000030A25E0010A02E0896B87D0E66A72EC41
:1037900015F0E55200016D5D19E1010EE66E72EC67
:1037A00015F0E55200016E5D11E1020EE66E72EC5D
:1037B00015F0E55200016F5D09E1030EE66E72EC53
:1037C00015F0E5520001705D01E1898966D0040EB3
:1037D000E66E72EC15F0E55200016D5D19E1050E23
:1037E000E66E72EC15F0E55200016E5D11E1060E19
:1037F000E66E72EC15F0E55200016F5D09E1070E0F
:10380000E66E72EC15F0E5520001705D01E1898B06
:1038100044D0080EE66E72EC15F0E55200016D5DC5
:1038200019E1090EE66E72EC15F0E55200016E5DCD
:1038300011E10A0EE66E72EC15F0E55200016F5DC3
:1038400009E10B0EE66E72EC15F0E5520001705DB9
:1038500001E1898D22D00C0EE66E72EC15F0E55276
:1038600000016D5D19E10D0EE66E72EC15F0E5528A
:1038700000016E5D11E10E0EE66E72EC15F0E55280
:1038800000016F5D09E10F0EE66E72EC15F0E55276
:103890000001705D01E1898F00D0F00E146E891572
:1038A000145C02E129EC18F0F9D16C51605D01E083
:1038B00078D0010EDB6AF36E020EF3CFDBFF6DC032
:1038C000DFFF00016D516E25010FDF5C55E2070E31
:1038D000146E14C00EF0010EDBCF09F010EC28F0CE
:1038E0000550800F010F0001746FDFCFE6FF28EC59
:1038F0000CF0E552E66E070E146E14C00EF0010EC9
:10390000DBCF09F010EC28F00528EA6A790FE96EA0
:10391000000EEA22E552E750EF6E020EDB6A010E5E
:10392000DB5026E0070E146E14C00EF0010EDBCF44
:1039300009F010EC28F005501BE10001030E756F33
:10394000766B776B1A0E786F070E146E14C00EF03C
:10395000010EDBCF09F010EC28F009C079F000016E
:10396000870E746FA5D9010EF36E020EF3CFDBFF45
:10397000010EDB2ADF2AA5D7020EDB5012E0030E70
:10398000756F766B776B1A0E786F070E146E14C016
:103990000EF0010EDBCF09F010EC28F009C079F031
:1039A00087D97CD16C51605D3CE1040E6DC0DBFFBA
:1039B000030EDB6A0F0E00016615FE0FF36E030E99
:1039C000DBCFF4FFF350F45C1FE2030EDB50020F79
:1039D000EA6A6C0FE96E000EEA22EF50E66E030E03
:1039E000DB506D25E66E86DDE552E552E66E030E90
:1039F000DB28EA6A790FE96E000EEA22E552E75009
:103A0000EF6E030EDB2AD6D7030E756F766B776BDE
:103A10001A0E786F796B0F0E6615800FFE0F746F9C
:103A200047D93CD16C51605D1AE1030E756F820E6F
:103A3000746F766B776B0A0E786F6DC079F06DC01E
:103A4000E6FF28EC0CF0E552010FE66E6DC0E6FFD4
:103A50004DEC12F0E552E55200017A6F29D91ED1E2
:103A60006C51605D1AE1030E756F820E746F766B98
:103A7000776B0A0E786F6DC079F06DC0E6FF28ECA9
:103A80000CF0E552FF0FE66E6DC0E6FF4DEC12F054
:103A9000E552E55200017A6F0BD900D16C51605D9F
:103AA00003E0FF0E6C5D48E1060EDB6A070EF36E65
:103AB000060EDBCFF4FFF350F45C3EE20001030E90
:103AC000756F880E746F766B776B200E786F060EAD
:103AD000DBCF79F0010EF36E050EF3CFDBFF080E9E
:103AE000F36E050EDBCFF4FFF350F45C1AE2050E23
:103AF000DB04146E060EDB50070DF350D00F1424B8
:103B0000E66E3FDCE552E66E050EDB50EA6A790FA1
:103B1000E96E000EEA22E552E750EF6E050EDB2A51
:103B2000DED7060E146EDB50145C02E10001806BE0
:103B3000BFD8060EDB2ABAD7B1D06C51605D11E157
:103B4000030E756F870E746F766B776B220E786F2E
:103B5000790EE66E000EE66EEAEC15F0E552E552DF
:103B6000A7D89CD007EC16F099D06C51605D45E168
:103B70000A0E6DC0DBFF0B0E6EC0DBFF080E87C0A8
:103B8000DBFF090E88C0DBFF6F51060802E2060E5C
:103B90006F6F030E756F830E6F25746F766B776B87
:103BA000270E786F070E6EC0DBFF6E516F25F36E28
:103BB000070EDBCFF4FFF350F45C18E2070EDBCF07
:103BC000E6FFA3EC19F0E552E66E070EDB500001AC
:103BD000D8806E55030FEA6A790FE96E000EEA226B
:103BE000E552E750EF6E070EDB2ADFD7080EDBCF7A
:103BF00087F0090EDBCF88F05BD850D06C51605D48
:103C00004CE10F0E6DC0DBFF100E6EC0DBFF0D0E22
:103C100087C0DBFF0E0E88C0DBFF030E756F830EBF
:103C20006F25746F766B776B270E786F0C0E6EC0F6
:103C3000DBFF6E516F25F36E0C0EDBCFF4FFF350FC
:103C4000F45C24E20C0EDB50D8806E55040FEA6A57
:103C50006C0FE96E000EEA22EF50E66E0C0EDBCF21
:103C6000E6FF22DCE552E552E66E0C0EDB50000169
:103C7000D8806E55030FEA6A790FE96E000EEA22CA
:103C8000E552E750EF6E0C0EDB2AD3D70D0EDBCFDB
:103C900087F00E0EDBCF88F00BD800D0110EE15C60
:103CA00002E2E16AE552E16EE552E7CFD9FF120088
:103CB000D9CFE6FFE1CFD9FFE652790EE66E000ECE
:103CC000E66E0F0E00017415E66E75C0E6FF60C06B
:103CD000E6FF78C0E6FF76C0E6FF77C0E6FF89EC36
:103CE00016F0146E080EE15E1450DF6EDF5002E134
:103CF0000001612BDF5000D0E552E552E7CFD9FF3C
:103D00001200D9CFE6FFE1CFD9FFE652000166AF3E
:103D100002D0010E25D06C0EE66E000EE66E660E29
:103D2000E66E000EE66E670EE66E000EE66E6B0E39
:103D3000E66E000EE66E6A0EE66E000EE66E680E29
:103D4000E66E000EE66E18EC17F0146E0C0EE15ED7
:103D50001450DF6EDF5002E00001668FDF5000D0AC
:0A3D6000E552E552E7CFD9FF12004B
:063D6A00D9CFE6FFE1CF16
:103D7000D9FF800EE66E7ED8E552070E706EBF0E3C
:103D8000716E020E726EFE0EDB5003E0440E606E2A
:103D900002D0640E606E60CF50FF200E736E010E75
:103DA000E66EE66AE66AE66AE66AE66A41DA146E92
:103DB000060EE15E1450010EE66EE66AE66AE66AF9
:103DC000E66AE66E35DA146E060EE15E1450010EF8
:103DD000E66EE66AE66AE66AE66AE66A5FDA146E44
:103DE000060EE15E1450010EE66EE66AE66AE66AC9
:103DF000E66AE66E53DA146E060EE15E1450010EAA
:103E0000E66EE66AE66AE66AE66A020EE66E46DA9A
:103E1000146E060EE15E1450010EE66EE66AE66A66
:103E2000E66AE66A030EE66E39DA146E060EE15EA5
:103E30001450010EE66EE66AE66AE66AE66A040E69
:103E4000E66E2CDA146E060EE15E1450010EE66E7C
:103E5000E66AE66AE66AE66A050EE66E1FDA146E40
:103E6000060EE15E1450E66A05D8E552E552E7CF4A
:103E7000D9FF1200D9CFE6FFE1CFD9FFFE0EDB500C
:103E80006F6EE00E6E14146EFE0EDB50145C01E0DB
:103E9000F8D7E552E7CFD9FF1200D9CFE6FFE1CF3F
:103EA000D9FF020EE126D950F90F146EFF0EDA2069
:103EB000156E14C0DEFF15C0DDFFF80EDB5001E10A
:103EC00089D0DECFE9FFDDCFEAFF020EE926000E42
:103ED000EA22EF50E00BE838E840E66EFD0EDBCF5B
:103EE000E9FFFE0EDBCFEAFFE552E750EF6EDECFD3
:103EF000E9FFDDCFEAFF030EE926000EEA22EF50CC
:103F0000080DF3CF14F0FD0EDBCFE9FFFE0EDBCF83
:103F1000EAFF1450EF12FD0EDB2AFE0E01E3DB2A4E
:103F2000DECFE9FFDDCFEAFF020EE926000EEA222E
:103F3000EF50080DF350E00BE66EFD0EDBCFE9FF0E
:103F4000FE0EDBCFEAFFE552E750EF6EFD0EDBCF52
:103F5000E9FFFE0EDBCFEAFFEF86DECFE9FFDDCF24
:103F6000EAFF020EE926000EEA22EF50030B146E60
:103F7000FD0EDBCFE9FFFE0EDBCFEAFF1450EF12A0
:103F8000FD0EDB2AFE0E01E3DB2ADECFE9FFDDCFEB
:103F9000EAFFEE52EF50E66EFD0EDBCFE9FFFE0EBC
:103FA000DBCFEAFFE552E750EF6EFD0EDB2AFE0E97
:103FB00001E3DB2ADECFE9FFDDCFEAFFEF50E66E5B
:103FC000FD0EDBCFE9FFFE0EDBCFEAFFE552E75047
:103FD000EF6E3AD0DECFE9FFDDCFEAFFEF50E840E9
:103FE000E840E8401F0BE66EFD0EDBCFE9FFFE0E5A
:103FF000DBCFEAFFE552E750EF6EDECFE9FFDDCF22
:10400000EAFFEE52EF50200DF3CF14F0FD0EDBCFA0
:10401000E9FFFE0EDBCFEAFF1450EF12FD0EDB2AA4
:10402000FE0E01E3DB2ADECFE9FFDDCFEAFFEF5032
:10403000200DF350E66EFD0EDBCFE9FFFE0EDBCF69
:10404000EAFFE552E750EF6E020EE15C02E2E16A40
:10405000E552E16EE552E7CFD9FF1200D9CFE6FF76
:10406000E1CFD9FF020EE126FB0EDBCFDEFFDBCF77
:10407000DDFFFA0EDB5001E185D0FD0EDBCFE9FF5D
:10408000FE0EDBCFEAFFEF50200DF350E66EDECFE1
:10409000E9FFDDCFEAFF020EE926000EEA22E55233
:1040A000E750EF6EFD0EDBCFE9FFFE0EDBCFEAFF40
:1040B000EF50E840E840E8401F0BE66EDECFE9FF36
:1040C000DDCFEAFF030EE926000EEA22E552E750B3
:1040D000EF6EFD0EDB2AFE0E01E3DB2AFD0EDBCFC9
:1040E000E9FFFE0EDBCFEAFFEF50030B146EDECFCD
:1040F000E9FFDDCFEAFF020EE926000EEA221450A6
:10410000EF12FD0EDBCFE9FFFE0EDBCFEAFFEF5033
:10411000E00BE840E840E8401F0B146EDECFE9FFFB
:10412000DDCFEAFF020EE926000EEA221450EF125C
:10413000FD0EDB2AFE0E01E3DB2AFD0EDBCFE9FFDD
:10414000FE0EDBCFEAFFEF50E66EDECFE9FFDDCFFC
:10415000EAFFEE52E552E750EF6EFD0EDB2AFE0E4F
:1041600001E3DB2AFD0EDBCFE9FFFE0EDBCFEAFF2A
:10417000EF50E66EDECFE9FFDDCFEAFFE552E75014
:10418000EF6E4CD0FD0EDBCFE9FFFE0EDBCFEAFF7A
:10419000EF50080DF350E66EDECFE9FFDDCFEAFF0A
:1041A000E552E750EF6EFD0EDBCFE9FFFE0EDBCFF1
:1041B000EAFFEF50E00BE838E840E66EDECFE9FFBB
:1041C000DDCFEAFFEE52E552E750EF6EFD0EDB2A3F
:1041D000FE0E01E3DB2AFD0EDBCFE9FFFE0EDBCF97
:1041E000EAFFEF50E00BE838E840146EDECFE9FF5D
:1041F000DDCFEAFF1450EF12DECFE9FFDDCFEAFF9B
:10420000020EE926000EEA22EF6ADECFE9FFDDCFDB
:10421000EAFF030EE926000EEA22EF6A020EE15CD5
:1042200002E2E16AE552E16EE552E7CFD9FF120002
:10423000D9CFE6FFE1CFD9FF020EE126FE0EDB501B
:1042400005E1180EDE6E0F0EDD6E04D01C0EDE6E64
:104250000F0EDD6EF90EDBCFE6FFD950FA0FE96ED7
:10426000FF0EDA20EA6EEECFE6FFEECFE6FFEECFEE
:10427000E6FFEFCFE6FFDECFE6FFDDCFE6FF0DDEA8
:10428000146E070EE15E1450020EE15C02E2E16A78
:10429000E552E16EE552E7CFD9FF1200D9CFE6FF34
:1042A000E1CFD9FF020EE126FE0EDB50040A21E029
:1042B000070A1AE0010A13E0030A0CE0010A05E00C
:1042C000140EDE6E0F0EDD6E19D0000EDE6E0F0EB8
:1042D000DD6E14D0040EDE6E0F0EDD6E0FD0080EF4
:1042E000DE6E0F0EDD6E0AD00C0EDE6E0F0EDD6E72
:1042F00005D0100EDE6E0F0EDD6E00D0F90EDBCF96
:10430000E6FFD950FA0FE96EFF0EDA20EA6EEECF23
:10431000E6FFEECFE6FFEECFE6FFEFCFE6FFDECF24
:10432000E6FFDDCFE6FFB9DD146E070EE15E145047
:10433000020EE15C02E2E16AE552E16EE552E7CF8E
:10434000D9FF1200D9CFE6FFE1CFD9FF030EE12656
:104350000F0140B704D0F10E6F166F8611D00F0118
:1043600030B705D0F10E6F16060E6F1209D00F018F
:1043700020B704D0F10E6F166F8402D0000E71D0FA
:10438000F70EDB50030B606EF70EDBA61AD0010EA2
:10439000E66ED950FB0FE96EFF0EDA20EA6EEECF23
:1043A000E6FFEECFE6FFEECFE6FFEFCFE6FF610ED2
:1043B000E66E0F0EE66E71DD146E070EE15E1450B0
:1043C00018D0E66AD950FB0FE96EFF0EDA20EA6ECC
:1043D000EECFE6FFEECFE6FFEECFE6FFEFCFE6FF54
:1043E000610EE66E0F0EE66E58DD146E070EE15E8E
:1043F0001450F80EDB50656EF70EDBBC658CD9509F
:10440000010FE96EDACFEAFF660EEE6E0F0EED6E6B
:10441000DF6AF80EDB50DF5C1FE2DF50E76EF90E5B
:10442000DBCFE9FFFA0EDBCFEAFFE750E926000E0B
:10443000EA22EF50E66EDF50E76E010EDBCFE9FFB8
:10444000020EDBCFEAFFE750E926000EEA22E55232
:10445000E750EF6EDF2ADDD76086F10E6F16010E92
:1044600000D0146E030EE15C02E2E16AE552E16EF7
:104470001450E552E7CFD9FF1200D9CFE6FFE1CFC4
:10448000D9FF040EE126F70EDBCFE9FFF80EDBCFF4
:10449000EAFFEF6A60AE2AD0F10E6F16010EF36EDE
:1044A000030EF3CFDBFFA49074AE08D0F70EDBCF82
:1044B000E9FFF80EDBCFEAFFEF86749E60A415D00B
:1044C000070E6014146EF70EDBCFE9FFF80EDBCF9A
:1044D000EAFF1450EF12010E146EF70EDBCFE9FF66
:1044E000F80EDBCFEAFF1450EF1634D00F0150AFB7
:1044F0002FD0F10E6F160A0E6F12030EDB6AA49214
:1045000074AE08D0F70EDBCFE9FFF80EDBCFEAFF81
:10451000EF86749C070E5015146EF70EDBCFE9FF83
:10452000F80EDBCFEAFF1450EF12F70EDBCFE9FFF6
:10453000F80EDBCFEAFFEFCF14F0020E145C07E2B7
:10454000F70EDBCFE9FFF80EDBCFEAFFEF8E02D0EC
:10455000000E87D00F0E6514E66EF90EDBCFE9FF73
:10456000FA0EDBCFEAFFE552E750EF6E65AC07D0FD
:10457000F70EDBCFE9FFF80EDBCFEAFFEF8C62A688
:1045800019D0F70EDBCFE9FFF80EDBCFEAFFEF8A99
:10459000010EE66EFD0EDBCFE6FFFE0EDBCFE6FF83
:1045A000610EE66E0F0EE66E59DD146E050EE15ECD
:1045B000145010D0E66AFD0EDBCFE6FFFE0EDBCF17
:1045C000E6FF610EE66E0F0EE66E48DD146E050E18
:1045D000E15E1450D950010FE96EDACFEAFF660EA2
:1045E000EE6E0F0EED6EDF6AF90EDBCFE9FFFA0E0D
:1045F000DBCFEAFFEF50DF5C1FE2DF50E76E010E1A
:10460000DBCFE9FF020EDBCFEAFFE750E926000E21
:10461000EA22EF50E66EDF50E76EFB0EDBCFE9FFDC
:10462000FC0EDBCFEAFFE750E926000EEA22E55256
:10463000E750EF6EDF2AD8D7F10E6F16A4AE08D080
:10464000F70EDBCFE9FFF80EDBCFEAFFEF88A49E81
:10465000030EDB5002E0609E02D00F01509F010E5E
:1046600000D0146E040EE15C02E2E16AE552E16EF4
:0A4670001450E552E7CFD9FF120005
:06467A00D9CFE6FFE1CFFD
:10468000D9FFFE0EDBCFE6FFFD0EDB50E552E7184B
:10469000F76A300FF66E4B0EF7220800F55000D087
:1046A000E552E7CFD9FF1200D9CFE6FFE1CFD9FF1E
:1046B000020EE126010EDB6A828A949A800EDF6E7A
:1046C000DF50000811E2FE0EDB50DF1402E0828AA8
:1046D00001D0829A8286030EE66E2AEC28F0E5521B
:1046E0008296DF90DF42ECD7828A948A8286010E1E
:1046F000E66E2AEC28F0E5528250200B01E0010E14
:10470000E76E010EE7CFDBFF8296DB50146E020EE0
:10471000E15C03E200D0E16AE552E16E1450E5523B
:10472000E7CFD9FF1200D9CFE6FFE1CFD9FF020EC4
:10473000E126010EDB6A948A800EDF6EDF500008EE
:1047400013E28286010EE66E2AEC28F0E55282AA78
:1047500007D0010EDB50DF10E76E010EE7CFDBFF65
:104760008296DF90DF42EAD7949AFE0EDB5002E099
:10477000829A01D0828A82868296948A010EDB50C8
:10478000146E020EE15C03E200D0E16AE552E16ED4
:104790001450E552E7CFD9FF1200828A949A82968C
:1047A000010EE66E2AEC28F0E5528286010EE66ED6
:1047B0002AEC28F0E552829A010EE66E2AEC28F0E7
:1047C000E5528296010EE66E2AEC28F0E5528286CA
:1047D000010EE66E2AEC28F0E552828A010EE66EA2
:1047E0002AEC28F0E5528296948A1200D9CFE6FF8F
:1047F000E1CFD9FFE652948A828A8296DF6A090E57
:10480000DF5C04E282868296DF2AF9D7C6DFE552B2
:10481000E552E7CFD9FF1200D9CFE6FFE1CFD9FFAC
:10482000E652DF6AE3DF1E0EE66E3EDFE552DF266C
:10483000DF5000D0E552E552E7CFD9FF1200D9CFC3
:10484000E6FFE1CFD9FFE652DF6AA7DF070EE66E8B
:104850002BDFE552DF6E010EE66E65DFE552E66E98
:10486000FD0EDBCFE9FFFE0EDBCFEAFFE552E7509E
:10487000EF6EE66A58DFE552E66EFB0EDBCFE9FF2E
:10488000FC0EDBCFEAFFE552E750EF6EDF5000D0C1
:10489000E552E552E7CFD9FF1200D9CFE6FFE1CFCD
:1048A000D9FFE652DF6A79DF060EE66EFDDEE552DD
:1048B000DF26FD0EDBCFE9FFFE0EDBCFEAFFEF5078
:1048C000E66EF2DEE552DF26DF5000D0E552E5521B
:1048D000E7CFD9FF1200D9CFE6FFE1CFD9FF060E0F
:1048E000E126DE6ADD6A59DFFA0EDB50010A14E0C8
:1048F000010A01E022D0030EE66ED6DEE552146E08
:10490000156A14BE1568D9CFE9FFDACFEAFF145053
:10491000EE261550ED2211D0050EE66EC5DEE552ED
:10492000146E156A14BE1568D9CFE9FFDACFEAFF15
:104930001450EE261550ED2200D00001A56BA66B99
:10494000F40EA55D010EA65903E282AA01D0F8D7A4
:1049500082AA04D0010EDE26000EDD22010EE66ED4
:10496000E2DEE552E66EFD0EDBCFE9FFFE0EDBCFA9
:10497000EAFFE552E750EF6E010EE66ED4DEE55237
:10498000E66E010EE76EFD0EDBCFE9FFFE0EDBCF1C
:10499000EAFFE750E926000EEA22E552E750EF6E03
:1049A000E66AC1DEE552E66EFB0EDBCFE9FFFC0EE8
:1049B000DBCFEAFFE552E750EF6EDF50146E060ED4
:1049C000E15C03E200D0E16AE552E16E1450E55289
:1049D000E7CFD9FF1200D9CFE6FFE1CFD9FFFB0E19
:1049E000DBCF06F0FC0EDBCF07F0FD0EDBCF08F0CF
:1049F000FE0EDBCF09F0090E0B6E0C6A0D6A0E6A13
:104A000047EC27F002C006F003C007F004C008F02E
:104A100005C009F0800E06263E0E0722000E082271
:104A20000922050E0B6E0C6A0D6A0E6AA2EC26F0C6
:104A300000D0E552E7CFD9FF1200D9CFE6FFE1CF92
:104A4000D9FFFB0EDBCF06F0FC0EDBCF07F0FD0E2F
:104A5000DBCF08F0FE0EDBCF09F0050E0B6E0C6A03
:104A60000D6A0E6A47EC27F002C006F003C007F09B
:104A700004C008F005C009F0800E065E3E0E075A1D
:104A8000000E085A095A090E0B6E0C6A0D6A0E6A5E
:104A9000A2EC26F000D0E552E7CFD9FF1200D9CF23
:104AA000E6FFE1CFD9FFB40E146E6A0E156E166ADA
:104AB000176AD950FB0FE96EFF0EDA20EA6EEE504E
:104AC0001426EE501522EE501622EE50172214C076
:104AD00006F015C007F016C008F017C009F000D0A6
:104AE000E552E7CFD9FF1200D9CFE6FFE1CFD9FFDA
:104AF000FB0EDBCF14F0FC0EDBCF15F0FD0EDBCF91
:104B000016F0FE0EDBCF17F0B40E145E6A0E155AC7
:104B1000000E165A175A14C006F015C007F016C03A
:104B200008F017C009F000D0E552E7CFD9FF120016
:104B300000316253C4F5A697B988DBEA7D4C1F2E7D
:104B40004372211087B6E5D4FACB98A93E0F5C6D6D
:104B500086B7E4D5427320113F0E5D6CFBCA99A85D
:104B6000C5F4A796013063527C4D1E2FB889DAEB4D
:104B70003D0C5F6EF9C89BAA84B5E6D7407122133D
:104B80007E4F1C2DBA8BD8E9C7F6A594033261502D
:104B9000BB8AD9E87F4E1D2C02336051C6F7A4951D
:104BA000F8C99AAB3C0D5E6F4170231285B4E7D60D
:104BB0007A4B1829BE8FDCEDC3F2A19007366554FD
:104BC00039085B6AFDCC9FAE80B1E2D344752617ED
:104BD000FCCD9EAF38095A6B4574271681B0E3D2DD
:104BE000BF8EDDEC7B4A192806376455C2F3A091CD
:104BF0004776251483B2E1D0FECF9CAD3A0B5869BD
:104C000004356657C0F1A293BD8CDFEE79481B2AAC
:104C1000C1F0A3920534675678491A2BBC8DDEEF9C
:104C200082B3E0D1467724153B0A5968FFCE9DAC8C
:104C3000000030F85DF90DFA8AFAEBFA3AFB7DFBD9
:104C4000B7FBEAFB18FC41FC67FC8AFCAAFCC8FC29
:104C5000E4FCFEFC17FD2FFD45FD5AFD6EFD82FDB7
:104C600094FDA6FDB7FDC7FDD7FDE6FDF5FD03FEEE
:104C700011FE1FFE2BFE38FE44FE50FE5CFE67FE5A
:104C800072FE7DFE87FE91FE9BFEA5FEAFFEB8FE86
:104C9000C1FECAFED3FEDCFEE4FEECFEF4FEFCFE2A
:104CA00004FF0CFF13FF1BFF22FF29FF30FF37FF1C
:104CB0003EFF45FF4CFF52FF59FF5FFF65FF6BFF53
:104CC00071FF77FF7DFF83FF89FF8EFF94FF9AFFBF
:104CD0009FFFA4FFAAFFAFFFB4FFB9FFBEFFC4FF51
:104CE000C8FFCDFFD2FFD7FFDCFFE0FFE5FFEAFF03
:084CF000E1FFF7FFFCFF0000EB
:084CF800006A0EAE85EF26F004
:104D00000D6C0E1EE86A0E22001E09AE8DEF26F015
:104D1000086C091EE86A0922001EDBEC27F009BEB8
:104D20009DEF26F000AE000C086C091EE86A09220F
:104D3000046C051EE86A0522000C00BE94EF26F004
:104D40000188FF0C006AE86A0EAEAFEF26F00B6C2C
:104D50000C1E0D1E0E1E0C220D220E22001E09AE70
:104D6000BAEF26F0066C071E081E091E072208224D
:104D70000922001E7FEC27F009BED1EF26F000AE1D
:104D8000000C066C071E081E091EE86A072208228E
:104D90000922026C031E041E051E032204220522A2
:104DA000000C00BEC1EF26F00188FF0C09C013F013
:104DB00008C012F008500D02F4CF07F0F3CF06F050
:104DC00009500E02F4CF09F0F3CF08F00D02F350B2
:104DD0000726F4500822E86A092212500E02F35006
:104DE0000726F4500822E86A09220EAEFCEF26F0EE
:104DF0001250085E1350095A13AE000C0D50085E95
:064E00000E50095A000CDF
:0A4E0600D9CFE6FFE1CFD9FFFF0E80
:104E1000E76EFD0EDBCF14F0FE0EDBCF15F0E75092
:104E20001416156A1450A96EFC0EDB50A86EA69ECF
:104E3000A69CA684F29E550EA76EAA0EA76EA68209
:104E4000F28EA1A8FED7A198A694E552E7CFD9FF8C
:104E50001200D9CFE6FFE1CFD9FFE652FF0EE76E91
:104E6000FD0EDBCF14F0FE0EDBCF15F0E75014166D
:104E7000156A1450A96EA69EA69CA680A850DF6E47
:0E4E8000DF5000D0E552E552E7CFD9FF120017
:024E8E000650CC
:104E90000B02F3CF02F0F4CF03F00C02F350032621
:104EA000000EF420046E06500D02F3500426000E8E
:104EB000F420056E06500E02F350052607500B0233
:104EC000F3500326F4500422000E052207500C0272
:104ED000F3500426F450052207500D02F350052626
:104EE00008500B02F3500426F450052208500C021F
:0E4EF000F350052609500B02F3500526120060
:024EFE00056A43
:104F0000046A036A026A200EE76ED89006360736F6
:104F10000836093602360336043605360B50025C75
:104F20000C5003580D5004580E50055809E30B500F
:104F3000025E0C50035A0D50045A0E50055A062AB0
:064F4000E72EE4D7120089
:0A4F4600D9CFE6FFDACFE6FFE1CF96
:104F5000D9FFE2CFDAFFE652E652FC0EDBCFDEFFEE
:104F6000DBCFDDFF010EDB50D76EDF50D66EE55292
:0E4F7000E552E552E5CFDAFFE7CFD9FF120098
:024F7E00D9CF89
:104F8000E6FFDACFE6FFE1CFD9FFE2CFDAFFFD0E91
:104F9000DB507F0BD56ED76AD66AF294FD0EDBAE7E
:104FA00002D0F28A01D0F29AD58EE552E5CFDAFF2F
:064FB000E7CFD9FF12005B
:0A4FB600056A046A100EE76ED89039
:104FC00008360936043605360D50045C0E50055877
:104FD00005E30D50045E0E50055A082AE72EF0D75F
:024FE0001200BD
:0E4FE200000EF36E00EE00F0060E01D8120075
:104FF000EA6002D0EE6AFCD7F350E9601200EE6A74
:02500000FCD7DB
:0E5002007777772E6575726F736F75726365C1
:105010002E73652F7368745F3030312E786D6C009D
:10502000056A080EE76ED890093605360E50055C05
:0C50300002E3056E092AE72EF7D71200F4
:04503C0015EE00F07D
:1050400025EE00F0F86A019C35EC28F09BEC01F0AD
:04505000FBD7120078
:0C505400FF0EE350E84E1200000000D0F8
:0A50600000D000D0E82EFAD71200AD
:02506A00120032
:020000040030CA
:0100010026D8
:010002000AF3
:010003000FED
:010006008574
:010009008076
:00000001FF
