:100000000C9470000C948D000C948D000C948D0059
:100010000C948D000C948D000C948D000C948D002C
:100020000C948D000C948D000C948D000C948D001C
:100030000C948D000C948D000C948D000C948D000C
:100040000C9491000C948D000C948D000C948D00F8
:100050000C948D000C948D000C948D000C948D00EC
:100060000C948D000C948D000C948D000C948D00DC
:100070000C948D000C948D000C948D000C948D00CC
:100080000C948D000C948D000C948D000C948D00BC
:100090000C948D00880899080F0C0F0C0F0CAA08FF
:1000A0000F0CBB08CC080F0CF50815090F0C0F0C32
:1000B0000F0C0F0C0F0C0F0C0F0C0F0C0F0C0F0C68
:1000C0006E09170A5C0A0F0C0F0C0F0C970AA30A93
:1000D000B40A0F0C200B0F0C0F0C0F0C380BA40BD9
:1000E00011241FBECFEFD8E0DEBFCDBF14E0A0E0EB
:1000F000B1E0E4EEF5E302C005900D92AE34B10735
:10010000D9F714E0AEE4B4E001C01D92A03CB10701
:10011000E1F70E94F2130C94F01A0C940000089579
:1001200008951F920F920FB60F9211248F939F93F1
:100130008091B6049091B70401969093B704809390
:10014000B604809188049091890401969093890463
:1001500080938804009906C080919A048F5F8093F1
:100160009A0402C010929A0480919B048F5F80933E
:100170009B0480919C04823041F480919B048536DD
:1001800068F088B1805888B907C0813011F4479869
:1001900003C0811103C0479A10929B049F918F91D5
:1001A0000F900FBE0F901F9018952F923F924F9275
:1001B0005F926F927F928F929F92AF92BF92CF92F7
:1001C000DF92EF92FF920F931F93CF93DF93CDB700
:1001D000DEB7AF970FB6F894DEBF0FBECDBF3C01C0
:1001E000362E142F222E1F924F931F926F937F92C1
:1001F0008F9384E391E09F938F93CE0101964C01FE
:100200009F928F930E940F182E2D0FB6F894DEBF89
:100210000FBECDBF6701CE0181965C0148E4442E3C
:1002200041E0542E8C2D821B8017C0F4F601819181
:100230006F011F928F935F924F92BF92AF922FA741
:100240000E940F18B501C4010E94E3170F900F9090
:100250000F900F900F900F902FA5E4CFC4010E9434
:100260000E05C301A0E0B0E0BC0155274427822D54
:1002700090E0A0E0B0E03AE1880F991FAA1FBB1FF1
:100280003A95D1F7482B592B6A2B7B2B5329412BBD
:1002900049A35AA36BA37CA381E08EA30DA30023E3
:1002A00039F0402F50E0B701CE0187960E94DA174F
:1002B00018ECC5010E94D303882311F01150C9F72F
:1002C00081E0AF960FB6F894DEBF0FBECDBFDF91D1
:1002D000CF911F910F91FF90EF90DF90CF90BF9043
:1002E000AF909F908F907F906F905F904F903F90D6
:1002F0002F9008956F927F928F929F92AF92BF92AC
:10030000CF92DF92EF92FF920F931F93CF93DF93E1
:10031000CDB7DEB72E970FB6F894DEBF0FBECDBFB8
:100320006C014B013A015901CE0101960E94520421
:10033000892B21F589819A81AB81BC81F30180836E
:10034000F40190839D013170F601318320832AE10D
:10035000B695A795979587952A95D1F78770F5015A
:1003600080834D81F8014083442351F050E0BE0169
:10037000695F7F4FC7010E94DA1702C080E001C0A9
:1003800081E02E960FB6F894DEBF0FBECDBFDF9191
:10039000CF911F910F91FF90EF90DF90CF90BF9082
:1003A000AF909F908F907F906F900895F999FECFB6
:1003B00090E092BD81BDF89A80B590E00895F999DA
:1003C000FECF90E092BD81BD60BDFA9AF99A81E0BE
:1003D00090E008958823A1F0813011F482E40DC0EB
:1003E00090E9980F903110F48F5B07C0823011F4C0
:1003F00083E403C0833031F484E40E94D60108957D
:1004000080E208958FEF08950F931F93CF93DF93AA
:10041000CDB7DEB7A0970FB6F894DEBF0FBECDBF45
:10042000282F30E02F5B3F4F3F932F932EE431E096
:100430003F932F938E010F5F1F4F1F930F938F8F4B
:1004400068A30E940F18C8010E940E051F9268A1A0
:100450006F9322E631E03F932F931F930F9368A38E
:100460000E940F18C8010E940E050FB6F894DEBF57
:100470000FBECDBF4F8D68A1411105C081E40E9420
:10048000DF0181E406C0413039F482E40E94DF01DB
:1004900082E40E94D6011BC080E9840F803138F4C9
:1004A00011E4140F812F0E94DF01812FF2CF42301F
:1004B00029F483E40E94DF0183E4EBCF433029F485
:1004C00084E40E94DF0184E4E4CF862F8095A09627
:1004D0000FB6F894DEBF0FBECDBFDF91CF911F9155
:1004E0000F91089581E00E94D6010895682F81E060
:1004F0000C94DF0181E10E94D601089582E10E94FF
:10050000D60108950895089581E0089580E0089542
:1005100080E00895E82FF0E0EC5DFE4F80810895C3
:100520000895E82FF0E0E85FFE4F808108958C5F2A
:100530000E94D60108958C5F0C94DF01875F0E94B2
:10054000D6010895875F0C94DF0180E1089588E06B
:10055000089581E0089581E00E94D6010895682FF2
:1005600081E00C94DF0182E00E94D6010895682F9B
:1005700082E00C94DF01682F83E00C94DF0183E0BC
:100580000E94D601089560E070E0CB01089560E01C
:1005900070E0CB0108950895FC0182E0808380E73C
:1005A0008183128213821482158216828CED91E06F
:1005B0000C940E05CF93C82F83E080938B0483E8BF
:1005C00080938A0470E070938D0460938C04409350
:1005D0008E04C0938F0481E40E94D601809390041E
:1005E00081E48C0F0E94D60180939104CF910C94EA
:1005F0002A07EF920F931F9380938B0483E88093D5
:100600008A0410E010938D0400938C04E0928E0411
:1006100020938F0460939004409391041F910F9155
:10062000EF900C942A07ECE7F0E0808180648083EF
:1006300083E880937A00089590917C008F70907F7A
:10064000892B80937C0080917A00806480937A006B
:1006500080917A0086FDFCCF80917800909179009E
:1006600008958295807F8093ED001092EE001092A5
:10067000EF001092F0001092F1001092F200109230
:10068000F3001092F4001092F5001092F600109210
:10069000F70088E01092FA008150E1F70895CF93B7
:1006A000C0E08C2F0E943103CF5FCF30D1F7CF91C4
:1006B00008958091ED0021E030E0922F9295907F97
:1006C0009093ED009091EF00907C31F09091EE00CE
:1006D00096FF06C01092ED008093ED00C9010895C9
:1006E0002F5F3F4F2F30310541F78093ED008FEFA3
:1006F0009FEF0895843021F160F4813079F1C0F0EA
:100700008230D1F0833009F043C028E14EE062E14D
:1007100028C08730E9F038F48530B1F08630C1F573
:1007200028E14EE017C08830B9F08F3FD1F030C0DB
:1007300028E14EE066EC15C028E14EE064E211C00D
:1007400028E14EE06EE00DC028E14EE066E009C011
:1007500026E144E062E005C022E1FBCF28E14EE063
:1007600062E66093E2004093E3002093E4000E947D
:100770004F031092ED008091EF0080688093EF00AE
:100780008091D80082608093D80080E090E0089546
:100790008DEF9FEF0895E8EDF0E080818D7F8083FD
:1007A00080E090E00895CF93DF93EC010E9459031D
:1007B0008F3F2FEF920709F470C0982F9295907F8A
:1007C0009093ED000E9431039D818C818F7090FF8A
:1007D00032C0805F8093EF009D818881880F880FF1
:1007E000880F92FD84608093F000488159816A816E
:1007F0007B8195E076956795579547959A95D1F7C2
:100800004093F100488159816A817B812DE0769582
:100810006795579547952A95D1F74093F2004881FF
:1008200059816A817B8135E1769567955795479522
:100830003A95D1F719C08093EF008D8181FF03C0F5
:1008400084E08093F00088818295880F807E809379
:10085000F200488159816A817B8183E076956795B2
:10086000579547958A95D1F74093F30080E090E043
:100870002C8130E08217930744F4FE01E80FF91F42
:1008800026812093FA000196F3CF8091EF008064D7
:100890008093EF0080E090E002C08FEF9FEFDF9148
:1008A000CF910895CF92DF92EF92FF920F931F9313
:1008B000FC011092ED008091EE0085FF7AC0158258
:1008C000108211821282138214828091F00082FFC2
:1008D00002C082E085838091EF0084FF39C085816A
:1008E00081608583C090F3004091F2000091F10097
:1008F0008091F00050E060E070E09DE0440F551FF3
:10090000661F771F9A95D1F7D12CE12CF12C25E1A8
:10091000CC0CDD1CEE1CFF1C2A95D1F74C0D5D1D87
:100920006E1D7F1D10E020E030E0A5E0000F111FDC
:10093000221F331FAA95D1F7400F511F621F731F4B
:10094000869586958695480F511D611D711D11C0B4
:100950008091F3004091F20042954695477050E037
:1009600098E0899F400D511D1124662757FD609521
:10097000762F40835183628373832091EF002F7021
:10098000248380E090E0821748F43091FA00DF0180
:10099000A80FB91F16963C930196F5CF80E00E94F0
:1009A00031038091EF0080688093EF0080E090E059
:1009B00002C08EEF9FEF1F910F91FF90EF90DF909D
:1009C000CF9008958091D90090E008951092ED00A5
:1009D0008093F3006093F2004093F1002093F000C5
:1009E00080E090E008951092ED008093F70060930E
:1009F000F6004093F5002093F40080E090E0089525
:100A00009091C80095FFFCCF8093CE0008959091FF
:100A1000C80095FFFCCF8093CE0008951F93CF931D
:100A2000DF93EC011991112349F01A3019F48DE08C
:100A30000E940005812F0E940005F4CF8DE00E94E6
:100A400000058AE0DF91CF911F910C9400051F9360
:100A5000CF93DF93EC011991112349F01A3019F467
:100A60008DE00E940005812F0E940005F4CFDF91E8
:100A7000CF911F910895CF93DF93CDB7DEB72A971B
:100A80000FB6F894DEBF0FBECDBF4AE050E0BE0106
:100A90006F5F7F4F0E94EE170E940E052A960FB6D9
:100AA000F894DEBF0FBECDBFDF91CF9108958F7058
:100AB0008A3010F0895C01C0805D0C940705CF93EB
:100AC000C82F82958F7090E00E9457058C2F90E080
:100AD000CF910C94570582E080939C040E9472028F
:100AE000811101C08FEF8093B3041092A104109282
:100AF000A2041092A4041092A3041092A5041092D0
:100B00008A0410928B0410928D0410928C0410921F
:100B10008E0410929E041092B204109298041092C7
:100B2000B104109297041092B8041092B504109278
:100B3000B4041092B7041092B6041092A00410925C
:100B40009F041092B0041092990410929D0408958D
:100B50000E94B302807C803459F08FEF0E947602AD
:100B600080E00E94B70280EA0E94BB0280E0089504
:100B700081E0089510929C0408958091A10487FF5C
:100B80001BC08091A3049091A404892B19F5809136
:100B9000A5048630F9F48091A7048F3FD9F48091A1
:100BA000A8048093B3040E94760280E40E94B702F6
:100BB00083E08093B10408958091B6049091B704C6
:100BC000893E934038F08FEF8093B3040E94760201
:100BD0000C946B0508950E94B302811117C0809197
:100BE000A1048F708530B1F40E94B3029091A704E4
:100BF000891781F0892F0E94B7028FEF8093B30489
:100C00000E94760281E08093B10408958091A70448
:100C10000C94B70208958091A1048F70823079F40A
:100C20009091B3048091A704981309C08091A804FF
:100C30008093B3040E94760280E40C94B702089576
:100C40008091A1048F7099F02091B3049091A70432
:100C500029130DC0813021F08091A804811107C0B3
:100C60008FEF8093B3040E9476020C946B05089575
:100C7000803829F48091B2041092B204089581382A
:100C800009F443C0823809F442C0833809F441C0F2
:100C9000843911F40C948402853911F40C94860281
:100CA000863911F40C948802893818F484580C940D
:100CB000970297E7980F983018F4892F0C949E02AA
:100CC000813919F48091B3040895833919F480911E
:100CD000B4040895823919F48091B50408958739D0
:100CE00011F40C94A502883911F40C94A7028939E7
:100CF00011F40C94A90290E3980F903118F4892F05
:100D00000C948A02805E0C94910281E0089585E043
:100D1000089580E0089587FD0C9438060C94EA014C
:100D2000CF93E62F6095CCE7C80FC53040F46E2F07
:100D30008C2F0E949B028C2FCF910C9497028239AA
:100D400069F46E2F70E0762F66278091B404682BCB
:100D50007093B5046093B404672F74C0833959F459
:100D60006091B4047091B50466276E2B7093B5043E
:100D70006093B40467C0C7E7C80FC830A8F4809177
:100D8000B4049091B504492F50E04F3F510509F04C
:100D900059C08F3F09F056C06E2F8C2F0E94A202BF
:100DA0008C2FCF910C949E02C0E3C80FC031A0F4E9
:100DB0008091B4049091B504292F30E02F3F310584
:100DC00009F040C08F3FF1F56E2F8C2F0E949002EA
:100DD0008C2FCF910C948A02C6E6C80FC43018F449
:100DE0000E94C30206C0C2E6C80FC43098F40E9435
:100DF000C70223E030E02C1B310943E0220F331FF0
:100E00004A95E1F704C096958795779567952A9559
:100E1000D2F718C0823AB1F4E53531F41092A0044B
:100E200010929F0465E50EC0EA3A61F480919F0438
:100E30009091A004883E934020F40E94CB026AEA7D
:100E400001C060E0862FCF91089587FD0C94900635
:100E50000C940402EF92FF920F9300918A040F709A
:100E60008FE8E82E84E0F82E20918B044091B304A3
:100E700060918E0480918C0490918D040E94D50025
:100E8000811105C090919E049F5F90939E040F91E5
:100E9000FF90EF90089581E880938A0410928B046C
:100EA00010928D0410928C0482E080938E048091C5
:100EB000B30480938F040E942A0781E080939C04EE
:100EC000089520919704213091F120F0223009F407
:100ED00080C07DC0809198048F3FA1F091E89093ED
:100EE0008A0410928B0410928D0410928C0492E06C
:100EF00090938E0480938F040E942A0781E0809350
:100F000097042CC094E09093B10491E890938A04E4
:100F100080938F0487E080938B0410928D0410924D
:100F20008C0483E080938E040E942A0752C0809133
:100F3000A10487FF1EC08091A3049091A404892B73
:100F400009F047C08091A504833009F042C0809128
:100F50009804811108C082E08093B1041092B70414
:100F60001092B60436C08F5F809398041092970455
:100F70001AC08091B6049091B704893E934048F11D
:100F80008091B8048F5F8093B804833000F1809122
:100F9000980481110BC0209398041092970410922A
:100FA000B7041092B6041092B80413C08093B3042F
:100FB00093E09093B104109297040E94760280E42B
:100FC0000E94B7021092B8040E944B0702C0109210
:100FD00097041092A104089593E890938A0497E0EF
:100FE00090938B0424E130E030938D0420938C04A3
:100FF00099E090938E0410928F04809390046093F4
:1010000091040C942A07CF93DF931F92CDB7DEB7DC
:101010008091B0048F5F8C3318F48093B00413C0B8
:101020001092B004809199048F5F8093990480910D
:10103000B104833041F40E947E0289830E947A02C7
:1010400069810E94EC07809199048C3338F01092EA
:10105000990480919D048F5F80939D0480919D04ED
:10106000883110F010929D048091B104833069F4AE
:101070002091AF042F5F822F8F7090E002971CF4B5
:101080002093AF0402C01092AF040F90DF91CF9174
:1010900008958091A1048F708130A1F49091B304E0
:1010A0008091A70498130EC080E880938A04109260
:1010B0008B0410928D0410928C0483E080938E0434
:1010C0000C942A0708956F927F928F929F92AF920D
:1010D000BF92CF92DF92EF92FF920F931F93CF9325
:1010E000DF931F92CDB7DEB78091A3049091A40443
:1010F000892B09F094C38091A50490E0FC013197FD
:10110000E632F10508F08BC3E65BFF4F0C94C8167E
:101110000F90DF91CF911F910F91FF90EF90DF9093
:10112000CF90BF90AF909F908F907F906F900C94D6
:10113000EB050F90DF91CF911F910F91FF90EF90F2
:10114000DF90CF90BF90AF909F908F907F906F90E7
:101150000C9449080F90DF91CF911F910F91FF9050
:10116000EF90DF90CF90BF90AF909F908F907F9047
:101170006F900C940B060F90DF91CF911F910F9100
:10118000FF90EF90DF90CF90BF90AF909F908F90A7
:101190007F906F900C9420068091A1048F70823014
:1011A00009F03DC39091B3048091A704981337C30D
:1011B0008091A80487FD03C00E94EA0102C00E943A
:1011C0003806809390048091A80480938F0483E074
:1011D00080938B0482E880938A0410928D0410928D
:1011E0008C048AE080938E0409C31091A1041F70BF
:1011F000133009F014C39091B3048091A70498139D
:101200000EC38091A8046091A90487FD03C00E94C9
:10121000040202C00E949006809390048091A8046A
:1012200080938F0410938B04D5CF9091B304809159
:10123000A704981306C08091A804893011F40E9475
:1012400082029091B3048091A7049813E8C2809120
:10125000A804813009F0E3C280E00E948A029091E4
:10126000A9048913DCC283E00E948A029091AA0437
:101270008913D5C285E00E948A029091AB0489133C
:10128000CEC287E00E948A029091AC048913C7C243
:101290008091B4049091B504492F55272091AD0455
:1012A00030E04217530709F0BAC299272091AE04E3
:1012B00030E08217930709F0B2C20F90DF91CF910F
:1012C0001F910F91FF90EF90DF90CF90BF90AF9064
:1012D0009F908F907F906F900C9482028091A704D2
:1012E00082958F70813041F138F0823009F444C02A
:1012F000833009F461C082C080E00E948A0290912C
:10130000A80489137DC081E00E948A029091A904FB
:10131000891376C082E00E948A029091AA04891300
:101320006FC083E00E948A029091AB04891368C069
:101330008091AF0480615FC084E00E948A02909136
:10134000A80489135DC085E00E948A029091A904D7
:10135000891356C086E00E948A029091AA048913DC
:101360004FC087E00E948A029091AB04891348C065
:101370008091AF0480623FC088E00E948A02909111
:10138000A80489133DC089E00E948A029091A904B3
:10139000891336C08AE00E948A029091AA048913B8
:1013A0002FC08BE00E948A029091AB04891328C061
:1013B0008091AF0480641FC08CE00E948A029091EB
:1013C000A80489131DC08DE00E948A029091A9048F
:1013D000891316C08EE00E948A029091AA04891394
:1013E0000FC08FE00E948A029091AB04891308C05D
:1013F0008091AF0480688093AF0402C01092AF0464
:101400008091AF04807F803F09F009C20F90DF9187
:10141000CF911F910F91FF90EF90DF90CF90BF90F1
:10142000AF909F908F907F906F900C946B059091F0
:10143000B3048091A7049813F2C1D090A804E0905F
:10144000A904812C912CF12C07E0C02E83E0B82E4A
:101450009AE1A92E0E2D10E001501109882D8E144D
:1014600008F0DDC16C2D0E947516882D8D0D9983B5
:101470000E948B069981E92FF0E0E657FB4F8683A7
:10148000963029F08016910699F49F5F01C097E08D
:101490009F5790938A04B0928B0410928D041092FF
:1014A0008C04A0928E04F0928F040E942A07F39479
:1014B0008FEF881A980AD2CF9091B3048091A70435
:1014C0009813ADC1D090A8049091A1049250977048
:1014D000B9EAEB2EB4E0FB2E10E9A12E14E0B12EF8
:1014E0008701DA18802F8E19891788F4F801619125
:1014F0008F01CA2CCD0C8C2D99830E9425078C2D31
:101500000E948B06F50181935F019981EBCF83E007
:1015100080938B0410928D0410928C048AE1809346
:101520008E0410928F049F5790938A0467C1909104
:10153000B3048091A704981372C18091A8040E94FB
:10154000EA0161E00BC09091B3048091A704981365
:1015500066C18091A8040E94EA016FEF680F809134
:10156000A8040E9404022DCE8091A7049091B30498
:10157000981719F08F3F09F052C183E080938B04D4
:1015800088E880938A0410928D0410928C0480E283
:1015900080938E0400E010E0AFE0EA2E10938F04F9
:1015A000FE2CF01AF0E9CF2EF4E0DF2E0F5F8F2D26
:1015B0000E948A02F60181936F01013130F0E2E965
:1015C000EE2EE4E0FE2E10E00CC0FA94F7E9CF1600
:1015D000F4E0DF0659F70E942A071F5F1330F1F687
:1015E000EECF812F0E949102882331F0812F0E943B
:1015F0009102F701808302C0F70110821F5FFFEFA5
:10160000EF1AFF0A153069F70E942A0773E0F72ED8
:10161000F0928F0460E9C62E64E0D62E00E0802FA1
:10162000810F0E949102F60181936F010F5F0730D5
:10163000B1F7195F0E942A07F394113249F7EFC0FE
:101640009091B3048091A7049813E9C083E080933C
:101650008B0487E880938A0410928D0410928C0486
:1016600082E280938E048FE894E00E94CC02C6C090
:101670009091B3048091A7049813D1C08091A104E4
:101680008F7090E0049724F0A090AB04A11002C0EA
:10169000AA24A3940091B4041091B5043091A80435
:1016A0002091A904822F90E0932B9093B50480930E
:1016B000B40483E080938B0410928D0410928C0408
:1016C00087E280938E0410928F04309390042093CD
:1016D0009104B12CEA2CF12C53E9C52E54E0D52EFF
:1016E000C7018B19910904971CF49A2C9B1802C00E
:1016F00044E0942E84E8890D80938A048091AA04A2
:101700008B0D8093920433E9632E34E0732E962D73
:101710009C19991550F48091AA048B0D890F0E9491
:101720008B06F30181933F01F2CF0E942A07B90C87
:1017300080918F048F5F80938F04BA1488F2109386
:10174000B5040093B4046BC09091B3048091A704D6
:10175000981365C00091B4041091B5048091A80459
:1017600090E0982F88272091A904822B9093B504AC
:101770008093B404F090AA046F2D70E09091AA04B5
:10178000492F50E08091A1048F70282F30E0245021
:101790003109240F351F621773079CF46B01C41ABB
:1017A000D50AF4E0CF0ED11CF601EF55FB4F668150
:1017B0008F2D0E942507F601E657FB4F8583F39492
:1017C000DBCF1093B5040093B40423E020938B0483
:1017D000805880938A0410928D0410928C0487E2C2
:1017E00080938E0410928F048091A80480939004BB
:1017F0008091A90480939104909392040F90DF91BB
:10180000CF911F910F91FF90EF90DF90CF90BF90FD
:10181000AF909F908F907F906F900C942A070F90BD
:10182000DF91CF911F910F91FF90EF90DF90CF90BC
:10183000BF90AF909F908F907F906F900895EF92A0
:10184000FF920F931F938091A10487FD18C087EA30
:10185000E82E84E0F82E01EA14E022EA34E046EAB9
:1018600054E065EA74E083EA94E00E947A018823F8
:1018700041F09091A10490689093A10403C081E08D
:1018800001C080E01F910F91FF90EF900895E091CB
:10189000BC04F091BD0490818091BB04892308951C
:1018A000E091B904F091BA0480819091BB04892B36
:1018B0008083E091BE04F091BF0480819091BB04CD
:1018C000892B808308951F93CF93DF931F92CDB709
:1018D000DEB71FB7F894E091B904F091BA04208103
:1018E0009091BB04909592239083E091BE04F09177
:1018F000BF0490812091BB04922B90839AE09A952B
:10190000F1F700C0882399F0E091BE04F091BF0484
:1019100020819091BB04909592239083E091B9042B
:10192000F091BA0490812091BB04922B9083E5E45E
:10193000EA95F1F70000E091BC04F091BD049081BC
:101940002091BB04922309F480E0F5EEFA95F1F7BB
:101950000000E091B904F091BA0490812091BB0499
:10196000922B9083E091BE04F091BF04208190916E
:10197000BB04909592239083662321F089830E9473
:10198000500C89811FBF95E39A95F1F700000F90E5
:10199000DF91CF911F910895E091BE04F091BF04B3
:1019A00090818091BB048095892380830895E09184
:1019B000B904F091BA0490818091BB048095892389
:1019C0008083E091BE04F091BF0480819091BB04BC
:1019D000892B80838FE797E00197F1F700C0000023
:1019E0009FB7F894E091BE04F091BF0420818091EC
:1019F000BB04809582238083E091B904F091BA04FE
:101A000080812091BB04822B8083EFEFF0E031973F
:101A1000F1F700C00000E091BC04F091BD0420810A
:101A20008091BB049FBFEFE7F6E03197F1F700C06C
:101A30000000E091BC04F091BD0490813091BB04A2
:101A4000932311F08223089581E008955093BF04F9
:101A50004093BE047093BA046093B9049093BD049C
:101A60008093BC0481E001C0880F2A95EAF7809337
:101A7000BB040C94D70C60E081700C94630CCF9382
:101A8000DF93C82FD8E08C2F81700E943B0DC69544
:101A90008111C068D150B9F78C2FDF91CF91089593
:101AA000CF93DF93C82FD8E08C2F8170D13011F005
:101AB00060E001C061E00E94630CC6958111C068BE
:101AC000D15091F78C2FDF91CF910895EF92FF9233
:101AD0000F931F93CF93DF93F82EEB01E42E0E9418
:101AE000D70C209769F085E50E943F0D8E01085FB5
:101AF0001F4F89910E943F0DC017D107D1F703C036
:101B00008CEC0E943F0D8F2DEE2041F0DF91CF91A4
:101B10001F910F91FF90EF900C94500DDF91CF919A
:101B20001F910F91FF90EF900C943F0D8FEF0C944D
:101B30003F0DDF92EF92FF920F931F93CF93DF93AE
:101B4000E82EEB010E94D70C81112FC080EF0E947C
:101B50003F0DF12C10E488EFD82ED10E81E00E94C9
:101B60003B0D082F81E00E943B0D882319F00023D4
:101B700061F01DC0011109C01E1528F0888180FF89
:101B800004C0E11611F0F12E01E0802F0E943B0D00
:101B90009881969501119068988311501D11DECFA0
:101BA00021961111D8CF8F2D03C08FEF01C08EEF7A
:101BB000DF91CF911F910F91FF90EF90DF900895EB
:101BC00040E00C94660D41E00C94660DFB01218110
:101BD00030E0322F22279081292B803171F4A90126
:101BE0004E7F63E0440F551F6A95E1F796812CE024
:101BF00030E0291B3109240F351F37FF05C031950F
:101C000021953109A1E001C0A0E0883211F08232B3
:101C100069F484818076803231F0803431F0811132
:101C200005C0287F03C02C7F01C02E7FC90144E07E
:101C3000969587954A95E1F76AE0689FA001699FAC
:101C4000500D11242F70332760E872E0269FC001E9
:101C5000279F900D369F900D1124A11101C09E5F0A
:101C60009C01232F332726952695240F351FAA2361
:101C700019F0319521953109C9018A5D9D4F89304F
:101C8000974018F080ED97E00895C9010895CF932B
:101C9000FB01418150E0542F44279081492B803132
:101CA00071F49A012E7F93E0220F331F9A95E1F78A
:101CB00096814CE050E0491B5109420F531F57FFDA
:101CC00005C0519541955109C1E001C0C0E088327D
:101CD00011F0823269F484818076803231F0803470
:101CE00031F0811105C0487F03C04C7F01C04E7F99
:101CF0009A0184E0369527958A95E1F7A0E1B7E24D
:101D00000E9466164F705527E1E7F2E04E9F900162
:101D10004F9F300D5E9F300D1124620F731F811D88
:101D2000911DCC2339F090958095709561957F4FEA
:101D30008F4F9F4FCF910895EF92FF920F931F9374
:101D4000CF93DF93162F072FF42EBC018EEB0E944A
:101D5000E00DE12EC12FD02F8C2F8E198F1520F47E
:101D60000E94960D8993F8CF69E070E0812F902F43
:101D70000E94D913882311F083E001C080E0DF9135
:101D8000CF911F910F91FF90EF900895AF92BF9266
:101D9000CF92DF92EF92FF920F931F93CF93DF9337
:101DA0008C017B016C01C0E0D0E05B0181E0A81AEE
:101DB000B108CE15DF05B1F1209719F484EB92E05C
:101DC0000CC0CA15DB0521F488EB92E00E942705C0
:101DD000C130D10521F48DEB92E00E942705F60178
:101DE00081916F0190E00E945F058DEE92E00E946C
:101DF00027052097A9F4F8018081803119F482EC3D
:101E000092E00CC0883219F488EC92E007C082326C
:101E100019F48EEC92E002C083ED92E00E94270557
:101E20002196C7CF68E070E0C8010E94D9138823CB
:101E300019F089ED92E002C084EE92E0DF91CF913B
:101E40001F910F91FF90EF90DF90CF90BF90AF90D8
:101E50000C9427050F931F93CF93DF93EC018B0115
:101E6000B80188810E94990D888381508D3F48F484
:101E7000F8018081883239F0803129F0823281F78F
:101E800002C081E001C080E0DF91CF911F910F91EE
:101E90000895CF93DF93EC010E94D70CBE0184EB31
:101EA0000E94E00D81E00E943B0DC82F0E94D70CDC
:101EB00081E0C11101C080E0DF91CF9108951F93AF
:101EC000CF93DF9300D0CDB7DEB7182F69837A8325
:101ED0000E94D70C0E94470C69817A81882351F0B7
:101EE00084E4113019F00E94E30D02C00E94E00D5D
:101EF00080E005C08FEE92E00E94270582E00F90FF
:101F00000F90DF91CF911F91089581E00E943B0DCA
:101F100091E0811190E0892F0895EF92FF920F9345
:101F20001F93CF93DF93CDB7DEB727970FB6F89403
:101F3000DEBF0FBECDBF8B01473008F460C09C01EF
:101F400029513C4F273F3A4208F059C097FF06C03D
:101F5000919581959109EE24E39401C0E12CF12C37
:101F60006AE070E00E94951621E02F0DE1E0F0E0BC
:101F7000EC0FFD1FEF0DF11DF7FCFA95805D8083DE
:101F8000862F972F1816190614F4F22EE9CF822FF8
:101F9000992787FD9095E1E0F0E0EC0FFD1FE80F39
:101FA000F91FEE2029F03DE2308330E06EE21DC0E3
:101FB0003BE2FACF41E0430F5FEF520FD801A80F89
:101FC000B91FE1E0F0E0EC0FFD1FE20FF11D27FD6E
:101FD000FA9520812C93511106C0F801E40FF11DF0
:101FE000608342E0430F342F252F832F90E027FF9B
:101FF000E1CFF801E80FF91F108280E001C081E015
:1020000027960FB6F894DEBF0FBECDBFDF91CF91FC
:102010001F910F91FF90EF9008952F923F925F9242
:102020006F927F928F929F92AF92BF92CF92DF92E8
:10203000EF92FF920F931F93CF93DF93CDB7DEB74D
:10204000AC970FB6F894DEBF0FBECDBF55245A949F
:102050007E0125E2E20EF11C61E7262E62E0362EBB
:102060008E010F5F1F4F74E0A72EB12CECE08E2E77
:10207000912CB701852D0E94990D582E6FEF861374
:1020800006C083E193E00E9427058FEF40C17EEFF9
:10209000871306C084E293E00E9427058EEF37C1C4
:1020A00068E070E0C7010E94C60E8DA1883229F059
:1020B000803119F0823209F023C18DE090E00E9456
:1020C00007058EEB0E943F0DCE014C966C010E94DD
:1020D000960DF60181936F01EE15FF05C1F78FE2B2
:1020E00093E00E942705BE01645E7F4F6B01612C67
:1020F000712CF60181916F0190E00E945F058DEED9
:1021000092E00E942705FFEF6F1A7F0A29E062160E
:10211000710449F078E06716710459F788EB92E092
:102120000E942705E6CF69E070E0CE014C960E9440
:10213000D913882319F089ED92E002C084EE92E071
:102140000E9427058DE090E00E940705CC8C8D8DC4
:10215000D12CD82A83E393E00E9427058D2D90E0AF
:102160000E945F05C60199270E945F058DEE92E0EF
:102170000E9427058DA1803119F48BE393E018C0EC
:10218000883211F08232B1F488A1982F907690367F
:1021900019F482E493E00CC086FF03C089E493E065
:1021A00007C085FF03C080E593E002C089E593E0A6
:1021B0000E9427058DEE92E00E9427054DA18C8D8F
:1021C0002D8D90E0922B403171F49C012E7F53E0D5
:1021D000220F331F5A95E1F78AA1B401681B7109D8
:1021E000CB01820F931F97FF05C0919581959109AF
:1021F00031E001C030E0483211F0423271F428A1E0
:10220000422F4076403649F026FF02C08E7F05C03F
:1022100025FF02C08C7F01C0887F6C0194E0D694BA
:10222000C7949A95E1F7782F7F70772E332319F0B2
:102230008DE290E002C08BE290E00E940705C601AB
:1022400099270E943B0580E693E00E9427054AE01B
:1022500050E0B801729CC001739C900D11240E9443
:10226000EE17C12CD12CF80101900020E9F731972D
:10227000E01BF10BC5018E1B9F0BC816D90640F45D
:1022800080E592E00E9427058FEFC81AD80AEBCFAD
:10229000C8010E940E0582E693E00E942705BE0158
:1022A000645E7F4F8DA10E94E60D6C0190EDC91612
:1022B00097E0D90619F486E693E01CC082E793E024
:1022C0000E942705C6010E943B058AE793E00E9411
:1022D00027054AE0BE016E5E7F4FC6010E948D0F4A
:1022E00084E893E00E942705CE0142960E940E05E5
:1022F0008BE893E00E9427058BE494E00E940E0592
:102300005110B7CE8BE494E00E94270580E0AC9694
:102310000FB6F894DEBF0FBECDBFDF91CF911F91F6
:102320000F91FF90EF90DF90CF90BF90AF909F9074
:102330008F907F906F905F903F902F900895DF92E5
:10234000EF92FF920F931F93CF93DF93CDB7DEB73A
:1023500029970FB6F894DEBF0FBECDBF8C017B016D
:102360000E94D70C49E0BE016F5F7F4FC8010E94F9
:102370009C0ED82E81110AC0BE016F5F7F4FF801FD
:1023800080810E94E60DF701918380838D2D29962F
:102390000FB6F894DEBF0FBECDBFDF91CF911F9176
:1023A0000F91FF90EF90DF900895EF92FF920F93BF
:1023B0001F93CF93DF93CDB7DEB729970FB6F8946D
:1023C000DEBF0FBECDBFE82E8B0149E0BE016F5FBF
:1023D0007F4F80E090E00E949C0EF82E811109C092
:1023E000BE016F5F7F4F8E2D0E94E60DF801918335
:1023F00080838F2D29960FB6F894DEBF0FBECDBF18
:10240000DF91CF911F910F91FF90EF900895DF9290
:10241000EF92FF920F931F93CF93DF93CDB7DEB769
:1024200029970FB6F894DEBF0FBECDBF8C017B019C
:102430000E94D70C49E0BE016F5F7F4FC8010E9428
:102440009C0ED82E81110CC0BE016F5F7F4FF8012A
:1024500080810E94470EF70160837183828393839A
:102460008D2D29960FB6F894DEBF0FBECDBFDF913C
:10247000CF911F910F91FF90EF90DF900895EF9211
:10248000FF920F931F93CF93DF93CDB7DEB72997BA
:102490000FB6F894DEBF0FBECDBFE82E8B0149E02A
:1024A000BE016F5F7F4F80E090E00E949C0EF82E8F
:1024B00081110BC0BE016F5F7F4F8E2D0E94470EB2
:1024C000F80160837183828393838F2D29960FB6E1
:1024D000F894DEBF0FBECDBFDF91CF911F910F915A
:1024E000FF90EF900895CF92DF92EF92FF920F93BB
:1024F0001F93CF93DF93CDB7DEB762970FB6F894F3
:10250000DEBF0FBECDBF8A012A3008F48EC06B013A
:102510007C012FE3C20E22E4D21E2FE0E21EF11C4A
:102520002FEBC21628EDD20627EAE206F10408F0E6
:102530007CC097FF0AC090958095709561957F4FFC
:102540008F4F9F4FEE24E39401C0E12CF12C2AE041
:1025500030E040E050E00E94A9162B873C874D8771
:102560005E876F87788B898B9A8B21E02F0DE1E056
:10257000F0E0EC0FFD1FEF0DF11DF7FCFA95605D2B
:1025800060836B857C858D859E85161617061806DB
:10259000190614F4F22EDBCF822F9FEF9F0D92309D
:1025A00060F422E02F0DE1E0F0E0EC0FFD1FE80FFA
:1025B000F11D87FDFA9580E38083822F992787FD9F
:1025C0009095E1E0F0E0EC0FFD1FE80FF91FEE2021
:1025D00029F03DE2308330E06EE21DC03BE2FACFED
:1025E00041E0430F5FEF520FD801A80FB91FE1E0A0
:1025F000F0E0EC0FFD1FE20FF11D27FDFA952081A1
:102600002C93533031F4F801E40FF11D608342E064
:10261000430F342F252F832F90E027FFE1CFF801C0
:10262000E80FF91F108280E001C081E062960FB6CA
:10263000F894DEBF0FBECDBFDF91CF911F910F91F8
:10264000FF90EF90DF90CF900895FF920F931F932C
:10265000CF93DF93EC01162FF42E022F0E94D70C9C
:102660000E94470C882399F0BE018EE40E94E00D81
:10267000812F0E943F0D8F2D0E943F0D988198322F
:1026800011F0923251F4802F0E943F0D06C081E973
:1026900093E00E94270581E001C080E0DF91CF91A7
:1026A0001F910F91FF9008950F931F93CF93DF9386
:1026B00000D01F92CDB7DEB78C014B8369837A833C
:1026C0000E94D70C0E94470C4B8169817A81882334
:1026D00051F0C8010F900F900F90DF91CF911F9193
:1026E0000F910C949C0E8BEB93E00E94270581E0E8
:1026F0000F900F900F90DF91CF911F910F91089540
:102700001F93CF93DF9300D0CDB7DEB7182F698327
:102710007A830E94D70C0E94470C69817A818823B2
:1027200099F088E4113019F00E94E30D02C00E9474
:10273000E00D8FE39CE90197F1F700C00000113034
:1027400049F00E94CC0C06C084EE93E00E9427055D
:1027500082E001C080E00F900F90DF91CF911F9138
:102760000895CF93DF93EC010E94D70C0E94470C91
:102770008823B9F0BE0188EB0E94E00DCEEFCF3F79
:1027800011F480E013C081E00E943B0D9FEF9C0F8D
:10279000811102C0C92FF3CFC111F3CF8DE094E0B6
:1027A00002C08AE294E00E94270581E0DF91CF9188
:1027B0000895FC01680F791F80E048E1E617F707EC
:1027C00081F0219198E0322F3827532F517030FD3E
:1027D00084278695513009F480682695915099F7A1
:1027E000EDCF0895CF93DF93CDB7DEB7AA970FB69D
:1027F000F894DEBF0FBECDBF8FEF82B911B884B998
:1028000085B987B988B91092C80086E08093CA005C
:102810001092CD0089E18093CC0088E18093C900BB
:1028200082E080936E008DE387BD8CE084BD789458
:1028300020E047E250E068E270E086E290E00E942B
:10284000260D20E040E060E084E00E947A03892BBE
:1028500021F084E791E00E940E058EE891E00E944D
:102860000E058EE991E00E940E050E94A8058823BE
:1028700071F00E946B058E010F5F1F4FE8E44E2E32
:10288000E1E05E2E7E012FE1E20EF11C38C160E036
:1028900081E40E94DF0160E082E40E94DF0111EB2D
:1028A00060E0812F0E94DF011F5F113CC9F7E1CF7B
:1028B0008091B104813069F08FEF8093B3046FEFA2
:1028C00081E00E94DF010E946B0582EB91E00E9493
:1028D0000E051092A1040E941F0C80918804909113
:1028E0008904893E934078F01092890410928804FC
:1028F00080914E0490914F04019790934F048093E0
:102900004E040E9403088091B104823009F40EC184
:1029100008F001C18111F9C08091B3048F3F09F023
:1029200002C181E08093B10472E5C72E74E0D72E16
:10293000912CF60120813181293C310574F081E12F
:1029400092E00E940E0543E064E1892D0E94DA02C4
:10295000E4EDFEEFD601ED93FC939394F2E0CF0EFD
:10296000D11C27E09212E5CF80914E0490914F0444
:10297000892B09F0C4C083E40E94D601D82E84E4D8
:102980000E94D601BD2CA12C8A0D9B1D90934F0453
:1029900080934E0481E292E00E940E0589E392E06A
:1029A0000E940E050E94D70C8FEF8F8F90E6C92EE4
:1029B00094E0D92E8F8D882389F098E8C91694E089
:1029C000D90661F0B801C7010E942A0F8F8D8F3F91
:1029D00009F067C182E592E00E940E05D090600484
:1029E0001F92DF92ACE6B2E0BF93AF931F930F93B9
:1029F0000E940F18C8010E940E0560E070E080E0A0
:102A00000E945F0FFFEF2EE984E2F15020408040EA
:102A1000E1F700C00000BE01675D7F4F8D2D0E9471
:102A2000D5114AE050E0B70189A59AA50E94EE179A
:102A30000E940E0589A59AA599279F938F9382E7F7
:102A400092E09F938F931F930F930E940F18C801DA
:102A50000E940E058AA5982F990F990B9F938F932B
:102A600082E892E09F938F931F930F930E940F1819
:102A7000C8010E940E0587E992E00E940E0510929F
:102A80008B0484E880938A048AE0C82ED12CD092EB
:102A90008D04C0928C0486E080938E0488E8809335
:102AA0008F0481E08093900489A59AA59093910466
:102AB000809392040E942A070E94130380E00E94E0
:102AC0001C034A97B6010E94811680E090E00E94A4
:102AD00021170E945E1723E220938E0422E82093A0
:102AE0008A0420E620938F040E94F01660939004DD
:102AF0000E942A070FB6F894DEBF0FBECDBF8091AB
:102B00009A04893C08F4E5CED3CE813009F0C6C0E2
:102B10000E94610709CF833061F0843009F0BEC0A4
:102B20000E94BA0501CF83E08093B1040E944B0755
:102B3000FBCE8091A10487FFF7CE8091A6041F925F
:102B40008F938091A5041F928F938091A4048F93FB
:102B50008091A3048F93A6ECB1E0BF93AF931F9332
:102B60000F930E940F180FB6F894DEBF0FBECDBFB3
:102B7000D12C8D2D90E02091A1042F7030E0821790
:102B80009307C4F4FC01EF55FB4F86811F928F938E
:102B90005F924F92FF92EF920E940F18B701C80107
:102BA0000E94E317D3940F900F900F900F900F9007
:102BB0000F90DFCFC8010E940E050E9463088AEDC6
:102BC00091E00E940E058091A3049091A404892BAA
:102BD00009F4AACE62EB362E832D0E94D6016C0139
:102BE00080EE91E00E940E05C7FE52C088EF91E092
:102BF0000E940E05C6FE03C0C4FC0DC015C0809027
:102C0000A604912C8FEF830D0E94D6018816990699
:102C100009F03EC0F1CF8090A804912C81E40E947D
:102C2000D60188169906A1F582E0830D0E94D6018F
:102C30003C0181E0830D0E94D6014C0184E0830DAC
:102C40000E94D601282E83E0830D0E94D6019601B2
:102C500021703327322F2227260D371D4091A304E0
:102C60005091A4042427352792E0C922DD24DC2CCE
:102C7000CC24C80CD91C2C213D21232B49F4909144
:102C8000A5049225982321F485E0830D0E94D601A6
:102C9000A8E03A0EB2EC3B129FCF46CE1092B104A0
:102CA00043CE8E3F19F482E692E096CEF80180E0A2
:102CB00090E02191D601A80FB91F2C93019688307E
:102CC0009105B9F788E0C80ED11C74CEA29FB0015F
:102CD000B39FC001A39F700D811D1124911DB29F50
:102CE000700D811D1124911D0895991B79E004C078
:102CF000991F961708F0961B881F7A95C9F780953B
:102D00000895AA1BBB1B51E107C0AA1FBB1FA61732
:102D1000B70710F0A61BB70B881F991F5A95A9F784
:102D200080959095BC01CD01089597FB072E16F470
:102D3000009407D077FD09D00E94811607FC05D0CA
:102D40003EF4909581959F4F0895709561957F4FC2
:102D50000895052E97FB1EF400940E94C01657FD9F
:102D600007D00E94CE1607FC03D04EF40C94C01678
:102D700050954095309521953F4F4F4F5F4F0895A7
:102D800090958095709561957F4F8F4F9F4F0895D7
:102D9000EE0FFF1F0590F491E02D0994A1E21A2E89
:102DA000AA1BBB1BFD010DC0AA1FBB1FEE1FFF1FEF
:102DB000A217B307E407F50720F0A21BB30BE40B3F
:102DC000F50B661F771F881F991F1A9469F7609586
:102DD0007095809590959B01AC01BD01CF01089540
:102DE00004D06894B111E0C00895ACD088F09F572A
:102DF00090F0B92F9927B751A0F0D1F0660F771F47
:102E0000881F991F1AF0BA95C9F712C0B13081F026
:102E1000CAD0B1E00895C7C0672F782F8827B85F60
:102E200039F0B93FCCF3869577956795B395D9F787
:102E30003EF490958095709561957F4F8F4F9F4F91
:102E40000895E89409C097FB3EF49095809570959D
:102E500061957F4F8F4F9F4F9923A9F0F92F96E9E6
:102E6000BB279395F695879577956795B795F1115B
:102E7000F8CFFAF4BB0F11F460FF1BC06F5F7F4FF8
:102E80008F4F9F4F16C0882311F096E911C077230A
:102E900021F09EE8872F762F05C0662371F096E813
:102EA000862F70E060E02AF09A95660F771F881FE2
:102EB000DAF7880F9695879597F908955DD080F099
:102EC0009F3740F491110EF06FC060E070E080E831
:102ED0009FEB089526F41B16611D711D811D01C015
:102EE0001BC0882371F4772321F09850872B762F0D
:102EF00007C0662311F499270DC09051862B70E00E
:102F000060E02AF09A95660F771F881FDAF7880F1E
:102F10009695879597F908959F3F31F0915020F449
:102F2000879577956795B795880F911D96958795A5
:102F300097F9089557FD9058440F551F59F05F3F7A
:102F400071F04795880F97FB991F61F09F3F79F0CB
:102F500087950895121613061406551FF2CF46954D
:102F6000F1DF08C0161617061806991FF1CF8695CF
:102F70007105610508940895E5DFA0F0BEE7B91773
:102F800088F4BB279F3860F41616B11D672F782F81
:102F90008827985FF7CF869577956795B11D9395AC
:102FA0009639C8F30895E894BB2766277727CB01A5
:102FB00097F90895FB01DC0102C001900D92415088
:102FC0005040D8F70895FB01DC010D900020E9F78F
:102FD000119701900D920020E1F70895FB019F01E8
:102FE000E8944230C4F04532B4F44A3029F497FBF7
:102FF0001EF4909581959F4F642F77270E9481162C
:10300000805D8A330CF0895D8193CB010097A1F735
:1030100016F45DE251931082C9010C94191AAEE0C6
:10302000B0E0E5E1F8E10C94C71A0D891E8986E04D
:103030008C831A8309838FEF9FE79E838D83AE0174
:10304000475E5F4F6F89788DCE0101960E943118DF
:10305000EF81F885E00FF11F10822E96E4E00C94CA
:10306000E31AACE0B0E0E7E3F8E10C94B91A7C01B4
:103070006B018A01FC0117821682838181FFBDC129
:10308000CE0101964C01F7019381F60193FD8591E4
:1030900093FF81916F01882309F4ABC1853239F424
:1030A00093FD859193FF81916F01853229F4B701DA
:1030B00090E00E94291AE7CF512C312C20E02032D9
:1030C000A0F48B3269F030F4803259F0833269F425
:1030D00020612CC08D3239F0803339F4216026C054
:1030E0002260246023C0286021C027FD27C030ED66
:1030F000380F3A3078F426FF06C0FAE05F9E300DB4
:103100001124532E13C08AE0389E300D1124332E23
:1031100020620CC08E3221F426FD6BC1206406C0F3
:103120008C3611F4206802C0883641F4F60193FD14
:10313000859193FF81916F018111C1CF982F9F7D60
:103140009554933028F40C5F1F4FFFE3F9830DC0B3
:10315000833631F0833771F0833509F05BC022C0CC
:10316000F801808189830E5F1F4F44244394512CC2
:10317000540115C03801F2E06F0E711CF801A080F7
:10318000B18026FF03C0652D70E002C06FEF7FEFB6
:10319000C5012C870E940E1A2C0183012C852F77E4
:1031A000222E17C03801F2E06F0E711CF801A080CA
:1031B000B18026FF03C0652D70E002C06FEF7FEF86
:1031C000C5012C870E94031A2C012C852068222E11
:1031D000830123FC1BC0832D90E048165906B0F4F0
:1031E000B70180E290E00E94291A3A94F4CFF501E9
:1031F00027FC859127FE81915F01B70190E00E9435
:10320000291A31103A94F1E04F1A5108411451042F
:1032100071F7E5C0843611F0893639F5F80127FFDA
:1032200007C060817181828193810C5F1F4F08C04C
:1032300060817181882777FD8095982F0E5F1F4FE1
:103240002F76B22E97FF09C0909580957095619565
:103250007F4F8F4F9F4F2068B22E2AE030E0A401AD
:103260000E945B1AA82EA81844C0853729F42F7E27
:10327000B22E2AE030E025C0F22FF97FBF2E8F3624
:10328000C1F018F4883579F0B4C0803719F0883768
:1032900021F0AFC02F2F2061B22EB4FE0DC08B2DB8
:1032A0008460B82E09C024FF0AC09F2F9660B92EF3
:1032B00006C028E030E005C020E130E002C020E197
:1032C00032E0F801B7FE07C060817181828193818D
:1032D0000C5F1F4F06C06081718180E090E00E5F3F
:1032E0001F4FA4010E945B1AA82EA818FB2DFF7780
:1032F000BF2EB6FE0BC02B2D2E7FA51450F4B4FEAE
:103300000AC0B2FC08C02B2D2E7E05C07A2C2B2DB6
:1033100003C07A2C01C0752C24FF0DC0FE01EA0DFC
:10332000F11D8081803311F4297E09C022FF06C07F
:103330007394739404C0822F867809F0739423FDEC
:1033400013C020FF06C05A2C731418F4530C5718DE
:10335000732C731468F4B70180E290E02C870E940C
:10336000291A73942C85F5CF731410F4371801C003
:10337000312C24FF12C0B70180E390E02C870E941B
:10338000291A2C8522FF17C021FF03C088E590E091
:1033900002C088E790E0B7010CC0822F867859F010
:1033A00021FD02C080E201C08BE227FD8DE2B70162
:1033B00090E00E94291AA51438F4B70180E390E048
:1033C0000E94291A5A94F7CFAA94F401EA0DF11D2C
:1033D0008081B70190E00E94291AA110F5CF332017
:1033E00009F451CEB70180E290E00E94291A3A9484
:1033F000F6CFF7018681978102C08FEF9FEF2C9661
:10340000E2E10C94D51AFC01059061507040011066
:10341000D8F7809590958E0F9F1F0895FC016150FD
:10342000704001900110D8F7809590958E0F9F1FE6
:103430000895DC01FC01672F71917723E1F7329742
:1034400004C07C916D9370836291AE17BF07C8F37F
:1034500008950F931F93CF93DF93182F092FEB013C
:103460008B8181FD03C08FEF9FEF20C082FF10C0D2
:103470004E815F812C813D81421753077CF4E881A6
:10348000F9819F012F5F3F4F39832883108306C046
:10349000E885F985812F0995892B29F72E813F81B0
:1034A0002F5F3F4F3F832E83812F902FDF91CF914E
:1034B0001F910F910895FA01AA27283051F1203168
:1034C00081F1E8946F936E7F6E5F7F4F8F4F9F4FB8
:1034D000AF4FB1E03ED0B4E03CD0670F781F891FFA
:1034E0009A1FA11D680F791F8A1F911DA11D6A0FC8
:1034F000711D811D911DA11D20D009F468943F917B
:103500002AE0269F11243019305D3193DEF6CF0179
:103510000895462F4770405D4193B3E00FD0C9F73F
:10352000F6CF462F4F70405D4A3318F0495D31FDAC
:103530004052419302D0A9F7EACFB4E0A6959795FF
:10354000879577956795BA95C9F7009761057105D5
:1035500008959B01AC010A2E06945795479537951F
:103560002795BA95C9F7620F731F841F951FA01D79
:1035700008952F923F924F925F926F927F928F9217
:103580009F92AF92BF92CF92DF92EF92FF920F93F2
:103590001F93CF93DF93CDB7DEB7CA1BDB0B0FB6FC
:1035A000F894DEBF0FBECDBF09942A8839884888B9
:1035B0005F846E847D848C849B84AA84B984C8844F
:1035C000DF80EE80FD800C811B81AA81B981CE0F46
:1035D000D11D0FB6F894DEBF0FBECDBFED0108952B
:0435E000F894FFCF8D
:1035E40000000000000000006C6C6A6D2F6D6466C2
:1035F4002F74656D705F6174393063616E33322E80
:10360400786D6C00FFFFFFFFFFFFFFFC0000000070
:103614000000000274783A20253033782F253032A8
:10362400782F253032782F002F25303278005772CA
:103634006974696E6720617070207265673A20252D
:10364400780057726974696E672076616C75653AA3
:10365400202578004661696C656420746F206F7062
:10366400656E206368616E6E656C21210A00565395
:103674004350204154393043414E33320A0054659B
:103684006D70657261747572652073656E736F72A7
:103694000A004E6F646520696E697469616C697AA9
:1036A4006174696F6E0072783A20253033782F2563
:1036B4003032782F253032782F00646F444D0A0061
:1036C40064656275672020646F444D206368656398
:1036D4006B20726F77730A006465627567202064DB
:1036E4006F444D20726F7720656E61626C65640A69
:1036F40000427574746F6E20507265737365642133
:10370400004D6561737572696E672074656D7065CF
:103714007261747572652E0A005363616E6E696E10
:10372400672042757320666F7220445331385832D3
:1037340030004E6F2053656E736F7220666F756E26
:103744006400427573204572726F7200693A2025D5
:1037540069006465636963656C736975733A2025F0
:1037640069006465636963656C73697573203E3EC3
:1037740020383A2025690053656E64696E672064B9
:10378400617461206F6E207468652043414E20622D
:1037940075730A0046433A004352433A00534E3A83
:1037A4002000283138532900283138422900283292
:1037B40032290028203F202900204352432046413B
:1037C400494C200020435243204F2E4B2E200044CE
:1037D4005331385832305F73746172745F6D656150
:1037E400733A2053686F7274204369726375697405
:1037F400210D004E6F2053656E736F7220666F75D6
:103804006E640D00427573204572726F720D005321
:10381400503A0020545F7261773D005332302F30AC
:1038240039004232302F3132004232302F313100F0
:10383400204232302F313020004232302F303900D4
:103844002E00C2B043002A20494E56414C49442020
:103854002A0020636F6E763A20002064656369C293
:10386400B043200020666D743A200020C2B043208B
:1038740000445331385832305F77726974655F732E
:103884006372617463687061643A2053686F727420
:103894002043697263756974210D004453313858AB
:1038A40032305F726561645F736372617463687000
:1038B40061643A2053686F72742043697263756956
:1038C40074210D00445331385832305F636F70797E
:1038D4005F736372617463687061643A2053686FE4
:1038E40072742043697263756974210D0044533105
:1038F400385832305F726563616C6C5F45323A20D0
:1039040074696D656F7574210D00445331385832F4
:10391400305F726563616C6C5F45323A2053686F47
:0E39240072742043697263756974210D00008E
:00000001FF
