:100000000C9470000C948D000C948D000C948D0059
:100010000C948D000C948D000C948D000C948D002C
:100020000C948D000C948D000C948D000C948D001C
:100030000C948D000C948D000C948D000C948D000C
:100040000C9491000C948D000C948D000C948D00F8
:100050000C948D000C948D000C948D000C948D00EC
:100060000C948D000C948D000C948D000C948D00DC
:100070000C948D000C948D000C948D000C948D00CC
:100080000C948D000C948D000C948D000C948D00BC
:100090000C948D00DE08EF08650C650C650C0009FA
:1000A000650C11092209650C4B096B09650C650C7F
:1000B000650C650C650C650C650C650C650C650CB8
:1000C000C4096D0AB20A650C650C650CED0AF90AE3
:1000D0000A0B650C760B650C650C650C8E0BFA0B28
:1000E00011241FBECFEFD8E0DEBFCDBF12E0A0E0ED
:1000F000B1E0E6EFF2E202C005900D92A032B10746
:10010000D9F712E0A0E2B2E001C01D92A136B1071A
:10011000E1F70E949D0C0C9479110C940000089555
:1001200008951F920F920FB60F9211248F939F93F1
:1001300080915E0290915F02019690935F0280939E
:100140005E028091300290913102019690933102CB
:1001500080933002009906C0809142028F5F8093A5
:10016000420202C01092420201990AC0809122020A
:10017000909123020196909323028093220204C05F
:10018000109223021092220202990AC08091240246
:10019000909125020196909325028093240204C039
:1001A000109225021092240203990AC0809126021F
:1001B000909127020196909327028093260204C013
:1001C000109227021092260204990AC080912802F8
:1001D000909129020196909329028093280204C0ED
:1001E000109229021092280205990AC080912A02D1
:1001F00090912B02019690932B0280932A0204C0C7
:1002000010922B0210922A0206990AC080912C02A9
:1002100090912D02019690932D0280932C0204C0A0
:1002200010922D0210922C0207990AC080912E0282
:1002300090912F02019690932F0280932E0204C07A
:1002400010922F0210922E02809143028F5F8093B2
:10025000430280914402823041F48091430285360A
:1002600068F088B1805888B907C0813011F4479888
:1002700003C0811103C0479A109243029F918F914E
:100280000F900FBE0F901F9018952F923F924F9294
:100290005F926F927F928F929F92AF92BF92CF9216
:1002A000DF92EF92FF920F931F93CF93DF93CDB71F
:1002B000DEB7AF970FB6F894DEBF0FBECDBF4C01CF
:1002C000462E542E322E202E88E0801710F448E05F
:1002D000242E1F925F921F924F929F928F9285E3DE
:1002E00091E09F938F93FE0131965F01BF92EF9350
:1002F0000E94840E2E2D0FB6F894DEBF0FBECDBF28
:1003000067018E010F5D1F4F3AE4632E31E0732EBB
:100310008C2D821B8215C0F4F60181916F011F9212
:100320008F937F926F921F930F932FA70E94840E3B
:10033000B801C5010E94580E0F900F900F900F90BA
:100340000F900F902FA5E4CFC5010E946405A12C4A
:10035000B12C540199248824832D90E0A0E0B0E0D2
:100360002AE1880F991FAA1FBB1F2A95D1F7882A57
:10037000992AAA2ABB2A9428852889A29AA2ABA2E4
:10038000BCA281E08EA32DA2222039F0422D50E0A4
:10039000B701CE0187960E944F0E88ECF82EC80157
:1003A0000E942904882329F0FA94F110F8CF80E004
:1003B00001C081E0AF960FB6F894DEBF0FBECDBF8F
:1003C000DF91CF911F910F91FF90EF90DF90CF9031
:1003D000BF90AF909F908F907F906F905F904F9065
:1003E0003F902F9008956F927F928F929F92AF923D
:1003F000BF92CF92DF92EF92FF920F931F93CF9312
:10040000DF93CDB7DEB72E970FB6F894DEBF0FBEE1
:10041000CDBF6C014B013A015901CE0101960E94FA
:10042000A804892B21F589819A81AB81BC81F301D4
:100430008083F40190839D013170F6013183208324
:100440002AE1B695A795979587952A95D1F7877054
:10045000F50180834D81F8014083442351F050E041
:10046000BE01695F7F4FC7010E944F0E02C080E04E
:1004700001C081E02E960FB6F894DEBF0FBECDBF4F
:10048000DF91CF911F910F91FF90EF90DF90CF9070
:10049000BF90AF909F908F907F906F900895F99943
:1004A000FECF90E092BD81BDF89A80B590E00895AE
:1004B000F999FECF90E092BD81BD60BDFA9AF99A9C
:1004C00081E090E00895882389F1813011F482E47D
:1004D0002AC0823011F483E426C0833011F484E40E
:1004E00022C0843011F485E41EC0853011F486E406
:1004F0001AC0863011F487E416C0873011F488E4FE
:1005000012C0883011F489E40EC0893011F48AE4F5
:100510000AC08A3019F485B18095089590E9980F42
:10052000903130F48F5B0E944F02089580E208956D
:100530008FEF0895CF93811105C081E40E94580286
:1005400081E406C0813039F482E40E94580282E4DA
:100550000E944F024CC0823029F483E40E9458026A
:1005600083E4F6CF833029F484E40E94580284E4C3
:10057000EFCF843029F485E40E94580285E4E8CF67
:10058000853029F486E40E94580286E4E1CF863063
:1005900029F487E40E94580287E4DACF873029F4EF
:1005A00088E40E94580288E4D3CF883029F489E493
:1005B0000E94580289E4CCCF893029F48AE40E9451
:1005C00058028AE4C5CF8A3029F46160609565B924
:1005D00085B10CC090E9980F903138F4C1E4C80F90
:1005E0008C2F0E9458028C2FB3CF862F8095CF91ED
:1005F000089581E00E944F020895682F81E00C94D5
:10060000580281E10E944F02089582E10E944F0248
:1006100008950895089580E0089580E0089580E0A9
:100620000895E82FF0E0EB5DFE4F80810895089576
:10063000CF93C82F80E591E00E946405EC2FF0E095
:10064000E85FFE4F8081CF9108958C5F0E944F023A
:1006500008958C5F0C945802875F0E944F020895A2
:10066000875F0C94580280E1089588E0089581E046
:10067000089581E00E944F020895682F81E00C9454
:10068000580282E00E944F020895682F82E00C9485
:100690005802682F83E00C94580283E00E944F02B6
:1006A000089560E070E0CB01089560E070E0CB0158
:1006B00008950895FC0182E0808380E7818312829F
:1006C00013821482158216828AED91E00C946405DF
:1006D000CF93C82F83E08093330283E88093320264
:1006E00070E0709335026093340240933602C093F9
:1006F000370281E40E944F028093380283E48C0F1A
:100700000E944F0280933902CF910C94800782950A
:10071000807F8093ED001092EE001092EF00109217
:10072000F0001092F1001092F2001092F30010927B
:10073000F4001092F5001092F6001092F70088E095
:100740001092FA008150E1F70895CF93C0E08C2F0A
:100750000E948703CF5FCF30D1F7CF91089580916A
:10076000ED0021E030E0922F9295907F9093ED0084
:100770009091EF00907C31F09091EE0096FF06C0D2
:100780001092ED008093ED00C90108952F5F3F4F57
:100790002F30310541F78093ED008FEF9FEF0895E3
:1007A000843021F160F4813079F1C0F08230D1F0F1
:1007B000833009F043C028E14EE062E128C0873071
:1007C000E9F038F48530B1F08630C1F528E14EE02B
:1007D00017C08830B9F08F3FD1F030C028E14EE02B
:1007E00066EC15C028E14EE064E211C028E14EE05D
:1007F0006EE00DC028E14EE066E009C026E144E06D
:1008000062E005C022E1FBCF28E14EE062E66093A2
:10081000E2004093E3002093E4000E94A5031092BD
:10082000ED008091EF0080688093EF008091D80008
:1008300082608093D80080E090E008958DEF9FEF74
:100840000895E8EDF0E080818D7F808380E090E086
:100850000895CF93DF93EC010E94AF038F3F2FEFFA
:10086000920709F470C0982F9295907F9093ED00B5
:100870000E9487039D818C818F7090FF32C0805FC2
:100880008093EF009D818881880F880F880F92FDEB
:1008900084608093F000488159816A817B8195E072
:1008A00076956795579547959A95D1F74093F100BE
:1008B000488159816A817B812DE0769567955795AE
:1008C00047952A95D1F74093F200488159816A8172
:1008D0007B8135E176956795579547953A95D1F7A0
:1008E00019C08093EF008D8181FF03C084E0809365
:1008F000F00088818295880F807E8093F200488185
:1009000059816A817B8183E07695679557954795F4
:100910008A95D1F74093F30080E090E02C8130E09D
:100920008217930744F4FE01E80FF91F26812093F4
:10093000FA000196F3CF8091EF0080648093EF007E
:1009400080E090E002C08FEF9FEFDF91CF9108959C
:10095000CF92DF92EF92FF920F931F93FC011092C0
:10096000ED008091EE0085FF7AC015821082118221
:100970001282138214828091F00082FF02C082E012
:1009800085838091EF0084FF39C0858181608583F4
:10099000C090F3004091F2000091F1008091F000CE
:1009A00050E060E070E09DE0440F551F661F771F28
:1009B0009A95D1F7D12CE12CF12C25E1CC0CDD1C42
:1009C000EE1CFF1C2A95D1F74C0D5D1D6E1D7F1D81
:1009D00010E020E030E0A5E0000F111F221F331FC0
:1009E000AA95D1F7400F511F621F731F86958695F8
:1009F0008695480F511D611D711D11C08091F30036
:100A00004091F20042954695477050E098E0899FEA
:100A1000400D511D1124662757FD6095762F4083A8
:100A20005183628373832091EF002F70248380E0D1
:100A300090E0821748F43091FA00DF01A80FB91F47
:100A400016963C930196F5CF80E00E948703809133
:100A5000EF0080688093EF0080E090E002C08EEFAE
:100A60009FEF1F910F91FF90EF90DF90CF9008952F
:100A70008091D90090E008951092ED008093F300EA
:100A80006093F2004093F1002093F00080E090E04A
:100A900008951092ED008093F7006093F600409364
:100AA000F5002093F40080E090E008959091C80054
:100AB00095FFFCCF8093CE0008959091C80095FFDC
:100AC000FCCF8093CE0008951F93CF93DF93EC016A
:100AD0001991112349F01A3019F48DE00E9456053E
:100AE000812F0E945605F4CF8DE00E9456058AE0C2
:100AF000DF91CF911F910C9456051F93CF93DF93F5
:100B0000EC011991112349F01A3019F48DE00E947B
:100B10005605812F0E945605F4CFDF91CF911F918A
:100B20000895CF93DF93CDB7DEB72A970FB6F89429
:100B3000DEBF0FBECDBF4AE050E0BE016F5F7F4F0A
:100B40000E94630E0E9464052A960FB6F894DEBFD9
:100B50000FBECDBFDF91CF9108958F708A3010F016
:100B6000895C01C0805D0C945D05CF93C82F829590
:100B70008F7090E00E94AD058C2F90E0CF910C9487
:100B8000AD0582E0809344020E94F902811101C008
:100B90008FEF80935B021092490210924A021092EA
:100BA0004C0210924B0210924D021092320210929F
:100BB00033021092350210923402109236021092D3
:100BC000460210925A02109240021092590210925C
:100BD0003F021092600210925D0210925C0210922D
:100BE0005F0210925E021092480210924702109229
:100BF0005802109241021092450208950E9441034A
:100C0000807C803459F08FEF0E94FD0280E00E94CA
:100C1000450380EA0E94490380E0089581E0089539
:100C20001092440208958091490287FF1BC0809171
:100C30004B0290914C02892B19F580914D02863020
:100C4000F9F480914F028F3FD9F480915002809344
:100C50005B020E94FD0280E40E94450383E08093D2
:100C60005902089580915E0290915F02893E9340FF
:100C700038F08FEF80935B020E94FD020C94C10557
:100C800008950E944103811117C0809149028F701D
:100C90008530B1F40E94410390914F02891781F091
:100CA000892F0E9445038FEF80935B020E94FD0213
:100CB00081E080935902089580914F020C9445037E
:100CC0000895809149028F70823079F490915B028F
:100CD00080914F02981309C08091500280935B026B
:100CE0000E94FD0280E40C9445030895809149021E
:100CF0008F7099F020915B0290914F0229130DC0E3
:100D0000813021F080915002811107C08FEF8093D4
:100D10005B020E94FD020C94C1050895803829F4FD
:100D200080915A0210925A020895813809F443C002
:100D3000823809F442C0833809F441C0843911F47F
:100D40000C940B03853911F40C940D03863911F4BE
:100D50000C940F03893818F484580C94250397E7F2
:100D6000980F983018F4892F0C942C03813919F4BA
:100D700080915B020895833919F480915C02089593
:100D8000823919F480915D020895873911F40C9429
:100D90003303883911F40C943503893911F40C9418
:100DA000370390E3980F903118F4892F0C941103B6
:100DB000805E0C94180381E0089585E0089580E03A
:100DC000089587FD0C948E060C946302CF93E62F52
:100DD0006095CCE7C80FC53040F46E2F8C2F0E9471
:100DE00029038C2FCF910C942503823969F46E2F3F
:100DF00070E0762F662780915C02682B70935D020D
:100E000060935C02672F74C0833959F460915C026F
:100E100070915D0266276E2B70935D0260935C0299
:100E200067C0C7E7C80FC830A8F480915C029091F2
:100E30005D02492F50E04F3F510509F059C08F3FE7
:100E400009F056C06E2F8C2F0E9430038C2FCF914B
:100E50000C942C03C0E3C80FC031A0F480915C0255
:100E600090915D02292F30E02F3F310509F040C0FD
:100E70008F3FF1F56E2F8C2F0E9417038C2FCF918F
:100E80000C941103C6E6C80FC43018F40E94510335
:100E900006C0C2E6C80FC43098F40E94550323E090
:100EA00030E02C1B310943E0220F331F4A95E1F754
:100EB00004C096958795779567952A95D2F718C0BF
:100EC000823AB1F4E53531F41092480210924702AB
:100ED00065E50EC0EA3A61F48091470290914802BC
:100EE000883E934020F40E9459036AEA01C060E002
:100EF000862FCF91089587FD0C94E6060C949A02F4
:100F0000EF92FF920F93009132020F7087E3E82E69
:100F100082E0F82E2091330240915B02609136020C
:100F200080913402909135020E944501811105C0E3
:100F3000909146029F5F909346020F91FF90EF9031
:100F4000089581E8809332021092330210923502A4
:100F50001092340282E08093360280915B0280938B
:100F600037020E94800781E0809344020895209117
:100F70003F02213091F120F0223009F480C07DC081
:100F8000809140028F3FA1F091E89093320210923D
:100F90003302109235021092340292E0909336029E
:100FA000809337020E94800781E080933F022CC02B
:100FB00094E09093590291E8909332028093370223
:100FC00087E080933302109235021092340283E05E
:100FD000809336020E94800752C08091490287FFA9
:100FE0001EC080914B0290914C02892B09F047C0A2
:100FF00080914D02833009F042C0809140028111FE
:1010000008C082E08093590210925F0210925E0243
:1010100036C08F5F8093400210923F021AC08091C9
:101020005E0290915F02893E934048F18091600298
:101030008F5F80936002833000F1809140028111C4
:101040000BC02093400210923F0210925F02109258
:101050005E021092600213C080935B0293E0909353
:10106000590210923F020E94FD0280E40E94450353
:10107000109260020E94A10702C010923F021092DB
:101080004902089593E89093320297E090933302D7
:1010900024E130E0309335022093340299E09093BC
:1010A00036021092370280933802609339020C9412
:1010B0008007CF93DF931F92CDB7DEB780915802A0
:1010C0008F5F8C3318F48093580213C0109258022B
:1010D000809141028F5F8093410280915902833059
:1010E00041F40E94050389830E94010369810E94E3
:1010F0004208809141028C3338F010924102809175
:1011000045028F5F8093450280914502883110F03F
:101110001092450280915902833069F42091570260
:101120002F5F822F8F7090E002971CF4209357025C
:1011300002C0109257020F90DF91CF9108958091D5
:1011400049028F708130A1F490915B0280914F022F
:1011500098130EC080E880933202109233021092EE
:1011600035021092340283E0809336020C9480079B
:1011700008956F927F928F929F92AF92BF92CF927B
:10118000DF92EF92FF920F931F93CF93DF931F9203
:10119000CDB7DEB780914B0290914C02892B09F0BC
:1011A00094C380914D0290E0FC013197E632F10545
:1011B00008F08BC3E65BFF4F0C94490E0F90DF9154
:1011C000CF911F910F91FF90EF90DF90CF90BF9044
:1011D000AF909F908F907F906F900C9441060F90EE
:1011E000DF91CF911F910F91FF90EF90DF90CF9003
:1011F000BF90AF909F908F907F906F900C949F08BE
:101200000F90DF91CF911F910F91FF90EF90DF90A2
:10121000CF90BF90AF909F908F907F906F900C94E5
:1012200061060F90DF91CF911F910F91FF90EF908A
:10123000DF90CF90BF90AF909F908F907F906F90F6
:101240000C947606809149028F70823009F03DC37C
:1012500090915B0280914F02981337C380915002A6
:1012600087FD03C00E94630202C00E948E06809325
:101270003802809150028093370283E080933302DA
:1012800082E88093320210923502109234028AE092
:101290008093360209C3109149021F70133009F080
:1012A00014C390915B0280914F0298130EC38091FA
:1012B00050026091510287FD03C00E949A0202C051
:1012C0000E94E60680933802809150028093370294
:1012D00010933302D5CF90915B0280914F02981307
:1012E00006C080915002893011F40E940903909148
:1012F0005B0280914F029813E8C2809150028130C6
:1013000009F0E3C280E00E94110390915102891319
:10131000DCC283E00E941103909152028913D5C26E
:1013200085E00E941103909153028913CEC287E099
:101330000E941103909154028913C7C280915C02EC
:1013400090915D02492F55272091550230E04217B8
:10135000530709F0BAC299272091560230E082174C
:10136000930709F0B2C20F90DF91CF911F910F91B7
:10137000FF90EF90DF90CF90BF90AF909F908F90B5
:101380007F906F900C94090380914F0282958F702B
:10139000813041F138F0823009F444C0833009F4DF
:1013A00061C082C080E00E941103909150028913B5
:1013B0007DC081E00E94110390915102891376C093
:1013C00082E00E9411039091520289136FC083E062
:1013D0000E94110390915302891368C080915702B3
:1013E00080615FC084E00E941103909150028913D4
:1013F0005DC085E00E94110390915102891356C08F
:1014000086E00E9411039091520289134FC087E039
:101410000E94110390915302891348C08091570292
:1014200080623FC088E00E941103909150028913AE
:101430003DC089E00E94110390915102891336C08A
:101440008AE00E9411039091520289132FC08BE011
:101450000E94110390915302891328C08091570272
:1014600080641FC08CE00E94110390915002891388
:101470001DC08DE00E94110390915102891316C086
:101480008EE00E9411039091520289130FC08FE0E9
:101490000E94110390915302891308C08091570252
:1014A00080688093570202C01092570280915702C1
:1014B000807F803F09F009C20F90DF91CF911F918B
:1014C0000F91FF90EF90DF90CF90BF90AF909F90E3
:1014D0008F907F906F900C94C10590915B028091EA
:1014E0004F029813F2C1D0905002E0905102812C2B
:1014F000912CF12C07E0C02E83E0B82E9AE1A92EA2
:101500000E2D10E001501109882D8E1408F0DDC158
:101510006C2D0E943D0E882D8D0D99830E94E10651
:101520009981E92FF0E0EE5CFD4F8683963029F03B
:101530008016910699F49F5F01C097E09F579093A2
:101540003202B09233021092350210923402A0920D
:101550003602F09237020E948007F3948FEF881AC8
:10156000980AD2CF90915B0280914F029813ADC13F
:10157000D09050029091490292509770B1E5EB2EB5
:10158000B2E0FB2E18E3A12E12E0B12E8701DA188B
:10159000802F8E19891788F4F80161918F01CA2C68
:1015A000CD0C8C2D99830E947B078C2D0E94E10627
:1015B000F50181935F019981EBCF83E08093330242
:1015C00010923502109234028AE180933602109212
:1015D00037029F579093320267C190915B028091CE
:1015E0004F02981372C1809150020E94630261E021
:1015F0000BC090915B0280914F02981366C180915D
:1016000050020E9463026FEF680F809150020E94A7
:101610009A022DCE80914F0290915B02981719F09B
:101620008F3F09F052C183E08093330288E88093B2
:101630003202109235021092340280E28093360218
:1016400000E010E0AFE0EA2E10933702FE2CF01A13
:10165000F8E3CF2EF2E0DF2E0F5F8F2D0E941103F3
:10166000F60181936F01013130F0EAE3EE2EE2E002
:10167000FE2E10E00CC0FA94FFE3CF16F2E0DF0676
:1016800059F70E9480071F5F1330F1F6EECF812FCC
:101690000E941803882331F0812F0E941803F7015C
:1016A000808302C0F70110821F5FFFEFEF1AFF0A6D
:1016B000153069F70E94800773E0F72EF092370229
:1016C00068E3C62E62E0D62E00E0802F810F0E94D4
:1016D0001803F60181936F010F5F0730B1F7195FAF
:1016E0000E948007F394113249F7EFC090915B029A
:1016F00080914F029813E9C083E08093330287E81A
:1017000080933202109235021092340282E280936A
:10171000360287E392E00E945A03C6C090915B02B2
:1017200080914F029813D1C0809149028F7090E050
:10173000049724F0A0905302A11002C0AA24A394FD
:1017400000915C0210915D02309150022091510293
:10175000822F90E0932B90935D0280935C0283E054
:1017600080933302109235021092340287E2809304
:101770003602109237023093380220933902B12C8E
:10178000EA2CF12C5BE3C52E52E0D52EC7018B1954
:10179000910904971CF49A2C9B1802C044E0942EE3
:1017A00084E8890D80933202809152028B0D8093E0
:1017B0003A023BE3632E32E0732E962D9C19991565
:1017C00050F4809152028B0D890F0E94E106F301C3
:1017D00081933F01F2CF0E948007B90C80913702BC
:1017E0008F5F80933702BA1488F210935D020093E2
:1017F0005C026BC090915B0280914F02981365C0B0
:1018000000915C0210915D028091500290E0982F4F
:10181000882720915102822B90935D0280935C0275
:10182000F09052026F2D70E090915202492F50E0DB
:10183000809149028F70282F30E024503109240F05
:10184000351F621773079CF46B01C41AD50AF4E0C4
:10185000CF0ED11CF601E75BFD4F66818F2D0E94F4
:101860007B07F601EE5CFD4F8583F394DBCF10938D
:101870005D0200935C0223E0209333028058809342
:101880003202109235021092340287E280933602BF
:101890001092370280915002809338028091510259
:1018A0008093390290933A020F90DF91CF911F916C
:1018B0000F91FF90EF90DF90CF90BF90AF909F90EF
:1018C0008F907F906F900C9480070F90DF91CF9155
:1018D0001F910F91FF90EF90DF90CF90BF90AF904E
:1018E0009F908F907F906F900895EF92FF920F934B
:1018F0001F938091490287FD18C08FE4E82E82E093
:10190000F82E09E412E02AE432E04EE452E06DE4FD
:1019100072E08BE492E00E94F301882341F0909101
:10192000490290689093490203C081E001C080E0C1
:101930001F910F91FF90EF900895CF93DF93CDB754
:10194000DEB7A3970FB6F894DEBF0FBECDBF8FEF03
:1019500082B911B884B985B987B988B91092C8001D
:1019600086E08093CA001092CD0089E18093CC007C
:1019700088E18093C90082E080936E008DE387BD8B
:101980008CE084BD789420E040E060E084E00E9438
:10199000D003892B21F083E791E00E9464058DE854
:1019A00091E00E9464058DE991E00E9464050E9427
:1019B000FE05882391F00E94C105CE0101967C01AD
:1019C0006AE4462E61E0562E6E019FE1C90ED11CDD
:1019D00074EDA72E7EEFB72E80C060E081E40E94F8
:1019E000580260E082E40E94580260E083E40E94B2
:1019F000580260E084E40E94580260E085E40E949E
:101A0000580260E086E40E94580260E087E40E9489
:101A1000580260E088E40E94580260E089E40E9475
:101A2000580260E08AE40E94580260E08BE40E9461
:101A3000580211EB60E0812F0E9458021F5F113C99
:101A4000C9F7B9CF80915902813069F0AFEFA09307
:101A50005B026FEF81E00E9458020E94C10580EB9B
:101A600091E00E946405109249020E94750C8091D9
:101A7000300290913102893E934030F01092310251
:101A8000109230020E945908809159028230D9F197
:101A900078F5811127C080915B028F3F89F581E045
:101AA0008093590202E212E0912CF80120813181E9
:101AB000293C310564F08FE092E00E94640543E028
:101AC00064E1892D0E946803D801AD92BC92939481
:101AD0000E5F1F4FB7E09B12E8CF80914202893C16
:101AE00010F2B0CF813009F0C5C00E94B707DACF3D
:101AF000833061F0843009F0BDC00E941006D2CF5F
:101B0000E3E0E09359020E94A107CCCF8091490203
:101B100087FFC8CF80914E021F928F9380914D0214
:101B20001F928F9380914C028F9380914B028F93E1
:101B3000A4ECB1E0BF93AF93FF92EF920E94840EAA
:101B40000FB6F894DEBF0FBECDBF10E0812F90E03E
:101B5000209149022F7030E082179307C4F4FC01F2
:101B6000E75BFD4F86811F928F935F924F92DF92CA
:101B7000CF920E94840EB601C7010E94580E1F5FCB
:101B80000F900F900F900F900F900F90DFCFC70125
:101B90000E9464050E94B90888ED91E00E946405E6
:101BA00080914B0290914C02892B09F47BCF52EB30
:101BB000352E832D0E944F028C018EED91E00E9404
:101BC000640507FF50C086EF91E00E94640506FFA0
:101BD00003C004FD0CC014C080904E02912C8FEF06
:101BE000830D0E944F0288169906E9F5F2CF809086
:101BF0005002912C81E40E944F028816990699F5B3
:101C000082E0830D0E944F023C0181E0830D0E941F
:101C10004F024C0184E0830D0E944F02282E83E086
:101C2000830D0E944F02980121703327322F222703
:101C3000260D371D60914B0270914C0226273727E5
:101C400002701127102F0027080D191D20233123A2
:101C5000232B49F490914D029225982321F485E09D
:101C6000830D0E944F0298E0390EA2EC3A1609F457
:101C700019CF9FCF1092590215CF991B79E004C05C
:101C8000991F961708F0961B881F7A95C9F78095BB
:101C90000895EE0FFF1F0590F491E02D0994FB01CC
:101CA000DC0102C001900D9241505040D8F70895D8
:101CB000FB01DC010D900020E9F7119701900D92D6
:101CC0000020E1F70895FB019F01E8944230C4F041
:101CD0004532B4F44A3029F497FB1EF4909581956F
:101CE0009F4F642F77270E942E11805D8A330CF05E
:101CF000895D8193CB010097A1F716F45DE25193C2
:101D00001082C9010C948E10AEE0B0E0EAE8FEE06B
:101D10000C9450110D891E8986E08C831A830983E7
:101D20008FEF9FE79E838D83AE01475E5F4F6F8984
:101D3000788DCE0101960E94A60EEF81F885E00F06
:101D4000F11F10822E96E4E00C946C11ACE0B0E030
:101D5000ECEAFEE00C9442117C016B018A01FC016B
:101D600017821682838181FFBDC1CE0101964C018D
:101D7000F7019381F60193FD859193FF81916F01A6
:101D8000882309F4ABC1853239F493FD859193FF23
:101D900081916F01853229F4B70190E00E949E1075
:101DA000E7CF512C312C20E02032A0F48B3269F0A7
:101DB00030F4803259F0833269F420612CC08D32C6
:101DC00039F0803339F4216026C02260246023C0BA
:101DD000286021C027FD27C030ED380F3A3078F455
:101DE00026FF06C0FAE05F9E300D1124532E13C06B
:101DF0008AE0389E300D1124332E20620CC08E32C2
:101E000021F426FD6BC1206406C08C3611F42068D5
:101E100002C0883641F4F60193FD859193FF8191CC
:101E20006F018111C1CF982F9F7D9554933028F475
:101E30000C5F1F4FFFE3F9830DC0833631F083370A
:101E400071F0833509F05BC022C0F801808189837D
:101E50000E5F1F4F44244394512C540115C0380188
:101E6000F2E06F0E711CF801A080B18026FF03C064
:101E7000652D70E002C06FEF7FEFC5012C870E94D7
:101E800083102C0183012C852F77222E17C0380157
:101E9000F2E06F0E711CF801A080B18026FF03C034
:101EA000652D70E002C06FEF7FEFC5012C870E94A7
:101EB00078102C012C852068222E830123FC1BC066
:101EC000832D90E048165906B0F4B70180E290E007
:101ED0000E949E103A94F4CFF50127FC859127FECD
:101EE00081915F01B70190E00E949E1031103A94F9
:101EF000F1E04F1A51084114510471F7E5C08436DE
:101F000011F0893639F5F80127FF07C0608171812A
:101F1000828193810C5F1F4F08C060817181882787
:101F200077FD8095982F0E5F1F4F2F76B22E97FF6B
:101F300009C090958095709561957F4F8F4F9F4F09
:101F40002068B22E2AE030E0A4010E94D010A82E12
:101F5000A81844C0853729F42F7EB22E2AE030E03D
:101F600025C0F22FF97FBF2E8F36C1F018F48835C7
:101F700079F0B4C0803719F0883721F0AFC02F2F27
:101F80002061B22EB4FE0DC08B2D8460B82E09C026
:101F900024FF0AC09F2F9660B92E06C028E030E0CB
:101FA00005C020E130E002C020E132E0F801B7FED8
:101FB00007C060817181828193810C5F1F4F06C0D1
:101FC0006081718180E090E00E5F1F4FA4010E944C
:101FD000D010A82EA818FB2DFF77BF2EB6FE0BC081
:101FE0002B2D2E7FA51450F4B4FE0AC0B2FC08C0FD
:101FF0002B2D2E7E05C07A2C2B2D03C07A2C01C0F0
:10200000752C24FF0DC0FE01EA0DF11D8081803387
:1020100011F4297E09C022FF06C07394739404C092
:10202000822F867809F0739423FD13C020FF06C029
:102030005A2C731418F4530C5718732C731468F437
:10204000B70180E290E02C870E949E1073942C854B
:10205000F5CF731410F4371801C0312C24FF12C0CF
:10206000B70180E390E02C870E949E102C8522FF10
:1020700017C021FF03C088E590E002C088E790E028
:10208000B7010CC0822F867859F021FD02C080E292
:1020900001C08BE227FD8DE2B70190E00E949E1007
:1020A000A51438F4B70180E390E00E949E105A9482
:1020B000F7CFAA94F401EA0DF11D8081B70190E0F9
:1020C0000E949E10A110F5CF332009F451CEB70124
:1020D00080E290E00E949E103A94F6CFF70186814C
:1020E000978102C08FEF9FEF2C96E2E10C945E1176
:1020F000FC010590615070400110D8F780959095D3
:102100008E0F9F1F0895FC016150704001900110D7
:10211000D8F7809590958E0F9F1F0895DC01FC01E4
:10212000672F71917723E1F7329704C07C916D930B
:1021300070836291AE17BF07C8F308950F931F9382
:10214000CF93DF93182F092FEB018B8181FD03C003
:102150008FEF9FEF20C082FF10C04E815F812C81E6
:102160003D81421753077CF4E881F9819F012F5F7D
:102170003F4F39832883108306C0E885F985812F76
:102180000995892B29F72E813F812F5F3F4F3F8390
:102190002E83812F902FDF91CF911F910F91089562
:1021A000FA01AA27283051F1203181F1E8946F9388
:1021B0006E7F6E5F7F4F8F4F9F4FAF4FB1E03ED02E
:1021C000B4E03CD0670F781F891F9A1FA11D680FCC
:1021D000791F8A1F911DA11D6A0F711D811D911DFF
:1021E000A11D20D009F468943F912AE0269F112474
:1021F0003019305D3193DEF6CF010895462F4770D8
:10220000405D4193B3E00FD0C9F7F6CF462F4F7032
:10221000405D4A3318F0495D31FD4052419302D090
:10222000A9F7EACFB4E0A695979587957795679536
:10223000BA95C9F700976105710508959B01AC0136
:102240000A2E06945795479537952795BA95C9F75D
:10225000620F731F841F951FA01D0895AA1BBB1B2F
:1022600051E107C0AA1FBB1FA617B70710F0A61B96
:10227000B70B881F991F5A95A9F780959095BC01B7
:10228000CD0108952F923F924F925F926F927F926D
:102290008F929F92AF92BF92CF92DF92EF92FF9276
:1022A0000F931F93CF93DF93CDB7DEB7CA1BDB0B22
:1022B0000FB6F894DEBF0FBECDBF09942A883988C7
:1022C00048885F846E847D848C849B84AA84B984CE
:1022D000C884DF80EE80FD800C811B81AA81B981DA
:1022E000CE0FD11D0FB6F894DEBF0FBECDBFED01EE
:0622F0000895F894FFCFF1
:1022F60000000000000000006C6C6A6D2F6D6466C3
:102306002F74656D706C5F6174393063616E333242
:102316002E786D6C00000000000000000000000038
:10232600000403020174783A20253033782F2530D3
:1023360032782F253032782F0A002F253032780058
:1023460050617373696E67207468726F7567682071
:10235600767363705F6765744D44465F55524C28CB
:10236600290A004661696C656420746F206F706588
:102376006E206368616E6E656C21210A00565343B8
:1023860050204154393043414E33320A0054656D72
:10239600706C617465206669726D776172650A009A
:1023A6004E6F646520696E697469616C697A6174DF
:1023B600696F6E0072783A20253033782F253032D7
:1023C600782F253032782F00646F444D0A006465FB
:1023D6006275672020646F444D20636865636B20D7
:1023E600726F77730A0064656275672020646F44B4
:1023F6004D20726F7720656E61626C65640A0042DB
:102406007574746F6E205072657373656421000075
:00000001FF
