:020000040000FA
:06000000A0EF14F0120055
:06000800CBEF04F0120032
:02000E00037776
:0600100066554433221185
:06001800CBEF04F0120022
:02002A001200C2
:02002E000001CF
:0E00300002030405060708090A0B0C0D0E0F4B
:02003E000200BE
:1000400033250000E90300000100000096290000AC
:08005000FD02000003000000A6
:080058006BEC0DF0080EE1262F
:1000600081A0F28203019CAB09D0200E0201FD5D4C
:1000700004E1FD6B03019C9B01D0FD2BDF6A020EA6
:10008000DF5C36E2EBEC0FF0010B30E0F5EC0DF04D
:1000900027EC0DF0EECF14F0EECF15F0EECF16F00A
:1000A000EFCF17F0D950010FE96EDACFEAFF000168
:1000B0001450EE5C106E1550EE58116E1650EE583E
:1000C000126E1750EE58136ED880680E1054890EB9
:1000D0001154090E1254000E135408E2EAEC0EF00B
:1000E000EF6A180EE66E250E5FEC0DF0DF2AC7D71B
:1000F00003019C51010B4AE09C51020B47E19CAB70
:1001000004D081B0FCD7F282FAD7F298040EE66EE2
:10011000730E3FEC0DF0E66A030EE66E25EC0FF071
:10012000020F0101006F7F0E005D24E2200EE66EDB
:10013000010E3FEC0DF003019C839C959C91010EF8
:10014000DF6E020E01010025D880DF541AE3DF5074
:10015000116A000F106E030E112210C0E6FF11C0CD
:10016000E6FF25EC0FF0E66EDF5032EC0FF0C9EC45
:100170000FF0E7D7010EE66E1B0E3FEC0DF003010A
:100180009C91F288E66A730E3FEC0DF003019CA38C
:1001900060D28B6BCC0E01010215E76E050EE7CF26
:1001A000DBFFDB50880A01E153D2080A01E150D29B
:1001B000880A01E14DD2840A01E14AD2400A31E0C5
:1001C000040A01E045D2FF0E065D50E1FF0E075D17
:1001D0004DE103018B89010101AD10D097EC0EF0C8
:1001E000080EDF5C04E2080E58EC0DF0F9D7130E90
:1001F00083EC0EF0100E996F010E37D008C18EF30C
:1002000009C18FF3DF6A080EDF5C04E20A0E58ECC6
:100210000DF0F9D7150E83EC0EF0120E996F010E4A
:1002200024D001AD10D097EC0EF0080EDF5C04E294
:100230000E0E58EC0DF0F9D7190E83EC0EF0160ED9
:10024000996F010E12D00EC18EF30FC18FF3DF6ACA
:10025000080EDF5C04E2100E58EC0DF0F9D71B0E0F
:1002600083EC0EF0180E996F010E9A6F010101A731
:1002700021D029EC0EF0010A12E0050A0EE0030A73
:100280000CE0040A08E0050A06E0040A02E0070A96
:1002900009E1150E05D00D0E03D0090E01D0050E93
:1002A0000301985F050E03019925996F000E9A21AD
:1002B0009A6F8B8303019D95070E01010115030AB7
:1002C00006E0020A01E0C4D103019D8502D00301CA
:1002D0008B810101000532EC0FF0EFCF8CF3005160
:1002E00032EC0FF0EFCF8DF303019DB5ABD199C385
:1002F000E9FF9AC3EAFFEF50840A01E18BD1070AB4
:1003000001E1ECD0870A01E1E9D0960A01E1D0D001
:10031000030A01E174D0130A48E0030A01E091D115
:10032000060EDB6A010EB4EC0DF08A5D01E08AD1A5
:100330008E1D01E18F1D0FE088518E1902E1895158
:100340008F1909E09851020806E2F20EF36E060ECC
:10035000F3CFDBFF06D0E8EC09F0E76E060EE7CF3F
:10036000DBFF03019D51100B08E1060EDB0405E0E5
:10037000060EDB50020801E065D1866B45EC0DF0FE
:10038000910EEF6E45EC0DF0060EDBCFEFFFDB506C
:1003900003E0060EDB0404E145EC0DF0010EEF6E08
:1003A0008B51020B28E0010E26D0866B45EC0DF038
:1003B000920EEF6EDF6A0A0EDF5C10E2DF50E2ECB5
:1003C0000FF00AE0F2EC0EF007E0F8EC0FF003019A
:1003D00045EC0DF0EF6A02D0DF2AEDD70A0EDF5CA4
:1003E00005E1030145EC0DF0F00EEF6E03018B51BA
:1003F000020B01E0010EE66E010EE66E01D1010E68
:10040000B4EC0DF0020A08E0020A03E0010A01E080
:1004100019D1E8EC09F016D19DAF02D09D9F12D101
:10042000DF6A9E51DF5C28E293EC0FF0EFCF10F013
:100430000B0E8A25105C1EE193EC0FF0EECF11F04D
:10044000EECF12F0EECF13F0EFCF14F08E51131861
:1004500011E18F5114180EE193EC0FF0EE52EFCF33
:1004600010F08D51105C08E293EC0FF0EE528DC34A
:10047000EFFF02D0DF2AD5D79E51DF5C01E0E2D04A
:10048000100EDF5C01E3DED093EC0FF08AC3EFFFC8
:1004900093EC0FF0EE528DC3EFFF93EC0FF0020ED2
:1004A0004DEC0DF08EC3EEFF8FC3EDFF9E2BCAD037
:1004B000010EB4EC0DF001E0C5D0DF6A0A0EDF5C7E
:1004C00001E3C0D0DF50E2EC0FF006E0F2EC0EF0FA
:1004D00003E0F8EC0FF0B6D0DF2AF0D7866BDF6AC6
:1004E000020EDF5C01E387D0EBEC0FF0010B01E1C2
:1004F00080D0EBEC0FF0020B4CE0070EDB6A0A0E2B
:10050000F36E070E70EC0DF074E2EEEC0EF099EC69
:100510000FF0EF50FF083AE012EC0EF0EEEC0EF0A8
:10052000E9CF14F0EACF15F0070EDB5093EC0DF095
:10053000EF502FEC0DF0E9CF12F0EACF13F09EEC64
:100540000FF024E0EEEC0EF099EC0FF0EF68070EE0
:10055000DB6A3EEC0FF007E27EEC0FF020EC0EF0D1
:1005600011EC0FF0F6D7EBEC0FF0080B01E0010EE9
:10057000E66EEBEC0FF0040B01E0010EE66E12EC00
:100580000EF070EC0FF0BBEC0DF060D0070EDB2A24
:10059000B6D712EC0EF0EEEC0EF065EC0DF0ACEC14
:1005A0000DF027E0070EDB6A3EEC0FF006E27EEC72
:1005B0000FF0070E11EC0FF0F7D7EBEC0FF0080B74
:1005C00001E0010EE66EEBEC0FF0040B01E0010E12
:1005D000E66EEEEC0EF065EC0DF070EC0FF00BEC4F
:1005E00007F0126E070EE15E1250EAEC0EF0EF6AB1
:1005F00002D0DF2A75D7020EDF5C24E1E66AE66AE4
:1006000012EC0EF08EC3E6FF8FC3E6FFE66ABBEC8A
:100610000DF018D0010EB4EC0DF08A5D13E1020E5E
:10062000B4EC0DF0E66EA1EC0BF0E552020EE66EB6
:10063000250E5FEC0DF003018A390F0B62EC0EF012
:1006400001D09D850301985101E19D9503019DA570
:1006500008D8080EE15C02E2E16AE552E16E75EF4E
:100660000DF003019D95F298E66A010E3FEC0DF046
:1006700003019C939C85F288120096EC0FF0F250D7
:10068000100B01E0010EDF6EF2988B9004EC0EF07F
:10069000030ED89011321032E804FBE17F0E1014E3
:1006A000800988EC0EF004EC0EF0050ED8901036A0
:1006B0001136E804FBE1E00E1014100988EC0EF08E
:1006C000FC0E23EC0EF08B80DF50E8B0F288E8A03F
:1006D000F298E55275EF0DF096EC0FF0F250100B1A
:1006E00001E0010EDF6EF2988B90FE0E23EC0EF00F
:1006F000FD0E23EC0EF08B80DF50E8B0F288E8A00E
:10070000F298E55275EF0DF0A4EC0FF001E0010E48
:10071000A4EC0EF0FE0E23EC0EF0ABEC0EF0E8B005
:10072000F288E8A0F298DF50106E020EE15C02E25F
:10073000E16AE552E16E105075EF0DF0A4EC0FF098
:1007400001E0010EA4EC0EF004EC0EF0030ED890C4
:1007500011321032E804FBE17F0E1016000E111664
:10076000800E101088EC0EF004EC0EF0050ED89000
:1007700010361136E804FBE1E00E101488EC0EF0A0
:10078000ABEC0EF0E8B0F288E8A0F298DF50106E03
:10079000020EE15C02E2E16AE552E16E105075EF93
:1007A0000DF06BEC0DF0FE0EDBCF8AF3DB5002098F
:1007B000E66EE66A020EA9EC0DF0040EE66E6D0E12
:1007C0003FEC0DF0E66A6D0E3FEC0DF075EF0DF0AD
:1007D00082EC0FF08B94D7EC0EF0AAEC0FF006E24F
:1007E000010EDB2A020EF9E3DB2AF7D78B84D7EC64
:1007F0000EF0AAEC0FF006E2010EDB2A020EF9E37E
:10080000DB2AF7D7070EE66E550E3FEC0DF0540EBF
:1008100037EC0EF0DF6E070EDF14F9E1D7EC0EF0C7
:100820000BEC0EF0E80E105C030E115806E2010E00
:10083000DB2A020EF5E3DB2AF3D7010EE66E1B0E70
:100840003FEC0DF0E668070E3FEC0DF0E668090E90
:100850003FEC0DF088C3E6FF030E3FEC0DF089C3BB
:10086000E6FF050E3FEC0DF0DF6A080EDF5C0AE2E2
:10087000DF5050EC0EF0DF50E8240B0F3FEC0DF092
:10088000DF2AF3D7020EE66EE66AA9EC0DF0800EC1
:10089000E66E020EE66EA9EC0DF0E66A030E2AEC97
:1008A0000FF0900EE66E060E2AEC0FF0800EE66E4C
:1008B000070E2AEC0FF0100EE66E080E2AEC0FF071
:1008C000010EE66E200E2AEC0FF0800EE66E750E1D
:1008D0003FEC0DF0400ECCEC0FF0600EE66E7F0E9C
:1008E0003FEC0DF0980EE66E310E3FEC0DF0950EDC
:1008F000E66E5D0E3FEC0DF00F0E9FEC0EF0DF6E1E
:10090000A00EDF14A008F8E1E60EE66E650E3FECDF
:100910000DF0B90EE66E250E3FEC0DF0010EE66E01
:100920002AEC0FF0030EE15C02E2E16AE552E16EAF
:1009300075EF0DF096EC0FF00301340E886F120E78
:10094000896F46DF03019C6B9D6B9C859D87DF6AE9
:100950000A0EDF5C04E2F8EC0FF0DF2AF9D71EEC98
:1009600014F00301866BD6CF87F3F292F28881A050
:10097000F282DF6A020EDF5C05E2EAEC0EF0EF6A5B
:10098000DF2AF8D70301010E826F836B846B856BBE
:10099000E55275EF0DF0D8CFE4FFE0CFE4FFE46E51
:1009A000DACFE4FFE2CFDAFFE9CFE4FFEACFE4FFFA
:1009B000F6CFE4FFF7CFE4FFF5CFE4FFF3CFE4FF9A
:1009C000F4CFE4FFFACFE4FF00EE00F0100EE804ED
:1009D00003E3EECFE4FFFBD700EE10F0080EE804CF
:1009E00003E3EECFE4FFFBD7E6526BEC0DF0130E02
:1009F000E126F250100B01E120D1F250020B01E18F
:100A00001CD1F292620E37EC0EF0DF6E68EC0EF045
:100A1000010B22E003019C9B0201FD6B03019CADD5
:100A200009D1480E37EC0EF0DCEC0EF0B2EC0EF013
:100A3000010B0CE003019D8BB2EC0EF0200B03E0E8
:100A40000201FE2BF7D00201FF2BF4D003019C9D85
:100A50000201FE6BFF6BEED068EC0EF0080B17E0A6
:100A600003019CA5E2D09CA90CD05E0E37EC0EF0E1
:100A7000E76E030EE7CFDBFF03019C99DBA205D0F5
:100A8000D4D09CA702D09C97D0D09C81D3D068ECC6
:100A90000EF0100B01E1C7D0060EF36E040EF3CF7B
:100AA000DBFF010E17EC0EF0DBBC03D0020E3CECBA
:100AB0000EF0020E17EC0EF0DB500C0B0C0802E1EE
:100AC000080E01D0020E3CEC0EF0120EDB6A080E8E
:100AD000D0EC0FF00AE2040EDB501D6A000FBFECF1
:100AE0000DF0050FE3EC0DF0F2D7120EDB6A040EE9
:100AF000D0EC0FF00AE2040EDB501D6A080FBFECC9
:100B00000DF00D0FE3EC0DF0F2D7040EDB50196A77
:100B10000C0F186E030E192218C0E6FF19C0E6FF6D
:100B200025EC0FF0E76E120EE7CFDBFFB9EC0EF00D
:100B3000F36E120EDB50F35C3DE1040EDB6A0A0E2D
:100B4000D4EC0FF019E2040EDB50E2EC0FF011E0F0
:100B5000D950050FE66E000EDA20E66E040EDB506B
:100B60002FEC0DF0E9CF18F0EACF19F09EEC0FF062
:100B700003E1040EDB2AE3D70A0ED4EC0FF02DE2DA
:100B8000040E5FEC0FF0EECF18F0EECF19F0EECFC1
:100B90001AF0EFCF1BF0D9500D0FE96EDACFEAFF54
:100BA00000011850EE5C1950EE581A50EE581B50C8
:100BB000EE5808E2800EE66E590E3FEC0DF0030190
:100BC0009C870BD0040E5FEC0FF0C0EC0EF00F0E04
:100BD000DBCFEEFF100EDBCFEEFF03019CB72AD078
:100BE000040EDB6A100ED4EC0FF013E2040E46EC98
:100BF0000EF0040EDB50196AB00F186E020E1922A7
:100C000018C0E6FF19C0E6FF38EC0FF0040EDB2A2F
:100C1000E9D703019C8929EC0EF0080DF350400937
:100C2000E66E590E05D0DF5005E0010EE66E1B0E94
:100C30003FEC0DF0DF5001E0E4D6F2A409D0F2AAB7
:100C400007D0F2940101FE2BFE5102E10101FF2BBE
:100C5000F250080B04E0F250010B01E0F290130E89
:100C6000E15C02E2E16AE552E16EE552E7CFD9FFCD
:100C7000E55200EE17F0080EE80403E3E5CFEDFFC0
:100C8000FBD700EE0FF0100EE80403E3E5CFEDFF15
:100C9000FBD7E5CFFAFFE5CFF4FFE5CFF3FFE5CFD4
:100CA000F5FFE5CFF7FFE5CFF6FFE5CFEAFFE5CFAC
:100CB000E9FFE5CFDAFFE550E5CFE0FFE5CFD8FF6C
:100CC000100082EC0FF0DF6A020EDF5C01E398D0C7
:100CD000EBEC0FF0010B01E091D0EAEC0EF0EF80AD
:100CE000FE0EE6EC0FF0FD0EEF14F310EF6EF90EB2
:100CF000E6EC0FF0F346FB0EEF14F310EF6EF80E78
:100D0000E6EC0FF0F346F346F70EEF14F310EF6E38
:100D100027EC0DF0040E4DEC0DF0FC0EDBCFEEFFDA
:100D2000FD0EDBCFEDFFD950FA0FC7EC0EF00EE051
:100D3000010EDB6A080E86EC0FF036E2010E1BECAA
:100D40000FF0EEEC0EF046EC0FF0F4D7020EDB6A7B
:100D5000010EDB6A0A0E86EC0FF016E2010EDB5084
:100D6000EEEC0FF00EE1EEEC0EF06BEC0FF0020E7D
:100D7000DBCFF3FFDB2AF35093EC0DF0010EDBCF5A
:100D8000EFFF010EDB2AE6D70A0E2EEC0FF00CE285
:100D9000EEEC0EF06BEC0FF0020EDB5093EC0DF06E
:100DA000EF68020EDB2AF0D727EC0DF0110E4DECA8
:100DB0000DF086C3EFFF010EDB6A0301865186EC5E
:100DC0000FF008E2010E59EC0EF07EEC0FF046EC4D
:100DD0000FF0F3D728EC14F005C011F006C012F0A4
:100DE00007C013F027EC0DF004C0EEFF11C0EEFFBA
:100DF00012C0EEFF13C0EEFF010E03D0DF2A64D74E
:100E0000000E106E030EE15C02E2E16AE552E16E53
:100E1000105075EF0DF06BEC0DF0080EE126010E91
:100E2000DB6A03019CAB04D081B0FBD7F282F9D717
:100E3000F90EDB5002E0030E01D0010E8DEC0EF036
:100E4000FC0EDBCF10F0FD0EDBCF11F08851101837
:100E500012E1895111180FE1FE0EDB5002E00F0E76
:100E600001D0150EDF6E020EDB8C010EF36E030E49
:100E7000F3CFDBFF09D0FE0EDB5002E0110E01D0F4
:100E8000170EDF6E030EDB6AF80EDB5002E0020E77
:100E9000DB869D51080B05E0FE0EDB5002E1020EE1
:100EA000DB8ADFCFE6FF36EC0DF0F80EDB5005E015
:100EB000DF5003018625050F03D0DF50030186258F
:100EC000E66E36EC0DF0020EB0EC0FF002E0C80E4C
:100ED00001D0CC0EE66E36EC0DF003018751872B66
:100EE000E66E36EC0DF0FC0EDBCFE6FF36EC0DF0D7
:100EF000FD0EB0EC0FF007E0E66836EC0DF0E668AA
:100F000036EC0DF00CD0020EDB6A080E2EEC0FF062
:100F100006E2020E1BEC0FF08AEC0FF0F6D7030E80
:100F2000DB5008E188C3E6FF36EC0DF089C3E6FF2D
:100F300036EC0DF0020EDB6A080E2EEC0FF007E225
:100F4000020EDB5050EC0EF08AEC0FF0F5D7F80EE5
:100F5000DB5046E0800EF36E060EF3CFDBFF020E91
:100F6000F36E070EF3CFDBFF020EDB6A040E2EECEE
:100F70000FF00CE2020EDB50EA6A820FE96E030EFC
:100F8000EA22EF50E66E8AEC0FF0F0D70301822BD5
:100F9000000E832384238523B9EC0EF0E66E36EC35
:100FA0000DF0020EDB6A100E2EEC0FF013E2020EB3
:100FB00046EC0EF0020EDB50116A800F106E020E2E
:100FC000112210C0E6FF11C0E6FF38EC0FF0020E50
:100FD000DB2AE9D729EC0EF0E66E590E3FEC0DF056
:100FE000020EDB6A030186512EEC0FF006E2020EC0
:100FF00059EC0EF08AEC0FF0F5D7866B9C8B9D5167
:10100000080B08E0FE0EDB5005E1050E8DEC0EF03E
:101010009C8D04D0010E8DEC0EF09C9DF80EDB50E3
:1010200002E0020EDB82020EDBCFE6FF370E3FEC62
:101030000DF0040EDB6A050EDB6A81A0F28203016B
:101040009CBB04D09DAB13D09D9B0FD0040EDB2A1C
:10105000DBCF10F0050E01E3DB2ADBCF11F0FE0E33
:10106000D8801054FF0E1154E8E2000E04D00201A3
:10107000FE6BFF6B010E106E080EE15C02E2E16A8E
:10108000E552E16E105075EF0DF096EC0FF0DF6A4F
:101090000A0EDF5C18E2DF50E6EC0EF0EFCF10F046
:1010A000800E105C05E3DF50E6EC0EF071EC0EF004
:1010B000DF50EEEC0FF005E1DBEC0DF002DE8EEC24
:1010C0000FF0DF2AE5D7DBEC0DF0BBEC0DF0E552BD
:1010D00075EF0DF06BEC0DF0FE0EDB50E2EC0FF057
:1010E00017E0FE0EDB50E6EC0EF0EF50030B0208AB
:1010F00007E1F7EC0EF0E66AE4DD126E070E05D0AC
:10110000F7EC0EF008D8126E060EE15E125001D018
:10111000000E75EF0DF096EC0FF0DF6A0A0EDF5C43
:1011200012E2DF50EEEC0FF00CE1DF50FCEC0FF0C0
:1011300064EC0FF0ACEC0DF004E0D1EC0DF0C1DD8F
:1011400005D0DF2AEBD7D1EC0DF065DE8EEC0FF089
:10115000E55275EF0DF096EC0FF0DF6A080EDF5CDC
:1011600019E2DF50E76EFD0EDBCFE9FFFE0EF3EC78
:101170000FF0EFCF10F0DF50E76EFB0EDBCFE9FF93
:10118000FC0EF3EC0FF0EF50105C02E0000E03D009
:10119000DF2AE4D7010EE55275EF0DF06BEC0DF090
:1011A0000F0EE12628EC14F004C0DEFF05C0DEFFC0
:1011B00006C0DEFF07C0DDFFDD52DD5203019D5199
:1011C000100B01E0010EE76E040EE7CFDBFF050E0A
:1011D000DB6A060EDB6A080EF36E070EF3CFDBFF49
:1011E000080EDB6A090EDB6A0A0EDB6A9D899D8D9B
:1011F00003019DAD79D028EC14F00B0E04C0DBFF89
:101200000C0E05C0DBFF0D0E06C0DBFF0E0E07C087
:10121000DBFF0B0EDBCF14F00C0EDBCF15F00D0E49
:10122000DBCF16F00E0EDBCF17F0D9CFE9FFF2ECD3
:101230000DF0240E1054F40E1154000E1254000E32
:1012400013544FE2D9CFE9FFDACFEAFF0B0EDBCF21
:10125000EEFF0C0EDBCFEEFFC0EC0EF0050EDB2A2E
:10126000FE0EDB50F36E050E70EC0DF0C1E3050EC3
:10127000DB6A060EDBCF10F0070EDBCF11F0080E95
:10128000DBCF12F0090EDBCF13F00A0EDB501F0B81
:1012900003E030EC0EF0FDE199EC0DF007E10A0EF1
:1012A000DB2ADB500F08E5E20A0EE2D70A0EDB3834
:1012B00077EC0EF0F20EE66E240E5FEC0DF00A0EE7
:1012C000DB5062EC0EF00A0EDB2A4DEC0FF0DDDB9A
:1012D000010EEF6EE66AE66E000EE66EE66AB6ECAA
:1012E0000FF02CEC00F084D7040EDB50E8B09D89A1
:1012F000E8A09D999B51106E0F0EE15C02E2E16A3D
:10130000E552E16E1050F1D32CEC00F003019D5139
:10131000040B01E0010E1200DEDB020EE1260A0ED4
:10132000F36EFE0EDDDB22E2C00EE66E240EC7DB9E
:10133000FE0EDB50E2EC0FF044E0FE0EDBCFE6FFEA
:1013400076EC0FF0DF6A080EDF5C0DE2FE0EDB507C
:1013500086DB20EC0EF0D880DF540F01E4DB71EC6B
:101360000EF0DF2AF0D756EC0FF02BD0C00EE66E51
:10137000240EA5DBDF6A0A0EDF5C23E2DF50E2EC1D
:101380000FF01DE0DFCFE6FF76EC0FF0010EDB6A19
:10139000080E86EC0FF011E2DF5061DB6EEC0EF010
:1013A000DBCFE6FF070EE552D880E7540F01BBDB29
:1013B00071EC0EF0010EDB2AEBD756EC0FF0DF2AB2
:1013C000DAD7020EE15C02E2E16AE552E16E8DD30A
:1013D00082EC0FF0010EDB6A020EDB68030E0301E4
:1013E000985D02E2020E4DD0DF6A0A0EDF5C17E262
:1013F000DF50E2EC0FF00AE0F2EC0EF00EE0020E2D
:10140000DFCFDBFFDE52010EDD6E09D0020EDB50B6
:10141000FF0803E1020EDFCFDBFFDF2AE6D7020E73
:10142000DB50FF0802E1F10E2CD003019DA927D06B
:10143000DF6A080EDF5C0DE2BBEC0FF0EF50E66EEA
:10144000020EDB500CDBDF500F016DDBC9EC0FF03F
:10145000F0D7020E030188DB8009E66E020EDB5036
:10146000E6EC0EF0FFEC0FF0020E5FEC0FF0EE6A10
:10147000EE6AEE6AEE6A020EDBCF9BF39D9D010ED3
:10148000DB50106E030EE15C02E2E16AE552E16EB0
:1014900010502BD320DB100EE126010EDB6A080E64
:1014A0008DEC0EF0030EDB6A040EDB6A050E8AC3B8
:1014B000DBFFDF6A100EDF5C05E2DF50F2DAEF6877
:1014C000DF2AF8D703019E6BDF6A100EDF5C52E261
:1014D000A2DB030EDBCF12F0040EDBCF13F0DF50E4
:1014E0001F0B02E0BDDBFEE124DB42E0DF3877ECDE
:1014F0000EF04DEC0FF00E0EDB680F0EDB68CBEC40
:101500000EF00E0EDBCFE6FF0F0EDBCFE6FF010E77
:10151000E66E31DB28EC14F0060E04C0DBFF070E8C
:1015200005C0DBFF080E06C0DBFF090E07C0DBFFAE
:101530002CEC00F028EC14F00A0E04C0DBFF0B0EBC
:1015400005C0DBFF0C0E06C0DBFF0D0E07C0DBFF86
:101550000A0EDBCF14F00B0EDBCF15F00C0EDBCF39
:1015600016F00D0EDBCF17F0D950060FC2DAE0E20D
:10157000DF2AABD7050EC1DB03019E51106E100EA2
:10158000E15C02E2E16AE552E16E1050AED2A3DA0C
:10159000130EE126020EDB68030EDB6A080EF36E03
:1015A000040EF3CFDBFF050EDB6A060EDB6A930E3B
:1015B000E66E240E84DADF6A100EDF5C01E3B3D03E
:1015C000030EDBCF10F0040EDBCF11F0050EDBCFE6
:1015D00012F0060EDBCF13F0DF501F0B02E040DBF2
:1015E000FEE1A7DA01E19DD0080EDB6ADF387FDB80
:1015F00028EC14F0090E04C0DBFF0A0E05C0DBFF67
:101600000B0E06C0DBFF0C0E07C0DBFF800ECCEC20
:101610000FF07C0E2CDBE76E070EE7CFDBFFDB5015
:10162000010B0108F6E1100E8ADBE76E070EE7CF2B
:10163000DBFFDBCF10F0080EDB50D880105406E241
:10164000070EDB50E76E080EE7CFDBFF28EC14F047
:101650000D0E04C0DBFF0E0E05C0DBFF0F0E06C033
:10166000DBFF100E07C0DBFF0D0EDBCF14F00E0EFC
:10167000DBCF15F00F0EDBCF16F0100EDBCF17F01F
:10168000D950090F36DAC2E2880EE66E240E17DA58
:101690000B0EDF24E66E51EC13F0E552850EE66E7C
:1016A000240E0DDA050E106E0C6E080EDBCF07F05F
:1016B000AEEC14F0110E07C0DBFF120EDB6A110E48
:1016C000DB50D0EC0FF008E22D0EE66E3BEC13F091
:1016D000E552120EDB2AF3D7830EE66E240EEFD905
:1016E000080EDBCFE6FF42EC13F0E552020EDB50B2
:1016F000F36E080EF5D915E2080EDB505DDBDF5006
:10170000100D010EF3CFDBFFD950F80F40DB09E0DD
:10171000F80EDBCFE9FFF90EDBCFEAFF020EDBCFDD
:10172000EFFFDF2A49D7400ECCEC0FF0010EDB5063
:10173000106E130EE15C02E2E16AE552E16E1050B8
:10174000D4D1C9D9090EE126DF6A030EDF5C38E285
:101750004CDA28EC14F0050E04C0DBFF060E05C0C1
:10176000DBFF070E06C0DBFF080E07C0DBFF050E20
:10177000DBCF14F0060EDBCF15F0070EDBCF16F033
:10178000080EDBCF17F0D950010FE96E2BDA3C0EB3
:1017900010543C0E1154000E1254000E1354D9E292
:1017A0000301866B72D9840EEF6E6FD98AC3EFFF87
:1017B0006CD9FE0EDBCFEFFFEEDAD8DBDF2AC5D720
:1017C000FE0E9BDA090EE15C02E2E16AE552E16E8F
:1017D0008CD1D9CFE6FFE1CFD9FF0F0EE126020E63
:1017E0008AC3DBFF28EC14F0030E04C0DBFF040EF9
:1017F00005C0DBFF050E06C0DBFF060E07C0DBFFE2
:1018000003019D8FDF6A030EDF5C01E3D3D0070E77
:10181000DB6A080EF36E080EF3CFDBFF090EDB6AFE
:101820000A0EDB6A010EDB6A03019DAFAED028EC25
:1018300014F00B0E04C0DBFF0C0E05C0DBFF0D0E19
:1018400006C0DBFF0E0E07C0DBFF0B0EDBCF14F074
:101850000C0EDBCF15F00D0EDBCF16F00E0EDBCF2E
:1018600017F0D950030FE96EDACFEAFFEE50145C9F
:10187000106EEE501558116EEE501658126EEE5056
:101880001758136ED8803C0E10543C0E1154000EA5
:101890001254000E135476E2D9500B0FE96EDACFD2
:1018A000EAFF030EEECFDBFF040EEECFDBFF050EEB
:1018B000EECFDBFF060EEECFDBFF070EDBCF10F027
:1018C000080EDBCF11F0090EDBCF12F00A0EDBCFD2
:1018D00013F0010EDB501F0B07E0D89010361136C5
:1018E00012361336E806F9E1D950F90FE96EFF0E0A
:1018F000DA20EA6EEE501016EE501116EE50121667
:10190000EE501316105011101210131008E1010EB2
:10191000DB2A010EDB500F0801E249D0CED7010EC1
:10192000DB38F00BE66ED1EC03F0E552010EDB2A5A
:101930000301866B03018651862BEA6A7F0FE96EED
:10194000010EEA22810EEF6E03018651862BEA6AB0
:101950007F0FE96E010EEA228AC3EFFFE66A010EED
:10196000E66EFD0EDBCFE6FFFE0EDBCFE6FF88C3A3
:10197000E6FF89C3E6FFE66A0BEC07F0106E070E80
:10198000E15E10502CEC00F04FD75B0EE66E240E9B
:10199000E66E24EC13F0E552E55203018A390F0B91
:1019A0000B0FE66E51EC13F0E552010E0DD0000066
:1019B000DF2A29D7020EDBCFE6FFD1EC03F0E55298
:1019C00003019D9F000E00D0106E0F0EE15C02E23D
:1019D000E16AE552E16E1050E552E7CFD9FF1200FF
:1019E00091DA010E8AC3DBFFD9CFE6FFDACFE6FF3B
:1019F000D950FB0FDDDAEECFE6FFEECFE6FFD2D90E
:101A00000A0EE66EC4DD8ADAD7D9010E76D9010E48
:101A1000DB50F36E020EDB50F35C02E1000E0ED0E1
:101A2000450EE66E240E4BD8020EDB380F0B4AD95A
:101A3000020EDBCFE6FF85DEE552010E106E030ECF
:101A4000E15C02E2E16AE552E16E10504ED0DF50F7
:101A50007C0DB3DA000EE926020EEA2212000D0D0B
:101A6000ACDA000EE926030EEA221200010EDBCFEB
:101A7000F3FFDB2AF350E66EE66A38EF0FF0E66E0E
:101A80006CEC03F0E552E55212008651862BEA6AAF
:101A90007F0FE96E010EEA221200E926000EEA220B
:101AA0001200040D8ADA9F0EE926030EEA221200C4
:101AB000DF24D8D9EF50E66E5EDAC9EF0FF0E66E9C
:101AC00024EC13F0E552E552120005DAE9CFE6FF07
:101AD000EACFE6FF1200D9CFE6FFE1CFD9FF12002F
:101AE000DBCFF4FFF350F45C1200E552E7CFD9FFEF
:101AF0001200E96E87D9FE0EDB50040DF3CFF6FF1E
:101B0000F4CFF7FFD80EF626280EF7221050090062
:101B1000F55C11500900F55812500900F5581350A2
:101B20000900F5581200E924E96E000EEA20EA6E79
:101B30001200D950FA0F3CDAEE501016EE50111682
:101B4000EE501216EE501316105011101210131002
:101B50001200E66E38EF0FF0ABEC08F0E552E552FC
:101B6000E552E55200091200EA6A9925E96E9A5198
:101B7000EA22EF5012000BEC07F08EEF0FF01C6E14
:101B8000030E1D22120EDB5000011C241A6E000EE3
:101B90001D201B6E1AC0E6FFE66E57D9E66ED950BF
:101BA0001200F90EDBCFE6FFFA0EDBCFE6FF8CD991
:101BB000E9D9E66A120088D9000EE66EE66AE2D933
:101BC000010EE66E1200186EDACF19F0120EDB501D
:101BD0000F011824E96E000EDA20EA6E10DA120EF8
:101BE000DB2A12000FD9D880120028EC14F0010E65
:101BF00004C0DBFF020E05C0DBFF030E06C0DBFFE7
:101C0000040E07C0DBFF1200FD0EDBCF10F0FE0E4E
:101C1000DBCF11F01200010EDBCF10F0020EDBCF94
:101C200011F01200900EE66E030EE66E1200E66EE4
:101C3000030EE66E0AD9E76E110EE7CFDBFF120046
:101C40004AD9070E1200DBCFE6FF8AEC14F0E5520A
:101C50001200D60EF66E280EF76E0800F550120030
:101C6000D8901036113612361336E8061200E66E9A
:101C700084EC03F0E5521200186E040EDBCFE7FF90
:101C80001850E726040EE7CFDBFF1200DB50F76A9F
:101C90002E0FF66E000EF7220800F550E66E1200C9
:101CA000F76A0E0FF66E000EF7220800F550E66E8A
:101CB0001200DB50EA6A7F0FE96E010EEA22EF5054
:101CC000E66E12000B0FE66E51EC13F0E5521200B7
:101CD000D9CFE9FFDACFEAFFEF501200FCD8010EAE
:101CE0001200EF50E66E42EC13F0E5521200F00BDA
:101CF000E66ED1EC03F0E5521200DBCFE6FFD1EC4B
:101D000003F0E55212000101005D0301986F12001B
:101D1000E66E8AEC14F0E5521200F36E020EF3CF79
:101D2000DBFF120088C3E6FF89C3E6FF1200030150
:101D30008B8704C18EF305C18FF3DF6A1200E66E54
:101D4000020EE66E25EF0FF0E76E010EE7CFDBFF28
:101D5000F2988B9012009BEC14F0DF6E8B80010EDA
:101D6000DB501200D950020FE96EDACFEAFFEF50D4
:101D70001200D70EF66E280EF76E0800F55012000E
:101D80000D0EDBCFEEFF0E0EDBCFEEFF120010D9F3
:101D9000EE50ED101200E66A010EE66E000EE66EE1
:101DA000E66A1200EECFE6FFEFCFE6FF1200010E6B
:101DB000DB6A020EDB6A1200E76E020EE7CFDBFF82
:101DC00012001050010BF36EF346120048DE0C0EA9
:101DD0004DEF0DF03CDE100E4DEF0DF038DE060E2F
:101DE0004DEF0DF0DF5008D91DDFACEF0DF0FC0E0C
:101DF000DBCFE6FFFD0EDBCFE6FFFE0EDB50FCD8AF
:101E000092EF0EF0DACFEAFFEE50145C106EEE5057
:101E10001558116EEE501658126EEE501758136E7C
:101E20001200DB5080DEEF50E66E03012EDEE7D8B5
:101E3000070EDB2A1200DB50E76EFA0EDBCFE9FF5C
:101E4000FB0ED1D8EF50E66E12009EEC03F0E55287
:101E5000E5521200E66E020EA9EF0DF0F36E020ECF
:101E600070EF0DF0EA6A000FE96E010EEA2212002F
:101E70003DEC03F0E552E552E5521200E8DD110EAB
:101E80000CDEEF50F36E070E70EF0DF027DFDB5026
:101E90004ADEB5D8010EDB2A12000301866BF5DDA0
:101EA000810EEF6EF2DD8AC3EFFF1200AD0EE66E1B
:101EB000240E05DEAA0EE66E240E5FEF0DF0DB5059
:101EC000CEDD080E4DEF0DF0FB0EDBCFE6FFFC0E76
:101ED000DBCFE6FF1200E9CF10F0EACF11F01200DD
:101EE000B6DD040EDADD5EDFE66A120042EC13F0C6
:101EF000E552B20EE66E240E5FEF0DF0A8DD120E75
:101F00004DEF0DF0E8DD030EE1261200F36E010E39
:101F100070EF0DF0ABDD020EDB2A1200106E070E23
:101F2000E15E105012009E5151EF0DF0D4DDE652EB
:101F3000120086DEDB500F0193EF0DF0E9CFE6FFD4
:101F4000EACFE6FFACEF0DF0C6DD020EE126F2505F
:101F5000100B120060DE2C0E105C010E11581200E6
:101F6000DBCFE6FF83DDFE0EDB501200DBDE010E71
:101F7000E66EBBEF0DF0DF50EA6A900FE96E030EDC
:101F8000EA221200FD0EDBCFE6FFFE0EDBCFE6FFFE
:101F9000120035D8DF2A1200E66E7D0E3FEF0DF0FD
:101FA000F36E120E70EF0DF0F36E040E70EF0DF085
:101FB000E96EFF0EDA20EA6E1200F3CFE9FFF4CFEC
:101FC000EAFF120003DFEF50800B1200DB50106EAF
:101FD00001DFE1EF0EF0FEDEEF501200F7DEEF5012
:101FE000830B82081200DBCFEAFFE7504DEF0DF0C4
:101FF000DF50ECDEEF6A120032DD65EF0DF0E552E6
:06200000E750EF6E120034
:0A200600D9CFE6FFE1CFD9FF070EA6
:10201000E1269AEC12F01DEC13F09AEC04F0F28E2B
:102020002E0EE66E240E51D980900301E969140E3C
:10203000E66E240E4AD968D9090EE66E4AEC0AF01B
:10204000106E050EE15E1050DF6EDF50000849E2B1
:10205000FA0EE66E230E39D9010EDB6ADF50F36EFD
:10206000010EDBCFF4FFF350F45C3BE2F00EE66EC2
:10207000230E51D9EF3841D9E60EE66E230E4BD927
:10208000EE5235D9DB0EE66E230E45D9020EE92657
:10209000000EEA22010EE926000EEA2228D91BD9F9
:1020A000020EE926000EEA2222D9D80EE66E230E91
:1020B00032D9EECF10F0EECF11F0EECF12F0EFCF1D
:1020C00013F0030188510001121808E1030189513E
:1020D0000001131803E1FFD8EFCFE9F3010EDB2A6B
:1020E000BDD7FF0E0301E95D28E1BE0EE66E230EAB
:1020F000ECD8D9CFE6FFDACFE6FF06D90A0EE66EB6
:10210000C7EC0AF0106E070EE15E10500301E96F94
:10211000B30EE66E230E02D98E0EE66E230ED5D8D0
:10212000DFCFE6FF42EC13F0E552760EE66E230EAB
:10213000F5D8D80EE66E230EC8D8E9C3E6FFD1EC79
:1021400003F0E55203019D89808084EC09F00009C9
:1021500048E0630EE66E230EB8D803018BA304D0CB
:102160005A0EE66E230EB1D803018BA904D0450E9A
:10217000E66E230E03D0320EE66E230EA6D88DC374
:10218000E6FF42EC13F0E5522B0EE66E230E9DD8CF
:10219000DF6A080EDF5C0BE2070ED880DF54EA6AC4
:1021A000900FE96E030EEA22A2D8DF2AF2D7260E9C
:1021B000E66E230E8AD8DF6A03019851DF5C0DE2D8
:1021C000DF50EA6A9925E96E9A51EA22EF50E66EED
:1021D0003BEC13F0E552DF2AEFD7807231EC03F0CD
:1021E000B4D7B3EC12F0E76E020EE7CFDBFFDB50A3
:1021F000020A46E0030AA9E1146A080E156E166A7F
:10220000176A03018A390F0B1F0B07E0D8901436A9
:10221000153616361736E806F9E1141C106E151C33
:10222000116E161C126E171C136E030E10C0DBFF0E
:10223000040E11C0DBFF050E12C0DBFF060E13C03B
:10224000DBFF106AF80E116E1268070E136ED9507C
:10225000030FE96EDACFEAFFEE501016EE501116BA
:10226000EE501216EE50131610C0E6FF11C0E6FF36
:1022700012C0E6FF13C0E6FFF0EC0CF0E55221D0EF
:102280000301866BDF6A410EDF5C15E2DF50F76AFF
:102290005C0FF66E270EF7220800F550E66E8651A9
:1022A000862BEA6A7F0FE96E010EEA22E552E750BB
:1022B000EF6EDF2AE8D7010EE66EE66AE66A6AECA0
:1022C00008F0E552E552E55240D7E66E24EC13F0F3
:1022D000E552E5521200010EDB50040DF3CFE9FF89
:1022E000F4CFEAFF9F0EE926030EEA221200EF5018
:1022F000E66E42EC13F0E55212000F0B0B0FE66E88
:1023000051EC13F0E5521200E66AF80EE66EE6684C
:10231000070EE66E1200D9DF6BEF11F0D6DF030176
:06232000E9397DEF11F028
:0A2326003A200D0A002066726F6D68
:102330002000556E69636173742077697468205258
:10234000535349200042726F616463617374207754
:102350006974682052535349200053656375726550
:102360006420000D0A5265636569766564205061DA
:10237000636B657420000D0A5374617274205041C0
:102380004E206174204368616E6E656C20002048A9
:102390006173204C65617374204E6F69736520779B
:1023A000697468204D6178696D756D205253534989
:1023B0003A20000D0A4368616E6E656C20000D0ABC
:1023C0005374617274696E6720456E657267792017
:1023D0005363616E2E2E2E000D0A002020205041E6
:1023E0004E49443A2000202020525353493A2000BD
:1023F0004368616E6E656C3A20000D0A4163746932
:102400007665205363616E20526573756C74733A00
:10241000200D0A000D0A5374617274696E672041C1
:102420006374697665205363616E2E2E2E000D0A4B
:102430005374617274696E67205032502044656D28
:102440006F2E2E2E000D0A486F7070696E67207413
:102450006F204368616E6E656C20000D0A526573D3
:10246000796E6368726F6E697A656420436F6E6E11
:10247000656374696F6E20746F204368616E6E656A
:102480006C200020003A20000D0A4368616E6E65E2
:102490006C20000D0A456E65726779205363616E8A
:1024A00020526573756C74733A000D0A0020202069
:1024B000200020202020202020202020202020005C
:1024C0000D0A0D0A436F6E6E656374696F6E20208E
:1024D000202020506565724C6F6E674164647265A0
:1024E0007373202020202050656572496E666F0D41
:1024F0000A000D0A5363616E206368616E6E656C3D
:1025000020000D0A486F7070696E67204368616E25
:102510006E656C20746F20000D0A496E64697265E7
:102520006374206D65737361676520657870697287
:03253000656400DF
:01253300E0C7
:0C253400D190F26AF16AF06A9368FD0E23
:102540008B6ED00E946EC00EC76E200EC66E0F0E30
:10255000C16E040E896EF80E926E8B809490F2928A
:10256000D08EF19C1200D9CFE6FFE1CFD9FF080E43
:10257000E12681BA06D00201F85145E151D8010E99
:1025800043D081B806D00201F8513DE149D8020E8E
:102590003BD028EC14F0040E04C0DBFF050E05C090
:1025A000DBFF060E06C0DBFF070E07C0DBFFD950BE
:1025B000040FE96EDACFEAFF0201F951EE5C106E0A
:1025C000FA51EE58116EFB51EE58126EFC51EE5856
:1025D000136E10C0DFFF010E11C0DBFF020E12C030
:1025E000DBFF030E13C0DBFFD9CFE9FFDACFEAFF31
:1025F000D880FF0EEE548F0EEE54000EEE54000EF7
:10260000EE5401E2F86B000E106E080EE15C02E27F
:10261000E16AE552E16E1050E552E7CFD9FF1200B2
:10262000010EF86F28EC14F004C0F9F205C0FAF2BC
:0A26300006C0FBF207C0FCF2120026
:06263A00240EAC6E900EB0
:10264000AB6E330EAF6E120047D8E652FD0EDBCFF5
:10265000F6FFDB2AFE0EDBCFF7FF01E3DB2A0800E3
:10266000F550DF6EDF5005E0DFCFE6FF04D8E5521E
:10267000EDD7E55236D030D8ACA2FED7FE0EDB50F7
:10268000AD6E2FD029D8E652FE0EDB50DF6EFE0E67
:10269000DB380F0B0F0B29D80F0EDF1426D8E552AD
:1026A00020D01AD811D8075004D80ED8035001D81A
:1026B00018D0F76A780FF66E290EF7220800F55049
:1026C000E66ED9DFE55212000A0E106E0C6EFE0E99
:1026D000DBCF07F0AEEF14F0D9CFE6FFE1CFD9FFA3
:1026E0001200E552E7CFD9FF1200E76EFE0EE7CFEA
:0826F000DBFFDB5059EF13F092
:0826F800B220B220B2B2B22000
:10270000B22020B2202020B2B2200D0AB220B22086
:10271000B2202020B22020B22020B22020B20D0A08
:10272000B2B2B220B2B2B220B22020B22020B22087
:1027300020B20D0AB220B220B2202020B22020B256
:102740002020B22020B20D0AB220B220B2B2B220B4
:10275000B2B2B2B2B2B220B2B2200D0AB2B2B2205C
:10276000B2B2B220B2B2B20D0AB220B2202020B270
:1027700020B220B20D0AB2B2B220B2B2B220B2B2CE
:10278000B20D0AB2202020B2202020B220200D0A53
:0D279000B2202020B2B2B220B220200D0AEB
:02279E003E0EED
:1027A000F66E000EF76E000EF86E03010900F5508C
:1027B000E46F0900F550E56F03E1E46701D03DD017
:1027C0000900F550DF6F0900F550E06F0900F55082
:1027D000E16F09000900F550E96E0900F550EA6E55
:1027E000090009000900F550E26F0900F550E36F98
:1027F00009000900F6CFE6F3F7CFE7F3F8CFE8F3E7
:10280000DFC3F6FFE0C3F7FFE1C3F8FF0301E253C4
:1028100002E1E35307E00900F550EE6EE207F8E24B
:10282000E307F9D7E6C3F6FFE7C3F7FFE8C3F8FF0E
:0C2830000301E407000EE55BBFD71200B7
:04283C00050ED56E42
:10284000F184F294F28AD58E0101FE6BFF6B1200C7
:10285000D9CFE6FFE1CFD9FF040EE126F29A020EAE
:10286000DB6A030EDB6AD650DF6E010ED7CFDBFFCB
:10287000F2A40BD00A0EDF5C08E2020EDB2AFF0E88
:102880000101FE5D02E1030EDB2A020EDBCFE7FF52
:102890000101FE51E726020EE7CFDBFF030EDBCF7F
:1028A000E7FFFF51E726030EE7CFDBFFF28ADECF1B
:1028B00004F0DECF05F0DECF06F0DDCF07F0DD520D
:1028C000DD52040EE15C02E2E16AE552E16EE5529E
:0628D000E7CFD9FF120062
:0A28D600040078000000B4000000C8
:1028E0002C0100001C020000FC030000BC070000DB
:1028F0003C0F00003C1E00003C3C00003C78000007
:102900003CF000003CE001003CC003003C800700BC
:042910003C000F0078
:0C291400D9CFE6FFE1CFD9FF9E96C69E0A
:10292000FE0EDB50C96EC6BEFAD79EA6FED7E55294
:10293000E7CFD9FF1200E66AEDDFE552C950120079
:102940001EEE00F02EEE00F0F86A0F9CCFEC13F0B4
:0C29500015EC00F003EC10F0FBD71200B7
:04295C00036A080EF4
:10296000E76ED890073603360C50035C02E3036E23
:08297000072AE72EF7D7120039
:082978003031323334353637BB
:08298000383941424344454649
:0829880000EE00F00F0EEE6AF4
:06299000EA62FDD712000F
:032996000000003E
:020000040030CA
:0100010006F8
:010002001FDE
:0100030010EC
:01000500807A
:010006008178
:00000001FF
