:020000040000FA
:06080000D3EF4AF01200E4
:0608080065EF3DF0120057
:06082A000B007E960000A9
:1008300032040000040000007C9600003A0400002E
:1008400002000000789600002E0400000400000062
:100850005296000058030000260000000196000098
:100860005201000051000000DB950000320300003F
:1008700026000000D99500003804000002000000A6
:10088000D6950000FD02000003000000FF94000068
:100890003C04000001000000C695000000040000B8
:1008A00010000000C49500003604000002000000A3
:1008B0000901006B0A0E005D2BE20051240DF3CFFD
:1008C00001F9F4CF02F9000E01270A0E022385EC8C
:1008D0000EF00A0EEF6EECEC0FF0EF90ECEC0FF078
:1008E000EF82ECEC0FF0EF84ECEC0FF0EF98ECEC17
:1008F0000FF0EF9685EC0EF09CEC0FF085EC0EF00F
:10090000C0EC0FF085EC0EF0D0EC0FF0002BD2D73E
:1009100012000901006B0A0E005D3FE20051240D38
:10092000F3CF01F9F4CF02F9000E01270A0E0223DA
:1009300071EC0EF0EF500A082EE171EC0EF0EF6A48
:1009400071EC0EF00B0EA5C1EBFF0C0EA6C1EBFF78
:1009500071EC0EF00D0EEB6A0E0EEB6A71EC0EF000
:10096000CBEC0FF00CEC10F0EF800CEC10F0EF96ED
:1009700071EC0EF0AEEC0EF008E071EC0EF07FECD6
:100980000EF071EC0EF09CEC0FF00CEC10F0EF821E
:10099000090100511200002BBED7FE0C09016F6B3C
:1009A0006C6B0A0E6C5D14E26C51240DF3CF6DF983
:1009B000F4CF6EF9000E6D270A0E6E2327EC0EF0B1
:1009C000EF500A0803E1010E6F6F02D06C2BE9D7DC
:1009D0006F5101E1FE0C0401362B000E372327EC8A
:1009E0000EF00B0E36C4EBFF0C0E37C4EBFF880E77
:1009F000D8803655130E375503E2366B040E376F29
:100A000027EC0EF027EC0FF0EF9027EC0EF00D0E18
:100A1000A9C1EBFF0E0EAAC1EBFFB5EC0FF01A0E49
:100A200005EC0EF013EC0FF00A0EE66EE66AA7C1B5
:100A3000E6FFA8C1E6FF27EC0EF031EC0EF0C1ECAA
:100A40000EF00101020ED96F27EC0EF08DEC0FF0C5
:100A500027EC0EF021EC10F027EC0EF091EC0FF0EB
:100A600027EC0EF095EC0FF027EC0EF06AEC0EF090
:100A700027EC0EF0010EEF6EB5EC0FF0C7EC0EF0A8
:100A800009016C5112000101AB511DEC0EF0EF5049
:100A9000030801E0000C010C0101AC51240DF3CF5F
:100AA0006CF9F4CF6DF9000E09016C270A0E6D2365
:100AB0008AEC0EF0EF5003080BE08AEC0EF0EF50DA
:100AC000020806E06CC9E3F16DC9E4F19AEF0BF09E
:100AD000ACC1B6F164D9C1EC0EF00101110ED96FB1
:100AE0008AEC0EF08DEC0FF08AEC0EF021EC10F099
:100AF0008AEC0EF091EC0FF08AEC0EF095EC0FF012
:100B00008AEC0EF06AEC0EF08AEC0EF0EFEC0FF0CF
:100B100018EC0FF08AEC0EF0040EEF6E12000101DB
:100B2000AD51240DF3CF75F9F4CF76F9000E09011C
:100B300075270A0E762349EC0EF0AEEC0EF001E1BB
:100B4000000C49EC0EF0D5EC0FF0020B01E1000CAB
:100B500049EC0EF0C4EC0FF049EC0EF00F0EEB5028
:100B60000101DA6F0101180ED96F8DEC0FF049EC1D
:100B70000EF021EC10F049EC0EF091EC0FF049EC86
:100B80000EF095EC0FF049EC0EF06AEC0EF049EC2B
:100B90000EF0100E63EC0FF0126A136A49EC0EF0BF
:100BA000EFEC0FF0ECEC0EF049EC0EF027EC0FF050
:100BB000EF9249EC0EF027EC0FF0EF98010C0A0EC3
:100BC0000101AE5D01E3000CAE511DEC0EF0140E00
:100BD00099EC0FF001E1000CAE511DEC0EF00F0E80
:100BE00005EC0EF0EF50FF0804E10201CE6B93EF2D
:100BF0001DF0AE511DEC0EF0D5EC0FF0020B01E034
:100C0000010E12000101AF51240DF3CF73F9F4CF9F
:100C100074F9000E090173270A0E74238FEC0EF08D
:100C2000140E99EC0FF001E1000C8FEC0EF0AEEC1D
:100C30000EF018E10201CF6BAFEC1DF0E66E8FEC09
:100C40000EF00F0E0FEC10F08FEC0EF0AEEC0EF07D
:100C500001E1000C8FEC0EF0F5EC0EF08FEC0EF0D5
:100C6000CEEC0EF08FEC0EF027EC0FF0EF88B0C159
:100C7000D0F2CBEC1DF08FEC0EF0140E05EC0EF064
:100C8000EE06EF5A8FEC0EF0100E05EC0EF0EE2A89
:100C9000ED22EECF10F0EDCF11F0CA0E105C030E76
:100CA000115803E3AFC1ADF13ADF010C0101B151BD
:100CB000240DF3CF6CF9F4CF6DF9000E09016C2708
:100CC0000A0E6D2353EC0EF0140E99EC0FF001E1B7
:100CD000000C53EC0EF0AEEC0EF018E10201CF6BFD
:100CE000AFEC1DF0E66E53EC0EF00F0E0FEC10F0B3
:100CF00053EC0EF0AEEC0EF001E1000C53EC0EF0F4
:100D0000F5EC0EF053EC0EF0CEEC0EF0FFEC0FF025
:100D10000101B451EE24106EB551EE20116ECA0ED1
:100D2000D8801054030E11540BE2FFEC0FF0EECFFD
:100D3000B4F1EFCFB5F1CA0ED880B457030EB55752
:100D400053EC0EF027EC0FF0EF88B4C1D3F2B5C12D
:100D5000D4F2B2C1D1F2B3C1D2F2E9EC1DF053EC3E
:100D60000EF0140E05EC0EF00101B451EE5EB5511B
:100D7000ED5AFFEC0FF0B451EE26B551ED2253ECD5
:100D80000EF0100E63EC0FF0CA0E105C030E11583B
:100D900003E3B1C1ADF1C3DE0101B45112000101A1
:100DA000B651240DF3CF00F9F4CF01F9000E09017B
:100DB00000270A0E012300C9E9FF01C9EAFF1BEC65
:100DC00010F001E1000C6CEC1FF000C9E9FF01C953
:100DD000EAFF1EEC10F0010C0101B751240DF3CF16
:100DE00000F9F4CF01F9000E090100270A0E0123D2
:100DF000A4EC0EF01BEC10F03CE0A4EC0EF0D5ECF3
:100E00000FF0040B0CE00101EE6BEF6BB7C1EDF1DD
:100E1000B2EC0DF0A4EC0EF027EC0FF0EF94A4EC84
:100E20000EF0120E63EC0FF00101BA51105CBB51D1
:100E3000115808E2A4EC0EF015EC10F0EECFBAF168
:100E4000EDCFBBF1A4EC0EF0120E99EC0FF007E120
:100E50006CEC1FF0A4EC0EF01EEC10F00AD0BAC13E
:100E6000D7F2BBC1D8F2B8C1D5F2B9C1D6F2A1EF61
:100E70001EF0F36AF46A12000101BC51240DF3CF95
:100E800087F9F4CF88F9000E090187270A0E882315
:100E9000896B8A6B8B6BA9EC0EF01BEC10F049E0B0
:100EA000A9EC0EF0D5EC0FF0040B0CE00101EE6B99
:100EB000EF6BBCC1EDF1B2EC0DF0A9EC0EF027EC3C
:100EC0000FF0EF94A9EC0EF0120E63EC0FF001019D
:100ED000BF51105C000E115809E2A9EC0EF015ECA0
:100EE00010F0EFCFBFF10901100E896FA9EC0EF0E1
:100EF000120E99EC0FF009E16CEC1FF0A9EC0EF06A
:100F00001EEC10F0F36AF46A1200C0C1DCF2BFC13B
:100F1000DBF2BDC1D9F2BEC1DAF2EDEC1EF0F3CFC7
:100F20008AF9F4CF8BF9200E0901F45C04E1200E5C
:100F300001D0300E896F89C98BF98AC9F3FF89C93D
:100F4000F4FF12000101C151240DF3CF87F9F4CF52
:100F500088F9000E090187270A0E8823BCEC0EF0E1
:100F60001BEC10F02DE0BCEC0EF0D5EC0FF0040BF8
:100F70000CE00101EE6BEF6BC1C1EDF1B2EC0DF0D5
:100F8000BCEC0EF027EC0FF0EF94BCEC0EF0120E60
:100F900099EC0FF007E16CEC1FF0BCEC0EF01EECCE
:100FA00010F0000CBCEC0EF015EC10F0EE06EF5A51
:100FB00067EC1EF0C2C1E9FFC3C1EAFFEF6E010C8E
:100FC000000C0A0E0101C45D01E3000CC4511DECCC
:100FD0000EF01BEC10F001E0010E120009017B6B1A
:100FE0006C6B0A0E6C5D01E313D16C51240DF3CFD1
:100FF00075F9F4CF76F9000E75270A0E76230EECFC
:101000000EF01BEC10F001E000D10EEC0EF0D5EC70
:101010000FF0100B01E0F9D00EEC0EF0EF500A08C3
:1010200001E1F3D00EEC0EF0EF50000907E10EECF9
:101030000EF0D5EC0FF0010B01E0E7D00EEC0EF056
:101040001F0E05EC0EF00401EE50235D106EEE5005
:101050002459116E0EEC0EF0210E05EC0EF0FBEC97
:101060000EF01050125C1150135801E3CED0020163
:10107000010ECE6F93EC1DF0000901E112000EECA1
:101080000EF0C7EC0EF00EEC0EF0210E05EC0EF09B
:10109000010ED890EE36ED36E806FBE10EEC0EF0D0
:1010A0001E0E05EC0EF0EF2A0EEC0EF0EF50090AC2
:1010B00062E0010A58E00F0A65E0020A63E0030AF1
:1010C00061E0020A4AE0070A1FE0010A05E0030A9C
:1010D0005EE10901020E54D0A0EC0FF003E3090118
:1010E000120E4ED00EEC0EF0D5EC0FF0010B04E01A
:1010F0000EEC0EF0EF6A46D00901020E7B6F0EEC8B
:101100000EF0010EEF6E3ED0A0EC0FF012E30EECED
:101110000EF0AEEC0EF00AE00201F06BF16B0EEC9B
:101120000EF0CEEC0EF0B9EC20F031D00901100E2B
:1011300027D00EEC0EF0AEEC0EF008E00EEC0EF048
:101140007FEC0EF00EEC0EF09CEC0FF00901110E8E
:101150007B6F0EEC0EF0040E0CD0A0EC0FF012E33F
:101160000901010E0DD00901010E7B6F0EEC0EF08E
:10117000090EEF6E0CD0A0EC0FF004E30901110E84
:101180007B6F05D075C9E3F176C9E4F1D3DA0901C3
:101190007B513BE07BA90DD00EEC0EF0EFEC0FF095
:1011A000EECF77F9EECF78F9EECF79F9EFCF7AF984
:1011B00010D00EEC0EF0EFEC0FF0EFCF77F9EE2A37
:1011C000EFCF78F9EE22EFCF79F9EE22EFCF7AF96F
:1011D000EF22C1EC0EF07BC9D9F10EEC0EF08DECD4
:1011E0000FF077C9D1F178C9D2F179C9D3F17AC9B1
:1011F000D4F10EEC0EF091EC0FF00EEC0EF095EC3D
:101200000FF00EEC0EF06AEC0EF009016C2BE9D633
:101210001200C5C1E9FFC6C1EAFF060E05EC0EF0DB
:10122000EECF80F9EECF81F9EECF82F9EFCF83F9DF
:10123000C7C1E9FFC8C1EAFFEECF84F9EECF85F957
:10124000EECF86F9EFCF87F90901886B060E896F1B
:10125000C9C18AF9CAC18BF9C9C101F3CAC102F374
:101260000AEC30F0F3CF8AF9F4CF8BF90C0E0301BE
:10127000096F0A6B0301800E076F090E086F3EECC1
:1012800030F0F3CF8DF9F4CF8EF909018D1F8E1F49
:10129000C9C10BF3CAC10CF3AAEC30F0F3CF8FF93C
:1012A000F4CF90F90901F4508D5D58E18F518E5DB6
:1012B00055E10301DE6BDF6B1AEC40F0140E020106
:1012C000D76FD86B02016C0ED56F090ED66FA1ECEB
:1012D0001EF001016C0EE16F090EE26FE8D9D4EC4B
:1012E0000EF0106E116A140E105E000E115A10C02E
:1012F00091F91050106E116AE8500101C95DC96F73
:101300001150CA59CA6F140EC95F000ECA5BD4ECE3
:101310000EF00301DE6FDF6B1AEC40F0C5C1DFF1A8
:10132000C6C1E0F101016C0EDD6F090EDE6F42D91E
:1013300009018C6FFE0E8C5D11E0C9C1EAF1CAC1D2
:10134000EBF101016C0EE86F090EE96FC5C1E6F122
:10135000C6C1E7F18CC9E5F11DDA010C6CEC1FF098
:10136000010C0201010ECE6F93EC1DF0000902E1A9
:101370000400F7D7FF0E0101DA5D07E10201010E5B
:10138000CF6FAFEC1DF00101DA6FFF0E0101DA5DE6
:1013900001E10FD1140E0201F06FF16BDAC1EFF22F
:1013A0002FEC21F0CDC148F9CEC149F9CFC14AF99E
:1013B000D0C14BF9D1C14CF9D2C14DF9D3C14EF9CD
:1013C000D4C14FF9D5C150F9D6C151F9D7C152F99D
:1013D000D8C153F90901559D559F09015491549362
:1013E00054955497D9C155F97FEC1FF0F3CF56F9B6
:1013F000F4CF57F90901000E565D040E575905E365
:101400000901566B040E576F11D00901360ED880B2
:101410005655000E575507E2360E0901565F000E6D
:101420000901575B03D00901566B576B0901586BD3
:10143000596B09015A6B5B6B0101480EE16F090E94
:10144000E26F35D9140E0101DB27000E0101DC2308
:101450000101D9A317D0040E0101DB27000E010101
:10146000DC230901020E5C6F0901040E5D6F0901A6
:10147000040E5E6F09015F6B09015499548B548D02
:10148000549F05D009015489549B548D549FD1C059
:1014900060F9D2C061F9D3C062F9D4C063F9CBC19D
:1014A000E9FFCCC1EAFF060EE926000EEA22EECFE4
:1014B00064F9EECF65F9EECF66F9EFCF67F9090170
:1014C000686B0901060E696FDBC16AF9DCC16BF953
:1014D0006AC901F36BC902F30AEC30F0F3CF6AF981
:1014E000F4CF6BF90C0E0301096F0A6B0301600E58
:1014F000076F090E086F3EEC30F0F3CF58F9F4CFC8
:1015000059F90901581F591F58C946F959C947F9CE
:10151000DBC1DCF3DCC1DDF30301060EDB6FCBC105
:10152000D9F3CCC1DAF3ABEC3FF0140E0201D36F68
:10153000D46B0201480ED16F090ED26FE9EC1DF099
:101540000101D9A30BD0040E0201D36FD46B0201A9
:101550005C0ED16F090ED26FE9EC1DF0140E020182
:10156000F06FF16BDAC1EFF22FEC21F0DBC10BF37E
:10157000DCC10CF3AAEC30F0F3CF46F9F4CF47F915
:10158000240E0201F06FF16BDAC1EFF22FEC21F0C3
:1015900047C9D0F2CBEC1DF046C9D0F2CBEC1DF020
:1015A0000201F06BF16BDAC1EFF22FEC21F0B9EC34
:1015B00020F012000901FE0E036F026B0A0E025D9D
:1015C00051E20251DEEC0EF073DBEF500A0847E007
:1015D0006FDB0B0E63EC0FF01DEC0FF0020E15DB52
:1015E000FBEC0EF000011250101839E113501118E5
:1015F00036E15EDBEF50000902E102C903F958DB76
:101600000D0E63EC0FF01DEC0FF0FBEC0EF0125022
:10161000101825E11350111822E1DFC1E9FFE0C1E4
:10162000EAFF060EF2DAEECF14F0EECF15F0EECFB1
:1016300016F0EFCF17F03CDBEE52060E18EC10F070
:1016400014180DE1EE5015180AE1EE50161807E1D6
:10165000EE50171804E103E10901025112000901DB
:10166000022BACD7FE0E035D01E1FE0C0351A6DB9D
:101670000A0EE66EE66ADFC1E6FFE0C1E6FF18DBB0
:10168000F0DA1250DADB0ADB13DBBADB11DB1EEC1B
:1016900010F00EDB63DB05E00BDB31DB09DB9CECE0
:1016A0000FF006DBD4DBEF82090103511200C0DA30
:1016B000EFCF07F906EC10F08BDBBADA74EC0FF021
:1016C000020E85EC0FF0020EE6DB020E8AEC0FF044
:1016D000020E12EC10F0040EE1DB040EBAEC0FF077
:1016E000080EDCDB080EBAEC0FF00E0E85EC0FF0E6
:1016F0000E0ED1DB0E0E8AEC0FF00E0E12EC10F077
:10170000100E85EC0FF0100EC6DB100E8AEC0FF0F9
:10171000100E12EC10F0120E85EC0FF0120EBBDB67
:10172000120E8AEC0FF015EC10F0010E6EDA07C9FC
:10173000EFFF120091DA12DB08E08EDAE0DA8CDAE1
:101740009CEC0FF089DA83DBEF8286DACBEC0FF0CA
:1017500083DA0D0EEB6A0E0EEB6A7EDA1BEC10F0EC
:1017600002E06CEC1FF078DA1EEC10F075DAC0ECD9
:101770000FF072DA6CDBEF986FDAD5EC0FF0010B3B
:1017800003E06ADAEF6A03D067DA0A0EEF6E64DA12
:10179000D0EF0FF00101E551240DF3CFA2F9F4CF02
:1017A000A3F9000E0901A2270A0EA323EAC1A3F19F
:1017B000EBC1A4F1A46B2DDA1E0E27DAEF6A29DA49
:1017C000E6DA27DADDDB3EDB040B0DE06CEC1FF024
:1017D00020DAEBDB010B02E0000E01D0010EE66E19
:1017E00018DAE8EF0EF054DBB0DB0E0E0EDAEECFB7
:1017F00014F0EFCF15F0166A176A15DA080E18EC18
:1018000010F0965D186EEE509759196EEE5098597B
:101810001A6EEE5099591B6E1850145C106E1950C8
:101820001558116E1A501658126E1B501758136E19
:10183000F0D9100EEAD9EECF1CF0EFCF1DF01E6AE2
:101840001F6A1C50105C926F1D501158936F1E50F0
:101850001258946F1F501358956F800E951506E01F
:10186000D8D9140EEB6A150EEB6A07D0D2D9140E34
:1018700092C9EBFF150E93C9EBFFC5DB01081EE112
:10188000E1DA020B05E1A4DB100B01E15AD11CD017
:10189000E1DA8EDB49DADBDB06E1BBD9020EEF6E63
:1018A0006CEC1FF02AD0B5D9030EEF6E100EA46FAA
:1018B00099DB0101EA51EB1166E1B9D0A4DB000923
:1018C00020E186DB020B03E10901040E18D0C2DA25
:1018D00089DB0A0EE66EE66AE6C1E6FFE7C1E6FFCF
:1018E00098D9BFD912509FD9D9D993D989DA91D92A
:1018F000020EEF6ECDDAEADA17DA0901120EA46FE2
:10190000D3D056DBEECF9AF9EECF9BF9EECF9CF910
:10191000EFCF9DF9BDDAEECF9EF9EECF9FF9EECF76
:10192000A0F9EFCFA1F97FD9040E6FD9FDD901013C
:10193000EA51090192270101EB5109019323000E9D
:1019400094239523A5DA01DB040E72DB9A1901E0DA
:101950009ED0EE509B1901E09AD0EE509C1901E008
:1019600096D0EE509D1901E092D001E090D04BDB73
:1019700002080BE16CDB5BE0BDDA030EEF6E0101E8
:10198000EA51EB1154E018DB8FD0B4DAEF500308C2
:1019900051E15DDB23E047D9080E37D9EECF10F0D7
:1019A000EECF11F028DA74DA1050EE1817E111506A
:1019B000EE1814E11250EE1811E11350EE180EE17A
:1019C0000DE127D9F2DA020B09E123D9C7D906E0E4
:1019D00020D995D91ED9B0DA37DBEF8233DA010B83
:1019E00009E00901110EA46F53DA70DA66D911D932
:1019F000090EEF6E0101EA51EB1119E00AD91BDB68
:101A000004E1DADA0901A4894FD042DA9EC9EEFF77
:101A10009FC9EEFFA0C9EEFFA1C9EEFFC9DA9AC9BE
:101A2000EEFF9BC9EEFF9CC9EEFF9DC9EEFF6CEC7B
:101A30001FF03AD0E8DA090804E1CADA100B34E002
:101A400020D0E1DA04080FE1C3DA010B06E087DAFF
:101A5000FEDA17E1DED8060E04D0F9DA25E0D9D88F
:101A6000050EEF6E21D0CFDA050805E1B1DA010BE2
:101A70001BE075DA06D0C7DA060816E1A9DA100B02
:101A800013E0A2C9E3F1A3C9E4F154DE0DD06CEC7C
:101A90001FF00901100EA46F9AC992F99BC993F91E
:101AA0009CC994F99DC995F90901A4514AE0B1D89E
:101AB0007CDA020B28E1ADD851D925E0AAD8100E66
:101AC00038DA21E095DA1050EE5E1150EE5A1250DD
:101AD000EE5A1350EE5A9DD857DA9BD80F0EEB50A2
:101AE0000101DA6F080E0901A4110101D96F15DA9D
:101AF000CFD9FCD88ED815DA8CD817DA8AD8EAD89C
:101B000077DAECEF0EF03DD9A4C9D9F192C9D5F13D
:101B100093C9D6F194C9D7F195C9D8F196C9D1F135
:101B200097C9D2F198C9D3F199C9D4F17CD81AD9FF
:101B30007AD8020E6AD81BD9E6C1CBF1E7C1CCF145
:101B400010DC12000101EC51240DF3CF10F0F4CFA2
:101B500011F0000E10260A0E112210C0F3FF11C062
:101B6000F4FF12000101ED51240DF3CF8DF9F4CFF4
:101B70008EF9000E09018D270A0E8E230C0E03012B
:101B8000DE6FDF6B1AEC40F067EC1EF0E840E840D7
:101B90003F0B3C0B09018C6F0101EE51A35D106EF0
:101BA000A451EF55116E8DC9E9FF8EC9EAFF120EDF
:101BB00010C0EBFF130E11C0EBFF09018C510101A6
:101BC000EE250301DE6F000E0101EF210301DF6F3F
:101BD0001AEF40F00101F051240DF3CF00F9F4CFDA
:101BE00001F9000E090100270A0E012300C9E9FFCF
:101BF00001C9EAFF1ADA0101EE50A35D106EEE5042
:101C0000A45910C0F3FFF46E1200E926000EEA2278
:101C10001200A2C9E9FFA3C9EAFF120075C9E9FFD2
:101C200076C9EAFF1200E8C1E9FFE9C1EAFF120044
:101C3000E1C1E9FFE2C1EAFF1200240DF3CFE9FFA1
:101C4000F4CFEAFF000EE9260A0EEA2212006DC95F
:101C5000E9FF6EC9EAFF1200E3C1E9FFE4C1EAFF50
:101C60001200EE52E9CF10F0EACF11F0E9CFE6FF13
:101C7000EACFE6FF37EC47F0126E060EE15E120087
:101C8000EECFD5F1EECFD6F1EECFD7F1EFCFD8F141
:101C9000120075C9E9FF76C9EAFF1200EECF10F015
:101CA000EFCF11F012006CC9E9FF6DC9EAFF120015
:101CB00000C9E9FF01C9EAFF1200EF2AEECF92F94D
:101CC000EF22EECF93F9EF22EECF94F9EF22EFCF90
:101CD00095F91200EE52E9CFCBF1EACFCCF1B1EF9A
:101CE00009F001C9E9FF02C9EAFF1200EECFD1F104
:101CF000EECFD2F1EECFD3F1EFCFD4F112000F0E31
:101D0000EB500201DE6F62EF1FF001C9E9FF02C96B
:101D1000EAFF12006CC9E9FF6DC9EAFF120073C93E
:101D2000E9FF74C9EAFF1200EECF92F9EECF93F902
:101D3000EECF94F9EFCF95F9120011C0EEFF12C06B
:101D4000EEFF13C0EEFF120000C9E9FF01C9EAFF70
:101D5000120087C9E9FF88C9EAFF12000F0EEB5095
:101D6000FF081200EECFCFF1EDCFD0F11200EECF91
:101D7000CDF1EDCFCEF1120087C9E9FF88C9EAFFA6
:101D800012000101DB6BDC6B0101DA6912001F0E2E
:101D900023C4EBFF200E24C4EBFF12000F0EEB5008
:101DA0000201EF6F2FEF21F009017851F00BE842AB
:101DB000E842E842E842040DF3501200240DF3CF4C
:101DC00000F9F4CF01F9000E00270A0E01231200DA
:101DD000E552E750EF6E12001050EE261150EE2241
:101DE0001250EE221350EE221200DAD8280E020111
:101DF000F06FF16B1200EECF12F0EFCF13F0120084
:101E00000D0E10C0EBFF0E0E11C0EBFF1200140EF2
:101E100010C0EBFF150E11C0EBFF12002C0EEE6E82
:101E2000010EED6E1200EE6AEE6AEE6AEE6A1200C4
:101E3000EE2AEE22EE22EE221200DDC1E9FFDEC123
:101E4000EAFF1200F0DE0D0EE0DEEF501200230E6E
:101E500005EF0EF0EAC114F0EBC115F0166A176A2F
:101E6000E2DE040EE5D81424106EEE501520116E3B
:101E7000EE501620126EEE501720136E102A000E30
:101E800011221222132294D810C0EEFF9DEF0EF003
:101E9000C0DEEFEF0FF0B9DE06EF10F0B6DEEECFEA
:101EA00003F3EECF04F3EECF05F3EFCF06F30FEC21
:101EB00030F004C010F005C011F006C012F007C0E9
:101EC00013F018EF0EF0A1DE4EEF0EF0EFCF96F903
:101ED000EE2AEFCF97F9EE22EFCF98F9EE22EFCF6F
:101EE00099F9EF22D8EF0FF0010E8FDE07C9EFFF4F
:101EF00018EF0EF05DD892C9EEFF93C9EEFF94C9BA
:101F0000EEFF95C9EEFF09EF0EF07FDEEFCF07F988
:101F100018EF0EF084D818EF0EF01A0E76DE40EFB0
:101F20000EF00D0E72DEB2EF0EF00B0E6EDEB7EF9E
:101F30000EF07ED8ED1012000F0E67DEEF68120073
:101F40006DDE1E0EEB5003081200EECF96F9EECFB9
:101F500097F9EECF98F9EFCF99F913EF0EF0090149
:101F6000100EA46F25D85DEF0EF071DE38D860DF5B
:101F700027EF0EF04ADE04C0EEFFDFDE18EF0EF0B2
:101F8000210E43DE0EEF0FF0100E3FDEEECFDBF141
:101F9000EDCFDCF11200EE52060E37DE13EF0FF03C
:101FA000100EEB6A110EEB6A120051DFEF501200B7
:101FB00030DE1A0E05EF0EF047D8EF862ADE120E3D
:101FC000EAC1EBFF130EEBC1EBFF3ED8EF8412002A
:101FD0006CEC1FF022EF0FF098DE27EF0FF0160EDB
:101FE00005EF0EF020DE0E0E6EDF13DE07EF0FF0B2
:101FF00010DE100E68DF126A136A48EF0FF053DE2E
:10200000100E05EF0EF005DEEF501200010EFDDDA3
:10201000EF50E66E18EF0EF064DE27EF0FF0F5DDFF
:10202000E8EF0EF0F2DD74EF0FF0120E05EF0EF098
:10203000ECDDEE501200B9DF080B120008DFEF965E
:102040001200CDDF76EF0EF0E4DD27EF0FF0FADEC1
:04205000100B12005F
:0C20540023C43CF124C43DF10901036BDE
:10206000060E035D2FE20001750EEF6FE9EC37F00D
:10207000116E106A10C0E6FFE66E0001740EEF6F7D
:10208000E9EC37F0E552E7CF11F0E552E7CF10F079
:1020900001011010A56F11C0A6F189EC04F0E66EE5
:1020A000090107EC16F0E552E750EF6E07EC16F069
:1020B00005EC16F0EF6A07EC16F0DCEC15F0EF6AB1
:1020C000032BCED712000901CC6B060ECC5D06E2C5
:1020D000CCC943F18ED80901CC2BF7D712003EC1F1
:1020E00000F93FC101F9090100C9E9FF01C9EAFF8F
:1020F000002B000E0123EF502E0807E000C9E9FF76
:1021000001C9EAFFEF50EFE10A0C026B0251106EB9
:10211000116A100E105C000E115815E20251DEEC2F
:1021200015F000C9E6FF01C9E6FF82EC47F0136E27
:10213000050EE15E1350000903E10901025112008E
:102140000901022BE3D70A0C1CEC16F004E0200E68
:102150000901005DF9E00901016B2B0E0901005D29
:1021600002E1200E006F2F0E005D20E05C0E005D8E
:102170001DE0200E005D1DE03F0E005D1AE00D0E1B
:10218000005D17E00A0E005D14E00C0E015D0EE22A
:10219000610E005D05E300517A0802E3200E005F46
:1021A0000151012B33EC16F000C9EFFF1CEC16F0C7
:1021B000D4E10901015133EC16F0EF6A0901015134
:1021C00012E16F0E106E930E116E126A10C0E6FFD0
:1021D000E66E12C0E6FF41C1E6FF42C1E6FF98ECA1
:1021E00047F0050EE15E3F0E0901005D01E1010CC3
:1021F000000C010143510A0DF3CFC5F9F4CFC6F924
:10220000000E0901C527010EC623010EC36F090187
:10221000C35101E1F8D1C36BCB6BD3EC15F03AECB1
:1022200016F00DE19AEC16F0020B02E095EC16F0B8
:1022300052EC16F0EF9458EC16F0EF6A1200D3EC63
:1022400015F0020EEB50080AE2E00F0A01E1CBD1D3
:10225000010A01E19CD1030A01E199D1010AD7E009
:10226000070A01E1BCD1010A01E171D1030A01E1D0
:102270002DD1010ACCE1D3EC15F047EC16F0C7E004
:102280000901010EC36F23C43CF124C43DF152EC9B
:1022900016F0EF6A7FEC16F00101496F11DA0901BF
:1022A000C26F0101B50E416F090E426F7FEC16F04F
:1022B0000101406F49DF0901CB91E8B0CB817FEC90
:1022C00016F00101F06FEAEC0DF0F3CFC9F9F4CF8D
:1022D000CAF90101B50E506F090E516F43C14FF19C
:1022E00069EC15F00101B50E3E6F090E3F6FF7DE88
:1022F0008EEC16F0060814E055EC16F0EF0402E040
:10230000000E01D0010E000E00090AE1A1EC16F04A
:10231000040802E0000E01D0010E000E000904E0E6
:1023200052EC16F0EF8003D052EC16F0EF9000EC78
:1023300016F0020B22E1A1EC16F0060804E100EC15
:1023400016F0100B1AE1580E0901B55D04E100EC1E
:1023500016F0010B12E19AEC16F0010B04E000EC10
:1023600016F0080B0AE100EC16F0040B0DE0090171
:10237000C2510AE1CB51010B07E09AEC16F0040BB5
:1023800003E182EC16F03DD00901C25101E098D082
:1023900052EC16F0CB93EF50040B01E0CB8300EC32
:1023A00016F0200B03E152EC16F0EF840901CBA1EB
:1023B00015D0C9C9EEF1CAC9EFF17FEC16F00101E1
:1023C000ED6FB2EC0DF00301B50E886F090E896F49
:1023D000C5C986F3C6C987F3A9EC29F052EC16F0FB
:1023E0000901CB51020B02E0EF8401D0EF9482ECA3
:1023F00016F09AEC16F0100B0DE09AEC16F0040BA8
:1024000009E16BEC16F0020EEF6ECDDB9DEC16F0E1
:10241000060EE7D058EC16F0050EEF6E5BEC16F0EA
:1024200085EC16F0106E060E105C2FE3A1EC16F092
:1024300004082BE3B50EE66E090EE66EB1EC47F02C
:10244000E552E552F3CFC4F9A1EC16F0030802E31C
:10245000030E01D0020E0901C45FA1EC16F00B0FB0
:102460008EEC16F0ABDBC451146AB50F136E090E77
:10247000142213C0E6FF14C0E6FF98EC47F0156E77
:10248000050EE15E15505BEC16F085EC16F0FF08CA
:1024900004E16BEC16F0EF6A08D085EC16F0FE084C
:1024A00008E16BEC16F0010EEF6E58EC16F0050E1D
:1024B00098D052EC16F0EF8258EC16F0010E91D045
:1024C000C20501E0A4D6F4DB030E8BD089EC16F034
:1024D00001E19DD60901010EC36F0101F80E4D6F98
:1024E000920EA0DBDBDB0101080E4D6F930E9ADB31
:1024F000DCDBEF34EA6AFE0BEA36E96E320EE926DF
:10250000030EEA22EECF4DF1EDCF4EF143C14CF177
:10251000BBDAC4DBCADBEFCF10F00B0E105C05E3B7
:102520000101170E4D6F930E7DDB9AEC16F0010B37
:1025300005E101015A0E4D6F770E74DBAFDB33DB23
:10254000030E9DEC16F0EF6AB3DB020E4AD02BDBD4
:102550009EDB01E0D7DBA6DB0901CB93EF50040B38
:1025600001E0CB834DDB200B02E19CDBEF8443C118
:102570004AF1E9D8000904E0D8DB9ADB070EEF6ED8
:1025800091DB0901CB51020B3CE0EF8440D6C1DB6B
:1025900001E13DD6A0DBEF34EA6AFE0BEA36E96ED4
:1025A000520EE926030EEA22EECFC7F9EDCFC8F9A5
:1025B0000901C7C9F6FFC8C9F7FFC72B000EC8231A
:1025C0000800F5CFC4F9F55005E0C4C9B0F1EBDA65
:1025D0002EDBEED794DB0101AD6F8FEC05F068DBED
:1025E000070EEF6E14D6DFDA45DB0AE092DB08E077
:1025F00086DB0101AC6F4CEC05F05ADB080EEF6E88
:1026000051DBEF9404D6120047C1E9FF48C1EAFF4D
:10261000EF0409014A6F496BEF6A4B6B4A510101A4
:10262000EA6A4525E96E4651EA22EF6A09014B51F3
:1026300041E10101480EC26F090EC36F44C1C1F1EF
:10264000A2EC07F0000936E03D0E0901485D0BE100
:10265000486B4A51495D1EE2492947C1E9FF48C11B
:10266000EAFFEF6E17D0260E485D02E1020E0AD097
:10267000200E485D06E00D0E485D03E00A0E485D41
:1026800004E1010E4B6F486B05D02B0E485D02E153
:10269000200E486F4A51495D06E245C1E9FF46C137
:1026A000EAFF48C9EFFF0101452B000E462309014F
:1026B000492BBCD709014B5101E1000C4B0512001D
:1026C0000901056B0101060EC26F090EC36F49C1F6
:1026D000C1F1A2EC07F0000916E0200E0901065D29
:1026E00012E00551106E116A040E105C000E1158B4
:1026F000E9E20551052BEA6A000FE96E090EEA22AC
:1027000006C9EFFFDFD709010551EA6A000FE96E3C
:10271000090EEA22EF6A470E005D07E1450E015DF2
:1027200004E1540E025D01E1000C500E005D0AE16F
:102730004F0E015D07E1530E025D04E1540E035D8F
:1027400001E1010C020C01014A510A0DF3CF6EF9AF
:10275000F4CF6FF9000E09016E27010E09016F23F6
:102760006EC9E9FF6FC9EAFFEF500101AE6FDFEC00
:1027700005F0000901E168D109016C6B6EC9E9FF40
:102780006FC9EAFF030EEB50040846E06EC9E9FF8B
:102790006FC9EAFF010EEB50080DF3CFE9FFF4CF4C
:1027A000EAFF480EE926020EEA22EF50400B0BE04A
:1027B0006EC9E9FF6FC9EAFFEF500101AD6F8FEC01
:1027C00005F0010E4DD16EC9E9FF6FC9EAFF010E98
:1027D000EB500201806FAFEC36F009016D6F6EC9EE
:1027E000E9FF6FC9EAFF010EEB50080DF3CFE9FFD7
:1027F000F4CFEAFF480EE926020EEA22EF50200B42
:102800000BE06EC9E9FF6FC9EAFFEF500101AD6F40
:102810008FEC05F0010E24D16EC9E9FF6FC9EAFF04
:10282000090EE926000EEA22EF50010B01E1FFD06C
:102830006EC9E9FF6FC9EAFF030EEB50040A01E11C
:10284000ABD0070A73E0010A42E0030A16E0010A6E
:1028500001E0DDD0250E09016D5D0BE16EC9E9FFD8
:102860006FC9EAFF030EE926000EEA22010EEF6EA1
:1028700003D00901010E6C6FCBD0250E09016D5DEF
:102880000DE10901010E6C6F6EC9E9FF6FC9EAFF26
:10289000030EE926000EEA22EF6A18D06EC9E9FF9E
:1028A0006FC9EAFF040EE926000EEA22030EE926AC
:1028B000000EEA226DC9EFFF6EC9E9FF6FC9EAFF9A
:1028C000030EE926000EEA22020EEF6EA1D0610E81
:1028D00009016D5D04E3270E09016D5F07D0410E0C
:1028E00009016D5D03E3070E09016D5F300E0901FB
:1028F0006D5D100DF350E66E6EC9E9FF6FC9EAFF1A
:10290000040EE926000EEA22020EE926000EEA2253
:10291000E552E750EF6E6EC9E9FF6FC9EAFF030E9B
:10292000E926000EEA22030EEF6E72D0610E090155
:102930006D5D04E3270E09016D5F07D0410E0901AB
:102940006D5D03E3070E09016D5F300E09016D5DDA
:10295000106E6EC9E9FF6FC9EAFF040EE926000E8A
:10296000EA22020EE926000EEA221050EF126EC98A
:10297000E9FF6FC9EAFF030EE926000EEA22040E02
:10298000EF6E6EC9E9FF6FC9EAFF040EE926000E7B
:10299000EA22EE6AED6A3CD003016D0E8C6F090EDF
:1029A0008D6F6EC98AF36FC98BF321EC2AF0F3CFD8
:1029B00010F0F4CF11F06EC9E9FF6FC9EAFF040E01
:1029C000E926000EEA2210C0EEFF11C0EDFF09015A
:1029D000010E6C6F6EC9E9FF6FC9EAFF040EE926AC
:1029E000000EEA22FF0EEE1802E1FF0EED180EE1D6
:1029F00009016D5102E109016C6B6EC9E9FF6FC9F4
:102A0000EAFF030EE926000EEA22EF6A01D000D0A9
:102A100009016C510BE06DC9B0F16EC9E9FF6FC9D6
:102A2000EAFFEF500101AF6F02EC06F00BD06DC969
:102A3000B0F16EC9E9FF6FC9EAFFEF500101AF6F56
:102A400002EC06F004008CD66EC9E9FF6FC9EAFFFC
:102A5000010EEB5002017F6F7BEC36F0000E00D0D0
:102A6000120001014B510A0DF3CF6CF9F4CF6DF94F
:102A7000000E09016C27010E6D2301010D0E38D9DE
:102A800001010A0E78EF16F001014C510A0DF3CF47
:102A90006CF9F4CF6DF9000E09016C27010E6D235E
:102AA0004DC1F6FF4EC1F7FF0800F55011E00101DE
:102AB0004DC1F6FF4EC1F7FF4D2B000E4E2308000F
:102AC000F5CFB0F16CC9E9FF6DC9EAFFB0D8E8D71E
:102AD000120001014F510A0DF3CF00F9F4CF01F9B3
:102AE000000E09010027010E0123040E836F01016E
:102AF0000A0E79D801E1115006E0090183518307DC
:102B00000009F5E1120001010D0EC06F0101800EF8
:102B1000BF6F0101020EBD6F090EBE6FE0D8F3CF8B
:102B200085F9F4CF86F90901F45010E1040E836FA2
:102B300001010D0E58D801E1115005E00901835142
:102B400083070009F5E10901200E866F200E865DDE
:102B500001E01200850501E112000101830EC26F40
:102B6000090EC36F00C9E9FF01C9EAFFEF50010177
:102B7000C16FA2EC07F009018505EA6A020FE96E50
:102B8000090EEA22EF6A50C1F7F251C1F8F20201D0
:102B9000020EF56F090EF66F00C9F3F201C9F4F2E7
:102BA0006CEC3EF0B0D7C5C9E9FFC6C9EAFF120018
:102BB000040EC3D8040EB0D0090EAED0040DF3CF6E
:102BC000F6FFF4CFF7FFB80EF626920EF722F6CFF7
:102BD00010F0F7CF11F0126A10C0E6FF11C0E6FF47
:102BE00012C0E6FF1200C06F0101BF690101BD6B99
:102BF000BE6B75D8F4CF10F0116A200EF4181200D5
:102C00000001720EEF6FE9EF37F0020E85D003512D
:102C10000A0DF3CFE9FFF4CFEAFF000EE926010E1B
:102C2000EA2212004E6F43C14CF144EF15F0EF5011
:102C30000101AF6F02EF06F00101000EC26F090E35
:102C4000C36F40C1C1F1A2EC07F000091200EF50C0
:102C50000101AE6FDFEC05F000091200EF50010139
:102C6000B66FCFEF06F00101EA6A4125E96E4251E5
:102C7000EA221200EF500101AB6F43EC05F00009AE
:102C80001200010EEB5002017E6F73EF36F0EF5031
:102C90000101C46FE1EC07F00009120043C14BF1E0
:102CA00031EF15F080DFDCEF15F07DDFD8EF15F0A8
:102CB0007ADF05EF16F002017D6B0201B50E7B6F26
:102CC000090E7C6F6BEC35F0E66E6DDFEE52E5526F
:102CD000E750EF6E120067DF040E9DEF16F000C99B
:102CE000E9FF01C9EAFFEF500101BC6F3CEF07F0BB
:102CF000B06F6CC9E9FF6DC9EAFF17EF16F053DF3B
:102D0000EF50120050DF2EEF16F04DDF010EEB50AA
:102D1000120049DF27EF16F09DEF16F0E66EC5DFD3
:102D2000E552E750EF6EA1EF16F0BCDFEF923BDF0C
:102D300041EF16F0B7DFEF501200E926000EEA224D
:082D40001200B3DFEF50120096
:082D48000001FA6B0A0E030101
:102D5000266F276B0301000E246F090E256F02EC0E
:102D600032F00001B56BB66B0001000EB36F090EB7
:102D7000B46F00015C0EEF6FE9EC37F0116E106A72
:102D800010C0E6FFE66E00015B0EEF6FE9EC37F076
:102D9000E552E7CF11F0E552E7CF10F00001101037
:102DA000B16F11C0B2F0EFEC25F004013A6FFF0EE5
:102DB0003A5D12000901476B0001FA5124E13AC45F
:102DC000BEF06FEC27F000093EE00001620EEF6FED
:102DD000E9EC37F0010B2DE00001010EFA6F000164
:102DE000620EEF6FE9EC37F0020B04E00901010E0F
:102DF000436F04D00901010E476F436B006B026BF8
:102E0000466B426BCBD0FA051CE1090100B117D02B
:102E100000A303D00001FA6B16D0006B0001010E75
:102E2000BF6F090EC06F7EEC27F0000905E10901B4
:102E30000083CCEC27F007D00901009304D0009167
:102E400002D0020EFA5D0001FA5101E1A7D009019A
:102E50004351070A01E1A1D0010A01E19BD0030A15
:102E600001E196D0010A01E178D0070A5FE0010A8A
:102E700045E0030A0EE0010A01E090D000B38ED0D5
:102E8000250E015D02E1050E86D0020E436F008122
:102E900085D0200E015D28E10251A0EC1CF0EF6A04
:102EA000350E03011E6F1F6B0301030E1C6F090E0D
:102EB0001D6FB7EC31F0000913E13E0E03011E6FE8
:102EC0001F6B0901465103011C6F1D6B030E1C276C
:102ED000090E1D23B7EC31F0000902E10901436B33
:102EE0000901026B466B5AD03A0E015D03E1016B9A
:102EF0000229466FA6EC1CF051E228D03D0E015D80
:102F000012E1016B030E436F0229106E116A400E2D
:102F1000105C000E11580AE20229466F0229A0EC4B
:102F20001CF0EF6A03D0200E015D2FE000A304D057
:102F3000040E436F008107D0260E015D04E1040EEC
:102F4000436F0081016BA6EC1CF028E20251022BBA
:102F5000A0EC1CF001C9EFFF21D047C9FFF046519A
:102F60000001FD6FFE6B030EFD27090EFE2300011D
:102F7000030EFB6F090EFC6F16D8F35009014413C2
:102F8000F450451300B30AD0436B466B026B06D076
:102F9000060E01D0070E436F01D0436B0001FA51BA
:102FA00001E00AD712000901486B496BFBC0E9FF39
:102FB000FCC0EAFFEF506B0801E02CD10901010EC3
:102FC0004C6F0301500E106F090E116F010E0001BE
:102FD000FB2503010E6F000E0001FC2103010F6FA2
:102FE00024EC31F0000904E1F36AF46A9FEF1CF06D
:102FF000030E0001EA6AFB25E96EFC51EA22EF505C
:1030000062082AE1040E0001EA6AFB25E96EFC5120
:10301000EA22EF50D00F106E010E105204E0E84685
:10302000FE0B1006FCE10901526F50C9EFF0E9EC0C
:1030300037F00901516FFDC0E9FFFEC0EAFFEF5014
:10304000300805E10901521D0901511704D0090199
:1030500052510901511361D0FDC0E9FFFEC0EAFFE2
:10306000EF50480818E10301510E106F090E116F5F
:10307000010E0001FD2503010E6F000E0001FE216F
:1030800003010F6F24EC31F0000904E1F36AF46AE4
:103090009FEF1CF00AD0FDC0E6FFFEC0E6FF18EC73
:1030A00044F0E552E552F3CF51F9030E0001EA6A0C
:1030B000FB25E96EFC51EA22EF506D082EE1030179
:1030C000520E106F090E116F040E0001FB25030153
:1030D0000E6F000E0001FC2103010F6F24EC31F094
:1030E000000904E1F36AF46A9FEF1CF00901521D24
:1030F000106E10C0E6FF50C9EFF0E9EC37F0E55272
:10310000E7CF10F010140901536F09015151090163
:103110005215090153110901516F0901505111084C
:1031200004E2160E0901505D05E109014883090119
:103130004C6B63D009015051150809E3130E0901C6
:10314000505D04E00901488F09014C6B56D009011C
:1031500050511A0801E351D0090150511E0801E3F2
:103160004CD009015051220817E31F0E0901505D90
:1031700004E0210E0901505D07E1090151510808E1
:1031800002E309014C6B02D009014C6B09014C515F
:1031900002E10901488531D009015051300805E3A9
:1031A0000901488709014C6B28D0090150513208A8
:1031B00005E30901488909014C6B1FD009015051F1
:1031C0005A0803E309014C6B18D0090150516208F9
:1031D00003E309014C6B11D0090150516F0805E35D
:1031E0000901498109014C6B08D00901505175084A
:1031F00004E30901498309014C6B09014C5109E1C0
:103200000001FF5106E051C9A8FF50C9F0F0F6ECEB
:1032100037F090D3FBC0E9FFFCC0EAFFEFCF10F01E
:10322000610E105C01E203D2FBC0E9FFFCC0EAFFC3
:10323000EF50670801E2FBD1FBC0E9FFFCC0EAFFE9
:10324000EF50640807E0FBC0E9FFFCC0EAFFEF5065
:10325000650803E1F36AF46A72D3FBC0E9FFFCC0BE
:10326000EAFFEF509F0F09014A6F4B6B890E09016E
:103270004A270F0E09014B23010E0001EA6AFB25C4
:10328000E96EFC51EA22EF5014E103014C0E106F7D
:10329000090E116FFDC00EF3FEC00FF324EC31F0E8
:1032A000000906E04AC9E9FF4BC9EAFF4CC9EFFF34
:1032B000BDD1010E0001EA6AFB25E96EFC51EA224C
:1032C000EF50780833E1020E0001EA6AFB25E96E4F
:1032D000FC51EA22EF50D00F106E010E105204E0A4
:1032E000E846FE0B1006FCE109014F6FFDC0E9FF47
:1032F000FEC0EAFFEF5031080AE109014F1D106ED0
:103300004AC9E9FF4BC9EAFF1050EF160ED0FDC0C5
:10331000E9FFFEC0EAFFEF50300807E14AC9E9FFC4
:103320004BC9EAFF09014F51EF1280D1010E000194
:10333000EA6AFB25E96EFC51EA22EF50630801E0DE
:1033400077D0020E0001EA6AFB25E96EFC51EA2201
:10335000EF50D00F09014F6F09014F51070867E384
:10336000010E4FC9E7FFE75204E0E846FE0BE7060F
:10337000FCE109014F6FFBC0E9FFFCC0EAFFEF5021
:103380009F0F09014A6F4B6B920E09014A270F0EDE
:1033900009014B23FBC0E9FFFCC0EAFFEF509F0F80
:1033A000230F0001EF6FE9EC37F009014E6FFDC00C
:1033B000E9FFFEC0EAFFEF5031080CE14AC9E9FF1E
:1033C0004BC9EAFF09014F51EF1209014F510901A1
:1033D0004E1316D0FDC0E9FFFEC0EAFFEF503008E3
:1033E0000FE109014F1D09014F6F4AC9E9FF4BC9A0
:1033F000EAFF09014F51EF1609014F5109014E171C
:10340000030E0001EA6AFB25E96EFC51EA22EF5047
:1034100072080DE14EC9A8FFFBC0E9FFFCC0EAFF3E
:10342000EF509F0F230F0001F06FF6EC37F0FED046
:10343000010E0001EA6AFB25E96EFC51EA22EFCF9A
:1034400010F0300E105C01E2F1D0010E0001EA6ACA
:10345000FB25E96EFC51EA22EF50390801E2E6D083
:10346000010E0001EA6AFB25E96EFC51EA22EF50E9
:10347000D00F09014F6F020E0001EA6AFB25E96EC9
:10348000FC51EA22EF500AE0020E0001EA6AFB2535
:10349000E96EFC51EA22EF50720859E1010E4FC962
:1034A000E7FFE75204E0E846FE0BE706FCE109010E
:1034B0004F6FFBC0E9FFFCC0EAFFEF509F0F2A0FE0
:1034C0000001EF6FE9EC37F009014E6FFDC0E9FF35
:1034D000FEC0EAFFEF50300810E109014F1D09015D
:1034E0004F6F4AC9E9FF4BC9EAFF09014F51EF1677
:1034F00009014F5109014E1712D0FDC0E9FFFEC06E
:10350000EAFFEF5031080BE14AC9E9FF4BC9EAFF76
:1035100009014F51EF1209014F5109014E13020EDB
:103520000001EA6AFB25E96EFC51EA22EF507208BD
:103530000DE14EC9A8FFFBC0E9FFFCC0EAFFEF5058
:103540009F0F2A0F0001F06FF6EC37F06FD0020EDC
:103550000001EA6AFB25E96EFC51EA22EF5070088F
:103560000AE0020E0001EA6AFB25E96EFC51EA223C
:10357000EF506E085BE1010E4FC9E7FFE75204E030
:10358000E846FE0BE706FCE109014F6FFDC0E9FFCD
:10359000FEC0EAFFEF50D00F09014C6F000E090189
:1035A0004C5D04E309014C51090802E209014C6B2E
:1035B000020E0001EA6AFB25E96EFC51EA22EF5097
:1035C000700817E14AC9E9FF4BC9EAFF09014F51E9
:1035D000EF1209014C514C07000901E0FAD709012B
:1035E0004F1D106E4AC9E9FF4BC9EAFF1050EF1694
:1035F0001DD0FDC0E9FFFEC0EAFFEF50310816E123
:1036000009014F1D106E4AC9E9FF4BC9EAFF10506E
:10361000EF1609014C514C07000901E0FAD74AC9DD
:10362000E9FF4BC9EAFF09014F51EF1283D1FBC0FB
:10363000E9FFFCC0EAFFEF506C0866E10001FF51B2
:1036400062E0010E0001EA6AFB25E96EFC51EA2204
:10365000EF506E0A21E00F0A11E0030A01E053D097
:103660000301080E166FFDC014F3FEC015F33E0EE5
:103670000301126F136B49EC31F045D00301080EC2
:10368000166FFDC014F3FEC015F3350E0301126F63
:10369000136B49EC31F037D00901010E4C6F090171
:1036A0004D6B0F0E09014D5D27E209014C510AE0F7
:1036B00009014D510001EA6AFD25E96EFE51EA2239
:1036C000EFCF4CF909014C510AE1200EA86E470ECC
:1036D00009014D250001F06FF6EC37F009D04CC917
:1036E000A8FF470E09014D250001F06FF6EC37F0F9
:1036F000040009014D2BD5D7A86A0001560EF06FC2
:10370000F6EC37F000D016D1FBC0E9FFFCC0EAFFB1
:10371000EF506D081AE10001FF5116E0FDC0E9FF0E
:10372000FEC0EAFFEF50720A01E00ED0D8EC20F0A4
:10373000FF0E986E966E956E936E000E866E846E7A
:10374000836E816EFF0000D0F5D0FBC0E9FFFCC0A6
:10375000EAFFEFCF10F0770E105C01E2EBD0010E24
:103760000001EA6AFB25E96EFC51EA22EF50660887
:103770001CE1FDC0E9FFFEC0EAFFEF50D00F0901D8
:103780004C6F020E0001EA6AFB25E96EFC51EA2249
:10379000EF50720802E0000E01D0010E0001F76F39
:1037A0004CC9F6F023EC39F0C5D0010E0001EA6AED
:1037B000FB25E96EFC51EA22EF50650821E1030187
:1037C0004C0E106F090E116FFDC00EF3FEC00FF30B
:1037D00024EC31F0000913E0020E0001EA6AFB2537
:1037E000E96EFC51EA22EF50720802E0000E01D0AF
:1037F000010E0001F96F4CC9F8F069EC39F09AD06C
:10380000010E0001EA6AFB25E96EFC51EA22EFCFC6
:1038100010F0310E105C37E3010E0001EA6AFB255F
:10382000E96EFC51EA22EF5035082DE3FDC0E6FFBA
:10383000FEC0E6FF18EC44F0E552E552F3CF56F92E
:10384000F4CF57F9020E0001EA6AFB25E96EFC513C
:10385000EA22EF50720802E0000E01D0010E0001D2
:10386000F46F56C9F2F057C9F3F0010E0001EA6A8D
:10387000FB25E96EFC51EA22EF50D00F0001F16FF9
:103880009FEC38F057D0010E0001EA6AFB25E96E83
:10389000FC51EA22EF506D084DE10901010E4D6F18
:1038A0000001650EEF6FE9EC37F0FE0B09014C6F7C
:1038B000FDC0E9FFFEC0EAFFEF50380808E13F0E07
:1038C000CB5C04E009014D6B3F0ECB6E14D0FDC004
:1038D000E9FFFEC0EAFFEF5061080DE1CB50106E2A
:1038E000116AFF0E101801E1115003E009014D6B40
:1038F000CB6809014C8109014D510BE10001F76BC7
:103900000001640EEF6FE9EC37F00001F66F23EC75
:1039100039F0020E0001EA6AFB25E96EFC51EA2249
:10392000EF50720807E14CC9A8FF0001650EF06F67
:10393000F6EC37F048C9F3FF49C9F4FF00D0120094
:10394000EA6A030FE96E090EEA2212000251106EB4
:0C395000116A3F0E105C000E11581200AE
:04395C00966A868859
:1039600098880201C86BC96BCA6BCB6BCC6BCD6BF3
:103970000901006B030E005D15E20051040DF3CF49
:1039800010F0F4CF11F0400E1026000E112200515D
:1039900046EC21F010C0EFFF00518EEC21F0EF80DB
:1039A000002BE8D7236A0201C669D8EC20F05EEC50
:1039B00021F002011F0E5BEC21F00201E96F020110
:1039C0001F0E58EC21F05EEC21F00201210E53ECA9
:1039D00021F05EEC21F00201080EE96F02010E0EEB
:1039E0008BEC21F00A0E8BEC21F00B0E9CEC21F0FD
:1039F000040EE96F02010C0E9CEC21F0020EE96F3F
:103A000002010D0E58EC21F0AEEC21F058EC21F043
:103A100086EC21F0010E9CEC21F0600EE96F0201B2
:103A2000020E58EC21F086EC21F0030E9CEC21F004
:103A3000E9690201070E8BEC21F00F0E9CEC21F0DE
:103A4000610E53EC21F0D5C0E9F20201010E58ECF1
:103A500021F0D6C0E9F20201020E58EC21F0D7C0E5
:103A6000E9F20201030E58EC21F0D8C0E9F202019C
:103A7000040E58EC21F0D9C0E9F20201050E58EC11
:103A800021F0DAC0E9F20201060E58EC21F009013A
:103A9000006B080E005D0BE20201E969080E0901E6
:103AA0000025020158EC21F00901002BF2D786EC29
:103AB00021F0070E58EC21F04C0E206E0201220E70
:103AC00053EC21F074EC21F00D0E9CEC21F0E00E93
:103AD00053EC21F00201C00EE96F0201010E8BECE4
:103AE00021F0040E8BEC21F0010E9CEC21F0200E55
:103AF00053EF21F002010D0EA4EC21F00201C827C2
:103B00001150C92302010E0EA4EC21F00201CA27B4
:103B10001150CB2302010F0EA4EC21F00201CC279F
:103B20001150CD2312000201CE5104E0CCDB01E0A4
:103B3000000C010CC651235C04E1C5DB01E0000C64
:103B4000010C0901010E2B6F030E2B5D07E22B51B7
:103B5000B5EC21F001E0010C2B2BF6D7000C020193
:103B6000CF5104E0B0DB01E1000CFF0C0901010EB4
:103B70002B6F030E2B5D0EE22B51B5EC21F008E00C
:103B80002B51CCDBEF902B51C9DBEF922B51120064
:103B90002B2BEFD7FF0CACDB86A8FED799DB86A8D2
:103BA000FED7ADDB86A8FED78D8C670E8D6E400EDE
:103BB000836E8D9C86A8FED78D8C700E8D6ED0C2C4
:103BC00083FF8D9C86A8FED78D8C212A000E222291
:103BD00012000201D351D41101E11200010ED315DC
:103BE000106E116AD35110240901416F0201D451A2
:103BF00011200901426F956A670E8D6E400E836E2B
:103C00008D9C86A8FED78D8C6A0E8D6E41C983FF70
:103C10008D9C86A8FED78D8C6B0E8D6E42C983FF5E
:103C20008D9C86A8FED76BDB86A8FED78D8C020103
:103C3000D3512126D4512222700E8D6E72DB86A8BC
:103C4000FED78D8CD3C23FF9D4C240F90901010ED1
:103C50003F5F000E405B09013FC910F040C911F001
:103C60003F07000E405B1050111030E0080E3F5D22
:103C7000000E405926E314DB86A8FED78D8C10DB9E
:103C800086A8FED78D8C0CDB86A8FED78D8C08DB32
:103C900086A8FED78D8C04DB86A8FED78D8C00DB32
:103CA00086A8FED78D8CFCDA86A8FED78D8CF8DA34
:103CB00086A8FED78D8C080E09013F5F000E405B81
:103CC000D5D7EEDA86A8FED78D8CC5D7120010DBCB
:103CD00086A8FED7FDDA86A8FED78D8CFF0E215C64
:103CE0001DE15F0E225C1AE10901A669A769A6C958
:103CF000EBF2A7C9ECF285DAF1DA86A8FED78D8C53
:103D00000201100ED8DA0901A56FA66B4C0EA76F41
:103D1000A6C9EBF2E8CFECF274DA10D0DFDA86A8AD
:103D2000FED78D8C9568700E8D6E8D9A86A8FED705
:103D300083CFA5F98D8A212A000E22220901A551DF
:103D40001200D7C2A5F9D8C2A6F90201D751D811DD
:103D500003E1F36AF46A1200956A6A0E8D6EA5C9D2
:103D600083FF8D9C86A8FED78D8C6B0E8D6EA6C9A9
:103D700083FF8D9C86A8FED78D8CB0DA86A8FED7EF
:103D80008D8C0901A5512126A6512222600E225CAC
:103D900002E3140E225E9568700E8D6E0901A5C9AE
:103DA00010F0A6C911F0A507000EA65B1050111067
:103DB0000FE08D9A86A8FED70201D5C2E9FFD6C2D0
:103DC000EAFFD52B000ED62383CFEFFF8D8AE6D7EF
:103DD000D7C2F3FFD8C2F4FF1200DBC28CF909018D
:103DE0008D6B0201DB5103E1F36AF46A1200956AFC
:103DF0006A0E8D6EDBC283FF8D9C86A8FED768DAC3
:103E000086A8FED78D8C6ADA86A8FED78D8C956839
:103E1000700E8D6E09018C512DE08C078D9A86A84D
:103E2000FED783CF8EF98D8A0201D951DA1109E0CC
:103E3000D9C2E9FFDAC2EAFFD92B000EDA238EC914
:103E4000EFFFDC5109018E5DE5E1200E8D6F956A73
:103E5000600E8D6E200E836E8D9C86A8FED78D8C95
:103E60006A0E8D6E836A8D9C86A8FED731DA86A88D
:103E7000FED78D8C09018C510201DB5D09018C6F2D
:103E8000E850106E116AE850212611502222600E6F
:103E9000225C02E3140E225E200E8D5D05E121C03E
:103EA000EBF222C0ECF2ADD9126A09018C5100018B
:103EB0001210F36E8DC9F4FF12000201DD512EDAEB
:103EC000EF901200030E0201DE5D05E2DE5126DAFC
:103ED000EF80DEC223F0120020C0AAF90901010E12
:103EE000A96FE8CFEBF220C0ECF28BD9F0DE09012C
:103EF000A86FE8CFE9F20201030E58EF21F01FDAB4
:103F00000901006F0201200ECED920500901005D89
:103F100005E2600ED8802054002502D02050005DBC
:103F2000016FE850106E116A140ED8801056000E02
:103F3000115610C001F910C003F9026B02C9F3FF5A
:103F400010C0F4FF12000201E00E03DA0901006F55
:103F50000201200EA8D909010051040B01E0000C58
:103F6000010CE1C2E9FFE2C2EAFFEF68E8D909010A
:103F7000126F0201200EEDD90901136FFAD9100B4F
:103F800034E0A1D90901166F0201210E8CD9030179
:103F9000020EFF6F5AEC4AF0A7D90A0EBCD90B0EDD
:103FA00087D90901165108E0E4D90A0B02E0000E96
:103FB00001D0010E0901166F0201020EE96F020124
:103FC0000D0EBAD9220E6FD912C920F085DF020179
:103FD000E9690201070E9FD90D0E6AD90901165130
:103FE00003E00201260E5FD9000C09011351125D96
:103FF00067E013C915F9146B14C9EBF213C9ECF29D
:1040000000D9120E0201D76FD86B0201000ED56FD6
:10401000090ED66F96DE09010051010B4EE0400EED
:10402000025D000E035949E3EE0ED8800255050EDD
:10403000035543E3600E015D40E20151106E116AC9
:10404000D890115004E64C0E105C000E115835E368
:1040500010C901F311C902F30AEC30F0F3CF10F9E3
:10406000F4CF11F9060EE66EE66A0A0EE66E090E48
:10407000E66EDFC2E9FFE0C2EAFFDFC210F0E0C295
:1040800011F0DFC2E6FFE0C2E6FF37EC47F0126E48
:10409000060EE15E1250080E0901115D0BE1105190
:1040A00003E0060E105D06E1E1C2E9FFE2C2EAFFAD
:1040B00010C9EFFF13C920F0010C12C920F00CDF6A
:1040C000000C02010A0EE96F0201070EF1D823501D
:1040D000DDD8EFCF44F90901436B43C9EBF244C982
:1040E000ECF28FD8060E0201D36FD46BE3C2D1F28B
:1040F000E4C2D2F26EDDD5C0D0F24DDDD6C0D0F232
:104100004ADDD7C0D0F247DDD8C0D0F244DDD9C0F7
:10411000D0F241DDDAC0D0F23EDD0201E55103E12B
:104120000901456B03D00901060E456F0201080E17
:10413000D06F31DD45C9D0F22EDD0E0E0201E6272B
:10414000000EE7233C0EE65D000EE75903E23C0E4D
:10415000E66FE76BE6C243F9E7C244F9E6C2E9F26B
:104160000201050EA5D844C9E9F20201060E58EF76
:1041700021F0F4D8E1D8240E96D823C0C6F22350FB
:10418000CDD8EF802350CAD8EF8209012B6B030EE4
:104190002B5D0DE22B51E9D807E02B510201C65DE2
:1041A00003E02BC923F0120009012B2BF0D71200DA
:1041B0009568600E8D6E8D8C8D8A8D8E966A03014A
:1041C000010EFE6F4DEC4AF079D88D9E1200600E04
:1041D0000201E8118D6EE9C283FF956A8D9C86A865
:1041E000FED78D8C12009568600E0201EA118D6E6B
:1041F0008D9A86A8FED783CFABF98D8A0901AB5182
:104200001200EBC221F0ECC222F0EBC2E9F2020193
:10421000080E4ED8ECC2E9F20201090E58EF21F067
:104220000201090E48D80901016F0201080E43D8A6
:10423000F36E01C9F4FF120020C093F90901120EB8
:10424000926F0201ED51090192270201EE5109011D
:10425000932392C9EBF293C9ECF201EF21F0EFC284
:1042600023F0235013D8EFCF2CF909010E0E2B6F3A
:104270000201F05109012B270201F15109012C2300
:104280002BC9EBF22CC9ECF201EF21F0E96EEA6ADE
:10429000D890E936EA36C00EE926020EEA2212006C
:1042A000020191EF21F0E96F0201E86BE7EF20F0E6
:1042B000E86FE7EF20F0EA6FF3EF20F00301050E5F
:1042C000FF6F5AEF4AF00201EA6B8DDF040B120018
:1042D0008D8C6B0E8D6E836A8D9C1200600E8D6EC0
:1042E0000A0E836E8D9C12000201E96B020112001E
:1042F000956A6A0E8D6E010E836E8D9C12008D8CF8
:10430000600E8D6E120E836E8D9C120002014C0E9B
:10431000E96F02011200CCDF74EF21F0B7DFEE523B
:104320001200D1C2E9FFD2C2EAFFD12B000ED22384
:10433000EF50836E8D9C1200BBDF02011200020160
:10434000600EB1DFB9EF21F0B6DF106E116AE850F0
:104350001200A9DF0201030E5BEF21F0235096DF6C
:10436000EFCFE9F20201040E1200D8DFEF50010B8B
:0A43700012000201070E5BEF21F0BE
:06437A00080E04012E5D97
:1043800001E11200FF0E2F5D04E02FC4B7F03CECFA
:1043900026F004012F692E6B316B3091309512009D
:1043A00004012E51070A01E1E5D0010A01E1A4D080
:1043B000030A01E192D0010A01E17ED0070A3AE046
:1043C000010A30E0030A08E0010A01E012000301DB
:1043D000A96BAA6BAB6BAC6B0301030EB86F090141
:1043E0000F691069116912691369146915691669F1
:1043F00017691869430E0001B56FB66B00010F0E07
:10440000B36F090EB46F440E0001B16FB26BEFECE5
:1044100025F004012F6FFF0E2F5D01E11200B1DBCB
:10442000020E2E6F9FDB140E105C000E115801E27D
:10443000BCD044D003013C0EA56FA66BA76BA86B44
:10444000B851B807000922E1A1DB070E2E6F3081B9
:10445000312B30850001EF6BE9EC37F00001D16FB3
:104460000001010EEF6FE9EC37F00001D26F00019F
:10447000020EEF6FE9EC37F00001D36F0001030E7D
:10448000EF6FE9EC37F00001D46F1200040130A1A6
:1044900002D0050E2FD02FC4B8F04FEC26F0000943
:1044A00001E183D00301010EB96FBBDA0301B56BE3
:1044B00068DB0401040E1ED077DB03E30401030E66
:1044C00019D02FC4BEF06FEC27F000096EE06ED853
:1044D00002086BE10401050E2E6F2FC4B8F04FECFB
:1044E00026F0000962E00301030EB96F9ADA49DB96
:1044F0000401060E2E6F12002FC4BEF06FEC27F0E1
:10450000000932E053D80901196F060E195D02E166
:10451000BDEF21F0050E195D2CE138DB32DB070E13
:104520002E6F0301B5A108D0A9C3D1F0AAC3D2F060
:10453000ABC3D3F0ACC3D4F0B5A508D0B1C3DBF0A6
:10454000B2C3DCF0B3C3DDF0B4C3DEF0B5A308D072
:10455000ADC3DFF0AEC3E0F0AFC3E1F0B0C3E2F053
:1045600004013081312B12001FDB1FE30401030E15
:104570002E6F120030B51200F5DA640E105C000EDA
:10458000115813E3A507000EA65BA75BA85BA55116
:10459000A611A711A81103E10401010E2E6F640EEC
:1045A0000301B627000EB723E7D712000901036BFA
:1045B0000001000EBF6F090EC06F7EEC27F0020EE7
:1045C0000901005D01E0FDD10901016B0F0E090138
:1045D000015D0AE20001000EBF6F090EC06F7EECA4
:1045E00027F00901012BF2D7040130A311D00901F2
:1045F000016B040E0901015D0AE20001000EBF6FAC
:10460000090EC06F7EEC27F00901012BF2D71ED0F6
:104610000001A90EBF6F030EC06F7EEC27F00001F2
:10462000AA0EBF6F030EC06F7EEC27F00001AB0E29
:10463000BF6F030EC06F7EEC27F00001AC0EBF6FA2
:10464000030EC06F7EEC27F00301B5810901016BF9
:10465000080E0901015D0AE20001000EBF6F090E9C
:10466000C06F7EEC27F00901012BF2D7D5C009F904
:10467000D6C00AF9D7C00BF9D8C00CF9D9C00DF9CA
:10468000DAC00EF90901016B060E0901015D16E29F
:104690000001000EBF6F090EC06F7EEC27F009010C
:1046A0000151EA6A090FE96E090EEA22EF50090189
:1046B000005D01E0B1D10901012BE6D70901016BD1
:1046C000CE0E0901015D0AE20001000EBF6F090E66
:1046D000C06F7EEC27F00901012BF2D70901046BB2
:1046E0000001000EBF6F090EC06F7EEC27F00009BD
:1046F00004E10901010E046F64D109010051330A7C
:1047000001E1E9D0CC0A01E1E2D0C90A01E1B5D06A
:10471000350A63E0020A21E0340A01E039D10001E0
:10472000000EBF6F090EC06F7EEC27F00901000577
:1047300012E10001030EBF6F090EC06F7EEC27F07F
:10474000040104013051020B05E0020E0901035D72
:1047500001E162D101D060D12FD10001000EBF6F05
:10476000090EC06F7EEC27F0040E0901005D33E1F5
:10477000040130A311D00901016B040E0901015D90
:104780000AE20001000EBF6F090EC06F7EEC27F039
:104790000901012BF2D71ED00001B10EBF6F030E2D
:1047A000C06F7EEC27F00001B20EBF6F030EC06F2A
:1047B0007EEC27F00001B30EBF6F030EC06F7EECDE
:1047C00027F00001B40EBF6F030EC06F7EEC27F020
:1047D0000301B58501D020D1EFD00001020EBF6FDB
:1047E000090EC06F7EEC27F0040E0901025D33E371
:1047F000040130A311D00901016B040E0901015D10
:104800000AE20001000EBF6F090EC06F7EEC27F0B8
:104810000901012BF2D71ED00001AD0EBF6F030EB0
:10482000C06F7EEC27F00001AE0EBF6F030EC06FAD
:104830007EEC27F00001AF0EBF6F030EC06F7EEC61
:1048400027F00001B00EBF6F030EC06F7EEC27F0A3
:104850000301B58301D0E0D0040E0901025F090114
:1048600002510207000908E00001000EBF6F090EA7
:10487000C06F7EEC27F0F3D79FD00001000EBF6F12
:10488000090EC06F7EEC27F0040E0901005D1DE1EA
:104890000001080EBF6F090EC06F7EEC27F000010B
:1048A000070EBF6F090EC06F7EEC27F00001060EE9
:1048B000BF6F090EC06F7EEC27F00001050EBF6FC1
:1048C000090EC06F7EEC27F001D0A6D075D009018B
:1048D000010E046F71D00001000EBF6F090EC06F92
:1048E0007EEC27F0040E0901005D50E1040130A3C5
:1048F00011D00901016B040E0901015D0AE20001FA
:10490000000EBF6F090EC06F7EEC27F00901012B6E
:10491000F2D73BD00001A80EBF6F030EC06F7EEC34
:1049200027F00001A70EBF6F030EC06F7EEC27F0CB
:104930000001A60EBF6F030EC06F7EEC27F00001D2
:10494000A50EBF6F030EC06F7EEC27F0D880080E57
:104950000301A555070EA655000EA755000EA85534
:1049600014E2A5C3A5F3A6C3A6F3A7C3A7F3A8C3E0
:10497000A8F3080E0301A55F070E0301A65B000E56
:104980000301A75B000E0301A85B01D045D014D042
:104990000001020EBF6F090EC06F7EEC27F0090107
:1049A00002510207000908E00001000EBF6F090E66
:1049B000C06F7EEC27F0F3D704000901045101E138
:1049C0008FD6020E0901035D0BE105C9A1F306C9EB
:1049D000A2F307C9A3F308C9A4F30401308317D0D5
:1049E000A10EE96E030EEA6EEE50090105190CE105
:1049F000EE500901061908E1EE500901071904E11A
:104A0000EE500901081900E102E00901036BCCEC4A
:104A100027F00901035104D0CCEC27F0000E00D0A0
:104A200012000001010E99D8010E97D8060E95D8F4
:104A3000A3D8120E92D8230E90D8340E8ED8560ECC
:104A4000B9D8800EB7D898D897D8B96B5BEC26F058
:104A50000901006B0C0E005D02E29FD8FBD7D5C0A8
:104A6000B9F05BEC26F0D6C0B9F05BEC26F0D7C00D
:104A7000B9F05BEC26F0D8C0B9F05BEC26F0D9C0F9
:104A8000B9F05BEC26F0DAC0B9F05BEC26F0090176
:104A9000006BCA0E005D02E280D8FBD70001630EF6
:104AA0005CD8820E5AD8530E58D8630E56D8350E9D
:104AB00054D8010EB96F5BEC26F0B9C3B9F05BECCA
:104AC00026F00301B90502E1040130930301B905A1
:104AD00018E0A951AA11AB11AC1113E00001360E78
:104AE0006DD8A4C3B9F05BEC26F0A3C3B9F05BECBE
:104AF00026F0A2C3B9F05BEC26F0A1C3B9F05BECE1
:104B000026F00001370E29D8040E27D8010E25D82B
:104B1000030E23D8060E21D80C0EB96F5BEC26F0DD
:104B2000030E0301B95D13E10001320E47D8A9C39A
:104B3000B9F05BEC26F0AAC3B9F05BEC26F0ABC38E
:104B4000B9F05BEC26F0ACC3B9F05BEC26F00001E9
:104B5000B9695BEC26F0D8EF26F0B96F5BEC26F074
:104B6000000112000301B6510401235D106E2451AF
:104B70000301B755116E1200B96B5BEC26F0000112
:104B8000120023C4B6F324C4B7F312002FC4B7F045
:104B90003CEC26F004012F6912000001B96B5BECBC
:104BA00026F00901002B1200DDDF900E105C010ED3
:104BB00011581200D2DFE0DFBCEF25F0CEDF040E8B
:064BC000B96F5BEF26F067
:0A4BC6000901006B040E005D06E219
:104BD00000C9B7F051D80901002BF7D7120009011D
:104BE000600E226F000E236F216B040E215D43E2E5
:104BF00041DB0C0E31DB39DB126A136A10501110E5
:104C00001210131032E136DB0C0EB1C0EBFF0D0EAB
:104C1000B2C0EBFF0001B351B41111E00A0EE66E11
:104C2000E66AB3C0E6FFB4C0E6FF24DB22C910F099
:104C300023C911F022C9E6FF23C9E6FF2FDB1ADBE7
:104C40000A0EB5C0EBFF0B0EB6C0EBFF13DB0E0E6A
:104C5000EB6A0F0EEB6A0EDB100EEB6A110EEB6ABD
:104C600021C9B0F0090121511200140E2227000EB3
:104C70002323212BBAD7FF0C0001B751E3DA0C0E26
:104C8000EBDAEE6AED6AB751DDDA060EE5DAEE6AC6
:104C9000EE6AEE6AEE6AB75129DBEF901200040E5D
:104CA0000001B85D07E2B8C0B0F00201010ECE6F9E
:104CB00093EF1DF0000C0001B051140DF3CF46F935
:104CC000F4CF47F9600E09014627000E472316DB93
:104CD000EE50ED100FE1E9DAD2DA14DBD0DA120E81
:104CE000EB50FF0801E1000C1C0E0201F06FF16BAC
:104CF000C6DAE2DAB9C0D0F2CBEC1DF0FFDAEE2A68
:104D0000EF22FCDA05DB01E353D8010C0001B051BE
:104D1000140DF3CF00F9F4CF01F9600E090100275B
:104D2000000E0123E7DAEE50ED1011E1BEDA98DA59
:104D3000E9DA96DA120EEB50FF0803E1F36AF46A3F
:104D400012001C0E0201F06FF16B8ADAB5DAD2DACA
:104D50000001BC51EE24106EBD51EE20116ED60E36
:104D6000D8801054030E11540AE2C4DAEECFBCF01E
:104D7000EFCFBDF0D60ED880BC57030EBD57BCC0D8
:104D8000D3F2BDC0D4F2BAC0D1F2BBC0D2F2E9ECCA
:104D90001DF0B0DA0001BC51EE26BD51ED22AADAB9
:104DA000B7DA01E305D8BCC0F3FFBDC0F4FF1200C1
:104DB0000201010ECE6F93EC1DF0000902E1040028
:104DC000F7D70001B051140DF3CF29F9F4CF2AF928
:104DD000600E09012927000E09012A2329C9E9FFCC
:104DE0002AC9EAFF0C0EE926000EEA22EECF01F3F3
:104DF000EDCF02F30AEC30F0F3CF21F9F4CF22F932
:104E000029C9E9FF2AC9EAFF0A0EE926000EEA22AB
:104E1000EECF01F3EDCF02F30AEC30F0F3CF23F93C
:104E2000F4CF24F929C9E9FF2AC9EAFF0E0EE926C1
:104E3000000EEA22EECF25F9EFCF26F9080E090180
:104E40002527000E090126230901276B286B140E64
:104E50000201F06FF16B29C9E9FF2AC9EAFF120EBE
:104E6000EB500201EF6F2FEC21F025C9DCF326C9CE
:104E7000DDF30301110EDB6F29C9E9FF2AC9EAFF3F
:104E8000E9CFD9F3EACFDAF3ABEC3FF025C901F370
:104E900026C902F30AEC30F0F3CF25F9F4CF26F956
:104EA000080E0201D36FD46B0201210ED16F090EDF
:104EB000D26FE9EC1DF0B9EC20F029C9E9FF2AC94D
:104EC000EAFF120EE926000EEA22EF6829C9E9FF7F
:104ED0002AC9EAFF0E0EEB6A0F0EEB6A1200040EEF
:104EE0000001BE5D0AE2BEC0B0F0FBD9D880EE542E
:104EF000000EED5401E3000C010C000C13DA01E18B
:104F0000000CB051F3D9EF50010B01E00FDA67EC60
:104F10001EF0BFC0E9FFC0C0EAFFEF6E0DDAEE067B
:104F2000EF5ADFD9EE50ED1002E16CEC1FF0010CEE
:104F3000F9D903E1F36AF46A1200B051D7D9EF50FE
:104F4000010B01E0F3D9F8D990D9C351105CC451D9
:104F5000115805E2C6D9EECFC3F0EDCFC4F0C3C0FF
:104F6000D7F2C4C0D8F2C1C0D5F2C2C0D6F2A1EC0B
:104F70001EF0F3CF00F9F4CF01F9DED90901005199
:104F8000EE5E0151ED5ACED902E16CEC1FF0C3C0C8
:104F9000F3FFC4C0F4FF1200C5D902E06CEC1FF0AF
:104FA000CBD9EE6AED6A1200080E0201D76FD86BFA
:104FB0000201460ED56F090ED66FA1EC1EF046C950
:104FC0005DF947C946F95DC947F948C95DF949C95D
:104FD00048F95DC949F9080E106E09014B51D88096
:104FE000105403E24A055D6F02D04AC95DF9080E0C
:104FF0004B5D4A6F5DC94BF94C514D116AE04CC98C
:105000005DF94DC94CF95DC94DF9C5C0E9FFC6C090
:10501000EAFF060E21D9EECF4FF9EECF50F9EECFD1
:1050200051F9EFCF52F94ED9EFCF53F9010E14D900
:10503000EFCF54F947D9020E0FD9EFCF55F942D926
:10504000030E0AD9EFCF56F9576B110E586FC9C02E
:1050500059F9CAC05AF9C9C001F3CAC002F30AEC2F
:1050600030F0F3CF59F9F4CF5AF90C0E0301096F60
:105070000A6B03014F0E076F090E086F3EEC30F00C
:10508000F3CF5BF9F4CF5CF909015B1F5C1F060EDF
:1050900000D95BC9D0F2CBEC1DF0070EFAD85CC981
:1050A000D0F2CBEC1DF00301DE6BDF6B1AEC40F0AD
:1050B000C9C00BF3CAC00CF3AAEC30F0F3CF5BF914
:1050C000F4CF5CF909014C51F31816E14D515C190C
:1050D00013E1C7C0CFF0C8C0D0F0C5C0CDF0C6C086
:1050E000CEF00001460ECB6F090ECC6F1CD8090123
:1050F0004E6FFF0E4E5D03E16CEC1FF0010C4E5144
:10510000A1D8100EA9D84AC9EEFF4BC9EDFF4E51E8
:10511000EDD8EF80010C0001B05194D8E9CFF3FF36
:10512000EACFF4FF120009010169600E026F000E60
:10513000036F006B040E005D5BE2A6D80C0EEED888
:10514000020E8AD8C9D80001125010184AE1135033
:10515000111847E199D80A0EE1D8BED8125010189C
:105160003EE1135011183BE18FD8100E75D8EECFE9
:1051700014F0EFCF15F0166A176A145015101610B8
:1051800017102DE1CDC0E9FFCEC0EAFF060E64D8AE
:10519000EECF10F0EECF11F09FD876D8060E5CD887
:1051A000EE50101808E1EE50111805E1EE501218FB
:1051B00002E1EE50131810E0CFC0E9FFD0C0EAFFC3
:1051C000E868EE180CE1E868EE1809E1E868EE1806
:1051D00006E1E868EE1803E109010051120000C978
:1051E00001F90901140E0227000E0323002BA2D798
:1051F000FF0E015D24E00151140DF3CF02F9F4CF4D
:1052000003F9600E0227000E03230A0EE66EE66A1B
:10521000CDC0E6FFCEC0E6FF37D802C910F003C903
:1052200011F002C9E6FF03C9E6FF38D850D81DD8EF
:105230002BD80A0E10C0EBFF0B0E11C0EBFF0901BB
:1052400001511200140DF3CFE9FFF4CFEAFF600E15
:10525000E926000EEA221200E926000EEA221200D8
:1052600000C9E9FF01C9EAFF1200EECF10F0EFCF4D
:1052700011F0120022C9E9FF23C9EAFF120046C952
:10528000E9FF47C9EAFF120002C9E9FF03C9EAFFC3
:1052900012000301DE6FDF6B1AEF40F037EC47F0CE
:1052A000126E060EE15E125012000201010ECF6F67
:1052B000AFEC1DF0E66E1200120EEB500201EF6F24
:1052C0002FEF21F0C7C0E9FFC8C0EAFF1200CBC032
:1052D000E9FFCCC0EAFF1200EECF12F0EFCF13F0DF
:1052E0001200B051AFDF100E2CEF29F0ABDF130E20
:1052F0002CEF29F0B5DF0E0E2CEF29F0C0DF0E0EDB
:105300002CEF29F0120EA8DFE552E750EF6E1200E5
:10531000ACDFD60E105C030E115812009DDFA5DF26
:1053200067EF29F009D8EE50ED101200B051DEDF22
:0E533000EF90080E49EF29F0000171EF29F00F
:02533E0012005B
:1053400037DB040B05E034DB080B01E0020C010C39
:10535000000C0901406B416B446B86C384F387C327
:1053600085F3EEDF0901456F400E426F0101420EE9
:10537000476F090E486F0101000E456F090E466F19
:1053800086C3E9FF87C3EAFFEF500101446F04ECD5
:1053900013F00901436F442B476B6C0E005D08E16D
:1053A0000151750A02E0050A19E1010E476F16D096
:1053B0006D0E005D13E1455105E002DB6F0A02E16D
:1053C000010E476FFDDA6C0A09E1010E476F86C3D3
:1053D000E9FF87C3EAFF090E07DBEF88475116E1B3
:1053E00045C9FFF042510001FD6FFE6B000EFD2725
:1053F000090EFE230001000EFB6F090EFC6FD3ECBB
:1054000017F0F35009014013F45041134351ACE13C
:105410004051020B01E012004051040B02E01AEF70
:1054200038F04051080B02E069EF38F04051100BA2
:1054300002E095EF38F04151010B02E087EC39F0C2
:1054400012009BDA020ED0DAEFCF01F996DA030EE2
:10545000CBDAEFCF02F991DAEECF07F9EDCF08F909
:10546000BEDAEF6A8AC384F38BC385F369DF09016F
:10547000096F610E025D6CE30251680869E3006B1D
:10548000610E025D066F070E0115106E010E1052BF
:1054900004E0E846FE0B1006FCE10901056F065129
:1054A000036F046B920E03270F0E042374DA09E1D5
:1054B0000651036F046B890E03270F0E042300812E
:1054C00007D00651036F046B800E03270F0E0423D1
:1054D000F00E0115066FE85004E15DDA01E173D0CA
:1054E0006DD0100E065D0CE156DA05E10301FB0EEE
:1054F000916F940E7FD10301F80E916F940E7AD1C3
:10550000200E065D03E1010E001506E0300E065D7B
:1055100008E1010E001505E0080E011501E155D165
:1055200065D1400E065D0CE101A703D000B186D124
:1055300002D000A183D10301DE0E916F940E5AD1E7
:10554000500E065D01E07AD1010E001537E03BD028
:105550006B0E025D0AE1095105E001C9EFF0E9ECCB
:1055600037F060D003019F6B5FD06C0E025D41E1AC
:10557000010505E10301BE0E916F950E3BD1020EB0
:10558000015D05E103016E0E916F950E33D1040E9E
:10559000015D05E10301BA0E916F780E2BD1015127
:1055A00008E1095101E03AD10301B40E916F780E80
:1055B00021D1030E015D04E1095105E0310E29D12D
:1055C000060E015D02E1300E24D1050E015D02E1FF
:1055D000470E29D1100E015D01E230D101512108A1
:1055E00001E22CD1100E015DEA6AD10FE96E000EC6
:1055F00017D06E0E025D01E075D0006B0F0E011525
:10560000106EC11C0F0B105C01E20083F00E01153F
:10561000066FE85001E1B5D0100E065D07E1D8D95C
:10562000EA22EF5003019F6FA06BBBD0200E065DF6
:105630003BE1CED9EA22EFCF06F90751081120E16C
:10564000330EB0D90750300F03017E6F2E0E7F6FDF
:10565000330EA8D903C006F9090103500A0D79D900
:105660000301806F0A0E9ED907C006F90901075091
:10567000640D6FD90301816F826B0901076B086BA1
:10568000075182D9ACD9EF6E07517ED901E1D6D04E
:1056900007C910F008C911F0072B000E082307C92D
:1056A000F3FF08C9F4FF1200300E065D04E1020E9C
:1056B000001501E08AD0500E065D04E1020E0015CF
:1056C00001E183D0400E065D04E1020E001501E009
:1056D0008DD0600E065D01E0B1D0020E001501E034
:1056E000ADD084D0770E025D01E08DD0006B0F0E3F
:1056F00001150B6F0A6BE80403E1BDCF0AF905D071
:10570000020E0B5D02E1BACF0AF90F0E0A1501E095
:105710000087F00E0115066FF00E065D30E10B51AB
:1057200004E153EC39F0300F74D0040E0B5D11E13D
:10573000CB50106E116AFF0E101801E1115002E0FB
:10574000000E01D0010E010802E1610E62D0380E98
:1057500060D0080E0B5D72E1066B0F0EBD1401E008
:1057600006810F0EBA1401E0068306C99BF38CC3B1
:1057700099F38DC39AF307C998F361EF2CF00651A2
:1057800005E10301CE0E916F940E34D0100E065D2C
:1057900010E10BC9F5F0EEEC38F0F3CF9FF3F4CF46
:1057A000A0F38CC39DF38DC39EF307C99CF380EFD8
:1057B0002CF0300E065D03E1080E001506E1500ED8
:1057C000065D08E1080E001505E10301EF0E916F7B
:1057D000940E10D0400E065D03E1080E001506E1A0
:1057E000600E065D2BE1080E001528E10301F40EA2
:1057F000916F940E926F8CC38FF38DC390F307C992
:105800008EF321EF2CF0730E025D18E1095104E1D3
:10581000300EE5D8EF6E12D0015102E1350E03D003
:1058200001050CE13E0E0301966F976B8CC394F358
:105830008DC395F307C993F340EF2CF0F368F46838
:10584000120003018E51F76A9125F66E9251F722EC
:105850000800F5508FC3E9FF90C3EAFFEF6E8FC3D6
:10586000E9FF90C3EAFFEF5003E1F368F468120028
:105870008E2B8E51116A8EC3F3FF11C0F4FF1200FC
:1058800003019351962509010C6F000E0301972126
:10589000AA6E0CC9A9FF3F0EA616A680A85094C3F5
:1058A000E9FF95C3EAFFEF6EA85003E1F368F468DF
:1058B0001200932B9351116A93C3F3FF11C0F4FFAD
:1058C0001200020E0301985D03E3F368F46812000E
:1058D000985103E19B390F0B9B6F0F0E9B15090825
:1058E00002E2370E01D0300E9B2599C3E9FF9AC31F
:1058F000EAFFEF6E9829116AF36E11C0F4FF1200EF
:1059000003019C5111E17E0EE66E030EE66E9FC30D
:10591000E6FFA0C3E6FF8DEC44F0E552E552E55208
:10592000E5520301836B9C6B9C512ED89DC3E9FF0C
:105930009EC3EAFFEF6E9C5127D803E1F368F46839
:1059400012009C2B9C51116A9CC3F3FF11C0F4FF01
:105950001200F3CF10F0F4CF11F0330E0B6E0C6A7F
:10596000F3CF06F0F4CF07F080EC4AF006C010F059
:1059700007C011F0300E062412008AC3E9FF8BC362
:10598000EAFF040EF4EF2CF0EA6A7E0FE96E030ED4
:10599000EA22EF50120003C9E9FF04C9EAFFEF5001
:1059A00005151200106E0C6E06C907F0C5EF4AF01F
:1059B00084C3E9FF85C3EAFF090E16D8EF50120031
:1059C0004251EA6A000FE96E090EEA22EF50120016
:1059D0000F0E0115EA6AE30FE96E000E12008CC388
:1059E000E9FF8DC3EAFF1200E926000EEA22120049
:1059F0000301F35101E112000B012B0EF96F8E0E22
:105A0000FA6FB3EC48F00B014E0EF96F8C0EFA6F83
:105A1000B3EC48F0F3C3A9F90901A951000817E252
:105A2000A951070B05E10B012E0EF56F53EC48F061
:105A30000B01F2510B01F35D02E0E1D908D0030143
:105A4000320EFF6F5AEC4AF00901A907E5D70B01A6
:105A5000760EF96F8C0EFA6FB3EC48F00301D10E9D
:105A6000F46F000EF56F35EF2DF0BDDA89DA010E17
:105A7000E926000EEA2284DA020EE926000EEA2266
:105A80007FDA030EE926000EEA22E3EF2FF0090188
:105A9000016B0B01F2510B01F35D02E10400F9D738
:105AA00043EC48F00901006F0D0E0901005D04E0B0
:105AB0000A0E0901005D01E118D00901012B030163
:105AC000F6C3E9FFF7C3EAFFF62B000EF72300C980
:105AD000EFFFF6C3E9FFF7C3EAFFEF6A0301F851EE
:105AE000F807000901E101D0D4D70901015100D024
:105AF0001200F9C301F9FAC302F90901036BF9C3F2
:105B0000E9FFFAC3EAFFEFCF00F9EF5021E02E0ED4
:105B10000901005D11E10301F9C3E9FFFAC3EAFFDE
:105B2000F92B000EFA23EF6A33DA032B42DAF9C3BA
:105B300001F9FAC302F907D0300E005D03E300510A
:105B4000390801E2000C0301F92B000EFA23D7D724
:105B50001FDA2FDA030E0901035D01E0000C010CCE
:105B60000B01F2510B01F35D02E10400F9D743ECA4
:105B700048F00901006F310E0901005D08E3390E9C
:105B80000901005D04E20901005103D002D0390E81
:105B900000D012000B010D0EF56F53EC48F00B0115
:105BA0000A0EF56F53EC48F0300E0301FD5DFF0F58
:105BB000E96EEA6AD890E936EA36000EE926040E64
:105BC000EA22EECFF9FBEDCFFAFBB3EC48F003018C
:105BD000FD51380A01E111D10F0A01E10CD1010A8E
:105BE00001E1FCD0030A01E1ECD0010A76E0070AEA
:105BF0006BE0010A61E0030A01E000D10001330E0D
:105C0000EF6FE9EC37F00901A16F0001340EEF6F7F
:105C1000E9EC37F00901A26F870EE66E090EE66E19
:105C2000A1C9E6FFA2C9E6FF8DEC44F0E552E552BA
:105C3000E552E5520B01870EF76F090EF86FA1ECE4
:105C400048F00B01290EF56F53EC48F00B013A0EAA
:105C5000F56F53EC48F00B01200EF56F53EC48F054
:105C60000301140EF86F0301870EF66F090EF76F2C
:105C70000EDF00091FE0870EE66E090EE66E18ECD7
:105C800044F0E552E552F3CFA1F9F4CFA2F9A1C94E
:105C9000A8FF0001330EF06FF6EC37F0A2C9A8FFA1
:105CA0000001340EF06FF6EC37F0A2C9D9F0A1C9AB
:105CB000DAF001D044D0A2D00901D10E9F6F000EBE
:105CC000A06F0901A36B11D00901DF0E9F6F000EB9
:105CD000A06F09010E0EA36F08D00901DB0E9F6FA4
:105CE000000EA06F09010A0EA36F9FC9F4F3A0C9AB
:105CF000F5F3BBDE0B01290EF56F53EC48F00B01F9
:105D00003A0EF56F53EC48F00B01200EF56F53EC93
:105D100048F00301140EF86F0301870EF66F090EA9
:105D2000F76FB5DE03019B0EFB6F090EFC6F0301DD
:105D3000870EF96F090EFA6FDCDE000911E10B0125
:105D4000E10EF96F8D0EFA6FB3EC48F00B01F251D2
:105D50000B01F35D02E10400F9D743EC48F030D0C9
:105D60009FC9E9FFA0C9EAFF9BC9EEFF9CC9EEFFEE
:105D70009DC9EEFF9EC9EEFF9BC9A8FF0901A35173
:105D8000A32B0001F06FF6EC37F09CC9A8FF0901C6
:105D9000A351A32B0001F06FF6EC37F09DC9A8FFCB
:105DA0000901A351A32B0001F06FF6EC37F09EC957
:105DB000A8FF0901A351A32B0001F06FF6EC37F007
:105DC0001DD00001160EEF6FE9EC37F00109A86E47
:105DD0000001160EF06FF6EC37F010D00001160E31
:105DE000EF6FE9EC37F0FE0BA86E0001160EF06FB6
:105DF000F6EC37F003D018D801D000D012000B0118
:105E0000AB0EF96F8C0EFA6FB3EC48F0A9DE090106
:105E1000AA6F390EAA5D03E0AAC9FDF3BBDE380EF6
:105E20000901AA5DECE112000901006B0901026B96
:105E30003CEC37F023C485F924C486F90901855167
:105E40000401235D106E245109018655116E320E36
:105E5000105C000E115809E323C485F924C486F9A7
:105E60000B01150EF56F53EC48F004000B01F251D5
:105E70000B01F35DE3E00901025101E07ED0040073
:105E80000B01F2510B01F35D05E043EC48F0090111
:105E9000016F01D0F0D709010051030A2EE0010A79
:105EA00028E0030A1DE000D00901010504E1090111
:105EB000010E006F14D0040E0901015D0BE17EECB0
:105EC00037F00B01060EF56F53EC48F00901010E97
:105ED000026F05D00B01150EF56F53EC48F04CD056
:105EE0000901060E046F0901036B0901020E006F20
:105EF00043D00901030E006F3FD009010351032B6A
:105F0000EA6A050FE96E090EEA2201C9EFFF0901ED
:105F10000351106E116A113404E210508008000E13
:105F2000115429E20901060E046F0901016B0901F0
:105F30000151106E116AD890115004E6800E105C69
:105F4000000E11580EE209010151EA6A050FE96ECF
:105F5000090EEA22EFCF8DF254EC37F00901012B44
:105F6000E6D702017F6B7BEC36F004C9F5FB53ECFE
:105F700048F00901006B00D07ED7010E00D012005E
:105F800022D80B012E0EF56F53EC48F0F3EF2FF0F3
:105F900001C9E6FF02C9E6FF18EC44F0E552E552FC
:105FA000F350E66EFBC310F0FCC311F0090103517E
:105FB00012000F011024E96E000E1120EA6EE55266
:105FC000E750EF6E1200EF50E66EE66A8DEC44F09B
:105FD000E552E552E552E5520B01000EF76F090E4E
:105FE000F86FA1EF48F0000EE66E090EE66EF4C3FE
:085FF000E9FFF5C3EAFF12000E
:085FF800030100390F0B006FDB
:10600000E850090804E2410E0025F60F1200300E98
:106010000025120002C3F3FF01C3F4FF120003C303
:1060200001F904C302F905C303F906C304F9090120
:10603000010E056F090E066F05C9E9FFEA6E030E32
:10604000A1DAEF50E66E030E97DA00C9EFFF73DABC
:10605000020E98DA010E87DAEF50E66E6CDA020E65
:106060008BDA010E80DA00C9EFFF01C904F002C922
:1060700005F003C906F004C907F012000901A96B75
:10608000AA6BAB6BAC6B07C3A7F908C3A8F909C32C
:10609000A5F90AC3A6F9D890A633A533A5C910F06F
:1060A000A6C911F0A507000EA65B1050111018E04C
:1060B000A7C9E9FFA8C9EAFF020EA727000EA82377
:1060C000EECF10F0EFCF11F0000110500901A92719
:1060D000000111500901AA23000EAB23AC23DED727
:1060E00003010951010B0EE0A7C9E9FFA8C9EAFFA6
:1060F000EFCF10F0000110500901A927000EAA23CC
:10610000AB23AC230901AB51AC1119E0A9C910F0C4
:10611000AAC911F0126A136AABC914F0ACC915F020
:10612000166A176A10501424A96F11501520AA6F0F
:1061300012501620AB6F13501720AC6FE3D7A9C9CC
:1061400010F0AAC911F0101E111E10C0F3FF11C0EB
:10615000F4FF12000901010E006F016B026B0301D5
:106160000B510C114EE0400E0B5D000E0C5904E378
:10617000400E106E116A04D00BC310F00CC311F066
:1061800010C005F9090110500201D76FD86B020148
:10619000060ED56F090ED66FA1EC1EF00901055150
:1061A000106E116A105003010B5F11500C5B090156
:1061B000046B0551045DD3E20451EA6A060FE96EEF
:1061C000090EEA22EFCF03F900510AE1035101253C
:1061D000016F0351015D0DE2022B0BE1012B09D090
:1061E00003510225026F0351025D03E2012B01E11D
:1061F000022B005102E0000E01D0010E006F042BB3
:10620000D8D70901021D026F011DF36E02C9F4FF08
:10621000120003010D51390805E3300E0D5D02E354
:10622000300E0FD00D51460805E3410E0D5D02E31F
:10623000370E07D00D51660806E3610E0D5D03E3CE
:10624000570E0D5D1200FF0C010E0301EA6A0E25C8
:10625000E96E0F51EA22EFCF0DF3DBDF0901586F32
:106260000EC3E9FF0FC3EAFFEFCF0DF3D2DF090141
:10627000596FFF0E585D03E0FF0E595D01E1000C00
:106280005939F00B581110C3E9FF11C3EAFFEF6E43
:10629000010C0901586BA6A202D00400FCD72F0EF6
:1062A000A616A684030114C3E9FF15C3EAFF142B45
:1062B000000E1523EF50A86E0901582B030116514B
:1062C0000901D880585501E2A86A13C310F0116A79
