:100000000C944A000C9469000C9469000C946900EB
:100010000C9469000C9469000C9469000C946900BC
:100020000C9469000C9469000C9469000C946900AC
:100030000C9469000C9469000C9469000C9469009C
:100040000C946B000C9469000C9469000C9469008A
:100050000C9469000C9469000C9469000C9469007C
:100060000C9469000C9469000C9469000C9469006C
:100070000C9469000C9469000C9469000C9469005C
:100080000C9469000C9469000C9469000C9469004C
:100090000C94690011241FBECFEFD0E1DEBFCDBFAD
:1000A00012E0A0E0B1E0E6EDF3E200E00BBF02C039
:1000B00007900D92A830B107D9F712E0A8E0B2E09E
:1000C00001C01D92A934B107E1F70E945C040C94B1
:1000D000E9110C9400001F920F920FB60F92112499
:1000E0008F939F938091460290914702019690933F
:1000F000470280934602809118029091190201965E
:100100009093190280931802009906C080912A02E8
:100110008F5F80932A0202C010922A0201990AC0BE
:1001200080910A0290910B02019690930B028093AA
:100130000A0204C010920B0210920A0202990AC02D
:1001400080910C0290910D02019690930D02809384
:100150000C0204C010920D0210920C0203990AC006
:1001600080910E0290910F02019690930F0280935E
:100170000E0204C010920F0210920E0204990AC0DF
:100180008091100290911102019690931102809338
:10019000100204C0109211021092100205990AC0B8
:1001A0008091120290911302019690931302809312
:1001B000120204C0109213021092120206990AC091
:1001C00080911402909115020196909315028093EC
:1001D000140204C0109215021092140207990AC06A
:1001E00080911602909117020196909317028093C6
:1001F000160204C0109217021092160280912B0270
:100200008F5F80932B0280912C02823049F4809181
:100210002B02853670F085B191E0892785B907C03A
:10022000813011F4289803C0882319F4289A109279
:100230002B029F918F910F900FBE0F901F901895DA
:10024000F999FECF90E092BD81BDF89A80B590E01B
:100250000895F999FECF90E092BD81BD60BDFA9AF4
:10026000F99A81E090E00895982F882311F480E2B4
:100270000895813029F4F999FECF82E490E037C0E7
:10028000823029F4F999FECF83E490E030C08330C6
:1002900029F4F999FECF84E490E029C0843029F450
:1002A000F999FECF85E490E022C0853029F4F999D0
:1002B000FECF86E490E01BC0863029F4F999FECF8A
:1002C00087E490E014C0873029F4F999FECF88E4E0
:1002D00090E00DC0883029F4F999FECF89E490E0D0
:1002E00006C0893049F4F999FECF8AE490E092BDC6
:1002F00081BDF89A80B508958A3019F485B180954A
:1003000008958057803110F08FEF0895F999FECF4E
:100310009F5B892F90E092BD81BDF89A80B50895CA
:100320001F93982F882341F481E40E942901F999B1
:10033000FECF81E490E009C0813061F482E40E9444
:100340002901F999FECF82E490E092BD81BDF89A2F
:1003500080B566C0823041F483E40E942901F99996
:10036000FECF83E490E0F1CF833041F484E40E9437
:100370002901F999FECF84E490E0E7CF843041F47D
:1003800085E40E942901F999FECF85E490E0DDCF54
:10039000853041F486E40E942901F999FECF86E474
:1003A00090E0D3CF863041F487E40E942901F99987
:1003B000FECF87E490E0C9CF873041F488E40E9403
:1003C0002901F999FECF88E490E0BFCF883041F44D
:1003D00089E40E942901F999FECF89E490E0B5CF24
:1003E000893041F48AE40E942901F999FECF8AE418
:1003F00090E0ABCF8A3029F46160609565B985B132
:100400000EC08057803150F4192F1F5B812F0E943E
:100410002901F999FECF812F90E097CF862F809503
:100420001F910895F999FECF81E090E092BD81BDC2
:10043000F89A80B50895682F81E00E9429010895F7
:10044000F999FECF81E190E092BD81BDF89A80B527
:100450000895F999FECF82E190E092BD81BDF89AAE
:1004600080B508950895089580E0089580E0089586
:1004700083E00895E3EDF1E0E80FF11D8081089538
:100480000895E3EEF1E0E80FF11D80810895F999F8
:10049000FECF8C5F90E092BD81BDF89A80B5089543
:1004A0008C5F0E9429010895F999FECF875F90E043
:1004B00092BD81BDF89A80B50895875F0E94290199
:1004C000089580E1089588E0089581E00895F999FC
:1004D000FECF81E090E092BD81BDF89A80B508958D
:1004E000682F81E00E9429010895F999FECF82E0EA
:1004F00090E092BD81BDF89A80B50895682F82E0A2
:100500000E9429010895682F83E00E94290108951F
:10051000F999FECF83E090E092BD81BDF89A80B555
:10052000089560E070E080E090E0089560E070E0A1
:1005300080E090E008950895282F83E080931B02C7
:1005400083E880931A0260931C0210921D0240936C
:100550001E0220931F02F999FECF81E490E092BD24
:1005600081BDF89A80B580932002F999FECF2D5B6A
:10057000822F90E092BD81BDF89A80B580932102D0
:100580000E948C080895FC0182E0808380E78183CB
:100590001282138214821582168280E091E00E94FA
:1005A0003E08089584E091E00E943E0808950F936C
:1005B0001F93082F162F82E191E00E943E08309190
:1005C000390243E450E0A12FB0E0602F70E0687082
:1005D000707001E010E0FA01E354F040CD010E2EFE
:1005E00002C0959587950A94E2F780FF1AC06115BD
:1005F000710541F0F999FECF52BD41BDF89A80B521
:10060000381779F4F999FECF52BD41BDF89A80B5FB
:1006100025B1C80102C0880F991FEA95E2F7282783
:1006200025B94F5F5F4F4B345105A9F61F910F91CC
:1006300008956F927F928F929F92AF92BF92CF92C6
:10064000DF92EF92FF920F931F93DF93CF93CDB77B
:10065000DEB72E970FB6F894DEBF0FBECDBF4C01AC
:100660005B016A013901CE0101960E948607892B40
:1006700011F080E02CC08981F601808329813A81C4
:100680004B815C81BB27A52F942F832FF50180839D
:10069000CA01AA27BB279170F401918380838AE164
:1006A00056954795379527958A95D1F72770F30189
:1006B00020834D81F8014083442341F09E01295F4E
:1006C0003F4FC701B90150E00E94FE0E81E02E9617
:1006D0000FB6F894DEBF0FBECDBFCF91DF911F9153
:1006E0000F91FF90EF90DF90CF90BF90AF909F90D1
:1006F0008F907F906F9008952F923F924F925F92CC
:100700006F927F928F929F92AF92BF92CF92DF9221
:10071000EF92FF920F931F93DF93CF93CDB7DEB786
:10072000E4970FB6F894DEBF0FBECDBF3C01562E46
:10073000442E2CABB02E3E2C2F2C8DB79EB70A9793
:100740000FB6F8949EBF0FBE8DBFEDB7FEB73196C2
:100750008E010C5E1F4FADB7BEB712961C930E9361
:1007600011978AE191E09383828375826482668324
:100770001782408711860E94120F2E2D3F2DC9012E
:100780006C01FF248DB79EB70A960FB6F8949EBFF2
:100790000FBE8DBFE02EA12E8E010F5F1F4FAEE268
:1007A0008A2EA1E09A2E23C000D000D000D0EDB751
:1007B000FEB73196ADB7BEB712961C930E93119744
:1007C00093828282D6018D916D01848315820E946D
:1007D000120F8DB79EB706960FB6F8949EBF0FBE48
:1007E0008DBF8E2D9A2DB8010E94070FF394FB1434
:1007F000D8F28E2D9A2D0E943E08252D30E040E043
:1008000050E0542F432F322F2227842D90E0A0E078
:10081000B0E0282B392B4A2B5B2BC301A0E0B0E0C2
:10082000DC0199278827282B392B4A2B5B2B6CA9B5
:10083000862F90E0A0E0B0E07AE1880F991FAA1F10
:10084000BB1F7A95D1F7282B392B4A2B5B2B2E8394
:100850003F834887598781E08B87BA86BB2051F058
:100860009E01245F3F4FC901632D722D4B2D50E037
:100870000E94FE0ECE0106960E940E0720E0892BF4
:1008800009F421E0822FE4960FB6F894DEBF0FBE84
:10089000CDBFCF91DF911F910F91FF90EF90DF902F
:1008A000CF90BF90AF909F908F907F906F905F9010
:1008B0004F903F902F9008952F923F924F925F92CA
:1008C0006F927F928F929F92AF92BF92CF92DF9260
:1008D000EF92FF920F931F93DF93CF93CDB7DEB7C5
:1008E000A3970FB6F894DEBF0FBECDBF8FEF82B9CE
:1008F00011B884B985B91092C00086E08093C20017
:100900001092C50087E68093C40088E18093C100FF
:1009100082E080936E008DE387BD8CE084BD789487
:1009200084E060E040E020E00E94BA06892B21F0DC
:1009300084E391E00E943E088EE491E00E943E082C
:100940000E94F10A8823A1F581E460E00E94290158
:1009500082E460E00E94290183E460E00E942901B2
:1009600084E460E00E94290185E460E00E9429019E
:1009700086E460E00E94290187E460E00E9429018A
:1009800088E460E00E94290189E460E00E94290176
:100990008AE460E00E9429018BE460E00E94290162
:1009A00011EB812F60E00E9429011F5F113CC9F704
:1009B0000E94030BE6E0AE2EB12CAC0EBD1E3E0134
:1009C0000894611C711C7EE2272E71E0372E61E4D1
:1009D000862E912C53E0C52E44ED442E4EEF542E1E
:1009E00080912A02893C88F080914102813069F02F
:1009F0002FEF2093430281E06FEF0E9429010E94B4
:100A0000030B84E691E00E943E08109231020E949E
:100A100064088091180290911902895E934030F029
:100A200010921902109218020E94F9098091410255
:100A30008230C1F0833030F4882351F0813009F0E6
:100A400032C116C08330B9F0843009F02CC128C1FE
:100A5000809143028F3F21F481E08093410204C0E2
:100A6000C09241020E94E1080AE012E0FF241EC188
:100A70000E944D0AF9CF8091310287FFF5CFEDB783
:100A8000FEB73A970FB6F894FEBF0FBEEDBF319692
:100A9000ADB7BEB71296BC92AE92119788E791E0BF
:100AA000938382838091330290913402958384836F
:100AB0008091350286831782809136028087118665
:100AC0000E94120F10E0ADB7BEB71A960FB6F89499
:100AD000BEBF0FBEADBF23C000D000D000D02DB729
:100AE0003EB72F5F3F4FEDB7FEB772826182F901CB
:100AF00033822282AF5CBD4F16968C91848315821F
:100B00000E94120F8DB79EB706960FB6F8949EBF3F
:100B10000FBE8DBFC501B3010E94070F1F5FA12F3C
:100B2000B0E08091310290E08F709070A817B90703
:100B30009CF2C5010E943E080E945A0B8CE891E08D
:100B40000E943E088091330290913402892B09F46F
:100B50008BCF08EB10E0F999FECF0650104012BD84
:100B600001BD0A5F1F4FF89AD0B482E991E00E945C
:100B70003E08D7FE8EC0ED2CFF248AEA91E00E9449
:100B80003E08D6FC0FC090913602F999FECF07506F
:100B9000104012BD01BD095F1F4FF89A80B598172C
:100BA00009F077C0E4FE0DC090913802F999FECFAC
:100BB000D40111969C928E92F89A80B5981709F0FC
:100BC00068C0F999FECF0450104012BD01BD0C5F02
:100BD0001F4FF89A20B5F999FECF0550104012BD6D
:100BE00001BD0B5F1F4FF89A60B5F999FECF025017
:100BF000104012BD01BD0E5F1F4FF89A40B5F99924
:100C0000FECF0350104012BD01BD0D5F1F4FF89A7B
:100C100050B5C70181709070982F8827820F911D61
:100C2000209133023091340282279327B2E0EB22E5
:100C3000FF243E2D2227260F311D82239323892B4B
:100C400041F5809135024827452319F5F999FECFE2
:100C50000150104012BD01BD0F5F1F4FF89A80B5C3
:100C6000813019F08230A9F40AC0F999FECF12BD83
:100C700001BDF89A60B58D2D0E94D7020AC0F9997E
:100C8000FECF12BD01BDF89A80B584E091E00E94CC
:100C90003E08085F1F4F083C110509F05CCFE4CE09
:100CA0000E946108E1CE10924102DECEF8018081FF
:100CB0009181893C910564F083EC91E00E943E08AB
:100CC0008F2D64E143E00E949C02D8014D925C921A
:100CD000F3940E5F1F4FB7E0FB1609F481CEE6CF09
:100CE0008295807F8093ED001092EE001092EF00CD
:100CF0001092F0001092F1001092F2001092F300A6
:100D00001092F4001092F5001092F6001092F70085
:100D100080E01092FA008F5F8830D9F708951F9312
:100D200010E0812F0E9470061F5F1F30D1F71F91C6
:100D300008959091ED0021E030E0822F8295807F30
:100D40008093ED008091EF00807C31F08091EE0087
:100D500086FF05C01092ED009093ED0009C02F5F53
:100D60003F4F2F30310549F79093ED002FEF3FEFC4
:100D7000C9010895843029F1853048F48130B9F0F3
:100D80008130B8F08230C9F0833071F418C08730F8
:100D9000F1F0883028F48530B1F0863029F415C0A0
:100DA0008830C9F08F3FD1F02DEF3FEF2DC062E6C4
:100DB00001C066EC4EE028E111C064E2FBCF62E1C5
:100DC000F9CF6EE0F7CF66E0F5CF62E0F3CF62E0F7
:100DD00044E026E103C062E044E022E16093E200E7
:100DE0004093E3002093E4000E948F061092ED00F0
:100DF0008091EF0080688093EF008091D80082603E
:100E00008093D80020E030E0C9010895E8EDF0E0DB
:100E100080818D7F808380E090E00895CF93DF9381
:100E2000EC010E9499069C018FEF2F3F380719F4BF
:100E30002FEF3FEF67C0822F8295807F8093ED0078
:100E4000822F0E9470068D819C8180FF31C09F702F
:100E5000905F9093EF00988182FF05C0990F990FE2
:100E6000990F946003C0990F990F990F9093F00018
:100E700088819981AA81BB8155E0B695A795979500
:100E800087955A95D1F78093F100892F9A2FAB2F30
:100E9000BB278093F200892F9A2FAB2FBB2780931B
:100EA000F3008C81482F50E0FE0120E030E01FC0AD
:100EB0009F709093EF0081FF03C084E08093F00067
:100EC00088819981AA81BB81282F2295220F207EBB
:100ED0002093F20023E0B695A795979587952A95DC
:100EE000D1F7DDCF85818093FA002F5F3F4F319698
:100EF00024173507BCF38091EF0080648093EF00E6
:100F000020E030E0C901DF91CF910895EF92FF9288
:100F10000F931F93CF93DF93EC011092ED0080911C
:100F2000EE0085FD03C02EEF3FEF7AC01D821882D0
:100F300019821A821B821C828091F00082FF02C0FB
:100F400082E08D838091EF0084FF39C08D818160C4
:100F50008D832091F3008091F200E090F100609188
:100F6000F00090E0A0E0B0E0FDE0880F991FAA1F1C
:100F7000BB1FFA95D1F730E040E050E0E5E1220FE9
:100F8000331F441F551FEA95D1F7820F931FA41FEB
:100F9000B51FFF2400E010E075E0EE0CFF1C001F01
:100FA000111F7A95D1F78E0D9F1DA01FB11F669559
:100FB00066956695860F911DA11DB11D13C0809188
:100FC000F3002091F20022952695277090E063E0CF
:100FD000880F991F6A95E1F7820F911DAA2797FD47
:100FE000A095BA2F88839983AA83BB838091EF0051
:100FF0008F708C8390E007C08091FA00FE01E90FAA
:10100000F11D86839F5F8C819817B0F380E00E946A
:1010100070068091EF0080688093EF0020E030E060
:10102000C901DF91CF911F910F91FF90EF9008952B
:101030008091D90090E008951092ED008093F30024
:101040006093F2004093F1002093F00080E090E084
:1010500008951092ED008093F7006093F60040939E
:10106000F5002093F40080E090E00895982F80919F
:10107000C00085FFFCCF9093C6000895FC012DE0D1
:101080000EC09A3031F48091C00085FFFCCF2093D0
:10109000C6008091C00085FFFCCF9093C60091915F
:1010A000992379F78091C00085FFFCCF8DE0809374
:1010B000C6008091C00085FFFCCF8AE08093C60007
:1010C000089510922C020895EF92FF920F931F93B0
:1010D0008091310287FF02C091E018C083E392E063
:1010E00065E372E046E352E022E332E001E312E01E
:1010F000E7E3EE2EE2E0FE2E0E941903982F8823EC
:1011000029F080913102806880933102892F1F91EC
:101110000F91FF90EF900895EF92FF920F9300913F
:101120001A020F7080911C0290911D0260911E02A4
:101130004091430220911B02FFE1EF2EF2E0FF2ECF
:101140000E947C03982F882329F480912E028F5FC0
:1011500080932E02892F0F91FF90EF900895809138
:1011600031028F708130A1F4909143028091370257
:10117000981771F480E880931A0210921B02109263
:101180001D0210921C0283E080931E020E948C08B4
:10119000089593E890931A0297E090931B0224E13C
:1011A00030E030931D0220931C0299E090931E02C0
:1011B00010921F0280932002609321020E948C08EB
:1011C000089581E880931A0210921B0210921D026A
:1011D00010921C0282E080931E0280914302809351
:1011E0001F020E948C0881E080932C0208951F93B7
:1011F000262F2095182F1458153038F4812F0E946F
:101200005002812F0E94470237C0823979F4362F6D
:1012100020E080914402909145029070822B932BA4
:101220009093450280934402292F76C0833971F44C
:10123000262F30E080914402909145028070282B47
:10124000392B309345022093440266C0182F195859
:101250001830A0F4309144028091450290E08F3F15
:10126000910509F059C03F3F09F056C0812F0E94F7
:101270005D02812F0E945402282F4EC0182F105D4E
:10128000103198F4309144028091450290E08F3FF4
:10129000910509F041C03F3F09F03EC0812F0E94F7
:1012A0004002812F0E943A02E7CF182F1A591430BA
:1012B00018F40E94910206C0182F1E591430A0F491
:1012C0000E94960223E030E0211B3109A3E0220FA7
:1012D000331FAA95E1F704C0969587957795679592
:1012E0002A95D2F7262F18C0823AB1F4653531F429
:1012F0001092300210922F0225E50EC06A3A61F476
:1013000080912F0290913002885E934010F020E08F
:1013100003C00E949B022AEA822F1F91089587FF33
:1013200003C00E94F70808950E9490010895803834
:1013300029F480914202109242020895813811F4FA
:1013400081E00895823811F485E00895833811F41E
:1013500080E00895843919F40E9434020895853993
:1013600019F40E9436020895863919F40E94380251
:101370000895893820F484580E9447020895982FD0
:101380009958983020F4892F0E9454020895813989
:1013900019F4809143020895833919F4809144022D
:1013A0000895823919F4809145020895873919F416
:1013B0000E9461020895883919F40E946302089519
:1013C000893919F40E9465020895982F905D903133
:1013D00020F4892F0E943A020895805E0E94410203
:1013E000089587FF03C00E94970908950E94340161
:1013F00008951F93809140028F5F809340028C3349
:10140000A0F010924002809129028F5F8093290200
:1014100080914102833049F40E942002182F0E94DB
:101420002902682F812F0E94C908809129028C33DC
:1014300038F01092290280912D028F5F80932D0247
:1014400080912D02883110F010922D02809141027E
:10145000833061F480913F028F5F80933F0290E080
:101460008F709070029714F010923F021F910895B0
:10147000809131028F70823079F490914302809193
:101480003702981749F480913802809343020E94F2
:101490001B0280E40E947E020895209127022130E1
:1014A00099F1213020F0223009F07FC080C0909166
:1014B00028029F3FA1F081E880931A0210921B023C
:1014C00010921D0210921C0282E080931E029093E3
:1014D0001F020E948C0881E0809327022CC084E0C8
:1014E0008093410281E880931A0290931F0287E063
:1014F00080931B0210921D0210921C0283E08093C5
:101500001E020E948C0853C08091310287FF1EC0CA
:101510008091330290913402892B09F048C0809168
:101520003502833009F043C080912802882341F4BA
:1015300082E080934102109247021092460237C027
:101540008F5F80932802109227021AC08091460272
:1015500090914702895E934050F1809148028F5FDD
:1015600080934802833008F190912802992359F41E
:1015700020932802109227021092470210924602EE
:101580001092480214C09093430283E0809341027A
:1015900010922702892F0E941B0280E40E947E0283
:1015A000109248020E94E10802C010922702109295
:1015B00031020895809131028F70853089F40E9444
:1015C000750290913702891759F0892F0E947E0287
:1015D0008FEF809343020E941B0281E080934102BF
:1015E00008950E947502807C803411F481E0089592
:1015F0008FEF0E941B0280E00E947E0280EA0E9420
:10160000830280E0089582E080932C020E941202FF
:1016100080934302882319F48FEF80934302109242
:101620003102109232021092340210923302109260
:10163000350210921A0210921B0210921D02109293
:101640001C0210921E0210922E0210924202109260
:101650002802109241021092270210924802109222
:1016600045021092440210924702109246021092D4
:10167000300210922F021092400210922902109212
:101680002D020895209131022F7099F0909143021C
:1016900080913702981769F4213021F08091380247
:1016A000882339F48FEF809343020E941B020E942B
:1016B000030B08958F929F92AF92BF92CF92DF92C9
:1016C000FF920F931F93CF93DF93809133029091FA
:1016D0003402892B09F04CC380913502873109F41B
:1016E000D6C08831B0F48830E1F1893040F48230DE
:1016F00091F1863099F1813009F03AC329C08B30DD
:1017000009F45CC08C3009F472C0893009F030C330
:101710002BC08E3109F4E4C18F3150F4893109F4C2
:101720009CC1893108F457C18D3109F021C3C9C169
:10173000813209F448C2823220F48F3109F018C393
:10174000E1C1853209F458C2863209F011C3BCC226
:101750000E94DA0A0DC30E94AF080AC30E94380A29
:1017600007C30E94420B04C3809131028F70823004
:1017700009F0FEC29091430280913702981709F058
:10178000F7C28091380287FD03C00E94340102C075
:101790000E949709809320028091380280931F0253
:1017A00083E080931B0282E880931A0210921D024C
:1017B00010921C028AE080931E02D8C280913102EE
:1017C0008F70833009F0D4C2909143028091370228
:1017D000981709F0CDC28091380287FD03C060914F
:1017E00039028DC1609139020E94F708D3CF9091E0
:1017F000430280913702981731F480913802893082
:1018000011F40E943202909143028091370298179E
:1018100009F0AEC280913802813009F0A9C280E09F
:101820000E943A0290913902891709F0A1C283E01F
:101830000E943A0290913A02891709F099C285E014
:101840000E943A0290913B02891709F091C287E009
:101850000E943A0290913C02891709F089C2409196
:10186000440250914502252F332780913D0290E09C
:101870002817390709F07CC2507080913E0290E031
:101880004817590709F074C20E94320271C2809150
:10189000370282958F70813069F1813038F0823063
:1018A00009F44EC0833009F08BC06AC080E00E940A
:1018B0003A0290913802891709F084C081E00E94B1
:1018C0003A0290913902891709F07CC082E00E94A7
:1018D0003A0290913A02891709F074C083E00E949D
:1018E0003A0290913B02891709F06CC080913F0247
:1018F000806123C084E00E943A02909138028917E7
:1019000009F060C085E00E943A029091390289177F
:1019100009F058C086E00E943A0290913A02891775
:1019200009F050C087E00E943A0290913B0289176B
:1019300009F048C080913F02806280933F0242C01C
:1019400088E00E943A02909138028917D9F589E01F
:101950000E943A02909139028917A1F58AE00E940B
:101960003A0290913A02891769F58BE00E943A0297
:1019700090913B02891731F580913F028064DDCF61
:101980008CE00E943A02909138028917D9F48DE0D8
:101990000E943A02909139028917A1F48EE00E94C8
:1019A0003A0290913A02891769F48FE00E943A0254
:1019B00090913B02891731F480913F028068BDCF3E
:1019C00010923F0280913F02807F803F09F0D0C19A
:1019D0000E94030BCDC1909143028091370298176A
:1019E00009F0C6C1C0903802D090390200E0FF244F
:1019F00033E0A32E2AE1B22ECD2DD0E021972AC0CC
:101A0000802F67E00E94F20E192F802F8C0D0E940C
:101A1000F109E12FF0E0E65EFD4F8683163011F408
:101A200097E007C0802F90E08C179D0791F4912FCD
:101A30009F5F9F5790931A02A0921B0210921D0263
:101A400010921C02B0921E02F0921F020E948C089B
:101A5000F3940F5F0D15A0F28BC19091430280911A
:101A60003702981709F084C1B09038020091310212
:101A70000250077099E3C92E92E0D92EC0E2D2E05D
:101A8000FF240DC01F2D1B0D812FF60161916F01E9
:101A90000E948F09812F0E94F1098993F394F01617
:101AA00088F383E080931B0210921D0210921C02A7
:101AB0008AE180931E0210921F020F5700931A02B0
:101AC00055C19091430280913702981709F050C197
:101AD00010913802812F0E943401682F6F5F0EC071
:101AE0009091430280913702981709F041C11091FB
:101AF0003802812F0E943401682F6150812F0E948B
:101B0000900148CE9091370280914302891719F0D5
:101B10009F3F09F02DC183E080931B0288E88093EA
:101B20001A0210921D0210921C0280E280931E0283
:101B3000FF2400E08FE0D82EF0921F021D2D101B15
:101B4000C0E2D2E00F5F812F0E943A028883013108
:101B500060F411502196F2E0C732DF0799F70E9436
:101B60008C08F39483E0F81639F7C2E2D2E010E073
:101B7000812F0E944102882329F0812F0E94410277
:101B8000888301C018821F5F2196153089F70E9453
:101B90008C0803E015E0F12E00931F028F2DC0E2A8
:101BA000D2E0182F1F5F0E9441028993812F92E09B
:101BB000C732D907B1F7E7E0FE0E0E948C080F5F2D
:101BC000073051F7D5C090914302809137029817A2
:101BD00009F0CEC083E080931B0287E880931A024D
:101BE00010921D0210921C0282E280931E028FE16D
:101BF00092E00E94C302BAC09091430280913702E2
:101C0000981709F0B5C08091310290E08F70907004
:101C1000049724F0D0903B02DD2011F4DD24D3940E
:101C200080904402909045024091380250913902D0
:101C3000942F80E0252F30E0822B932B9093450248
:101C40008093440283E080931B0210921D02109245
:101C50001C0287E280931E0210921F024093200212
:101C600050932102FF24AD2CBB24C5018F1991098B
:101C7000049714F014E002C01D2D1F191C57109377
:101C80001A02145880913A028F0D80932202C3E207
:101C9000D2E000E008C080913A028F0D800F0E94D0
:101CA000F10989930F5F0117B0F30E948C08F10EC0
:101CB00080911F028F5F80931F02FD14B0F29092FB
:101CC00045028092440254C09091430280913702B1
:101CD000981709F04DC0C0914402D09145029091EF
:101CE000380280E02091390230E0822B932B9093D0
:101CF00045028093440283E080931B02809131026D
:101D00008F70805880931A0210921D0210921C024C
:101D100087E280931E02F0903A02B4E0CB2ED12CE1
:101D200011C08601041B150B060F171FF801EF5C8D
:101D3000FD4F8F2D66810E948F09065E1D4FF801B1
:101D40008583F3946F2D70E080913A02482F50E024
:101D5000CA010497209131022F70820F911D6817DC
:101D60007907FCF2D0934502C09344020E948C088C
:101D7000DF91CF911F910F91FF90DF90CF90BF9097
:101D8000AF909F908F9008958091310287FF1BC084
:101D90008091330290913402892B19F5809135029C
:101DA0008630F9F4809137028F3FD9F48091380260
:101DB000809343020E941B0280E40E947E0283E023
:101DC0008093410208958091460290914702895E76
:101DD000934038F08FEF809343020E941B020E94D1
:101DE000030B0895991B79E004C0991F961708F01A
:101DF000961B881F7A95C9F780950895FB01DC0131
:101E000002C001900D9241505040D8F70895FB0157
:101E1000DC010D900020E9F7119701900D92002050
:101E2000E1F708950F931F93DF93CF93CDB7DEB7FC
:101E30002E970FB6F894DEBF0FBECDBF0D891E8959
:101E400086E08C831A8309838FEF9FE79E838D83BF
:101E50009E01275E3F4FCE0101966F89788DA901C3
:101E60000E94430F2F813885020F131FF801108243
:101E70002E960FB6F894DEBF0FBECDBFCF91DF9187
:101E80001F910F9108952F923F924F925F926F9200
:101E90007F928F929F92AF92BF92CF92DF92EF92FA
:101EA000FF920F931F93DF93CF93CDB7DEB72B979E
:101EB0000FB6F894DEBF0FBECDBF3C012B015A0117
:101EC000FC0117821682838181FD03C06FEF7FEFD3
:101ED000C6C19AE0892E1E010894211C311CF30111
:101EE0002381F20123FD859123FF81912F01882316
:101EF00009F4B2C1853239F423FD859123FF819124
:101F00002F01853229F490E0B3010E945F11E7CFE1
:101F1000982FFF24EE249924FFE1FF15D0F09B3287
:101F200069F09C3228F4903259F0933291F40EC04B
:101F30009D3249F0903369F441E024C052E0F52A23
:101F400084E0F82A28C098E0F92A25C0E0E1FE2ABA
:101F500022C0F7FC29C0892F80538A3070F4F6FE26
:101F600005C0989C902C1124980E15C0E89CE02C7C
:101F70001124E80EF0E2FF2A0EC09E3229F4F6FC8E
:101F80006BC140E4F42A07C09C3619F450E8F52AE6
:101F900002C0983649F4F20123FD959123FF9191F7
:101FA0002F01992309F0B8CF892F8554833018F079
:101FB0008052833038F444E050E0A40EB51E5FE355
:101FC00059830FC0933631F0933779F0933509F088
:101FD00056C020C0F5018081898342E050E0A40E04
:101FE000B51E610101E010E012C0F501C080D18092
:101FF000F6FC03C06FEF7FEF02C0692D70E042E096
:1020000050E0A40EB51EC6010E9454118C015FE77A
:10201000F52214C0F501C080D180F6FC03C06FEF3B
:102020007FEF02C0692D70E042E050E0A40EB51EC3
:10203000C6010E9449118C0150E8F52AF3FE07C041
:102040001AC080E290E0B3010E945F11EA948E2DE5
:1020500090E008171907A8F30EC0F601F7FC859168
:10206000F7FE81916F0190E0B3010E945F11E110D2
:10207000EA94015010400115110579F7EAC0943631
:1020800011F0993669F5F7FE08C0F501208131811C
:102090004281538184E090E00AC0F5018081918102
:1020A0009C01442737FD4095542F82E090E0A80E14
:1020B000B91E9FE6F92257FF09C05095409530950B
:1020C00021953F4F4F4F5F4FE0E8FE2ACA01B9010B
:1020D000A1012AE030E00E948B11D82ED21840C016
:1020E000953729F41F2D1F7E2AE030E01DC01F2DDB
:1020F000197F9F3661F0903720F4983509F0ACC015
:102100000FC0903739F0983709F0A6C004C028E016
:1021100030E00AC0106114FD146020E130E004C01A
:1021200014FD166020E132E017FF08C0F501608160
:1021300071818281938144E050E008C0F501808183
:102140009181BC0180E090E042E050E0A40EB51E19
:10215000A1010E948B11D82ED2188FE7F82EF12200
:10216000F6FE0BC05EEFF522D91438F4F4FE07C07A
:10217000F2FC05C08FEEF82202C01D2D01C0192D02
:10218000F4FE0DC0FE01ED0DF11D8081803319F4C8
:1021900099EEF92208C01F5FF2FE05C003C08F2D23
:1021A000867809F01F5F0F2DF3FC14C0F0FE0FC0FE
:1021B0001E1510F09D2C0BC09D2C9E0C911A1E2DEF
:1021C00006C080E290E0B3010E945F111F5F1E1500
:1021D000C0F304C01E1510F4E11A01C0EE2404FF80
:1021E0000FC080E390E0B3010E945F1102FF1DC0A9
:1021F00001FD03C088E790E00EC088E590E00BC0C9
:10220000802F867891F001FF02C08BE201C080E24E
:10221000F7FC8DE290E0B3010E945F1106C080E3FD
:1022200090E0B3010E945F119A94D914C0F3DA943C
:10223000F101ED0DF11D808190E0B3010E945F116D
:10224000DD20A9F706C080E290E0B3010E945F1193
:10225000EA94EE20C1F743CEF30166817781CB018A
:102260002B960FB6F894DEBF0FBECDBFCF91DF9196
:102270001F910F91FF90EF90DF90CF90BF90AF90A4
:102280009F908F907F906F905F904F903F902F9096
:102290000895FC010590615070400110D8F78095B9
:1022A00090958E0F9F1F0895FC0161507040019022
:1022B0000110D8F7809590958E0F9F1F08950F936A
:1022C0001F93CF93DF938C01EB018B8181FF1BC0A8
:1022D00082FF0DC02E813F818C819D812817390797
:1022E00064F4E881F9810193F983E88306C0E88505
:1022F000F985802F0995892B31F48E819F81019674
:102300009F838E8302C00FEF1FEFC801DF91CF9133
:102310001F910F910895FA01AA27283051F1203119
:1023200081F1E8946F936E7F6E5F7F4F8F4F9F4F69
:10233000AF4FB1E03ED0B4E03CD0670F781F891FAB
:102340009A1FA11D680F791F8A1F911DA11D6A0F79
:10235000711D811D911DA11D20D009F468943F912C
:102360002AE0269F11243019305D3193DEF6CF012B
:102370000895462F4770405D4193B3E00FD0C9F7F1
:10238000F6CF462F4F70405D4A3318F0495D31FD5E
:102390004052419302D0A9F7EACFB4E0A6959795B1
:1023A000879577956795BA95C9F700976105710587
:1023B00008959B01AC010A2E0694579547953795D1
:1023C0002795BA95C9F7620F731F841F951FA01D2B
:0623D0000895F894FFCF10
:1023D600444D0A0048656C6C6F20576F726C64211F
:1023E6000A00616374696F6E0A0074783A202530BA
:1023F60033782F253032782F253032782F002F254D
:10240600303278004661696C656420746F206F70A5
:10241600656E206368616E6E656C21210A005653F5
:102426004350204154393043414E313238205465AF
:1024360073740A004E6F646520696E697469616C15
:10244600697A6174696F6E0072783A202530337844
:102456002F253032782F253032782F00646F444D87
:102466000A0064656275672020646F444D206368C6
:1024760065636B20726F77730A0064656275672007
:1024860020646F444D20726F7720656E61626C65C3
:10249600640A00427574746F6E20507265737365BA
:1024A600642100000000000000000000000000049D
:1024B6000302013132372E302E302E312F6D6466F5
:1024C6002F6176723132385F30312E786D6C0000B4
:0824D6000000000000000000FE
:00000001FF
