:100000000C9470000C948D000C948D000C948D0059
:100010000C948D000C948D000C948D000C948D002C
:100020000C948D000C948D000C948D000C948D001C
:100030000C948D000C948D000C948D000C948D000C
:100040000C9491000C948D000C948D000C948D00F8
:100050000C948D000C948D000C948D000C948D00EC
:100060000C948D000C948D000C948D000C948D00DC
:100070000C948D000C948D000C948D000C948D00CC
:100080000C948D000C948D000C948D000C948D00BC
:100090000C948D00BB08CC08420C420C420CDD08CD
:1000A000420CEE08FF08420C28094809420C420C99
:1000B000420C420C420C420C420C420C420C420CD0
:1000C000A1094A0A8F0A420C420C420CCA0AD60AFB
:1000D000E70A420C530B420C420C420C6B0BD70B41
:1000E00011241FBECFEFD8E0DEBFCDBF12E0A0E0ED
:1000F000B1E0E0EBF2E202C005900D92A635B10747
:10010000D9F712E0A6E5B2E001C01D92A739B10708
:10011000E1F70E947A0C0C9456110C94000008959B
:1001200008951F920F920FB60F9211248F939F93F1
:1001300080919402909195020196909395028093FC
:1001400094028091660290916702019690936702F3
:1001500080936602009906C0809178028F5F809339
:10016000780202C01092780201990AC08091580268
:10017000909159020196909359028093580204C0BD
:10018000109259021092580202990AC080915A02A4
:1001900090915B02019690935B0280935A0204C097
:1001A00010925B0210925A0203990AC080915C027D
:1001B00090915D02019690935D0280935C0204C071
:1001C00010925D0210925C0204990AC080915E0256
:1001D00090915F02019690935F0280935E0204C04B
:1001E00010925F0210925E0205990AC0809160022F
:1001F000909161020196909361028093600204C025
:10020000109261021092600206990AC08091620207
:10021000909163020196909363028093620204C0FE
:10022000109263021092620207990AC080916402E0
:10023000909165020196909365028093640204C0D8
:100240001092650210926402809179028F5F809310
:10025000790280917A02823041F480917902853668
:1002600068F088B1805888B907C0813011F4479888
:1002700003C0811103C0479A109279029F918F9118
:100280000F900FBE0F901F9018953F924F925F9264
:100290006F927F928F929F92AF92BF92CF92DF9296
:1002A000EF92FF920F931F93CF93DF93CDB7DEB7FB
:1002B000AE970FB6F894DEBF0FBECDBF5C01862EA1
:1002C000942E722E302E88E0801710F458E0352ED0
:1002D0001F929F921F928F92BF92AF9285E391E0FF
:1002E0009F938F938E010F5F1F4F1F930F930E9459
:1002F000610EC8010E9441056E2C0FB6F894DEBF56
:100300000FBECDBF67014AE4442E41E0542E8C2D30
:1003100086198315A8F4F60181916F011F928F93BE
:100320005F924F921F930F930E94610EC8010E942B
:1003300041050F900F900F900F900F900F90E7CF07
:10034000C501A0E0B0E0DC0199278827472C512C9B
:10035000612C712C3AE1440C551C661C771C3A95B3
:10036000D1F784299529A629B7299829892989A30C
:100370009AA3ABA3BCA381E08EA33DA2332039F0A6
:10038000432D50E0B701CE0187960E942C0E18EC49
:10039000CE0181960E940604882321F01150C1F7F6
:1003A00080E001C081E0AE960FB6F894DEBF0FBECC
:1003B000CDBFDF91CF911F910F91FF90EF90DF9014
:1003C000CF90BF90AF909F908F907F906F905F90F5
:1003D0004F903F9008956F927F928F929F92AF922D
:1003E000BF92CF92DF92EF92FF920F931F93CF9322
:1003F000DF93CDB7DEB72E970FB6F894DEBF0FBEF2
:10040000CDBF6C014B013A015901CE0101960E940A
:100410008504892B21F589819A81AB81BC81F30107
:100420008083F40190839D013170F6013183208334
:100430002AE1B695A795979587952A95D1F7877064
:10044000F50180834D81F8014083442351F050E051
:10045000BE01695F7F4FC7010E942C0E02C080E081
:1004600001C081E02E960FB6F894DEBF0FBECDBF5F
:10047000DF91CF911F910F91FF90EF90DF90CF9080
:10048000BF90AF909F908F907F906F900895F99953
:10049000FECF90E092BD81BDF89A80B590E00895BE
:1004A000F999FECF90E092BD81BD60BDFA9AF99AAC
:1004B00081E090E00895811102C081E409C081309B
:1004C00011F482E405C090E9980F903120F48F5B1D
:1004D0000E94470208958FEF08950F931F93CF93C3
:1004E000DF93CDB7DEB7A0970FB6F894DEBF0FBE8F
:1004F000CDBF282F30E02F5B3F4F3F932F9320E558
:1005000031E03F932F938E010F5F1F4F1F930F9387
:100510008F8F68A30E94610EC8010E9441051F923F
:1005200068A16F9324E631E03F932F931F930F93BD
:1005300068A30E94610EC8010E9441050FB6F8949D
:10054000DEBF0FBECDBF4F8D68A141110CC081E44D
:100550000E94500281E40E944702182F86E791E032
:100560000E94410517C0413029F482E40E945002E4
:1005700082E40AC080E9840F803150F411E4140F42
:10058000812F0E945002812F0E944702182F02C023
:10059000162F1095812FA0960FB6F894DEBF0FBED0
:1005A000CDBFDF91CF911F910F91089581E00E94FF
:1005B00047020895682F81E00C94500281E10E9467
:1005C0004702089582E10E94470208950895089520
:1005D00080E0089580E0089581E00895E82FF0E03C
:1005E000EB5DFE4F808108950895CF93C82F86E874
:1005F00091E00E944105EC2FF0E0E85FFE4F808122
:10060000CF9108958C5F0E94470208958C5F0C94EF
:100610005002875F0E9447020895875F0C94500242
:1006200080E1089588E0089581E0089581E00E94C6
:1006300047020895682F81E00C94500282E00E94E6
:1006400047020895682F82E00C945002682F83E0DF
:100650000C94500283E00E944702089560E070E02D
:10066000CB01089560E070E0CB0108950895FC018E
:1006700082E0808380E78183128213821482158254
:10068000168280E192E00C944105CF93C82F83E05D
:100690008093690283E88093680270E070936B0234
:1006A00060936A0240936C02C0936D0281E40E94E1
:1006B000470280936E0283E48C0F0E94470280936E
:1006C0006F02CF910C945D078295807F8093ED003F
:1006D0001092EE001092EF001092F0001092F100D4
:1006E0001092F2001092F3001092F4001092F500B4
:1006F0001092F6001092F70088E01092FA008150F4
:10070000E1F70895CF93C0E08C2F0E946403CF5F80
:10071000CF30D1F7CF9108958091ED0021E030E006
:10072000922F9295907F9093ED009091EF00907CA6
:1007300031F09091EE0096FF06C01092ED0080938C
:10074000ED00C90108952F5F3F4F2F30310541F76C
:100750008093ED008FEF9FEF0895843021F160F4D6
:10076000813079F1C0F08230D1F0833009F043C09C
:1007700028E14EE062E128C08730E9F038F48530A6
:10078000B1F08630C1F528E14EE017C08830B9F0ED
:100790008F3FD1F030C028E14EE066EC15C028E173
:1007A0004EE064E211C028E14EE06EE00DC028E1A9
:1007B0004EE066E009C026E144E062E005C022E1C7
:1007C000FBCF28E14EE062E66093E2004093E30055
:1007D0002093E4000E9482031092ED008091EF00CC
:1007E00080688093EF008091D80082608093D80069
:1007F00080E090E008958DEF9FEF0895E8EDF0E040
:1008000080818D7F808380E090E00895CF93DF9397
:10081000EC010E948C038F3F2FEF920709F470C008
:10082000982F9295907F9093ED000E9464039D8194
:100830008C818F7090FF32C0805F8093EF009D812C
:100840008881880F880F880F92FD84608093F00064
:10085000488159816A817B8195E0769567955795A6
:1008600047959A95D1F74093F100488159816A8163
:100870007B812DE076956795579547952A95D1F719
:100880004093F200488159816A817B8135E17695F8
:100890006795579547953A95D1F719C08093EF0022
:1008A0008D8181FF03C084E08093F0008881829570
:1008B000880F807E8093F200488159816A817B8114
:1008C00083E076956795579547958A95D1F740933C
:1008D000F30080E090E02C8130E08217930744F42D
:1008E000FE01E80FF91F26812093FA000196F3CF4D
:1008F0008091EF0080648093EF0080E090E002C080
:100900008FEF9FEFDF91CF910895CF92DF92EF921B
:10091000FF920F931F93FC011092ED008091EE0067
:1009200085FF7AC01582108211821282138214828E
:100930008091F00082FF02C082E085838091EF0009
:1009400084FF39C0858181608583C090F300409128
:10095000F2000091F1008091F00050E060E070E062
:100960009DE0440F551F661F771F9A95D1F7D12C34
:10097000E12CF12C25E1CC0CDD1CEE1CFF1C2A9592
:10098000D1F74C0D5D1D6E1D7F1D10E020E030E0A5
:10099000A5E0000F111F221F331FAA95D1F7400FAA
:1009A000511F621F731F869586958695480F511DAE
:1009B000611D711D11C08091F3004091F2004295BC
:1009C0004695477050E098E0899F400D511D1124D5
:1009D000662757FD6095762F40835183628373832A
:1009E0002091EF002F70248380E090E0821748F47C
:1009F0003091FA00DF01A80FB91F16963C930196BB
:100A0000F5CF80E00E9464038091EF0080688093BE
:100A1000EF0080E090E002C08EEF9FEF1F910F91FA
:100A2000FF90EF90DF90CF9008958091D90090E0F3
:100A300008951092ED008093F3006093F2004093CC
:100A4000F1002093F00080E090E008951092ED0016
:100A50008093F7006093F6004093F5002093F40034
:100A600080E090E008959091C80095FFFCCF8093BE
:100A7000CE0008959091C80095FFFCCF8093CE00E2
:100A800008951F93CF93DF93EC011991112349F03F
:100A90001A3019F48DE00E943305812F0E9433052E
:100AA000F4CF8DE00E9433058AE0DF91CF911F9152
:100AB0000C9433051F93CF93DF93EC01199111230D
:100AC00049F01A3019F48DE00E943305812F0E94FD
:100AD0003305F4CFDF91CF911F910895CF93DF932A
:100AE000CDB7DEB72A970FB6F894DEBF0FBECDBFE5
:100AF0004AE050E0BE016F5F7F4F0E94400E0E94AF
:100B000041052A960FB6F894DEBF0FBECDBFDF9128
:100B1000CF9108958F708A3010F0895C01C0805D9C
:100B20000C943A05CF93C82F82958F7090E00E9465
:100B30008A058C2F90E0CF910C948A0582E08093F7
:100B40007A020E94D602811101C08FEF8093910238
:100B500010927F0210928002109282021092810203
:100B600010928302109268021092690210926B0236
:100B700010926A0210926C0210927C021092900203
:100B80001092760210928F021092750210929602C5
:100B90001092930210929202109295021092940277
:100BA00010927E0210927D0210928E0210927702B5
:100BB00010927B0208950E941E03807C803459F0BD
:100BC0008FEF0E94DA0280E00E94220380EA0E94F6
:100BD000260380E0089581E0089510927A02089536
:100BE00080917F0287FF1BC08091810290918202D9
:100BF000892B19F5809183028630F9F48091850262
:100C00008F3FD9F480918602809391020E94DA028C
:100C100080E40E94220383E080938F0208958091F4
:100C2000940290919502893E934038F08FEF809323
:100C300091020E94DA020C949E0508950E941E0300
:100C4000811117C080917F028F708530B1F40E94AE
:100C50001E0390918502891781F0892F0E9422033B
:100C60008FEF809391020E94DA0281E080938F02DD
:100C70000895809185020C942203089580917F024B
:100C80008F70823079F4909191028091850298134F
:100C900009C080918602809391020E94DA0280E46A
:100CA0000C942203089580917F028F7099F0209117
:100CB00091029091850229130DC0813021F080911D
:100CC0008602811107C08FEF809391020E94DA02A1
:100CD0000C949E050895803829F48091900210921A
:100CE00090020895813809F443C0823809F442C063
:100CF000833809F441C0843911F40C94E802853931
:100D000011F40C94EA02863911F40C94EC0289383F
:100D100018F484580C94020397E7980F983018F44D
:100D2000892F0C940903813919F480919102089557
:100D3000833919F4809192020895823919F48091CF
:100D400093020895873911F40C941003883911F433
:100D50000C941203893911F40C94140390E3980F46
:100D6000903118F4892F0C94EE02805E0C94F502F9
:100D700081E0089585E0089580E0089587FD0C9452
:100D80006B060C945B02CF93E62F6095CCE7C80FFF
:100D9000C53040F46E2F8C2F0E9406038C2FCF910C
:100DA0000C940203823969F46E2F70E0762F662767
:100DB00080919202682B7093930260939202672F46
:100DC00074C0833959F4609192027091930266273E
:100DD0006E2B709393026093920267C0C7E7C80FAF
:100DE000C830A8F48091920290919302492F50E06C
:100DF0004F3F510509F059C08F3F09F056C06E2F83
:100E00008C2F0E940D038C2FCF910C940903C0E30B
:100E1000C80FC031A0F48091920290919302292FC3
:100E200030E02F3F310509F040C08F3FF1F56E2FC4
:100E30008C2F0E94F4028C2FCF910C94EE02C6E608
:100E4000C80FC43018F40E942E0306C0C2E6C80FB3
:100E5000C43098F40E94320323E030E02C1B3109A7
:100E600043E0220F331F4A95E1F704C0969587951A
:100E7000779567952A95D2F718C0823AB1F4E5358F
:100E800031F410927E0210927D0265E50EC0EA3ABE
:100E900061F480917D0290917E02883E934020F41F
:100EA0000E9436036AEA01C060E0862FCF91089560
:100EB00087FD0C94C3060C946D02EF92FF920F9382
:100EC000009168020F708DE6E82E82E0F82E2091E6
:100ED00069024091910260916C0280916A02909146
:100EE0006B020E944501811105C090917C029F5FB9
:100EF00090937C020F91FF90EF90089581E880938A
:100F000068021092690210926B0210926A0282E0EB
:100F100080936C028091910280936D020E945D0724
:100F200081E080937A02089520917502213091F139
:100F300020F0223009F480C07DC0809176028F3F7E
:100F4000A1F091E8909368021092690210926B02EE
:100F500010926A0292E090936C0280936D020E945C
:100F60005D0781E0809375022CC094E090938F021E
:100F700091E89093680280936D0287E08093690204
:100F800010926B0210926A0283E080936C020E94BE
:100F90005D0752C080917F0287FF1EC08091810251
:100FA00090918202892B09F047C08091830283309F
:100FB00009F042C080917602811108C082E08093DE
:100FC0008F02109295021092940236C08F5F809328
:100FD0007602109275021AC0809194029091950247
:100FE000893E934048F1809196028F5F80939602EC
:100FF000833000F18091760281110BC0209376023C
:10100000109275021092950210929402109296021C
:1010100013C08093910293E090938F021092750217
:101020000E94DA0280E40E942203109296020E943B
:101030007E0702C01092750210927F02089593E815
:101040009093680297E09093690224E130E0309336
:101050006B0220936A0299E090936C0210926D02E9
:1010600080936E0260936F020C945D07CF93DF93C1
:101070001F92CDB7DEB780918E028F5F8C3318F44C
:1010800080938E0213C010928E02809177028F5F40
:101090008093770280918F02833041F40E94E202B4
:1010A00089830E94DE0269810E941F088091770275
:1010B0008C3338F01092770280917B028F5F80939F
:1010C0007B0280917B02883110F010927B0280912C
:1010D0008F02833069F420918D022F5F822F8F70F1
:1010E00090E002971CF420938D0202C010928D02B2
:1010F0000F90DF91CF91089580917F028F708130A2
:10110000A1F4909191028091850298130EC080E81D
:10111000809368021092690210926B0210926A0228
:1011200083E080936C020C945D0708956F927F9228
:101130008F929F92AF92BF92CF92DF92EF92FF92E7
:101140000F931F93CF93DF931F92CDB7DEB780919C
:10115000810290918202892B09F094C380918302CD
:1011600090E0FC013197E632F10508F08BC3E65BB5
:10117000FF4F0C94260E0F90DF91CF911F910F918E
:10118000FF90EF90DF90CF90BF90AF909F908F90A7
:101190007F906F900C941E060F90DF91CF911F915E
:1011A0000F91FF90EF90DF90CF90BF90AF909F9006
:1011B0008F907F906F900C947C080F90DF91CF916F
:1011C0001F910F91FF90EF90DF90CF90BF90AF9065
:1011D0009F908F907F906F900C943E060F90DF91C0
:1011E000CF911F910F91FF90EF90DF90CF90BF9024
:1011F000AF909F908F907F906F900C94530680914A
:101200007F028F70823009F03DC3909191028091EE
:101210008502981337C38091860287FD03C00E9420
:101220005B0202C00E946B0680936E028091860270
:1012300080936D0283E08093690282E88093680264
:1012400010926B0210926A028AE080936C0209C3CA
:1012500010917F021F70133009F014C39091910216
:101260008091850298130EC3809186026091870257
:1012700087FD03C00E946D0202C00E94C3068093D6
:101280006E028091860280936D0210936902D5CF21
:101290009091910280918502981306C080918602F8
:1012A000893011F40E94E6029091910280918502AA
:1012B0009813E8C280918602813009F0E3C280E091
:1012C0000E94EE02909187028913DCC283E00E94A3
:1012D000EE02909188028913D5C285E00E94EE0249
:1012E000909189028913CEC287E00E94EE0290910C
:1012F0008A028913C7C28091920290919302492F6A
:10130000552720918B0230E04217530709F0BAC2EB
:10131000992720918C0230E08217930709F0B2C21E
:101320000F90DF91CF911F910F91FF90EF90DF9081
:10133000CF90BF90AF909F908F907F906F900C94C4
:10134000E6028091850282958F70813041F138F0FC
:10135000823009F444C0833009F461C082C080E067
:101360000E94EE029091860289137DC081E00E9466
:10137000EE0290918702891376C082E00E94EE020D
:101380009091880289136FC083E00E94EE029091D1
:101390008902891368C080918D0280615FC084E0FA
:1013A0000E94EE029091860289135DC085E00E9442
:1013B000EE0290918702891356C086E00E94EE02E9
:1013C0009091880289134FC087E00E94EE029091AD
:1013D0008902891348C080918D0280623FC088E0F5
:1013E0000E94EE029091860289133DC089E00E941E
:1013F000EE0290918702891336C08AE00E94EE02C5
:101400009091880289132FC08BE00E94EE02909188
:101410008902891328C080918D0280641FC08CE0EE
:101420000E94EE029091860289131DC08DE00E94F9
:10143000EE0290918702891316C08EE00E94EE02A0
:101440009091880289130FC08FE00E94EE02909164
:101450008902891308C080918D02806880938D0273
:1014600002C010928D0280918D02807F803F09F032
:1014700009C20F90DF91CF911F910F91FF90EF90D4
:10148000DF90CF90BF90AF909F908F907F906F90A4
:101490000C949E0590919102809185029813F2C15F
:1014A000D0908602E0908702812C912CF12C07E0ED
:1014B000C02E83E0B82E9AE1A92E0E2D10E0015027
:1014C0001109882D8E1408F0DDC16C2D0E941A0EB2
:1014D000882D8D0D99830E94BE069981E92FF0E039
:1014E000E859FD4F8683963029F08016910699F4CD
:1014F0009F5F01C097E09F5790936802B092690286
:1015000010926B0210926A02A0926C02F0926D022D
:101510000E945D07F3948FEF881A980AD2CF9091BA
:101520009102809185029813ADC1D090860290916E
:101530007F0292509770B7E8EB2EB2E0FB2E1EE6CA
:10154000A12E12E0B12E8701DA18802F8E1989178B
:1015500088F4F80161918F01CA2CCD0C8C2D9983F0
:101560000E9458078C2D0E94BE06F50181935F01F1
:101570009981EBCF83E08093690210926B02109205
:101580006A028AE180936C0210926D029F579093D9
:10159000680267C19091910280918502981372C18F
:1015A000809186020E945B0261E00BC090919102E3
:1015B00080918502981366C1809186020E945B0229
:1015C0006FEF680F809186020E946D022DCE809190
:1015D000850290919102981719F08F3F09F052C13E
:1015E00083E08093690288E88093680210926B021E
:1015F00010926A0280E280936C0200E010E0AFE09B
:10160000EA2E10936D02FE2CF01AFEE6CF2EF2E0C9
:10161000DF2E0F5F8F2D0E94EE02F60181936F0186
:10162000013130F0E0E7EE2EE2E0FE2E10E00CC0DB
:10163000FA94F5E7CF16F2E0DF0659F70E945D074E
:101640001F5F1330F1F6EECF812F0E94F502882341
:1016500031F0812F0E94F502F701808302C0F7016B
:1016600010821F5FFFEFEF1AFF0A153069F70E9423
:101670005D0773E0F72EF0926D026EE6C62E62E013
:10168000D62E00E0802F810F0E94F502F601819393
:101690006F010F5F0730B1F7195F0E945D07F39488
:1016A000113249F7EFC09091910280918502981311
:1016B000E9C083E08093690287E880936802109212
:1016C0006B0210926A0282E280936C028DE692E0D5
:1016D0000E943703C6C090919102809185029813B1
:1016E000D1C080917F028F7090E0049724F0A09089
:1016F0008902A11002C0AA24A39400919202109121
:1017000093023091860220918702822F90E0932BE2
:10171000909393028093920283E0809369021092E7
:101720006B0210926A0287E280936C0210926D0243
:1017300030936E0220936F02B12CEA2CF12C51E70A
:10174000C52E52E0D52EC7018B19910904971CF4C0
:101750009A2C9B1802C044E0942E84E8890D809353
:101760006802809188028B0D8093700231E7632EAE
:1017700032E0732E962D9C19991550F480918802B1
:101780008B0D890F0E94BE06F30181933F01F2CFBA
:101790000E945D07B90C80916D028F5F80936D028E
:1017A000BA1488F210939302009392026BC0909146
:1017B000910280918502981365C000919202109168
:1017C00093028091860290E0982F882720918702CB
:1017D000822B9093930280939202F09088026F2D57
:1017E00070E090918802492F50E080917F028F70C5
:1017F000282F30E024503109240F351F621773075A
:101800009CF46B01C41AD50AF4E0CF0ED11CF6018A
:10181000E158FD4F66818F2D0E945807F601E85967
:10182000FD4F8583F394DBCF1093930200939202D4
:1018300023E02093690280588093680210926B0223
:1018400010926A0287E280936C0210926D0280917E
:10185000860280936E028091870280936F0290933C
:1018600070020F90DF91CF911F910F91FF90EF9039
:10187000DF90CF90BF90AF909F908F907F906F90B0
:101880000C945D070F90DF91CF911F910F91FF9006
:10189000EF90DF90CF90BF90AF909F908F907F9010
:1018A0006F900895EF92FF920F931F9380917F02A4
:1018B00087FD18C085E8E82E82E0F82E0FE712E0D9
:1018C00020E832E044E852E063E872E081E892E028
:1018D0000E94EB01882341F090917F0290689093E1
:1018E0007F0203C081E001C080E01F910F91FF9053
:1018F000EF900895CF93DF93CDB7DEB7A3970FB6E0
:10190000F894DEBF0FBECDBF8FEF82B911B884B996
:1019100085B987B988B91092C80086E08093CA005B
:101920001092CD0089E18093CC0088E18093C900BA
:1019300082E080936E008DE387BD8CE084BD789457
:1019400020E040E060E084E00E94AD03892B21F0BC
:1019500089EA91E00E94410583EC91E00E944105F3
:1019600083ED91E00E9441050E94DB05882391F000
:101970000E949E05CE0101967C016AE4462E61E03C
:10198000562E6E019FE1C90ED11C74EDA72E7EEF7D
:10199000B72E80C060E081E40E94500260E082E4E3
:1019A0000E94500260E083E40E94500260E084E400
:1019B0000E94500260E085E40E94500260E086E4EC
:1019C0000E94500260E087E40E94500260E088E4D8
:1019D0000E94500260E089E40E94500260E08AE4C4
:1019E0000E94500260E08BE40E94500211EB60E024
:1019F000812F0E9450021F5F113CC9F7B9CF80911F
:101A00008F02813069F0AFEFA09391026FEF81E018
:101A10000E9450020E949E0586EE91E00E944105C0
:101A200010927F020E94520C809166029091670290
:101A3000893E934030F010926702109266020E9435
:101A4000360880918F028230D9F178F5811127C054
:101A5000809191028F3F89F581E080938F0208E5A4
:101A600012E0912CF80120813181293C310564F08C
:101A700085E492E00E94410543E064E1892D0E94E3
:101A80004503D801AD92BC9293940E5F1F4FB7E00F
:101A90009B12E8CF80917802893C10F2B0CF813060
:101AA00009F0C5C00E949407DACF833061F084301A
:101AB00009F0BDC00E94ED05D2CFE3E0E0938F02B4
:101AC0000E947E07CCCF80917F0287FFC8CF809194
:101AD00084021F928F93809183021F928F93809133
:101AE00082028F93809181028F93AAEFB1E0BF931E
:101AF000AF93FF92EF920E94610E0FB6F894DEBF93
:101B00000FBECDBF10E0812F90E020917F022F709B
:101B100030E082179307C4F4FC01E158FD4F868141
:101B20001F928F935F924F92DF92CF920E94610E2D
:101B3000B601C7010E94350E1F5F0F900F900F90E6
:101B40000F900F900F90DFCFC7010E9441050E94B8
:101B500096088EE092E00E9441058091810290916A
:101B60008202892B09F47BCF52EB352E832D0E9404
:101B700047028C0184E192E00E94410507FF50C0BA
:101B80008CE292E00E94410506FF03C004FD0CC0F8
:101B900014C080908402912C8FEF830D0E94470225
:101BA00088169906E9F5F2CF80908602912C81E49F
:101BB0000E9447028816990699F582E0830D0E94DB
:101BC00047023C0181E0830D0E9447024C0184E002
:101BD000830D0E944702282E83E0830D0E94470256
:101BE000980121703327322F2227260D371D60914F
:101BF0008102709182022627372702701127102F49
:101C00000027080D191D20233123232B49F490911F
:101C100083029225982321F485E0830D0E944702D8
:101C200098E0390EA2EC3A1609F419CF9FCF109222
:101C30008F0215CF991B79E004C0991F961708F001
:101C4000961B881F7A95C9F780950895EE0FFF1FA0
:101C50000590F491E02D0994FB01DC0102C0019094
:101C60000D9241505040D8F70895FB01DC010D90D2
:101C70000020E9F7119701900D920020E1F70895F7
:101C8000FB019F01E8944230C4F04532B4F44A307D
:101C900029F497FB1EF4909581959F4F642F772729
:101CA0000E940B11805D8A330CF0895D8193CB011A
:101CB0000097A1F716F45DE251931082C9010C94CC
:101CC0006B10AEE0B0E0E7E6FEE00C942D110D895C
:101CD0001E8986E08C831A8309838FEF9FE79E839A
:101CE0008D83AE01475E5F4F6F89788DCE0101967F
:101CF0000E94830EEF81F885E00FF11F10822E966F
:101D0000E4E00C944911ACE0B0E0E9E8FEE00C94AA
:101D10001F117C016B018A01FC01178216828381ED
:101D200081FFBDC1CE0101964C01F7019381F601FF
:101D300093FD859193FF81916F01882309F4ABC1D5
:101D4000853239F493FD859193FF81916F0185323E
:101D500029F4B70190E00E947B10E7CF512C312C81
:101D600020E02032A0F48B3269F030F4803259F058
:101D7000833269F420612CC08D3239F0803339F41C
:101D8000216026C02260246023C0286021C027FD76
:101D900027C030ED380F3A3078F426FF06C0FAE05D
:101DA0005F9E300D1124532E13C08AE0389E300DF3
:101DB0001124332E20620CC08E3221F426FD6BC11B
:101DC000206406C08C3611F4206802C0883641F4C5
:101DD000F60193FD859193FF81916F018111C1CF30
:101DE000982F9F7D9554933028F40C5F1F4FFFE38D
:101DF000F9830DC0833631F0833771F0833509F0F4
:101E00005BC022C0F801808189830E5F1F4F44248C
:101E10004394512C540115C03801F2E06F0E711C2F
:101E2000F801A080B18026FF03C0652D70E002C0DC
:101E30006FEF7FEFC5012C870E9460102C0183019A
:101E40002C852F77222E17C03801F2E06F0E711CFF
:101E5000F801A080B18026FF03C0652D70E002C0AC
:101E60006FEF7FEFC5012C870E9455102C012C8548
:101E70002068222E830123FC1BC0832D90E048168E
:101E80005906B0F4B70180E290E00E947B103A94CA
:101E9000F4CFF50127FC859127FE81915F01B70101
:101EA00090E00E947B1031103A94F1E04F1A5108F3
:101EB0004114510471F7E5C0843611F0893639F5C3
:101EC000F80127FF07C060817181828193810C5FD7
:101ED0001F4F08C060817181882777FD8095982FFA
:101EE0000E5F1F4F2F76B22E97FF09C090958095F9
:101EF000709561957F4F8F4F9F4F2068B22E2AE0DB
:101F000030E0A4010E94AD10A82EA81844C0853767
:101F100029F42F7EB22E2AE030E025C0F22FF97F7F
:101F2000BF2E8F36C1F018F4883579F0B4C08037F1
:101F300019F0883721F0AFC02F2F2061B22EB4FEE8
:101F40000DC08B2D8460B82E09C024FF0AC09F2FBE
:101F50009660B92E06C028E030E005C020E130E0F0
:101F600002C020E132E0F801B7FE07C06081718154
:101F7000828193810C5F1F4F06C06081718180E078
:101F800090E00E5F1F4FA4010E94AD10A82EA8186C
:101F9000FB2DFF77BF2EB6FE0BC02B2D2E7FA51479
:101FA00050F4B4FE0AC0B2FC08C02B2D2E7E05C032
:101FB0007A2C2B2D03C07A2C01C0752C24FF0DC068
:101FC000FE01EA0DF11D8081803311F4297E09C0E4
:101FD00022FF06C07394739404C0822F867809F0A0
:101FE000739423FD13C020FF06C05A2C731418F4F9
:101FF000530C5718732C731468F4B70180E290E007
:102000002C870E947B1073942C85F5CF731410F4E9
:10201000371801C0312C24FF12C0B70180E390E0D3
:102020002C870E947B102C8522FF17C021FF03C044
:1020300088E590E002C088E790E0B7010CC0822FED
:10204000867859F021FD02C080E201C08BE227FDB5
:102050008DE2B70190E00E947B10A51438F4B7011F
:1020600080E390E00E947B105A94F7CFAA94F40189
:10207000EA0DF11D8081B70190E00E947B10A11054
:10208000F5CF332009F451CEB70180E290E00E94F1
:102090007B103A94F6CFF7018681978102C08FEFCB
:1020A0009FEF2C96E2E10C943B11FC0105906150EE
:1020B00070400110D8F7809590958E0F9F1F08955E
:1020C000FC016150704001900110D8F78095909507
:1020D0008E0F9F1F0895DC01FC01672F71917723FC
:1020E000E1F7329704C07C916D9370836291AE17D3
:1020F000BF07C8F308950F931F93CF93DF93182F53
:10210000092FEB018B8181FD03C08FEF9FEF20C072
:1021100082FF10C04E815F812C813D8142175307A1
:102120007CF4E881F9819F012F5F3F4F3983288339
:10213000108306C0E885F985812F0995892B29F739
:102140002E813F812F5F3F4F3F832E83812F902F22
:10215000DF91CF911F910F910895FA01AA2728309E
:1021600051F1203181F1E8946F936E7F6E5F7F4F64
:102170008F4F9F4FAF4FB1E03ED0B4E03CD0670FE0
:10218000781F891F9A1FA11D680F791F8A1F911D33
:10219000A11D6A0F711D811D911DA11D20D009F483
:1021A00068943F912AE0269F11243019305D3193C5
:1021B000DEF6CF010895462F4770405D4193B3E0AE
:1021C0000FD0C9F7F6CF462F4F70405D4A3318F055
:1021D000495D31FD4052419302D0A9F7EACFB4E006
:1021E000A6959795879577956795BA95C9F70097BE
:1021F0006105710508959B01AC010A2E069457955F
:10220000479537952795BA95C9F7620F731F841FB5
:10221000951FA01D0895AA1BBB1B51E107C0AA1F53
:10222000BB1FA617B70710F0A61BB70B881F991F77
:102230005A95A9F780959095BC01CD0108952F92EC
:102240003F924F925F926F927F928F929F92AF9246
:10225000BF92CF92DF92EF92FF920F931F93CF9393
:10226000DF93CDB7DEB7CA1BDB0B0FB6F894DEBF2A
:102270000FBECDBF09942A88398848885F846E8450
:102280007D848C849B84AA84B984C884DF80EE809A
:10229000FD800C811B81AA81B981CE0FD11D0FB6A3
:1022A000F894DEBF0FBECDBFED010895F894FFCFC7
:1022B00000000000000000006C6C6A6D2F6D646609
:1022C0002F74656D706C5F6174393063616E333289
:1022D0002E786D6C0000000000000000000000007F
:1022E000000403020174783A20253033782F25301A
:1022F00032782F253032782F0A002F25303278009F
:1023000057726974696E6720617070207265673AF0
:102310002025780057726974696E672076616C7544
:10232000653A2025780077726F7465207265675F63
:102330007A6F6E650A0050617373696E6720746806
:10234000726F75676820767363705F6765744D445C
:10235000465F55524C28290A004661696C65642025
:10236000746F206F70656E206368616E6E656C219E
:10237000210A0056534350204154393043414E33D3
:10238000320A0054656D706C617465206669726D07
:10239000776172650A004E6F646520696E697469C1
:1023A000616C697A6174696F6E0072783A202530C9
:1023B00033782F253032782F253032782F00646F14
:1023C000444D0A0064656275672020646F444D20A7
:1023D000636865636B20726F77730A00646562756A
:1023E000672020646F444D20726F7720656E6162B4
:1023F0006C65640A00427574746F6E205072657368
:0624000073656421000079
:00000001FF
