:100000000C9470000C948D000C948D000C948D0059
:100010000C948D000C948D000C948D000C948D002C
:100020000C948D000C948D000C948D000C948D001C
:100030000C948D000C948D000C948D000C948D000C
:100040000C9491000C948D000C948D000C948D00F8
:100050000C948D000C948D000C948D000C948D00EC
:100060000C948D000C948D000C948D000C948D00DC
:100070000C948D000C948D000C948D000C948D00CC
:100080000C948D000C948D000C948D000C948D00BC
:100090000C948D0017082808930B930B930B3908C9
:1000A000930B4A085B08930B8408A408930B930BEB
:1000B000930B930B930B930B930B930B930B930B50
:1000C000FD08A609EB09930B930B930B260A320A42
:1000D000430A930BAF0A930B930B930BC70A330B93
:1000E00011241FBECFEFD8E0DEBFCDBF14E0A0E0EB
:1000F000B1E0E4E7F2E302C005900D92AC30B10745
:10010000D9F714E0ACE0B4E001C01D92AC37B10700
:10011000E1F70E9476130C9438190C9400000895AE
:1001200008951F920F920FB60F9211248F939F93F1
:10013000809172049091730401969093730480935C
:100140007204809144049091450401969093450473
:1001500080934404009906C0809156048F5F809379
:10016000560402C010925604809157048F5F80930A
:10017000570480915804823049F4809157048536A1
:1001800070F085B191E0892785B907C0813011F4FD
:10019000289803C0811103C0289A109257049F9198
:1001A0008F910F900FBE0F901F9018952F923F9236
:1001B0004F925F926F927F928F929F92AF92BF9277
:1001C000CF92DF92EF92FF920F931F93CF93DF9323
:1001D000CDB7DEB7AF970FB6F894DEBF0FBECDBF79
:1001E0003C01362E142F222E1F924F931F926F9395
:1001F0007F928F9385E391E09F938F93CE01019639
:100200004C019F928F930E9457162E2D0FB6F89493
:10021000DEBF0FBECDBF6701CE0181965C0149E410
:10022000442E41E0542E8C2D821B8017C0F4F60121
:1002300081916F011F928F935F924F92BF92AF9205
:100240002FA70E945716B501C4010E942B160F90CC
:100250000F900F900F900F900F902FA5E4CFC40137
:100260000E949A04C301A0E0B0E0BC0155274427D6
:10027000822D90E0A0E0B0E03AE1880F991FAA1F1C
:10028000BB1F3A95D1F7482B592B6A2B7B2B53294F
:10029000412B49A35AA36BA37CA381E08EA30DA39A
:1002A000002339F0402F50E0B701CE0187960E941D
:1002B0002216C5010E945F0321E0892B09F020E08E
:1002C000822FAF960FB6F894DEBF0FBECDBFDF9181
:1002D000CF911F910F91FF90EF90DF90CF90BF9043
:1002E000AF909F908F907F906F905F904F903F90D6
:1002F0002F9008956F927F928F929F92AF92BF92AC
:10030000CF92DF92EF92FF920F931F93CF93DF93E1
:10031000CDB7DEB72E970FB6F894DEBF0FBECDBFB8
:100320006C014B013A015901CE0101960E94DE0396
:10033000892B21F589819A81AB81BC81F30180836E
:10034000F40190839D013170F601318320832AE10D
:10035000B695A795979587952A95D1F78770F5015A
:1003600080834D81F8014083442351F050E0BE0169
:10037000695F7F4FC7010E94221602C080E001C062
:1003800081E02E960FB6F894DEBF0FBECDBFDF9191
:10039000CF911F910F91FF90EF90DF90CF90BF9082
:1003A000AF909F908F907F906F900895F999FECFB6
:1003B00090E092BD81BDF89A80B590E00895F999DA
:1003C000FECF90E092BD81BD60BDFA9AF99A81E0BE
:1003D00090E00895882361F0813011F482E405C033
:1003E00090E9980F903130F48F5B0E94D601089508
:1003F00080E208958FEF0895CF93811105C081E4C5
:100400000E94DF0181E406C0813039F482E40E9459
:10041000DF0182E40E94D6010DC090E9980F90316F
:1004200038F4C1E4C80F8C2F0E94DF018C2FF2CF6B
:10043000862F8095CF91089581E00E94D60108957E
:10044000682F81E00C94DF0181E10E94D6010895BC
:1004500082E10E94D60108950895089580E00895EC
:1004600080E0089581E00895E82FF0E0EB5DFE4F15
:10047000808108950895E82FF0E0E75FFE4F8081C6
:1004800008958C5F0E94D60108958C5F0C94DF0163
:10049000875F0E94D6010895875F0C94DF0180E199
:1004A000089588E0089581E0089581E00E94D601D2
:1004B0000895682F81E00C94DF0182E00E94D6014C
:1004C0000895682F82E00C94DF01682F83E00C947C
:1004D000DF0183E00E94D601089560E070E0CB0167
:1004E000089560E070E0CB0108950895FC0182E07A
:1004F000808380E7818312821382148215821682A0
:1005000087EB91E00C949A04CF93C82F83E08093FB
:10051000470483E88093460470E070934904609335
:10052000480440934A04C0934B0481E40E94D601DE
:1005300080934C0481E48C0F0E94D60180934D047B
:10054000CF910C94B906EF920F931F9380934704B9
:1005500083E88093460410E0109349040093480414
:10056000E0924A0420934B0460934C0440934D0462
:100570001F910F91EF900C94B9068295807F809324
:10058000ED001092EE001092EF001092F000109229
:10059000F1001092F2001092F3001092F400109209
:1005A000F5001092F6001092F70088E01092FA0021
:1005B0008150E1F70895CF93C0E08C2F0E94BD02D7
:1005C000CF5FCF30D1F7CF9108958091ED0021E03A
:1005D00030E0922F9295907F9093ED009091EF00F4
:1005E000907C31F09091EE0096FF06C01092ED00E5
:1005F0008093ED00C90108952F5F3F4F2F303105E3
:1006000041F78093ED008FEF9FEF0895843021F143
:1006100060F4813079F1C0F08230D1F0833009F09C
:1006200043C028E14EE062E128C08730E9F038F4A9
:100630008530B1F08630C1F528E14EE017C0883032
:10064000B9F08F3FD1F030C028E14EE066EC15C024
:1006500028E14EE064E211C028E14EE06EE00DC0FA
:1006600028E14EE066E009C026E144E062E005C012
:1006700022E1FBCF28E14EE062E66093E200409386
:10068000E3002093E4000E94DB021092ED008091D1
:10069000EF0080688093EF008091D80082608093A3
:1006A000D80080E090E008958DEF9FEF0895E8ED89
:1006B000F0E080818D7F808380E090E00895CF938B
:1006C000DF93EC010E94E5028F3F2FEF920709F4C0
:1006D00070C0982F9295907F9093ED000E94BD027C
:1006E0009D818C818F7090FF32C0805F8093EF007E
:1006F0009D818881880F880F880F92FD8460809388
:10070000F000488159816A817B8195E076956795F3
:10071000579547959A95D1F74093F10048815981B3
:100720006A817B812DE076956795579547952A9547
:10073000D1F74093F200488159816A817B8135E18C
:1007400076956795579547953A95D1F719C0809357
:10075000EF008D8181FF03C084E08093F0008881E9
:100760008295880F807E8093F200488159816A814A
:100770007B8183E076956795579547958A95D1F764
:100780004093F30080E090E02C8130E082179307E3
:1007900044F4FE01E80FF91F26812093FA00019628
:1007A000F3CF8091EF0080648093EF0080E090E0D1
:1007B00002C08FEF9FEFDF91CF910895CF92DF922C
:1007C000EF92FF920F931F93FC011092ED00809126
:1007D000EE0085FF7AC01582108211821282138288
:1007E00014828091F00082FF02C082E085838091B4
:1007F000EF0084FF39C0858181608583C090F3005C
:100800004091F2000091F1008091F00050E060E032
:1008100070E09DE0440F551F661F771F9A95D1F732
:10082000D12CE12CF12C25E1CC0CDD1CEE1CFF1CA5
:100830002A95D1F74C0D5D1D6E1D7F1D10E020E047
:1008400030E0A5E0000F111F221F331FAA95D1F73A
:10085000400F511F621F731F869586958695480F1E
:10086000511D611D711D11C08091F3004091F20076
:1008700042954695477050E098E0899F400D511D84
:100880001124662757FD6095762F4083518362833C
:1008900073832091EF002F70248380E090E0821713
:1008A00048F43091FA00DF01A80FB91F16963C9367
:1008B0000196F5CF80E00E94BD028091EF00806834
:1008C0008093EF0080E090E002C08EEF9FEF1F91D9
:1008D0000F91FF90EF90DF90CF9008958091D90015
:1008E00090E008951092ED008093F3006093F20081
:1008F0004093F1002093F00080E090E00895109282
:10090000ED008093F7006093F6004093F50020938C
:10091000F40080E090E008959091C80095FFFCCF2E
:100920008093CE0008959091C80095FFFCCF8093EE
:10093000CE0008951F93CF93DF93EC0119911123FB
:1009400049F01A3019F48DE00E948C04812F0E9426
:100950008C04F4CF8DE00E948C048AE0DF91CF916B
:100960001F910C948C041F93CF93DF93EC0119918A
:10097000112349F01A3019F48DE00E948C04812F64
:100980000E948C04F4CFDF91CF911F910895CF93F3
:10099000DF93CDB7DEB72A970FB6F894DEBF0FBE50
:1009A000CDBF4AE050E0BE016F5F7F4F0E94361618
:1009B0000E949A042A960FB6F894DEBF0FBECDBFF0
:1009C000DF91CF9108958F708A3010F0895C01C05B
:1009D000805D0C949304CF93C82F82958F7090E024
:1009E0000E94E3048C2F90E0CF910C94E30482E00A
:1009F000809358040E941C02811101C08FEF8093E4
:100A00006F0410925D0410925E04109260041092C4
:100A10005F041092610410924604109247041092F1
:100A200049041092480410924A0410925A041092F9
:100A30006E041092540410926D041092530410929C
:100A40007404109271041092700410927304109246
:100A5000720410925C0410925B0410926C04109269
:100A600055041092590408950E945D02807C8034E0
:100A700059F08FEF0E94200280E00E94610280EA1C
:100A80000E94650280E0089581E008951092580464
:100A9000089580915D0487FF1BC080915F04909151
:100AA0006004892B19F5809161048630F9F48091F6
:100AB00063048F3FD9F48091640480936F040E9493
:100AC000200280E40E94610283E080936D04089517
:100AD0008091720490917304893E934038F08FEFB7
:100AE00080936F040E9420020C94F70408950E94E2
:100AF0005D02811117C080915D048F708530B1F463
:100B00000E945D0290916304891781F0892F0E94F1
:100B100061028FEF80936F040E94200281E0809336
:100B20006D040895809163040C946102089580918E
:100B30005D048F70823079F490916F04809163042A
:100B4000981309C08091640480936F040E9420026E
:100B500080E40C946102089580915D048F7099F097
:100B600020916F049091630429130DC0813021F00E
:100B700080916404811107C08FEF80936F040E94FD
:100B800020020C94F7040895803829F480916E04B3
:100B900010926E040895813809F443C0823809F434
:100BA00042C0833809F441C0843911F40C942E02F8
:100BB000853911F40C943002863911F40C94320208
:100BC000893818F484580C94410297E7980F9830AC
:100BD00018F4892F0C944802813919F480916F041C
:100BE0000895833919F4809170040895823919F4B5
:100BF000809171040895873911F40C944F0288395B
:100C000011F40C945102893911F40C94530290E3BD
:100C1000980F903118F4892F0C943402805E0C9454
:100C20003B0281E0089585E0089580E0089587FD06
:100C30000C94C4050C94EA01CF93E62F6095CCE7A1
:100C4000C80FC53040F46E2F8C2F0E9445028C2FA8
:100C5000CF910C944102823969F46E2F70E0762FA7
:100C6000662780917004682B709371046093700400
:100C7000672F77C0833959F46091700470917104C3
:100C800066276E2B70937104609370046AC0C7E787
:100C9000C80FC830A8F48091700490917104492F56
:100CA00050E04F3F510509F05CC08F3F09F059C03B
:100CB0006E2F8C2F0E944C028C2FCF910C944802E7
:100CC000C0E3C80FC031A8F4809170049091710402
:100CD000292F30E02F3F310509F043C08F3F09F045
:100CE00040C06E2F8C2F0E943A028C2FCF910C9413
:100CF0003402C6E6C80FC43018F40E946D0206C064
:100D0000C2E6C80FC430A8F40E94710223E030E0AC
:100D10002C1B310943E0220F331F4A95E1F7287F4E
:100D2000332704C096958795779567952A95D2F7CE
:100D300018C0823AB1F4E53531F410925C04109297
:100D40005B0465E50EC0EA3A61F480915B04909122
:100D50005C04883E934020F40E9475026AEA01C058
:100D600060E0862FCF91089587FD0C941C060C94AB
:100D7000FC01EF92FF920F93009146040F708BE4F9
:100D8000E82E84E0F82E2091470440916F04609192
:100D90004A0480914804909149040E94D600811130
:100DA00005C090915A049F5F90935A040F91FF9051
:100DB000EF90089581E880934604109247041092C2
:100DC00049041092480482E080934A0480916F04A1
:100DD00080934B040E94B90681E0809358040895E3
:100DE00020915304213091F120F0223009F480C089
:100DF0007DC0809154048F3FA1F091E89093460408
:100E000010924704109249041092480492E0909383
:100E10004A0480934B040E94B90681E080935304F6
:100E20002CC094E090936D0491E8909346048093D5
:100E30004B0487E0809347041092490410924804C1
:100E400083E080934A040E94B90652C080915D04F9
:100E500087FF1EC080915F0490916004892B09F088
:100E600047C080916104833009F042C080915404EE
:100E7000811108C082E080936D0410927304109277
:100E8000720436C08F5F80935404109253041AC0CA
:100E90008091720490917304893E934048F180914F
:100EA00074048F5F80937404833000F18091540444
:100EB00081110BC0209354041092530410927304B8
:100EC000109272041092740413C080936F0493E024
:100ED00090936D04109253040E94200280E40E94BB
:100EE0006102109274040E94DA0602C01092530448
:100EF00010925D04089593E89093460497E09093D0
:100F0000470424E130E0309349042093480499E0F9
:100F100090934A0410924B0480934C0460934D04C8
:100F20000C94B906CF93DF931F92CDB7DEB78091B3
:100F30006C048F5F8C3318F480936C0413C0109290
:100F40006C04809155048F5F8093550480916D04EB
:100F5000833041F40E94280289830E94240269811F
:100F60000E947B07809155048C3338F01092550411
:100F7000809159048F5F809359048091590488317E
:100F800010F01092590480916D04833069F420911F
:100F90006B042F5F822F8F7090E002971CF42093D8
:100FA0006B0402C010926B040F90DF91CF910895F3
:100FB00080915D048F708130A1F490916F048091D5
:100FC000630498130EC080E880934604109247048F
:100FD000109249041092480483E080934A040C94D0
:100FE000B90608956F927F928F929F92AF92BF92AF
:100FF000CF92DF92EF92FF920F931F93CF93DF93E5
:101000001F92CDB7DEB780915F0490916004892B69
:1010100009F089C38091610490E0FC013197E632C8
:10102000F10508F080C3E65BFF4F0C94E6150F90C6
:10103000DF91CF911F910F91FF90EF90DF90CF90B4
:10104000BF90AF909F908F907F906F900C9477059A
:101050000F90DF91CF911F910F91FF90EF90DF9054
:10106000CF90BF90AF909F908F907F906F900C9497
:10107000D8070F90DF91CF911F910F91FF90EF90C4
:10108000DF90CF90BF90AF909F908F907F906F90A8
:101090000C9497050F90DF91CF911F910F91FF90C6
:1010A000EF90DF90CF90BF90AF909F908F907F9008
:1010B0006F900C94AC0580915D048F70823009F0C4
:1010C00032C390916F048091630498132CC3809174
:1010D000640487FD03C00E94EA0102C00E94C405A7
:1010E00080934C048091640480934B0483E080934C
:1010F000470482E880934604109249041092480401
:101100008AE080934A04FEC210915D041F70133080
:1011100009F009C390916F0480916304981303C38D
:10112000809164046091650487FD03C00E94FC0106
:1011300002C00E941C0680934C048091640480933A
:101140004B0410934704D5CF90916F0480916304B2
:10115000981306C080916404893011F40E942C0217
:1011600090916F04809163049813DDC280916404B0
:10117000813009F0D8C280E00E9434029091650469
:101180008913D1C283E00E943402909166048913CE
:10119000CAC285E00E943402909167048913C3C2D9
:1011A00087E00E943402909168048913BCC2809148
:1011B000700490917104492F55272091690430E003
:1011C0004217530709F0AFC2992720916A0430E013
:1011D0008217930709F0A7C20F90DF91CF911F915B
:1011E0000F91FF90EF90DF90CF90BF90AF909F90C6
:1011F0008F907F906F900C942C0280916304829565
:101200008F70813041F138F0823009F444C083306E
:1012100009F461C082C080E00E94340290916404AD
:1012200089137DC081E00E94340290916504891386
:1012300076C082E00E9434029091660489136FC0E8
:1012400083E00E94340290916704891368C0809102
:101250006B0480615FC084E00E943402909164045A
:1012600089135DC085E00E94340290916504891362
:1012700056C086E00E9434029091660489134FC0E4
:1012800087E00E94340290916704891348C08091DE
:101290006B0480623FC088E00E9434029091640435
:1012A00089133DC089E00E9434029091650489133E
:1012B00036C08AE00E9434029091660489132FC0E0
:1012C0008BE00E94340290916704891328C08091BA
:1012D0006B0480641FC08CE00E943402909164040F
:1012E00089131DC08DE00E9434029091650489131A
:1012F00016C08EE00E9434029091660489130FC0DC
:101300008FE00E94340290916704891308C0809195
:101310006B04806880936B0402C010926B04809110
:101320006B04807F803F09F0FEC10F90DF91CF9169
:101330001F910F91FF90EF90DF90CF90BF90AF90F3
:101340009F908F907F906F900C94F70490916F0412
:10135000809163049813E7C1D0906404E090650421
:10136000812C912CF12C07E0C02E83E0B82E9AE15D
:10137000A92E0E2D10E001501109882D8E1408F0B1
:10138000D2C16C2D0E94A715882D8D0D99830E94C6
:1013900017069981E92FF0E0EA5BFB4F86839630D0
:1013A00029F08016910699F49F5F01C097E09F573E
:1013B00090934604B0924704109249041092480456
:1013C000A0924A04F0924B040E94B906F3948FEF66
:1013D000881A980AD2CF90916F0480916304981371
:1013E000A2C1D090640490915D0492509770B5E6CC
:1013F000EB2EB4E0FB2E1CE4A12E14E0B12E8701ED
:10140000DA18802F8E19891788F4F80161918F01FD
:10141000CA2CCD0C8C2D99830E94B4068C2D0E9471
:101420001706F50181935F019981EBCF83E08093EB
:10143000470410924904109248048AE180934A04B8
:1014400010924B049F57909346045CC190916F0497
:1014500080916304981367C1809164040E94EA013B
:1014600061E00BC090916F048091630498135BC19D
:10147000809164040E94EA016FEF680F8091640418
:101480000E94FC012DCE8091630490916F04981707
:1014900019F08F3F09F047C183E08093470488E843
:1014A00080934604109249041092480480E280938D
:1014B0004A0400E010E0AFE0EA2E10934B04FE2C4B
:1014C000F01AFCE4CF2EF4E0DF2E0F5F8F2D0E9488
:1014D0003402F60181936F01013130F0EEE4EE2E1B
:1014E000E4E0FE2E10E00CC0FA94F3E5CF16F4E031
:1014F000DF0659F70E94B9061F5F1330F1F6EECFF1
:10150000812F0E943B02882331F0812F0E943B02F1
:10151000F701808302C0F70110821F5FFFEFEF1A0F
:10152000FF0A153069F70E94B90673E0F72EF092B2
:101530004B046CE4C62E64E0D62E00E0802F810FB1
:101540000E943B02F60181936F010F5F0730B1F7F4
:10155000195F0E94B906F394113249F7E4C09091E3
:101560006F04809163049813DEC083E08093470486
:1015700087E880934604109249041092480482E25E
:1015800080934A048BE494E00E947602BBC0909161
:101590006F04809163049813C6C080915D048F70BE
:1015A00090E0049724F0A0906704A11002C0AA2440
:1015B000A3940091700410917104309164042091FF
:1015C0006504822F90E0932B9093710480937004B4
:1015D00083E080934704109249041092480487E204
:1015E00080934A0410924B0430934C0420934D0492
:1015F000B12CEA2CF12C5FE4C52E54E0D52EC701A6
:101600008B19910904971CF49A2C9B1802C044E092
:10161000942E84E8890D80934604809166048B0D96
:1016200080934E043FE4632E34E0732E962D9C1974
:10163000991550F4809166048B0D890F0E9417064E
:10164000F30181933F01F2CF0E94B906B90C80915A
:101650004B048F5F80934B04BA1488F2109371048B
:101660000093700460C090916F048091630498139C
:101670005AC000917004109171048091640490E04C
:10168000982F882720916504822B90937104809372
:10169000700483E08093470480915D048F708058CC
:1016A00080934604109249041092480487E2809384
:1016B0004A04F09066048F2D90E04091660450E05B
:1016C00020915D042F7030E024503109240F351F24
:1016D000821793079CF46C01C41AD50AF4E0CF0E6C
:1016E000D11CF601E35AFB4F66818F2D0E94B40690
:1016F000F601EA5BFB4F8583F394DDCF1093710411
:10170000009370040F90DF91CF911F910F91FF9084
:10171000EF90DF90CF90BF90AF909F908F907F9091
:101720006F900C94B9060F90DF91CF911F910F919C
:10173000FF90EF90DF90CF90BF90AF909F908F90F1
:101740007F906F900895EF92FF920F931F93809177
:101750005D0487FD18C083E6E82E84E0F82E0DE5D1
:1017600014E02EE534E042E654E061E674E08FE5F3
:1017700094E00E947A01882341F090915D04906882
:1017800090935D0403C081E001C080E01F910F9140
:10179000FF90EF900895E0917804F09179049081A2
:1017A0008091770489230895E0917504F09176047F
:1017B000808190917704892B8083E0917A04F09165
:1017C0007B04808190917704892B808308951F93F7
:1017D000CF93DF931F92CDB7DEB71FB7F894E09198
:1017E0007504F0917604208190917704909592236E
:1017F0009083E0917A04F0917B04908120917704AA
:10180000922B90839AE09A95F1F700C0882399F083
:10181000E0917A04F0917B04208190917704909577
:1018200092239083E0917504F09176049081209149
:101830007704922B9083E5E4EA95F1F70000E091BC
:101840007804F0917904908120917704922309F42F
:1018500080E0F5EEFA95F1F70000E0917504F09163
:101860007604908120917704922B9083E0917A0402
:10187000F0917B042081909177049095922390833E
:10188000662321F089830E94D40B89811FBF95E3D1
:101890009A95F1F700000F90DF91CF911F91089575
:1018A000E0917A04F0917B04908180917704809597
:1018B000892380830895E0917504F09176049081E6
:1018C00080917704809589238083E0917A04F09158
:1018D0007B04808190917704892B80838FE797E048
:1018E0000197F1F700C000009FB7F894E0917A04E7
:1018F000F0917B04208180917704809582238083FE
:10190000E0917504F0917604808120917704822B18
:101910008083EFEFF0E03197F1F700C00000E09135
:101920007804F09179042081809177049FBFEFE7DC
:10193000F6E03197F1F700C00000E0917804F091F3
:101940007904908130917704932311F082230895D4
:1019500081E0089550937B0440937A047093760459
:1019600060937504909379048093780481E001C0BA
:10197000880F2A95EAF7809377040C945B0C60E05B
:1019800081700C94E70BCF93DF93C82FD8E08C2F96
:1019900081700E94BF0CC6958111C068D150B9F703
:1019A0008C2FDF91CF910895CF93DF93C82FD8E08C
:1019B0008C2F8170D13011F060E001C061E00E9495
:1019C000E70BC6958111C068D15091F78C2FDF913C
:1019D000CF910895EF92FF920F931F93CF93DF93D0
:1019E000F82EEB01E42E0E945B0C209769F085E550
:1019F0000E94C30C8E01085F1F4F89910E94C30C87
:101A0000C017D107D1F703C08CEC0E94C30C8F2DF7
:101A1000EE2041F0DF91CF911F910F91FF90EF9059
:101A20000C94D40CDF91CF911F910F91FF90EF9008
:101A30000C94C30C8FEF0C94C30CDF92EF92FF92C7
:101A40000F931F93CF93DF93E82EEB010E945B0C63
:101A500081112FC080EF0E94C30CF12C10E488EF9D
:101A6000D82ED10E81E00E94BF0C082F81E00E9489
:101A7000BF0C882319F0002361F01DC0011109C0BB
:101A80001E1528F0888180FF04C0E11611F0F12EA8
:101A900001E0802F0E94BF0C9881969501119068FB
:101AA000988311501D11DECF21961111D8CF8F2DA3
:101AB00003C08FEF01C08EEFDF91CF911F910F9187
:101AC000FF90EF90DF90089540E00C94EA0C41E025
:101AD0000C94EA0CFB01218130E0322F2227908107
:101AE000292B803171F4A9014E7F63E0440F551F0B
:101AF0006A95E1F796812CE030E0291B3109240F2B
:101B0000351F37FF05C0319521953109A1E001C08E
:101B1000A0E0883211F0823269F4848180768032CC
:101B200031F0803431F0811105C0287F03C02C7F53
:101B300001C02E7FC90144E0969587954A95E1F74B
:101B40006AE0689FA001699F500D11242F70332710
:101B500060E872E0269FC001279F900D369F900D90
:101B60001124A11101C09E5F9C01232F33272695CC
:101B70002695240F351FAA2319F031952195310997
:101B8000C9018A5D9D4F8930974018F080ED97E03C
:101B90000895C9010895CF93FB01418150E0542F6E
:101BA00044279081492B803171F49A012E7F93E074
:101BB000220F331F9A95E1F796814CE050E0491BC4
:101BC0005109420F531F57FF05C0519541955109C7
:101BD000C1E001C0C0E0883211F0823269F4848132
:101BE0008076803231F0803431F0811105C0487F39
:101BF00003C04C7F01C04E7F9A0184E03695279543
:101C00008A95E1F7A0E1B7E20E9498154F70552739
:101C1000E1E7F2E04E9F90014F9F300D5E9F300D47
:101C20001124620F731F811D911DCC2339F09095F3
:101C30008095709561957F4F8F4F9F4FCF910895FD
:101C4000EF92FF920F931F93CF93DF93162F072FDF
:101C5000F42EBC018EEB0E94640DE12EC12FD02F1B
:101C60008C2F8E198F1520F40E941A0D8993F8CFAE
:101C700069E070E0812F902F0E945D13882311F09E
:101C800083E001C080E0DF91CF911F910F91FF9021
:101C9000EF900895AF92BF92CF92DF92EF92FF92B2
:101CA0000F931F93CF93DF938C017B016C01C0E0F6
:101CB000D0E05B0181E0A81AB108CE15DF05B1F1D3
:101CC000209719F482E792E00CC0CA15DB0521F4D5
:101CD00086E792E00E94B304C130D10521F48BE77E
:101CE00092E00E94B304F60181916F0190E00E949E
:101CF000EB048BEA92E00E94B3042097A9F4F80168
:101D00008081803119F480E892E00CC0883219F4A7
:101D100086E892E007C0823219F48CE892E002C0B3
:101D200081E992E00E94B3042196C7CF68E070E099
:101D3000C8010E945D13882319F087E992E002C070
:101D400082EA92E0DF91CF911F910F91FF90EF9087
:101D5000DF90CF90BF90AF900C94B3040F931F937C
:101D6000CF93DF93EC018B01B80188810E941D0D98
:101D7000888381508D3F48F4F8018081883239F0A2
:101D8000803129F0823281F702C081E001C080E019
:101D9000DF91CF911F910F910895CF93DF93EC01C5
:101DA0000E945B0CBE0184EB0E94640D81E00E94E6
:101DB000BF0CC82F0E945B0C81E0C11101C080E004
:101DC000DF91CF9108951F93CF93DF9300D0CDB7CC
:101DD000DEB7182F69837A830E945B0C0E94CB0BBD
:101DE00069817A81882351F084E4113019F00E94CE
:101DF000670D02C00E94640D80E005C08DEA92E08C
:101E00000E94B30482E00F900F90DF91CF911F9159
:101E1000089581E00E94BF0C91E0811190E0892F2C
:101E20000895EF92FF920F931F93CF93DF93CDB757
:101E3000DEB727970FB6F894DEBF0FBECDBF8B017C
:101E4000473008F460C09C0129513C4F273F3A427B
:101E500008F059C097FF06C0919581959109EE242D
:101E6000E39401C0E12CF12C6AE070E00E94B3150C
:101E700021E02F0DE1E0F0E0EC0FFD1FEF0DF11D73
:101E8000F7FCFA95805D8083862F972F1816190628
:101E900014F4F22EE9CF822F992787FD9095E1E087
:101EA000F0E0EC0FFD1FE80FF91FEE2029F03DE2F6
:101EB000308330E06EE21DC03BE2FACF41E0430FD9
:101EC0005FEF520FD801A80FB91FE1E0F0E0EC0F6F
:101ED000FD1FE20FF11D27FDFA9520812C93511172
:101EE00006C0F801E40FF11D608342E0430F342F78
:101EF000252F832F90E027FFE1CFF801E80FF91F8E
:101F0000108280E001C081E027960FB6F894DEBF12
:101F10000FBECDBFDF91CF911F910F91FF90EF903A
:101F200008952F923F925F926F927F928F929F922D
:101F3000AF92BF92CF92DF92EF92FF920F931F93D7
:101F4000CF93DF93CDB7DEB7AC970FB6F894DEBF73
:101F50000FBECDBF55245A947E0125E2E20EF11C3E
:101F600061E7262E62E0362E8E010F5F1F4F74E070
:101F7000A72EB12CECE08E2E912CB701852D0E945E
:101F80001D0D582E6FEF861306C081ED92E00E9462
:101F9000B3048FEF40C17EEF871306C082EE92E05C
:101FA0000E94B3048EEF37C168E070E0C7010E9461
:101FB0004A0E8DA1883229F0803119F0823209F061
:101FC00023C18DE090E00E9493048EEB0E94C30C2D
:101FD000CE014C966C010E941A0DF60181936F019F
:101FE000EE15FF05C1F78DEE92E00E94B304BE012D
:101FF000645E7F4F6B01612C712CF60181916F0142
:1020000090E00E94EB048BEA92E00E94B304FFEFA1
:102010006F1A7F0A29E06216710449F078E06716AA
:10202000710459F786E792E00E94B304E6CF69E0B5
:1020300070E0CE014C960E945D13882319F087E969
:1020400092E002C082EA92E00E94B3048DE090E048
:102050000E949304CC8C8D8DD12CD82A81EF92E0F4
:102060000E94B3048D2D90E00E94EB04C6019927D5
:102070000E94EB048BEA92E00E94B3048DA18031B0
:1020800019F489EF92E018C0883211F08232B1F46D
:1020900088A1982F9076903619F480E093E00CC0D8
:1020A00086FF03C087E093E007C085FF03C08EE092
:1020B00093E002C087E193E00E94B3048BEA92E0D0
:1020C0000E94B3044DA18C8D2D8D90E0922B403158
:1020D00071F49C012E7F53E0220F331F5A95E1F7D4
:1020E0008AA1B401681B7109CB01820F931F97FF6E
:1020F00005C091958195910931E001C030E04832E9
:1021000011F0423271F428A1422F4076403649F056
:1021100026FF02C08E7F05C025FF02C08C7F01C054
:10212000887F6C0194E0D694C7949A95E1F7782F54
:102130007F70772E332319F08DE290E002C08BE29E
:1021400090E00E949304C60199270E94C7048EE183
:1021500093E00E94B3044AE050E0B801729CC001D1
:10216000739C900D11240E943616C12CD12CF801BD
:1021700001900020E9F73197E01BF10BC5018E1BA0
:102180009F0BC816D90640F48BE292E00E94B3047C
:102190008FEFC81AD80AEBCFC8010E949A0480E2D8
:1021A00093E00E94B304BE01645E7F4F8DA10E9444
:1021B0006A0D6C0190EDC91697E0D90619F484E216
:1021C00093E01CC080E393E00E94B304C6010E9428
:1021D000C70488E393E00E94B3044AE0BE016E5E48
:1021E0007F4FC6010E94110F82E493E00E94B30466
:1021F000CE0142960E949A0489E493E00E94B304BF
:1022000089E094E00E949A045110B7CE89E094E0EE
:102210000E94B30480E0AC960FB6F894DEBF0FBE08
:10222000CDBFDF91CF911F910F91FF90EF90DF9085
:10223000CF90BF90AF909F908F907F906F905F9066
:102240003F902F900895DF92EF92FF920F931F938C
:10225000CF93DF93CDB7DEB729970FB6F894DEBFE3
:102260000FBECDBF8C017B010E945B0C49E0BE011B
:102270006F5F7F4FC8010E94200ED82E81110AC0C7
:10228000BE016F5F7F4FF80180810E946A0DF701E8
:10229000918380838D2D29960FB6F894DEBF0FBEF3
:1022A000CDBFDF91CF911F910F91FF90EF90DF9005
:1022B0000895EF92FF920F931F93CF93DF93CDB7C3
:1022C000DEB729970FB6F894DEBF0FBECDBFE82E5C
:1022D0008B0149E0BE016F5F7F4F80E090E00E947C
:1022E000200EF82E811109C0BE016F5F7F4F8E2D29
:1022F0000E946A0DF801918380838F2D29960FB675
:10230000F894DEBF0FBECDBFDF91CF911F910F912B
:10231000FF90EF900895DF92EF92FF920F931F933B
:10232000CF93DF93CDB7DEB729970FB6F894DEBF12
:102330000FBECDBF8C017B010E945B0C49E0BE014A
:102340006F5F7F4FC8010E94200ED82E81110CC0F4
:10235000BE016F5F7F4FF80180810E94CB0DF701B6
:1023600060837183828393838D2D29960FB6F894B1
:10237000DEBF0FBECDBFDF91CF911F910F91FF90B8
:10238000EF90DF900895EF92FF920F931F93CF93FA
:10239000DF93CDB7DEB729970FB6F894DEBF0FBE37
:1023A000CDBFE82E8B0149E0BE016F5F7F4F80E01B
:1023B00090E00E94200EF82E81110BC0BE016F5FCD
:1023C0007F4F8E2D0E94CB0DF80160837183828335
:1023D00093838F2D29960FB6F894DEBF0FBECDBF25
:1023E000DF91CF911F910F91FF90EF900895CF92C1
:1023F000DF92EF92FF920F931F93CF93DF93CDB7AE
:10240000DEB762970FB6F894DEBF0FBECDBF8A016C
:102410002A3008F48EC06B017C012FE3C20E22E447
:10242000D21E2FE0E21EF11C2FEBC21628EDD206C1
:1024300027EAE206F10408F07CC097FF0AC09095F5
:102440008095709561957F4F8F4F9F4FEE24E39459
:1024500001C0E12CF12C2AE030E040E050E00E9485
:10246000C7152B873C874D875E876F87788B898B55
:102470009A8B21E02F0DE1E0F0E0EC0FFD1FEF0D56
:10248000F11DF7FCFA95605D60836B857C858D8519
:102490009E85161617061806190614F4F22EDBCFC1
:1024A000822F9FEF9F0D923060F422E02F0DE1E02C
:1024B000F0E0EC0FFD1FE80FF11D87FDFA9580E3BA
:1024C0008083822F992787FD9095E1E0F0E0EC0F63
:1024D000FD1FE80FF91FEE2029F03DE2308330E0C8
:1024E0006EE21DC03BE2FACF41E0430F5FEF520FB7
:1024F000D801A80FB91FE1E0F0E0EC0FFD1FE20FDB
:10250000F11D27FDFA9520812C93533031F4F80109
:10251000E40FF11D608342E0430F342F252F832FFA
:1025200090E027FFE1CFF801E80FF91F108280E06B
:1025300001C081E062960FB6F894DEBF0FBECDBF3A
:10254000DF91CF911F910F91FF90EF90DF90CF908F
:102550000895FF920F931F93CF93DF93EC01162FF3
:10256000F42E022F0E945B0C0E94CB0B882399F063
:10257000BE018EE40E94640D812F0E94C30C8F2D3A
:102580000E94C30C9881983211F0923251F4802F3E
:102590000E94C30C06C08FE493E00E94B30481E064
:1025A00001C080E0DF91CF911F910F91FF900895BE
:1025B0000F931F93CF93DF9300D01F92CDB7DEB759
:1025C0008C014B8369837A830E945B0C0E94CB0B46
:1025D0004B8169817A81882351F0C8010F900F9057
:1025E0000F90DF91CF911F910F910C94200E89E7EE
:1025F00093E00E94B30481E00F900F900F90DF9161
:10260000CF911F910F9108951F93CF93DF9300D027
:10261000CDB7DEB7182F69837A830E945B0C0E94C6
:10262000CB0B69817A81882399F088E4113019F005
:102630000E94670D02C00E94640D8FE39CE9019720
:10264000F1F700C00000113049F00E94500C06C0A4
:1026500082EA93E00E94B30482E001C080E00F9020
:102660000F90DF91CF911F910895CF93DF93EC01ED
:102670000E945B0C0E94CB0B8823B9F0BE0188EB53
:102680000E94640DCEEFCF3F11F480E013C081E0D3
:102690000E94BF0C9FEF9C0F811102C0C92FF3CF86
:1026A000C111F3CF8BEC93E002C088EE93E00E945F
:1026B000B30481E0DF91CF910895FC01680F791F89
:1026C00080E048E1E617F70781F0219198E0322F8A
:1026D0003827532F517030FD84278695513009F4E7
:1026E00080682695915099F7EDCF0895CF93DF93A9
:1026F000CDB7DEB7AA970FB6F894DEBF0FBECDBF39
:102700008FEF82B911B884B985B91092C80086E0FC
:102710008093CA001092CD0089E18093CC0088E1BB
:102720008093C90082E080936E008DE387BD8CE0CA
:1027300084BD789420E047E250E068E270E086E2F1
:1027400090E00E94AA0C20E040E060E084E00E945B
:102750000603892B21F08FE491E00E949A0489E618
:1027600091E00E949A0489E791E00E949A040E94F5
:102770003405882391F00E94F7048E010F5F1F4FEC
:1027800079E4472E71E0572E7E012FE1E20EF11C15
:10279000E4EDAE2EEEEFBE2EE4C060E081E40E94D8
:1027A000DF0160E082E40E94DF0111EB60E0812F35
:1027B0000E94DF011F5F113CC9F7DDCF80916D04DE
:1027C000813069F08FEF80936F046FEF81E00E949A
:1027D000DF010E94F7048DE891E00E949A041092B4
:1027E0005D040E94A30B8091440490914504893EAE
:1027F000934058F0109245041092440480910001D7
:102800008F5F809300010E94920780916D04823057
:1028100009F4BEC008F0B1C08111A9C080916F0455
:102820008F3F09F0B2C081E080936D046EE0C62E48
:1028300064E0D62E912CF60120813181293C3105AE
:1028400064F08CEE91E00E949A0443E064E1892DEB
:102850000E948402D601AD92BC929394B2E0CB0E5A
:10286000D11CE7E09E12E7CF80910001863008F48A
:1028700078C0109200018CEF91E00E949A0484E1EC
:1028800092E00E949A040E945B0C8FEF8F8F8CE184
:10289000C82E84E0D82E8F8D882389F024E4C216B8
:1028A00024E0D20661F0B801C7010E94AE0E8F8D00
:1028B0008F3F09F028C18DE292E00E949A04D090E7
:1028C0001C041F92DF92A7E4B2E0BF93AF931F9363
:1028D0000F930E945716C8010E949A0460E070E0AE
:1028E00080E00E94E30EFFEF2EE984E2F1502040E9
:1028F0008040E1F700C00000BE01675D7F4F8D2D75
:102900000E9459114AE050E0B70189A59AA50E949A
:1029100036160E949A0489A59AA599279F938F93AA
:102920008DE492E09F938F931F930F930E9457160D
:10293000C8010E949A048AA5982F990F990B9F931A
:102940008F938DE592E09F938F931F930F930E9437
:102950005716C8010E949A040FB6F894DEBF0FBE46
:10296000CDBF80915604893C08F439CF27CF813000
:1029700009F0C6C00E94F00659CF833061F0843060
:1029800009F0BEC00E94460551CF83E080936D04DC
:102990000E94DA064BCF80915D0487FF47CF80917C
:1029A00062041F928F93809161041F928F93809194
:1029B00060048F9380915F048F93A1EAB1E0BF938D
:1029C000AF931F930F930E9457160FB6F894DEBF74
:1029D0000FBECDBFD12C8D2D90E020915D042F70C6
:1029E00030E082179307C4F4FC01E35AFB4F868161
:1029F0001F928F935F924F92FF92EF920E94571611
:102A0000B701C8010E942B16D3940F900F900F901E
:102A10000F900F900F90DFCFC8010E949A040E9480
:102A2000F20785EB91E00E949A0480915F049091F7
:102A30006004892B09F4FACE52EB352E832D0E94C7
:102A4000D6016C018BEB91E00E949A04C7FE52C044
:102A500083ED91E00E949A04C6FE03C0C4FC0DC041
:102A600015C080906204912C8FEF830D0E94D601D7
:102A70008816990609F03EC0F1CF80906404912C2D
:102A800081E40E94D60188169906A1F582E0830DA3
:102A90000E94D6013C0181E0830D0E94D6014C01C9
:102AA00084E0830D0E94D601282E83E0830D0E94CE
:102AB000D601960121703327322F2227260D371D8C
:102AC00040915F04509160042427352792E0C92289
:102AD000DD24DC2CCC24C80CD91C2C213D21232B3B
:102AE00049F4909161049225982321F485E0830DA7
:102AF0000E94D601A8E03A0EB2EC3B129FCF96CED0
:102B000010926D0493CE8E3F19F48DE392E0D5CEF2
:102B1000F80180E090E02191D601A80FB91F2C9315
:102B2000019688309105B9F7F8E0CF0ED11CB3CEED
:102B3000A29FB001B39FC001A39F700D811D1124FE
:102B4000911DB29F700D811D1124911D0895991B37
:102B500079E004C0991F961708F0961B881F7A9594
:102B6000C9F78095089597FB072E16F4009407D0B7
:102B700077FD09D00E94EC1507FC05D03EF4909536
:102B800081959F4F0895709561957F4F0895052E0B
:102B900097FB1EF400940E94DE1557FD07D00E949B
:102BA000001607FC03D04EF40C94DE1550954095AA
:102BB000309521953F4F4F4F5F4F089590958095E9
:102BC000709561957F4F8F4F9F4F0895EE0FFF1FB8
:102BD0000590F491E02D0994AA1BBB1B51E107C09D
:102BE000AA1FBB1FA617B70710F0A61BB70B881F9D
:102BF000991F5A95A9F780959095BC01CD0108952C
:102C0000A1E21A2EAA1BBB1BFD010DC0AA1FBB1FF0
:102C1000EE1FFF1FA217B307E407F50720F0A21B62
:102C2000B30BE40BF50B661F771F881F991F1A94CF
:102C300069F760957095809590959B01AC01BD01F9
:102C4000CF010895FB01DC0102C001900D924150BB
:102C50005040D8F70895FB01DC010D900020E9F702
:102C6000119701900D920020E1F70895FB019F015B
:102C7000E8944230C4F04532B4F44A3029F497FB6A
:102C80001EF4909581959F4F642F77270E94EC1535
:102C9000805D8A330CF0895D8193CB010097A1F7A9
:102CA00016F45DE251931082C9010C946118AEE0F4
:102CB000B0E0EDE5F6E10C940F190D891E8986E070
:102CC0008C831A8309838FEF9FE79E838D83AE01E8
:102CD000475E5F4F6F89788DCE0101960E9479160D
:102CE000EF81F885E00FF11F10822E96E4E00C943E
:102CF0002B19ACE0B0E0EFE7F6E10C9401197C0190
:102D00006B018A01FC0117821682838181FFBDC19C
:102D1000CE0101964C01F7019381F60193FD859157
:102D200093FF81916F01882309F4ABC1853239F497
:102D300093FD859193FF81916F01853229F4B7014D
:102D400090E00E947118E7CF512C312C20E0203206
:102D5000A0F48B3269F030F4803259F0833269F498
:102D600020612CC08D3239F0803339F4216026C0C7
:102D70002260246023C0286021C027FD27C030EDD9
:102D8000380F3A3078F426FF06C0FAE05F9E300D27
:102D90001124532E13C08AE0389E300D1124332E97
:102DA00020620CC08E3221F426FD6BC1206406C067
:102DB0008C3611F4206802C0883641F4F60193FD88
:102DC000859193FF81916F018111C1CF982F9F7DD4
:102DD0009554933028F40C5F1F4FFFE3F9830DC027
:102DE000833631F0833771F0833509F05BC022C040
:102DF000F801808189830E5F1F4F44244394512C36
:102E0000540115C03801F2E06F0E711CF801A0806A
:102E1000B18026FF03C0652D70E002C06FEF7FEF29
:102E2000C5012C870E9456182C0183012C852F7711
:102E3000222E17C03801F2E06F0E711CF801A0803D
:102E4000B18026FF03C0652D70E002C06FEF7FEFF9
:102E5000C5012C870E944B182C012C852068222E3E
:102E6000830123FC1BC0832D90E048165906B0F463
:102E7000B70180E290E00E9471183A94F4CFF50116
:102E800027FC859127FE81915F01B70190E00E94A8
:102E9000711831103A94F1E04F1A5108411451045D
:102EA00071F7E5C0843611F0893639F5F80127FF4E
:102EB00007C060817181828193810C5F1F4F08C0C0
:102EC00060817181882777FD8095982F0E5F1F4F55
:102ED0002F76B22E97FF09C09095809570956195D9
:102EE0007F4F8F4F9F4F2068B22E2AE030E0A40121
:102EF0000E94A318A82EA81844C0853729F42F7E55
:102F0000B22E2AE030E025C0F22FF97FBF2E8F3697
:102F1000C1F018F4883579F0B4C0803719F08837DB
:102F200021F0AFC02F2F2061B22EB4FE0DC08B2D2B
:102F30008460B82E09C024FF0AC09F2F9660B92E66
:102F400006C028E030E005C020E130E002C020E10A
:102F500032E0F801B7FE07C0608171818281938100
:102F60000C5F1F4F06C06081718180E090E00E5FB2
:102F70001F4FA4010E94A318A82EA818FB2DFF77AD
:102F8000BF2EB6FE0BC02B2D2E7FA51450F4B4FE21
:102F90000AC0B2FC08C02B2D2E7E05C07A2C2B2D2A
:102FA00003C07A2C01C0752C24FF0DC0FE01EA0D70
:102FB000F11D8081803311F4297E09C022FF06C0F3
:102FC0007394739404C0822F867809F0739423FD60
:102FD00013C020FF06C05A2C731418F4530C571852
:102FE000732C731468F4B70180E290E02C870E9480
:102FF000711873942C85F5CF731410F4371801C031
:10300000312C24FF12C0B70180E390E02C870E948E
:1030100071182C8522FF17C021FF03C088E590E0BE
:1030200002C088E790E0B7010CC0822F867859F083
:1030300021FD02C080E201C08BE227FD8DE2B701D5
:1030400090E00E947118A51438F4B70180E390E075
:103050000E9471185A94F7CFAA94F401EA0DF11D59
:103060008081B70190E00E947118A110F5CF332044
:1030700009F451CEB70180E290E00E9471183A94B1
:10308000F6CFF7018681978102C08FEF9FEF2C96D4
:10309000E2E10C941D19FC01059061507040011093
:1030A000D8F7809590958E0F9F1F0895FC01615071
:1030B000704001900110D8F7809590958E0F9F1F5A
:1030C0000895DC01FC01672F71917723E1F73297B6
:1030D00004C07C916D9370836291AE17BF07C8F3F3
:1030E00008950F931F93CF93DF93182F092FEB01B0
:1030F0008B8181FD03C08FEF9FEF20C082FF10C046
:103100004E815F812C813D81421753077CF4E88119
:10311000F9819F012F5F3F4F39832883108306C0B9
:10312000E885F985812F0995892B29F72E813F8123
:103130002F5F3F4F3F832E83812F902FDF91CF91C1
:103140001F910F910895FA01AA27283051F12031DB
:1031500081F1E8946F936E7F6E5F7F4F8F4F9F4F2B
:10316000AF4FB1E03ED0B4E03CD0670F781F891F6D
:103170009A1FA11D680F791F8A1F911DA11D6A0F3B
:10318000711D811D911DA11D20D009F468943F91EE
:103190002AE0269F11243019305D3193DEF6CF01ED
:1031A0000895462F4770405D4193B3E00FD0C9F7B3
:1031B000F6CF462F4F70405D4A3318F0495D31FD20
:1031C0004052419302D0A9F7EACFB4E0A695979573
:1031D000879577956795BA95C9F700976105710549
:1031E00008959B01AC010A2E069457954795379593
:1031F0002795BA95C9F7620F731F841F951FA01DED
:1032000008952F923F924F925F926F927F928F928A
:103210009F92AF92BF92CF92DF92EF92FF920F9365
:103220001F93CF93DF93CDB7DEB7CA1BDB0B0FB66F
:10323000F894DEBF0FBECDBF09942A88398848882C
:103240005F846E847D848C849B84AA84B984C884C2
:10325000DF80EE80FD800C811B81AA81B981CE0FB9
:10326000D11D0FB6F894DEBF0FBECDBFED0108959E
:04327000F894FFCF00
:10327400FF00000000000000006C6C6A6D2F6D649C
:10328400662F74656D705F6174393063616E3332BB
:103294002E786D6C000000000000000000000000AB
:1032A400000403020174783A20253033782F253046
:1032B40032782F253032782F002F2530327800468F
:1032C40061696C656420746F206F70656E2063683B
:1032D400616E6E656C21210A00565343502041549F
:1032E400393043414E33320A0054656D7065726162
:1032F400747572652073656E736F720A004E6F6425
:103304006520696E697469616C697A6174696F6E4C
:103314000072783A20253033782F253032782F25E3
:103324003032782F00646F444D0A0064656275671B
:103334002020646F444D20636865636B20726F774F
:10334400730A0064656275672020646F444D2072BF
:103354006F7720656E61626C65640A0042757474EF
:103364006F6E205072657373656421004D656173DF
:103374007572696E672074656D70657261747572BB
:10338400652E0A005363616E6E696E672042757321
:1033940020666F722044533138583230004E6F200B
:1033A40053656E736F7220666F756E640042757339
:1033B400204572726F7200693A2025690064656362
:1033C4006963656C736975733A2025690064656384
:1033D4006963656C73697573203E3E20383A202515
:1033E400690046433A004352433A00534E3A2000A0
:1033F400283138532900283138422900283232290B
:103404000028203F20290020435243204641494CB4
:10341400200020435243204F2E4B2E200044533192
:10342400385832305F73746172745F6D6561733ADA
:103434002053686F72742043697263756974210D37
:10344400004E6F2053656E736F7220666F756E64E5
:103454000D00427573204572726F720D0053503A1D
:103464000020545F7261773D005332302F303900B1
:103474004232302F3132004232302F31310020427B
:1034840032302F313020004232302F3039002E00BC
:10349400C2B043002A20494E56414C4944202A00D8
:1034A40020636F6E763A20002064656369C2B0437E
:1034B400200020666D743A200020C2B043200044EE
:1034C4005331385832305F77726974655F73637251
:1034D400617463687061643A2053686F7274204346
:1034E400697263756974210D004453313858323060
:1034F4005F726561645F7363726174636870616451
:103504003A2053686F727420436972637569742139
:103514000D00445331385832305F636F70795F73F4
:103524006372617463687061643A2053686F727483
:103534002043697263756974210D0044533138580E
:1035440032305F726563616C6C5F45323A20746936
:103554006D656F7574210D00445331385832305FF6
:10356400726563616C6C5F45323A2053686F7274A4
:0C3574002043697263756974210D00002A
:00000001FF
