:100000000C9470000C948D000C948D000C948D0059
:100010000C948D000C948D000C948D000C948D002C
:100020000C948D000C948D000C948D000C948D001C
:100030000C948D000C948D000C948D000C948D000C
:100040000C9491000C948D000C948D000C948D00F8
:100050000C948D000C948D000C948D000C948D00EC
:100060000C948D000C948D000C948D000C948D00DC
:100070000C948D000C948D000C948D000C948D00CC
:100080000C948D000C948D000C948D000C948D00BC
:100090000C948D00FA070B08760B760B760B1C0878
:1000A000760B2D083E08760B67088708760B760BD3
:1000B000760B760B760B760B760B760B760B760B38
:1000C000E0088909CE09760B760B760B090A150A2A
:1000D000260A760B920A760B760B760BAA0A160B7B
:1000E00011241FBECFEFD8E0DEBFCDBF12E0A0E0ED
:1000F000B1E0E8E6FDE202C005900D92A03BB10739
:10010000D9F712E0A0EBB2E001C01D92A13FB10708
:10011000E1F70E946B110C94B2160C940000089544
:1001200008951F920F920FB60F9211248F939F93F1
:100130008091EE029091EF0201969093EF028093EE
:10014000EE028091C0029091C10201969093C1028B
:100150008093C002009906C08091D2028F5F809385
:10016000D20202C01092D2028091D3028F5F80939C
:10017000D3028091D402823049F48091D302853633
:1001800070F085B191E0892785B907C0813011F4FD
:10019000289803C0811103C0289A1092D3029F911E
:1001A0008F910F900FBE0F901F9018952F923F9236
:1001B0004F925F926F927F928F929F92AF92BF9277
:1001C000CF92DF92EF92FF920F931F93CF93DF9323
:1001D000CDB7DEB7AF970FB6F894DEBF0FBECDBF79
:1001E0003C01362E142F222E1F924F931F926F9395
:1001F0007F928F9385E391E09F938F93CE01019639
:100200004C019F928F930E94D1132E2D0FB6F8941C
:10021000DEBF0FBECDBF6701CE0181965C0149E410
:10022000442E41E0542E8C2D821B8017C0F4F60121
:1002300081916F011F928F935F924F92BF92AF9205
:100240002FA70E94D113B501C4010E94A5130F90DE
:100250000F900F900F900F900F902FA5E4CFC40137
:100260000E949304C301A0E0B0E0BC0155274427DD
:10027000822D90E0A0E0B0E03AE1880F991FAA1F1C
:10028000BB1F3A95D1F7482B592B6A2B7B2B53294F
:10029000412B49A35AA36BA37CA381E08EA30DA39A
:1002A000002339F0402F50E0B701CE0187960E941D
:1002B0009C13C5010E945F0321E0892B09F020E017
:1002C000822FAF960FB6F894DEBF0FBECDBFDF9181
:1002D000CF911F910F91FF90EF90DF90CF90BF9043
:1002E000AF909F908F907F906F905F904F903F90D6
:1002F0002F9008956F927F928F929F92AF92BF92AC
:10030000CF92DF92EF92FF920F931F93CF93DF93E1
:10031000CDB7DEB72E970FB6F894DEBF0FBECDBFB8
:100320006C014B013A015901CE0101960E94DE0396
:10033000892B21F589819A81AB81BC81F30180836E
:10034000F40190839D013170F601318320832AE10D
:10035000B695A795979587952A95D1F78770F5015A
:1003600080834D81F8014083442351F050E0BE0169
:10037000695F7F4FC7010E949C1302C080E001C0EB
:1003800081E02E960FB6F894DEBF0FBECDBFDF9191
:10039000CF911F910F91FF90EF90DF90CF90BF9082
:1003A000AF909F908F907F906F900895F999FECFB6
:1003B00090E092BD81BDF89A80B590E00895F999DA
:1003C000FECF90E092BD81BD60BDFA9AF99A81E0BE
:1003D00090E00895882361F0813011F482E405C033
:1003E00090E9980F903130F48F5B0E94D601089508
:1003F00080E208958FEF0895CF93811105C081E4C5
:100400000E94DF0181E406C0813039F482E40E9459
:10041000DF0182E40E94D6010DC090E9980F90316F
:1004200038F4C1E4C80F8C2F0E94DF018C2FF2CF6B
:10043000862F8095CF91089581E00E94D60108957E
:10044000682F81E00C94DF0181E10E94D6010895BC
:1004500082E10E94D60108950895089580E00895EC
:1004600080E0089581E00895E82FF0E0EB5DFE4F15
:10047000808108950895E82FF0E0E75FFE4F8081C6
:1004800008958C5F0E94D60108958C5F0C94DF0163
:10049000875F0E94D6010895875F0C94DF0180E199
:1004A000089588E0089581E0089581E00E94D601D2
:1004B0000895682F81E00C94DF0182E00E94D6014C
:1004C0000895682F82E00C94DF01682F83E00C947C
:1004D000DF0183E00E94D601089560E070E0CB0167
:1004E000089560E070E0CB0108950895FC0182E07A
:1004F000808380E7818312821382148215821682A0
:1005000087EB91E00C949304CF93C82F83E0809302
:10051000C30283E88093C20270E07093C5026093C7
:10052000C4024093C602C093C70281E40E94D60170
:100530008093C80281E48C0F0E94D6018093C90287
:10054000CF910C949C06EF920F931F938093C3025C
:1005500083E88093C20210E01093C5020093C402A6
:10056000E092C6022093C7026093C8024093C9027A
:100570001F910F91EF900C949C068295807F809341
:10058000ED001092EE001092EF001092F000109229
:10059000F1001092F2001092F3001092F400109209
:1005A000F5001092F6001092F70088E01092FA0021
:1005B0008150E1F70895CF93C0E08C2F0E94BD02D7
:1005C000CF5FCF30D1F7CF9108958091ED0021E03A
:1005D00030E0922F9295907F9093ED009091EF00F4
:1005E000907C31F09091EE0096FF06C01092ED00E5
:1005F0008093ED00C90108952F5F3F4F2F303105E3
:1006000041F78093ED008FEF9FEF0895843021F143
:1006100060F4813079F1C0F08230D1F0833009F09C
:1006200043C028E14EE062E128C08730E9F038F4A9
:100630008530B1F08630C1F528E14EE017C0883032
:10064000B9F08F3FD1F030C028E14EE066EC15C024
:1006500028E14EE064E211C028E14EE06EE00DC0FA
:1006600028E14EE066E009C026E144E062E005C012
:1006700022E1FBCF28E14EE062E66093E200409386
:10068000E3002093E4000E94DB021092ED008091D1
:10069000EF0080688093EF008091D80082608093A3
:1006A000D80080E090E008958DEF9FEF0895E8ED89
:1006B000F0E080818D7F808380E090E00895CF938B
:1006C000DF93EC010E94E5028F3F2FEF920709F4C0
:1006D00070C0982F9295907F9093ED000E94BD027C
:1006E0009D818C818F7090FF32C0805F8093EF007E
:1006F0009D818881880F880F880F92FD8460809388
:10070000F000488159816A817B8195E076956795F3
:10071000579547959A95D1F74093F10048815981B3
:100720006A817B812DE076956795579547952A9547
:10073000D1F74093F200488159816A817B8135E18C
:1007400076956795579547953A95D1F719C0809357
:10075000EF008D8181FF03C084E08093F0008881E9
:100760008295880F807E8093F200488159816A814A
:100770007B8183E076956795579547958A95D1F764
:100780004093F30080E090E02C8130E082179307E3
:1007900044F4FE01E80FF91F26812093FA00019628
:1007A000F3CF8091EF0080648093EF0080E090E0D1
:1007B00002C08FEF9FEFDF91CF910895CF92DF922C
:1007C000EF92FF920F931F93FC011092ED00809126
:1007D000EE0085FF7AC01582108211821282138288
:1007E00014828091F00082FF02C082E085838091B4
:1007F000EF0084FF39C0858181608583C090F3005C
:100800004091F2000091F1008091F00050E060E032
:1008100070E09DE0440F551F661F771F9A95D1F732
:10082000D12CE12CF12C25E1CC0CDD1CEE1CFF1CA5
:100830002A95D1F74C0D5D1D6E1D7F1D10E020E047
:1008400030E0A5E0000F111F221F331FAA95D1F73A
:10085000400F511F621F731F869586958695480F1E
:10086000511D611D711D11C08091F3004091F20076
:1008700042954695477050E098E0899F400D511D84
:100880001124662757FD6095762F4083518362833C
:1008900073832091EF002F70248380E090E0821713
:1008A00048F43091FA00DF01A80FB91F16963C9367
:1008B0000196F5CF80E00E94BD028091EF00806834
:1008C0008093EF0080E090E002C08EEF9FEF1F91D9
:1008D0000F91FF90EF90DF90CF9008958091D90015
:1008E00090E008951092ED008093F3006093F20081
:1008F0004093F1002093F00080E090E00895109282
:10090000ED008093F7006093F6004093F50020938C
:10091000F40080E090E008959091C80095FFFCCF2E
:100920008093CE0008951F93CF93DF93EC0119912C
:10093000112349F01A3019F48DE00E948C04812FA4
:100940000E948C04F4CF8DE00E948C048AE0DF9139
:10095000CF911F910C948C04CF93DF93CDB7DEB76A
:100960002A970FB6F894DEBF0FBECDBF4AE050E025
:10097000BE016F5F7F4F0E94B0130E9493042A96BE
:100980000FB6F894DEBF0FBECDBFDF91CF910895B3
:100990008F708A3010F0895C01C0805D0C948C04EB
:1009A000CF93C82F82958F700E94C8048C2FCF914F
:1009B0000C94C80482E08093D4020E941C0281112E
:1009C00001C08FEF8093EB021092D9021092DA02ED
:1009D0001092DC021092DB021092DD021092C20231
:1009E0001092C3021092C5021092C4021092C60265
:1009F0001092D6021092EA021092D0021092E902EE
:100A00001092CF021092F0021092ED021092EC02BE
:100A10001092EF021092EE021092D8021092D702BA
:100A20001092E8021092D1021092D50208950E940D
:100A30005D02807C803459F08FEF0E94200280E0BC
:100A40000E94610280EA0E94650280E0089581E0D0
:100A500008951092D40208958091D90287FF1BC097
:100A60008091DB029091DC02892B19F58091DD02E7
:100A70008630F9F48091DF028F3FD9F48091E00253
:100A80008093EB020E94200280E40E94610283E0D6
:100A90008093E90208958091EE029091EF02893EE1
:100AA000934038F08FEF8093EB020E9420020C9469
:100AB000DA0408950E945D02811117C08091D90265
:100AC0008F708530B1F40E945D029091DF0289172A
:100AD00081F0892F0E9461028FEF8093EB020E94C8
:100AE000200281E08093E90208958091DF020C9456
:100AF000610208958091D9028F70823079F49091CB
:100B0000EB028091DF02981309C08091E00280938C
:100B1000EB020E94200280E40C946102089580910F
:100B2000D9028F7099F02091EB029091DF02291386
:100B30000DC0813021F08091E002811107C08FEF5C
:100B40008093EB020E9420020C94DA04089580380E
:100B500029F48091EA021092EA020895813809F49A
:100B600043C0823809F442C0833809F441C0843953
:100B700011F40C942E02853911F40C94300286394C
:100B800011F40C943202893818F484580C94410200
:100B900097E7980F983018F4892F0C944802813900
:100BA00019F48091EB020895833919F48091EC02D5
:100BB0000895823919F48091ED020895873911F46E
:100BC0000C944F02883911F40C945102893911F4B4
:100BD0000C94530290E3980F903118F4892F0C94E1
:100BE0003402805E0C943B0281E0089585E0089514
:100BF00080E0089587FD0C94A7050C94EA01CF933B
:100C0000E62F6095CCE7C80FC53040F46E2F8C2FCF
:100C10000E9445028C2FCF910C944102823969F4D5
:100C20006E2F70E0762F66278091EC02682B709310
:100C3000ED026093EC02672F77C0833959F460911D
:100C4000EC027091ED0266276E2B7093ED026093BB
:100C5000EC026AC0C7E7C80FC830A8F48091EC0264
:100C60009091ED02492F50E04F3F510509F05CC0D3
:100C70008F3F09F059C06E2F8C2F0E944C028C2F91
:100C8000CF910C944802C0E3C80FC031A8F4809102
:100C9000EC029091ED02292F30E02F3F310509F051
:100CA00043C08F3F09F040C06E2F8C2F0E943A0244
:100CB0008C2FCF910C943402C6E6C80FC43018F4C0
:100CC0000E946D0206C0C2E6C80FC430A8F40E949C
:100CD000710223E030E02C1B310943E0220F331F67
:100CE0004A95E1F7287F332704C096958795779535
:100CF00067952A95D2F718C0823AB1F4E53531F4F8
:100D00001092D8021092D70265E50EC0EA3A61F45B
:100D10008091D7029091D802883E934020F40E949F
:100D200075026AEA01C060E0862FCF91089587FDC1
:100D30000C94FF050C94FC01EF92FF920F9300912D
:100D4000C2020F7087ECE82E82E0F82E2091C302D9
:100D50004091EB026091C6028091C4029091C5025D
:100D60000E94D600811105C09091D6029F5F90939A
:100D7000D6020F91FF90EF90089581E88093C20210
:100D80001092C3021092C5021092C40282E08093B6
:100D9000C6028091EB028093C7020E949C0681E00C
:100DA0008093D40208952091CF02213091F120F058
:100DB000223009F480C07DC08091D0028F3FA1F025
:100DC00091E89093C2021092C3021092C502109251
:100DD000C40292E09093C6028093C7020E949C06D0
:100DE00081E08093CF022CC094E09093E90291E8D7
:100DF0009093C2028093C70287E08093C30210924F
:100E0000C5021092C40283E08093C6020E949C0631
:100E100052C08091D90287FF1EC08091DB02909161
:100E2000DC02892B09F047C08091DD02833009F094
:100E300042C08091D002811108C082E08093E90213
:100E40001092EF021092EE0236C08F5F8093D002B4
:100E50001092CF021AC08091EE029091EF02893E6B
:100E6000934048F18091F0028F5F8093F0028330CD
:100E700000F18091D00281110BC02093D00210921A
:100E8000CF021092EF021092EE021092F00213C005
:100E90008093EB0293E09093E9021092CF020E94BC
:100EA000200280E40E9461021092F0020E94BD06BE
:100EB00002C01092CF021092D902089593E8909345
:100EC000C20297E09093C30224E130E03093C50260
:100ED0002093C40299E09093C6021092C7028093B7
:100EE000C8026093C9020C949C06CF93DF931F92B3
:100EF000CDB7DEB78091E8028F5F8C3318F4809312
:100F0000E80213C01092E8028091D1028F5F8093B3
:100F1000D1028091E902833041F40E942802898342
:100F20000E94240269810E945E078091D1028C3365
:100F300038F01092D1028091D5028F5F8093D50254
:100F40008091D502883110F01092D5028091E9028B
:100F5000833069F42091E7022F5F822F8F7090E039
:100F600002971CF42093E70202C01092E7020F9050
:100F7000DF91CF9108958091D9028F708130A1F4D3
:100F80009091EB028091DF0298130EC080E880936D
:100F9000C2021092C3021092C5021092C40283E0F2
:100FA0008093C6020C949C0608956F927F928F9254
:100FB0009F92AF92BF92CF92DF92EF92FF920F93E8
:100FC0001F93CF93DF931F92CDB7DEB78091DB02E3
:100FD0009091DC02892B09F089C38091DD0290E0B9
:100FE000FC013197E632F10508F080C3E65BFF4F64
:100FF0000C9460130F90DF91CF911F910F91FF9090
:10100000EF90DF90CF90BF90AF909F908F907F90A8
:101010006F900C945A050F90DF91CF911F910F9113
:10102000FF90EF90DF90CF90BF90AF909F908F9008
:101030007F906F900C94BB070F90DF91CF911F9121
:101040000F91FF90EF90DF90CF90BF90AF909F9067
:101050008F907F906F900C947A050F90DF91CF91D5
:101060001F910F91FF90EF90DF90CF90BF90AF90C6
:101070009F908F907F906F900C948F058091D902F4
:101080008F70823009F032C39091EB028091DF02C1
:1010900098132CC38091E00287FD03C00E94EA01EF
:1010A00002C00E94A7058093C8028091E00280934D
:1010B000C70283E08093C30282E88093C202109249
:1010C000C5021092C4028AE08093C602FEC210914B
:1010D000D9021F70133009F009C39091EB0280917F
:1010E000DF02981303C38091E0026091E10287FD63
:1010F00003C00E94FC0102C00E94FF058093C80249
:101100008091E0028093C7021093C302D5CF9091E3
:10111000EB028091DF02981306C08091E0028930D3
:1011200011F40E942C029091EB028091DF0298133F
:10113000DDC28091E002813009F0D8C280E00E94D7
:1011400034029091E1028913D1C283E00E943402FB
:101150009091E2028913CAC285E00E943402909104
:10116000E3028913C3C287E00E9434029091E40233
:101170008913BCC28091EC029091ED02492F552752
:101180002091E50230E04217530709F0AFC29927DA
:101190002091E60230E08217930709F0A7C20F9072
:1011A000DF91CF911F910F91FF90EF90DF90CF9043
:1011B000BF90AF909F908F907F906F900C942C0277
:1011C0008091DF0282958F70813041F138F082305A
:1011D00009F444C0833009F461C082C080E00E94F9
:1011E00034029091E00289137DC081E00E943402B4
:1011F0009091E102891376C082E00E9434029091BE
:10120000E20289136FC083E00E9434029091E302EE
:10121000891368C08091E70280615FC084E00E940A
:1012200034029091E00289135DC085E00E9434028F
:101230009091E102891356C086E00E943402909199
:10124000E20289134FC087E00E9434029091E302CA
:10125000891348C08091E70280623FC088E00E9405
:1012600034029091E00289133DC089E00E9434026B
:101270009091E102891336C08AE00E943402909175
:10128000E20289132FC08BE00E9434029091E302A6
:10129000891328C08091E70280641FC08CE00E94FF
:1012A00034029091E00289131DC08DE00E94340247
:1012B0009091E102891316C08EE00E943402909151
:1012C000E20289130FC08FE00E9434029091E30282
:1012D000891308C08091E70280688093E70202C00A
:1012E0001092E7028091E702807F803F09F0FEC103
:1012F0000F90DF91CF911F910F91FF90EF90DF90B2
:10130000CF90BF90AF909F908F907F906F900C94F4
:10131000DA049091EB028091DF029813E7C1D0903C
:10132000E002E090E102812C912CF12C07E0C02E2C
:1013300083E0B82E9AE1A92E0E2D10E0015011097C
:10134000882D8E1408F0D2C16C2D0E942113882D97
:101350008D0D99830E94FA059981E92FF0E0EE53F3
:10136000FD4F8683963029F08016910699F49F5F91
:1013700001C097E09F579093C202B092C3021092AF
:10138000C5021092C402A092C602F092C7020E9447
:101390009C06F3948FEF881A980AD2CF9091EB02B3
:1013A0008091DF029813A2C1D090E0029091D902FF
:1013B00092509770B1EEEB2EB2E0FB2E18ECA12EFE
:1013C00012E0B12E8701DA18802F8E19891788F460
:1013D000F80161918F01CA2CCD0C8C2D99830E944C
:1013E00097068C2D0E94FA05F50181935F01998182
:1013F000EBCF83E08093C3021092C5021092C40227
:101400008AE18093C6021092C7029F579093C2024E
:101410005CC19091EB028091DF02981367C18091CB
:10142000E0020E94EA0161E00BC09091EB02809122
:10143000DF0298135BC18091E0020E94EA016FEF26
:10144000680F8091E0020E94FC012DCE8091DF02A6
:101450009091EB02981719F08F3F09F047C183E094
:101460008093C30288E88093C2021092C502109252
:10147000C40280E28093C60200E010E0AFE0EA2EF2
:101480001093C702FE2CF01AF8ECCF2EF2E0DF2EFC
:101490000F5F8F2D0E943402F60181936F0101319D
:1014A00030F0EAECEE2EE2E0FE2E10E00CC0FA94F2
:1014B000FFECCF16F2E0DF0659F70E949C061F5F93
:1014C0001330F1F6EECF812F0E943B02882331F0DA
:1014D000812F0E943B02F701808302C0F701108236
:1014E0001F5FFFEFEF1AFF0A153069F70E949C0695
:1014F00073E0F72EF092C70268ECC62E62E0D62E9B
:1015000000E0802F810F0E943B02F60181936F0162
:101510000F5F0730B1F7195F0E949C06F3941132F8
:1015200049F7E4C09091EB028091DF029813DEC08E
:1015300083E08093C30287E88093C2021092C502C1
:101540001092C40282E28093C60287EC92E00E946D
:101550007602BBC09091EB028091DF029813C6C067
:101560008091D9028F7090E0049724F0A090E3025C
:10157000A11002C0AA24A3940091EC021091ED02E4
:101580003091E0022091E102822F90E0932B909322
:10159000ED028093EC0283E08093C3021092C502B7
:1015A0001092C40287E28093C6021092C702309361
:1015B000C8022093C902B12CEA2CF12C5BECC52E99
:1015C00052E0D52EC7018B19910904971CF49A2C6F
:1015D0009B1802C044E0942E84E8890D8093C202D7
:1015E0008091E2028B0D8093CA023BEC632E32E0C5
:1015F000732E962D9C19991550F48091E2028B0D53
:10160000890F0E94FA05F30181933F01F2CF0E94F6
:101610009C06B90C8091C7028F5F8093C702BA14F1
:1016200088F21093ED020093EC0260C09091EB02FF
:101630008091DF0298135AC00091EC021091ED02E4
:101640008091E00290E0982F88272091E102822B80
:101650009093ED028093EC0283E08093C30280912B
:10166000D9028F7080588093C2021092C5021092E6
:10167000C40287E28093C602F090E2028F2D90E0D0
:101680004091E20250E02091D9022F7030E02450C6
:101690003109240F351F821793079CF46C01C41A7B
:1016A000D50AF4E0CF0ED11CF601E752FD4F66815A
:1016B0008F2D0E949706F601EE53FD4F8583F3941C
:1016C000DDCF1093ED020093EC020F90DF91CF91EC
:1016D0001F910F91FF90EF90DF90CF90BF90AF9050
:1016E0009F908F907F906F900C949C060F90DF914D
:1016F000CF911F910F91FF90EF90DF90CF90BF900F
:10170000AF909F908F907F906F900895EF92FF928F
:101710000F931F938091D90287FD18C08FEDE82E9B
:1017200082E0F82E09ED12E02AED32E04EED52E0B3
:101730006DED72E08BED92E00E947A01882341F01A
:101740009091D90290689093D90203C081E001C0C2
:1017500080E01F910F91FF90EF90089586B1817006
:101760000895409A389A08951F93CF93DF931F925C
:10177000CDB7DEB71FB7F894389A9AE09A95F1F78B
:1017800000C081113898E5E4EA95F1F70000309B3C
:1017900080E0F5EEFA95F1F700003898662321F025
:1017A00089830E94B10B89811FBF95E39A95F1F758
:1017B00000000F90DF91CF911F91089538984098C5
:1017C00008954098389A8FE797E00197F1F700C0A5
:1017D00000009FB7F8943898EFEFF0E03197F1F7F9
:1017E00000C0000086B19FBFEFE7F6E03197F1F748
:1017F00000C00000309B02C08170089581E0089510
:1018000060E081700C94B40BCF93DF93C82FD8E0C5
:101810008C2F81700E94000CC6958111C068D15038
:10182000B9F78C2FDF91CF910895CF93DF93C82F15
:10183000D8E08C2F8170D13011F060E001C061E000
:101840000E94B40BC6958111C068D15091F78C2FBE
:10185000DF91CF910895EF92FF920F931F93CF9353
:10186000DF93F82EEB01E42E0E94E10B209769F044
:1018700085E50E94040C8E01085F1F4F89910E942C
:10188000040CC017D107D1F703C08CEC0E94040CE4
:101890008F2DEE2041F0DF91CF911F910F91FF909E
:1018A000EF900C94150CDF91CF911F910F91FF9049
:1018B000EF900C94040C8FEF0C94040CDF92EF92D9
:1018C000FF920F931F93CF93DF93E82EEB010E94BB
:1018D000E10B81112FC080EF0E94040CF12C10E469
:1018E00088EFD82ED10E81E00E94000C082F81E0F5
:1018F0000E94000C882319F0002361F01DC0011123
:1019000009C01E1528F0888180FF04C0E11611F07F
:10191000F12E01E0802F0E94000C98819695011114
:101920009068988311501D11DECF21961111D8CFE8
:101930008F2D03C08FEF01C08EEFDF91CF911F91EC
:101940000F91FF90EF90DF90089540E00C942B0CE6
:1019500041E00C942B0CFB01218130E0322F222737
:101960009081292B803171F4A9014E7F63E0440FEF
:10197000551F6A95E1F796812CE030E0291B31096B
:10198000240F351F37FF05C0319521953109A1E09E
:1019900001C0A0E0883211F0823269F4848180763F
:1019A000803231F0803431F0811105C0287F03C0CE
:1019B0002C7F01C02E7FC90144E0969587954A95FA
:1019C000E1F76AE0689FA001699F500D11242F7014
:1019D000332760E872E0269FC001279F900D369F55
:1019E000900D1124A11101C09E5F9C01232F33276C
:1019F00026952695240F351FAA2319F03195219598
:101A00003109C9018A5D9D4F8930974018F080EDFA
:101A100097E00895C9010895CF93FB01418150E0FB
:101A2000542F44279081492B803171F49A012E7FE5
:101A300093E0220F331F9A95E1F796814CE050E036
:101A4000491B5109420F531F57FF05C0519541953E
:101A50005109C1E001C0C0E0883211F0823269F45E
:101A600084818076803231F0803431F0811105C07C
:101A7000487F03C04C7F01C04E7F9A0184E03695B9
:101A800027958A95E1F7A0E1B7E20E9412134F7003
:101A90005527E1E7F2E04E9F90014F9F300D5E9F8A
:101AA000300D1124620F731F811D911DCC2339F05D
:101AB00090958095709561957F4F8F4F9F4FCF91F7
:101AC0000895EF92FF920F931F93CF93DF93162FFA
:101AD000072FF42EBC018EEB0E94A50CE12EC12F26
:101AE000D02F8C2F8E198F1520F40E945B0C8993B8
:101AF000F8CF69E070E0812F902F0E945211882367
:101B000011F083E001C080E0DF91CF911F910F9130
:101B1000FF90EF9008950F931F93CF93DF93EC0105
:101B20008B01B80188810E945E0C888381508D3FB3
:101B300048F4F8018081883239F0803129F082320E
:101B400081F702C081E001C080E0DF91CF911F9159
:101B50000F910895CF93DF93EC010E94E10BBE013A
:101B600084EB0E94A50C81E00E94000CC82F0E940B
:101B7000E10B81E0C11101C080E0DF91CF910895B8
:101B80001F93CF93DF9300D0CDB7DEB7182F6983B3
:101B90007A830E94E10B0E94AE0B69817A818823CF
:101BA00051F084E4113019F00E94A80C02C00E9488
:101BB000A50C80E001C082E00F900F90DF91CF91E3
:101BC0001F91089581E00E94000C91E0811190E046
:101BD000892F0895EF92FF920F931F93CF93DF9376
:101BE000CDB7DEB727970FB6F894DEBF0FBECDBFD7
:101BF0008B01473008F460C09C0129513C4F273FBE
:101C00003A4208F059C097FF06C091958195910915
:101C1000EE24E39401C0E12CF12C6AE070E00E9414
:101C20002D1321E02F0DE1E0F0E0EC0FFD1FEF0D93
:101C3000F11DF7FCFA95805D8083862F972F18168B
:101C4000190614F4F22EE9CF822F992787FD90957B
:101C5000E1E0F0E0EC0FFD1FE80FF91FEE2029F0A6
:101C60003DE2308330E06EE21DC03BE2FACF41E05E
:101C7000430F5FEF520FD801A80FB91FE1E0F0E06A
:101C8000EC0FFD1FE20FF11D27FDFA9520812C932B
:101C9000511106C0F801E40FF11D608342E0430FCB
:101CA000342F252F832F90E027FFE1CFF801E80F95
:101CB000F91F108280E001C081E027960FB6F894EA
:101CC000DEBF0FBECDBFDF91CF911F910F91FF906F
:101CD000EF900895DF92EF92FF920F931F93CF93AF
:101CE000DF93CDB7DEB76B970FB6F894DEBF0FBEAC
:101CF000CDBFDD24DA947E0184E1E80EF11CB7014A
:101D00008D2D0E945E0CD82EEFEF8E1306C086E25A
:101D100092E00E9493048FEF8EC0FEEF8F1306C0F7
:101D200087E392E00E9493048EEF85C08C8988320D
:101D300029F0803119F0823209F076C08EEB0E94D2
:101D4000040C8E01055F1F4F0E945B0CF80181930C
:101D50008F01EE15FF05C1F769E070E0CE010B962B
:101D60000E945211882319F082E492E002C08DE4AF
:101D700092E00E94930488E592E00E94930486E535
:101D800092E00E9493048C89803119F480E692E0FD
:101D900018C0883211F08232B1F48F85982F907676
:101DA000903619F487E692E00CC086FF03C08EE6F9
:101DB00092E007C085FF03C085E792E002C08EE78E
:101DC00092E00E94930486E592E00E949304BE0193
:101DD000655F7F4F8C890E94AB0C8C01803DF7E0E2
:101DE0009F0719F485E892E019C081E992E00E940A
:101DF000930489E992E00E9493044AE0BE016F5F78
:101E00007F4FC8010E94EA0D83EA92E00E9493048A
:101E1000CE0101960E9493048AEA92E00E94930404
:101E200085E392E00E949304D11069CF85E392E0AC
:101E30000E94930480E06B960FB6F894DEBF0FBE4D
:101E4000CDBFDF91CF911F910F91FF90EF90DF9069
:101E50000895DF92EF92FF920F931F93CF93DF933A
:101E6000CDB7DEB729970FB6F894DEBF0FBECDBF52
:101E70008C017B010E94E10B49E0BE016F5F7F4F47
:101E8000C8010E94610DD82E81110AC0BE016F5F8A
:101E90007F4FF80180810E94AB0CF7019183808312
:101EA0008D2D29960FB6F894DEBF0FBECDBFDF9102
:101EB000CF911F910F91FF90EF90DF900895EF92D7
:101EC000FF920F931F93CF93DF93CDB7DEB7299780
:101ED0000FB6F894DEBF0FBECDBFE82E8B0149E0F0
:101EE000BE016F5F7F4F80E090E00E94610DF82E91
:101EF000811109C0BE016F5F7F4F8E2D0E94AB0C18
:101F0000F801918380838F2D29960FB6F894DEBF58
:101F10000FBECDBFDF91CF911F910F91FF90EF903A
:101F20000895DF92EF92FF920F931F93CF93DF9369
:101F3000CDB7DEB729970FB6F894DEBF0FBECDBF81
:101F40008C017B010E94E10B49E0BE016F5F7F4F76
:101F5000C8010E94610DD82E81110CC0BE016F5FB7
:101F60007F4FF80180810E940C0DF701608371831F
:101F7000828393838D2D29960FB6F894DEBF0FBE12
:101F8000CDBFDF91CF911F910F91FF90EF90DF9028
:101F90000895EF92FF920F931F93CF93DF93CDB7E6
:101FA000DEB729970FB6F894DEBF0FBECDBFE82E7F
:101FB0008B0149E0BE016F5F7F4F80E090E00E949F
:101FC000610DF82E81110BC0BE016F5F7F4F8E2D0A
:101FD0000E940C0DF80160837183828393838F2D9F
:101FE00029960FB6F894DEBF0FBECDBFDF91CF911B
:101FF0001F910F91FF90EF900895CF92DF92EF9293
:10200000FF920F931F93CF93DF93CDB7DEB7629705
:102010000FB6F894DEBF0FBECDBF8A012A3008F498
:102020008EC06B017C012FE3C20E22E4D21E2FE092
:10203000E21EF11C2FEBC21628EDD20627EAE206BB
:10204000F10408F07CC097FF0AC0909580957095C8
:1020500061957F4F8F4F9F4FEE24E39401C0E12C99
:10206000F12C2AE030E040E050E00E9441132B8741
:102070003C874D875E876F87788B898B9A8B21E0B1
:102080002F0DE1E0F0E0EC0FFD1FEF0DF11DF7FC6F
:10209000FA95605D60836B857C858D859E851616BF
:1020A00017061806190614F4F22EDBCF822F9FEFC5
:1020B0009F0D923060F422E02F0DE1E0F0E0EC0F94
:1020C000FD1FE80FF11D87FDFA9580E38083822FC5
:1020D000992787FD9095E1E0F0E0EC0FFD1FE80FF8
:1020E000F91FEE2029F03DE2308330E06EE21DC0A2
:1020F0003BE2FACF41E0430F5FEF520FD801A80F48
:10210000B91FE1E0F0E0EC0FFD1FE20FF11D27FD2C
:10211000FA9520812C93533031F4F801E40FF11D2E
:10212000608342E0430F342F252F832F90E027FF59
:10213000E1CFF801E80FF91F108280E001C081E0D3
:1021400062960FB6F894DEBF0FBECDBFDF91CF9180
:102150001F910F91FF90EF90DF90CF900895FF9225
:102160000F931F93CF93DF93EC01162FF42E022FC2
:102170000E94E10B0E94AE0B882399F0BE018EE411
:102180000E94A50C812F0E94040C8F2D0E94040C2C
:102190009881983211F0923231F4802F0E94040C11
:1021A00002C081E001C080E0DF91CF911F910F91CB
:1021B000FF9008950F931F93CF93DF9300D01F924A
:1021C000CDB7DEB78C014B8369837A830E94E10B24
:1021D0000E94AE0B4B8169817A81882351F0C8013E
:1021E0000F900F900F90DF91CF911F910F910C9452
:1021F000610D81E00F900F900F90DF91CF911F91B3
:102200000F9108951F93CF93DF9300D0CDB7DEB722
:10221000182F69837A830E94E10B0E94AE0B6981BB
:102220007A81882399F088E4113019F00E94A80C73
:1022300002C00E94A50C8FE39CE90197F1F700C052
:102240000000113029F00E94DE0B02C082E001C0C4
:1022500080E00F900F90DF91CF911F910895CF9361
:10226000DF93EC010E94E10B0E94AE0B8823A1F0EA
:10227000BE0188EB0E94A50CCEEFCF3F79F081E044
:102280000E94000C9FEF9C0F811102C0C92FF5CF57
:1022900081E0CC2321F002C081E001C080E0DF9129
:1022A000CF910895FC01680F791F80E048E1E6179F
:1022B000F70781F0219198E0322F3827532F517082
:1022C00030FD84278695513009F480682695915019
:1022D00099F7EDCF0895CF93DF93CDB7DEB7A397EE
:1022E0000FB6F894DEBF0FBECDBF8FEF82B911B825
:1022F00084B985B91092C80086E08093CA00109214
:10230000CD0089E18093CC0088E18093C90082E010
:1023100080936E008DE387BD8CE084BD789420E0CF
:1023200040E060E084E00E940603892B21F08FE406
:1023300091E00E94930489E691E00E94930489E76A
:1023400091E00E9493040E941705882391F00E9457
:10235000DA048E010F5F1F4F79E4472E71E0572E8C
:102360006E012FE1C20ED11CE4EDAE2EEEEFBE2EBB
:1023700086C060E081E40E94DF0160E082E40E94A8
:10238000DF0111EB60E0812F0E94DF011F5F113C34
:10239000C9F7DDCF8091E902813069F08FEF80933A
:1023A000EB026FEF81E00E94DF010E94DA048DE80A
:1023B00091E00E9493041092D9020E94860B8091B2
:1023C000C0029091C102893E934058F01092C10220
:1023D0001092C002809100018F5F809300010E94E3
:1023E00075078091E902823009F460C008F053C09B
:1023F00081114BC08091EB028F3F09F054C081E006
:102400008093E90262EBE62E62E0F62E912CF70152
:1024100020813181293C310564F08CEE91E00E94ED
:10242000930443E064E1892D0E948402D701AD92B8
:10243000BC929394B2E0EB0EF11CE7E09E12E7CF62
:10244000809100018630D8F0109200018CEF91E06D
:102450000E9493040E946A0E1F928F9383E192E080
:102460009F938F931F930F930E94D113C8010E94D3
:1024700093040F900F900F900F900F900F908091FA
:10248000D202893C08F497CF85CF813009F0C7C0CC
:102490000E94D306B7CF833061F0843009F0BFC00B
:1024A0000E942905AFCFB3E0B093E9020E94BD06B8
:1024B000A9CF8091D90287FFA5CF8091DE021F921C
:1024C0008F938091DD021F928F938091DC028F9316
:1024D0008091DB028F93A1EAB1E0BF93AF931F938A
:1024E0000F930E94D1130FB6F894DEBF0FBECDBF7D
:1024F000F12C8F2D90E02091D9022F7030E08217BF
:102500009307C4F4FC01E752FD4F86811F928F931D
:102510005F924F92DF92CF920E94D113B601C80111
:102520000E94A513F3940F900F900F900F900F90AF
:102530000F90DFCFC8010E9493040E94D50785EB5E
:1025400091E00E9493048091DB029091DC02892B40
:1025500009F458CF52EB352E832D0E94D6017C0111
:102560008BEB91E00E949304E7FE52C083ED91E073
:102570000E949304E6FE03C0E4FC0DC015C08090E9
:10258000DE02912C8FEF830D0E94D60188169906EA
:1025900009F03EC0F1CF8090E002912C81E40E94CE
:1025A000D60188169906A1F582E0830D0E94D60116
:1025B0003C0181E0830D0E94D6014C0184E0830D33
:1025C0000E94D601282E83E0830D0E94D601970138
:1025D00021703327322F2227260D371D6091DB0211
:1025E0007091DC022627372792E0E922FF24FE2C97
:1025F000EE24E80CF91C2E213F21232B49F4909165
:10260000DD029225982321F485E0830D0E94D601F6
:10261000A8E03A0EB2EC3B1609F4F4CE9DCF10922E
:10262000E902F0CEA29FB001B39FC001A39F700D3D
:10263000811D1124911DB29F700D811D1124911DCA
:102640000895991B79E004C0991F961708F0961B0E
:10265000881F7A95C9F78095089597FB072E16F481
:10266000009407D077FD09D00E94661307FC05D0BF
:102670003EF4909581959F4F0895709561957F4F99
:102680000895052E97FB1EF400940E94581357FDE1
:1026900007D00E947A1307FC03D04EF40C94581311
:1026A00050954095309521953F4F4F4F5F4F08957E
:1026B00090958095709561957F4F8F4F9F4F0895AE
:1026C000EE0FFF1F0590F491E02D0994AA1BBB1B90
:1026D00051E107C0AA1FBB1FA617B70710F0A61B22
:1026E000B70B881F991F5A95A9F780959095BC0143
:1026F000CD010895A1E21A2EAA1BBB1BFD010DC03E
:10270000AA1FBB1FEE1FFF1FA217B307E407F507A1
:1027100020F0A21BB30BE40BF50B661F771F881F7D
:10272000991F1A9469F760957095809590959B0113
:10273000AC01BD01CF010895FB01DC0102C0019095
:102740000D9241505040D8F70895FB01DC010D90E7
:102750000020E9F7119701900D920020E1F708950C
:10276000FB019F01E8944230C4F04532B4F44A3092
:1027700029F497FB1EF4909581959F4F642F77273E
:102780000E946613805D8A330CF0895D8193CB01D2
:102790000097A1F716F45DE251931082C9010C94E1
:1027A000DB15AEE0B0E0E7EDF3E10C9489160D899E
:1027B0001E8986E08C831A8309838FEF9FE79E83AF
:1027C0008D83AE01475E5F4F6F89788DCE01019694
:1027D0000E94F313EF81F885E00FF11F10822E960F
:1027E000E4E00C94A516ACE0B0E0E9EFF3E10C9462
:1027F0007B167C016B018A01FC01178216828381A2
:1028000081FFBDC1CE0101964C01F7019381F60114
:1028100093FD859193FF81916F01882309F4ABC1EA
:10282000853239F493FD859193FF81916F01853253
:1028300029F4B70190E00E94EB15E7CF512C312C21
:1028400020E02032A0F48B3269F030F4803259F06D
:10285000833269F420612CC08D3239F0803339F431
:10286000216026C02260246023C0286021C027FD8B
:1028700027C030ED380F3A3078F426FF06C0FAE072
:102880005F9E300D1124532E13C08AE0389E300D08
:102890001124332E20620CC08E3221F426FD6BC130
:1028A000206406C08C3611F4206802C0883641F4DA
:1028B000F60193FD859193FF81916F018111C1CF45
:1028C000982F9F7D9554933028F40C5F1F4FFFE3A2
:1028D000F9830DC0833631F0833771F0833509F009
:1028E0005BC022C0F801808189830E5F1F4F4424A2
:1028F0004394512C540115C03801F2E06F0E711C45
:10290000F801A080B18026FF03C0652D70E002C0F1
:102910006FEF7FEFC5012C870E94D0152C0183013A
:102920002C852F77222E17C03801F2E06F0E711C14
:10293000F801A080B18026FF03C0652D70E002C0C1
:102940006FEF7FEFC5012C870E94C5152C012C85E8
:102950002068222E830123FC1BC0832D90E04816A3
:102960005906B0F4B70180E290E00E94EB153A946A
:10297000F4CFF50127FC859127FE81915F01B70116
:1029800090E00E94EB1531103A94F1E04F1A510893
:102990004114510471F7E5C0843611F0893639F5D8
:1029A000F80127FF07C060817181828193810C5FEC
:1029B0001F4F08C060817181882777FD8095982F0F
:1029C0000E5F1F4F2F76B22E97FF09C0909580950E
:1029D000709561957F4F8F4F9F4F2068B22E2AE0F0
:1029E00030E0A4010E941D16A82EA81844C0853707
:1029F00029F42F7EB22E2AE030E025C0F22FF97F95
:102A0000BF2E8F36C1F018F4883579F0B4C0803706
:102A100019F0883721F0AFC02F2F2061B22EB4FEFD
:102A20000DC08B2D8460B82E09C024FF0AC09F2FD3
:102A30009660B92E06C028E030E005C020E130E005
:102A400002C020E132E0F801B7FE07C06081718169
:102A5000828193810C5F1F4F06C06081718180E08D
:102A600090E00E5F1F4FA4010E941D16A82EA8180B
:102A7000FB2DFF77BF2EB6FE0BC02B2D2E7FA5148E
:102A800050F4B4FE0AC0B2FC08C02B2D2E7E05C047
:102A90007A2C2B2D03C07A2C01C0752C24FF0DC07D
:102AA000FE01EA0DF11D8081803311F4297E09C0F9
:102AB00022FF06C07394739404C0822F867809F0B5
:102AC000739423FD13C020FF06C05A2C731418F40E
:102AD000530C5718732C731468F4B70180E290E01C
:102AE0002C870E94EB1573942C85F5CF731410F48A
:102AF000371801C0312C24FF12C0B70180E390E0E9
:102B00002C870E94EB152C8522FF17C021FF03C0E4
:102B100088E590E002C088E790E0B7010CC0822F02
:102B2000867859F021FD02C080E201C08BE227FDCA
:102B30008DE2B70190E00E94EB15A51438F4B701BF
:102B400080E390E00E94EB155A94F7CFAA94F40129
:102B5000EA0DF11D8081B70190E00E94EB15A110F4
:102B6000F5CF332009F451CEB70180E290E00E9406
:102B7000EB153A94F6CFF7018681978102C08FEF6B
:102B80009FEF2C96E2E10C949716FC0105906150A2
:102B900070400110D8F7809590958E0F9F1F089573
:102BA000FC016150704001900110D8F7809590951C
:102BB0008E0F9F1F0895DC01FC01672F7191772311
:102BC000E1F7329704C07C916D9370836291AE17E8
:102BD000BF07C8F308950F931F93CF93DF93182F68
:102BE000092FEB018B8181FD03C08FEF9FEF20C088
:102BF00082FF10C04E815F812C813D8142175307B7
:102C00007CF4E881F9819F012F5F3F4F398328834E
:102C1000108306C0E885F985812F0995892B29F74E
:102C20002E813F812F5F3F4F3F832E83812F902F37
:102C3000DF91CF911F910F910895FA01AA272830B3
:102C400051F1203181F1E8946F936E7F6E5F7F4F79
:102C50008F4F9F4FAF4FB1E03ED0B4E03CD0670FF5
:102C6000781F891F9A1FA11D680F791F8A1F911D48
:102C7000A11D6A0F711D811D911DA11D20D009F498
:102C800068943F912AE0269F11243019305D3193DA
:102C9000DEF6CF010895462F4770405D4193B3E0C3
:102CA0000FD0C9F7F6CF462F4F70405D4A3318F06A
:102CB000495D31FD4052419302D0A9F7EACFB4E01B
:102CC000A6959795879577956795BA95C9F70097D3
:102CD0006105710508959B01AC010A2E0694579574
:102CE000479537952795BA95C9F7620F731F841FCB
:102CF000951FA01D08952F923F924F925F926F9261
:102D00007F928F929F92AF92BF92CF92DF92EF927B
:102D1000FF920F931F93CF93DF93CDB7DEB7CA1BFC
:102D2000DB0B0FB6F894DEBF0FBECDBF09942A8827
:102D3000398848885F846E847D848C849B84AA84CF
:102D4000B984C884DF80EE80FD800C811B81AA815C
:102D5000B981CE0FD11D0FB6F894DEBF0FBECDBF27
:082D6000ED010895F894FFCF86
:102D6800FF00000000000000006C6C6A6D2F6D64AD
:102D7800662F74656D705F6174393063616E3332CC
:102D88002E786D6C000000000000000000000000BC
:102D9800000403020174783A20253033782F253057
:102DA80032782F253032782F002F253032780046A0
:102DB80061696C656420746F206F70656E2063684C
:102DC800616E6E656C21210A0056534350204154B0
:102DD800393043414E33320A0054656D7065726173
:102DE800747572652073656E736F720A004E6F6436
:102DF8006520696E697469616C697A6174696F6E5E
:102E08000072783A20253033782F253032782F25F4
:102E18003032782F00646F444D0A0064656275672C
:102E28002020646F444D20636865636B20726F7760
:102E3800730A0064656275672020646F444D2072D0
:102E48006F7720656E61626C65640A004275747400
:102E58006F6E205072657373656421004F575F4F22
:102E68004E455F42555320697320646566696E65F7
:102E7800640A00436F6E76657274726573756C745C
:102E8800203D202569004E6F2053656E736F7220B8
:102E9800666F756E640D00427573204572726F72AD
:102EA8000D0020435243204641494C200020435204
:102EB80043204F2E4B2E200020545F7261773D0037
:102EC8005332302F3039004232302F313200423203
:102ED800302F313100204232302F31302000423241
:102EE800302F3039002A20494E56414C4944202A77
:102EF8000020636F6E763A20002064656369C2B073
:102F080043200020666D743A200020C2B0432000A0
:00000001FF
