:020000040000FA
:06000000A2EF3BF012002C
:060008004CEF37F012007E
:06002A000400D277000083
:1000300092010000060000008177000060000000CF
:10004000510000007B7700008C01000006000000DA
:0C0050007477000085010000070000002C
:04005C00D9CFE6FF13
:10006000E1CFD9FF0A0EE12601010851091107E08D
:10007000000E081902E1020E091901E0C4D0DE6A7F
:10008000DD6ADECF00F0DDCF01F0D890015004E64C
:10009000100E005C000E015816E2DFCFE6FF64DBB5
:1000A000E552006EDECFE9FFDDCFEAFF1E0EE92646
:1000B000010EEA22EF50005C01E007D1DF2A010EB9
:1000C00001E3DB2ADED7090E01010A1902E1000E65
:1000D0000B196FE1020E2FC1DBFF030EDB6A040E6A
:1000E000DB6A050EDB6AD950020FE96EDACFEAFF50
:1000F000800EEE5C000EEE58000EEE58000EEE582C
:100100001EE2D950020FE96EDACFEAFFEECFE6FF2A
:10011000EECFE6FFEECFE6FFEFCFE6FF67EC26F08F
:10012000E552E552E552E552006E060E00C0DBFFD7
:10013000070EDB6A080EDB6A090EDB6A26D0D9508F
:10014000020FE96EDACFEAFFEE52FF0EEE26EE2244
:10015000EE22D950020FE96EDACFEAFFEECFE6FFCA
:10016000EECFE6FFEECFE6FFEFCFE6FF97DBE552FF
:10017000E552E552E552006E060E00C0DBFF070EA9
:10018000DB6A080EDB6A090EDB6A0101800E076F6D
:10019000086B020E096F0A0E0A6F0B6B020E1C6FC2
:1001A0001D6BDBCF1EF1060EDBCF1FF16FEC22F0D3
:1001B00029D00B0E0A1902E1000E0B1901E122D021
:1001C000210E0A1902E1000E0B1916E1800E076FCD
:1001D000170E1C6F1D6B086B096B220E0A6F0B6BE1
:1001E000100E2E6F2F6F306B316B326B336B346BA5
:1001F0006FEC22F06AD006D0210E0A1902E1000E3F
:100200000B1900E160D0010E081902E1000E091976
:1002100006E0010E081902E1020E091901E153D0AE
:100220000A0E081902E1000E091906E00A0E081963
:1002300002E1020E091901E146D0140E081902E18B
:10024000000E091906E0140E081902E1020E091940
:1002500001E139D01E0E081902E1000E091906E06D
:100260001E0E081902E1020E091901E12CD0000E40
:10027000081902E1040E091926E1100EE66EE66A7D
:100280001E0EE66E010EE66E680EE66E070EE66E58
:1002900095EC39F0006E060EE15E0050000901E1B8
:1002A00014D0010E01010A1902E1000E0B1903E13D
:1002B00077EC22F008D0020E0A1902E1000E0B19A9
:1002C00002E196EC24F05BEC16F00A0EE15C02E22F
:1002D000E16AE552E16EE552E7CFD9FF1200010174
:1002E00086510101825D006E00C0E6FF3A0EE66EA7
:1002F000E66A6CEC2FF0E552E552E552E7CF00F0EC
:10030000D88000540DE282C186F1390EE66EE66AAD
:100310006CEC2FF0E552E552400B01E0EAD8BBD07F
:10032000010187510101825D006E00C0E6FF3A0EB7
:10033000E66EE66A6CEC2FF0E552E552E552E7CF47
:1003400000F0D88000540DE282C187F1390EE66ECC
:10035000E66A6CEC2FF0E552E552800B01E0DCD848
:100360009AD0010188510101825D006E00C0E6FF54
:100370003A0EE66EE66A6CEC2FF0E552E552E55275
:10038000E7CF00F0D88000540FE282C188F13B0E25
:10039000E66EE66A6CEC2FF0E552E552010B03E0E5
:1003A000E66ACFD8E55277D0010189510101825D1B
:1003B000006E00C0E6FF3A0EE66EE66A6CEC2FF0C7
:1003C000E552E552E552E7CF00F0D880005410E244
:1003D00082C189F13B0EE66EE66A6CEC2FF0E552C5
:1003E000E552020B04E0010EE66EABD8E55253D0A5
:1003F00001018A510101825D006E00C0E6FF3A0EE4
:10040000E66EE66A6CEC2FF0E552E552E552E7CF76
:1004100000F0D880005410E282C18AF13B0EE66EF3
:10042000E66A6CEC2FF0E552E552040B04E0020E94
:10043000E66E87D8E5522FD001018B510101825D14
:10044000006E00C0E6FF3A0EE66EE66A6CEC2FF036
:10045000E552E552E552E7CF00F0D880005410E2B3
:1004600082C18BF13B0EE66EE66A6CEC2FF0E55232
:10047000E552080B04E0030EE66E63D8E5520BD09C
:10048000010185510101825D006E3C0E005C03E3B9
:1004900082C185F101D81200D9CFE6FFE1CFD9FFA3
:1004A000E6520101800E076F030E1C6F1D6B140EC8
:1004B000086F020E096F090E0A6F0B6B1E6B370E69
:1004C000E66EE66A6CEC2FF0E552E55201011F6F13
:1004D000380EE66EE66A6CEC2FF0E552E552E00B62
:1004E0000101206F6FEC22F0E552E552E7CFD9FF12
:1004F00012000101800E076F020E1C6F1D6B0F0EA4
:10050000086F020E096F010E0A6F0B6B020E1E6F51
:1005100081CF1FF16FEF22F00101800E076F020EF5
:100520001C6F1D6B0F0E086F020E096F010E0A6F14
:100530000B6B020E1E6F47EC18F001011F6F6FEF7F
:1005400022F0D9CFE6FFE1CFD9FFFE0EDB50030A40
:100550001EE0010A16E0030A0EE0010A06E0050E9D
:10056000F36EFE0EF3CFDBFF18D0050EF36EFE0E1A
:10057000F3CFDBFF12D0060EF36EFE0EF3CFDBFFE0
:100580000CD0070EF36EFE0EF3CFDBFF06D0080E85
:10059000F36EFE0EF3CFDBFF00D00101800E076F7C
:1005A000030E1C6F1D6B0F0E086F020E096F0A6F92
:1005B0000B6B1E6FFE0EEA6ADB34FE0BEA36E96E49
:1005C000460EE926010EEA22EECF00F0EFCF01F051
:1005D00001C000F0016A00501F6FFE0EEA6ADB34B2
:1005E000FE0BEA36E96E460EE926010EEA22EECF50
:1005F00000F0EFCF01F00050206F6FEC22F0E552D9
:10060000E7CFD9FF1200000E00D01200000E00D07C
:100610001200020E00D01200FF0E00D01200D9CF3F
:10062000E6FFE1CFD9FF100EF36EFE0EDBCFF4FF35
:10063000F350F45C1BE2E20E006E760E016E000ECB
:10064000026EFE0EDBCF03F0046A056A005003243D
:10065000F36E01500420F46E02500520F86EF4CFC2
:10066000F7FFF3CFF6FF0800F55002D0000E00D0E0
:10067000E552E7CFD9FF1200290EE66EE66A6CEC70
:100680002FF0E552E55200D01200D9CFE6FFE1CFBE
:10069000D9FFFE0EDB50A86E290EE66EE66A8CECE2
:1006A0002FF0E552E552E552E7CFD9FF1200D9CF3E
:1006B000E6FFE1CFD9FFFE0EDB502A0FE66EE66AB9
:1006C0006CEC2FF0E552E55200D0E552E7CFD9FFB0
:1006D0001200D9CFE6FFE1CFD9FFFD0EDB50A86EA7
:1006E000FE0EDB502A0FE66EE66A8CEC2FF0E55228
:1006F000E552E552E7CFD9FF1200D9CFE6FFE1CFAF
:10070000D9FFDA0E006E760E016E000E026EFE0E3E
:10071000DBCF03F0046A056A00500324F36E015036
:100720000420F46E02500520F86EF4CFF7FFF3CFEB
:10073000F6FF0800F55000D0E552E7CFD9FF1200D0
:10074000D9CFE6FFE1CFD9FFFD0EDB50A86EFE0E3C
:10075000DB502F0FE66EE66A8CEC2FF0E552E55287
:10076000E552E7CFD9FF1200D9CFE6FFE1CFD9FF9D
:10077000070EF36EFE0EDBCFF4FFF350F45C03E2E2
:10078000FF0E5FD05CD0070E006EFE0EDB50005CEB
:1007900003E1FE0E56D053D0080E006EFE0EDB5065
:1007A000005C03E1000E4DD04AD0090E006EFE0E33
:1007B000DB50005C03E1040E44D041D00A0E006E11
:1007C000FE0EDB50005C03E1A30E3BD038D00B0ED5
:1007D000006EFE0EDB50005C03E1000E32D02FD025
:1007E0000C0E006EFE0EDB50005C03E1000E29D003
:1007F00026D00D0E006EFE0EDB50005C03E1500EA5
:1008000020D01DD00E0E006EFE0EDB50005C09E104
:100810001A0EE66EE66A6CEC2FF0E552E55211D046
:100820000ED00F0E006EFE0EDB50005C08E11B0EBA
:10083000E66EE66A6CEC2FF0E552E55202D0000E4F
:1008400000D0E552E7CFD9FF1200000E00D0120011
:10085000200E00D01200D9CFE6FFE1CFD9FFE20E83
:10086000006E760E016E000E026EFE0EDBCF03F000
:10087000046A056A00500324F36E01500420F46EEC
:1008800002500520F86EF4CFF7FFF3CFF6FF080013
:10089000F55000D0E552E7CFD9FF1200D9CFE6FFDF
:1008A000E1CFD9FF030EE126D950FB0FE96EFF0E11
:1008B000DA20EA6E800EEE5C000EEE58000EEE5866
:1008C000000EEE5802E330EF0CF001010551061165
:1008D00002E025EF0BF0FB0EDBCF16F0FC0EDBCFBA
:1008E00017F0FD0EDBCF18F0FE0EDBCF19F0710E06
:1008F000161805E1175003E1185001E1195002E103
:1009000001EF0BF0720E161805E1175003E11850B5
:1009100001E1195002E101EF0BF0730E161805E129
:10092000175003E1185001E1195002E101EF0BF0FB
:10093000740E161805E1175003E1185001E1195023
:1009400002E101EF0BF0750E161805E1175003E1F7
:10095000185001E1195002E101EF0BF0760E161864
:1009600005E1175003E1185001E1195002E101EFD0
:100970000BF0770E161805E1175003E1185001E14E
:10098000195002E101EF0BF0780E161805E117502F
:1009900003E1185001E1195002E101EF0BF0790E6B
:1009A000161805E1175003E1185001E1195002E152
:1009B00001EF0BF07A0E161805E1175003E11850FD
:1009C00001E1195002E101EF0BF07B0E161805E171
:1009D000175003E1185001E1195002E101EF0BF04B
:1009E0007C0E161805E1175003E1185001E119506B
:1009F00002E101EF0BF07D0E161805E1175003E13F
:100A0000185001E1195002E101EF0BF07E0E1618AB
:100A100005E1175003E1185001E1195002E101EF1F
:100A20000BF07F0E161805E1175003E1185001E195
:100A3000195002E101EF0BF0690E161805E117508D
:100A400003E1185001E1195002E1DFEF0AF06A0EEC
:100A5000161805E1175003E1185001E1195002E1A1
:100A6000DFEF0AF06B0E161805E1175003E118507E
:100A700001E1195002E1DFEF0AF06C0E161805E1F2
:100A8000175003E1185001E1195002E1DFEF0AF0BD
:100A90006D0E161805E1175003E1185001E11950C9
:100AA00002E1DFEF0AF06E0E161805E1175003E1C0
:100AB000185001E1195002E1DFEF0AF06F0E16182D
:100AC00005E1175003E1185001E1195002E1DFEF91
:100AD0000AF0700E161805E1175003E1185001E1F5
:100AE000195002E1DFEF0AF0680E161805E1175001
:100AF00003E1185001E1195002E1D6EF0AF0670E48
:100B0000161805E1175003E1185001E1195002E1F0
:100B1000CDEF0AF0470E161805E1175003E1185003
:100B200001E1195002E1ABEF0AF0480E161805E199
:100B3000175003E1185001E1195002E1ABEF0AF040
:100B4000490E161805E1175003E1185001E119503C
:100B500002E1ABEF0AF04A0E161805E1175003E167
:100B6000185001E1195002E1ABEF0AF04B0E1618D4
:100B700005E1175003E1185001E1195002E1ABEF14
:100B80000AF04C0E161805E1175003E1185001E168
:100B9000195002E1ABEF0AF04D0E161805E117509F
:100BA00003E1185001E1195002E1ABEF0AF04E0EDB
:100BB000161805E1175003E1185001E1195002E140
:100BC000ABEF0AF04F0E161805E1175003E118506D
:100BD00001E1195002E1ABEF0AF0500E161805E1E1
:100BE000175003E1185001E1195002E1ABEF0AF090
:100BF000510E161805E1175003E1185001E1195084
:100C000002E1ABEF0AF0520E161805E1175003E1AE
:100C1000185001E1195002E1ABEF0AF0530E16181B
:100C200005E1175003E1185001E1195002E1ABEF63
:100C30000AF0540E161805E1175003E1185001E1AF
:100C4000195002E1ABEF0AF0550E161805E11750E6
:100C500003E1185001E1195002E1ABEF0AF0560E22
:100C6000161805E1175003E1185001E1195002E18F
:100C7000ABEF0AF0570E161805E1175003E11850B4
:100C800001E1195002E1ABEF0AF0580E161805E128
:100C9000175003E1185001E1195002E1ABEF0AF0DF
:100CA000590E161805E1175003E1185001E11950CB
:100CB00002E1ABEF0AF05A0E161805E1175003E1F6
:100CC000185001E1195002E1ABEF0AF05B0E161863
:100CD00005E1175003E1185001E1195002E1ABEFB3
:100CE0000AF05C0E161805E1175003E1185001E1F7
:100CF000195002E1ABEF0AF05D0E161805E117502E
:100D000003E1185001E1195002E1ABEF0AF05E0E69
:100D1000161805E1175003E1185001E1195002E1DE
:100D2000ABEF0AF05F0E161805E1175003E11850FB
:100D300001E1195002E1ABEF0AF0600E161805E16F
:100D4000175003E1185001E1195002E1ABEF0AF02E
:100D5000610E161805E1175003E1185001E1195012
:100D600001E1F9D3620E161805E1175003E118509E
:100D700001E1195001E1EFD3630E161805E1175098
:100D800003E1185001E1195001E1E5D3640E161892
:100D900005E1175003E1185001E1195001E1DBD3DF
:100DA000650E161805E1175003E1185001E11950BE
:100DB00001E1D1D3660E161805E1175003E1185072
:100DC00001E1195001E1C7D3460E161805E117508D
:100DD00003E1185001E1195001E1B4D3440E161893
:100DE00005E1175003E1185001E1195001E1A1D3C9
:100DF000430E161805E1175003E1185001E1195090
:100E000001E18ED3420E161805E1175003E1185088
:100E100001E1195001E178D3380E161805E1175099
:100E200003E1185001E1195001E16AD3360E16189A
:100E300005E1175003E1185001E1195001E15CD3BD
:100E4000340E161805E1175003E1185001E119504E
:100E500001E14ED3320E161805E1175003E1185088
:100E600001E1195001E140D3300E161805E1175089
:100E700003E1185001E1195001E132D32E0E16188A
:100E800005E1175003E1185001E1195001E124D3A5
:100E90002C0E161805E1175003E1185001E1195006
:100EA00001E116D32A0E161805E1175003E1185078
:100EB00001E1195001E108D3390E161805E1175068
:100EC00003E1185001E1195001E1F8D2370E16186C
:100ED00005E1175003E1185001E1195001E1E8D292
:100EE000350E161805E1175003E1185001E11950AD
:100EF00001E1D8D2330E161805E1175003E118505E
:100F000001E1195001E1C8D2310E161805E1175060
:100F100003E1185001E1195001E1B8D22F0E161863
:100F200005E1175003E1185001E1195001E1A8D281
:100F30002D0E161805E1175003E1185001E1195064
:100F400001E198D22B0E161805E1175003E1185055
:100F500001E1195001E188D21A0E161805E1175067
:100F600003E1185001E1195001E15CD21B0E161883
:100F700005E1175003E1185001E1195001E152D287
:100F80001C0E161805E1175003E1185001E1195025
:100F900001E148D21D0E161805E1175003E1185063
:100FA00001E1195001E13ED21E0E161805E117505D
:100FB00003E1185001E1195001E134D21F0E161857
:100FC00005E1175003E1185001E1195001E12AD25F
:100FD000200E161805E1175003E1185001E11950D1
:100FE00001E120D2210E161805E1175003E1185037
:100FF00001E1195001E116D2220E161805E1175031
:1010000003E1185001E1195001E10CD2230E16182A
:1010100005E1175003E1185001E1195001E102D236
:10102000240E161805E1175003E1185001E119507C
:1010300001E1F8D1250E161805E1175003E118500B
:1010400001E1195001E1EED1260E161805E1175005
:1010500003E1185001E1195001E1E4D1270E1618FF
:1010600005E1175003E1185001E1195001E1DAD10F
:10107000280E161805E1175003E1185001E1195028
:1010800001E1D0D1290E161805E1175003E11850DF
:1010900001E1195001E1C6D1120E161805E11750F1
:1010A00003E1185001E1195001E19AD1130E16180D
:1010B00005E1175003E1185001E1195001E190D109
:1010C000140E161805E1175003E1185001E11950EC
:1010D00001E186D1150E161805E1175003E11850ED
:1010E00001E1195001E17CD1160E161805E11750E7
:1010F00003E1185001E1195001E172D1170E1618E1
:1011000005E1175003E1185001E1195001E168D1E0
:10111000180E161805E1175003E1185001E1195097
:1011200001E15ED1190E161805E1175003E11850C0
:1011300001E1195001E154D10A0E161805E11750CA
:1011400003E1185001E1195001E1DFD00B0E161830
:1011500005E1175003E1185001E1195001E1D5D024
:101160000C0E161805E1175003E1185001E1195053
:1011700001E1CBD00D0E161805E1175003E1185010
:1011800001E1195001E1C1D00E0E161805E117500A
:1011900003E1185001E1195001E1B7D00F0E161804
:1011A00005E1175003E1185001E1195001E1ADD0FC
:1011B000100E161805E1175003E1185001E11950FF
:1011C00001E1A3D0110E161805E1175003E11850E4
:1011D00001E1195001E199D0090E161805E11750E7
:1011E00003E1185001E1195001E186D0080E1618EC
:1011F00005E1175003E1185001E1195074E0070EA2
:10120000161805E1175003E1185001E1195062E08A
:10121000060E161805E1175003E1185001E11950A8
:1012200056E0050E161805E1175003E1185001E1CC
:10123000195049E0040E161805E1175003E1185043
:1012400001E1195037E0030E161805E1175003E1CC
:10125000185001E1195025E0010E161805E117504C
:1012600003E1185001E1195012E0165005E1175042
:1012700003E1185001E1195001E0E5D1370EE66EA7
:10128000E66A6CEC2FF0E552E552DF6EDDD1380EE8
:10129000E66EE66A6CEC2FF0E552E552E00BDF6E8D
:1012A000D3D1390EE66EE66A6CEC2FF0E552E552CA
:1012B000DF6ECAD13A0EE66EE66A6CEC2FF0E552AC
:1012C000E552DF6EC1D147EC18F0DF6EBDD1815021
:1012D000DF6EBAD13B0EE66EE66A6CEC2FF0E5529B
:1012E000E552DF6EB1D13C0EE66EE66A6CEC2FF093
:1012F000E552E552DF6EA8D13D0EE66EE66A6CEC73
:101300002FF0E552E552DF6E9FD1120EE66EE66ACF
:101310006CEC2FF0E552E552E76E010EE7CFDBFFF4
:10132000FB0EDBCF00F0FC0EDBCF01F0FD0EDBCFC0
:1013300002F0FE0EDBCF03F00A0E005E000E015A33
:10134000025A035A3E0E0026000E012202220322F8
:1013500000C0E6FF01C0E6FF6CEC2FF0E552E5525D
:10136000DF6EFB0EDBCF00F0FC0EDBCF01F0FD0EDD
:10137000DBCF02F0FE0EDBCF03F00A0E005E000EA4
:10138000015A025A035A010E00C0E7FFE75204E077
:10139000E846FE0BE706FCE1E81CDF16010EDBCF9A
:1013A000E6FFFB0EDBCF00F0FC0EDBCF01F0FD0E05
:1013B000DBCF02F0FE0EDBCF03F00A0E005E000E64
:1013C000015A025A035A010E00C0E7FFE75204E037
:1013D000E846FE0BE706FCE1E552E714DF1234D1E4
:1013E000FB0EDBCF00F0FC0EDBCF01F0FD0EDBCF00
:1013F00002F0FE0EDBCF03F0120E005E000E015A6B
:10140000025A035A450E0026000E01220222032230
:1014100000C0E6FF01C0E6FF6CEC2FF0E552E5529C
:10142000DF6E12D1FB0EDBCF00F0FC0EDBCF01F044
:10143000FD0EDBCF02F0FE0EDBCF03F01A0E005ED6
:10144000000E015A025A035A4D0E0026000E0122C8
:101450000222032200C0E6FF01C0E6FF6CEC2FF081
:10146000E552E552DF6EF0D051C100F0016A005044
:10147000DF6EEAD053C100F0016A0050DF6EE4D0A5
:1014800055C100F0016A0050DF6EDED057C100F098
:10149000016A0050DF6ED8D04BC100F0016A0050E5
:1014A000DF6ED2D04DC100F0016A0050DF6ECCD0AB
:1014B00047C100F0016A0050DF6EC6D049C100F09C
:1014C000016A0050DF6EC0D001015051DF6EBCD008
:1014D00001015251DF6EB8D001015451DF6EB4D01A
:1014E00001015651DF6EB0D001014A51DF6EACD020
:1014F00001014C51DF6EA8D001014651DF6EA4D02E
:1015000001014851DF6EA0D066EC18F0F3CF00F077
:10151000F4CF01F001C000F0016A0050DF6E94D0FA
:1015200066EC18F0F3CF00F0F4CF01F00050DF6E5E
:101530008BD0080EE66EE66A6CEC2FF0E552E552B1
:10154000DF6E82D0600EE66EE66A6CEC2FF0E5523C
:10155000E552DF6E79D0FB0EDBCF00F0FC0EDBCF67
:1015600001F0FD0EDBCF02F0FE0EDBCF03F0470EE5
:10157000005E000E015A025A035A610E0026000E48
:1015800001220222032200C0E6FF01C0E6FF6CEC4C
:101590002FF0E552E552DF6E57D0810EE66EE66A17
:1015A0006CEC2FF0E552E552DF6E4ED0820EE66E07
:1015B000E66A6CEC2FF0E552E552DF6E45D0FB0E8B
:1015C000DBCF00F0FC0EDBCF01F0FD0EDBCF02F035
:1015D000FE0EDBCF03F0690E005E000E015A025AC8
:1015E000035A830E0026000E01220222032200C0AD
:1015F000E6FF01C0E6FF6CEC2FF0E552E552DF6E2E
:1016000023D0FB0EDBCF00F0FC0EDBCF01F0FD0E94
:10161000DBCF02F0FE0EDBCF03F0710E005E000E9A
:10162000015A025A035A8B0E0026000E0122022292
:10163000032200C0E6FF01C0E6FF6CEC2FF0E5528C
:10164000E552DF6E01D0DF6A0BD1010E051902E110
:10165000000E06191BE1FB0EDBCF00F0FC0EDBCF0A
:1016600001F0FD0EDBCF02F0FE0EDBCF03F0020E29
:101670000126000E0222032200C0E6FF01C0E6FFA1
:101680006CEC2FF0E552E552DF6EEAD0020E051940
:1016900002E1000E06191BE1FB0EDBCF00F0FC0E91
:1016A000DBCF01F0FD0EDBCF02F0FE0EDBCF03F04F
:1016B000030E0126000E0222032200C0E6FF01C035
:1016C000E6FF6CEC2FF0E552E552DF6EC9D0030E59
:1016D000051902E1000E06191BE1FB0EDBCF00F03D
:1016E000FC0EDBCF01F0FD0EDBCF02F0FE0EDBCFF8
:1016F00003F0040E0126000E0222032200C0E6FFC2
:1017000001C0E6FF6CEC2FF0E552E552DF6EA8D089
:10171000040E051902E1000E06191BE1FB0EDBCFDA
:1017200000F0FC0EDBCF01F0FD0EDBCF02F0FE0E71
:10173000DBCF03F0050E0126000E0222032200C0BB
:10174000E6FF01C0E6FF6CEC2FF0E552E552DF6EDC
:1017500087D0D950FB0FE96EFF0EDA20EA6E000E3B
:10176000EE5C040EEE58000EEE58000EEE581EE22F
:10177000FB0EDBCF00F0FC0EDBCF01F0FD0EDBCF6C
:1017800002F0FE0EDBCF03F0020E0126000E022255
:1017900003220106025A035A00C0E6FF01C0E6FF19
:1017A0006CEC2FF0E552E552DF6E5AD0D950FB0FAA
:1017B000E96EFF0EDA20EA6E000EEE5C000EEE58C7
:1017C000010EEE58000EEE5821E3FB0EDBCF00F0C9
:1017D000FC0EDBCF01F0FD0EDBCF02F0FE0EDBCF07
:1017E00003F00050E76E020EE7CFDBFFDBCFE6FF32
:1017F000E66AA00EE66E22EC36F0E552E552E552BE
:10180000ABEC36F0DF6EB3EC36F02AD0D950FB0FDC
:10181000E96EFF0EDA20EA6E000EEE5C000EEE5866
:10182000020EEE58000EEE581AE300680F0E016E1D
:10183000026A036AD950FB0FE96EFF0EDA20EA6EE6
:10184000EE500016EE500116EE500216EE50031642
:1018500000C0E9FF01C0EAFFEFCFDFFF01D0DF6A80
:10186000DF5000D0006E030EE15C02E2E16AE55257
:10187000E16E0050E552E7CFD9FF1200D9CFE6FF65
:10188000E1CFD9FF030EE126D950FB0FE96EFF0E21
:10189000DA20EA6E800EEE5C000EEE58000EEE5876
:1018A000000EEE5802E3AFEF14F0010105510611EE
:1018B00002E01CEF14F0FB0EDBCF16F0FC0EDBCFCA
:1018C00017F0FD0EDBCF18F0FE0EDBCF19F0710E16
:1018D000161805E1175003E1185001E1195002E113
:1018E000D3EF13F0720E161805E1175003E11850EC
:1018F00001E1195002E1D3EF13F0730E161805E160
:10190000175003E1185001E1195002E1D3EF13F031
:10191000740E161805E1175003E1185001E1195033
:1019200002E1D3EF13F0750E161805E1175003E12D
:10193000185001E1195002E1D3EF13F0760E16189A
:1019400005E1175003E1185001E1195002E1D3EF0E
:1019500013F0770E161805E1175003E1185001E156
:10196000195002E1D3EF13F0780E161805E1175065
:1019700003E1185001E1195002E1D3EF13F0790EA1
:10198000161805E1175003E1185001E1195002E162
:10199000D3EF13F07A0E161805E1175003E1185033
:1019A00001E1195002E1D3EF13F07B0E161805E1A7
:1019B000175003E1185001E1195002E1D3EF13F081
:1019C0007C0E161805E1175003E1185001E119507B
:1019D00002E1D3EF13F07D0E161805E1175003E175
:1019E000185001E1195002E1D3EF13F07E0E1618E2
:1019F00005E1175003E1185001E1195002E1D3EF5E
:101A000013F07F0E161805E1175003E1185001E19D
:101A1000195002E1D3EF13F0690E161805E11750C3
:101A200003E1185001E1195002E18EEF13F06A0E44
:101A3000161805E1175003E1185001E1195002E1B1
:101A40008EEF13F06B0E161805E1175003E11850D6
:101A500001E1195002E18EEF13F06C0E161805E14A
:101A6000175003E1185001E1195002E18EEF13F015
:101A70006D0E161805E1175003E1185001E11950D9
:101A800002E18EEF13F06E0E161805E1175003E118
:101A9000185001E1195002E18EEF13F06F0E161885
:101AA00005E1175003E1185001E1195002E18EEFF2
:101AB00013F0700E161805E1175003E1185001E1FC
:101AC000195002E18EEF13F0680E161805E1175059
:101AD00003E1185001E1195002E16FEF13F0670EB6
:101AE000161805E1175003E1185001E1195002E101
:101AF0005CEF13F0470E161805E1175003E118507C
:101B000001E1195002E117EF13F0480E161805E134
:101B1000175003E1185001E1195002E117EF13F0DB
:101B2000490E161805E1175003E1185001E119504C
:101B300002E117EF13F04A0E161805E1175003E102
:101B4000185001E1195002E117EF13F04B0E16186F
:101B500005E1175003E1185001E1195002E117EFB8
:101B600013F04C0E161805E1175003E1185001E16F
:101B7000195002E117EF13F04D0E161805E117503A
:101B800003E1185001E1195002E117EF13F04E0E76
:101B9000161805E1175003E1185001E1195002E150
:101BA00017EF13F04F0E161805E1175003E1185008
:101BB00001E1195002E117EF13F0500E161805E17C
:101BC000175003E1185001E1195002E117EF13F02B
:101BD000510E161805E1175003E1185001E1195094
:101BE00002E117EF13F0520E161805E1175003E14A
:101BF000185001E1195002E117EF13F0530E1618B7
:101C000005E1175003E1185001E1195002E117EF07
:101C100013F0540E161805E1175003E1185001E1B6
:101C2000195002E117EF13F0550E161805E1175081
:101C300003E1185001E1195002E117EF13F0560EBD
:101C4000161805E1175003E1185001E1195002E19F
:101C500017EF13F0570E161805E1175003E118504F
:101C600001E1195002E117EF13F0580E161805E1C3
:101C7000175003E1185001E1195002E117EF13F07A
:101C8000590E161805E1175003E1185001E11950DB
:101C900002E117EF13F05A0E161805E1175003E191
:101CA000185001E1195002E117EF13F05B0E1618FE
:101CB00005E1175003E1185001E1195002E117EF57
:101CC00013F05C0E161805E1175003E1185001E1FE
:101CD000195002E117EF13F05D0E161805E11750C9
:101CE00003E1185001E1195002E117EF13F05E0E05
:101CF000161805E1175003E1185001E1195002E1EF
:101D000017EF13F05F0E161805E1175003E1185096
:101D100001E1195002E117EF13F0600E161805E10A
:101D2000175003E1185001E1195002E117EF13F0C9
:101D3000610E161805E1175003E1185001E1195022
:101D400002E117EF13F0620E161805E1175003E1D8
:101D5000185001E1195002E117EF13F0630E161845
:101D600005E1175003E1185001E1195002E117EFA6
:101D700013F0640E161805E1175003E1185001E145
:101D8000195002E117EF13F0650E161805E1175010
:101D900003E1185001E1195002E117EF13F0660E4C
:101DA000161805E1175003E1185001E1195002E13E
:101DB00017EF13F0460E161805E1175003E11850FF
:101DC00001E1195002E104EF13F0440E161805E189
:101DD000175003E1185001E1195001E1F7D3430E08
:101DE000161805E1175003E1185001E1195001E1FF
:101DF000BDD3420E161805E1175003E1185001E15A
:101E0000195001E199D31A0E161805E1175003E194
:101E1000185001E1195001E14AD31B0E161805E1D3
:101E2000175003E1185001E1195001E140D31C0E95
:101E3000161805E1175003E1185001E1195001E1AE
:101E400036D31D0E161805E1175003E1185001E1B5
:101E5000195001E12CD31E0E161805E1175003E1AD
:101E6000185001E1195001E122D31F0E161805E1A7
:101E7000175003E1185001E1195001E118D3200E69
:101E8000161805E1175003E1185001E1195001E15E
:101E90000ED3210E161805E1175003E1185001E189
:101EA000195001E104D3220E161805E1175003E181
:101EB000185001E1195001E1FAD2230E161805E17C
:101EC000175003E1185001E1195001E1F0D2240E3E
:101ED000161805E1175003E1185001E1195001E10E
:101EE000E6D2250E161805E1175003E1185001E15E
:101EF000195001E1DCD2260E161805E1175003E156
:101F0000185001E1195001E1D2D2270E161805E14F
:101F1000175003E1185001E1195001E1C8D2280E11
:101F2000161805E1175003E1185001E1195001E1BD
:101F3000BED2290E161805E1175003E1185001E131
:101F4000195001E1B4D2120E161805E1175003E141
:101F5000185001E1195001E165D2130E161805E180
:101F6000175003E1185001E1195001E15BD2140E42
:101F7000161805E1175003E1185001E1195001E16D
:101F800051D2150E161805E1175003E1185001E162
:101F9000195001E147D2160E161805E1175003E15A
:101FA000185001E1195001E13DD2170E161805E154
:101FB000175003E1185001E1195001E133D2180E16
:101FC000161805E1175003E1185001E1195001E11D
:101FD00029D2190E161805E1175003E1185001E136
:101FE000195001E11FD20A0E161805E1175003E13E
:101FF000185001E1195001E11DD10B0E161805E131
:10200000175003E1185001E1195001E113D10C0EF2
:10201000161805E1175003E1185001E1195001E1CC
:1020200009D10D0E161805E1175003E1185001E112
:10203000195001E1FFD00E0E161805E1175003E10B
:10204000185001E1195001E1F5D00F0E161805E105
:10205000175003E1185001E1195001E1EBD0100EC7
:10206000161805E1175003E1185001E1195001E17C
:10207000E1D0110E161805E1175003E1185001E1E7
:10208000195001E1D7D0090E161805E1175003E1E8
:10209000185001E1195001E1BAD0080E161805E1F7
:1020A000175003E1185001E1195001E19DD0070ECE
:1020B000161805E1175003E1185001E1195001E12C
:1020C00080D0060E161805E1175003E1185001E103
:1020D000195071E0040E161805E1175003E118506D
:1020E00001E1195055E0030E161805E1175003E100
:1020F000185001E1195039E0010E161805E117508A
:1021000003E1185001E119501CE0165005E1175089
:1021100003E1185001E1195001E08AD3FA0EDB50B7
:10212000A86E370EE66EE66A8CEC2FF0E552E552AB
:10213000370EE66EE66A6CEC2FF0E552E552DF6E84
:102140007AD3FA0EDB50E00BA86E380EE66EE66A24
:102150008CEC2FF0E552E552380EE66EE66A6CEC38
:102160002FF0E552E552DF6E66D3FA0EDB50A86E13
:10217000390EE66EE66A8CEC2FF0E552E552390E28
:10218000E66EE66A6CEC2FF0E552E552DF6E53D353
:10219000FA0EDB50A86E3A0EE66EE66A8CEC2FF073
:1021A000E552E5523A0EE66EE66A6CEC2FF0E55227
:1021B000E552DF6E40D3FA0EDB508A6E8150DF6E3F
:1021C0003AD3FA0EDB50A86E3B0EE66EE66A8CEC54
:1021D0002FF0E552E5523B0EE66EE66A6CEC2FF00E
:1021E000E552E552DF6E27D3FA0EDB50A86E3C0EA7
:1021F000E66EE66A8CEC2FF0E552E5523C0EE66E98
:10220000E66A6CEC2FF0E552E552DF6E14D3FA0E5D
:10221000DB50A86E3D0EE66EE66A8CEC2FF0E552C0
:10222000E5523D0EE66EE66A6CEC2FF0E552E552A3
:10223000DF6E01D3120EE66EE66A6CEC2FF0E5520B
:10224000E552E76E010EE7CFDBFFDBCFE6FFFB0ECB
:10225000DBCF00F0FC0EDBCF01F0FD0EDBCF02F098
:10226000FE0EDBCF03F00A0E005E000E015A025A8A
:10227000035A010E00C0E7FFE75204E0E846FE0BF8
:10228000E706FCE1E552E71425E0FB0EDBCF01F0A9
:10229000FC0EDBCF02F0FD0EDBCF03F0FE0EDBCF3A
:1022A00004F00A0E015E000E025A035A045A010E8F
:1022B00001C0E7FFE75204E0E846FE0BE706FCE159
:1022C000006E010EDBCFE7FF0050E712010EE7CFF3
:1022D000DBFF25D0FB0EDBCF01F0FC0EDBCF02F0E5
:1022E000FD0EDBCF03F0FE0EDBCF04F00A0E015E25
:1022F000000E025A035A045A010E01C0E7FFE752CA
:1023000004E0E846FE0BE706FCE1E81C006E010E67
:10231000DBCFE7FF0050E716010EE7CFDBFFFA0E39
:10232000DB50A86EFB0EDBCF00F0FC0EDBCF01F024
:10233000FD0EDBCF02F0FE0EDBCF03F00A0E005ED7
:10234000000E015A025A035A3E0E0026000E0122C8
:102350000222032200C0E6FF01C0E6FF8CEC2FF052
:10236000E552E552FB0EDBCF00F0FC0EDBCF01F0B7
:10237000FD0EDBCF02F0FE0EDBCF03F00A0E005E97
:10238000000E015A025A035A3E0E0026000E012288
:102390000222032200C0E6FF01C0E6FF6CEC2FF032
:1023A000E552E552DF6EFB0EDBCF00F0FC0EDBCF1B
:1023B00001F0FD0EDBCF02F0FE0EDBCF03F00A0EC4
:1023C000005E000E015A025A035A010E00C0E7FFD8
:1023D000E75204E0E846FE0BE706FCE1E81CDF16E6
:1023E000010EDBCFE6FFFB0EDBCF00F0FC0EDBCFF8
:1023F00001F0FD0EDBCF02F0FE0EDBCF03F00A0E84
:10240000005E000E015A025A035A010E00C0E7FF97
:10241000E75204E0E846FE0BE706FCE1E552E7146C
:10242000DF1209D2FA0EDB50A86EFB0EDBCF00F0F4
:10243000FC0EDBCF01F0FD0EDBCF02F0FE0EDBCF9A
:1024400003F0120E005E000E015A025A035A450EA6
:102450000026000E01220222032200C0E6FF01C076
:10246000E6FF8CEC2FF0E552E552FB0EDBCF00F0DF
:10247000FC0EDBCF01F0FD0EDBCF02F0FE0EDBCF5A
:1024800003F0120E005E000E015A025A035A450E66
:102490000026000E01220222032200C0E6FF01C036
:1024A000E6FF6CEC2FF0E552E552DF6EC4D1FA0E78
:1024B000DB50A86EFB0EDBCF00F0FC0EDBCF01F093
:1024C000FD0EDBCF02F0FE0EDBCF03F01A0E005E36
:1024D000000E015A025A035A4D0E0026000E012228
:1024E0000222032200C0E6FF01C0E6FF8CEC2FF0C1
:1024F000E552E552FB0EDBCF00F0FC0EDBCF01F026
:10250000FD0EDBCF02F0FE0EDBCF03F01A0E005EF5
:10251000000E015A025A035A4D0E0026000E0122E7
:102520000222032200C0E6FF01C0E6FF6CEC2FF0A0
:10253000E552E552DF6E7FD1FA0EDB50DF6EFA0E08
:10254000DBCF98F1390EE66EE66A6CEC2FF0E552BF
:10255000E552100B0AE0FA0EDB50A86E5D0EE66E37
:10256000E66A8CEC2FF0E552E55265D1FA0EDB50AD
:10257000DF6EFA0EDBCF99F1390EE66EE66A6CEC8F
:102580002FF0E552E552100B0AE0FA0EDB50A86E70
:102590005E0EE66EE66A8CEC2FF0E552E552010124
:1025A0009851026E036A02C003F0026A9951000159
:1025B0000224006E000E0320016E00C0E6FF01C081
:1025C000E6FF94EC18F0E552E55235D1FA0EDB50F7
:1025D0000B0805E2070EF36EFA0EF3CFDBFFFA0EDF
:1025E000DB50A86E080EE66EE66A8CEC2FF0E55222
:1025F000E552C5EC2FF0080EE66EE66A6CEC2FF0A3
:10260000E552E552DF6E17D1FA0EDB50A86E600E70
:10261000E66EE66A8CEC2FF0E552E552600EE66E4F
:10262000E66A6CEC2FF0E552E552DF6E04D1FA0E4B
:10263000DB50A86EFB0EDBCF00F0FC0EDBCF01F011
:10264000FD0EDBCF02F0FE0EDBCF03F0470E005E87
:10265000000E015A025A035A610E0026000E012292
:102660000222032200C0E6FF01C0E6FF8CEC2FF03F
:10267000E552E552FB0EDBCF00F0FC0EDBCF01F0A4
:10268000FD0EDBCF02F0FE0EDBCF03F0470E005E47
:10269000000E015A025A035A610E0026000E012252
:1026A0000222032200C0E6FF01C0E6FF6CEC2FF01F
:1026B000E552E552DF6EBFD0FA0EDB50A86E810EF8
:1026C000E66EE66A8CEC2FF0E552E552810EE66E7E
:1026D000E66A6CEC2FF0E552E552DF6EACD0FA0EF4
:1026E000DB500F0B080807E2FA0EDB98DB9ADB9C45
:1026F000DB9EDB82DB84FA0EDB50A86E820EE66E78
:10270000E66A8CEC2FF0E552E552820EE66EE66A40
:102710006CEC2FF0E552E552DF6E8DD0FA0EDB50F7
:10272000A86EFB0EDBCF00F0FC0EDBCF01F0FD0E40
:10273000DBCF02F0FE0EDBCF03F0690E005E000E71
:10274000015A025A035A830E0026000E0122022269
:10275000032200C0E6FF01C0E6FF8CEC2FF0E5523B
:10276000E552FB0EDBCF00F0FC0EDBCF01F0FD0EDF
:10277000DBCF02F0FE0EDBCF03F0690E005E000E31
:10278000015A025A035A830E0026000E0122022229
:10279000032200C0E6FF01C0E6FF6CEC2FF0E5521B
:1027A000E552DF6E48D0FA0EDB50A86EFB0EDBCF91
:1027B00000F0FC0EDBCF01F0FD0EDBCF02F0FE0ED1
:1027C000DBCF03F0710E005E000E015A025A035A6D
:1027D0008B0E0026000E01220222032200C0E6FF1B
:1027E00001C0E6FF8CEC2FF0E552E552FB0EDBCF8B
:1027F00000F0FC0EDBCF01F0FD0EDBCF02F0FE0E91
:10280000DBCF03F0710E005E000E015A025A035A2C
:102810008B0E0026000E01220222032200C0E6FFDA
:1028200001C0E6FF6CEC2FF0E552E552DF6E03D0FD
:10283000FA0EDB1CDF6E92D0D950FB0FE96EFF0E53
:10284000DA20EA6E000EEE5C040EEE58000EEE5832
:10285000000EEE583DE2FA0EDB50A86EFB0EDBCF09
:1028600000F0FC0EDBCF01F0FD0EDBCF02F0FE0E20
:10287000DBCF03F0020E0126000E02220322010626
:10288000025A035A00C0E6FF01C0E6FF8CEC2FF0AD
:10289000E552E552FB0EDBCF00F0FC0EDBCF01F082
:1028A000FD0EDBCF02F0FE0EDBCF03F0020E0126A1
:1028B000000E022203220106025A035A00C0E6FF5C
:1028C00001C0E6FF6CEC2FF0E552E552DF6E46D01A
:1028D000D950FB0FE96EFF0EDA20EA6E000EEE5CB7
:1028E000000EEE58010EEE58000EEE5834E3FB0ECB
:1028F000DBCF00F0FC0EDBCF01F0FD0EDBCF02F0F2
:10290000FE0EDBCF03F00050E76E020EE7CFDBFFD9
:10291000DBCFE6FFE66AA00EE66EB4EC35F0E552DA
:10292000E552E552FA0EDBCFE6FF6FEC36F0E552EA
:102930009BEC36F0020EDBCFE6FFE66AA00EE66EF9
:1029400022EC36F0E552E552E552ABEC36F0DF6EA4
:10295000B3EC36F003D0FA0EDB1CDF6EF8D0010EBC
:102960000101051902E1000E061938E1FA0EDB50EB
:10297000A86EDF6EFB0EDBCF00F0FC0EDBCF01F0AC
:10298000FD0EDBCF02F0FE0EDBCF03F0020E0126C0
:10299000000E0222032200C0E6FF01C0E6FF8CEC1D
:1029A0002FF0E552E552FB0EDBCF00F0FC0EDBCF43
:1029B00001F0FD0EDBCF02F0FE0EDBCF03F0020EC6
:1029C0000126000E0222032200C0E6FF01C0E6FF3E
:1029D0006CEC2FF0E552E552DF6EB9D0020E05190E
:1029E00002E1000E061938E1FA0EDB50A86EDF6E28
:1029F000FB0EDBCF00F0FC0EDBCF01F0FD0EDBCFDA
:102A000002F0FE0EDBCF03F0030E0126000E0222C1
:102A1000032200C0E6FF01C0E6FF8CEC2FF0E55278
:102A2000E552FB0EDBCF00F0FC0EDBCF01F0FD0E1C
:102A3000DBCF02F0FE0EDBCF03F0030E0126000E0B
:102A40000222032200C0E6FF01C0E6FF6CEC2FF07B
:102A5000E552E552DF6E7BD0030E051902E1000E50
:102A6000061938E1FA0EDB50A86EDF6EFB0EDBCFE5
:102A700000F0FC0EDBCF01F0FD0EDBCF02F0FE0E0E
:102A8000DBCF03F0040E0126000E0222032200C059
:102A9000E6FF01C0E6FF8CEC2FF0E552E552FB0E9D
:102AA000DBCF00F0FC0EDBCF01F0FD0EDBCF02F040
:102AB000FE0EDBCF03F0040E0126000E02220322DD
:102AC00000C0E6FF01C0E6FF6CEC2FF0E552E552D6
:102AD000DF6E3DD0040E051902E1000E061937E144
:102AE000FA0EDB50A86EDF6EFB0EDBCF00F0FC0EA3
:102AF000DBCF01F0FD0EDBCF02F0FE0EDBCF03F0EB
:102B0000050E0126000E0222032200C0E6FF01C0CE
:102B1000E6FF8CEC2FF0E552E552FB0EDBCF00F028
:102B2000FC0EDBCF01F0FD0EDBCF02F0FE0EDBCFA3
:102B300003F0050E0126000E0222032200C0E6FF6C
:102B400001C0E6FF6CEC2FF0E552E552DF6EDF507E
:102B500000D0006E030EE15C02E2E16AE552E16E34
:102B60000050E552E7CFD9FF1200D9CFE6FFE1CF01
:102B7000D9FF020EE126D950FB0FE96EFF0EDA20D5
:102B8000EA6E000EEE5C040EEE58000EEE58000EDB
:102B9000EE583DE2FA0EDB50A86EFB0EDBCF00F0E4
:102BA000FC0EDBCF01F0FD0EDBCF02F0FE0EDBCF23
:102BB00003F0020E0126000E022203220106025A31
:102BC000035A00C0E6FF01C0E6FF8CEC2FF0E5528F
:102BD000E552FB0EDBCF00F0FC0EDBCF01F0FD0E6B
:102BE000DBCF02F0FE0EDBCF03F0020E0126000E5B
:102BF000022203220106025A035A00C0E6FF01C066
:102C0000E6FF6CEC2FF0E552E552DF6E46D0D9506E
:102C1000FB0FE96EFF0EDA20EA6E000EEE5C000E8E
:102C2000EE58010EEE58000EEE5834E3FB0EDBCFEB
:102C300000F0FC0EDBCF01F0FD0EDBCF02F0FE0E4C
:102C4000DBCF03F00050E76E010EE7CFDBFFDBCFF9
:102C5000E6FFE66AA00EE66EB4EC35F0E552E5520A
:102C6000E552FA0EDBCFE6FF6FEC36F0E5529BEC57
:102C700036F0010EDBCFE6FFE66AA00EE66E22EC30
:102C800036F0E552E552E552ABEC36F0DF6EB3ECD0
:102C900036F003D0FA0EDB1CDF6EDF50006E020E42
:102CA000E15C03E200D0E16AE552E16E0050E552DA
:102CB000E7CFD9FF1200D9CFE6FFE1CFD9FF320E1F
:102CC000E126DF6A100EDF5C01E367D1010EDB6AEB
:102CD000DB50006E016A200E005C000E015822E2FB
:102CE000010EDBCFE6FF200EDF02F350E552E724B2
:102CF000E66EE66A6CEC2FF0E552E552E66ED950CE
:102D0000040F006EDACF01F0010EDB500F0100243A
:102D1000E96E000E0120EA6EE552E750EF6E010EFB
:102D2000DB2AD6D70C0EDBCF00F0016A026A036AF9
:102D30000D0EDBCF04F0056A066A076A180E04263A
:102D4000000E05220622072204501F0B07E0D89030
:102D50000036013602360336E806F9E10E0EDBCF07
:102D600008F0096A0A6A0B6A100E0826000E09228A
:102D70000A220B2208501F0B07E0D89000360136BC
:102D800002360336E806F9E10F0EDBCF0CF00D6AD0
:102D90000E6A0F6A080E0C26000E0D220E220F225C
:102DA0000C501F0B07E0D890003601360236033670
:102DB000E806F9E1240E00C0DBFF250E01C0DBFFB1
:102DC000260E02C0DBFF270E03C0DBFF240EDBCF85
:102DD00000F0250EDBCF01F0260EDBCF02F0270E30
:102DE000DBCF03F0006A016A026A800E031600500E
:102DF00001100210031001E1CED0240EDBCF00F051
:102E0000250EDBCF01F0260EDBCF02F0270EDBCF45
:102E100003F0006A016A026A400E031600500110B6
:102E20000210031016E0100EE66EE66AD950120F7B
:102E3000E66E000EDA20E66E0C0EE66E010EE66E11
:102E400095EC39F0006E060EE15E0050000901E0DD
:102E5000A2D00001086A096A085001010825046E21
:102E600009500921056E066A076AD9502C0FE96ED0
:102E7000DACFEAFFEE50041AEE50051AEE50061AA9
:102E8000EE50071AD950280FE96EDACFEAFF045046
:102E9000EE14006E0550EE14016E0650EE14026E34
:102EA0000750EE14036E005001100210031001E0F1
:102EB00072D0240EDBCF00F0250EDBCF01F0260E02
:102EC000DBCF02F0270EDBCF03F0100E0016016AF5
:102ED000026A036A005001100210031011E0000E94
:102EE000085D040E095901E356D0370EE66EE66A16
:102EF0006CEC2FF0E552E55201011F5D01E04BD073
:102F0000240EDBCF00F0250EDBCF01F0260EDBCF49
:102F100002F0270EDBCF03F0080E0016016A026AEA
:102F2000400E0316005001100210031011E0000EB5
:102F3000085D040E095901E32ED0380EE66EE66AEC
:102F40006CEC2FF0E552E5520101205D01E023D049
:102F5000100EDB50026E036A100EDBCF04F0080E79
:102F6000042402C000F003C001F0000A05E0D8907C
:102F700000360136E804FBE1300E00C0DBFF310E05
:102F800001C0DBFF300EDBCFE6FF310EDBCFE6FF0B
:102F90000ED8E552E552DF2A95D6320EE15C02E208
:102FA000E16AE552E16EE552E7CFD9FF1200D9CFD1
:102FB000E6FFE1CFD9FFFD0EDBCF17F0FE0EDBCF32
:102FC00018F00E0E171801E118505CE00D0E1718DE
:102FD00001E1185056E00C0E171801E1185050E0AE
:102FE0000B0E171801E118504AE00A0E171801E1FC
:102FF000185044E0090E171801E118503EE0080E81
:10300000171801E1185038E0070E171801E11850A1
:1030100032E0060E171801E118502CE0050E1718C3
:1030200001E1185026E0040E171801E1185020E0C5
:10303000030E171801E118501AE0020E171801E1EB
:10304000185010E0010E171801E1185006E0175053
:1030500001E1185001E017D016D001011E5101E125
:1030600012D011D001011E5101E10DD00CD00BD0B6
:103070000AD009D008D007D006D005D004D003D09C
:1030800002D001D000D0E552E7CFD9FF1200D9CF4E
:10309000E6FFE1CFD9FFE652DF6A82A002D0000E40
:1030A000DF8082B2DF8282BADF8486B6DF8680B8B4
:1030B000DF8880BADF8A85BEDF8C80B2DF8EDF508A
:1030C00000D0E552E552E7CFD9FF1200D9CFE6FF95
:1030D000E1CFD9FF020EE126BD380F0BDE6EDD6AAF
:1030E000BE50006E016AD89000360136D890003686
:1030F0000136D9CFE9FFDACFEAFF0050EE120150D6
:10310000ED12DECF00F0DDCF01F000C0F3FF01C013
:10311000F4FF020EE15C03E200D0E16AE552E16EE9
:10312000E552E7CFD9FF1200D9CFE6FFE1CFD9FFB3
:10313000D950FD0FE96EFF0EDA20EA6EEE52030E53
:10314000ED160F0EBD16030EE76EFD0EDBCF00F081
:10315000FE0EDBCF01F0E7500016016A040ED89096
:1031600000360136E804FBE10050BD12FD0EDBCF56
:1031700000F0FE0EDBCF01F0D89001320032D89083
:10318000013200320050BE6EE552E7CFD9FF120087
:10319000D9CFE6FFE1CFD9FFE652966A86889888B4
:1031A0000101666B676B686B696B6A6B6B6BDF6ADF
:1031B000DFCF00F0016A026A036A030E005C000EB2
:1031C0000158000E0258000E03582BE2DFCF00F02A
:1031D000016A026A036A020ED8900036013602368E
:1031E0000336E806F9E1400E0026000E0122022215
:1031F0000322EA6ADF34FE0BEA36E96E5E0EE92648
:10320000010EEA2200C0EFFFEA6ADF34FE0BEA3665
:10321000E96E5E0EE926010EEA22EE52EF80DF2A09
:10322000C7D71F6A0101646986EC21F0050EE66EBE
:1032300019EC3BF0E5521F0EE66EADEC21F0E552C5
:10324000E66E1F0EE66E99EC21F0E552E552050E92
:10325000E66E19EC3BF0E552210EE66EE66A99EC5B
:1032600021F0E552E552050EE66E19EC3BF0E55211
:10327000080EE66E0E0EE66E99EC21F0E552E55270
:10328000E66A0A0EE66E99EC21F0E552E552E66A2E
:103290000B0EE66E99EC21F0E552E552040EE66E57
:1032A0000C0EE66E99EC21F0E552E552020EE66E48
:1032B0000D0EE66E99EC21F0E552E5521F50E96ED5
:1032C000EA6AD890E936EA365E0EE926010EEA226D
:1032D000EF50E66E040EE66E99EC21F0E552E552F1
:1032E0004C0EE66E010EE66E99EC21F0E552E552C9
:1032F000600EE66E020EE66E99EC21F0E552E552A4
:103300004C0EE66E030EE66E99EC21F0E552E552A6
:10331000E668070EE66E99EC21F0E552E552E66AA2
:103320000F0EE66E99EC21F0E552E552610EE66E65
:10333000E66A99EC21F0E552E552E66A010EE66E86
:1033400099EC21F0E552E552040EE66E020EE66EAF
:1033500099EC21F0E552E552A30EE66E030EE66EFF
:1033600099EC21F0E552E552E66A040EE66E99EC1E
:1033700021F0E552E552E66A050EE66E99EC21F081
:10338000E552E552500EE66E060EE66E99EC21F01F
:10339000E552E552DF6A080EDF5C14E2E668DFCF33
:1033A00000F0016A026A036A080E0026000E01227C
:1033B000022203220050E66E99EC21F0E552E5521C
:1033C000DF2AE9D74C0EE66E070EE66E99EC21F087
:1033D000E552E5524C0E1C6E220EE66EE66A99EC42
:1033E00021F0E552E552E66A0D0EE66E99EC21F009
:1033F000E552E552E00EE66EE66A99EC21F0E55200
:10340000E552C00EE66E010EE66E99EC21F0E55233
:10341000E552E66A040EE66E99EC21F0E552E552BB
:10342000E66A010EE66E99EC21F0E552E552200EB7
:10343000E66EE66A99EC21F0E552E552E552E55276
:10344000E7CFD9FF12000D0EE66EADEC21F0E5528C
:10345000006E016A005001016627015067230E0EBD
:10346000E66EADEC21F0E552006E016A00500101FC
:103470006827015069230F0EE66EADEC21F0E5528E
:10348000006E016A005001016A2701506B2312008F
:10349000D9CFE6FFE1CFD9FFE652FE0EDB500AE0BE
:1034A000E66AADEC21F0E552040B02E0000E01D01B
:1034B000010E31D0010164511F5C0AE1E66AADECF6
:1034C00021F0E552040B02E0000E01D0010E23D0E2
:1034D000010EDF6EDFCF00F0016A026A036A030E9D
:1034E000005C000E0158000E0258000E035811E255
:1034F000EA6ADF34FE0BEA36E96E5E0EE926010E5B
:10350000EA22EE52EF50010B02E0010E04D0DF2A56
:10351000E1D7000E00D0E552E552E7CFD9FF120007
:10352000D9CFE6FFE1CFD9FFE652FE0EDB5011E026
:10353000E66AADEC21F0E552040B05E1006A016A90
:10354000026A036A04D00068016A026A036A0050D2
:1035500039D0010EDF6EDFCF00F0016A026A036A24
:10356000030E005C000E0158000E0258000E0358B6
:1035700027E2EA6ADF34FE0BEA36E96E5E0EE926E0
:10358000010EEA22EE52EF50010B18E0EA6ADF3436
:10359000FE0BEA36E96E5E0EE926010EEA22EE52D5
:1035A000EF90EA6ADF34FE0BEA36E96E5E0EE9263A
:1035B000010EEA22EE52EF92DF5004D0DF2ACBD781
:1035C000FF0E00D0E552E552E7CFD9FF1200D9CF68
:1035D000E6FFE1CFD9FF956A6A0E8D6E010E836E0C
:1035E0008D9C86A8FED78D8C6B0E8D6E836A8D9C0C
:1035F00086A8FED78D8C600E8D6E120E836E8D9C0C
:1036000086A8FED78D8C670E8D6E400E836E8D9CC6
:1036100086A8FED78D8C700E8D6EFE0EDB50836EED
:103620008D9C86A8FED78D8C1D2A000E1E22E55289
:10363000E7CFD9FF1200D9CFE6FFE1CFD9FF040EC3
:10364000E126D950FB0FE96EFF0EDA20EA6EEE504C
:10365000ED1001E107D1010EE76EFB0EDBCF02F0AA
:10366000FC0EDBCF03F0E7500216036AFB0EDB50C3
:103670000224006EFC0EDB500320016E020E00C01F
:10368000DBFF030E01C0DBFF956A670E8D6E400EF7
:10369000836E8D9C86A8FED78D8C6A0E8D6E020E71
:1036A000DB50836E8D9C86A8FED78D8C6B0E8D6E45
:1036B000030EDB50836E8D9C86A8FED78D8C600E2A
:1036C0008D6E120E836E8D9C86A8FED78D8CFB0EA0
:1036D000DB501D26FC0EDB501E22700E8D6EFD0E83
:1036E000DBCFE9FFDB2AFE0EDBCFEAFF01E3DB2ABB
:1036F000EF50836E8D9C86A8FED78D8CFB0EDBCFA2
:1037000000F0FC0EDBCF01F00006000E015A00C0F5
:10371000DEFF01C0DDFFDFCF00F0DF06010EDBCFF3
:1037200001F001E2DB060050011001E19BD0DECF89
:1037300000F0DDCF01F0080E005C000E015801E240
:1037400081D0FD0EDBCFE9FFDB2AFE0EDBCFEAFFE7
:1037500001E3DB2AEF50836E8D9C86A8FED78D8C0B
:10376000FD0EDBCFE9FFDB2AFE0EDBCFEAFF01E334
:10377000DB2AEF50836E8D9C86A8FED78D8CFD0EC4
:10378000DBCFE9FFDB2AFE0EDBCFEAFF01E3DB2A1A
:10379000EF50836E8D9C86A8FED78D8CFD0EDBCFFF
:1037A000E9FFDB2AFE0EDBCFEAFF01E3DB2AEF5065
:1037B000836E8D9C86A8FED78D8CFD0EDBCFE9FF36
:1037C000DB2AFE0EDBCFEAFF01E3DB2AEF50836E3C
:1037D0008D9C86A8FED78D8CFD0EDBCFE9FFDB2A02
:1037E000FE0EDBCFEAFF01E3DB2AEF50836E8D9CF8
:1037F00086A8FED78D8CFD0EDBCFE9FFDB2AFE0EFF
:10380000DBCFEAFF01E3DB2AEF50836E8D9C86A8B5
:10381000FED78D8CFD0EDBCFE9FFDB2AFE0EDBCF62
:10382000EAFF01E3DB2AEF50836E8D9C86A8FED76A
:103830008D8CD9CFE9FFDACFEAFF080EEE5E000EDD
:10384000ED5A75D7FD0EDBCFE9FFDB2AFE0EDBCF8D
:10385000EAFF01E3DB2AEF50836E8D9C86A8FED73A
:103860008D8C59D7040EE15C02E2E16AE552E16E0B
:10387000E552E7CFD9FF1200D9CFE6FFE1CFD9FF5C
:10388000030EE126956A6A0E8D6E010E836E8D9C85
:1038900086A8FED78D8C6B0E8D6E836A8D9C86A854
:1038A000FED78D8CFF0E1D5C3FE11E50006E016A3D
:1038B000026A036A5F0E001805E1015003E102503D
:1038C00001E1035031E1010EDB685F0EF36E020E81
:1038D000F3CFDBFF010EDBCFE6FF020EDBCFE6FF0F
:1038E000C4EC21F0E552E552600E8D6E0A0E836E37
:1038F0008D9C86A8FED78D8C100EE66EADEC21F067
:10390000E552DF6E010EDB6A4C0EF36E020EF3CF52
:10391000DBFF010EDBCFE6FF020EDBCFE6FFC4ECE0
:1039200021F0E552E55214D0600E8D6E0A0E836EC2
:103930008D9C86A8FED78D8C9568700E8D6E8D9AA5
:1039400086A8FED78350DF6E8D8A1D2A000E1E22A8
:10395000DF50006E030EE15C03E200D0E16AE55245
:10396000E16E0050E552E7CFD9FF1200D9CFE6FF54
:10397000E1CFD9FF020EE126FB0EDBCFDEFFDBCF6E
:10398000DDFFD950FB0FE96EFF0EDA20EA6EEE5034
:10399000ED1003E1F36AF46A57D0956A6A0E8D6EF2
:1039A000DF50836E8D9C86A8FED78D8C6B0E8D6E3E
:1039B000010EDB50836E8D9C86A8FED78D8C600E29
:1039C0008D6E0A0E836E8D9C86A8FED78D8CDE5080
:1039D0001D26DD501E221E50006E016A026A036A17
:1039E000600E005C000E0158000E0258000E0358D5
:1039F00002E3140E1E5E9568700E8D6EDFCF00F030
:103A0000DF06010EDBCF01F001E2DB060050011002
:103A100010E08D9A86A8FED7FD0EDBCFE9FFDB2AEA
:103A2000FE0EDBCFEAFF01E3DB2A83CFEFFF8D8AB7
:103A3000E5D7FB0EDBCF00F0FC0EDBCF01F000C0C2
:103A4000F3FF01C0F4FF00D0020EE15C02E2E16A84
:103A5000E552E16EE552E7CFD9FF1200D9CFE6FF7C
:103A6000E1CFD9FF030EE126FC0EDB50DF6E010E25
:103A7000DB6AFC0EDB5003E1F36AF46AA2D0956ABC
:103A80006A0E8D6EFC0EDB50836E8D9C86A8FED771
:103A90008D8C6B0E8D6E836A8D9C86A8FED78D8C67
:103AA000600E8D6E0A0E836E8D9C86A8FED78D8C5F
:103AB0009568700E8D6EDF5040E0DF068D9A86A807
:103AC000FED7020E83CFDBFF8D8AD950FD0FE96E42
:103AD000FF0EDA20EA6EEE50ED100CE0FD0EDBCFAB
:103AE000E9FFDB2AFE0EDBCFEAFF01E3DB2A020E51
:103AF000DBCFEFFFFB0EDB50F36E020EDB50F35C0F
:103B00001BE1DE52200EDD6E956A600E8D6E200E7A
:103B1000836E8D9C86A8FED78D8C6A0E8D6E836A0F
:103B20008D9C86A8FED78D8C6B0E8D6E836A8D9CC6
:103B300086A8FED78D8C01D0BED7FC0EDB50D88076
:103B4000DF54DF6EDF50006E016A00501D26015009
:103B50001E221E50006E016A026A036A600E005C3B
:103B6000000E0158000E0258000E035802E3140E16
:103B70001E5E010EDBCF00F0016A026A036A200EAE
:103B8000001805E1015003E1025001E1035008E192
:103B90001DC0E6FF1EC0E6FFC4EC21F0E552E55271
:103BA000010EDBCF02F002C003F0026ADF50000119
:103BB0000210006E03C001F000C0F3FF01C0F4FF6B
:103BC00000D0030EE15C02E2E16AE552E16EE552EB
:103BD000E7CFD9FF1200D9CFE6FFE1CFD9FFFE0E24
:103BE000EA6ADB34FE0BEA36E96E5E0EE926010E68
:103BF000EA22EE52EF90E552E7CFD9FF1200D9CF7B
:103C0000E6FFE1CFD9FFFE0EDBCF00F0016A026ACA
:103C1000036A030E005C000E0158000E0258000EED
:103C200003580FE2FE0EEA6ADB34FE0BEA36E96E59
:103C30005E0EE926010EEA22EE52EF80FE0EDB5008
:103C40001F6EE552E7CFD9FF1200D9CFE6FFE1CFD3
:103C5000D9FF030EE126020E1CC0DBFFDE52010E6F
:103C6000DD6EDBCFE6FF020EDBCFE6FF8DDBE5523C
:103C7000E55202DEDF6EDFCFE6FF030EE66E59DBB4
:103C8000E552E552030EE15C03E200D0E16AE55241
:103C9000E16EE552E7CFD9FF1200D9CFE6FFE1CFC1
:103CA000D9FF040EE126600EE66EE66A42DBE552BD
:103CB000E552070EE66E51DBE552DF6E200EE66E32
:103CC000E66A37DBE552E5521C50DF5C27E2600E06
:103CD000046E056A066A076A1C50086E096A0A6A59
:103CE0000B6A0850045C006E09500558016E0A50BA
:103CF0000658026E0B500758036EDFCF0CF00D6AAA
:103D00000E6A0F6A0C5000260D5001220E5002223E
:103D10000F500322010E00C0DBFF06D01C50DF5CF9
:103D2000E76E010EE7CFDBFF140E046E056A066A2C
:103D3000076A010EDBCF08F0096A0A6A0B6A0850AD
:103D4000045C006E09500558016E0A500658026E58
:103D50000B500758036E010E00C0DBFFDB50E76E0F
:103D6000030EE7CFDBFF020EDB6ADBCF00F0030EB2
:103D7000DBCF01F000C0F3FF01C0F4FF040EE15CF3
:103D800003E200D0E16AE552E16EE552E7CFD9FFE8
:103D90001200D9CFE6FFE1CFD9FF170EE126FB0EC7
:103DA000DBCFE9FFFC0EDBCFEAFFEF68600EE66ECB
:103DB000E66ABFDAE552E552070EE66ECEDAE55264
:103DC000E76E120EE7CFDBFF200EE66EE66AB1DA91
:103DD000E552E552030EE66EC0DAE552E76E130EC9
:103DE000E7CFDBFF070EE66EB8DAE552100B71E0A5
:103DF000E66AB3DAE552040BE76E160EE7CFDBFF97
:103E0000210EE66EE66A95DAE552E552020EE66E9E
:103E100019EC3BF0E552E66A0A0EE66E8ADAE552E4
:103E2000E552E66A0B0EE66E84DAE552E552160EAE
:103E3000DB500DE0070EE66E90DAE5520A0B02E069
:103E4000000E01D0010EE76E160EE7CFDBFF020E6B
:103E5000E66E0D0EE66E6DDAE552E552220EE66E66
:103E6000E66A67DAE552E552120EDB501C6EEDDEB3
:103E70004C0EE66E030EE66E5CDAE552E552620E1B
:103E8000E66EE66A56DAE552E5524C0EE66E070E2D
:103E9000E66E4FDAE552E552220EE66EE66A49DA40
:103EA000E552E552E668070EE66E43DAE552E55262
:103EB000E66A0D0EE66E3DDAE552E552160EDB506F
:103EC00006E0260EE66EE66A34DAE552E552000EAA
:103ED000EBD0130EDB50F36E120EDB50F35C01E1FE
:103EE000E1D0130EDB50E76E150EE7CFDBFF140EAB
:103EF000DB6ADBCFE6FF150EDBCFE6FF45DAE552E6
:103F0000E552120EE66EE66AD9CFE6FFDACFE6FF9B
:103F10002DDDE552E552E552E552D9CFE9FFDACF82
:103F2000EAFFEF50010B01E1B9D0020EDBCF00F048
:103F3000030EDBCF01F0026A036A400E005C000E44
:103F40000158000E0258000E035801E2A7D0020EDD
:103F5000DBCF04F0030EDBCF05F0066A076AD880DA
:103F6000EE0E0454050E0554000E0654000E0754C0
:103F700001E294D0010EDBCF08F0096A0A6A0B6AED
:103F8000600E085C000E0958000E0A58000E0B580F
:103F900001E384D0010EDBCF0CF00D6A0E6A0F6ACC
:103FA0004C0E0C5C000E0D58000E0E58000E0F58F3
:103FB00075E3100EDBCFE6FF110EDBCFE6FF2BEC37
:103FC00029F0E552E552100EF3CFDBFF110EF4CFCE
:103FD000DBFF060EE66EE66AD9500A0FE66E000EAB
:103FE000DA20E66EFD0EDBCFE9FFFE0EDBCFEAFF47
:103FF000E9CF00F0EACF01F000C0E6FF01C0E6FF24
:10400000BEEC39F0026E060EE15E0250110EDB507E
:10401000080823E1100EDBCF00F0016A026A036A90
:1040200000500110021003100FE0100EDBCF04F05F
:10403000056A066A076A060E041805E1055003E1E1
:10404000065001E1075009E1FB0EDBCFE9FFFC0E52
:10405000DBCFEAFF100EDBCFEFFF110EDB502508A0
:1040600018E1100EDBCF00F0016A026A036A7E0ECF
:10407000001805E1015003E1025001E1035009E19C
:10408000FB0EDBCFE9FFFC0EDBCFEAFF100EDBCF30
:10409000EFFF130EDB501C6E010E06D0120EDB502C
:1040A0001C6ED3DD000E00D0006E170EE15C02E244
:1040B000E16AE552E16E0050E552E7CFD9FF120008
:1040C000D9CFE6FFE1CFD9FF030EE1260A0EE66E57
:1040D000070EE66E2ED9E552E5521F50E96EEA6AE8
:1040E000D890E936EA365E0EE926010EEA22010E84
:1040F000EFCFDBFFDF6ADECFE6FFDDCFE6FF44D99F
:10410000E552E552060EE66EE66AFD0EDBCFE6FFEF
:10411000FE0EDBCFE6FF1BEC1BF0E552E552E5524D
:10412000E552E66AE7EC1AF0E552040EE66EE7ECBB
:104130001AF0E552A30EE66EE7EC1AF0E552E66AD5
:10414000E7EC1AF0E552E66AE7EC1AF0E552500E99
:10415000E66EE7EC1AF0E552FC0EDBCF00F0016AE8
:10416000026A036A00500110021003100AE1080EEF
:10417000E66EE7EC1AF0E552E66AE7EC1AF0E55273
:1041800024D0FC0EDBCF00F0016A026A036A060E3F
:10419000001805E1015003E1025001E103500BE179
:1041A000080EE66EE7EC1AF0E552060EE66EE7EC56
:1041B0001AF0E5520AD0250EE66EE7EC1AF0E55249
:1041C0007E0EE66EE7EC1AF0E552D950FA0FE96E72
:1041D000FF0EDA20EA6E0E0EEE26000EED22FA0E2B
:1041E000DBCF00F0FB0EDBCF01F0026A036A3C0E6E
:1041F000005C000E0158000E0258000E035807E242
:104200003C0EF36EFA0EF3CFDBFFFB0EDB6AFA0E09
:10421000DBCFDEFFDBCFDDFFDFCFE6FF050EE66E97
:1042200088D8E552E552010EDBCFE6FF060EE66EBA
:1042300080D8E552E552030EE15C02E2E16AE55204
:10424000E16EE552E7CFD9FF1200D9CFE6FFE1CF0B
:10425000D9FFE6521F50E96EEA6AD890E936EA368D
:104260005E0EE926010EEA22EF50E66E040EE66EBF
:1042700060D8E552E552240EE66EE66A5AD8E55259
:10428000E5521FC064F11F50E96EEA6AD890E93622
:10429000EA365E0EE926010EEA22EE52EF801F504A
:1042A000E96EEA6AD890E936EA365E0EE926010E32
:1042B000EA22EE52EF82DF6ADFCF00F0016A026A83
:1042C000036A030E005C000E0158000E0258000E37
:1042D000035816E2EA6ADF34FE0BEA36E96E5E0E38
:1042E000E926010EEA22EE52EF50010B07E0DF5003
:1042F0000101645D03E0DF501F6E03D0DF2ADCD7CD
:1043000000D0E552E552E7CFD9FF12009568600E64
:104310008D6E8D8C8D8A8D8E966A010EE66E01EC07
:104320003BF0E552050EE66E19EC3BF0E5528D9E32
:104330001200D9CFE6FFE1CFD9FFFE0EDB506009B6
:104340008D6EFD0EDB50836E956A8D9C86A8FED720
:104350008D8CE552E7CFD9FF1200D9CFE6FFE1CF30
:10436000D9FFE6529568FE0EDB5060098D6E8D9A7E
:1043700086A8FED78350DF6E8D8ADF5000D0E552CD
:10438000E552E7CFD9FF1200D9CFE6FFE1CFD9FF41
:10439000FD0EDBCF1DF0FE0EDBCF1EF0FD0EDBCFE2
:1043A000E6FF080EE66EC5DFE552E552FE0EDBCFF6
:1043B000E6FF090EE66EBDDFE552E552E552E7CFB6
:1043C000D9FF1200D9CFE6FFE1CFD9FF020EE126D7
:1043D000090EE66EC2DFE552E76E010EE7CFDBFFA6
:1043E000080EE66EBADFE552DF6EDECF00F0DDCFFD
:1043F00001F000C0F3FF01C0F4FF020EE15C03E234
:1044000000D0E16AE552E16EE552E7CFD9FF120034
:10441000D9CFE6FFE1CFD9FF020EE126010E1CC085
:10442000DBFF120EDF6EFD0EDBCF00F0FE0EDBCFEA
:1044300001F0D9CFE9FFDACFEAFF0050EE260150B4
:10444000ED22DECFE6FFDDCFE6FF9EDFE552E5524F
:10445000020EE15C02E2E16AE552E16EE552E7CF6D
:10446000D9FF1200D9CFE6FFE1CFD9FF020EE12636
:10447000FE0EDB501F6E1F50E96EEA6AD890E936D7
:10448000EA365E0EE926010EEA22010EEFCFDBFFCF
:104490000E0EDF6EFC0EDBCF00F0FD0EDBCF01F069
:1044A000D9CFE9FFDACFEAFF0050EE260150ED2226
:1044B000DECFE6FFDDCFE6FF67DFE552E552020E15
:1044C000E15C02E2E16AE552E16EE552E7CFD9FF35
:0244D0001200D8
:0E44D2000101006B016B056B066B1200D7EC4D
:1044E00028F0AFEF32F027EC34F000D01200D9CF33
:1044F000E6FFE1CFD9FF0C0EE1262EC100F0016AE4
:10450000026A036A180E1F0B07E0D89000360136C6
:1045100002360336E806F9E12FC104F0056A066A9F
:10452000076A100E1F0B07E0D890043605360636D2
:104530000736E806F9E1045000260550012206502E
:1045400002220750032230C108F0096A0A6A0B6A86
:10455000080E1F0B07E0D890083609360A360B36CE
:10456000E806F9E108500026095001220A5002220B
:104570000B50032231C10CF00D6A0E6A0F6A0C5009
:1045800000260D5001220E5002220F500322040E6D
:1045900000C0DBFF050E01C0DBFF060E02C0DBFF23
:1045A000070E03C0DBFF32C100F0016A026A036A32
:1045B000080E1F0B07E0D89000360136023603368E
:1045C000E806F9E133C104F0056A066A076A045097
:1045D0000026055001220650022207500322080E31
:1045E00000C0DBFF090E01C0DBFF0A0E02C0DBFFCB
:1045F0000B0E03C0DBFFD950080FE96EDACFEAFFDC
:10460000D880180EEE54000EEE54000EEE54000E3C
:10461000EE540BE2180EF36E080EF3CFDBFF090E1B
:10462000DB6A0A0EDB6A0B0EDB6ADE6ADE6ADE6AB2
:10463000DD6ADD52DD52080EDBCF00F0090EDBCF64
:1046400001F00A0EDBCF02F00B0EDBCF03F0D9CF67
:10465000E9FFDACFEAFF0050EE5C0150EE5802505D
:10466000EE580350EE5801E3C2D0D9CFE9FFDACFBC
:10467000EAFFEECF00F0EECF01F0EECF02F0EFCF89
:1046800003F0D950040FE96EDACFEAFFEE500026AE
:10469000EE500122EE500222EE500322D880800E0E
:1046A0000054FF0E0154FF0E0254FF0E035452E259
:1046B000040EDBCF08F0050EDBCF09F0060EDBCFD2
:1046C0000AF0070EDBCF0BF0800E085EFF0E095AD2
:1046D0000A5A0B5A800E0826000E09220A220B22C3
:1046E000D9CFE9FFDACFEAFF0850EE24046E095073
:1046F000EE20056E0A50EE20066E0B50EE20076E7F
:1047000004C0E6FF05C0E6FF06C0E6FF07C0E6FFFF
:10471000DEDAE552E552E552E552E66ED9CFE9FF21
:10472000DACFEAFFEECF00F0EECF01F0EECF02F0ED
:10473000EFCF03F0060E0026000E01220222032214
:104740001E0E0024E96E010E0120EA6EE552E750CC
:10475000EF6E43D0D9CFE9FFDACFEAFFEECF04F016
:10476000EECF05F0EECF06F0EFCF07F0D950040FF3
:10477000E96EDACFEAFFEE500426EE500522EE5045
:104780000622EE50072204C0E6FF05C0E6FF06C081
:10479000E6FF07C0E6FF4EEC04F0E552E552E552B5
:1047A000E552E66ED9CFE9FFDACFEAFFEECF00F0AF
:1047B000EECF01F0EECF02F0EFCF03F0060E0026B1
:1047C000000E0122022203221E0E0024E96E010EB9
:1047D0000120EA6EE552E750EF6ED9CFE9FFDACF5C
:1047E000EAFFEE2A000EEE22EE22EE2224D7080E79
:1047F000DBCF00F0090EDBCF01F00A0EDBCF02F0B9
:104800000B0EDBCF03F0060E0026000E0122022263
:10481000032200C01CF101C01DF1040EDBCF00F02B
:10482000050EDBCF01F0060EDBCF02F0070EDBCF6B
:1048300003F0180ED8900332023201320032E8063B
:10484000F9E100C01EF1040EDBCF00F0050EDBCF56
:1048500001F0060EDBCF02F0070EDBCF03F0100EE7
:10486000D8900332023201320032E806F9E100C08A
:104870001FF1040EDBCF00F0050EDBCF01F0060EBA
:10488000DBCF02F0070EDBCF03F0080ED890033227
:10489000023201320032E806F9E100C020F1040ED4
:1048A000DBCF00F0050EDBCF01F0060EDBCF02F010
:1048B000070EDBCF03F000500101216F080EDBCFA4
:1048C00000F0090EDBCF01F00A0EDBCF02F00B0E79
:1048D000DBCF03F0080ED8900332023201320032EF
:1048E000E806F9E100C022F1080EDBCF00F0090E66
:1048F000DBCF01F00A0EDBCF02F00B0EDBCF03F0B3
:1049000000500101236F800E076F086B040E096FC2
:10491000030E0A6F0B6BE3DD0C0EE15C02E2E16A51
:10492000E552E16EE552E7CFD9FF1200D9CFE6FF9D
:10493000E1CFD9FF0E0EE1261EC100F0016A026A26
:10494000036A180E1F0B07E0D890003601360236B6
:104950000336E806F9E11FC104F0056A066A076A32
:10496000100E1F0B07E0D8900436053606360736C2
:10497000E806F9E104500026055001220650022203
:104980000750032220C108F0096A0A6A0B6A080E60
:104990001F0B07E0D890083609360A360B36E806B2
:1049A000F9E108500026095001220A5002220B505A
:1049B000032221C10CF00D6A0E6A0F6A0C5000260A
:1049C0000D5001220E5002220F500322080E00C08B
:1049D000DBFF090E01C0DBFF0A0E02C0DBFF0B0E7E
:1049E00003C0DBFF1CC100F01DC101F0100E005E12
:1049F000000E015A040E005E000E015A040E005E05
:104A0000000E015A0C0E00C0DBFF0D0E01C0DBFFD3
:104A1000D9500C0FE96EDACFEAFF080ED880EE54B9
:104A2000000EED5407E2080EF36E0C0EF3CFDBFF21
:104A30000D0EDB6A040EDB6A050EDB6A060EDB6A0E
:104A4000070EDB6A0C0EDBCF00F00D0EDBCF01F0A2
:104A5000026A036AD950040FE96EDACFEAFF005008
:104A6000EE5C0150EE580250EE580350EE5801E350
:104A7000F1D0040EDBCF00F0050EDBCF01F0060E07
:104A8000DBCF02F0070EDBCF03F0D950080FE96E41
:104A9000DACFEAFFEE500026EE500122EE5002225D
:104AA000EE500322D880800E0054FF0E0154FF0EFA
:104AB0000254FF0E035466E2040EDBCF04F0050E31
:104AC000DBCF05F0060EDBCF06F0070EDBCF07F0DD
:104AD000180E0426000E0522062207221E0E0424AC
:104AE000E96E010E0520EA6EEF50E66E0C680D6A65
:104AF0000E6A0F6AD950080FE96EDACFEAFFEE505E
:104B00000C16EE500D16EE500E16EE500F16D95034
:104B1000040FE96EDACFEAFF0C50EE24086E0D5058
:104B2000EE20096E0E50EE200A6E0F50EE200B6E36
:104B300008C0E6FF09C0E6FF0AC0E6FF0BC0E6FFBB
:104B400086DA106E050EE15E1050E66E040EDBCFC5
:104B500000F0050EDBCF01F0060EDBCF02F0070EF2
:104B6000DBCF03F0080E0026000E012202220322F2
:104B70001E0E0024E96E010E0120EA6EE552E75098
:104B8000EF6E5DD0040EDBCF04F0050EDBCF05F039
:104B9000060EDBCF06F0070EDBCF07F0180E04265B
:104BA000000E0522062207221E0E0424E96E010EC5
:104BB0000520EA6EEF50E66E040EDBCF08F0050E1E
:104BC000DBCF09F0060EDBCF0AF0070EDBCF0BF0D0
:104BD000D950080FE96EDACFEAFFEE500826EE5002
:104BE0000922EE500A22EE500B2208C0E6FF09C04F
:104BF000E6FF0AC0E6FF0BC0E6FF3EEC0CF00C6ED1
:104C0000050EE15E0C50E66E040EDBCF00F0050EE3
:104C1000DBCF01F0060EDBCF02F0070EDBCF03F097
:104C2000080E0026000E0122022203221E0E00247E
:104C3000E96E010E0120EA6EE552E750EF6ED950A1
:104C4000040FE96EDACFEAFFEE2A000EEE22EE2222
:104C5000EE22F8D6040EE66EE66A1E0EE66E010E31
:104C6000E66ED9CFE6FFDACFE6FFBEEC39F0006E94
:104C7000060EE15E00500C0EDBCF1CF10D0EDBCFFB
:104C80001DF1080E01011C27000E1D23DFCF1EF1B0
:104C9000010EDBCF1FF1020EDBCF20F1030EDBCFC5
:104CA00021F1226B236B246B256B076B086B040EC1
:104CB000096F020E0A6F0B6B12DC0E0EE15C02E252
:104CC000E16AE552E16EE552E7CFD9FF1200D9CF94
:104CD000E6FFE1CFD9FFE652D950FB0FE96EFF0E98
:104CE000DA20EA6E800EEE1808E1E868EE1805E1B9
:104CF000E868EE1802E1E868EE1805E102C1DFFF9E
:104D00000101026B9DD1D950FB0FE96EFF0EDA2035
:104D1000EA6E810EEE1808E1E868EE1805E1E86831
:104D2000EE1802E1E868EE1803E1010EDF6E88D1AB
:104D3000D950FB0FE96EFF0EDA20EA6E820EEE18F4
:104D400008E1E868EE1805E1E868EE1802E1E868B5
:104D5000EE1803E1050EDF6E73D1D950FB0FE96E3B
:104D6000FF0EDA20EA6E830EEE1808E1E868EE180E
:104D700005E1E868EE1802E1E868EE1802E1DF6A92
:104D80005FD1D950FB0FE96EFF0EDA20EA6E940E68
:104D9000EE1808E1E868EE1805E1E868EE1802E1AF
:104DA000E868EE1804E103EC03F0DF6E49D1D95056
:104DB000FB0FE96EFF0EDA20EA6E950EEE1808E1A1
:104DC000E868EE1805E1E868EE1802E1E868EE1818
:104DD00004E106EC03F0DF6E33D1D950FB0FE96E2E
:104DE000FF0EDA20EA6E960EEE1808E1E868EE187B
:104DF00005E1E868EE1802E1E868EE1804E109EC64
:104E000003F0DF6E1DD1D950FB0FE96EFF0EDA20E3
:104E1000EA6E890EEE5CFF0EEE58FF0EEE58FF0EA6
:104E2000EE5819E2FB0EDBCF00F0FC0EDBCF01F0F9
:104E3000FD0EDBCF02F0FE0EDBCF03F0840E005E32
:104E4000FF0E015A025A035A0050E66E57EC03F067
:104E5000E552DF6EF5D0D950FB0FE96EFF0EDA2078
:104E6000EA6ED880880EEE54FF0EEE54FF0EEE541C
:104E7000FF0EEE5428E2D950FB0FE96EFF0EDA2048
:104E8000EA6E910EEE5CFF0EEE58FF0EEE58FF0E2E
:104E9000EE5819E2FB0EDBCF00F0FC0EDBCF01F089
:104EA000FD0EDBCF02F0FE0EDBCF03F0890E005EBD
:104EB000FF0E015A025A035A0050E66E7DEC03F0D1
:104EC000E552DF6EBDD0D950FB0FE96EFF0EDA2040
:104ED000EA6E910EEE1808E1E868EE1805E1E86860
:104EE000EE1802E1E868EE1802E1DF68A9D0D950B7
:104EF000FB0FE96EFF0EDA20EA6E930EEE1808E162
:104F0000E868EE1805E1E868EE1802E1E868EE18D6
:104F100004E101010551DF6E93D0D950FB0FE96E1A
:104F2000FF0EDA20EA6E920EEE1808E1E868EE183D
:104F300005E1E868EE1802E1E868EE1806E106C14E
:104F400000F0016A0050DF6E7BD0D950FB0FE96E94
:104F5000FF0EDA20EA6E970EEE1808E1E868EE1808
:104F600005E1E868EE1802E1E868EE1803E1010ED9
:104F7000DF6E66D0D950FB0FE96EFF0EDA20EA6EC5
:104F8000980EEE1808E1E868EE1805E1E868EE18FA
:104F900002E1E868EE1804E128EC04F0DF6E50D07E
:104FA000D950FB0FE96EFF0EDA20EA6ED880CF0EE3
:104FB000EE54FF0EEE54FF0EEE54FF0EEE5428E2B8
:104FC000D950FB0FE96EFF0EDA20EA6EE00EEE5CC0
:104FD000FF0EEE58FF0EEE58FF0EEE5819E2FB0ED4
:104FE000DBCF00F0FC0EDBCF01F0FD0EDBCF02F0DB
:104FF000FE0EDBCF03F0D00E005EFF0E015A025A08
:10500000035A0050E66EB4EC03F0E552DF6E18D0A0
:10501000FB0EDBCF00F0FC0EDBCF01F0FD0EDBCF93
:1050200002F0FE0EDBCF03F0E00E005EFF0E015A31
:10503000025A035A0050E66E2BEC04F0E552DF6E84
:10504000DF5000D0E552E552E7CFD9FF1200D9CFAB
:10505000E6FFE1CFD9FFE652FA0EDB1CDF6ED95036
:10506000FB0FE96EFF0EDA20EA6ED880830EEE5455
:10507000FF0EEE54FF0EEE54FF0EEE5443E2D950F5
:10508000FB0FE96EFF0EDA20EA6E890EEE5CFF0E72
:10509000EE58FF0EEE58FF0EEE5834E2FA0EDBCF5C
:1050A000E6FFFB0EDBCF00F0FC0EDBCF01F0FD0EC8
:1050B000DBCF02F0FE0EDBCF03F0840E005EFF0EAE
:1050C000015A025A035A0050E66E69EC03F0E552A9
:1050D000E552FB0EDBCF00F0FC0EDBCF01F0FD0E46
:1050E000DBCF02F0FE0EDBCF03F0840E005EFF0E7E
:1050F000015A025A035A0050E66E57EC03F0E5528B
:10510000DF6E4ED0D950FB0FE96EFF0EDA20EA6E4B
:10511000920EEE1808E1E868EE1805E1E868EE186E
:1051200002E1E868EE1819E1000E01010515006EB4
:10513000FF0E0615016EFA0EDBCF02F002C003F07F
:10514000026A00500210056F01500310066F06C17D
:1051500000F0016A0050DF6E23D0D950FB0FE96EDA
:10516000FF0EDA20EA6E930EEE1808E1E868EE18FA
:1051700005E1E868EE1802E1E868EE180EE1FF0EBE
:1051800001010515006E016AFA0EDB500010056F73
:1051900001C006F10551DF6E03D0FA0EDB1CDF6E95
:1051A000000E00D0E552E552E7CFD9FF1200D9CF6B
:1051B000E6FFE1CFD9FFE652DF6A100EDF5C11E2B5
:1051C000DFCFE6FFB4EC03F0E552E66EDF50EA6AAB
:1051D0000C0FE96E010EEA22E552E750EF6EDF2A6E
:0C51E000ECD7E552E552E7CFD9FF1200F2
:0451EC00D9CFE6FF32
:1051F000E1CFD9FFFE0EDB98DB9ADB9CDB9EFE0E37
:10520000DB50090805E2FE0EDB50410FF60F03D01C
:10521000FE0EDB50300F00D0E552E7CFD9FF120071
:10522000D9CFE6FFE1CFD9FFFE0EDB380F0BF36ECF
:10523000FE0EF3CFDBFFDB50090805E2FE0EDB506C
:10524000410FF60F03D0FE0EDB50300F00D0E552B9
:10525000E7CFD9FF1200D9CFE6FFE1CFD9FF030E88
:10526000E126FD0EDBCFDEFFDBCFDDFF010EDB50E5
:10527000E76E020EE7CFDBFF010EDFCFDBFF020E92
:10528000DB50DF6EDECF00F0DDCF01F000C0F3FFBA
:1052900001C0F4FF030EE15C03E200D0E16AE552D5
:1052A000E16EE552E7CFD9FF1200D9CFE6FFE1CF9B
:1052B000D9FF070EE126D950FB0FE96EFF0EDA2069
:1052C000EA6E010EEECFDBFF020EEECFDBFF030E28
:1052D000EECFDBFF040EEECFDBFFD950010F006EE7
:1052E000DACF01F0050E00C0DBFF060E01C0DBFFC8
:1052F000050EDBCFE9FF060EDBCFEAFF030EE92642
:10530000000EEA22EFCFDFFF050EDBCFE9FF060E2E
:10531000DBCFEAFFEF50E66E050EDBCFE9FF060EAE
:10532000DBCFEAFF030EE926000EEA22E552E75042
:10533000EF6E050EDBCFE9FF060EDBCFEAFFDFCF16
:10534000EFFF050EDBCFE9FF060EDBCFEAFF020E13
:10535000E926000EEA22EFCFDFFF050EDBCFE9FFE3
:10536000060EDBCFEAFF010EE926000EEA22EF501F
:10537000E66E050EDBCFE9FF060EDBCFEAFF020E7D
:10538000E926000EEA22E552E750EF6E050EDBCF6C
:10539000E9FF060EDBCFEAFF010EE926000EEA2246
:1053A000DFCFEFFF010EDBCF00F0020EDBCF01F00D
:1053B000030EDBCF02F0040EDBCF03F000C015F0CC
:1053C00001C016F002C017F003C018F0070EE15C30
:1053D00003E200D0E16AE552E16EE552E7CFD9FF82
:1053E0001200D9CFE6FFE1CFD9FF080EE126040E67
:1053F000DB6A050EDB6A060EDB6A070EDB6AFD0E52
:10540000DBCF17F0FE0EDBCF18F0020E17C0DBFF6C
:10541000030E18C0DBFFFB0EDBCF00F0FC0EDBCF72
:1054200001F0D8900132003200C0DEFF01C0DDFF84
:10543000DFCF00F0DF06010EDBCF01F001E2DB067B
:105440000050011025E0D950020FE96EDACFEAFFD3
:10545000EECFF3FFEDCFF4FF020EEE26000EEF22AB
:10546000F3CFE9FFF4CFEAFFEECF00F0EFCF01F08A
:10547000026A036AD950040FE96EDACFEAFF0050DE
:10548000EE260150EE220250EE220350EE22D0D73B
:10549000FB0EDB50010B18E0020EDBCFE9FF030E21
:1054A000DBCFEAFFEFCF00F0016A026A036AD9504E
:1054B000040FE96EDACFEAFF0050EE260150EE222B
:1054C0000250EE220350EE22D950060FE96EDACFD9
:1054D000EAFFEE50ED1025E0040EDBCF00F0050EE4
:1054E000DBCF01F0026A036A060EDBCF04F0070E81
:1054F000DBCF05F0066A076A04500026055001223A
:105500000650022207500322040E00C0DBFF050EE6
:1055100001C0DBFF060E02C0DBFF070E03C0DBFF8E
:10552000D3D7040EDB1C006E050EDB1C016E00C021
:10553000F3FF01C0F4FF080EE15C03E200D0E16A72
:10554000E552E16EE552E7CFD9FF1200D9CFE6FF71
:10555000E1CFD9FF460EE126010EDF6EDB6A020EB7
:10556000DB6AD950FD0FE96EFF0EDA20EA6EEE50CD
:10557000ED1001E199D0FD0EDBCF04F0FE0EDBCF84
:1055800005F0066A076A400E045C000E0558000E1E
:105590000658000E075806E3400E006E016A026AC4
:1055A000036A08D0FD0EDBCF00F0FE0EDBCF01F06A
:1055B000026A036A050E00C0DBFFDBCFE6FFE66A86
:1055C000D950060FE66E000EDA20E66EB6EC1CF03F
:1055D000E552E552E552E552050EDB50006E016AD8
:1055E000D950FD0FE96EFF0EDA20EA6E0050EE5E34
:1055F0000150ED5A040EDB6A050EDB50F36E040E0B
:10560000DBCFF4FFF350F45C4EE2D950060F006E8E
:10561000DACF01F0040EDB500F010024E96E000E1A
:105620000120EA6E030EEFCFDBFFDF501AE1010E1F
:10563000DBCFE6FF030EDB50E552E724E76E010EF9
:10564000E7CFDBFF030EDB50F36E010EDBCFF4FF81
:10565000F350F45C05E2020EDB2A02E1010EDB2AC4
:1056600019D0020EDBCFE6FF030EDB50E552E72434
:10567000E76E020EE7CFDBFF030EDB50F36E020E88
:10568000DBCFF4FFF350F45C05E2010EDB2A02E10C
:10569000020EDB2ADF5002E0000E01D0010EDF6EA9
:1056A000040EDB2AA9D75DD7020EDB1CE76E020EC3
:1056B000E7CFDBFF010EDB1CE76E010EE7CFDBFF60
:1056C000DBCF00F0020EDBCF01F000C0F3FF01C022
:1056D000F4FF460EE15C03E200D0E16AE552E16EC0
:1056E000E552E7CFD9FF1200D9CFE6FFE1CFD9FFCE
:1056F000FE0EDB5039080DE3300EF36EFE0EDBCFED
:10570000F4FFF350F45C05E3FE0EDB50D00F24D021
:1057100021D0FE0EDB5046080DE3410EF36EFE0E67
:10572000DBCFF4FFF350F45C05E3FE0EDB50C90F52
:1057300013D010D0FE0EDB5066080CE3610EF36E42
:10574000FE0EDBCFF4FFF350F45C04E3FE0EDB50FF
:10575000A90F02D0FF0E00D0E552E7CFD9FF12000B
:10576000D9CFE6FFE1CFD9FF020EE126010EE76EA9
:10577000FD0EDBCFE9FFFE0EDBCFEAFFE750E926A7
:10578000000EEA22EF50E66EAFDFE552DF6EFD0E4F
:10579000DBCFE9FFFE0EDBCFEAFFEF50E66EA4DFC2
:1057A000E552E76E010EE7CFDBFFFF0EDF5C04E0A2
:1057B000010EDB50FF0802E1000E10D0010EDB38B5
:1057C000F00BDF10E66EFB0EDBCFE9FFFC0EDBCF4C
:1057D000EAFFE552E750EF6E010E00D0006E020EB8
:1057E000E15C02E2E16AE552E16E0050E552E7CF8A
:1057F000D9FF1200D9CFE6FFE1CFD9FFE652DF6A29
:10580000A6A203D0C3EC37F0FBD72F0EA616A684B2
:10581000FB0EDBCFE9FFDB2AFC0EDBCFEAFF01E367
:10582000DB2AEF50A86EDF2AFA0EDB50D880DF5457
:1058300001E2A86AFD0EDBCF00F0FE0EDBCF01F027
:1058400001C000F0016A0050AA6EFD0EDBCF00F02F
:10585000DB2AFE0EDBCF01F001E3DB2A0050A96E4C
:10586000550EA76EAA0EA76EA6820000A6A203D0B0
:10587000C3EC37F0FBD7A850CBE1A694DF0400D0EF
:10588000E552E552E7CFD9FF1200D9CFE6FFE1CFCD
:10589000D9FFE652DF6AA6A203D0C3EC37F0FBD7EC
:1058A0003F0EA616DF2AFA0EDB50D880DF5408E23E
:1058B000FD0EDBCFE9FFFE0EDBCFEAFFEF6A23D060
:1058C000FB0EDB50A96EFB0EDBCF00F0FC0EDBCF36
:1058D00001F001C000F0016A0050AA6EFB0EDB2A45
:1058E000FC0E01E3DB2AA680FD0EDBCFE9FFFE0EF6
:1058F000DBCFEAFFA8CFEFFFFD0EDB2AFE0E01E3B0
:10590000DB2AA850CFE1DF0400D0E552E552E7CF13
:10591000D9FF1200D9CFE6FFE1CFD9FFE652FB0E47
:10592000DBCF00F0FC0EDBCF01F001C000F0016A1C
:105930000050AA6EFB0EDB50A96E3F0EA616FD0EA0
:10594000DBCFE9FFDB2AFE0EDBCFEAFF01E3DB2A38
:10595000EFCFDFFFA680A850DF5C02E0010E0AD087
:10596000DF5002E1000E06D0A92A01E1AA2AE7D7FA
:10597000010E00D0E552E552E7CFD9FF1200D9CF92
:10598000E6FFE1CFD9FFE652FD0EDBCFE9FFDB2AD0
:10599000FE0EDBCFEAFF01E3DB2AEFCFDFFFDF50B4
:1059A0002DE0610EDF5C05E3DF507A0802E3200E94
:1059B000DF5ED950FA0FE96EFF0EDA20EA6EEFCF04
:1059C000F6FFEE2AEFCFF7FF000EEE22EFCFF8FF43
:1059D000EE220800F550DF5C02E0000E11D0FA0E56
:1059E000DBCFF6FFFB0EDBCFF7FFFC0EDBCFF8FFC4
:1059F0000800F55002E1010E03D0C6D7000E00D01A
:105A0000E552E552E7CFD9FF1200D9CFE6FFE1CF4B
:105A1000D9FF040EE126FD0EDBCF17F0FE0EDBCF23
:105A200018F0020E17C0DBFF030E18C0DBFFDE6AA2
:105A3000DD6ADECF00F0DDCF01F0FB0EDBCF02F040
:105A4000FC0EDBCF03F00250005C035001580FE264
:105A5000020EDBCFE9FFDB2A030EDBCFEAFF01E317
:105A6000DB2AEF6ADF2A010E01E3DB2AE2D7040E0C
:105A7000E15C02E2E16AE552E16EE552E7CFD9FF6F
:105A80001200D9CFE6FFE1CFD9FFE552E7CFD9FF2A
:105A90001200D9CFE6FFE1CFD9FFE652030EF36E35
:105AA000FA0EDBCFF4FFF350F45C01E213D1600E89
:105AB000006E760E016E000E026EFB0EDBCFE9FF6C
:105AC000FC0EDBCFEAFFEF50E840E8403F0B036EEF
:105AD000046A056A03AE02D0046805680050032416
