:100000000C9470000C948D000C948D000C948D0059
:100010000C948D000C948D000C948D000C948D002C
:100020000C948D000C948D000C948D000C948D001C
:100030000C948D000C948D000C948D000C948D000C
:100040000C9493000C948D000C948D000C948D00F6
:100050000C948D000C948D000C948D000C948D00EC
:100060000C948D000C948D000C948D000C948D00DC
:100070000C948D000C948D000C948D000C948D00CC
:100080000C948D000C948D000C948D000C948D00BC
:100090000C948D00D708E808530C530C530CF90846
:1000A000530C0A091B09530C44096409530C530CE3
:1000B000530C530C530C530C530C530C530C530C48
:1000C000BD09660AAB0A530C530C530CE60AF20A3C
:1000D000030B530C6F0B530C530C530C870BF30B8C
:1000E00011241FBECFEFD8E0DEBFCDBF12E0A0E0ED
:1000F000B1E0ECE6F2E202C005900D92A230B10749
:10010000D9F712E0A2E0B2E001C01D92A334B1071A
:10011000E1F70E948B0C0C9434110C94000083E3E3
:1001200091E00C949E051F920F920FB60F9211242E
:100130008F939F93809140029091410201969093FA
:100140004102809340028091120290911302019625
:100150009093130280931202009906C080912402AA
:100160008F5F8093240202C01092240201990AC07A
:10017000809104029091050201969093050280936C
:10018000040204C0109205021092040202990AC0EF
:100190008091060290910702019690930702809346
:1001A000060204C0109207021092060203990AC0C8
:1001B0008091080290910902019690930902809320
:1001C000080204C0109209021092080204990AC0A1
:1001D00080910A0290910B02019690930B028093FA
:1001E0000A0204C010920B0210920A0205990AC07A
:1001F00080910C0290910D02019690930D028093D4
:100200000C0204C010920D0210920C0206990AC052
:1002100080910E0290910F02019690930F028093AD
:100220000E0204C010920F0210920E0207990AC02B
:100230008091100290911102019690931102809387
:10024000100204C010921102109210028091250237
:100250008F5F8093250280912602823049F480913D
:100260002502853670F085B191E0892785B907C0F0
:10027000813011F4289803C0811103C0289A10928C
:1002800025029F918F910F900FBE0F901F90189590
:100290002F923F924F925F926F927F928F929F9296
:1002A000AF92BF92CF92DF92EF92FF920F931F9384
:1002B000CF93DF93CDB7DEB7AF970FB6F894DEBF1D
:1002C0000FBECDBF3C01362E142F222E1F924F930E
:1002D0001F926F937F928F9381E491E09F938F930E
:1002E000CE0101964C019F928F930E94630E2E2D9A
:1002F0000FB6F894DEBF0FBECDBF6701CE01819669
:100300005C0145E5442E41E0542E8C2D821B801764
:10031000C0F4F60181916F011F928F935F924F920B
:10032000BF92AF922FA70E94630EB501C4010E9435
:10033000580E0F900F900F900F900F900F902FA5C9
:10034000E4CFC4010E949E05C301A0E0B0E0BC015F
:1003500055274427822D90E0A0E0B0E03AE1880FD5
:10036000991FAA1FBB1F3A95D1F7482B592B6A2B0F
:100370007B2B5329412B49A35AA36BA37CA381E078
:100380008EA30DA3002339F0402F50E0B701CE011A
:1003900087960E944F0EC5010E946A0421E0892BB6
:1003A00009F020E0822FAF960FB6F894DEBF0FBEA3
:1003B000CDBFDF91CF911F910F91FF90EF90DF9014
:1003C000CF90BF90AF909F908F907F906F905F90F5
:1003D0004F903F902F9008956F927F928F929F92AF
:1003E000AF92BF92CF92DF92EF92FF920F931F9343
:1003F000CF93DF93CDB7DEB72E970FB6F894DEBF5D
:100400000FBECDBF6C014B013A015901CE010196DF
:100410000E94E904892B21F589819A81AB81BC81F5
:10042000F3018083F40190839D013170F6013183E3
:1004300020832AE1B695A795979587952A95D1F7B8
:100440008770F50180834D81F8014083442351F08A
:1004500050E0BE01695F7F4FC7010E944F0E02C08E
:1004600080E001C081E02E960FB6F894DEBF0FBE8B
:10047000CDBFDF91CF911F910F91FF90EF90DF9053
:10048000CF90BF90AF909F908F907F906F90089586
:10049000F999FECF90E092BD81BDF89A80B590E0C9
:1004A00008959F92AF92BF92CF92DF92EF92FF9208
:1004B0000F931F93CF93DF93B82E062F8BE591E018
:1004C0000E949E05C0E0D0E010E08B2D8870B82E11
:1004D000EE24E394F12C9C2EA8010C2E02C055951D
:1004E00047950A94E2F740FF1BC0AC2E83E4A80EA8
:1004F000B1100DC08A2D0E94480285B19701092CC8
:1005000001C0220F0A94EAF7822785B909C0C0907A
:100510003302D12C8A2D0E944802C816D90651F305
:100520002196C830D105B9F6DF91CF911F910F9177
:10053000FF90EF90DF90CF90BF90AF909F90089585
:10054000F999FECF90E092BD81BD60BDFA9AF99A0B
:1005500081E090E00895882389F1813011F482E4EC
:100560002AC0823011F483E426C0833011F484E47D
:1005700022C0843011F485E41EC0853011F486E475
:100580001AC0863011F487E416C0873011F488E46D
:1005900012C0883011F489E40EC0893011F48AE465
:1005A0000AC08A3019F485B18095089590E9980FB2
:1005B000903130F48F5B0E944802089580E20895E4
:1005C0008FEF0895CF93811105C081E40E94A002AE
:1005D00081E406C0813039F482E40E94A00282E402
:1005E0000E9448024CC0823029F483E40E94A00299
:1005F00083E4F6CF833029F484E40E94A00284E4EB
:10060000EFCF843029F485E40E94A00285E4E8CF8E
:10061000853029F486E40E94A00286E4E1CF86308A
:1006200029F487E40E94A00287E4DACF873029F416
:1006300088E40E94A00288E4D3CF883029F489E4BA
:100640000E94A00289E4CCCF893029F48AE40E9478
:10065000A0028AE4C5CF8A3029F46160609565B94B
:1006600085B10CC090E9980F903138F4C1E4C80FFF
:100670008C2F0E94A0028C2FB3CF862F8095CF9114
:10068000089581E00E9448020895682F81E00C944B
:10069000A00281E10E944802089582E10E9448027E
:1006A00008950895089580E0089580E0089583E016
:1006B0000895E82FF0E0ED5DFE4F808108950895E4
:1006C000E82FF0E0E85FFE4F808108958C5F0E9484
:1006D000480208958C5F0C94A002875F0E94480234
:1006E0000895875F0C94A00280E1089588E0089542
:1006F00081E0089581E00E9448020895682F81E01A
:100700000C94A00282E00E9448020895682F82E0C3
:100710000C94A002682F83E00C94A00283E00E9456
:100720004802089560E070E0CB01089560E070E059
:10073000CB0108950895FC0182E0808380E78183E6
:10074000128213821482158216828CEB91E00C9433
:100750009E05CF93C82F83E08093150283E8809392
:10076000140270E07093170260931602409318020F
:10077000C093190281E40E94480280931A0283E424
:100780008C0F0E94480280931B02CF910C94790732
:100790008295807F8093ED001092EE001092EF0022
:1007A0001092F0001092F1001092F2001092F300FB
:1007B0001092F4001092F5001092F6001092F700DB
:1007C00088E01092FA008150E1F70895CF93C0E0DD
:1007D0008C2F0E94C803CF5FCF30D1F7CF910895FF
:1007E0008091ED0021E030E0922F9295907F9093E0
:1007F000ED009091EF00907C31F09091EE0096FF2B
:1008000006C01092ED008093ED00C90108952F5F9E
:100810003F4F2F30310541F78093ED008FEF9FEF71
:100820000895843021F160F4813079F1C0F0823094
:10083000D1F0833009F043C028E14EE062E128C0E6
:100840008730E9F038F48530B1F08630C1F528E121
:100850004EE017C08830B9F08F3FD1F030C028E1AA
:100860004EE066EC15C028E14EE064E211C028E1DC
:100870004EE06EE00DC028E14EE066E009C026E1E2
:1008800044E062E005C022E1FBCF28E14EE062E6F1
:100890006093E2004093E3002093E4000E94E603AB
:1008A0001092ED008091EF0080688093EF008091BE
:1008B000D80082608093D80080E090E008958DEFAA
:1008C0009FEF0895E8EDF0E080818D7F808380E0E8
:1008D00090E00895CF93DF93EC010E94F0038F3FE7
:1008E0002FEF920709F470C0982F9295907F909304
:1008F000ED000E94C8039D818C818F7090FF32C0F3
:10090000805F8093EF009D818881880F880F880F1A
:1009100092FD84608093F000488159816A817B81D7
:1009200095E076956795579547959A95D1F74093B9
:10093000F100488159816A817B812DE07695679528
:10094000579547952A95D1F74093F20048815981F0
:100950006A817B8135E176956795579547953A95FC
:10096000D1F719C08093EF008D8181FF03C084E02F
:100970008093F00088818295880F807E8093F200BA
:10098000488159816A817B8183E076956795579587
:1009900047958A95D1F74093F30080E090E02C8151
:1009A00030E08217930744F4FE01E80FF91F268117
:1009B0002093FA000196F3CF8091EF00806480933A
:1009C000EF0080E090E002C08FEF9FEFDF91CF91CA
:1009D0000895CF92DF92EF92FF920F931F93FC0145
:1009E0001092ED008091EE0085FF7AC01582108292
:1009F00011821282138214828091F00082FF02C061
:100A000082E085838091EF0084FF39C08581816019
:100A10008583C090F3004091F2000091F100809135
:100A2000F00050E060E070E09DE0440F551F661F4D
:100A3000771F9A95D1F7D12CE12CF12C25E1CC0C24
:100A4000DD1CEE1CFF1C2A95D1F74C0D5D1D6E1DA3
:100A50007F1D10E020E030E0A5E0000F111F221FF5
:100A6000331FAA95D1F7400F511F621F731F869540
:100A700086958695480F511D611D711D11C080918D
:100A8000F3004091F20042954695477050E098E09F
:100A9000899F400D511D1124662757FD6095762FC3
:100AA00040835183628373832091EF002F702483EE
:100AB00080E090E0821748F43091FA00DF01A80F3F
:100AC000B91F16963C930196F5CF80E00E94C803AB
:100AD0008091EF0080688093EF0080E090E002C09A
:100AE0008EEF9FEF1F910F91FF90EF90DF90CF90CF
:100AF00008958091D90090E008951092ED008093C0
:100B0000F3006093F2004093F1002093F00080E046
:100B100090E008951092ED008093F7006093F60046
:100B20004093F5002093F40080E090E008959091C8
:100B3000C80095FFFCCF8093CE0008951F93CF93FC
:100B4000DF93EC011991112349F01A3019F48DE06B
:100B50000E949705812F0E949705F4CF8DE00E9497
:100B600097058AE0DF91CF911F910C94970582E061
:100B7000809326020E944103811101C08FEF809370
:100B80003D0210922B0210922C0210922E02109213
:100B90002D0210922F021092140210921502109240
:100BA0001702109216021092180210922802109248
:100BB0003C021092220210923B02109221021092EB
:100BC000420210923F0210923E0210924102109295
:100BD000400210922A021092290210923A021092B8
:100BE00023021092270208950E948203807C8034A1
:100BF00059F08FEF0E94450380E00E94860380EA4F
:100C00000E948A0380E0089581E0089510922602F0
:100C1000089580912B0287FF1BC080912D02909137
:100C20002E02892B19F580912F028630F9F48091DC
:100C300031028F3FD9F48091320280933D020E94AD
:100C4000450380E40E94860383E080933B0208957D
:100C50008091400290914102893E934038F08FEF9D
:100C600080933D020E9445030C94B70508950E94AD
:100C70008203811117C080912B028F708530B1F4EF
:100C80000E94820390913102891781F0892F0E947E
:100C900086038FEF80933D020E94450381E080939D
:100CA0003B020895809131020C948603089580914F
:100CB0002B028F70823079F490913D028091310245
:100CC000981309C08091320280933D020E9445032F
:100CD00080E40C948603089580912B028F7099F024
:100CE00020913D029091310229130DC0813021F0F5
:100CF00080913202811107C08FEF80933D020E94E4
:100D000045030C94B7050895803829F480913C027E
:100D100010923C020895813809F443C0823809F4E6
:100D200042C0833809F441C0843911F40C94530350
:100D3000853911F40C945503863911F40C9457033A
:100D4000893818F484580C94660397E7980F983004
:100D500018F4892F0C946D03813919F480913D02A8
:100D60000895833919F480913E020895823919F467
:100D700080913F020895873911F40C9474038839E7
:100D800011F40C947603893911F40C94780390E3F0
:100D9000980F903118F4892F0C945903805E0C94AD
:100DA000600381E0089585E0089580E0089587FD5F
:100DB0000C9484060C94AB02CF93E62F6095CCE79D
:100DC000C80FC53040F46E2F8C2F0E946A038C2F01
:100DD000CF910C946603823969F46E2F70E0762F00
:100DE000662780913E02682B70933F0260933E021B
:100DF000672F77C0833959F460913E0270913F02AA
:100E000066276E2B70933F0260933E026AC0C7E76D
:100E1000C80FC830A8F480913E0290913F02492F3C
:100E200050E04F3F510509F05CC08F3F09F059C0B9
:100E30006E2F8C2F0E9471038C2FCF910C946D0319
:100E4000C0E3C80FC031A8F480913E0290913F02E8
:100E5000292F30E02F3F310509F043C08F3F09F0C3
:100E600040C06E2F8C2F0E945F038C2FCF910C946B
:100E70005903C6E6C80FC43018F40E94920306C096
:100E8000C2E6C80FC430A8F40E94960323E030E005
:100E90002C1B310943E0220F331F4A95E1F7287FCD
:100EA000332704C096958795779567952A95D2F74D
:100EB00018C0823AB1F4E53531F410922A0210924A
:100EC000290265E50EC0EA3A61F480912902909109
:100ED0002A02883E934020F40E949A036AEA01C0E5
:100EE00060E0862FCF91089587FD0C94DC060C946A
:100EF000E202EF92FF920F93009114020F7089E1CA
:100F0000E82E82E0F82E2091150240913D0260917A
:100F1000180280911602909117020E9448018111D7
:100F200005C0909128029F5F909328020F91FF9037
:100F3000EF90089581E880931402109215021092A8
:100F400017021092160282E08093180280913D02EF
:100F5000809319020E94790781E080932602089508
:100F600020912102213091F120F0223009F480C03B
:100F70007DC0809122028F3FA1F091E890931402EE
:100F800010921502109217021092160292E090939E
:100F90001802809319020E94790781E08093210250
:100FA0002CC094E090933B0291E8909314028093BC
:100FB000190287E080931502109217021092160210
:100FC00083E0809318020E94790752C080912B021F
:100FD00087FF1EC080912D0290912E02892B09F06F
:100FE00047C080912F02833009F042C080912202D5
:100FF000811108C082E080933B021092410210925E
:10100000400236C08F5F80932202109221021AC0E4
:101010008091400290914102893E934048F1809135
:1010200042028F5F80934202833000F1809122025E
:1010300081110BC0209322021092210210924102D2
:10104000109240021092420213C080933D0293E03E
:1010500090933B02109221020E94450380E40E947B
:101060008603109242020E949A0702C01092210247
:1010700010922B02089593E89093140297E09093B6
:10108000150224E130E0309317022093160299E014
:10109000909318021092190280931A0260931B0217
:1010A0000C947907CF93DF931F92CDB7DEB7809171
:1010B0003A028F5F8C3318F480933A0213C0109277
:1010C0003A02809123028F5F8093230280913B023A
:1010D000833041F40E944D0389830E944903698152
:1010E0000E943B08809123028C3338F01092230237
:1010F000809127028F5F8093270280912702883199
:1011000010F01092270280913B02833069F4209105
:1011100039022F5F822F8F7090E002971CF420938A
:10112000390202C0109239020F90DF91CF910895D9
:1011300080912B028F708130A1F490913D028091BB
:10114000310298130EC080E88093140210921502A9
:10115000109217021092160283E0809318020C94EA
:10116000790708956F927F928F929F92AF92BF926C
:10117000CF92DF92EF92FF920F931F93CF93DF9363
:101180001F92CDB7DEB780912D0290912E02892B50
:1011900009F089C380912F0290E0FC013197E6327B
:1011A000F10508F080C3E65BFF4F0C94490E0F90E9
:1011B000DF91CF911F910F91FF90EF90DF90CF9033
:1011C000BF90AF909F908F907F906F900C94370658
:1011D0000F90DF91CF911F910F91FF90EF90DF90D3
:1011E000CF90BF90AF909F908F907F906F900C9416
:1011F00098080F90DF91CF911F910F91FF90EF9082
:10120000DF90CF90BF90AF909F908F907F906F9026
:101210000C9457060F90DF91CF911F910F91FF9083
:10122000EF90DF90CF90BF90AF909F908F907F9086
:101230006F900C946C0680912B028F70823009F0B5
:1012400032C390913D028091310298132CC380915A
:10125000320287FD03C00E94AB0202C00E948406D6
:1012600080931A02809132028093190283E0809366
:10127000150282E88093140210921702109216024F
:101280008AE080931802FEC210912B021F70133067
:1012900009F009C390913D0280913102981303C374
:1012A000809132026091330287FD03C00E94E20206
:1012B00002C00E94DC0680931A0280913202809361
:1012C000190210931502D5CF90913D028091310201
:1012D000981306C080913202893011F40E945103A4
:1012E00090913D02809131029813DDC280913202CB
:1012F000813009F0D8C280E00E94590390913302F6
:101300008913D1C283E00E9459039091340289135A
:10131000CAC285E00E945903909135028913C3C265
:1013200087E00E945903909136028913BCC28091D4
:101330003E0290913F02492F55272091370230E01D
:101340004217530709F0AFC299272091380230E0C5
:101350008217930709F0A7C20F90DF91CF911F91D9
:101360000F91FF90EF90DF90CF90BF90AF909F9044
:101370008F907F906F900C945103809131028295F1
:101380008F70813041F138F0823009F444C08330ED
:1013900009F461C082C080E00E945903909132023A
:1013A00089137DC081E00E94590390913302891313
:1013B00076C082E00E9459039091340289136FC075
:1013C00083E00E94590390913502891368C080918F
:1013D000390280615FC084E00E945903909132021B
:1013E00089135DC085E00E945903909133028913EF
:1013F00056C086E00E9459039091340289134FC071
:1014000087E00E94590390913502891348C080916A
:10141000390280623FC088E00E94590390913202F5
:1014200089133DC089E00E945903909133028913CA
:1014300036C08AE00E9459039091340289132FC06C
:101440008BE00E94590390913502891328C0809146
:10145000390280641FC08CE00E94590390913202CF
:1014600089131DC08DE00E945903909133028913A6
:1014700016C08EE00E9459039091340289130FC068
:101480008FE00E94590390913502891308C0809122
:10149000390280688093390202C01092390280912B
:1014A0003902807F803F09F0FEC10F90DF91CF911C
:1014B0001F910F91FF90EF90DF90CF90BF90AF9072
:1014C0009F908F907F906F900C94B70590913D0204
:1014D000809131029813E7C1D0903202E09033023C
:1014E000812C912CF12C07E0C02E83E0B82E9AE1DC
:1014F000A92E0E2D10E001501109882D8E1408F030
:10150000D2C16C2D0E943D0E882D8D0D99830E94B5
:10151000D7069981E92FF0E0EC5EFD4F8683963087
:1015200029F08016910699F49F5F01C097E09F57BC
:1015300090931402B09215021092170210921602A4
:10154000A0921802F09219020E947907F3948FEF8B
:10155000881A980AD2CF90913D0280913102981357
:10156000A2C1D090320290912B0292509770B3E3B7
:10157000EB2EB2E0FB2E1AE1A12E12E0B12E870174
:10158000DA18802F8E19891788F4F80161918F017C
:10159000CA2CCD0C8C2D99830E9474078C2D0E942F
:1015A000D706F50181935F019981EBCF83E08093AA
:1015B000150210921702109216028AE18093180207
:1015C000109219029F57909314025CC190913D02B2
:1015D00080913102981367C1809132020E94AB0260
:1015E00061E00BC090913D028091310298135BC184
:1015F000809132020E94AB026FEF680F809132023D
:101600000E94E2022DCE8091310290913D02981706
:1016100019F08F3F09F047C183E08093150288E8F5
:1016200080931402109217021092160280E28093A7
:10163000180200E010E0AFE0EA2E10931902FE2C31
:10164000F01AFAE1CF2EF2E0DF2E0F5F8F2D0E940D
:101650005903F60181936F01013130F0ECE1EE2E78
:10166000E2E0FE2E10E00CC0FA94F1E2CF16F2E0B8
:10167000DF0659F70E9479071F5F1330F1F6EECFAE
:10168000812F0E946003882331F0812F0E94600324
:10169000F701808302C0F70110821F5FFFEFEF1A8E
:1016A000FF0A153069F70E94790773E0F72EF09270
:1016B00019026AE1C62E62E0D62E00E0802F810F6B
:1016C0000E946003F60181936F010F5F0730B1F74D
:1016D000195F0E947907F394113249F7E4C09091A1
:1016E0003D02809131029813DEC083E080931502A1
:1016F00087E880931402109217021092160282E279
:101700008093180289E192E00E949B03BBC09091F4
:101710003D02809131029813C6C080912B028F70D8
:1017200090E0049724F0A0903502A11002C0AA24F2
:10173000A39400913E0210913F0230913202209119
:101740003302822F90E0932B90933F0280933E02CE
:1017500083E080931502109217021092160287E21E
:10176000809318021092190230931A0220931B02E0
:10177000B12CEA2CF12C5DE1C52E52E0D52EC7012B
:101780008B19910904971CF49A2C9B1802C044E011
:10179000942E84E8890D80931402809134028B0D7D
:1017A00080931C023DE1632E32E0732E962D9C192E
:1017B000991550F4809134028B0D890F0E94D70641
:1017C000F30181933F01F2CF0E947907B90C809118
:1017D00019028F5F80931902BA1488F210933F02A6
:1017E00000933E0260C090913D02809131029813B7
:1017F0005AC000913E0210913F028091320290E067
:10180000982F882720913302822B90933F02809358
:101810003E0283E08093150280912B028F708058E6
:1018200080931402109217021092160287E280939E
:101830001802F09034028F2D90E04091340250E075
:1018400020912B022F7030E024503109240F351FD6
:10185000821793079CF46C01C41AD50AF4E0CF0EEA
:10186000D11CF601E55DFD4F66818F2D0E94740746
:10187000F601EC5EFD4F8583F394DDCF10933F02BC
:1018800000933E020F90DF91CF911F910F91FF9037
:10189000EF90DF90CF90BF90AF909F908F907F9010
:1018A0006F900C9479070F90DF91CF911F910F915A
:1018B000FF90EF90DF90CF90BF90AF909F908F9070
:1018C0007F906F900895EF92FF920F931F938091F6
:1018D0002B0287FD18C081E3E82E82E0F82E0BE290
:1018E00012E02CE232E040E352E06FE272E08DE27F
:1018F00092E00E94EC01882341F090912B029068C5
:1019000090932B0203C081E001C080E01F910F91F2
:10191000FF90EF900895CF93DF93CDB7DEB7A397F5
:101920000FB6F894DEBF0FBECDBF8FEF82B911B8EE
:1019300084B985B91092C80086E08093CA001092DD
:10194000CD0089E18093CC0088E18093C90082E0DA
:1019500080936E008DE387BD8CE084BD789420E099
:1019600040E060E084E00E941104892B21F083E6CE
:1019700091E00E949E058DE791E00E949E050E94E5
:10198000F405882391F00E94B705CE0101967C01F1
:1019900065E5462E61E0562E6E019FE1C90ED11C11
:1019A00074EDA72E7EEFB72E80C060E081E40E9428
:1019B000A00260E082E40E94A00260E083E40E9452
:1019C000A00260E084E40E94A00260E085E40E943E
:1019D000A00260E086E40E94A00260E087E40E942A
:1019E000A00260E088E40E94A00260E089E40E9416
:1019F000A00260E08AE40E94A00260E08BE40E9402
:101A0000A00211EB60E0812F0E94A0021F5F113C39
:101A1000C9F7B9CF80913B02813069F0AFEFA09355
:101A20003D026FEF81E00E94A0020E94B70582E9AB
:101A300091E00E949E0510922B020E94630C8091FF
:101A4000120290911302893E934030F010921302DB
:101A5000109212020E94520880913B028230D9F10A
:101A600078F5811127C080913D028F3F89F581E093
:101A700080933B0204E012E0912CF8012081318137
:101A8000293C310564F081EF91E00E949E0543E01E
:101A900064E1892D0E94A903D801AD92BC92939470
:101AA0000E5F1F4FB7E09B12E8CF80912402893C64
:101AB00010F2B0CF813009F0DDC00E94B007DACF5C
:101AC000833061F0843009F0D5C00E940606D2CF81
:101AD000E3E0E0933B020E949A07CCCF80912B0277
:101AE00087FFC8CF809130021F928F9380912F0281
:101AF0001F928F9380912E028F9380912D028F934E
:101B0000A6EAB1E0BF93AF93FF92EF920E94630EFB
:101B10000FB6F894DEBF0FBECDBF10E0812F90E06E
:101B200020912B022F7030E082179307C4F4FC0140
:101B3000E55DFD4F86811F928F935F924F92DF92FA
:101B4000CF920E94630EB601C7010E94580E1F5F1C
:101B50000F900F900F900F900F900F90DFCFC70155
:101B60000E949E050E94B2088AEB91E00E949E05A9
:101B700080912D0290912E02892B09F47BCF58EB96
:101B8000352E8AEF830D0E9448028C0180EC91E093
:101B90000E949E0507FF67C088ED91E00E949E05A8
:101BA00006FF03C004FD0DC016C080903002912CCA
:101BB00089EF830D0E9448028816990609F053C0E8
:101BC000F1CF80903202912C81E40E944802881665
:101BD000990609F048C08CEF830D0E9448023C0131
:101BE0008BEF830D0E9448024C018EEF830D0E9403
:101BF0004802282E8DEF830D0E9448029801217023
:101C00003327322F2227260D371D60912D02709128
:101C10002E0226273727B80162707727762F66278E
:101C2000680D791D26233723232BE9F490912F0289
:101C300092259823C1F48FEF830D0E9448028130D2
:101C4000910551F0029779F4832D0E94480283E3B5
:101C500091E00E949E0507C0832D0E944802682FD4
:101C6000802F0E94510298E0390EA8EC3A1609F430
:101C700001CF87CF10923B02FDCE991B79E004C0C3
:101C8000991F961708F0961B881F7A95C9F78095BB
:101C90000895EE0FFF1F0590F491E02D0994FB01CC
:101CA000DC0102C001900D9241505040D8F70895D8
:101CB000FB01DC010D900020E9F7119701900D92D6
:101CC0000020E1F70895AEE0B0E0E9E6FEE00C9414
:101CD0000B110D891E8986E08C831A8309838FEF8F
:101CE0009FE79E838D83AE01475E5F4F6F89788D3E
:101CF000CE0101960E94850EEF81F885E00FF11F5D
:101D000010822E96E4E00C942711ACE0B0E0EBE8F2
:101D1000FEE00C94FD107C016B018A01FC0117822E
:101D20001682838181FFBDC1CE0101964C01F7016E
:101D30009381F60193FD859193FF81916F01882333
:101D400009F4ABC1853239F493FD859193FF8191FC
:101D50006F01853229F4B70190E00E946D10E7CF42
:101D6000512C312C20E02032A0F48B3269F030F479
:101D7000803259F0833269F420612CC08D3239F001
:101D8000803339F4216026C02260246023C028609B
:101D900021C027FD27C030ED380F3A3078F426FFF8
:101DA00006C0FAE05F9E300D1124532E13C08AE066
:101DB000389E300D1124332E20620CC08E3221F457
:101DC00026FD6BC1206406C08C3611F4206802C069
:101DD000883641F4F60193FD859193FF81916F015F
:101DE0008111C1CF982F9F7D9554933028F40C5FBB
:101DF0001F4FFFE3F9830DC0833631F0833771F055
:101E0000833509F05BC022C0F801808189830E5FB1
:101E10001F4F44244394512C540115C03801F2E063
:101E20006F0E711CF801A080B18026FF03C0652DE4
:101E300070E002C06FEF7FEFC5012C870E94621037
:101E40002C0183012C852F77222E17C03801F2E058
:101E50006F0E711CF801A080B18026FF03C0652DB4
:101E600070E002C06FEF7FEFC5012C870E94571012
:101E70002C012C852068222E830123FC1BC0832D7E
:101E800090E048165906B0F4B70180E290E00E9455
:101E90006D103A94F4CFF50127FC859127FE8191CE
:101EA0005F01B70190E00E946D1031103A94F1E0AB
:101EB0004F1A51084114510471F7E5C0843611F0EE
:101EC000893639F5F80127FF07C060817181828169
:101ED00093810C5F1F4F08C060817181882777FD57
:101EE0008095982F0E5F1F4F2F76B22E97FF09C057
:101EF00090958095709561957F4F8F4F9F4F20688B
:101F0000B22E2AE030E0A4010E949F10A82EA8184B
:101F100044C0853729F42F7EB22E2AE030E025C058
:101F2000F22FF97FBF2E8F36C1F018F4883579F083
:101F3000B4C0803719F0883721F0AFC02F2F20614F
:101F4000B22EB4FE0DC08B2D8460B82E09C024FFC4
:101F50000AC09F2F9660B92E06C028E030E005C069
:101F600020E130E002C020E132E0F801B7FE07C016
:101F700060817181828193810C5F1F4F06C06081F7
:101F8000718180E090E00E5F1F4FA4010E949F10BE
:101F9000A82EA818FB2DFF77BF2EB6FE0BC02B2D49
:101FA0002E7FA51450F4B4FE0AC0B2FC08C02B2D3D
:101FB0002E7E05C07A2C2B2D03C07A2C01C0752CE7
:101FC00024FF0DC0FE01EA0DF11D8081803311F464
:101FD000297E09C022FF06C07394739404C0822F27
:101FE000867809F0739423FD13C020FF06C05A2C95
:101FF000731418F4530C5718732C731468F4B70146
:1020000080E290E02C870E946D1073942C85F5CFB0
:10201000731410F4371801C0312C24FF12C0B7011B
:1020200080E390E02C870E946D102C8522FF17C062
:1020300021FF03C088E590E002C088E790E0B70187
:102040000CC0822F867859F021FD02C080E201C0C9
:102050008BE227FD8DE2B70190E00E946D10A51480
:1020600038F4B70180E390E00E946D105A94F7CFE6
:10207000AA94F401EA0DF11D8081B70190E00E945D
:102080006D10A110F5CF332009F451CEB70180E2D5
:1020900090E00E946D103A94F6CFF7018681978107
:1020A00002C08FEF9FEF2C96E2E10C941911FC0116
:1020B0000590615070400110D8F7809590958E0F73
:1020C0009F1F0895FC016150704001900110D8F7E6
:1020D000809590958E0F9F1F08950F931F93CF9318
:1020E000DF93182F092FEB018B8181FD03C08FEF48
:1020F0009FEF20C082FF10C04E815F812C813D8107
:10210000421753077CF4E881F9819F012F5F3F4F0D
:1021100039832883108306C0E885F985812F0995C6
:10212000892B29F72E813F812F5F3F4F3F832E83DD
:10213000812F902FDF91CF911F910F910895FA0178
:10214000AA27283051F1203181F1E8946F936E7FF6
:102150006E5F7F4F8F4F9F4FAF4FB1E03ED0B4E0E7
:102160003CD0670F781F891F9A1FA11D680F791F28
:102170008A1F911DA11D6A0F711D811D911DA11D39
:1021800020D009F468943F912AE0269F1124301949
:10219000305D3193DEF6CF010895462F4770405DE4
:1021A0004193B3E00FD0C9F7F6CF462F4F70405D93
:1021B0004A3318F0495D31FD4052419302D0A9F7EE
:1021C000EACFB4E0A6959795879577956795BA95E8
:1021D000C9F700976105710508959B01AC010A2EAE
:1021E00006945795479537952795BA95C9F7620F85
:1021F000731F841F951FA01D08952F923F924F9229
:102200005F926F927F928F929F92AF92BF92CF9286
:10221000DF92EF92FF920F931F93CF93DF93CDB78F
:10222000DEB7CA1BDB0B0FB6F894DEBF0FBECDBF07
:1022300009942A88398848885F846E847D848C84D8
:102240009B84AA84B984C884DF80EE80FD800C81E1
:102250001B81AA81B981CE0FD11D0FB6F894DEBFC4
:0C2260000FBECDBFED010895F894FFCF34
:10226C0000000000000000003132372E302E302EDE
:10227C00312F6D64662F61767233325F30312E7878
:10228C006D6C000000000000000000000000000465
:10229C0003020148656C6C6F20576F726C64210AE5
:1022AC000074783A20253033782F253032782F255A
:1022BC003032782F002F2530327800616374696FCB
:1022CC006E0A004661696C656420746F206F7065DE
:1022DC006E206368616E6E656C21210A0056534353
:1022EC0050204154393043414E333220546573747D
:1022FC000A004E6F646520696E697469616C697A55
:10230C006174696F6E0072783A20253033782F250E
:10231C003032782F253032782F00646F444D0A000C
:10232C0064656275672020646F444D206368656343
:10233C006B20726F77730A00646562756720206486
:10234C006F444D20726F7720656E61626C65640A14
:10235C0000427574746F6E205072657373656421DE
:02236C0000006F
:00000001FF
